:100000000C9407050C944F050C944F050C944F0568
:100010000C944F050C944F050C944F050C944F0510
:100020000C944F050C944F050C94D31C0C944F0565
:100030000C94AA1C0C944F050C944F050C944F057E
:100040000C944F050C944F050C944F050C944F05E0
:100050000C944F050C94841C0C944F050C944F0584
:100060000C944F050C9409210C944F050C944F05EA
:100070000C944F050C944F050C944F050C944F05B0
:100080000C944F050C944F050C944F050C944F05A0
:100090000C944F050C944F050C944F050C944F0590
:1000A0000C944F050C944F050C944F050631FF0935
:1000B00074A1010975150026FF00952075088102BD
:1000C0000976150026FF00952075089102C00501EC
:1000D0000902A1010901A1008501050919012908E9
:1000E00015002501950875018102050109300931C6
:1000F0001581257F95027508810609381581257FB0
:10010000950175088106050C0A38021581257F9531
:100110000175088106C0C005010980A1018502168C
:1001200001002637001A81002AB700751095018159
:1001300000C0050C0901A1018503160100269C02DF
:100140001A01002A9C02751095018100C005010961
:1001500006A101050719E029E71500250195087595
:10016000018102950175088101050819012905958C
:100170000575019102950175039101050719002983
:10018000FF150026FF00950675088100C073253015
:10019000325820007225303458200073656E642078
:1001A000253032583A20253032580A0073656E6483
:1001B0002039443A20253032580A0072253032580E
:1001C000200073656E642037303A20253032580A9B
:1001D0000073656E642039433A20253032580A0096
:1001E0000A456E61626C652057696E6B65793A20CD
:1001F000000A496E686962697420526570656174AD
:100200003A20005B4F4C445D005B4E45575D000A51
:100210004B6579626F61726420547970653A200091
:1002200025583A2530386225730A000A20203031DB
:100230003233343536370A00706339385F6C6564A1
:100240003A20253032580A007573625F6C65643A53
:1002500020253032580A004C45443A202530325887
:100260000A000A4C6F6F702073746172742E0A005A
:100270000A55534220636F6E666967757265642E16
:100280000A000A544D4B3A6331363865322F4C55CB
:1002900046413A6436613764660A00090254000335
:1002A0000100A0320904000001030101000921112D
:1002B0000100012240000705810308000A0904012A
:1002C000000103010200092111010001227F000742
:1002D000058203080001090402000103000000096F
:1002E00021110100012222000705830320000112D1
:1002F00001100100000008EDFE019801010102005B
:10030000013003500043003900380020006B0065C5
:1003100000790062006F00610072006400200063D9
:10032000006F006E00760065007200740065007258
:100330000000000E0374002E006D002E006B002ED6
:100340000000000403090473797374656D3A202575
:100350003034580A00636F6E73756D65723A2025EC
:100360003034580A003F004D3E2000433E20000A32
:1003700000257500363A20776865656C5F74696D95
:10038000655F746F5F6D61783A20000A0025750023
:10039000353A20776865656C5F6D61785F7370656D
:1003A00065643A20000A00257500343A2074696DAE
:1003B000655F746F5F6D61783A20000A00257500F3
:1003C000333A206D61785F73706565643A20000A86
:1003D00000257500323A20696E74657276616C286A
:1003E0006D73293A20000A00257500313A206465B2
:1003F0006C6179282A31306D73293A20000A092D61
:100400002056616C756573202D0A004D3E004D2508
:10041000643E20003F007365742064656661756CFE
:10042000740A00433E20000A002530325820006B39
:100430006579626F6172643A2000291E1F202122B3
:1004400023242526272D2E742A2B141A0815171C51
:10045000180C12132F3028041607090A0B0D0E0F63
:100460003334311D1B0619051110363738752C76BB
:100470004E4B494C52504F514A4D56545F60615556
:100480005C5D5E57595A5B6762666377444568698D
:100490006A80707172738080038048463A3B3C3DAD
:1004A0003E3F40414243808080807939007A7880A5
:1004B000807B7F658080807D8080290A0025750093
:1004C0002F002575005D28002564002000256400AC
:1004D000200025640020002564007C00253032586F
:1004E000006D6F7573656B6579205B62746E7C78E7
:1004F0002079207620685D287265702F61636C29F1
:100500003A205B000A092D204D61676963202D0A9E
:10051000643A0964656275670A783A0964656275C8
:1005200067206D61747269780A6B3A096465627557
:1005300067206B6579626F6172640A6D3A09646560
:10054000627567206D6F7573650A763A0976657214
:1005500073696F6E0A733A097374617475730A6311
:100560003A09636F6E736F6C65206D6F64650A3056
:100570002D343A096C61796572302D34284631305A
:100580002D4634290A506175733A09626F6F746C95
:100590006F616465720A000A092D20436F6E736FE4
:1005A0006C65202D0A4553432F713A0971756974A2
:1005B0000A6D3A096D6F7573656B65790A003F00C6
:1005C00074696D65725F72656164333228293A20FF
:1005D0002530346C580A006B6579626F6172645F14
:1005E00069646C653A2025580A006B6579626F6111
:1005F00072645F70726F746F636F6C3A2025580A73
:1006000000686F73745F6B6579626F6172645F6CB1
:1006100065647328293A2025580A000A092D2053B9
:100620007461747573202D0A004743433A20372EB6
:10063000332E30204156522D4C4942433A20322E1F
:10064000302E30204156525F415243483A20617665
:1006500072350A004F5054494F4E533A204C55467C
:1006600041204D4F5553454B455920455854524113
:100670004B455920434F4E534F4C4520434F4D4D12
:10068000414E44204B45594D41505F5345435449D9
:100690004F4E20343039360A004255494C443A20F6
:1006A000633136386532202831353A34323A3534C0
:1006B000204A756E2031382032303233290A0056F4
:1006C00049443A2030784645454428742E6D2E6BB7
:1006D0002E29205049443A2030783938303128507A
:1006E000433938206B6579626F61726420636F6E85
:1006F00076657274657229205645523A20307830FA
:100700003130310A00444553433A20636F6E7665B9
:100710007274732050433938206B6579626F61724F
:10072000642070726F746F636F6C20696E746F20D9
:100730005553420A000A092D2056657273696F6E7F
:10074000202D0A000A6D6F7573653A206F66660A80
:10075000000A6D6F7573653A206F6E0A000A6B654B
:1007600079626F6172643A206F66660A000A6B658F
:1007700079626F6172643A206F6E0A000A6D61746B
:100780007269783A206F66660A000A6D6174726950
:10079000783A206F6E0A000A64656275673A206FC6
:1007A0006E0A000A64656275673A206F66660A0021
:1007B0000A0A626F6F746C6F616465722E2E2E2050
:1007C00000433E20006D6B5F776865656C5F746900
:1007D0006D655F746F5F6D6178203D2025640A0050
:1007E0006D6B5F776865656C5F6D61785F73706571
:1007F0006564203D2025640A006D6B5F74696D653A
:100800005F746F5F6D6178203D2025640A006D6B19
:100810005F6D61785F7370656564203D2025640AB3
:10082000006D6B5F696E74657276616C203D20258A
:10083000640A006D6B5F64656C6179203D202564FE
:100840000A006D6B5F776865656C5F74696D655FE5
:10085000746F5F6D6178203D2025640A006D6B5FC9
:10086000776865656C5F6D61785F7370656564203E
:100870003D2025640A006D6B5F74696D655F746F60
:100880005F6D6178203D2025640A006D6B5F6D61AE
:10089000785F7370656564203D2025640A006D6B88
:1008A0005F696E74657276616C203D2025640A0074
:1008B0006D6B5F64656C6179203D2025640A00776B
:1008C000686572652064656C74613A206375727343
:1008D0006F723D25642C20776865656C3D25640A40
:1008E00053656520687474703A2F2F656E2E776992
:1008F0006B6970656469612E6F72672F77696B69C8
:100900002F4D6F7573655F6B6579730A000A092D4A
:10091000204D6F7573656B6579202D0A4553432F04
:10092000713A09717569740A313A0964656C6179C3
:10093000282A31306D73290A323A09696E7465725A
:1009400076616C286D73290A333A096D61785F739B
:10095000706565640A343A0974696D655F746F5F28
:100960006D61780A353A09776865656C5F6D617805
:100970005F73706565640A363A09776865656C5F10
:1009800074696D655F746F5F6D61780A0A703A090A
:100990007072696E742076616C7565730A643A09C9
:1009A0007365742064656661756C74730A75703A5A
:1009B000092B310A646F776E3A092D310A70677519
:1009C000703A092B31300A7067646F776E3A092DDF
:1009D00031300A0A7370656564203D2064656C746B
:1009E00061202A206D61785F7370656564202A201C
:1009F00028726570656174202F2074696D655F745D
:100A00006F5F6D6178290A004C25640A000011248B
:100A10001FBECFEFDAE0DEBFCDBF04B603FE28C0B5
:100A20008091550490915604A0915704B0915804B8
:100A30008730904BA740B04BD9F4109255041092D8
:100A40005604109257041092580414BE0FB6F8942E
:100A5000A89580916000886180936000109260008A
:100A60000FBE1092010810920008E0E0F8E309952B
:100A700011E0A0E0B1E0E8E1F5E402C005900D92DC
:100A8000A233B107D9F724E0A2E3B1E001C01D927F
:100A9000A535B207E1F70E94AD1D0C948A220C9493
:100AA0000000FF93EF93E0913201F0913301309712
:100AB00009F00995EF91FF910895FC01859180302F
:100AC00011F0EFDFFBCF0895FF27E0E230E247FFB0
:100AD0000CC0419597FF09C0EDE260957095809537
:100AE0009095611D711D811D911D27FF02C02195EB
:100AF00030E350E2AA27660F771F881F991FAA1FAD
:100B0000A41710F0A41B63955A95A9F7AA3008F012
:100B1000A95FA05DAF93F3956115710581059105FE
:100B200041F7ED3211F4EF93F395F21718F43F9378
:100B3000F395FBCF8F91B5DFFA95E1F70895E99131
:100B4000F9918591803021F0853219F0AADFF9CF33
:100B5000089520E0E89455915532C1F3503311F4D3
:100B6000689455915A3348F4505390F3220F022E53
:100B7000220F220F200D250FF4CF0EF4219589911D
:100B80009991533619F3533729F1533559F1BC0173
:100B900088279927E8945C3621F489919991689483
:100BA0005591543639F446EF7EF077FF0DC08FEF44
:100BB0009FEF0AC055374AE039F0583540E121F03F
:100BC000523642E009F00895FF93EF937DDFEF91F5
:100BD000FF91B7CFFF93EF93FC0181918030B9F380
:100BE00060DFFBCFFF93EF9368DFF1CFDF93CF930D
:100BF000CDB7DEB72596A3DFCF91DF910895809121
:100C00003F0480FF0CC06091130170E075956795FB
:100C1000759567956115710549F1862F089581FFD6
:100C200006C06091130170E075956795F3CF6091F0
:100C3000130182FD0BC0909140049923A1F06091B3
:100C4000120180911301961738F0682F70E0603818
:100C5000710500F38FE70895899FC001112470E0AA
:100C60000E945C22F4CF61E070E0D7CF81E008956C
:100C700080913F0480FF12C06091150185E0689F5C
:100C8000B001112475956795759567956038710564
:100C9000A8F561157105A1F1862F089581FF09C09E
:100CA0006091150185E0689FB001112475956795E5
:100CB000EDCF82FF07C06091150185E0689FB0010C
:100CC0001124E4CF209140042223A9F09091140133
:100CD0006091150185E0689FB00111242917B0F6D5
:100CE000269FA001279F500D1124692F70E0CA0193
:100CF0000E945C22CBCF65E070E0CECF8FE70895F5
:100D000081E0089528E0729FF0011124E60FF11DA3
:100D1000E65CFB4F6491E62FE295E77028E0829F46
:100D2000C00111248E0F911D24E0880F991F2A9570
:100D3000E1F7E62FEF70E80FF92FF11DEE0FFF1F1F
:100D4000E050F8498591949108952FB7F8948091D7
:100D50004A0490914B04A0914C04B0914D042FBFD4
:100D60000895E4E3F2E09281891301C01282319682
:100D700092E0EA33F907B9F70895A6E3B2E0EFEF9E
:100D800090E02D91821751F0EF3F19F4211101C02D
:100D9000E92F9F5F9630A9F7EF3F09F408950E2ED3
:100DA000000CFF0BEC5CFD4F828308954F925F9225
:100DB0006F927F929F92AF92BF92CF92DF92EF920B
:100DC000FF920F931F93CF93DF9300D000D01F9219
:100DD000CDB7DEB76B837C838D837A018C819D8157
:100DE000892B49F08FEFF81204C081E09FEF49177B
:100DF00019F080E001C081E080FD6AC00F2D10E095
:100E0000CE2CD12C8B81882309F456C04090B70397
:100E10005090B8036090B9037090BA038091510468
:100E200090915204A0915304B0915404482A592A35
:100E30006A2A7B2A2FE1A22EB12C9A2CD301C2015F
:100E40000A2C04C0B695A795979587950A94D2F772
:100E500080FD2BC081E0A81AB10878F7912CF80129
:100E600093E0EE0FFF1F9A95E1F7E554FC4FEC0D70
:100E7000FD1D9082E982FA8269817A81892D0F9025
:100E80000F900F900F900F90DF91CF911F910F91C6
:100E9000FF90EF90DF90CF90BF90AF909F907F90AA
:100EA0006F905F904F900C948206B7018A2D0E943C
:100EB0008206019779F2D3CFF80183E0EE0FFF1F8E
:100EC0008A95E1F7E554FC4FEC0DFD1D9080D2CFE3
:100ED00090E080E00F900F900F900F900F90DF91B7
:100EE000CF911F910F91FF90EF90DF90CF90BF9027
:100EF000AF909F907F906F905F904F90089541E0EA
:100F000050E060E070E004C0440F551F661F771F7B
:100F10008A95D2F740955095609570958091B7036A
:100F20009091B803A091B903B091BA03842395239B
:100F3000A623B7238093B7039093B803A093B90374
:100F4000B093BA03089541E050E060E070E004C05F
:100F5000440F551F661F771F8A95D2F78091B703FC
:100F60009091B803A091B903B091BA03842B952B4B
:100F7000A62BB72B8093B7039093B803A093B90324
:100F8000B093BA0308958091B603909185039813A6
:100F900001C008958F5F8770FACF1F93CF93DF93BF
:100FA00000D000D01F92CDB7DEB7942F4983252FF4
:100FB0005A836B837C838D834C815D8181E0452BDB
:100FC00031F02F3F19F481E09F3F09F080E0182FA6
:100FD000117080FD2CC049815A816B817C818D818B
:100FE0000E94D606292F22952F702C3078F42A30B3
:100FF000A8F422502230C8F0812F0F900F900F904C
:101000000F900F90DF91CF911F9108952C3011F028
:101010002F3091F793FB112710F9EECF803C28F089
:10102000803E50F3815F833038F311E0E5CF10E06C
:10103000E3CFE0914104F0914204309721F0019018
:10104000F081E02D099480E00895E8EDF0E08081E2
:101050008E7F80831092E2001092DA001092E100FD
:10106000A0EEB0E08C9181608C9380818F7780833B
:1010700019BCA7EDB0E08C918E7F8C9380818F7E20
:1010800080831092530308950E942508F89487E7FF
:1010900097E7909301088093000887E090EBDC01CC
:1010A0008093550490935604A0935704B09358042A
:1010B00088E19CE00FB6F894A895809360000FBE7D
:1010C00090936000FFCFFC018091670390916803CB
:1010D00086179707A0F06115710529F49091E80033
:1010E0009E779093E80090E06115710551F491119D
:1010F00008C08091E80082FF35C080E00895BC01FF
:10110000F2CF809169038823C9F18530C9F18091BC
:10111000E80083FD31C08091E80082FDEACF809134
:10112000E80080FFE1CF2091F3008091F200322FA0
:10113000282F6115710519F02830310558F091E01C
:101140002830310509F090E02091E8002E772093B7
:10115000E800CACF81918093F100615071092F5F3F
:101160003F4FE7CF80916903882341F0853041F0FC
:101170008091E80083FFBDCF81E0089582E008956B
:1011800083E008952091E4003091E50085E6909198
:10119000EC0090FF06C09091E80090FF06C080E050
:1011A00008959091E80092FDFACF909169039923F8
:1011B00091F0953091F09091EB0095FD10C0409129
:1011C000E4005091E5002417350709F381509A0196
:1011D000F1F684E0089582E0089583E0089581E0C7
:1011E00008958091610387FF13C08091E80082FF1A
:1011F00006C08091E8008B778093E80004C080915E
:1012000069038111F2CF0895809169038823D9F38E
:101210008091E80080FFF8CF8091E8008E77ECCFD6
:10122000982F9093E900242F762F50E0891731F002
:101230007091EC002091ED005091F00021FD07C06D
:101240009F5F973071F78093E90081E008953091B6
:10125000EB003E7F3093EB003091ED003D7F30930B
:10126000ED003091EB0031603093EB007093EC00B7
:101270002093ED005093F0002091EE0027FDE0CF89
:1012800080E008950F931F93CF93DF93CDB7DEB720
:10129000AA970FB6F894DEBF0FBECDBF8091690349
:1012A000882309F44EC11091E9001F708091EC0071
:1012B00080FF39C080E8182B1092E9008091E80087
:1012C00083FF3CC1E1E6F3E089E693E02091F10081
:1012D00021938E179F07D1F780916203833009F421
:1012E00070C018F5813009F447C0823009F4DAC0C3
:1012F0008091E80083FF14C18091610390916203A3
:101300009A3008F00DC1E92FF0E0E757F64F0C9442
:101310007022630A890A900A890A900AEB0A0D0B67
:10132000900A0C0C190C80E0C6CF8A3009F4A9C0D1
:101330008B3009F47DC08930D9F680916103813208
:10134000B9F68091650390916603892B89F68091A7
:10135000E800877F8093E8008091E80082FF2CC03E
:101360008091F100809355038091E8008B77809302
:10137000E8000E94F108BCCF80916103813A09F036
:10138000B7CF8091E800877F8093E8008091650364
:1013900090916603892B61F060E090E080E070E05E
:1013A0000E9463088091E8008B778093E800A0CFCB
:1013B00068E086E593E0F3CF809169038111CCCF9B
:1013C00097CF80916103813A09F092CF80916503B4
:1013D00090916603892BA1F48091E800877F809328
:1013E000E8008091E80080FFFCCF8091110180939C
:1013F000F1008091E8008E778093E8000E94F10868
:101400008091650390916603019709F071CF8091F7
:10141000E800877F8093E8008091E80080FFFCCFA0
:10142000809110018093F1008091E8008E779FCF2A
:1014300080916103813209F05BCF809165039091C7
:101440006603892B59F48091E800877F8093E80038
:101450000E94F108809163038093110180916503DC
:1014600090916603019709F043CF8091E800877F50
:101470008093E8000E94F10880916303809310013B
:1014800037CF80916103813209F032CF8091E8003B
:10149000877F8093E8000E94F10880916403809325
:1014A0004E0426CF80916103813A09F021CF8091CB
:1014B000E800877F8093E8008091E80080FFFCCF00
:1014C00080914E04AFCF803889F0823849F5809101
:1014D00065038F70873020F58093E9008091EB00E1
:1014E00085FB882780F91092E90006C080915E0391
:1014F00090915F03911182609091E800977F9093A3
:10150000E8008093F1001092F1008091E8008E775E
:1015100031C0282F2D7F21F48823F1F0823079F11A
:101520008091E80083FF0AC08091E800877F809364
:10153000E8008091EB0080628093EB001F701093B5
:10154000E900AA960FB6F894DEBF0FBECDBFDF91BB
:10155000CF911F910F91089580916303813001F71E
:10156000933009F080E080935F031092E90080914E
:10157000E800877F8093E8000E94F108D1CF809136
:1015800063038111F2CF809165038F702FEF280FD5
:10159000263030F68093E9002091EB0020FFE5CF64
:1015A000933031F48091EB0080628093EB00DDCFCB
:1015B0009091EB0090619093EB0021E030E001C04E
:1015C000220F8A95EAF72093EA001092EA008091B0
:1015D000EB008860EACF8111A3CF009163030F77FE
:1015E0008091E3008078802B8093E3008091E80075
:1015F000877F8093E8000E94F1088091E80080FFD7
:10160000FCCF8091E30080688093E30083E00111C8
:1016100001C082E08093690383CF8058823008F054
:101620007FCF20916303309164032C3D83E0380722
:10163000A1F583E08A838AE289834FB7F894DE01BB
:10164000139620E03EE051E2E32FF0E05093570084
:10165000E49120FF03C0E295EF703F5FEF708E2FA3
:1016600090E0EA30C0F0C7968D939D932F5F2431B0
:1016700059F74FBF8091E800877F8093E8006AE2C6
:1016800070E0CE0101960E9463088091E8008B779C
:101690008093E80045CFC096E7CF80916503909195
:1016A0006603432F55274330510509F44FC078F5A1
:1016B0004130510509F445C084E590E0EBE9F2E0E2
:1016C0004230510509F02CCF2091E800277F20936C
:1016D000E80020916703309168038217930708F4AC
:1016E0009C0140E02115310509F063C0411161C042
:1016F0008091E80082FDC9CF80916903882329F297
:10170000853019F28091E80083FFF2CFBECF4132DD
:10171000510509F43FC04232510509F001CF833031
:10172000910508F0FDCEFC01EE0FFF1FE45EFE4FB9
:101730000190F081E02D875E9E4FDC018C9190E05E
:101740001DC082E190E0EFEEF2E0BECF3327213002
:101750003105C1F060F02230310509F0E1CEE1E061
:10176000F3E0E4918E2F90E0E1E0F3E007C0E3E4E2
:10177000F3E0E4918E2F90E0E3E4F3E0009709F4C6
:10178000CFCEA2CFE3E3F3E0E4918E2F90E0E3E34A
:10179000F3E0F4CF8330910508F0C2CE880F991F93
:1017A000FC01EE5DFE4F0190F081E02D89E090E0BC
:1017B0008BCF80916903882309F467CF853009F4C2
:1017C00064CF8091E80083FD60CF8091E80082FDC6
:1017D0008FCF8091E80080FF85CF8091F3009091BA
:1017E000F2008927982789272115310519F08830BB
:1017F000910550F041E0089709F040E08091E80041
:101800008E778093E8006ECF44914093F10031963B
:10181000215031090196E8CF803809F081CE8091BE
:10182000E800877F8093E800809160038093F10057
:101830006CCE811175CE00916303023008F070CE3A
:101840008091E800877F8093E800009360030E9406
:10185000F108002399F084E08093690342E061EC91
:1018600081E00E94100942E061EC82E00E941009D0
:1018700046E261EC83E00E94100952CE8091E300C1
:1018800087FDE9CF81E0E8CFEF92FF920F931F939E
:10189000CF937C018B010E94C208C82F811119C00F
:1018A0008091E80085FD0DC08091E8008E778093DF
:1018B000E8000E9442090E94C208882389F3C82FC9
:1018C00008C0F70181917F018093F1000150110957
:1018D00039F78C2FCF911F910F91FF90EF900895C2
:1018E000CF92DF92EF92FF920F931F93CF93DF93EC
:1018F000C8EDD0E088818F7E8883E7EDF0E08081BD
:101900008160808384E082BF81E08093530388817B
:101910008E7F888302EE10E0F80110821092DA00C8
:1019200081EEC82ED12CF601108288818F778883B2
:1019300088818068888388818F7D888319BC109214
:1019400069031092600310925F0310925E0390EEA1
:10195000E92EF12CF70180818B7F80838881816063
:10196000888342E060E080E00E941009F6018081F7
:101970008E7F8083F8018081816080838081886090
:101980008083F70180818E7F808388818061888356
:10199000DF91CF911F910F91FF90EF90DF90CF904B
:1019A000089580915503089580913E03811113C0DD
:1019B0009FB7F89440914A0450914B0460914C04B5
:1019C00070914D049FBF443C59406105710518F06A
:1019D00081E080933E030895EF92FF920F931F934F
:1019E000CF93DF93D82F0FB607FE46C080916903CF
:1019F000843079F08091030190E0019620910501F7
:101A000030E082239323209104012817190609F05E
:101A1000CDC00E94D40C81110FC08091030190E0D1
:101A200001962091050130E0822393232091040147
:101A30002817190609F0BAC00E94A5068C01C091AA
:101A4000E900CF708091EC0080FD37C080E0C82BAA
:101A500083E08093E90085E0E82E8091EB0085FD2E
:101A600008C08091EB0080FF04C08091EE0087FDEC
:101A700044C0CF70C093E900E09103018E2F90E045
:101A800001962091050130E08223932320910401E7
:101A90002817190609F482C0809101019091020172
:101AA000E80FF92FF11DD083809103018F5F909192
:101AB000050189238093030171C080E8C8CFE091BC
:101AC0000101F0910201E80FF11D90818F5F2091DB
:101AD00005018223809304019093F1008091E80036
:101AE00085FD0BC08091E80080FF07C08091E80071
:101AF0008E778093E800E09200018091040190913C
:101B00000301981741F19091E80095FDD8CF80E04E
:101B100029C01092F10032C08091030190E001963B
:101B20002091050130E0822393232091040128179E
:101B3000190609F09ECFF0900001FF2009F499CF1B
:101B40000E94A5068017910709F487CFFA94F092B6
:101B500000018C0182CF8091E80085FFD8CFD0931F
:101B6000F10081E02091F3009091F200322F292FB3
:101B7000232B79F09091E80090FF0BC09091E80042
:101B800095FDC7CF9091E8009E779093E800E09292
:101B90000001882309F2CF70C093E90080E0DF9153
:101BA000CF911F910F91FF90EF900895E091030165
:101BB00073CF90913C0380913D03891751F0E92F39
:101BC000F0E0E45CFD4F80819F5F90933C0390E0E8
:101BD00008958FEF9FEF08958330C9F128F4813085
:101BE00061F0823019F10895853009F452C008F48B
:101BF0003FC0863009F45EC00895809117016817D0
:101C000090F4861B80931701809117011F928F9388
:101C100080EB98E09F938F930E94F6050F900F90B2
:101C20000F900F90089510921701EECF809116013A
:101C3000681750F4861B80931601809116011F923D
:101C40008F938EE998E0E6CF10921601F6CF80913F
:101C50001501681750F4861B8093150180911501BA
:101C60001F928F938BE898E0D5CF10921501F6CF95
:101C700080911401681750F4861B809314018091A1
:101C800014011F928F9386E798E0C4CF109214013D
:101C9000F6CF80911301681750F4861B80931301CF
:101CA000809113011F928F938DE598E0B3CF10922E
:101CB0001301F6CF80911201681750F4861B8093B0
:101CC0001201809112011F928F9382E498E0A2CFBB
:101CD00010921201F6CF833009F445C028F4813008
:101CE00061F0823049F10895853009F46AC008F442
:101CF00051C0863009F47CC0089580911701482FA7
:101D0000460F5527551F4F3F510594F4680F6093B8
:101D10001701809117011F928F9383E398E09F939F
:101D20008F930E94F6050F900F900F900F900895DB
:101D30008FEF80931701EDCF80911601482F460F4A
:101D40005527551F4F3F510554F4680F60931601F6
:101D5000809116011F928F9381E298E0E0CF8FEF80
:101D600080931601F5CF80911501482F460F552716
:101D7000551F4F3F510554F4680F60931501809132
:101D800015011F928F938EE098E0C9CF8FEF80935B
:101D90001501F5CF80911401482F460F5527551F87
:101DA0004F3F510554F4680F609314018091140162
:101DB0001F928F9389EF97E0B2CF8FEF809314013A
:101DC000F5CF80911301482F460F5527551F4F3FE0
:101DD000510554F4680F60931301809113011F9211
:101DE0008F9380EE97E09BCF8FEF80931301F5CF19
:101DF00080911201482F460F5527551F4F3F51051F
:101E000054F4680F60931201809112011F928F9316
:101E100085EC97E084CF8FEF80931201F5CFCF93BD
:101E2000DF9320916C0330916D032817390701F17E
:101E300090936D0380936C03E0914104F091420410
:101E40003097B1F0EC010084F185E02D0995809187
:101E500050048570853061F4DF93CF9385E593E07E
:101E60009F938F930E94F6050F900F900F900F9005
:101E7000DF91CF910895CF93DF9320916A03309142
:101E80006B032817390701F190936B0380936A0362
:101E9000E0914104F09142043097B1F0EC010680EA
:101EA000F781E02D0995809150048570853061F4AB
:101EB000DF93CF9387E493E09F938F930E94F6057F
:101EC0000F900F900F900F90DF91CF9108958DE0BC
:101ED00099E00E945D051F9281E08F931F9285E03B
:101EE0008F938FEB98E09F938F930E94F6050F904E
:101EF0000F900F900F900F900F900895CF938091B7
:101F0000500483FF7EC081EE94E00E945D058091C5
:101F100045041F928F938CED94E09F938F930E94C2
:101F2000F6058AED94E00E945D0580914604282F15
:101F3000082E000C330B3F938F9387ED94E09F9313
:101F40008F930E94F60585ED94E00E945D058091D7
:101F50004704282F082E000C330B3F938F9382EDFC
:101F600094E09F938F930E94F60580ED94E00E9489
:101F70005D0580914804282F082E000C330B3F93F9
:101F80008F938DEC94E09F938F930E94F6058BECDA
:101F900094E00E945D0580914904282F082E000CD2
:101FA000330B3F938F9388EC94E09F938F930E9421
:101FB000F60585EC94E00E945D05809140041F9237
:101FC0008F9382EC94E09F938F930E94F60580ECB0
:101FD00094E00E945D0580913F041F928F938DEBEA
:101FE00094E09F938F930E94F6058AEB94E00E9401
:101FF0005D058DB79EB74C960FB6F8949EBF0FBE89
:102000008DBFE0914104F0914204309751F0C091AE
:1020100045040480F581E02D85E494E00995C093A2
:1020200045040E94A5069093440480934304CF91F5
:1020300008950F931F93CF93DF9380913D04909168
:102040003C04892B8093340290913B04992389F0BE
:10205000892B80933402E5E3F2E02CE332E080E068
:10206000919191118F5F2E173F07D1F78111109237
:102070003B04E0914104F09142043097B1F10280B9
:10208000F381E02D84E392E009958091500482FF72
:102090002CC080FF04C08FE294E00E945D05D0E078
:1020A000C0E009E214E08091500480FF0EC0FE0100
:1020B000EC5CFD4F80811F928F931F930F930E94C2
:1020C000F6050F900F900F900F902196C830D10514
:1020D00051F78091500480FF08C087E294E0DF91BF
:1020E000CF911F910F910C945D05DF91CF911F91BE
:1020F0000F91089510923D0410923C04E4E3F2E045
:1021000011821282138214821582168217820E9413
:10211000191085E0E5E4F4E0DF011D928A95E9F706
:102120001092400410923F040E947E0F90E080E0E5
:102130000E943B0F90E080E00C940F0FCF93C82FCC
:102140001F928F9388E09AE09F938F930E94F605E9
:1021500081E090E0A0E0B0E004C0880F991FAA1FC2
:10216000BB1FCA95D2F78093510490935204A09359
:102170005304B09354040F900F900F900F90CF9191
:102180000C947A10882341F0809590913D04892326
:1021900080933D040C9419100895882339F0909190
:1021A0003D04892B80933D040C94191008958732C7
:1021B000D8F58E3108F0FCC08E3009F48FC078F469
:1021C000873009F470C08B3009F456C0863009F4AA
:1021D00058C08EEB95E00E945D0580E00895863141
:1021E00009F4A6C078F48031A1F790915004892FAA
:1021F000877F93FF88608093500483FF7FC081E5D1
:1022000097E063C0893109F47CC08B3111F790915C
:102210005004892F8D7F91FF82608093500481FF4D
:102220005AC08AE897E051C0883331F150F48932BE
:1022300021F0853311F0873261F680E00E949E1014
:1022400040C08334D1F320F48A3318F28953F6CF97
:10225000883409F0BECF0E947A1080EB97E00E948C
:102260005D052FEF83ED90E3215080409040E1F732
:1022700000C000000E94440884E095E00E945D05D3
:1022800020C080915004817F8E7F8093500487E925
:1022900095E00E945D0581EC97E00E945D0581E07C
:1022A00080934F0408958091500480FF0CC083EA0E
:1022B00097E00E945D0580915004817F8E7F80931E
:1022C000500481E0089587E997E00E945D058091C0
:1022D00050048160F4CF8CE797E0D0CF9091500408
:1022E000892F8B7F92FF84608093500482FF03C00C
:1022F0008DE697E0EACF8DE597E0C0CF84E497E0E4
:10230000BDCF85E397E00E945D0585E097E00E94E0
:102310005D058FEB96E00E945D0589E996E00E94DD
:102320005D0584E596E00E945D0589E296E0A6CF12
:102330008BE196E00E945D050E9419081F928F9321
:1023400081E096E09F938F930E94F60580911101A2
:102350001F928F938AEE95E09F938F930E94F605CC
:1023600080914E041F928F9387ED95E09F938F93FA
:102370000E94F6052FB7F89480914A0490914B047F
:10238000A0914C04B0914D042FBFBF93AF939F9386
:102390008F9380EC95E09F938F930E94F6058DB705
:1023A0009EB742960FB6F8949EBF0FBE8DBF89CFE1
:1023B0008D5144CFCF93DF93882309F454C09EE717
:1023C000980F933020F5C2E0D9E3823831F0C4E0B1
:1023D000D7E4833811F4C1E0D3E50E9419088C23B7
:1023E00009F441C08D2F0E94BD060E9419102FEFE5
:1023F00041EE54E0215040405040E1F700C0000061
:102400008D2F0E94B106DF91CF910C9419109CEF93
:10241000980F913AB0F390E2980F983088F4877053
:1024200021E030E0A90102C0440F551F8A95E2F770
:10243000CA01809590913D04892380933D04E3CFA8
:102440009BE5980F933030F490E080E0DF91CF91DE
:102450000C943B0F885A873130F490E080E0DF9194
:10246000CF910C940F0FDF91CF910895CF93DF930D
:10247000882309F4C6C0C82F8EE78C0F833030F54F
:10248000C238F1F0C338F9F0C4E0D7E40E9419086B
:102490008C2309F0B6C08D2F0E94BD060E94191032
:1024A0002FEF81EE94E0215080409040E1F700C092
:1024B00000008D2F0E94B106DF91CF910C9419106E
:1024C000C2E0D9E3E3CFC1E0D3E5E0CF8CEF8C0FDE
:1024D000813A08F043C180914F048130C1F048F047
:1024E000823009F445C010924F048C2F0E94BD0623
:1024F000E3CF80917A0380FD04C08091340284345C
:10250000A1F78C2F0E94D71081117BC0EECF809154
:102510007A0380FDF6CF80913402843491F3C43184
:10252000C9F048F4CB3059F0C031C1F085E693E0F2
:102530000E945D0511C0C93269F0C833B9F787E957
:1025400095E00E945D058BE693E00E945D0581E0C9
:102550008170DACF10924F0480E0FACF0E94670FAB
:1025600087E693E00E945D0582E080934F04EFCF01
:10257000C432D0F4CE3108F0C0C0CB30E9F048F41A
:10258000C73009F4D1C084E194E0DF91CF910C947D
:102590005D05C331C9F1C431B1F780917E03882351
:1025A00049F110927E030AC0CB3409F4BBC0C0F4D9
:1025B000C93299F3C83339F70E94670F80917E03BF
:1025C000882309F4C8C01F928F938EE094E09F93F4
:1025D0008F930E94F6050F900F900F900F9011C0EF
:1025E000C13509F499C0C23509F490C0CE3459F60A
:1025F0006AE093C083E294E00E945D0581E08093ED
:102600004F04DF91CF9108958DEF93E00E945D0517
:102610008BEE93E00E945D05809117011F928F93CE
:1026200088EE93E09F938F930E94F60586EE93E0E9
:102630000E945D0584ED93E00E945D058091160186
:102640001F928F9381ED93E09F938F930E94F605E5
:102650008FEC93E00E945D0580EC93E00E945D05A5
:10266000809115011F928F938DEB93E09F938F9331
:102670000E94F6058BEB93E00E945D058AEA93E0E9
:102680000E945D05809114011F928F9387EA93E069
:102690009F938F930E94F60585EA93E00E945D0563
:1026A00080E993E00E945D05809113011F928F9352
:1026B0008DE893E09F938F930E94F6058BE893E05B
:1026C0000E945D0584E793E00E945D058091120100
:1026D0001F928F9381E793E09F938F930E94F6055B
:1026E0008FE693E00E945D058DB79EB748960FB6C2
:1026F000F8949EBF0FBE8DBF61CFCE51EC2FF0E09E
:10270000E85DFE4F808180937E0358CF61E0809129
:102710007E030E946B0E52CF61E080917E030E9487
:10272000EC0D4CCF6AE0F3CF8EE18093170182E38A
:10273000809316018AE08093150184E1809314014F
:1027400088E08093130188E28093120186E194E08F
:102750000E945D0533CF8BE094E017CF80E28C0FB1
:10276000883068F4C77021E030E001C0220FCA95BC
:10277000EAF780913D04822B80933D049DCE8BE54A
:102780008C0F833070F481E890E0C53A31F083E833
:1027900090E0C63A11F482E890E0DF91CF910C947A
:1027A0003B0F88E58C0F873108F069C082EE90E01E
:1027B000C83A09F460C089EE90E0C93A09F45BC0F8
:1027C0008AEE90E0CA3A09F456C085EB90E0CB3A25
:1027D00009F451C086EB90E0CC3A09F44CC083EB8D
:1027E00090E0CD3A09F447C084EB90E0CE3A09F48A
:1027F00042C087EB90E0CF3AF1F18CEC90E0C13B26
:10280000D1F18DEC90E0C03BB1F183E891E0C23BA7
:1028100091F18AE891E0C33B71F182E991E0C43B18
:1028200051F184E991E0C53B31F181E292E0C63B90
:1028300011F183E292E0C73BF1F084E292E0C83B01
:10284000D1F085E292E0C93BB1F086E292E0CA3B6A
:1028500091F087E292E0CB3B71F08AE292E0CC3BD0
:1028600051F08FE690E0CD3B31F090E080E0CE3B40
:1028700011F480E790E0DF91CF910C940F0FCF3BE4
:1028800009F0BFCE0E947A109FEF20E782E09150BE
:1028900020408040E1F700C000000E944408CF9231
:1028A000DF92EF92FF920F931F93CF93DF9300D0AD
:1028B00000D01F92CDB7DEB76C0185E0F601DE01D6
:1028C000119601900D928A95E1F7F60140815181B0
:1028D0002381348191E02115310531F05F3F19F4F6
:1028E00091E04F3F09F090E090FD99C0F601028120
:1028F000F580F2949FE0F92249835A830B83722F6B
:102900003D832C83602F8D810E94D606182FE92FDE
:10291000E295EF70EF3008F082C0F0E0EE56FB4E2B
:102920000C947022A114A114DF14DF14551587151F
:102930000F150F1579160F154F174F170F150F1588
:102940000B18F92FFF70FF2E907F19F0F29480EF93
:10295000F8220023C9F0FF2039F080913C04F82AC6
:10296000F0923C040E941910812F0F900F900F904D
:102970000F900F90DF91CF911F910F91FF90EF90EB
:10298000DF90CF900C943612812F0E94DA11FF2035
:1029900009F445C0F09480913C04F822F0923C0484
:1029A0000F900F900F900F900F90DF91CF911F918C
:1029B0000F91FF90EF90DF90CF900C941910892F1A
:1029C0008F70907F903211F08295807F112379F083
:1029D000113009F449C0002309F455C0FF2059F013
:1029E000F601958190FF69C29F70958304C0002312
:1029F00021F1F1100FC00F900F900F900F900F90DA
:102A0000DF91CF911F910F91FF90EF90DF90CF90CA
:102A10000C94CD1021E0F212EECF80933B040F9086
:102A20000F900F900F900F90DF91CF911F910F910A
:102A3000FF90EF90DF90CF900895F11011C01092A9
:102A40003B040F900F900F900F900F90DF91CF915C
:102A50001F910F91FF90EF90DF90CF900C94C210D8
:102A600091E0F912ECCFDBCF002349F0E5E0EF1560
:102A7000B0F290913D04982309F4BDCFE2CFF4E089
:102A8000FF1568F2DECFFF20E1F2812F0F900F904B
:102A90000F900F900F90DF91CF911F910F91FF90AA
:102AA000EF90DF90CF900C94DA11892F8695869560
:102AB0008370C1F0813009F0B2CF812F9370011182
:102AC00002C090E080E00F900F900F900F900F9059
:102AD000DF91CF911F910F91FF90EF90DF90CF90FA
:102AE0000C940F0F812F9370011102C090E080E0D1
:102AF0000F900F900F900F900F90DF91CF911F913B
:102B00000F91FF90EF90DF90CF900C943B0F00233C
:102B100009F471C0803FA1F40E943806819580932A
:102B200047040F900F900F900F900F90DF91CF916F
:102B30001F910F91FF90EF90DF90CF900C947E0F3C
:102B4000813F19F40E943806EACF823F31F40E9497
:102B50003806819580934604E4CF833F19F40E94A0
:102B60003806F8CF893F29F40E94FF058093480476
:102B7000D8CF8A3F21F40E94FF058195F7CF8B3F84
:102B800031F40E94FF05819580934904CACF8C3FA0
:102B900019F40E94FF05F8CF809145048160143F2D
:102BA000A1F0809145048260153F79F08091450441
:102BB0008460163F51F0809145048860173F29F0EA
:102BC000183F31F480914504806180934504A9CF7A
:102BD00080913F0481601D3F59F080913F048260E5
:102BE0001E3F31F01F3F09F09CCF80913F0484606D
:102BF00080933F0496CF803FC1F48091470487FDC6
:102C0000109247048091460481118BCF8091470434
:102C1000811187CF80914804811183CF809149042D
:102C200081117FCF109240047CCF813F29F48091A5
:102C3000470418162CF3E6CF80914604123F29F47E
:102C400087FFE0CF10924604DDCF133F19F418162A
:102C5000CCF3D8CF193F39F480914804181694F674
:102C600010924804CFCF1A3F29F48091480487FF7F
:102C7000C9CFF6CF1B3F39F48091490487FFC2CFFB
:102C800010924904BFCF1C3F29F4809149041816C3
:102C9000BCF3B8CF809145048E7F143FA1F08091A2
:102CA00045048D7F153F79F0809145048B7F163F59
:102CB00051F080914504877F173F29F0183F31F488
:102CC000809145048F7E809345049CCF80913F0482
:102CD0008E7F1D3F59F080913F048D7F1E3F31F064
:102CE0001F3F09F08FCF80913F048B7F80933F047B
:102CF00089CF892F837009F064C0011190CE812F94
:102D0000829586958770880F880F412F4F70C42E4B
:102D1000D12CF12CE12C082E04C0CC0CDD1CEE1CB7
:102D2000FF1C0A94D2F740E050E0BA0114FF11C032
:102D30000FE010E020E030E004C0000F111F221F60
:102D4000331F8A95D2F7B901A80140955095609537
:102D500070950091510410915204209153043091C8
:102D600054049695969593709230E9F028F5913039
:102D700089F04C295D296E297F2940235123622344
:102D800073234093510450935204609353047093FF
:102D9000540445CEC02AD12AE22AF32A4C295D29BF
:102DA0006E297F29EECF4C295D296E297F29402786
:102DB000512762277327E5CF4023512362237323D2
:102DC000EDCF8695002311F0892F8170882309F4B7
:102DD00026CE812F829586958770880F880F412F88
:102DE0004F70C42ED12CF12CE12C082E04C0CC0C39
:102DF000DD1CEE1CFF1C0A94D2F740E050E0BA0143
:102E000014FF11C00FE010E020E030E004C0000F1C
:102E1000111F221F331F8A95D2F7B901A8014095CF
:102E20005095609570950091B7031091B80320916B
:102E3000B9033091BA039695969593709230E9F064
:102E400028F5913089F04C295D296E297F2940238E
:102E50005123622373234093B7035093B8036093C5
:102E6000B9037093BA03DBCD0C291D292E293F2904
:102E7000402B512B622B732BEECF4C295D296E29F1
:102E80007F294027512762277327E5CF402351230D
:102E9000622373234C295D296E297F29DCCF803F73
:102EA00009F44EC0D0F480E4810F803270F1002329
:102EB00009F4ACC0FF2009F4A6C0812F0E9436128D
:102EC000193309F099C0FFEF21EE84E0F150204062
:102ED0008040E1F700C00000A2CD823F09F470C03D
:102EE00008F45BC0833F19F7002309F47CC0292F45
:102EF0002F7181E090E0A0E0B0E004C0880F991F3E
:102F0000AA1FBB1F2A95D2F73AC0E12FE071FE2E0F
:102F1000892F8F71002351F00E94A307812F829582
:102F2000807FF11068CD812F8F7065CD0E947F0763
:102F3000812F8295807FF11084CD812F8F7081CD7C
:102F4000002331F1F4E0FF1508F469CD292F2F712A
:102F500081E090E0A0E0B0E004C0880F991FAA1FB4
:102F6000BB1F2A95D2F74091B7035091B8036091E7
:102F7000B9037091BA0384279527A627B7278093B2
:102F8000B7039093B803A093B903B093BA0347CDA6
:102F900025E02F1508F443CDD9CF892F8F71002359
:102FA00099F00F900F900F900F900F90DF91CF91AD
:102FB0001F910F91FF90EF90DF90CF900C94A3079B
:102FC000892F8F71002369F30F900F900F900F904E
:102FD0000F90DF91CF911F910F91FF90EF90DF90B5
:102FE000CF900C947F071092B7031092B803109201
:102FF000B9031092BA0313CD133509F464CF173413
:1030000009F00DCD60CF892F8F71CBCFF1103DCD61
:10301000892F8F71D9CF811102CD002309F4FFCC04
:103020000E947A108FEF90E7E2E081509040E040FC
:10303000E1F700C000000E9444080F931F93CF9354
:10304000DF9380918403807FB9F48091810388238A
:1030500099F08091B6031091850360917F03709180
:103060008003C0918203D091830321E06F3F09F078
:1030700020E006E0181305C0DF91CF911F910F915A
:10308000089531E0209721F0322F7F3F09F030E0A2
:1030900090E030FD33C0089FF001099FF00D11242E
:1030A000DF01AA57BC4F11963C911197371326C0E8
:1030B0003C91361323C012963C91129731111EC0D9
:1030C00013964D915C914C1B5D0B483C5105B0F43F
:1030D000809184038F70806180938403E557FC4F57
:1030E00080818F70806180838FE793E00E944F140E
:1030F000DF91CF911F910F910C94C30701968770B8
:10310000B9CF9F92AF92BF92CF92DF92EF92FF9290
:103110000F931F93CF93DF93CDB7DEB761970FB6B1
:10312000F894DEBF0FBECDBF8C0185E0F801DE0153
:103130001D9601900D928A95E1F7F8014081518129
:10314000F280C380D48090917F03609180032091AE
:1031500082033091830381E02115310531F06F3F07
:1031600019F481E09F3F09F080E0F82FF1709F2E65
:1031700080FD49C18FE7A82E83E0B82EE09081033F
:10318000F601E21BF30BEE2009F400C180918403E9
:10319000782F707FE83CF10508F0BAC0711181C04A
:1031A000EF2C651322C0941320C0F1101EC08F7045
:1031B000806180938403C5010E944F148091840331
:1031C000F80185838E2D61960FB6F894DEBF0FBE91
:1031D000CDBFDF91CF911F910F91FF90EF90DF90C6
:1031E000CF90BF90AF909F90089581E0C114D1041B
:1031F00031F05F3F19F481E04F3F09F080E080FD3E
:1032000024C081E08F25F82FF170BF2E80FF3FC0D2
:103210008091B6032091850336E0821318C07C2D7F
:10322000D98AC88A6F2D89890E94D606292F2295AE
:103230002F70223000F1243028F59F7001F1F80141
:103240009581907FE1F4E92CBDCF80E0DCCF90E068
:10325000389FF001399FF00D1124EA57FC4F61812E
:10326000561306C06081461303C062816F110FC000
:1032700001968770D2CF9F7011F0882321F3805E72
:10328000883008F3C8010E944F149B2CDCCFFF202C
:1032900009F498CF80918403816080938403E12CAA
:1032A00091CF651306C0941304C0F801FF2009F400
:1032B00088C04D875E87FF867C2DD98AC88A6F2D8E
:1032C00089890E94CD07882309F4ABC0FF2009F447
:1032D000A8C080918403803270F020917F033091E8
:1032E000800338872F831986DB86CA868C87CE01B8
:1032F00007960E944F1486E0F801AFE7B3E0019013
:103300000D928A95E1F70E941D18EE24E3945ACF9E
:1033100071110AC08FE793E00E944F1486E0F50117
:1033200011928A95E9F7BBCF65130FC094130DC0B6
:10333000F1100BC0F8018583C8010E944F1486E08C
:10334000F50111928A95E9F73DCF4D875E87FF869B
:103350007C2DD98AC88A6F2D89890E94CD07882340
:1033600009F45FC0FF2009F45CC0809184038032BF
:1033700010F220917F03309180033A8329831B82CE
:10338000DD82CC828E83CE010196B3CFE83CF1057D
:10339000B0F6EF2CFF2009F444C065131FC094134E
:1033A0001DC08091840380FD10C0982F907F69F02C
:1033B000F8018583903F31F0982F907F905F8F7058
:1033C000892B8583C8010E944F1486E0F801AFE77E
:1033D000B3E001900D928A95E1F7F4CE4D875E87B8
:1033E000FF867C2DD98AC88A6F2D89890E94CD07D6
:1033F000811181CF80918403816080938403C8010F
:103400000E944F14DFCEFF2061F04D875E87FF865C
:103410007C2DD98AC88A6F2D89890E94CD07811198
:103420006ACFC8010E944F1470CF1F93CF93DF93D0
:10343000CDB7DEB767970FB6F894DEBF0FBECDBF2E
:103440004B8B5C8B6D8B7E8B8F8B1A8A198A85E0F8
:10345000FE017396DE011D9601900D928A95E1F7AB
:1034600086E0FE013D96DE01179601900D928A9549
:10347000E1F7CE0107960E948118811137C086E0DE
:10348000FE013796DE01119601900D928A95E1F7C3
:103490009F8188852A853B85232B39F08F3F19F43E
:1034A00081E09F3F19F080E001C081E080FD1EC0F7
:1034B0002091850330E0C9010196877099274091DA
:1034C000B6034817190659F196E0929FD001939FD1
:1034D000B00D1124AA57BC4FFE01319601900D92F8
:1034E0009A95E1F7809385030E94C30716E08091C7
:1034F000B603909185038917F9F0819FC0011124CB
:103500008A579C4F0E9481188823B1F08091B6039E
:1035100090E00196877099278093B603E8CF0E94C8
:103520007A10109285031092B60386E0EFE7F3E07D
:10353000DF011D928A95E9F767960FB6F894DEBF12
:103540000FBECDBFDF91CF911F910895CF93DF9331
:1035500000D01F92CDB7DEB720916903243041F52A
:1035600020911001222321F123E029839B838A8368
:1035700082E08093E9008FEF9091E800815095FD03
:1035800006C095ED9A95F1F700008111F5CF809175
:10359000E80085FF0DC050E040E063E070E0CE0140
:1035A00001960E94440C8091E8008E778093E80099
:1035B0000F900F900F90DF91CF910895CF93DF93ED
:1035C00000D01F92CDB7DEB720916903243081F57A
:1035D00020911001222361F119821A821B8222E0BC
:1035E00029838138910520F0805891099B838A8333
:1035F00082E08093E9008FEF9091E800815095FD83
:1036000006C095ED9A95F1F700008111F5CF8091F4
:10361000E80085FF0DC050E040E063E070E0CE01BF
:1036200001960E94440C8091E8008E778093E80018
:103630000F900F900F90DF91CF9108952091690323
:10364000243049F522E02093E9002FEF3091E80083
:10365000215035FD06C035ED3A95F1F700002111F6
:10366000F5CF2091E80025FF16C02091100150E011
:1036700040E063E070E0222339F021E02093F10084
:1036800050E040E065E070E00E94440C8091E8006A
:103690008E778093E8000895CF93DF93209169039C
:1036A000243011F521E02093E90021E8215021F098
:1036B0003091E80035FF1BC02091E80025FF14C0C1
:1036C000EC0150E040E068E070E00E94440C809122
:1036D000E8008E778093E80088E0FE01A6E5B3E07D
:1036E00001900D928A95E1F7DF91CF910895EFE374
:1036F000F1E03197F1F700C00000D8CFEF92FF92D0
:103700001F93CF93DF9384E9E82E81E0F82E1FEF1B
:103710000E94D90DEC011150CF3FDC0741F48FE935
:103720009FE00197F1F700C000001111F1CF5C9A02
:1037300085ED8A95F1F700005C98DF93CF93FF92B7
:10374000EF920E94F6050F900F900F900F90CB3FD5
:10375000D105E9F2CE01DF91CF911F91FF90EF905B
:103760000895CF93C82F1F928F938DE891E09F9378
:103770008F930E94F6055C9A8FE99FE00197F1F71D
:1037800000C000000F900F900F900F908091C80024
:1037900085FFFCCFC093CE008FE99FE00197F1F742
:1037A00000C000005C98CF910895EF92FF920F93B4
:1037B0001F93CF93DF930E94D90D182FC82FD92FB5
:1037C000CF3FDC0709F050C080913F03882309F404
:1037D00044C00CEA11E02BE9E22E21E0F22E8DE943
:1037E0000E94B11B0E947E1BEC01CF3FDC0791F1D0
:1037F0008091500480FF0AC0DF93CF931F930F93F3
:103800000E94F6050F900F900F900F90CA3FD105C0
:1038100009F580913F030E94B11B0E947E1BEC01C1
:10382000CF3FDC07E1F28091500480FF10C0DF93AE
:10383000CF9380913F031F928F93FF92EF920E944C
:10384000F6050F900F900F900F900F900F90CA3FBA
:10385000D10529F610923F0380E0DF91CF911F91AF
:103860000F91FF90EF9008959F931F938BEB91E042
:103870009F938F930E94F605812F9E0193E03695CA
:1038800027959A95E1F79C2F977061E070E0DB0136
:1038900002C0AA0FBB1F9A95E2F7E22FEF70F0E08B
:1038A0000F900F900F900F90E259FC4F408150E025
:1038B0004A235B2317FF18C0452B79F02F7033275D
:1038C000F901E259FC4FC770DD2701C0660FCA95A8
:1038D000EAF760959081692360835C9A95ED9A95EB
:1038E000F1F700005C98B9CF452BB9F72F7033275B
:1038F000F901E259FC4FC770DD2701C0660FCA9578
:10390000EAF79081692BE8CF78941F920F920FB657
:103910000F9211248F939F93AF93BF9380914A048A
:1039200090914B04A0914C04B0914D040196A11DBF
:10393000B11D80934A0490934B04A0934C04B09320
:103940004D04BF91AF919F918F910F900FBE0F903B
:103950001F9018951F920F920FB60F9211248F93FC
:103960009F93AF93BF9380913E04811113C08091C8
:103970004A0490914B04A0914C04B0914D0441969F
:10398000A11DB11D80934A0490934B04A0934C0455
:10399000B0934D04BF91AF919F918F910F900FBE47
:1039A0000F901F9018951F920F920FB60F9211242F
:1039B0002F933F934F935F936F937F938F939F9337
:1039C000AF93BF93EF93FF938091E10082FF09C013
:1039D0008091E20082FF05C08091E1008B7F80939F
:1039E000E1008091DA0080FF1FC08091D80080FF45
:1039F0001BC08091DA008E7F8093DA008091D9001D
:103A000080FF9DC080E189BD82E189BD09B400FECF
:103A1000FDCF81E08093690380915303811104C03D
:103A20000E9425080E94700C8091E10080FF1FC059
:103A30008091E20080FF1BC08091E2008E7F809326
:103A4000E2008091E20080618093E2008091D800E2
:103A500080628093D80019BC85E0809369038091CF
:103A6000550380935403109255030E947A1080915D
:103A7000E10084FF2DC08091E20084FF29C080E135
:103A800089BD82E189BD09B400FEFDCF8091D800D7
:103A90008F7D8093D8008091E1008F7E8093E1003C
:103AA0008091E2008F7E8093E2008091E20081604D
:103AB0008093E20080916003882309F446C084E08B
:103AC000809369030E947A10809154038093550378
:103AD0008091E10083FF22C08091E20083FF1EC03D
:103AE0008091E100877F8093E10082E08093690309
:103AF000109260038091E1008E7F8093E1008091BD
:103B0000E2008E7F8093E2008091E20080618093EA
:103B1000E20042E060E080E00E941009FF91EF9136
:103B2000BF91AF919F918F917F916F915F914F91D5
:103B30003F912F910F900FBE0F901F90189519BCB9
:103B400010926903109253036FCF8091E30087FDB9
:103B500002C081E0B5CF83E0B3CFCF93DF93CDB781
:103B6000DEB72C970FB6F894DEBF0FBECDBF84B77B
:103B7000877F84BF0FB6F894A89580916000886114
:103B800080936000109260000FBE80E890E00FB656
:103B9000F89480936100909361000FBE8CEE9CE0DE
:103BA000909333018093320186E091E09093420438
:103BB0008093410482E892E00E945D050E942508FE
:103BC0000E94700C789482E084BD93E095BD9AEFDA
:103BD00097BD80936E005B9A539A5C9A549A599A57
:103BE000519A5C9A5B9820E52A95F1F75B9A83E3FA
:103BF0008093CC001092CD008091C90080698093A1
:103C0000C9008091C90088608093C9008091CA0072
:103C100080638093CA0052985A9A78943FEF49E69D
:103C200088E1315040408040E1F700C000008FE063
:103C300092E09F938F930E94F6058FE90E94B11B3B
:103C40000E947E1B0F900F908A3F910509F0D9C109
:103C50000E947E1B803A910509F0D3C10E947E1B11
:103C60008038910509F0CDC189E092E09F938F9350
:103C70000E94F6050F900F9081EF91E09F938F9334
:103C80000E94F6050F900F9011EDE12E11E0F12E3C
:103C900002ECC02E01E0D02E8CE90E94B11B0E94E4
:103CA0007E1B8C010F3F100751F18091500480FF63
:103CB0000AC01F930F93FF92EF920E94F6050F9098
:103CC0000F900F900F900A3F1105C9F480E70E94F2
:103CD000B11B0E947E1B8C010196F1F28091500471
:103CE00080FF0AC01F930F93DF92CF920E94F605C8
:103CF0000F900F900F900F900A3F110569F680EE1C
:103D000091E09F938F930E94F6050F900F9085E9A5
:103D10000E94B11B0E947E1B8A3F910541F483E003
:103D20000E94B11B0E947E1B8A3F910581F78EE79E
:103D300093E0BEE6CB2EB3E0DB2EF60111926F01CD
:103D40008E179F07D1F75C9880916903843009F042
:103D50005BC10E94D40C882309F456C180E792E02D
:103D60000E945D0582E692E00E945D05F8E44F2E18
:103D7000F2E05F2EA7E56A2EA2E07A2E8091690319
:103D8000853009F444C10E94D51B01E413E0EEE63E
:103D9000AE2EE3E0BE2E312CF50121905F01F8013B
:103DA0009080921409F468C08091500481FF40C053
:103DB0008BE292E00E945D052EE633E03C872B8784
:103DC000F12CE12CEB85FC852191FC87EB8722957A
:103DD00030E0C901880F991F880F991F8C7C359599
:103DE0002795359527952373822B90E028E131E0C4
:103DF0003F932F939C01220F331F2A7A9595879525
:103E00008575822B1F928F93FF92EF9280E292E052
:103E10009F938F930E94F605FFEFEF1AFF0A0FB6EC
:103E2000F894DEBF0FBECDBF30E1E316F10451F6CA
:103E3000E12CFF24F3949224892D8F21C1F0EE828E
:103E40003F8291E0822D8F2109F490E098870E94B3
:103E5000A5068160782F9A8789874E815F81688562
:103E60008A850E94151AF80180818F258083E3944A
:103E7000FF0CF8E0EF12E0CF33940F5F1F4F20E10B
:103E800032128ACF8FEF89838A831B820E94A50614
:103E90008160782F9D838C8349815A816B818D81CC
:103EA0000E94151A20914304309144044FB7F894AE
:103EB00080914A0490914B04A0914C04B0914D0420
:103EC0004FBFAC01421B530B80914004209116015F
:103ED00030E0811106C0209117019AE0299F9001DE
:103EE00011244217530780F0909146041091470423
:103EF00000914804F09049049111C1C0111185C18D
:103F0000011183C1F11081C10E94190890914003F1
:103F1000891709F441C00E941908809340039091C9
:103F200050049570953051F41F928F937F926F9249
:103F30000E94F6050F900F900F900F908091400314
:103F400090E780FD91E790933F0381FF05C090913A
:103F50003F03946090933F039091500490FF0AC0F8
:103F60001F928F935F924F920E94F6050F900F90D1
:103F70000F900F908091500480FF0EC080913F03FE
:103F80001F928F93E8E3F2E0FF93EF930E94F60510
:103F90000F900F900F900F902091E4003091E5006A
:103FA00080915103909152032817390739F180917C
:103FB000E4009091E50090935203809351030E9496
:103FC000D40C8823D9F0809169038430B9F48091AE
:103FD000E9008F709091EC0090FFBFC090E8892BB2
:103FE00093E09093E9009091EB0090FF04C09091D2
:103FF000EE0097FDD0C08F708093E9000E944209C7
:10400000BDCE83E092E032CE0E9442099DCE8091E7
:104010006903843021F110923E0488E190E020E4AD
:104020000FB6F894A895809360000FBE20936000AF
:1040300083B7817F846083BF83B7816083BF7894B7
:10404000889583B78E7F83BF0FB6F894A89580912B
:104050006000886180936000109260000FBE8091C4
:104060005F03882309F48ACE0E94D51BEEE6F3E0B5
:1040700081918111B4C0CE16DF06D1F77FCE8F3F7C
:1040800019F08F5F80934004191624F40E943806BB
:10409000809346048091460487FF05C00E9438063D
:1040A000819580934604111624F40E94380680936B
:1040B00047048091470487FF05C00E943806819518
:1040C0008093470460914604662331F110914704C0
:1040D000112311F1062E000C770B880B990B0E940F
:1040E000632123E333E343E35FE30E94C7210E949C
:1040F0002B2160934604612F110F770B880B990BCE
:104100000E94632123E333E343E35FE30E94C7217B
:104110000E942B2160934704101624F40E94FF058F
:10412000809348048091480487FF05C00E94FF05E2
:104130008195809348041F1424F40E94FF05809306
:1041400049048091490487FF05C00E94FF058195BD
:10415000809349040E947E0FD7CE90E040CFE0913B
:104160000101F0910201E90FF11D20819F5F309163
:1041700005019323909304012093F1009091E800AE
:1041800095FD09C09091E80090FF05C09091E8006E
:104190009E779093E80090910401209103012917E4
:1041A00021F02091E80025FDDACF2091F3009091D5
:1041B000F200322F292F232B09F41DCF9091E80014
:1041C00090FF19CF9091E80095FD06C09091E8000E
:1041D0009E779093E8000FCF1092F100F3CF80E12B
:1041E00089BD82E189BD09B400FEFDCF8091D80070
:1041F0008F7D8093D8008091E00082608093E00002
:104200008091E00081FDFCCFB9CD8F3F09F039CF1F
:104210004ACF1F920F920FB60F9211248F939F9344
:10422000EF93FF9380913D03E82FF0E08F5F909133
:104230003C03981739F09091CE00E45CFD4F9083D9
:1042400080933D03FF91EF919F918F910F900FBE4F
:104250000F901F9018950E9432216894B1110C9410
:10426000C12108950E94A62188F09F5798F0B92F88
:104270009927B751B0F0E1F0660F771F881F991F9B
:104280001AF0BA95C9F714C0B13091F00E94C0215C
:10429000B1E008950C94C021672F782F8827B85F6C
:1042A00039F0B93FCCF3869577956795B395D9F7F3
:1042B0003EF490958095709561957F4F8F4F9F4FFD
:1042C0000895E89409C097FB3EF490958095709509
:1042D00061957F4F8F4F9F4F9923A9F0F92F96E952
:1042E000BB279395F695879577956795B795F111C7
:1042F000F8CFFAF4BB0F11F460FF1BC06F5F7F4F64
:104300008F4F9F4F16C0882311F096E911C0772375
:1043100021F09EE8872F762F05C0662371F096E87E
:10432000862F70E060E02AF09A95660F771F881F4D
:10433000DAF7880F9695879597F9089557FD905865
:10434000440F551F59F05F3F71F04795880F97FB59
:10435000991F61F09F3F79F0879508951216130613
:104360001406551FF2CF4695F1DF08C01616170642
:104370001806991FF1CF8695710561050894089577
:10438000E894BB2766277727CB0197F908950E9409
:10439000DA210C944B220E943D2238F00E944422E4
:1043A00020F0952311F00C9434220C943A2211241D
:1043B0000C94C1210E949E2170F3959FC1F3950F2B
:1043C00050E0551F629FF001729FBB27F00DB11D99
:1043D000639FAA27F00DB11DAA1F649F6627B00D29
:1043E000A11D661F829F2227B00DA11D621F739F12
:1043F000B00DA11D621F839FA00D611D221F749F20
:104400003327A00D611D231F849F600D211D822F66
:10441000762F6A2F11249F5750409AF0F1F088238D
:104420004AF0EE0FFF1FBB1F661F771F881F9150BA
:104430005040A9F79E3F510580F00C9434220C9413
:10444000C1215F3FE4F3983ED4F386957795679555
:10445000B795F795E7959F5FC1F7FE2B880F911DE4
:104460009695879597F9089597F99F6780E870E08A
:1044700060E008959FEF80EC089500240A941616DA
:10448000170618060906089500240A941216130642
:10449000140605060895092E0394000C11F48823D0
:1044A00052F0BB0F40F4BF2B11F460FF04C06F5FEC
:1044B0007F4F8F4F9F4F089597FB072E16F4009460
:1044C00007D077FD09D00E94762207FC05D03EF484
:1044D000909581959F4F0895709561957F4F0895B0
:1044E000EE0FFF1F0590F491E02D0994AA1BBB1B52
:1044F00051E107C0AA1FBB1FA617B70710F0A61BE4
:10450000B70B881F991F5A95A9F780959095BC0104
:08451000CD010895F894FFCFDE
:104518000534010000FFD10C4C1B1E1BDE1AA61A25
:1045280001012808140A321E00407F224D01CE00E6
:10453800AC00AD02C602DF0201020304050607084B
:02454800090068
:10680000880000000000E2440400050006000700C4
:10681000080009000A000B000C000D000E000F001C
:1068200010001100120013001400150016001700CC
:10683000180019001A001B001C001D001E001F007C
:10684000200021002200230024002500260027002C
:10685000280029002A002B002C002D002E002F00DC
:1068600030003100000033003400000036003700F3
:10687000380082003A003B003C003D003E003F00F3
:106880004000410042004300440045004600000033
:10689000000049004A004B004C004D004E004F00E4
:1068A000500051005200000054005500560057009F
:1068B000000059005A005B005C005D005E005F0054
:1068C00060006100620063000000650085006700F1
:1068D000680069006A00000000000000000000007D
:1068E0000000000000000000890087008A008B0083
:1068F000E000E100E200E3000000E5000000E70046
:00000001FF
