:100000000C94D0060C9417070C9417070C94170740
:100010000C9417070C9417070C9417070C941707E8
:100020000C9417070C9417070C9472140C94441535
:100030000C944E240C9417070C9417070C94170774
:100040000C9417070C9417070C9417070C941707B8
:100050000C9417070C94EE240C9417070C941707B4
:100060000C9417070C947D090C9417070C94170730
:100070000C9417070C9417070C9417070C94170788
:100080000C9417070C9417070C9417070C94170778
:100090000C9417070C9417070C9417070C94170768
:1000A0000C9417070C9417070C941707C40DC80D70
:1000B000CC0DD00DD40DD80DDC0DE00DE40DE80D08
:1000C000EC0DF00DF40DF80DFC0D000E040E080EF5
:1000D0000C0E100E140E180E1C0E200E240E280EE0
:1000E0002C0E300E340E380E3C0E400E440E480ED0
:1000F0004C0E500E900EC20D540E560E580E5A0E47
:100100005E0E620E660E6A0E6F0E740E780E7C0E18
:10011000800E840E880E8E0E8E0E8E0E8E0E8E0E1D
:100120008E0E8E0E8E0E8E0E8E0E8E0E8E0E8E0EEF
:100130008E0E8E0E8E0E8E0E8E0E8E0E8C0EB115B7
:10014000D315C616D315C61618163B16C616901626
:10015000A316D519D519FF19FF195A1A8E1A7E1C24
:100160007E1CA51A7E1C901B901B561C7E1C7E1CA0
:100170006B1C141A082B1518171C12132F0C308027
:10018000314C1E1F20352124222326272D252E8089
:100190002A49807B7A788080802C7E807C807F5189
:1001A000504F801D1B7906111905363738107D52C6
:1001B000808004160739090D0A0B0F33340E808036
:1001C0002880808080808080808080808080808087
:1001D000808080808080808080808080808080801F
:1001E000808080808080808080808080808080800F
:1001F000808025630025730D0A00522C310D0A0002
:1002000053592C464646340D0A0053482C3030339F
:10021000430D0A00537E2C360D0A0053572C3830FC
:1002200030300D0A00534D2C340D0A0053532C4B23
:100230006579626F6172642F4D6F7573650D0A0089
:10024000532D2C546D6B42540D0A0053462C310D26
:100250000A002D2D2D0D0A0045786974696E6720FE
:10026000636F6E666967206D6F6465202E2E2E0A9F
:10027000002B0D0A00760D0A0024242400456E741C
:100280006572696E6720636F6E666967206D6F6463
:1002900065202E2E2E0A00522C310D0A0053522CAE
:1002A0005A0D0A00555342206D6F64650A0041756E
:1002B000746F206D6F64650A00757074696D653ABE
:1002C000202530327520253032753A253032753A86
:1002D000253032750A0052656D6F746557616B6524
:1002E0007570456E61626C65643A2025580A005548
:1002F00053422053746174653A2025730A00636F7A
:100300006E6669675F6D6F64653A2025580A0072F2
:100310006E34325F6175746F636F6E6E656374699E
:100320006E6728293A2025580A00726E34323A2026
:1003300025730A00666F7263655F7573623A2025E4
:10034000580A0070726F746F636F6C3A2025730ADD
:10035000000A2D2D2D2D2D20524E2D343220696E68
:10036000666F202D2D2D2D2D0A00753A202020207E
:10037000202020746F67676C6520466F726365206C
:10038000555342206D6F64650A00703A202020208A
:1003900020202070616972696E670A00536C636B7C
:1003A0003A20202020524E2D343220696E69746923
:1003B000616C697A650A0044656C3A20202020202F
:1003C000656E7465722F6578697420524E2D3432D3
:1003D00020636F6E666967206D6F64650A00693A15
:1003E00020202020202020524E2D343220696E669D
:1003F0006F0A000A0A2D2D2D2D2D20426C75657473
:100400006F6F746820524E2D34322048656C702016
:100410002D2D2D2D2D0A004C4544207374617475CB
:10042000733A20253032580A0020253032580025F2
:100430006300726E3432207461736B0A004B65790D
:10044000626F617264207461736B0A005B735D009C
:100450004B6579626F6172642073746172740A0013
:100460004B6579626F61726420696E69740A00522B
:100470004E2D3432207461736B20696E69740A00EA
:10048000524E2D343220696E69740A000A55534267
:1004900020696E69740A000A536574757048617248
:1004A00064776172650A005B445D005B435D002C0C
:1004B0000346004300360036003000430020004170
:1004C000006C007400200043006F006E0074007226
:1004D000006F006C006C006500720000000A03549D
:1004E000004D004B002E0000000403090409028D9A
:1004F00000050100A0320904000001030101000908
:1005000021110100012240000705810308000A09AA
:100510000401000103010200092111010001224D23
:10052000000705820308000A090402000103000015
:10053000000921110100012236000705830308008C
:100540000A0904030002030000000921110100014F
:100550002222000705840320000107050403200070
:100560000109040400010300000009211101000138
:100570002239000705850320000112011001000047
:100580000008EDFE0C6600010102000105010906EC
:10059000A101050719E029E7150025019508750156
:1005A000810205081901290595057501910295013A
:1005B000750391010507190029F71500250195F824
:1005C00075018102C00631FF0974A101097515008A
:1005D00026FF009520750881020976150026FF0088
:1005E000952075089102C005010980A101850216B8
:1005F000810026B7001A81002AB700751095018185
:1006000000C0050C0901A1018503160100269C020A
:100610001A01002A9C02751095018100C00501098C
:1006200002A1010901A100050919012905150025EB
:100630000195057501810295017503810105010987
:100640003009311581257F95027508810609381515
:1006500081257F950175088106050C0A38021581F0
:10066000257F950175088106C0C005010906A10115
:10067000050719E029E71500250195087501810294
:100680009501750881010508190129059505750170
:1006900091029501750391010507190029FF1500C5
:1006A00026FF00950675088100C0636F6E73756D37
:1006B00065723A20253034580A0073797374656D79
:1006C0003A20253034580A000A00253032582000DC
:1006D0006B6579626F6172643A20004C45443A2040
:1006E000253032580A00253032583A20253031362C
:1006F0006225730A00722F6320303132333435366D
:100700003738394142434445460A0064656C5F6BA3
:1007100065795F6269743A2063616E27742064654D
:100720006C3A20253032580A006164645F6B657949
:100730005F6269743A2063616E2774206164643A71
:1007400020253032580A004F6E6573686F743A2066
:1007500074696D656F75740A00290A002575002F8C
:10076000002575005D280025640020002564002018
:100770000025640020002564007C002530325800EC
:100780006D6F7573656B6579205B62746E7C782024
:1007900079207620685D287265702F61636C293A34
:1007A000205B006D6B5F776865656C5F74696D6574
:1007B0005F746F5F6D6178203D2025640A006D6B6A
:1007C0005F776865656C5F6D61785F7370656564A0
:1007D000203D2025640A006D6B5F74696D655F7450
:1007E0006F5F6D6178203D2025640A006D6B5F6D41
:1007F00061785F7370656564203D2025640A006D33
:100800006B5F696E74657276616C203D2025640AA9
:10081000006D6B5F64656C6179203D2025640A0082
:100820006D6B5F776865656C5F74696D655F746F2C
:100830005F6D6178203D2025640A006D6B5F7768ED
:1008400065656C5F6D61785F7370656564203D20E0
:1008500025640A006D6B5F74696D655F746F5F6D11
:100860006178203D2025640A006D6B5F6D61785FC3
:100870007370656564203D2025640A006D6B5F69B7
:100880006E74657276616C203D2025640A006D6B84
:100890005F64656C6179203D2025640A000A0025AB
:1008A0007500363A20776865656C5F74696D655FC1
:1008B000746F5F6D61783A20000A00257500353A43
:1008C00020776865656C5F6D61785F7370656564DE
:1008D0003A20000A00257500343A2074696D655F7E
:1008E000746F5F6D61783A20000A00257500333A15
:1008F000206D61785F73706565643A20000A002599
:100900007500323A20696E74657276616C286D7379
:10091000293A20000A00257500313A2064656C618F
:1009200079282A31306D73293A20000A092D205682
:10093000616C756573202D0A004D3E004D25643EA7
:1009400020003F007365742064656661756C740AED
:1009500000433E200077686572652064656C7461B1
:100960003A20637572736F723D25642C2077686539
:10097000656C3D25640A53656520687474703A2F70
:100980002F656E2E77696B6970656469612E6F7271
:10099000672F77696B692F4D6F7573655F6B65792D
:1009A000730A000A092D204D6F7573656B657920F8
:1009B0002D0A4553432F713A09717569740A313A0A
:1009C0000964656C6179282A31306D73290A323ADD
:1009D00009696E74657276616C286D73290A333A01
:1009E000096D61785F73706565640A343A097469EA
:1009F0006D655F746F5F6D61780A353A0977686578
:100A0000656C5F6D61785F73706565640A363A097D
:100A1000776865656C5F74696D655F746F5F6D6144
:100A2000780A0A703A097072696E742076616C7582
:100A300065730A643A097365742064656661756C50
:100A400074730A75703A092B310A646F776E3A092C
:100A50002D310A706775703A092B31300A7067645E
:100A60006F776E3A092D31300A0A7370656564201C
:100A70003D2064656C7461202A206D61785F73701D
:100A8000656564202A2028726570656174202F20B6
:100A900074696D655F746F5F6D6178290A003F004E
:100AA0004D3E2000433E20004C25640A000A092DDB
:100AB00020436F6E736F6C65202D0A4553432F7171
:100AC0003A09717569740A6D3A096D6F7573656BD2
:100AD00065790A000A092D204D61676963202D0A96
:100AE000643A0964656275670A783A0964656275F3
:100AF00067206D61747269780A6B3A096465627582
:100B000067206B6579626F6172640A6D3A0964658A
:100B1000627567206D6F7573650A763A097665723E
:100B200073696F6E0A733A097374617475730A633B
:100B30003A09636F6E736F6C65206D6F64650A3080
:100B40002D343A096C61796572302D342846313084
:100B50002D4634290A506175733A09626F6F746CBF
:100B60006F616465720A6E3A094E4B524F0A003F3C
:100B7000004E4B524F3A206F66660A004E4B524F62
:100B80003A206F6E0A0074696D65725F7265616408
:100B9000333228293A202530346C580A006B6579A5
:100BA000626F6172645F6E6B726F3A2025580A0043
:100BB0006B6579626F6172645F69646C653A202568
:100BC000580A006B6579626F6172645F70726F744E
:100BD0006F636F6C3A2025580A00686F73745F6BFF
:100BE0006579626F6172645F6C65647328293A206D
:100BF00025580A000A092D20537461747573202D3D
:100C00000A004743433A20352E342E3020415652B5
:100C10002D4C4942433A20322E302E30204156523C
:100C20005F415243483A20617672350A004F505472
:100C3000494F4E533A204C554641204D4F55534550
:100C40004B45592045585452414B455920434F4E2E
:100C5000534F4C4520434F4D4D414E44204E4B5237
:100C60004F204B45594D41505F53454354494F4EDA
:100C7000203531320A004255494C443A20666139E8
:100C800036613865372D6469727479202830323ABC
:100C900031393A3230204A616E20203820323031EA
:100CA00039290A005649443A2030784645454428B7
:100CB000544D4B2E29205049443A20307836363056
:100CC000432846433636304320416C7420436F6ED0
:100CD00074726F6C6C657229205645523A203078D8
:100CE000303130300A00444553433A20544D4B2EA6
:100CF000206B6579626F617264206669726D7761DD
:100D0000726520666F72204643363630430A000A09
:100D1000092D2056657273696F6E202D0A000A6DC9
:100D20006F7573653A206F66660A000A6D6F75739A
:100D3000653A206F6E0A000A6B6579626F617264B2
:100D40003A206F66660A000A6B6579626F617264A9
:100D50003A206F6E0A000A6D61747269783A206FEA
:100D600066660A000A6D61747269783A206F6E0ACD
:100D7000000A64656275673A206F6E0A000A64654E
:100D80006275673A206F66660A000A0A626F6F74BE
:100D90006C6F616465722E2E2E2000433E20000091
:100DA00011241FBECFEFDAE0DEBFCDBF04B603FED5
:100DB00027C080912F0590913005A0913105B09109
:100DC00032058730904BA740B04BD1F410922F05DD
:100DD00010923005109231051092320514BE84B77E
:100DE000877F84BF0FB6F894A895809160008861D2
:100DF00080936000109260000FBEE0E0FFE3099571
:100E000011E0A0E0B1E0E6E1FBE502C005900D9243
:100E1000A63AB107D9F725E0A6EAB1E001C01D92D4
:100E2000AF32B207E1F70E94000F0C94892D0C94A9
:100E300000000FB680959AE0F8947BE27A95F1F77E
:100E400008F0589A08F4589886959A95B1F70FBE0D
:100E500008950FB680E8F894499BFECF4999FECFDC
:100E600096E19A95F1F79CE29A95F1F78695499962
:100E70008068C8F70FBE08950FB680E8F89496E131
:100E80009A95F1F79CE29A95F1F7869549998068D1
:100E9000C8F796E19A95F1F7499BFECF0FBE0895EA
:100EA000FF93EF93E091A601F091A701309709F02D
:100EB0000995EF91FF910895FC018591803011F023
:100EC000EFDFFBCF0895FF27E0E230E247FF0CC0E1
:100ED000419597FF09C0EDE26095709580959095DA
:100EE000611D711D811D911D27FF02C0219530E3F9
:100EF00050E2AA27660F771F881F991FAA1FA41701
:100F000010F0A41B63955A95A9F7AA3008F0A95FC1
:100F1000A05DAF93F395611571058105910541F7CA
:100F2000ED3211F4EF93F395F21718F43F93F39524
:100F3000FBCF8F91B5DFFA95E1F70895E991F9912B
:100F40008591803021F0853219F0AADFF9CF08951C
:100F500020E0E89455915532C1F3503311F4689470
:100F600055915A3348F4505390F3220F022E220F1A
:100F7000220F200D250FF4CF0EF421958991999120
:100F8000533619F3533729F1533559F1BC018827EA
:100F90009927E8945C3621F4899199916894559148
:100FA000543639F446EF7EF077FF0DC08FEF9FEF98
:100FB0000AC055374AE039F0583540E121F0523641
:100FC00042E009F00895FF93EF937DDFEF91FF91E9
:100FD000B7CFFF93EF93FC0181918030B9F360DFCD
:100FE000FBCFFF93EF9368DFF1CFDF93CF93CDB7C4
:100FF000DEB72596A3DFCF91DF91089561FF02C090
:101000002D9808952D9A089584B18F6184B93E98E2
:10101000469A3F9A8AB1806F8AB95F9A479884B19D
:10102000806684B985B1806685B9E8EBF1E01192FC
:10103000119281E0E83CF807D1F7E8EAF1E088EBAB
:1010400091E0119211928E179F07D9F788EB91E0EA
:101050009093CB018093CA0188EA91E09093C901F3
:101060008093C80108958F929F92BF92CF92DF9292
:10107000EF92FF920F931F93CF93DF938091C8015C
:101080009091C9012091CA013091CB013093C901DF
:101090002093C8019093CB018093CA01E12CF12CDD
:1010A000C1E0D0E00FEF10E085B1982F907EE3FE15
:1010B00002C020E101C028E08E2D8770892B822B91
:1010C00085B9BE010E2C02C0660F771F0A94E2F7A5
:1010D0004B018094909440E050E08BB18F70806819
:1010E0009A0194E0220F331F9A95E1F7822B8BB976
:1010F0002AE02A95F1F700C09A01220F331FE091F0
:10110000C801F091C901E20FF31F8081918186230C
:101110009723892B09F0479A85E38A95F1F7000018
:10112000B6B45F989AE09A95F1F700C0E091CA01D1
:10113000F091CB016F01C20ED31ED601369B06C0C3
:101140008D919C9111978821992105C08D919C9139
:101150001197862B972B8D939C9386B5CB2CD12CF6
:101160008B1528F086B590E08C199D0906C0B6B4A1
:10117000C8018C199D098B0D911D069768F080910F
:10118000C8019091C901820F931FDC018D919C9140
:10119000E20FF31F91838083BAE1BA95F1F700C0A3
:1011A00047985F9A8BE291E00197F1F700C0000049
:1011B0004F5F5F4F4830510509F08FCFA091CA01B2
:1011C000B091CB01E091C801F091C90150962D91E9
:1011D0003C915197808991892817390751F00E94D5
:1011E0008C246093CC017093CD018093CE019093B9
:1011F000CF019FEFE91AF90AA0E1EA16F10409F01C
:1012000053CF80912605853021F0809126058111EC
:1012100011C06091CC017091CD018091CE0190916F
:10122000CF010E94C224613177428105910510F0FF
:101230000E940C2481E0DF91CF911F910F91FF90CC
:10124000EF90DF90CF90BF909F908F900895209166
:10125000CA019091CB01E22FF92FE80FF11DE80FA1
:10126000F11D8081918108950895089581FF02C044
:101270002E9808952E9A089588E08093CC001092BD
:10128000CD00E9ECF0E08081806980838081886016
:101290008083EAECF0E080818083EBECF0E08081F9
:1012A0008083809A8898789408959091D1012091B4
:1012B000D0019217C1F030E0F901EE52FE4F80816B
:1012C0002F5F3F4FA90155272093D001692F70E070
:1012D000461B570B921708F05395433051050CF0FD
:1012E000889890E008958FEF9FEF08959091C8003F
:1012F00095FFFCCF8093CE0008951F920F920FB6FA
:101300000F9211242F933F934F935F938F939F934B
:10131000EF93FF938091D10190E0AC014F5F5F4F5D
:101320002091D001241741F03091CE00FC01EE5203
:10133000FE4F30834093D1013091D101822F90E054
:10134000432F50E0841B950B321708F093950397B9
:101350000CF4889AFF91EF919F918F915F914F913B
:101360003F912F910F900FBE0F901F901895809175
:10137000EC02089508950895CF93DF938D3C910575
:10138000B9F1B8F4853B9105A9F148F4833B910587
:10139000D1F1843B9105D1F5D0E0C0E23BC0873B61
:1013A000910571F150F18C3C910581F5D0E0C8E0D8
:1013B00031C08A3E9105C1F040F4823E9105B1F002
:1013C000893E910519F5D0E124C0813222E09207CF
:1013D00049F0833222E09207D9F08A389140B1F483
:1013E000D2E017C0D4E015C0D0E213C0D0E411C0E1
:1013F000D0E80FC0D0E0C1E00DC0D0E0C2E00AC02C
:10140000D0E0C4E007C0D0E0C0E104C0D0E001C03B
:10141000D1E0C0E08DEF0E94760983E00E9476095A
:1014200083E00E9476098D2F0E9476098C2FDF9130
:10143000CF910C947609CF93DF93EC018DEF0E944E
:10144000760985E00E94760982E00E94760988810B
:101450000E94760989810E9476098A810E94760914
:101460008B81DF91CF910C947609CF93DF93EC01C0
:101470008DEF0E94760989E00E94760981E00E9442
:10148000760988810E94760980E00E9476098A8127
:101490000E9476098B810E9476098C810E947609D0
:1014A0008D810E9476098E810E9476098F81DF915D
:1014B000CF910C9476090895089508958091EC02D7
:1014C00008950C945509EF92FF920F931F93CF93B9
:1014D0008C010E9480247C01C0E0C7010E949824F6
:1014E00080179107B0F40E9455098F3F2FEF9207A4
:1014F00071F09C0133272D30310549F02A30310538
:1015000041F0EC2FF0E0EC52FD4F8083CF5FC7310C
:1015100020F3EC2FF0E0EC52FD4F108284ED92E0CE
:10152000CF911F910F91FF90EF9008950C94760941
:1015300081B3881F8827881F0895879A8F9A0895F6
:1015400085B7806885BF85B7806885BF0E949D0A82
:1015500086988E9A81988998559A5D980C943C0942
:10156000879A8F9808958FB18695817008958FB16D
:1015700086FB882780F908958093EC020895CF9325
:10158000DF93FC018491EF012196882321F00E94D2
:101590007609FE01F7CFDF91CF910895CF93DF93C6
:1015A000C2EFD1E00E9455098F3F2FEF920759F00B
:1015B0009F938F93DF93CF930E94F5070F900F9027
:1015C0000F900F90EFCFDF91CF9108950E94BF0A47
:1015D0002FEF89E698E1215080409040E1F700C06C
:1015E000000084E690E00E94630A8093D202909308
:1015F000D3029F938F9385EF91E09F938F930E94E7
:10160000F5070E94CE0A0F900F900F900F908091D7
:10161000D2029091D30208950E94E316909315018F
:10162000809314010E949E1C80E091E00E94DE16CF
:101630000E94B00A0E94B70A8111FCCF8DE792E0A8
:101640000E945C072FEF85EB95E32150804090408E
:10165000E1F700C0000089E792E00E94E60AEFEFA0
:10166000FBE42DE1E150F0402040E1F700C0000034
:101670000E94CE0A85E792E00E94E60AFC01808182
:10168000863721F081E792E00C94E60A089588E518
:1016900092E00E945C0782E592E00E94E60A0E94C6
:1016A0009D0A0E949E1C80911401909115010C943A
:1016B000DE16809126018093210508959F92AF92B6
:1016C000BF92CF92DF92EF92FF920F931F93CF932F
:1016D000DF9382E0B82E09E214E09FE2E92E94E065
:1016E000F92EAA24A39423E0922E37E1C32E34E0EE
:1016F000D32E0E94610AEC01019609F441C0809149
:10170000ED028130F9F028F0823009F1833021F1C7
:1017100034C0CE3FD10519F4A092ED02EACFC03813
:10172000D10528F4DF93CF93FF92EF9204C0DF93AB
:10173000CF931F930F930E94F5070F900F900F9078
:101740000F90D7CF2297C9F4B092ED02D2CF219754
:10175000A1F49092ED02CDCF8091100580FF0AC0D8
:10176000DF93CF93DF92CF920E94F5070F900F90F7
:101770000F900F908C2F0E94BC0A1092ED02B9CFEF
:101780008091EF02811127C08091EE02811114C077
:101790000E94B30A811110C00E94E3168A50914042
:1017A000D1F00E949E1C8091260180932105109209
:1017B00026018AE091E00DC00E94E3168B51914012
:1017C00051F00E949E1C80912105809326018BE19F
:1017D00091E00E94DE160E94B30A811107C00E94A8
:1017E000B70A882319F06E9A769802C06E9A769A94
:1017F000DF91CF911F910F91FF90EF90DF90CF90ED
:10180000BF90AF909F9008954F925F926F927F929A
:101810008F929F92AF92BF92CF92DF92EF92FF9200
:10182000CF938331B1F150F48C3009F440C0813151
:1018300009F47DC18B3009F081C10EC0883361F09D
:1018400020F4883109F419C179C1873409F440C101
:101850008C3409F429C172C183EF93E00E945C07C4
:101860008EED93E00E945C0787EB93E00E945C079B
:101870008CE993E00E945C078AE893E00E945C0791
:10188000C091EF02C11111C08AE693E00E945C078B
:1018900059C10E940C0B8DE992E00E94E60A87E98B
:1018A00092E00E94E60A0E94470BC1E04BC181E52D
:1018B00093E00E945C070E94E3168A50914019F061
:1018C00085E391E002C08FE291E09F938F9383E4E0
:1018D00093E09F938F930E94F5078091EE021F92F1
:1018E0008F9384E393E09F938F930E94F5070E9468
:1018F000B30A2DB73EB7285F3F4F0FB6F8943EBFEF
:101900000FBE2DBF811107C00E94B70A811106C00A
:101910008EE391E005C08AE391E002C081E491E0AA
:101920009F938F938AE293E09F938F930E94F50792
:101930000E94980A1F928F938FE093E09F938F935A
:101940000E94F5078091EF021F928F938EEF92E035
:101950009F938F930E94F507809126052DB73EB780
:10196000245F3F4F0FB6F8943EBF0FBE2DBF8823B4
:10197000B9F0809126058130B1F080912605823042
:10198000A9F0809126058330A1F08091260584304E
:1019900099F080912605853091F086E791E011C09D
:1019A0008EE491E00EC086E491E00BC089E591E001
:1019B00008C081E691E005C08BE691E002C088E7AF
:1019C00091E09F938F938FEE92E09F938F930E946D
:1019D000F507809124051F928F9386ED92E09F93E7
:1019E0008F930E94F5070E948C246B017C0128EEE6
:1019F00033E040E050E00E944D2D29013A018CE394
:101A0000882E912CA12CB12CCA01B901A5019401F9
:101A10000E944D2D7F936F93C301B20120E13EE000
:101A200040E050E00E944D2DA50194010E944D2DF3
:101A30003F932F93C701B60120E83EEE46E350E006
:101A40000E944D2D1F922F93C701B60120E03CE567
:101A500046E255E00E944D2D3F932F9389EB92E093
:101A60009F938F930E94F5078DB79EB742960FB64E
:101A7000F8949EBF0FBE8DBF18CF8091EF028111E9
:101A800060C0C091EE02CC2339F08EEA92E00E9451
:101A90005C071092EE0256C084EA92E00E945C0756
:101AA00081E08093EE0201CF0E94980AC82F88231C
:101AB00041F00E940C0B81E0809320058093EF029F
:101AC00041C00E94470B109220051092EF02EDCE0C
:101AD0008091EF02811102C00E940C0B8BE492E016
:101AE0000E94E60A80E492E00E94E60A8CE292E01C
:101AF0000E94E60A85E292E00E94E60A8BE192E00B
:101B00000E94E60A84E192E00E94E60A8AE092E0FE
:101B10000E94E60A80E092E00E94E60A8AEF91E0E5
:101B20000E94E60A8091EF028111BFCEBCCE0E94D6
:101B3000E316C1E08B51914029F403C0C091EF023C
:101B400001C0C0E08C2FCF91FF90EF90DF90CF903D
:101B5000BF90AF909F908F907F906F905F904F90CD
:101B60000895CF93C82F0E94332382724C2F50E0E8
:101B7000FA013497E934F10508F0D0C0EA5AFF4F72
:101B80000C946F2D8BE12DC18111CCC081E629C150
:101B90008111CAC082E625C18111C8C083E621C176
:101BA0008111C6C084E61DC18111C4C085E619C17A
:101BB0008111C2C086E615C18111C0C087E611C17E
:101BC0008111BEC088E60DC18111BCC089E609C182
:101BD0008111BAC08AE605C18111B8C08BE601C186
:101BE0008111B6C08CE6FDC08111B4C08DE6F9C08C
:101BF0008111B2C08EE6F5C08111B0C08FE6F1C090
:101C00008111AEC080E7EDC08111ACC081E7E9C0B1
:101C10008111AAC082E7E5C08111A8C083E7E1C0B5
:101C20008111A6C084E7DDC08111A4C085E7D9C0B9
:101C30008111A2C086E7D5C08111A0C087E7D1C0BD
:101C400081119EC088E7CDC081119CC089E7C9C0C1
:101C500081119AC08AE7C5C0811198C081E3C1C0D3
:101C6000811196C082E3BDC0811194C083E3B9C0E5
:101C7000811192C084E3B5C0811190C085E3B1C0E9
:101C800081118EC086E3ADC081118CC087E3A9C0ED
:101C900081118AC088E3A5C0811188C089E3A1C0F1
:101CA000811186C080E39DC088E09BC089E099C017
:101CB00080E297C081117EC08DE293C081117CC00B
:101CC0008DE38FC081117AC08BE58BC0811178C004
:101CD0008DE587C0882309F475C08CE782C088230E
:101CE00009F472C08CE77DC0811170C08BE379C0AC
:101CF00081116EC087E275C081116CC080E671C031
:101D000081116AC08CE26DC0811168C08EE269C029
:101D1000811166C08FE265C080E063C080E261C06F
:101D20008AE05FC081E45DC082E45BC083E459C0A7
:101D300084E457C085E455C086E453C087E451C0AD
:101D400088E44FC089E44DC08AE44BC08BE449C0AD
:101D50008CE447C08DE445C08EE443C08FE441C0AD
:101D600080E53FC081E53DC082E53BC083E539C0E9
:101D700084E537C085E535C086E533C087E531C0E9
:101D800088E52FC089E52DC08AE52BC081E229C0F6
:101D900080E427C083E225C084E223C085E221C01D
:101DA0008EE51FC086E21DC08AE21BC088E219C012
:101DB00089E217C08FE515C08BE213C08BE711C015
:101DC0008DE70FC08CE50DC08CE50BC08AE309C020
:101DD00082E207C08EE705C08CE303C08EE301C03A
:101DE0008FE30E94960A81E0CF910895CF93C82F88
:101DF0000E9419078C2F0E947C1080E0CF910895DB
:101E000084B7877F84BF0FB6F894A895809160004F
:101E1000886180936000109260000FBE90E080E8BF
:101E20000FB6F89480936100909361000FBE0E94FA
:101E3000F7130E9454148091E20084608093E200C2
:101E400086EF9EE00E94CF23509A589A5198599A53
:101E500087E994E00E945C0778948FEF90912605C3
:101E60008150943041F0EFE7FEE33197F1F700C085
:101E700000008111F3CF8CE894E00E945C070E947F
:101E8000A00A80E894E00E945C070E94590B8FE64C
:101E900094E00E945C070E94A21780E694E00E94F2
:101EA0005C0780E594E00E945C070E94B30A8823E7
:101EB00019F1809126058530F9F48CE494E00E94B4
:101EC0005C070E9435090E940C240E940C240E9489
:101ED0000C240E940C240E940C240E940C240E94BA
:101EE0000C2480912405882301F30E943524882343
:101EF000E1F20E945012D9CF0E94A6178DE394E020
:101F00000E945C070E945E0B82E394E0CCCF80913C
:101F100012040895CF93DF9300D01F92CDB7DEB7A0
:101F20009C0180912605843019F593E099833B83C9
:101F30002A839093E9008FEF9091E800815095FDFE
:101F400006C095ED9A95F1F700008111F5CF8091CB
:101F5000E80085FF0DC040E050E063E070E0CE0196
:101F600001960E9466128091E8008E778093E800C7
:101F70000F900F900F90DF91CF910895CF93DF9343
:101F800000D01F92CDB7DEB720912605243021F571
:101F900022E029839B838A8383E08093E9008FEF8B
:101FA0009091E800815095FD06C095ED9A95F1F766
:101FB00000008111F5CF8091E80085FF0DC040E061
:101FC00050E063E070E0CE0101960E9466128091BD
:101FD000E8008E778093E8000F900F900F90DF91CC
:101FE000CF910895209126052430F1F422E020932A
:101FF000E9002FEF3091E800215035FD06C035EDA6
:102000003A95F1F700002111F5CF2091E80025FF66
:102010000BC040E050E065E070E00E9466128091E5
:10202000E8008E778093E8000895CF93DF932091A6
:102030002605243009F04AC0EC018091250188234F
:10204000E1F0809126018823C1F085E08093E900CA
:1020500081E8815049F09091E80095FD05C09AE231
:102060009A95F1F700C0F5CF8091E80085FF2EC06A
:1020700040E050E060E270E019C081E08093E90048
:1020800081E8815059F09091E80095FD07C0EFE399
:10209000F1E03197F1F700C00000F3CF8091E80044
:1020A00085FF14C040E050E068E070E0CE010E947F
:1020B00066128091E8008E778093E80080E2FE014E
:1020C000A2EFB3E001900D928A95E1F7DF91CF91F5
:1020D0000895CF93C091F002C1110BC00E948C24CF
:1020E000643C79408105910520F081E08093F00205
:1020F000C1E08C2FCF910895CF93C82F0E94691013
:10210000882309F448C00FB607FE45C08091260514
:10211000843009F040C08091E9008F702091EC007C
:10212000922F917020FD90E8892B94E09093E90024
:102130009091EB0090FF2CC09091EE0097FF28C08B
:102140009091190120911801291709F449C0209193
:10215000E80025FF1DC0E0911601F0911701E90F7D
:10216000F11D30819F5F20911A01922390931901F4
:102170003093F1009091E80095FDE2CF9091E80056
:1021800090FFDECF9091E8009E779093E800D8CF43
:102190008F708093E9008091180190E0AC014F5F4F
:1021A0005F4F30911A01232F30E0242335234091D3
:1021B000190150E02417350789F02091160130915C
:1021C0001701F901E80FF91FC083809118018F5F93
:1021D00090911A018923809318010BC08FEF0AC0D8
:1021E0009091E80095FFD4CFC093F1008F70809359
:1021F000E90080E0CF9108958BEA94E00E945C07AB
:1022000080912505811109C00E94F7130E94541482
:102210008091E20084608093E200089587EA94E070
:102220000E945C071092250508950895089542E0E4
:1022300061EC81E00E94701342E061EC82E00E9458
:10224000701342E061EC83E00E94701342E261ECA3
:1022500084E00E94701342E261EC85E00C947013FC
:1022600080912805833009F455C030F4813071F035
:10227000823009F48EC008958A3009F47AC08B3018
:1022800009F460C0893009F09CC020C08091270506
:10229000813A09F096C08091E800877F8093E8003A
:1022A00080912B0590912C05892B21F460E282EF1F
:1022B00093E003C060E080E090E070E00E94B11223
:1022C0008091E8008B778093E8000895809127053E
:1022D000813209F076C080912B0590912C050097F2
:1022E00019F0049709F06DC08091E800877F809312
:1022F000E8008091E80082FD05C0809126058111EB
:10230000F8CF5FC08091F100809312048091E800C3
:102310008B7753C080912705813A09F052C0809194
:102320002B0590912C05892B09F04BC08091E8007A
:10233000877F8093E8008091E80080FFFCCF809148
:10234000250136C0809127058132D9F580912B0572
:1023500090912C05892BA9F58091E800877F8093C7
:10236000E8000E94A51380912905809325010C9413
:102370009E1C80912705813221F58091E800877F9E
:102380008093E8000E94A51380912A05809313048E
:10239000089580912705813AA1F48091E800877F14
:1023A0008093E8008091E80080FFFCCF80911304C7
:1023B0008093F1008091E8008E778093E8000C9480
:1023C000A5130895809112048093F10210921204D3
:1023D00080E00E9436090E9461180C949E1C0C94A7
:1023E000E2110E944A248091F10280931204089520
:1023F0000C94F111292F332723303105C9F060F4F3
:102400002130310581F02230310509F041C08DE8DD
:1024100090E02DEE34E040C021323105E1F022326F
:10242000310531F135C082E190E02AE735E034C072
:1024300099278130910549F028F0029749F5EFEA94
:10244000F4E005C0E9EEF4E002C0EDEDF4E08491C3
:1024500090E09F0121C06530D8F4E62FF0E0EE0F48
:10246000FF1FEF56FE4F2081318189E090E014C0BC
:10247000653070F470E0FB01EE0FFF1FE957FE4F6F
:1024800020813181FB01EE57FE4F808190E004C036
:1024900080E090E020E030E0FA013183208308956D
:1024A00080E189BD82E189BD09B400FEFDCF809144
:1024B000D8008F7D8093D8008091E0008260809367
:1024C000E0008091E00081FDFCCF0895CF92DF9283
:1024D000EF92FF920F931F93CF93DF93EC018B0149
:1024E0007A010E94C413811133C0E114F10439F060
:1024F000F70180819181081B190BC80FD91FC12CCE
:10250000D12C0115110519F18091E80085FD16C047
:102510008091E8008E778093E800E114F10449F09F
:10252000F70180819181C80ED91ED182C08285E0D9
:102530000FC00E94C413882321F30AC0899180939D
:10254000F10001501109FFEFCF1ADF0ADACF80E066
:10255000DF91CF911F910F91FF90EF90DF90CF907F
:10256000089520912D0530912E052617370748F044
:102570006115710539F42091E8002E772093E80069
:1025800001C0B901FC0120E06115710579F180916C
:1025900026058823F1F18530F1F18091E80083FD73
:1025A0003CC08091E80082FD2EC08091E80080FF51
:1025B000EBCF2091F3008091F20090E0922B611517
:1025C000710551F08830910538F421912093F10084
:1025D000615071090196F3CF21E0089709F020E0DE
:1025E0008091E8008E778093E800CECF2111CFCF85
:1025F0000AC080912605882361F0853061F08091C2
:10260000E80083FD0AC08091E80082FFF2CF80E0FD
:10261000089582E0089583E0089581E0089520916F
:102620002D0530912E052617370748F061157105E5
:1026300039F42091E8002E772093E80001C0B90119
:10264000FC0120E06115710591F180912605882338
:1026500009F440C0853009F43FC08091E80083FD53
:102660003DC08091E80082FD2FC08091E80080FF8E
:10267000E9CF2091F3008091F20090E0922B611558
:10268000710559F08830910540F424912093F100B0
:102690003196615071090196F2CF21E0089709F057
:1026A00020E08091E8008E778093E800CBCF211165
:1026B000CCCF0AC080912605882361F0853061F077
:1026C0008091E80083FD0AC08091E80082FFF2CF8C
:1026D00080E0089582E0089583E0089581E0089500
:1026E000982F973068F59093E900981739F070911A
:1026F000EC002091ED005091F00003C0242F762FC4
:1027000050E021FD02C09F5FECCF3091EB003E7F97
:102710003093EB003091ED003D7F3093ED00309130
:10272000EB0031603093EB007093EC002093ED00F0
:102730005093F0002091EE0027FDE5CF80E0089552
:102740008F708093E90081E008958091270587FFCD
:1027500011C08091E80082FD05C08091260581119D
:10276000F8CF11C08091E8008B770BC080912605CF
:10277000882349F08091E80080FFF8CF8091E8003D
:102780008E778093E80008952091E4003091E50071
:1027900095E64091EC00842F817040FF23C080912A
:1027A000E80080FD1DC080912605882399F08530C2
:1027B00099F08091EB0085FD11C04091E4005091AB
:1027C000E5002417350729F3915011F09A01E1CF64
:1027D00084E0089582E0089583E0089581E00895FB
:1027E00080E008954091E80042FFDDCF08950E9407
:1027F00065140E946D14E0EEF0E0808181608083BA
:10280000E8EDF0E080818F77808319BCA7EDB0E020
:102810008C918E7F8C9380818F7E80831092250592
:1028200008950F931F93CF93DF930E9465140E9426
:102830006D14C8EDD0E088818F77888388818068A7
:10284000888388818F7D888319BC10922605109219
:102850002205109224051092230500EE10E0F801E5
:1028600080818B7F808388818160888342E060E003
:1028700080E00E947013E1EEF0E080818E7F808323
:10288000E2EEF0E0808181608083808188608083D7
:10289000F80180818E7F8083888180618883DF91C9
:1028A000CF911F910F910895E8EDF0E080818F7E28
:1028B0008083E7EDF0E080818160808384E082BFE7
:1028C00081E0809325050C941114E8EDF0E08081FF
:1028D0008E7F80831092E20008951092DA001092A9
:1028E000E10008951F920F920FB60F9211242F93BB
:1028F0003F934F935F936F937F938F939F93AF9388
:10290000BF93EF93FF938091E10082FF0BC0809112
:10291000E20082FF07C08091E1008B7F8093E1009D
:102920000E9416118091DA0080FF1FC08091D800AC
:1029300080FF1BC08091DA008E7F8093DA00809147
:10294000D90080FF0DC080E189BD82E189BD09B455
:1029500000FEFDCF81E0809326050E94FC1005C09B
:1029600019BC109226050E940E118091E10080FF93
:1029700019C08091E20080FF15C08091E2008E7F37
:102980008093E2008091E20080618093E200809178
:10299000D80080628093D80019BC85E0809326051A
:1029A0000E94EF118091E10084FF30C08091E2002D
:1029B00084FF2CC080E189BD82E189BD09B400FE9D
:1029C000FDCF8091D8008F7D8093D8008091E10069
:1029D0008F7E8093E1008091E2008F7E8093E20001
:1029E0008091E20081608093E2008091220588233B
:1029F00011F084E007C08091E30087FD02C081E010
:102A000001C083E0809326050E94F8118091E100C7
:102A100083FF29C08091E20083FF25C08091E100FF
:102A2000877F8093E10082E0809326051092220543
:102A30008091E1008E7F8093E1008091E2008E7FA3
:102A40008093E2008091E20080618093E20042E0A6
:102A500060E080E00E9470138091F00088608093B5
:102A6000F0000E941511FF91EF91BF91AF919F91DE
:102A70008F917F916F915F914F913F912F910F9027
:102A80000FBE0F901F9018951F920F920FB60F92C6
:102A900011242F933F934F935F936F937F938F9363
:102AA0009F93AF93BF93CF93DF93EF93FF93C09127
:102AB000E900CF708091EC00D82FD17080FDD0E874
:102AC0001092E9008091F000877F8093F000789465
:102AD0000E9488151092E9008091F0008860809330
:102AE000F000CD2BCF70C093E900FF91EF91DF9103
:102AF000CF91BF91AF919F918F917F916F915F9196
:102B00004F913F912F910F900FBE0F901F901895EE
:102B10001F93CF93DF93CDB7DEB7AA970FB6F89484
:102B2000DEBF0FBECDBFE7E2F5E08091F1008193FB
:102B300025E0EF32F207C9F70E9430118091E800DA
:102B400083FF24C18091270590912805492F50E0EB
:102B50004A30510508F01AC1FA01E156FF4F0C94B2
:102B60006F2D803881F0823809F010C180912B05DB
:102B70008F708093E9008091EB0085FB882780F9B6
:102B80001092E90006C080912305909124059111CF
:102B900082609091E800977F9093E8008093F10025
:102BA0001092F100C8C0282F2D7F09F0EFC08823B4
:102BB00019F0823061F0EAC080912905813009F076
:102BC000E5C0933009F080E0809324052BC080910C
:102BD0002905811127C080912B058F7009F4D6C07B
:102BE0008093E9002091EB0020FF1CC0933021F47A
:102BF0008091EB00806214C09091EB009061909303
:102C0000EB0021E030E0A90102C0440F551F8A9576
:102C1000E2F74093EA001092EA008091EB008860AE
:102C20008093EB001092E9008091E800877F86C0D6
:102C30008111ACC0109129051F778091E300807845
:102C4000812B8093E3008091E800877F8093E800E8
:102C50000E94A5138091E80080FFFCCF8091E300E3
:102C600080688093E300111102C082E001C083E01C
:102C7000809326058BC08058823008F087C08091F1
:102C8000290590912A058C3D53E0950779F583E05D
:102C90008A838AE289834FB7F894DE01139620E095
:102CA0003EE051E2E32FF0E050935700E49120FF23
:102CB00003C0E295EF703F5FEF708E2F90E0EA3037
:102CC00010F0C79601C0C0968D939D932F5F24315D
:102CD00049F74FBF8091E800877F8093E8006AE260
:102CE00070E0CE0101960E94B11214C0AE014F5F98
:102CF0005F4F60912B050E94FA11BC01892B09F4EA
:102D000045C09091E800977F9093E80089819A816F
:102D10000E940F138091E8008B778093E80036C003
:102D20008038A1F58091E800877F8093E80080914A
:102D300022058093F1008091E8008E778093E8006F
:102D40000E94A51323C0811121C080912905909173
:102D50002A0599270297D4F48091E800877F809311
:102D6000E80080912905809322050E94A513809197
:102D70002205811106C08091E30087FD02C081E039
:102D800001C084E0809326050E9417118091E8001D
:102D900083FF0AC08091E800877F8093E8008091DC
:102DA000EB0080628093EB00AA960FB6F894DEBF2A
:102DB0000FBECDBFDF91CF911F910895909319045D
:102DC000809318040895809118049091190408952F
:102DD000E0911804F0911904309721F00190F081EE
:102DE000E02D099480E00895EF92FF920F931F93D6
:102DF000CF93DF93E0911804F09119043097B1F16B
:102E00008C010280F381E02D09958091100582FFED
:102E10002DC080FF04C080ED96E00E945C07E801B1
:102E200010E28AECE82E86E0F82E8091100580FFF3
:102E30000BC088811F928F93FF92EF920E94F5073B
:102E40000F900F900F900F90115021961111EDCF10
:102E50008091100580FF0AC088EC96E0DF91CF9149
:102E60001F910F91FF90EF900C945C07DF91CF9131
:102E70001F910F91FF90EF900895E0911804F09149
:102E80001904309721F00480F581E02D099408950C
:102E9000CF93DF9320911604309117042817390738
:102EA00009F19093170480931604E0911804F091AF
:102EB00019043097B9F0EC010680F781E02D0995EF
:102EC0008091100582FF0EC080FF0CC0DF93CF936E
:102ED0008AEB96E09F938F930E94F5070F900F90D7
:102EE0000F900F90DF91CF910895CF93DF932091B2
:102EF0001404309115042817390709F1909315042B
:102F000080931404E0911804F09119043097B9F0FB
:102F1000EC010084F185E02D09958091100582FF78
:102F20000EC080FF0CC0DF93CF938AEA96E09F9398
:102F30008F930E94F5070F900F900F900F90DF91E5
:102F4000CF9108950E9477240C9404088F929F9249
:102F5000AF92BF92CF92DF92EF92FF920F931F93A7
:102F6000CF93DF9300D000D01F92CDB7DEB70E9481
:102F700033080BE114E0F12C8F2D0E9427094C013E
:102F8000F801A080B180A826B926A114B10439F4B3
:102F9000F3940E5F1F4FF8E0FF12EECF39C080911F
:102FA000100581FD0E946218E12CCC24C394D12C21
:102FB000C5018C219D21892B21F1E982FA8221E032
:102FC000C4018C219D21892B09F420E02B830E94D0
:102FD00080248160782F9D838C8349815A816B8105
:102FE0008D810E94961849815A816B817C818D81E7
:102FF0000E94FA23F801808191818C259D2591837F
:103000008083E394CC0CDD1CF0E1EF12D1CFC0CF74
:103010008FEF89838A831B820E9480248160782FAE
:103020009D838C8349815A816B818D810E94961882
:103030000E94F9230E946D270E94E81690911A04BD
:10304000891759F10E94E81680931A04909110058F
:1030500092FF0EC090FF0CC01F928F938BED96E0F5
:103060009F938F930E94F5070F900F900F900F90F2
:1030700080911A040F900F900F900F900F90DF9196
:10308000CF911F910F91FF90EF90DF90CF90BF9065
:10309000AF909F908F900C940A240F900F900F90F8
:1030A0000F900F90DF91CF911F910F91FF90EF90B4
:1030B000DF90CF90BF90AF909F908F9008950C9429
:1030C00036090895EF92FF920F931F93CF93DF93EA
:1030D00085EF96E00E945C07C0E0D0E084E3E82E34
:1030E00081E0F82E06EE16E08C2F0E9427090E9440
:1030F000E623FF92EF929F938F93DF93CF931F93DB
:103100000F930E94F50721968DB79EB708960FB6CC
:10311000F8949EBF0FBE8DBFC830D10529F7DF914F
:10312000CF911F910F91FF90EF900895CF93DF9370
:10313000CDB7DEB72B970FB6F894DEBF0FBECDBF6D
:10314000942F4F83252F588769877A878B874A85E5
:103150005B85452B31F02F3F31F481E09F3F19F41F
:1031600003C081E001C080E080FD07C04F81588529
:1031700069857A858B850E94FA23DE01119686E0A7
:10318000FD0111928A95E9F785E0FE0137960190DD
:103190000D928A95E1F749815A816B817C818D81FD
:1031A0009E810E94A91F2B960FB6F894DEBF0FBE1A
:1031B000CDBFDF91CF910895CF93882309F46DC0DF
:1031C000C82F8CEF8C0F813A20F080E58C0F8E3267
:1031D00048F48C2F0E94B32A81115FC08C2F0E946B
:1031E00091220CC080E28C0F883058F4C77081E0C7
:1031F00001C0880FCA95EAF70E943623CF910C943C
:103200007A238BE58C0F833078F4C53A29F0C63ADF
:1032100031F083E890E005C081E890E002C082E8E8
:1032200090E0CF910C94481788E58C0F853168F5B4
:10323000C83A89F0C93A91F0CA3A99F0CB3AA1F06C
:10324000CC3AA9F0CD3AB1F0CE3AB9F0CF3AC1F0CC
:1032500080E090E017C082EE90E014C089EE90E02C
:1032600011C08AEE90E00EC085EB90E00BC086EBBB
:1032700090E008C083EB90E005C084EB90E002C0D2
:1032800087EB90E0CF910C947517C03F30F08C2FF6
:103290000E94F325CF910C94E026CF9108958823C6
:1032A00081F19CEF980F913A20F090E5980F9E32B3
:1032B00018F40E94E1220DC090E2980F983058F463
:1032C000877091E001C0990F8A95EAF7892F0E94D3
:1032D0003C230C947A239BE5980F933020F480E0F4
:1032E00090E00C94481798E5980F953120F480E011
:1032F00090E00C947517803F20F00E945B260C94A0
:10330000E0260895882321F00E9436230C947A2326
:103310000895882321F00E943C230C947A23089579
:10332000CF92DF92EF92FF920F931F93CF93DF9391
:1033300000D000D01F92CDB7DEB76C0185E0F6015A
:10334000DE01119601900D928A95E1F7F601408118
:103350005181238134812115310531F05F3F31F4F2
:1033600091E04F3F19F403C091E001C090E090FD5F
:10337000C5C2F601F280E580E2948FE0E822722F68
:103380003D832C836F2D8D810E940D228C010E9424
:103390000C220E94FC20E12FE295EF708E2F90E02E
:1033A000FC01E755FF4F0C946F2D812F807F1F701C
:1033B000882311F01295107FFF2049F0112309F4A2
:1033C00052C2812F0E9449230E947A234CC2802F2F
:1033D0000E944F19112309F491C2812F0E944F239B
:1033E0000F900F900F900F900F90DF91CF911F9142
:1033F0000F91FF90EF90DF90CF900C947A23812F64
:10340000807F1F70803211F01295107F002319F019
:10341000013009F12BC0FF20A9F0EE2059F1F1E0B5
:10342000812FEF1228C00F900F900F900F900F90E8
:10343000DF91CF911F910F91FF90EF90DF90CF9090
:103440000C945923EE2021F081E0E81609F456C2CD
:103450000E9462232DC0FF20E9F0E5E0EE1508F49C
:103460004DC20E943323812329F022C0FF20F1F0B6
:10347000E11015C0812F0F900F900F900F900F90BB
:10348000DF91CF911F910F91FF90EF90DF90CF9040
:103490000C948219F4E0FE1508F430C209C0F6015C
:1034A000858180FFE0C18F708583E4CFE110EEC19C
:1034B000812F61C1812F86958695837019F08130A7
:1034C000B9F01CC2FF2019F0C801937002C080E05F
:1034D00090E00F900F900F900F900F90DF91CF9191
:1034E0001F910F91FF90EF90DF90CF900C944817B1
:1034F000FF2019F0C801937002C080E090E00F90A7
:103500000F900F900F900F90DF91CF911F910F911F
:10351000FF90EF90DF90CF900C947517802FFF20D5
:1035200019F00E94F32502C00E945B260F900F90B5
:103530000F900F900F90DF91CF911F910F91FF90FF
:10354000EF90DF90CF900C94E026812F837009F0EC
:1035500070C0F110D3C1202F229526952770220F1D
:10356000220F602F6F70862F90E0A0E0B0E06C011A
:103570007D01022E04C0CC0CDD1CEE1CFF1C0A9445
:10358000D2F704FF12C08FE090E0A0E0B0E004C0EA
:10359000880F991FAA1FBB1F2A95D2F7BC01CD0126
:1035A000609570958095909503C060E070E0CB01C8
:1035B0001695169513701230B1F040F56C297D29DF
:1035C0008E299F29113031F10F900F900F900F909D
:1035D0000F90DF91CF911F910F91FF90EF90DF90AF
:1035E000CF900C9421216C297D298E299F290F9041
:1035F0000F900F900F900F90DF91CF911F910F912F
:10360000FF90EF90DF90CF900C943B210E942121FE
:10361000C701B6010F900F900F900F900F90DF91A0
:10362000CF911F910F91FF90EF90DF90CF900C946E
:103630000721FF2019F0812F817001C08695882312
:1036400009F45CC1202F229526952770220F220FA6
:10365000602F6F70862F90E0A0E0B0E06C017D01DC
:10366000022E04C0CC0CDD1CEE1CFF1C0A94D2F709
:1036700004FF12C08FE090E0A0E0B0E004C0880F2B
:10368000991FAA1FBB1F2A95D2F7BC01CD016095D7
:1036900070958095909503C060E070E0CB01169521
:1036A000169513701230B1F040F56C297D298E29E2
:1036B0009F29113031F10F900F900F900F900F90C4
:1036C000DF91CF911F910F91FF90EF90DF90CF90FE
:1036D0000C94E8216C297D298E299F290F900F9049
:1036E0000F900F900F90DF91CF911F910F91FF904E
:1036F000EF90DF90CF900C94FA210E94E821C7014F
:10370000B6010F900F900F900F900F90DF91CF9117
:103710001F910F91FF90EF90DF90CF900C94D621E6
:10372000003FC1F128F480E4800F803250F096C051
:10373000023F09F45EC008F449C0033F09F46CC0BD
:103740008DC0F02FF071EF2E812F8F71FF2051F07F
:103750000E946F21802FEE2019F08295807F8BCE02
:103760008F7089CE0E949021802FEE2019F08295D3
:10377000807F01C08F700F900F900F900F900F906F
:10378000DF91CF911F910F91FF90EF90DF90CF903D
:103790000C948919FF20A9F084E08E1508F4AEC0BE
:1037A000812F8F710F900F900F900F900F90DF91DE
:1037B000CF911F910F91FF90EF90DF90CF900C94DD
:1037C000B521E5E0EE1508F499C0EACFFF2099F0A5
:1037D000812F8F710F900F900F900F900F90DF91AE
:1037E000CF911F910F91FF90EF90DF90CF900C94AD
:1037F0006F21FF2069F3812F8F710F900F900F9031
:103800000F900F90DF91CF911F910F91FF90EF904C
:10381000DF90CF900C949021FF2089F0812F8F7141
:103820000F900F900F900F900F90DF91CF911F91FD
:103830000F91FF90EF90DF90CF900C945A210F9052
:103840000F900F900F900F90DF91CF911F910F91DC
:10385000FF90EF90DF90CF900C945521FF2099F0CE
:10386000EE2009F4B5CF802F0F900F900F900F909E
:103870000F90DF91CF911F910F91FF90EF90DF900C
:10388000CF900C94DC18EE2009F4B5CF802F0F9068
:103890000F900F900F900F90DF91CF911F910F918C
:1038A000FF90EF90DF90CF900C944F19412F4F7005
:1038B000602FC6010E946D250F900F900F900F9002
:1038C0000F90DF91CF911F910F91FF90EF90DF90BC
:1038D000CF900C945720412F4F70602FC6010F904E
:1038E0000F900F900F900F90DF91CF911F910F913C
:1038F000FF90EF90DF90CF900C9470250F900F9079
:103900000F900F900F90DF91CF911F910F91FF902B
:10391000EF90DF90CF9008950E9456230E942523B8
:103920000E947A230E9412280E94E02680E090E004
:103930000E94481780E090E00C9475170E9446237F
:103940000C948C1C1F93CF93DF9300D000D01F9258
:10395000CDB7DEB7942F4983252F5A836B837C83A1
:103960008D834C815D81452B31F02F3F31F481E017
:103970009F3F19F403C081E001C080E0182F11704F
:1039800080FD31C049815A816B817C818D810E948B
:103990000D22292F22952F702C3030F42A30A0F4DC
:1039A0002250223030F022C02C30C9F02F30B9F034
:1039B0001DC0853A28F48430C0F4823028F415C044
:1039C00090E2980F983088F0883E30F4803E68F49A
:1039D0008450813A58F409C0803F41F406C093FBFB
:1039E000112710F903C010E001C011E0812F0F90E2
:1039F0000F900F900F900F90DF91CF911F9108952E
:103A0000CF93DF9300D000D01F92CDB7DEB70F90D9
:103A10000F900F900F900F90DF91CF910895CF935B
:103A2000DF9300D000D000D0CDB7DEB726960FB61A
:103A3000F894DEBF0FBECDBFDF91CF9108951F93E5
:103A4000CF93DF93C0912B0416E080912C04C8170C
:103A500099F0D0E01C9FF0011D9FF00D1124E35D53
:103A6000FB4F4081518162817381848195810E94E5
:103A70000F1D2196C770E9CFDF91CF911F91089557
:103A800040915D0450915E0460915F047091600408
:103A900080916104909162040C940F1DCF938091EA
:103AA000620482958F7009F05FC080915F04882363
:103AB00009F45AC080912B04B0912C0470915D04DC
:103AC000A0915E04409160045091610491E07F3FB9
:103AD00009F090E0692FC6E08B1709F445C0411545
:103AE000510521F0AF3F21F020E003C021E001C0EB
:103AF000262F90E020FD35C0C89FF001C99FF00D32
:103B00001124E35DFB4F21812A132BC02081271351
:103B100028C02281211125C0238134812417350733
:103B200010F421503109241B350B283C3105C8F411
:103B3000209162042F7020612093620426E0289F68
:103B4000F001299FF00D1124EE5CFB4F80818F70F6
:103B5000806180838DE594E00E949019CF910C9450
:103B60001F1D01968770B8CFCF910895AF92BF9275
:103B7000CF92DF92EF92FF920F931F93CF93DF9339
:103B8000CDB7DEB761970FB6F894DEBF0FBECDBFDD
:103B90007C0185E0F701DE011D9601900D928A956A
:103BA000E1F7D7014C9111965C9111971296DC9038
:103BB000129713960D911C91149730915D046091AA
:103BC0005E048091600490916104009731F06F3F32
:103BD00031F421E03F3F19F403C021E001C020E0AF
:103BE000B22FB170BB2E20FD6EC1A0905F04AA2041
:103BF00009F4CCC0209162040817190728F0F801D5
:103C0000E81BF90BCF0104C080959095800F911FA0
:103C1000CC24C394883C910580F0C12C207F09F00E
:103C2000A1C0702F198B088B6D2D89890E94001DF2
:103C30008DE594E00E949019BDC0822F807F09F02D
:103C400056C0561315C0431313C0CD2CD11010C04D
:103C50002F702061209362040E94401D8DE594E046
:103C60000E94901980916204D70115968C935FC1D0
:103C70000115110531F05F3F31F481E04F3F19F438
:103C800003C081E001C080E080FD03C081E08D259C
:103C900002C080E090E0B82FB170CB2E80FF1CC036
:103CA00080912B0420912C0436E0821709F41CC16A
:103CB00090E0389FF001399FF00D1124E35DFB4F38
:103CC0006181561306C06081461303C06281D6121B
:103CD00003C001968770E9CFCD2CDD2009F427C100
:103CE00080916204816080936204C12C20C15613CC
:103CF00008C0431306C0D11004C080916204D701EC
:103D0000B6C04D875E87DF86702F198B088B6D2DAF
:103D100089890E94A21C882399F1DD2089F12091D4
:103D20006204822F82958F7090E0029774F08091E8
:103D30005D0490915E0498878F8319861B870A879C
:103D40002C87CE0107960E94901986E0F701ADE519
:103D5000B4E001900D928A95E1F70E944E1D0E94F9
:103D6000401D11C0561781F14D875E87DF86702F89
:103D7000198B088B6D2D89890E94A21C811138C076
:103D8000C7010E949019CC24C394D1C00817190709
:103D900008F446C0F801E81BF90BCF01883C9105F7
:103DA00008F443C0C12C702F198B088B6D2D8989A5
:103DB0000E94001DEDE5F4E086E0DF011D928A958A
:103DC000E9F70E94401DB3C04313CECFD110CCCF32
:103DD00080916204F7018583C7010E94901986E0F3
:103DE000EDE5F4E0DF011D928A95E9F7CA2C9FC04A
:103DF000DD2031F220916204822F82958F7090E055
:103E000002970CF4A2CF80915D0490915E049A8396
:103E100089831B821D830C832E83CE01019693CF51
:103E200080959095800F911FB9CFCD2CDD2009F49E
:103E3000A7CF561333C0431331C02091620420FD35
:103E400024C0822F82958F70482F50E04115510574
:103E5000E1F0D70115962C9315974F30510549F095
:103E60008F5F982F9295907F822F8F70892B159658
:103E70008C93C7010E94901986E0F701ADE5B4E08C
:103E800001900D928A95E1F79CCF86E0F701ADE5B0
:103E9000B4E001900D928A95E1F749C04D875E87A5
:103EA000DF86702F198B088B6D2D89890E94A21CCB
:103EB00081114BCF80916204816080936204C701BD
:103EC0000E94901934C0DD2009F45ACF4D875E87D7
:103ED000DF86702F198B088B6D2D89890E94A21C9B
:103EE000882309F44DCF31CF702F198B088B6D2D9E
:103EF00089890E940D22292F22952F70223028F4C3
:103F00009F7039F0811105C00BC0243028F49F70D8
:103F100049F4805E883020F0C7010E949019BC2CC3
:103F2000CB2C05C0F7019581907F99F7F9CF8C2DA7
:103F300061960FB6F894DEBF0FBECDBFDF91CF9173
:103F40001F910F91FF90EF90DF90CF90BF90AF90B7
:103F500008951F93CF93DF93CDB7DEB72C970FB69D
:103F6000F894DEBF0FBECDBF4F83588769877A872D
:103F70008B879C87CE0107960E94B61D8823D1F0BF
:103F80009F8188852A853B85232B31F08F3F31F433
:103F900081E09F3F19F403C081E001C080E080FD13
:103FA00047C04F81588569857A858B859C850E949D
:103FB0000F1D3EC086E0FE013796DE01119601908E
:103FC0000D928A95E1F7FF81E8856A857B85611509
:103FD000710531F0EF3F31F481E0FF3F19F403C088
:103FE00081E001C080E080FD23C020912C0430E0FE
:103FF000C90101968770992740912B0450E08417DE
:104000009507F1F1F983EA837D836C8396E0929FB3
:10401000D001939FB00D1124A35DBB4FFE013196DB
:1040200001900D929A95E1F780932C040E941F1D38
:1040300016E080912B0490912C04891771F1189F40
:10404000C0011124835D9B4F0E94B61D882329F176
:10405000E0912B041E9FF0011124E35DFB4F408192
:10406000518162817381848195810E940F1D8091AD
:104070002B0490E001968770992780932B04D9CF69
:104080000E949E1C10922C0410922B04EDE5F4E08B
:1040900086E0DF011D928A95E9F72C960FB6F89419
:1040A000DEBF0FBECDBFDF91CF911F910895DF928C
:1040B000EF92FF920F931F93CF93DF93FC01892B15
:1040C00009F488C0E12CF12CDD24D394EF01219672
:1040D0008491853709F460C058F4843708F04EC0E5
:1040E000843008F068C08130D1F0823071F172C044
:1040F000883709F45BC050F4863709F453C087371A
:1041000009F068C08E2D0E94432352C09CE7980F8F
:10411000903708F05FC08F770E944F194EC08F0113
:104120000E5F1F4FFE01849190E2980F983050F47B
:104130008770FD2D01C0FF0F8A95EAF78F2F0E942F
:10414000492315C00E94DC1814C08F010E5F1F4F59
:10415000FE01849190E2980F983068F48770FD2DED
:1041600001C0FF0F8A95EAF78F2F0E944F230E940C
:104170007A23E80122C00E944F19FBCFCF0102969B
:10418000FE01C491CC2361F0EFE9FFE03197F1F734
:1041900000C00000C150F6CFCF010296FE01F4909E
:1041A000EC010BC00E943323E82E07C00E94462377
:1041B0000E947A2302C00E94DC188F2D882341F0D0
:1041C000EFE9FFE03197F1F700C000008150F6CF32
:1041D000FE017CCFDF91CF911F910F91FF90EF9067
:1041E000DF9008956093E3047093E4048093E50402
:1041F0009093E6040C94FE0708956093E70470938F
:10420000E8048093E9049093EA040C9409240F9342
:104210001F930091E7041091E8042091E904309184
:10422000EA04602B712B822B932B6093E70470932D
:10423000E8048093E9049093EA041F910F910C9491
:1042400009240F931F930091E7041091E804209133
:10425000E9043091EA04602371238223932360935D
:10426000E7047093E8048093E9049093EA041F91B3
:104270000F910C9409240F931F930091E704109160
:10428000E8042091E9043091EA046027712782272D
:1042900093276093E7047093E8048093E904909374
:1042A000EA041F910F910C94092460E070E0CB01A7
:1042B0000C94F2200F931F9341E050E060E070E017
:1042C0008A019B0104C0000F111F221F331F8A9512
:1042D000D2F7C901B8011F910F910C94F2200F93EE
:1042E0001F9341E050E060E070E004C0440F551FB0
:1042F000661F771F8A95D2F78091E3049091E404BA
:10430000A091E504B091E6048A019B01082B192BCA
:104310002A2B3B2BC901B8011F910F910C94F2205D
:104320000F931F9341E050E060E070E004C0440F41
:10433000551F661F771F8A95D2F740955095609557
:1043400070958091E3049091E404A091E504B0910C
:10435000E6048A019B01082319232A233B23C90170
:10436000B8011F910F910C94F2200F931F9341E01D
:1043700050E060E070E004C0440F551F661F771FD7
:104380008A95D2F78091E3049091E404A091E5042A
:10439000B091E6048A019B01082719272A273B27A9
:1043A000C901B8011F910F910C94F2200F931F9334
:1043B0000091E3041091E4042091E5043091E604B7
:1043C000602B712B822B932B1F910F910C94F22059
:1043D0000F931F930091E3041091E4042091E504EE
:1043E0003091E60460237123822393231F910F9160
:1043F0000C94F2200F931F930091E3041091E404B6
:104400002091E5043091E6046027712782279327E5
:104410001F910F910C94F22008958F929F92AF926A
:10442000BF92DF92EF92FF920F931F93CF93DF9390
:1044300000D000D01F92CDB7DEB76B837C838D8315
:104440008A018C819D81892B31F01F3F31F481E0FD
:104450004F3F19F403C081E001C080E080FF03C03A
:1044600080E090E04DC08B818823D1F18090E304FF
:104470009090E404A090E504B090E6048091E704F5
:104480009091E804A091E904B091EA04882A992A5D
:10449000AA2ABB2A8FE1E82EF12CD501C4010E2CEB
:1044A00004C0B695A795979587950A94D2F780FD95
:1044B00006C081E0E81AF10880F7D12C07C0DE2C95
:1044C000B8018E2D0E944425019799F380E1189F31
:1044D000F0011124ED59FB4FE00FF11DD08209C00E
:1044E00080E1189FF0011124ED59FB4FE00FF11D01
:1044F000D08009831A8369817A818D2D0E94442599
:104500000F900F900F900F900F90DF91CF911F9110
:104510000F91FF90EF90DF90BF90AF909F908F90A2
:10452000089590912501992379F19091260199237D
:1045300059F1982F9695969596959F31A1F0E09117
:104540002701F0912801E90FF11D877021E030E08B
:10455000A90102C0440F551F8A95E2F7CA01918153
:10456000892B818308959091100590FF29C01F9297
:104570008F9389E297E09F938F930E94F5070F90A6
:104580000F900F900F9008952091270130912801EE
:10459000F90132969FEF40E05191851789F09F3FD6
:1045A00019F4511101C0942F4F5F4E31A9F79F3F6D
:1045B00039F0F901E90FF11D97FDFA95828308950D
:1045C000089590912501992381F1909126019923D5
:1045D00061F1982F9695969596959F31A9F0E09167
:1045E0002701F0912801E90FF11D877021E030E0EB
:1045F000A90102C0440F551F8A95E2F7CA018095B0
:1046000091818923818308959091100590FF1CC0AA
:104610001F928F938BE097E09F938F930E94F507F3
:104620000F900F900F900F900895E0912701F09157
:1046300028019F01225E3F4F9281891301C012829F
:104640003196E217F307C1F7089581E090E0E09119
:104650002701F0912801E80FF91F1082019680329E
:104660009105A9F7089580910F05089590910F0580
:10467000892B80930F050895809590910F058923CC
:1046800080930F05089580930F05089510920F05EC
:10469000089590910E05892B80930E0508958095BD
:1046A00090910E05892380930E05089510920E05B2
:1046B00008958093ED040E9480249093EC048093ED
:1046C000EB0408951092ED041092EC041092EB04A8
:1046D00008958091270190912801FC0131969C0159
:1046E000205E3F4F80E0919191118F5FE217F307B9
:1046F000D1F70895E0912701F091280180910F05ED
:104700008083E0912701F0912801908180910E052E
:10471000892B80838091ED048823D9F10E94802425
:104720002091EB043091EC048217930748F00E942B
:1047300080242091EB043091EC04821B930B0AC07F
:104740000E9480242091EB043091EC042095309558
:10475000820F931F8C32914070F08091100580FF82
:1047600008C087E497E09F938F930E94F5070F900E
:104770000F900E946223E0912701F091280190811F
:104780008091ED04892B80830E94692381110E940E
:10479000622380912701909128010C94F416909344
:1047A000A7018093A60108958295982F937344E002
:1047B000949F900111248C7C86958695282B822FBE
:1047C0008575880F2A7A2695822B0895CF93DF93DB
:1047D000D92F0E94D423C82F8D2F0E94D4232C2F91
:1047E00030E0322F2227A901482BCA01DF91CF9157
:1047F00008950895CF93DF9300D000D01F92CDB7D6
:10480000DEB70F900F900F900F900F90DF91CF9128
:10481000089508950C945F1880912605843021F145
:104820001092110520E488E190E00FB6F894A89565
:10483000809360000FBE2093600083B7817F846007
:1048400083BF83B7816083BF7894889583B78E7F59
:1048500083BF0FB6F894A89580916000886180931B
:104860006000109260000FBE0895CF930E9434093B
:104870000E9433080E943509C0E08C2F0E9427094E
:10488000892B29F4CF5FC830C1F780E001C081E0F7
:10489000CF9108950E9461180C949E1C1F920F9254
:1048A0000FB60F9211248F939F93AF93BF93809174
:1048B0001105811113C08091120590911305A091EB
:1048C0001405B09115054196A11DB11D80931205E7
:1048D00090931305A0931405B0931505BF91AF9164
:1048E0009F918F910F900FBE0F901F90189582E0AF
:1048F00084BD93E095BD9AEF97BD80936E000895B7
:104900002FB7F8948091120590911305A09114058A
:10491000B09115052FBF08952FB7F8946091120537
:104920007091130580911405909115052FBF08957E
:10493000CF92DF92EF92FF920F931F932FB7F894CD
:104940004091120550911305609114057091150561
:104950002FBF6A017B01EE24FF248C0120E030E0B0
:10496000C016D106E206F30610F4415051099A012F
:10497000281B390BC9011F910F91FF90EF90DF9019
:10498000CF900895CF92DF92EF92FF920F931F93F3
:104990002FB7F894C0901205D0901305E09014053D
:1049A000F09015052FBF97018601061B170B280BEA
:1049B000390BC616D706E806F90618F0C901B80182
:1049C00006C0C901B80161507109810991091F919F
:1049D0000F91FF90EF90DF90CF9008951F920F926C
:1049E0000FB60F9211248F939F93AF93BF93809133
:1049F000120590911305A0911405B091150501962B
:104A0000A11DB11D8093120590931305A093140569
:104A1000B0931505BF91AF919F918F910F900FBEED
:104A20000F901F9018950E94F713F8942FEF87EAC4
:104A300091E6215080409040E1F700C0000087E0FF
:104A400090EBDC0180932F0590933005A093310506
:104A5000B09332059CE088E10FB6F894A895809356
:104A600060000FBE90936000FFCFE82FF0E080E180
:104A7000989FE00DF11D1124EE58FE4F9491892F5F
:104A80008F7092959F700895CF93C82FCB010E948D
:104A90003525E92F90E040E1E49F90011124282B77
:104AA000392B2038310519F480E090E014C0E7700C
:104AB000F0E028E0C29FE00DF11D112424E0EE0F8C
:104AC000FF1F2A95E1F7E80FF91FEE0FFF1FE050D7
:104AD000F84985919491CF91089580E090E00895F0
:104AE00008958091180580FF0BC060912C0185E02E
:104AF000689FB001112475956795759567952BC0D2
:104B000081FF09C060912C0185E0689FB0011124EC
:104B10007595679520C082FF07C060912C0185E0E4
:104B2000689FB001112417C0909119059923D1F005
:104B300060912B01961788F720912C0185E0289F22
:104B400090011124929FA001939F500D112470E0B9
:104B5000CA010E94392D6038710540F46115710554
:104B600019F406C065E070E0862F08958FE7089578
:104B700081E008958091180580FF08C060912A01A6
:104B800070E0759567957595679521C081FF06C0A2
:104B900060912A0170E07595679519C082FF04C085
:104BA00060912A0170E010C090911905992399F045
:104BB000609129019617A0F780912A01899FC00171
:104BC000112470E00E94392D6038710540F46115A0
:104BD000710519F406C061E070E0862F08958FE733
:104BE000089581E00895803F21F40E947125819508
:104BF00004C0813F29F40E94712580931C0508950B
:104C0000823F21F40E947125819504C0833F29F4DD
:104C10000E94712580931B050895893F19F40E9415
:104C2000BA2505C08A3F31F40E94BA258195809348
:104C30001D0508958B3F21F40E94BA25819504C07B
:104C40008C3F29F40E94BA2580931E050895843F65
:104C500021F480911A05816017C0853F21F480916D
:104C60001A05826011C0863F21F480911A05846084
:104C70000BC0873F21F480911A05886005C0883FEA
:104C800031F480911A05806180931A0508958D3F53
:104C900021F48091180581600BC08E3F21F4809132
:104CA0001805826005C08F3F29F480911805846043
:104CB000809318050895803F39F480911C0587FF83
:104CC0006CC010921C0569C0813F29F480911C05BD
:104CD0001816BCF362C090911B05823F29F497FF20
:104CE0005CC010921B0559C0833F19F41916CCF310
:104CF00054C0893F41F480911D0518160CF04DC039
:104D000010921D054AC08A3F29F480911D0587FF36
:104D100044C0F6CF8B3F39F480911E0587FF3DC01C
:104D200010921E053AC08C3F29F480911E0518167A
:104D3000BCF333C0843F21F480911A058E7F17C0E5
:104D4000853F21F480911A058D7F11C0863F21F4A3
:104D500080911A058B7F0BC0873F21F480911A0543
:104D6000877F05C0883F31F480911A058F7E80933C
:104D70001A0513C08D3F21F4809118058E7F0BC05A
:104D80008E3F21F4809118058D7F05C08F3F29F457
:104D9000809118058B7F8093180580911B058111E8
:104DA0000EC080911C0581110AC080911D058111E2
:104DB00006C080911E05811102C010921905089548
:104DC0008091100583FF7EC080E897E00E945C0719
:104DD00080911A051F928F938BE797E09F938F9393
:104DE0000E94F50789E797E00E945C0780911B0508
:104DF000282F082E000C330B3F938F9386E797E004
:104E00009F938F930E94F50784E797E00E945C07C9
:104E100080911C05282F082E000C330B3F938F9395
:104E200081E797E09F938F930E94F5078FE697E0C5
:104E30000E945C0780911D05282F082E000C330B63
:104E40003F938F938CE697E09F938F930E94F50793
:104E50008AE697E00E945C0780911E05282F082EA5
:104E6000000C330B3F938F9387E697E09F938F93CC
:104E70000E94F50784E697E00E945C07809119057F
:104E80001F928F9381E697E09F938F930E94F5077F
:104E90008FE597E00E945C07809118051F928F9321
:104EA0008CE597E09F938F930E94F50789E597E043
:104EB0000E945C078DB79EB74C960FB6F8949EBFC4
:104EC0000FBE8DBF8AE195E00E943D170E948024AD
:104ED000909317058093160508951F93CF93DF9342
:104EE00080911605909117050E949824AC0190912D
:104EF0001905992321F020912D0130E006C0209161
:104F00002E018AE0289F900111244217530708F4CC
:104F100085C080911B05C0911C05D0911D05109185
:104F20001E05811107C0C11175C0D11173C01111C7
:104F300071C074C09F3F19F09F5F909319051816B8
:104F400024F40E94712580931B0580911B0587FF27
:104F500005C00E947125819580931B051C1624F4C1
:104F60000E94712580931C0580911C0587FF05C058
:104F70000E947125819580931C0560911B05662315
:104F800031F1C0911C05CC2311F1062E000C770BDA
:104F9000880B990B0E94402C23E333E343E35FE348
:104FA0000E94A42C0E94082C60931B056C2FCC0F30
:104FB000770B880B990B0E94402C23E333E343E3E8
:104FC0005FE30E94A42C0E94082C60931C051D1610
:104FD00024F40E94BA2580931D0580911D0587FF4A
:104FE00005C00E94BA25819580931D05111624F4F1
:104FF0000E94BA2580931E0580911E0587FF05C07B
:105000000E94BA25819580931E05DF91CF911F9153
:105010000C94E0269F3F09F08FCFA0CFDF91CF9176
:105020001F910895EAE1F5E085E0DF011D928A9580
:10503000E9F71092190510921805089583EA99E08E
:105040000E945C071F9281E08F931F9285E08F93EF
:1050500085E599E09F938F930E94F5070F900F903D
:105060000F900F900F900F9008958330E9F128F47E
:10507000813061F0823009F10895853009F462C011
:1050800008F449C0863009F474C0089580912E0157
:10509000262F30E0280F311D2F3F310524F4680FF3
:1050A00060932E0103C08FEF80932E0180912E011B
:1050B0001F928F938EE898E072C080912D01262F69
:1050C00030E0280F311D2F3F310524F4680F609325
:1050D0002D0103C08FEF80932D0180912D011F9230
:1050E0008F938CE798E05BC080912C01262F30E0F5
:1050F000280F311D2F3F310524F4680F60932C01D8
:1051000003C08FEF80932C0180912C011F928F930D
:1051100089E698E044C080912B01262F30E0280FCB
:10512000311D2F3F310524F4680F60932B0103C01C
:105130008FEF80932B0180912B011F928F9384E539
:1051400098E02DC080912A01262F30E0280F311DD4
:105150002F3F310524F4680F60932A0103C08FEFBD
:1051600080932A0180912A011F928F938BE398E00C
:1051700016C080912901262F30E0280F311D2F3FC6
:10518000310524F4680F6093290103C08FEF8093E9
:105190002901809129011F928F9380E298E09F93CB
:1051A0008F930E94F5070F900F900F900F90089526
:1051B000833081F128F4813059F08230D1F00895A4
:1051C000853009F449C0B8F1863009F456C0089515
:1051D00080912E01681720F4861B80932E0102C057
:1051E00010922E0180912E011F928F9381E198E001
:1051F00054C080912D01681720F4861B80932D01E7
:1052000002C010922D0180912D011F928F938FEF7C
:1052100097E043C080912C01681720F4861B80938F
:105220002C0102C010922C0180912C011F928F93AF
:105230008CEE97E032C080912B01681720F4861B1A
:1052400080932B0102C010922B0180912B011F92A1
:105250008F9387ED97E021C080912A01681720F491
:10526000861B80932A0102C010922A0180912A0194
:105270001F928F938EEB97E010C0809129016817E1
:1052800020F4861B8093290102C01092290180918D
:1052900029011F928F9383EA97E09F938F930E9437
:1052A000F5070F900F900F900F900895CF93C82F90
:1052B0001F928F9388EA9AE09F938F930E94F5073D
:1052C00081E090E0A0E0B0E0BC01CD0104C0660F39
:1052D000771F881F991FCA95D2F70E94FD200F9053
:1052E0000F900F900F90CF910C949E1CCF9387320C
:1052F000A8F58E3108F02BC1803109F49FC0F8F475
:10530000873009F464C0A8F4863009F024C1809184
:105310001005817F8E7F809310058DEA9AE00E94B0
:105320005C078BE99DE00E945C0781E0809320058B
:105330004CC08B30F1F18E3009F46CC00CC1863159
:1053400009F4B0C020F4813109F4EDC004C1893101
:1053500009F491C08B3109F449C0FDC0883349F18B
:1053600050F4893209F4F1C0853309F4EEC0873274
:1053700009F0F1C0EAC0833409F4E7C028F48A33A5
:1053800008F4E9C08953E4C0883409F0E4C00E94FD
:105390009E1C8AE89DE00E945C072FEF83ED90E35E
:1053A000215080409040E1F700C000000E9413258A
:1053B0000CC084ED9AE05CC081E79DE00E945C0730
:1053C00080911005816080931005C1E0C9C0809173
:1053D0001005C82FC17080FFEFCF8DE79DE00E94C0
:1053E0005C0780911005817F8E7F3DC090911005F4
:1053F00091FBCC27C0F981E0C827892FC0FB81F938
:1054000080931005CC2319F084E69DE027C086E543
:105410009DE02EC09091100592FBCC27C0F981E051
:10542000C827892FC0FB82F980931005CC2319F07F
:1054300087E49DE013C087E39DE01AC090911005BA
:1054400093FBCC27C0F981E0C827892FC0FB83F9E3
:1054500080931005CC2351F08BE29DE00E945C0705
:10546000809110058160809310057AC08EE19DE0E7
:105470000E945C07AACF8FE09DE00E945C0786EE49
:105480009CE00E945C0784EA9CE00E945C0786E73F
:105490009CE00E945C078DE29CE00E945C0782E039
:1054A0009CE0E6CF84EF9BE00E945C070E94E81638
:1054B0001F928F938AED9BE09F938F930E94F50735
:1054C000809125011F928F9383EC9BE09F938F9394
:1054D0000E94F507809113041F928F9380EB9BE04D
:1054E0009F938F930E94F507809126011F928F93BF
:1054F0008DE99BE09F938F930E94F5070E948C2477
:105500009F938F937F936F9386E89BE09F938F93F6
:105510000E94F5078DB79EB746960FB6F8949EBFCA
:105520000FBE8DBF52CF0E949E1CC091260181E00C
:10553000C827C0932601CC2329F08CE79BE00E946A
:105540005C070EC081E79BE093CF80E001C08D51E6
:105550000E9456293ACF8FE69BE00E945C07C0E08C
:105560008C2FCF910895CF93C82F80912005813043
:1055700071F020F0823009F44BC042C1E091270164
:10558000F09128018081823209F03CC107C0E0918E
:105590002701F09128018081823261F48C2F0E94D2
:1055A000040C811104C08C2F0E9476292FC081E049
:1055B00090E02CC08C2F0E94B10D811126C0C43107
:1055C000E1F070F4CB3081F0C031D1F40E941E289C
:1055D00080EA9AE00E945C0782E08093200515C073
:1055E000C93259F0C83361F48DEA9AE00E945C0731
:1055F00084EA9AE00E945C0708C01092200504C16A
:105600008EE99AE00E945C07FFC081E08170FEC0D5
:10561000C43228F5CE3108F0C1C0CB30A1F1D0F4AE
:10562000C73009F0D3C08EE180932E0182E38093CE
:105630002D018AE080932C0184E180932B0188E086
:1056400080932A0188E28093290184E499E00E94F2
:105650005C07BFC0C33149F1C431C1F0B7C0CB341E
:1056600009F4A9C028F4C93289F0C83361F0AEC08A
:10567000C13509F49EC0C23509F499C0CE3409F091
:10568000A5C06AE09EC00E941E28A3C080911F058D
:10569000882319F010921F059CC081E599E00E94B3
:1056A0005C0781E080932005B1C08BE299E00E9405
:1056B0005C0789E199E00E945C0780912E011F92AE
:1056C0008F9386E199E09F938F930E94F50784E181
:1056D00099E00E945C0782E099E00E945C0780915B
:1056E0002D011F928F938FEF98E09F938F930E94CD
:1056F000F5078DEF98E00E945C078EEE98E00E941F
:105700005C0780912C011F928F938BEE98E09F9302
:105710008F930E94F50789EE98E00E945C0788ED60
:1057200098E00E945C0780912B011F928F9385ED7A
:1057300098E09F938F930E94F50783ED98E00E9475
:105740005C078EEB98E00E945C0780912A011F9213
:105750008F938BEB98E09F938F930E94F50789EBD3
:1057600098E00E945C0782EA98E00E945C078091C2
:1057700029011F928F938FE998E09F938F930E9446
:10578000F5078DE998E00E945C078DB79EB74896B3
:105790000FB6F8949EBF0FBE8DBF1BC0CE51EC2F2D
:1057A000F0E0E556FE4F808180931F0512C061E056
:1057B00003C061E006C06AE080911F050E943528A1
:1057C00008C080911F050E94D82803C082E499E098
:1057D00013C080911F05882369F01F928F938CE37B
:1057E00099E09F938F930E94F5070F900F900F9071
:1057F0000F9004C089E399E00E945C0781E006C035
:105800001092200580E002C080E000CFCF91089583
:105810000E940F2C6894B1110C949E2C08950E9444
:10582000832C88F09F5798F0B92F9927B751B0F083
:10583000E1F0660F771F881F991F1AF0BA95C9F714
:1058400014C0B13091F00E949D2CB1E008950C94E9
:105850009D2C672F782F8827B85F39F0B93FCCF39C
:10586000869577956795B395D9F73EF49095809591
:10587000709561957F4F8F4F9F4F0895E89409C0B1
:1058800097FB3EF490958095709561957F4F8F4F73
:105890009F4F9923A9F0F92F96E9BB279395F69589
:1058A000879577956795B795F111F8CFFAF4BB0F07
:1058B00011F460FF1BC06F5F7F4F8F4F9F4F16C06B
:1058C000882311F096E911C0772321F09EE8872FF5
:1058D000762F05C0662371F096E8862F70E060E0B1
:1058E0002AF09A95660F771F881FDAF7880F96952A
:1058F000879597F9089557FD9058440F551F59F013
:105900005F3F71F04795880F97FB991F61F09F3FAC
:1059100079F087950895121613061406551FF2CFD5
:105920004695F1DF08C0161617061806991FF1CF25
:1059300086957105610508940895E894BB2766274C
:105940007727CB0197F908950E94B72C0C94282D46
:105950000E941A2D38F00E94212D20F0952311F07D
:105960000C94112D0C94172D11240C949E2C0E9434
:105970007B2C70F3959FC1F3950F50E0551F629FEC
:10598000F001729FBB27F00DB11D639FAA27F00D98
:10599000B11DAA1F649F6627B00DA11D661F829FBF
:1059A0002227B00DA11D621F739FB00DA11D621FA4
:1059B000839FA00D611D221F749F3327A00D611DC1
:1059C000231F849F600D211D822F762F6A2F1124A3
:1059D0009F5750409AF0F1F088234AF0EE0FFF1FD6
:1059E000BB1F661F771F881F91505040A9F79E3F2D
:1059F000510580F00C94112D0C949E2C5F3FE4F324
:105A0000983ED4F3869577956795B795F795E79582
:105A10009F5FC1F7FE2B880F911D9695879597F98B
:105A2000089597F99F6780E870E060E008959FEF20
:105A300080EC089500240A94161617061806090625
:105A4000089500240A9412161306140605060895F4
:105A5000092E0394000C11F4882352F0BB0F40F47C
:105A6000BF2B11F460FF04C06F5F7F4F8F4F9F4FBC
:105A7000089597FB072E16F4009407D077FD09D000
:105A80000E94752D07FC05D03EF4909581959F4F9F
:105A90000895709561957F4F0895A1E21A2EAA1B73
:105AA000BB1BFD010DC0AA1FBB1FEE1FFF1FA217CE
:105AB000B307E407F50720F0A21BB30BE40BF50BCB
:105AC000661F771F881F991F1A9469F76095709554
:105AD000809590959B01AC01BD01CF010895EE0F1B
