:100000000C9462050C94A9050C94A9050C94A905FF
:100010000C94A9050C94A9050C94A9050C94A905A8
:100020000C94A9050C94A9050C94690F0C943B1031
:100030000C94321F0C94A9050C94A9050C94A905E5
:100040000C94A9050C94A9050C94A9050C94A90578
:100050000C94A9050C94A61F0C94A9050C94A90551
:100060000C94A9050C94A9050C94A9050C94A90558
:100070000C94A9050C94A9050C94A9050C94A90548
:100080000C94A9050C94A9050C94A9050C94A90538
:100090000C94A9050C94A9050C94A9050C94A90528
:1000A0000C94A9050C94A9050C94A905A810CA10D4
:1000B000B811CA10B8110F113211B81187119A1165
:1000C0006715671596159615F41532164C184C18C9
:1000D0004B164C184C174C1720184C184C18371846
:1000E000041607090B0A1D1B06196405141A0815C6
:1000F0001C171E1F202123222E26242D25273012D7
:10010000182F0C13280F0D340E33313638111037D9
:100110002B2C352A5829787B79397A504F515272D5
:100120006C63685680668053020103555880576D92
:100130006E5462595A5B5C5D5E5F6F606174756698
:100140003E3F403C4142774476466B47804365459D
:100150008048494A4B4C3D4D3B4E3A7D7E7C7F73F7
:100160006164625F686F73745F6B62645F72656322
:10017000763A204552524F52282564290A000A0037
:1001800025303458006164625F686F73745F6B621E
:10019000645F726563763A20004552524F523A20AE
:1001A0006D65646961206B6579300A004552524F74
:1001B000523A206D65646961206B6579310A005D92
:1001C0000A0025640020002564007C002530325898
:1001D00000200025303258006164625F6D6F7573D6
:1001E00065207261773A205B000A00253031366263
:1001F000006164625F686F73745F6D6F7573655FD4
:10020000726563763A2000646562756720656E6189
:10021000626C65642E0A005363616E3A2061646407
:10022000723A25642C20726567333A253034580AB7
:1002300000416674657220696E69743A0A00466FFF
:10024000756E643A206D65646961206B6579730A27
:10025000005363616E3A20616464723A25642C2015
:10026000726567333A253034580A004265666F720A
:100270006520696E69743A0A004B6579626F617234
:10028000642073746172742E0A0055534220636FA8
:100290006E666967757265642E0A000D0A696E697B
:1002A000740A005B445D005B435D002E0341004423
:1002B00000420020006B006500790062006F006161
:1002C0000072006400200063006F006E007600651D
:1002D00000720074006500720000000E0374002EAE
:1002E000006D002E006B002E0000000403090409BD
:1002F000027400040100A03209040000010301019E
:1003000000092111010001224000070581030800B6
:100310000A09040100010301020009211101000181
:10032000224D000705820308000A090402000103A8
:100330000000000921110100012236000705830396
:1003400008000A090403000203000000092111014A
:100350000001222200070584032000010705040391
:100360002000011201100100000008EDFEDB0A016F
:1003700001010200010631FF0974A1010975150090
:1003800026FF009520750881020976150026FF00DA
:10039000952075089102C005010980A1018502160A
:1003A000810026B7001A81002AB7007510950181D7
:1003B00000C0050C0901A1018503160100269C025D
:1003C0001A01002A9C02751095018100C0050109DF
:1003D00002A1010901A1000509190129051500253E
:1003E00001950575018102950175038101050109DA
:1003F0003009311581257F95027508810609381568
:1004000081257F950175088106050C0A3802158142
:10041000257F950175088106C0C005010906A10167
:10042000050719E029E715002501950875018102E6
:1004300095017508810105081901290595057501C2
:1004400091029501750391010507190029FF150017
:1004500026FF00950675088100C0636F6E73756D89
:1004600065723A20253034580A0073797374656DCB
:100470003A20253034580A000A002530325820002E
:100480006B6579626F6172643A20004C45443A2092
:10049000253032580A00253032583A20253038624B
:1004A00025730A00722F63203031323334353637EA
:1004B0000A00290A002575002F002575005D280017
:1004C000256400200025640020002564002000250C
:1004D00064007C0025303258006D6F7573656B6564
:1004E00079205B62746E7C782079207620685D28A4
:1004F0007265702F61636C293A205B006D6B5F77CA
:100500006865656C5F74696D655F746F5F6D617858
:10051000203D2025640A006D6B5F776865656C5F20
:100520006D61785F7370656564203D2025640A0005
:100530006D6B5F74696D655F746F5F6D6178203D91
:100540002025640A006D6B5F6D61785F737065656F
:1005500064203D2025640A006D6B5F696E746572CE
:1005600076616C203D2025640A006D6B5F64656CCC
:100570006179203D2025640A006D6B5F77686565B1
:100580006C5F74696D655F746F5F6D6178203D208D
:1005900025640A006D6B5F776865656C5F6D6178D7
:1005A0005F7370656564203D2025640A006D6B5F94
:1005B00074696D655F746F5F6D6178203D2025649F
:1005C0000A006D6B5F6D61785F7370656564203DD7
:1005D0002025640A006D6B5F696E74657276616CCC
:1005E000203D2025640A006D6B5F64656C61792095
:1005F0003D2025640A000A00257500363A207768F8
:1006000065656C5F74696D655F746F5F6D61783A85
:1006100020000A00257500353A20776865656C5F13
:100620006D61785F73706565643A20000A00257516
:1006300000343A2074696D655F746F5F6D61783A5C
:1006400020000A00257500333A206D61785F7370D1
:100650006565643A20000A00257500323A20696E0B
:1006600074657276616C286D73293A20000A002542
:100670007500313A2064656C6179282A31306D73D8
:10068000293A20000A092D2056616C756573202DCA
:100690000A004D3E004D25643E20003F0073657406
:1006A0002064656661756C740A00433E20007768BB
:1006B0006572652064656C74613A20637572736F4E
:1006C000723D25642C20776865656C3D25640A536E
:1006D000656520687474703A2F2F656E2E77696B8C
:1006E0006970656469612E6F72672F77696B692F16
:1006F0004D6F7573655F6B6579730A000A092D206C
:100700004D6F7573656B6579202D0A4553432F71C5
:100710003A09717569740A313A0964656C6179281E
:100720002A31306D73290A323A09696E746572761E
:10073000616C286D73290A333A096D61785F7370B3
:100740006565640A343A0974696D655F746F5F6D3D
:1007500061780A353A09776865656C5F6D61785F25
:1007600073706565640A363A09776865656C5F740D
:10077000696D655F746F5F6D61780A0A703A097020
:1007800072696E742076616C7565730A643A0973D8
:1007900065742064656661756C74730A75703A09D6
:1007A0002B310A646F776E3A092D310A70677570C4
:1007B0003A092B31300A7067646F776E3A092D3130
:1007C000300A0A7370656564203D2064656C74614D
:1007D000202A206D61785F7370656564202A202867
:1007E000726570656174202F2074696D655F746F28
:1007F0005F6D6178290A003F004D3E2000433E2096
:10080000004C25640A000A092D20436F6E736F6C3B
:1008100065202D0A4553432F713A09717569740A91
:100820006D3A096D6F7573656B65790A000A092D5C
:10083000204D61676963202D0A643A096465627519
:10084000670A783A096465627567206D6174726938
:10085000780A6B3A096465627567206B6579626F27
:100860006172640A6D3A096465627567206D6F751F
:1008700073650A763A0976657273696F6E0A733A20
:10088000097374617475730A633A09636F6E736FE9
:100890006C65206D6F64650A302D343A096C61799E
:1008A0006572302D34284631302D4634290A506186
:1008B00075733A09626F6F746C6F616465720A00D8
:1008C0003F0074696D65725F726561643332282917
:1008D0003A202530346C580A006B6579626F61727A
:1008E000645F69646C653A2025580A006B6579621B
:1008F0006F6172645F70726F746F636F6C3A202502
:10090000580A00686F73745F6B6579626F61726417
:100910005F6C65647328293A2025580A000A092D5E
:1009200020537461747573202D0A004743433A20A5
:10093000342E392E32204156522D4C4942433A2012
:10094000312E382E3073766E204156525F4152431D
:10095000483A20617672350A004F5054494F4E5341
:100960003A204C554641204D4F5553454B45592053
:1009700045585452414B455920434F4E534F4C45D7
:1009800020434F4D4D414E44204B45594D41505F02
:1009900053454354494F4E20343039360A004255AE
:1009A000494C443A20643030643765382D646972AC
:1009B0007479202831303A31363A3535204A616E23
:1009C0002031392032303138290A005649443A2042
:1009D00030784645454428742E6D2E6B2E292050C4
:1009E00049443A2030783041444228414442206B07
:1009F0006579626F61726420636F6E76657274658B
:100A00007229205645523A203078303130310A0070
:100A1000444553433A20636F6E76657274204144B7
:100A200042206B6579626F61726420746F20555348
:100A3000420A000A092D2056657273696F6E202DD7
:100A40000A000A6D6F7573653A206F66660A000AC0
:100A50006D6F7573653A206F6E0A000A6B65796277
:100A60006F6172643A206F66660A000A6B6579628C
:100A70006F6172643A206F6E0A000A6D6174726968
:100A8000783A206F66660A000A6D61747269783A76
:100A9000206F6E0A000A64656275673A206F6E0AFD
:100AA000000A64656275673A206F66660A000A0A82
:100AB000626F6F746C6F616465722E2E2E2000431E
:100AC0003E20000011241FBECFEFDAE0DEBFCDBF15
:100AD00004B603FE27C08091600290916102A0914C
:100AE0006202B09163028730904BA740B04BD1F4C3
:100AF00010926002109261021092620210926302E0
:100B000014BE84B7877F84BF0FB6F894A8958091F0
:100B10006000886180936000109260000FBEE0E08A
:100B2000F8E3099511E0A0E0B1E0EEE1F0E502C0E4
:100B300005900D92A433B107D9F722E0A4E3B1E008
:100B400001C01D92A036B207E1F70E94970C0C94E9
:100B50000D280C940000FF93EF93E0913401F09185
:100B60003501309709F00995EF91FF910895FC0147
:100B70008591803011F0EFDFFBCF0895FF27E0E291
:100B800030E247FF0CC0419597FF09C0EDE2609548
:100B9000709580959095611D711D811D911D27FF98
:100BA00002C0219530E350E2AA27660F771F881F05
:100BB000991FAA1FA41710F0A41B63955A95A9F7B3
:100BC000AA3008F0A95FA05DAF93F3956115710598
:100BD0008105910541F7ED3211F4EF93F395F2178A
:100BE00018F43F93F395FBCF8F91B5DFFA95E1F7BA
:100BF0000895E991F9918591803021F0853219F0BD
:100C0000AADFF9CF089520E0E89455915532C1F359
:100C1000503311F4689455915A3348F4505390F37B
:100C2000220F022E220F220F200D250FF4CF0EF4DB
:100C3000219589919991533619F3533729F15335F9
:100C400059F1BC0188279927E8945C3621F48991F1
:100C5000999168945591543639F446EF7EF077FFB8
:100C60000DC08FEF9FEF0AC055374AE039F0583575
:100C700040E121F0523642E009F00895FF93EF93EE
:100C80007DDFEF91FF91B7CFFF93EF93FC0181914F
:100C90008030B9F360DFFBCFFF93EF9368DFF1CFD4
:100CA000DF93CF93CDB7DEB72596A3DFCF91DF914A
:100CB0000895282F2770E82FE695E695E695EF70C2
:100CC000F0E0E05CFE4F87FF0AC081E090E001C0E9
:100CD000880F2A95EAF780959081892308C081E0E2
:100CE00090E001C0880F2A95EAF79081892B8083D4
:100CF00008950F931F93CF93DF93569A5E9A0E94A5
:100D000076092FEF87EA91E6215080409040E1F785
:100D100000C000008BE692E09F938F930E945006E4
:100D20000F900F90C1E0D0E001E512E063E08C2F5E
:100D30000E947A09009771F09F938F93DF93CF936E
:100D40001F930F930E9450060F900F900F900F90DB
:100D50000F900F909FEF29EF80E09150204080404E
:100D6000E1F700C000002196C031D105F9F663E03B
:100D700082E00E947A0999278131910511F174F47A
:100D800087309105F1F024F404970297F0F419C02C
:100D900089309105B1F00D97C1F413C08D319105E3
:100DA00081F034F48431910561F0499771F409C000
:100DB000843C910531F0873C910519F0813C910507
:100DC00021F481E08093500102C01092500163E051
:100DD00087E00E947A0991E0823009F090E09093D8
:100DE0005101992341F08EE392E09F938F930E94EB
:100DF00050060F900F9023E042E063E082E00E94F3
:100E0000FA0981E392E09F938F930E9450060F901E
:100E10000F90C1E0D0E007E112E063E08C2F0E9468
:100E20007A09009771F09F938F93DF93CF931F936D
:100E30000F930E9450060F900F900F900F900F90FD
:100E40000F908FEF99EF20E0815090402040E1F724
:100E500000C000002196C031D105F9F6E0E4F1E0D0
:100E600080E18E0F11928E13FDCF0E94D5110E944A
:100E70001D098091420281608093420287E092E0E6
:100E80000E94B705569A5E98DF91CF911F910F91FE
:100E90000895CF93DF938091390190913A010E9498
:100EA0007C1F0C9708F4D2C00E94641F90933A01F3
:100EB000809339010E94F609EC01009711F481E05A
:100EC000C3C097FD05C080913B01816080933B01C9
:100ED000D7FF05C080913B018E7F80933B012D2F72
:100EE00033272F733327BE016F737727C6FF02C0E6
:100EF00060547109D6FF02C0205431094091380175
:100F0000042E000C550B649FC001659F900D749FCB
:100F1000900D112481386FEF960714F481E89FEF4C
:100F200091958195910981386FEF960714F481E8C6
:100F30009FEF819580933C01249FC001259F900DD8
:100F4000349F900D112481382FEF920714F481E81B
:100F50009FEF91958195910981386FEF960714F471
:100F600081E89FEF819580933D018091420283FF4C
:100F700060C081EF91E00E94B705DF93CF938BEEC5
:100F800091E09F938F930E94500689EE91E00E941A
:100F9000B70588ED91E00E94B70580913801282FB0
:100FA000082E000C330B3F938F9383ED91E09F93BA
:100FB0008F930E94500681ED91E00E94B7058091C9
:100FC0003B011F928F938CEC91E09F938F930E9433
:100FD00050068AEC91E00E94B70580913C01282FD1
:100FE000082E000C330B3F938F9387EC91E09F9377
:100FF0008F930E94500685EC91E00E94B705809186
:101000003D01282F082E000C330B3F938F9382EC69
:1010100091E09F938F930E9450068FEB91E00E9486
:10102000B7058DB79EB744960FB6F8949EBF0FBE16
:101030008DBF8BE391E00E942A128091380191E0EC
:1010400088300CF090E0890F80933801DF91CF91C8
:1010500008951F93CF93DF93C0910001D0910101B8
:101060008FEF9FEF9093010180930001CF3F8FEFAF
:10107000D80709F074C080913601909137010E9421
:101080007C1F0C9710F480E0CEC00E94641F9093E8
:1010900037018093360182E00E94F309EC01892B2D
:1010A00009F05DC080915101882309F458C087E0A0
:1010B0000E94F309009709F452C09C012F7733274F
:1010C00022303105A1F048F42115310569F02130B5
:1010D000310599F480788A641AC02330310551F0C3
:1010E0002F373105A1F009C08078826410C0807864
:1010F00089640DC0807888640AC08CEA91E09F936F
:101100008F930E9450060F900F9081E18CC0292F81
:1011100033272F7733272130310579F050F02230F3
:10112000310579F02330310581F4EC01D078D864B1
:1011300016C0EC01D078D26412C0EC01D078DA6429
:101140000EC0EC01D078D9640AC089E991E09F9380
:101150008F930E9450060F900F9080E164C08091A1
:10116000420281FF18C0209709F48DCF85E891E0F5
:101170000E94B705DF93CF9380E891E09F938F9310
:101180000E9450068EE791E00E94B7050F900F90E5
:101190000F900F9003C0209709F475CFCF378FE7DA
:1011A000D80711F48FE705C0CF3F8FEFD80721F4A0
:1011B0008FEF0E94590636C02D2F3327822F1C2F08
:1011C0002F3F310581F4DF93CF9380E691E09F9329
:1011D0008F930E9450060E9479060F900F900F90F7
:1011E0000F908C2F20C090915001992381F0A9017C
:1011F0004F7755274233510521F42078822F8A609A
:1012000006C04A30510519F42078822F82630E946B
:1012100059061F3F39F0DC2FCC27CF6FD093010147
:10122000C093000181E0DF91CF911F910895E82FD5
:10123000F0E0E05CFE4F80810895682F609582E0C9
:101240000C94340A509A83E091E00197F1F700C0C2
:10125000000050989AEB9A95F1F700C00895509AC3
:101260008AEB8A95F1F700C0509883E091E00197EE
:10127000F1F700C000000895EF92FF920F931F93C3
:10128000CF93DF93C0E0D0E090E8E92EF12C082F57
:1012900010E0C7010C2E02C0959587950A94E2F7DD
:1012A00080239123892B19F00E942F0902C00E94EC
:1012B00022092196C830D10561F7DF91CF911F91A6
:1012C0000F91FF90EF900895489B06C023E02A9568
:1012D000F1F700000197C1F70895489906C023E08F
:1012E0002A95F1F700000197C1F708955898509892
:1012F00008950895CF92DF92EF92FF920F931F937C
:10130000CF93DF931F92CDB7DEB7182FF894509A82
:1013100083EF9BE00197F1F700C0000069830E9412
:101320002F0969816C6020E1129FC0011124862B76
:101330000E943C090E94220984EF91E00E946D09FD
:10134000892B21F4789482EE9FEF43C084EF91E0E3
:101350000E946409009711F478943BC011E1C12CFC
:10136000D12C02E882E890E00E946D097C0188237C
:1013700051F199270E946409882329F1CC0CDD1CC6
:10138000902F9E19E81A9E1518F46894C0F806C0AC
:10139000113121F478948CEE9FEF1BC0115011F79E
:1013A0008FE591E00E946D09892B21F478948BEEF2
:1013B0009FEF0FC08BE590E00E946409892BB1F785
:1013C0007894C60106C07894812F90E0919581951C
:1013D00091090F90DF91CF911F910F91FF90EF90A6
:1013E000DF90CF90089560E00C947A0960E083E08C
:1013F0000C947A091F93CF93DF9300D01F92CDB73F
:10140000DEB7182FF894509A83EF9BE00197F1F71D
:1014100000C000002B834A8369830E942F096981E1
:10142000686030E1139FC0011124862B0E943C09A3
:101430000E9422098FE193E00197F1F700C00000BC
:101440000E942F094A81842F0E943C092B81822F00
:101450000E943C090E94220978940F900F900F90EF
:10146000DF91CF911F910895262F277040E062E011
:101470000C94FA0980915E0108959FB7F894109238
:1014800055019FBF90915702943009F057C0909139
:10149000E9009F703091EC00232F217030FD20E88F
:1014A000922B24E02093E9002091EB0020FF43C021
:1014B0002091EE0027FF3FC020915201222321F00E
:1014C0002091E80025FF37C01092520126E03091AC
:1014D000E80035FD15C030915702343061F5309188
:1014E000EB0035FD28C0215021F481E080935201AA
:1014F00022C0EFE9FFE03197F1F700C00000E7CF2D
:101500008093F1008091E80085FD0AC08091E80099
:1015100080FFFCCF8091E8008E778093E80006C0C2
:101520008FB7F89421E0209355018FBF9F7090935F
:10153000E90080E008959F709093E9008FEF08958F
:10154000CF93DF9300D01F92CDB7DEB79C0180917F
:101550005702843019F593E099833B832A83909353
:10156000E9008FEF9091E800815095FD06C095ED60
:101570009A95F1F700008111F5CF8091E80085FF81
:101580000DC040E050E063E070E0CE0101960E94A3
:10159000590D8091E8008E778093E8000F900F90AE
:1015A0000F90DF91CF910895CF93DF9300D01F92DA
:1015B000CDB7DEB720915702243021F522E02983F0
:1015C0009B838A8383E08093E9008FEF9091E8000A
:1015D000815095FD06C095ED9A95F1F700008111B7
:1015E000F5CF8091E80085FF0DC040E050E063E05A
:1015F00070E0CE0101960E94590D8091E8008E772F
:101600008093E8000F900F900F90DF91CF91089595
:10161000209157022430F1F422E02093E9002FEFCB
:101620003091E800215035FD06C035ED3A95F1F7CF
:1016300000002111F5CF2091E80025FF0BC040E00C
:1016400050E065E070E00E94590D8091E8008E77CF
:101650008093E8000895CF93DF93209157022430C0
:1016600039F521E02093E9002FEF3091E800215077
:1016700035FD06C035ED3A95F1F700002111F5CFA3
:101680002091E80025FF14C0EC0140E050E068E044
:1016900070E00E94590D8091E8008E778093E800F9
:1016A00088E0FE01A6E5B1E001900D928A95E1F790
:1016B000DF91CF91089587EA92E00E94B70580916B
:1016C0005602811109C00E94EE0E0E944B0F8091BC
:1016D000E20084608093E200089583EA92E00E9431
:1016E000B7051092560208950895209153012F5F77
:1016F000822F62E30E94D327992319F0209353018C
:1017000008951092530180915501882371F18091C1
:101710005702843041F58091E9008F702091EC00F0
:10172000922F917020FD90E8892B94E09093E9002E
:101730009091EB0090FF14C09091EE0097FF10C0C5
:101740009091E80095FF03C01092F100F9CF9091BD
:10175000E80090FF05C09091E8009E779093E80024
:101760008F708093E90010925501089542E061EC7A
:1017700081E00E94680E42E061EC82E00E94680E07
:1017800042E061EC83E00E94680E42E261EC84E09A
:101790000C94680E80915902833009F453C030F4E0
:1017A000813071F0823009F48CC008958A3009F4D8
:1017B00078C08B3009F45EC0893009F09AC020C02F
:1017C00080915802813A09F094C08091E800877FA7
:1017D0008093E80080915C0290915D02892B21F456
:1017E00068E086E591E003C060E080E090E070E0B2
:1017F0000E94A40D8091E8008B778093E800089503
:1018000080915802813209F074C080915C029091FD
:101810005D02892B09F06DC08091E800877F80937D
:10182000E8008091E80082FD05C080915702811197
:10183000F8CF5FC08091F10080935E018091E80055
:101840008B7753C080915802813A09F052C0809141
:101850005C0290915D02892B09F04BC08091E800F9
:10186000877F8093E8008091E80080FFFCCF809123
:101870000C0136C0809158028132D9F580915C020A
:1018800090915D02892BA9F58091E800877F809374
:10189000E8000E949D0E80915A0280930C010C94E6
:1018A0006E1880915802813221F58091E800877F7F
:1018B0008093E8000E949D0E80915B0280935F01FF
:1018C000089580915802813AA1F48091E800877FC1
:1018D0008093E8008091E80080FFFCCF80915F0159
:1018E0008093F1008091E8008E778093E8000C945B
:1018F0009D0E08950895089580915E01809354018E
:1019000010925E0180E00E941D090E9468130C94F1
:101910006E180C947C0C0E94F11E80915502882355
:1019200029F00E941A1F81110C94430D089584B769
:10193000877F84BF0FB6F894A89580916000886176
:1019400080936000109260000FBE90E080E80FB6B8
:10195000F89480936100909361000FBE8DE39AE04C
:101960000E94C21E8BE992E00E94B7050E947A0C89
:101970000E9491120E94EE0E0E944B0F8091E20095
:1019800084608093E2007894809157028430E1F77C
:101990008AE892E00E94B7050E94931282E091E0EB
:1019A0000E94D01189E792E00E94B7050E947B0C4B
:1019B00080915702853019F40E948B0CF9CF0E9458
:1019C0009912F6CF0E942E1F8091540180935E01E0
:1019D00008950C94E20C292F332723303105C9F0E8
:1019E00064F42130310581F02230310509F043C023
:1019F00084E790E02FEE32E042C021323105F1F071
:101A00002232310541F137C082E190E023E633E034
:101A100036C099278130910541F08230910541F01F
:101A2000892B49F5EBEEF2E005C0EBEDF2E002C0E8
:101A3000EBEAF2E0849190E09F0121C06430D8F499
:101A4000E62FF0E0EE0FFF1FEF5DFE4F20813181AA
:101A500089E090E014C0643070F470E0FB01EE0F98
:101A6000FF1FE75EFE4F20813181FB01EB5EFE4FE1
:101A7000808190E004C080E090E020E030E0FA0156
:101A800031832083089580E189BD82E189BD09B455
:101A900000FEFDCF8091D8008F7D8093D80080918B
:101AA000E00082608093E0008091E00081FDFCCF47
:101AB0000895CF92DF92EF92FF920F931F93CF93EF
:101AC000DF93EC018B016A010E94BC0E811133C0CF
:101AD000C114D10439F0F60180819181081B190BE2
:101AE000C80FD91FE12CF12C0115110519F18091B6
:101AF000E80085FD16C08091E8008E778093E800AD
:101B0000C114D10449F0F60180819181E80EF91EDB
:101B1000F182E08285E00FC00E94BC0E882321F391
:101B20000AC089918093F10001501109FFEFEF1A6B
:101B3000FF0ADACF80E0DF91CF911F910F91FF90E4
:101B4000EF90DF90CF90089520915E0230915F0278
:101B50002617370748F06115710539F42091E80020
:101B60002E772093E80001C0B90140E061157105AE
:101B7000A9F120915702222309F443C0253009F42A
:101B800042C02091E80023FD40C02091E80022FDE2
:101B900032C02091E80020FFE9CF4091F30020916E
:101BA000F20030E0342BFC01CF016115710559F0D2
:101BB0002830310540F481918093F1006150710922
:101BC0002F5F3F4FF1CF41E02830310509F040E071
:101BD0002091E8002E772093E800C8CF4111C9CFAB
:101BE0000AC080915702882361F0853061F08091AE
:101BF000E80083FD0AC08091E80082FFF2CF80E018
:101C0000089582E0089583E0089581E00895209189
:101C10005E0230915F022617370748F061157105A3
:101C200039F42091E8002E772093E80001C0B90133
:101C3000FC0120E06115710591F180915702882324
:101C400009F440C0853009F43FC08091E80083FD6D
:101C50003DC08091E80082FD2FC08091E80080FFA8
:101C6000E9CF2091F3008091F20090E0922B611572
:101C7000710559F08830910540F424912093F100CA
:101C80003196615071090196F2CF21E0089709F071
:101C900020E08091E8008E778093E800CBCF21117F
:101CA000CCCF0AC080915702882361F0853061F063
:101CB0008091E80083FD0AC08091E80082FFF2CFA6
:101CC00080E0089582E0089583E0089581E008951A
:101CD000982F973058F59093E900981739F0709144
:101CE000EC002091ED005091F00003C0242F762FDE
:101CF00050E021FF19C03091EB003E7F3093EB00A4
:101D00003091ED003D7F3093ED003091EB0031607C
:101D10003093EB007093EC002093ED005093F000B3
:101D20002091EE0027FF07C09F5FD3CF8F70809375
:101D3000E90081E0089580E008958091580287FFCE
:101D400011C08091E80082FD05C080915702811189
:101D5000F8CF11C08091E8008B770BC080915702BB
:101D6000882349F08091E80080FFF8CF8091E80057
:101D70008E778093E80008952091E4003091E5008B
:101D800095E64091EC00842F817040FF22C0809145
:101D9000E80080FD1CC080915702882391F08530B7
:101DA00091F08091EB0085FD10C04091E4005091CE
:101DB000E5004217530729F39A01915011F784E087
:101DC000089582E0089583E0089581E0089580E019
:101DD00008954091E80042FFDECF08950E945C0F15
:101DE0000E94640FE0EEF0E0808181608083E8ED86
:101DF000F0E080818F77808319BCA7EDB0E08C91F3
:101E00008E7F8C9380818F7E8083109256020895FE
:101E10000F931F93CF93DF930E945C0F0E94640F78
:101E2000C8EDD0E088818F77888388818068888337
:101E300088818F7D888319BC1092570210925302BB
:101E4000109255021092540200EE10E0F8018081C9
:101E50008B7F808388818160888342E060E080E0BE
:101E60000E94680EE1EEF0E080818E7F8083E2EEDA
:101E7000F0E0808181608083808188608083F801C8
:101E800080818E7F8083888180618883DF91CF917C
:101E90001F910F910895E8EDF0E080818F7E80839F
:101EA000E7EDF0E080818160808384E082BF81E0A3
:101EB000809356020C94080FE8EDF0E080818E7F4D
:101EC00080831092E20008951092DA001092E100EF
:101ED00008951F920F920FB60F9211242F933F93E4
:101EE0004F935F936F937F938F939F93AF93BF9322
:101EF000EF93FF938091E10082FF0BC08091E2009D
:101F000082FF07C08091E1008B7F8093E1000E94F7
:101F1000750B8091DA0080FF1FC08091D80080FF90
:101F20001BC08091DA008E7F8093DA008091D90007
:101F300080FF0DC080E189BD82E189BD09B400FE4A
:101F4000FDCF81E0809357020E945B0B05C019BC56
:101F5000109257020E946D0B8091E10080FF19C022
:101F60008091E20080FF15C08091E2008E7F809317
:101F7000E2008091E20080618093E2008091D800CD
:101F800080628093D80019BC85E0809357020E943C
:101F9000890C8091E10084FF30C08091E20084FFD1
:101FA0002CC080E189BD82E189BD09B400FEFDCF6E
:101FB0008091D8008F7D8093D8008091E1008F7E42
:101FC0008093E1008091E2008F7E8093E200809117
:101FD000E20081608093E20080915302882311F037
:101FE00084E007C08091E30087FD02C081E001C06A
:101FF00083E0809357020E94E90C8091E10083FF07
:1020000029C08091E20083FF25C08091E100877F95
:102010008093E10082E080935702109253028091F6
:10202000E1008E7F8093E1008091E2008E7F8093BB
:10203000E2008091E20080618093E20042E060E093
:1020400080E00E94680E8091F00088608093F0002C
:102050000E94740BFF91EF91BF91AF919F918F916F
:102060007F916F915F914F913F912F910F900FBE94
:102070000F901F9018951F920F920FB60F92112478
:102080002F933F934F935F936F937F938F939F9380
:10209000AF93BF93CF93DF93EF93FF93C091E9008A
:1020A000CF708091EC00D82FD17080FDD0E81092D5
:1020B000E9008091F000877F8093F00078940E947F
:1020C0007F101092E9008091F00088608093F0000A
:1020D000CD2BCF70C093E900FF91EF91DF91CF91AD
:1020E000BF91AF919F918F917F916F915F914F9130
:1020F0003F912F910F900FBE0F901F9018951F9337
:10210000CF93DF93CDB7DEB7AA970FB6F894DEBFB3
:102110000FBECDBFE8E5F2E088E08E0F9091F100B0
:1021200091938E13FBCF0E94CA0B8091E80083FF2E
:102130001FC18091580290915902492F50E04A30B6
:10214000510508F015C1FA01EA5AFF4F0C94F32724
:10215000803881F0823809F00BC180915C028F7069
:102160008093E9008091EB0085FB882780F910922D
:10217000E90006C08091540290915502911182604D
:102180009091E800977F9093E8008093F10010927F
:10219000F100C8C0282F2D7F09F0EAC0882319F06C
:1021A000823061F0E5C080915A02813009F0E0C0D0
:1021B000933009F080E0809355022BC080915A0241
:1021C000811127C080915C028F7009F4D1C0809387
:1021D000E9002091EB0020FF1CC0933021F4809196
:1021E000EB00806214C09091EB0090619093EB0043
:1021F00021E030E0A90102C0440F551F8A95E2F7A3
:102200004093EA001092EA008091EB00886080938E
:10221000EB001092E9008091E800877F86C0811171
:10222000A7C010915A021F778091E3008078812B1C
:102230008093E3008091E800877F8093E8000E940C
:102240009D0E8091E80080FFFCCF8091E3008068C4
:102250008093E300111102C082E001C083E080930B
:10226000570286C08058823008F082C080915A029E
:1022700090915B028C3D53E0950779F583E08A836A
:102280008AE289834FB7F894DE01139620E03EE09E
:1022900051E2E32FF0E050935700E49120FF03C098
:1022A000E295EF703F5FEF708E2F90E0EA3010F014
:1022B000C79601C0C0968D939D932F5F243149F737
:1022C0004FBF8091E800877F8093E8006AE270E06A
:1022D000CE0101960E94A40D14C0AE014F5F5F4F66
:1022E00060915C020E94EB0CBC01892B09F440C098
:1022F0009091E800977F9093E80089819A810E94ED
:10230000070E8091E8008B778093E80031C0803819
:1023100079F58091E800877F8093E80080915302EF
:102320008093F1008091E8008E778093E8000E940E
:102330009D0E1EC081111CC090915A029230C0F4B3
:102340008091E800877F8093E800909353020E9479
:102350009D0E80915302811106C08091E30087FD9C
:1023600002C081E001C084E0809357020E94B60B56
:102370008091E80083FF0AC08091E800877F809306
:10238000E8008091EB0080628093EB00AA960FB684
:10239000F894DEBF0FBECDBFDF91CF911F9108959E
:1023A00090936501809364010895E0916401F09138
:1023B0006501309721F00190F081E02D099480E0D3
:1023C0000895EF92FF920F931F93CF93DF93E091C5
:1023D0006401F09165013097B1F18C010280F381C5
:1023E000E02D09958091420282FF2DC080FF04C03C
:1023F00080E894E00E94B705E80118E08AE7E82E3B
:1024000084E0F82E8091420280FF0BC088811F92E9
:102410008F93FF92EF920E9450060F900F900F90B3
:102420000F90115021961111EDCF8091420280FF43
:102430000AC088E794E0DF91CF911F910F91FF9040
:10244000EF900C94B705DF91CF911F910F91FF9002
:10245000EF900895E0916401F0916501309721F0CB
:102460000480F581E02D09940895CF93DF93EC016A
:102470008091620190916301C817D90709F1D09347
:102480006301C0936201E0916401F09165013097AE
:10249000B9F00680F781E02DCE01099580914202C6
:1024A00082FF0EC080FF0CC0DF93CF938AE694E0DA
:1024B0009F938F930E9450060F900F900F900F9054
:1024C000DF91CF910895CF93DF93EC01809160016C
:1024D00090916101C817D90709F1D0936101C093A8
:1024E0006001E0916401F09165013097B9F00084DA
:1024F000F185E02DCE0109958091420282FF0EC048
:1025000080FF0CC0DF93CF938AE594E09F938F9375
:102510000E9450060F900F900F900F90DF91CF9177
:1025200008950C9469130E945B1F0E9479060C9415
:1025300079095F926F927F928F929F92AF92BF9232
:10254000CF92DF92EF92FF920F931F93CF93DF937F
:1025500000D000D01F92CDB7DEB70E94290887E6D1
:10256000C82E81E0D82E512C88248394912C852D5F
:102570000E941709A82EF601E080E82641F4539442
:10258000FFEFCF1ADF0A80E15812F1CF40C08091EF
:10259000420281FD0E94851300E010E0F12CB12C75
:1025A000C701002E02C0959587950A94E2F780FF37
:1025B00028C009835A823401002E02C0660C771CA1
:1025C0000A94E2F793012A213B2181E0232B09F4AD
:1025D00080E08B830E94641F8160782F9D838C83B1
:1025E00049815A816B818D810E94BB1349815A8137
:1025F0006B817C818D810E94DE1EF60180816826C0
:1026000060820F5F1F4F0830110551F6B8CF8FEF72
:1026100089838A831B820E94641F8160782F9D8337
:102620008C8349815A816B818D810E94BB130E94EA
:10263000DD1E0E9425220E944907109166010E941A
:10264000D511181771F10E94D511809366019091F0
:10265000420292FF0EC090FF0CC01F928F938BE836
:1026600094E09F938F930E9450060F900F900F90CD
:102670000F90809166010F900F900F900F900F9028
:10268000DF91CF911F910F91FF90EF90DF90CF904E
:10269000BF90AF909F908F907F906F905F900C94C1
:1026A000EF1E0F900F900F900F900F90DF91CF9132
:1026B0001F910F91FF90EF90DF90CF90BF90AF9060
:1026C0009F908F907F906F905F9008950C941D095C
:1026D00008950895CF93DF931F92CDB7DEB7698336
:1026E0000E94170990E021E030E0698102C0220FCA
:1026F000331F6A95E2F72823392381E0232B09F45D
:1027000080E00F90DF91CF910895EF92FF920F93A9
:102710001F93CF93DF9384EA94E00E94B705C0E053
:10272000D0E089E2E82E81E0F82E06E914E08C2F53
:102730000E9417090E94C71EFF92EF921F928F936B
:10274000DF93CF931F930F930E94500621968DB76E
:102750009EB708960FB6F8949EBF0FBE8DBFC031CE
:10276000D10529F7DF91CF911F910F91FF90EF9045
:10277000089508950895CF93DF93CDB7DEB72B97D3
:102780000FB6F894DEBF0FBECDBF942F4F83252F19
:10279000588769877A878B874A855B85452B21F027
:1027A0002F3F09F59F3FF9F4DE01119686E0FD0108
:1027B00011928A95E9F785E0FE01379601900D9216
:1027C0008A95E1F749815A816B817C818D819E8157
:1027D0000E944B1B2B960FB6F894DEBF0FBECDBFE9
:1027E000DF91CF9108954F81588569857A858B85D2
:1027F0000E94DE1ED9CFCF93882309F4A9C0C82F29
:102800008238A1F40E94D51181FDA2C089E30E9403
:10281000231E0E949C1E2FEF81EE94E021508040E9
:102820009040E1F700C0000089E315C08338C1F48F
:102830000E94D51180FD8CC083E50E94231E0E945A
:102840009C1E2FEF81EE94E0215080409040E1F7F4
:1028500000C0000083E50E94401ECF910C949C1E96
:102860008438A1F40E94D51182FD72C087E40E94D1
:10287000231E0E949C1E2FEF81EE94E02150804089
:102880009040E1F700C0000087E4E5CF8CEF8C0FAB
:10289000813A20F080E58C0F8E3248F48C2F0E9414
:1028A0004F25811155C08C2F0E94231ED6CF80E268
:1028B0008C0F883048F4C77081E001C0880FCA953A
:1028C000EAF70E94621EC9CF8BE58C0F833078F443
:1028D000C53A29F0C63A31F083E890E005C081E8B6
:1028E00090E002C082E890E0CF910C94351288E528
:1028F0008C0F853168F5C83A89F0C93A91F0CA3A27
:1029000099F0CB3AA1F0CC3AA9F0CD3AB1F0CE3A59
:10291000B9F0CF3AC1F080E090E017C082EE90E0CD
:1029200014C089EE90E011C08AEE90E00EC085EBF5
:1029300090E00BC086EB90E008C083EB90E005C010
:1029400084EB90E002C087EB90E0CF910C9463128F
:10295000CF910895882309F46AC08238A1F40E94B7
:10296000D51181FF64C089E30E94231E0E949C1E32
:102970002FEF81EE94E0215080409040E1F700C0BD
:10298000000089E315C08338B9F40E94D51180FF97
:102990004EC083E50E94231E0E949C1E2FEF81EEF5
:1029A00094E0215080409040E1F700C0000083E5B2
:1029B0000E94401E0C949C1E8438A1F40E94D511E4
:1029C00082FF35C087E40E94231E0E949C1E2FEFC9
:1029D00081EE94E0215080409040E1F700C000007B
:1029E00087E4E6CF9CEF980F913A10F390E5980FAB
:1029F0009E32F0F290E2980F983050F4877091E098
:102A000001C0990F8A95EAF7892F0E94681ED2CFDC
:102A10009BE5980F933020F480E090E00C94351201
:102A2000885A853120F480E090E00C946312089578
:102A3000882321F00E94621E0C949C1E0895882316
:102A400021F00E94681E0C949C1E0895BF92CF92A4
:102A5000DF92EF92FF920F931F93CF93DF9300D0FB
:102A600000D000D0CDB7DEB725E0FC01DE01119625
:102A700001900D922A95E1F7FC014081518102817C
:102A800063817481258122952F706115710509F488
:102A900003C35F3F19F44F3F09F4FEC26C01862F58
:102AA0007D836C83602F782F8D812E830E94A71DDC
:102AB000182FB92E0E94A61D0E94961CEB2DE295A0
:102AC000EF70F0E0E05AFF4F2E810C94F3278B2D2E
:102AD000807F9B2D9F70F92E882319F0F29490EF40
:102AE000F922002349F0FF2009F483C28F2D0E94B0
:102AF000751E0E949C1E7DC2812F0E94AA14FF2079
:102B000009F4CAC28F2D0E947B1E26960FB6F89438
:102B1000DEBF0FBECDBFDF91CF911F910F91FF9010
:102B2000EF90DF90CF90BF900C949C1E8B2D807FF8
:102B30009B2D9F70F92E803219F0F29480EFF822CD
:102B4000112319F0113009F12AC00023B1F08F2DA3
:102B5000222351F1213041F526960FB6F894DEBFBD
:102B60000FBECDBFDF91CF911F910F91FF90EF90DE
:102B7000DF90CF90BF900C94851E222319F0213056
:102B800009F48AC20E94881E2DC00023F1F026306D
:102B900008F082C20E945F1E8F2129F023C000230B
:102BA000F9F0211116C08F2D26960FB6F894DEBFCE
:102BB0000FBECDBFDF91CF911F910F91FF90EF908E
:102BC000DF90CF90BF900C941815253008F064C2A8
:102BD00009C0F601858180FF0CC28F708583E3CF29
:102BE00021111CC28F2D83C12B2D26952695237074
:102BF00030E02115310521F021303105D1F04CC2F2
:102C0000002321F0812F9B2D937002C080E090E083
:102C100026960FB6F894DEBF0FBECDBFDF91CF91E1
:102C20001F910F91FF90EF90DF90CF90BF900C9489
:102C30003512002321F0812F9B2D937002C080E07C
:102C400090E026960FB6F894DEBF0FBECDBFDF91A1
:102C5000CF911F910F91FF90EF90DF90CF90BF9099
:102C60000C946312812F002319F00E94AB2002C044
:102C70000E94132126960FB6F894DEBF0FBECDBF7B
:102C8000DF91CF911F910F91FF90EF90DF90CF9048
:102C9000BF900C9498218B2D837009F07BC001119B
:102CA000FBC1812F829586958770880F880F912FA1
:102CB0009F70C92ED12CE12CF12C082E04C0CC0C15
:102CC000DD1CEE1CFF1C0A94D2F714FF12C04FE06B
:102CD00050E060E070E004C0440F551F661F771F8E
:102CE0008A95D2F7CB01BA01609570958095909541
:102CF00003C060E070E0CB012B2D26952695237054
:102D0000422F50E042305105D9F04330510569F16E
:102D10006C297D298E299F294130510551F1269634
:102D20000FB6F894DEBF0FBECDBFDF91CF911F91DC
:102D30000F91FF90EF90DF90CF90BF900C94BB1C51
:102D40006C297D298E299F2926960FB6F894DEBF1F
:102D50000FBECDBFDF91CF911F910F91FF90EF90EC
:102D6000DF90CF90BF900C94D51C0E94BB1CC70174
:102D7000B60126960FB6F894DEBF0FBECDBFDF9129
:102D8000CF911F910F91FF90EF90DF90CF90BF9068
:102D90000C94A11C002319F08B2D817001C0869525
:102DA000882309F479C1812F829586958770880FD1
:102DB000880F912F9F70C92ED12CE12CF12C082E59
:102DC00004C0CC0CDD1CEE1CFF1C0A94D2F714FFCF
:102DD00012C04FE050E060E070E004C0440F551FA7
:102DE000661F771F8A95D2F7CB01BA01609570955F
:102DF0008095909503C060E070E0CB012B2D269567
:102E000026952370422F50E042305105D9F04330CF
:102E1000510569F16C297D298E299F294130510581
:102E200051F126960FB6F894DEBF0FBECDBFDF91ED
:102E3000CF911F910F91FF90EF90DF90CF90BF90B7
:102E40000C94821D6C297D298E299F2926960FB608
:102E5000F894DEBF0FBECDBFDF91CF911F910F91D0
:102E6000FF90EF90DF90CF90BF900C94941D0E9444
:102E7000821DC701B60126960FB6F894DEBF0FBEBD
:102E8000CDBFDF91CF911F910F91FF90EF90DF9019
:102E9000CF90BF900C94701D103FD1F128F480E4C6
:102EA000810F803250F0A0C0123F09F462C008F4D4
:102EB0004BC0133F09F472C097C0F12FF071FF2E81
:102EC0008B2D8F71002351F00E94091D812FFF204F
:102ED00019F08295807F68CE8F7066CE0E942A1D81
:102EE000812FFF2019F08295807F01C08F70269678
:102EF0000FB6F894DEBF0FBECDBFDF91CF911F910B
:102F00000F91FF90EF90DF90CF90BF900C941F1522
:102F10000023B1F0253008F0BFC08B2D8F712696AD
:102F20000FB6F894DEBF0FBECDBFDF91CF911F91DA
:102F30000F91FF90EF90DF90CF90BF900C944F1DBA
:102F4000263008F0A9C0E9CF0023A9F08B2D8F719E
:102F500026960FB6F894DEBF0FBECDBFDF91CF919E
:102F60001F910F91FF90EF90DF90CF90BF900C9446
:102F7000091D002359F38B2D8F7126960FB6F894F7
:102F8000DEBF0FBECDBFDF91CF911F910F91FF909C
:102F9000EF90DF90CF90BF900C942A1D002399F002
:102FA0008B2D8F7126960FB6F894DEBF0FBECDBF66
:102FB000DF91CF911F910F91FF90EF90DF90CF9015
:102FC000BF900C94F41C26960FB6F894DEBF0FBE8B
:102FD000CDBFDF91CF911F910F91FF90EF90DF90C8
:102FE000CF90BF900C94EF1C0023A9F0222309F48A
:102FF000ADCF812F26960FB6F894DEBF0FBECDBFA2
:10300000DF91CF911F910F91FF90EF90DF90CF90C4
:10301000BF900C94FB13222309F4ADCF812F269689
:103020000FB6F894DEBF0FBECDBFDF91CF911F91D9
:103030000F91FF90EF90DF90CF90BF900C94AA1467
:103040004B2D4F70612FC6010E94252026960FB68A
:10305000F894DEBF0FBECDBFDF91CF911F910F91CE
:10306000FF90EF90DF90CF90BF900C94EF1B4B2D13
:103070004F70612FC60126960FB6F894DEBF0FBEC3
:10308000CDBFDF91CF911F910F91FF90EF90DF9017
:10309000CF90BF900C94282026960FB6F894DEBFF0
:1030A0000FBECDBFDF91CF911F910F91FF90EF9099
:1030B000DF90CF90BF9008950E94821E0E94511E03
:1030C0000E949C1E0E94CA220E94982180E090E0EB
:1030D0000E94351280E090E00C9463120E94721EF0
:1030E0000C945C18CF93DF9300D000D01F92CDB723
:1030F000DEB7942F4983252F5A836B837C838D837E
:103100004C815D81452B39F12F3F11F49F3F19F11F
:1031100049815A816B817C818D810E94A71D292F55
:1031200022952F7030E02C30310504F52A3031051E
:103130005CF4225031092230310568F4853A80F47C
:10314000843090F4823080F0883E38F4803E60F421
:103150008450813A48F080E014C0803FE1F704C019
:1031600090E2980F983080F781E00BC02C30310549
:1031700021F493FB882780F904C02F303105C9F36F
:10318000EACF0F900F900F900F900F90DF91CF919B
:103190000895CF93DF9300D000D01F92CDB7DEB754
:1031A0000F900F900F900F900F90DF91CF91089597
:1031B000CF93DF9300D000D000D0CDB7DEB72696F6
:1031C0000FB6F894DEBF0FBECDBFDF91CF9108954B
:1031D0001F93CF93DF93C091770116E08091780120
:1031E000C81799F0D0E01C9FF0011D9FF00D11242D
:1031F000E758FE4F408151816281738184819581BE
:103200000E94D8182196C770E9CFDF91CF911F9106
:1032100008954091A9015091AA016091AB0170916C
:10322000AC018091AD019091AE010C94D8188091C1
:10323000AE0182958F7009F054C08091AB01882354
:1032400009F44FC080917701A09178016091A901A4
:103250007091AA014091AC015091AD01B6E08A177E
:1032600009F43FC090E041155105C1F17F3F11F4D1
:103270006F3FA1F1B89FF001B99FF00D1124E758FD
:10328000FE4F218172132AC02081621327C0228140
:10329000211124C0238134812417350710F42150D3
:1032A0003109241B350B283C3105C0F42091AE01B7
:1032B0002F7020612093AE0126E0289FF001299F06
:1032C000F00D1124E258FE4F80818F708061808361
:1032D00089EA91E00E9426150C94E81801968770FF
:1032E000BECF0895BF92CF92DF92EF92FF920F93DD
:1032F0001F93CF93DF93CDB7DEB761970FB6F894E6
:10330000DEBF0FBECDBF7C0185E0F701DE011D965B
:1033100001900D928A95E1F7D7014C9111965C913D
:1033200011971296DC90129713960D911C91149799
:103330003091A9016091AA018091AC019091AD01F9
:10334000009709F477C16F3F19F43F3F09F472C148
:10335000B090AB01BB2009F4C5C02091AE010817A5
:10336000190728F0F801E81BF90BCF0104C080957C
:103370009095800F911FCC24C394883C910580F0D8
:10338000C12C207F09F0CCC0702F198B088B6D2DBC
:1033900089890E94C91889EA91E00E942615B6C061
:1033A000822F807F09F047C0651314C0341312C008
:1033B000D11010C02F7020612093AE010E94091916
:1033C00089EA91E00E9426158091AE01D7011596F9
:1033D0008C932FC00115110519F15F3F11F44F3F78
:1033E000F9F0CD2CD1101CC080917701209178018B
:1033F00036E0821709F45CC090E0389FF001399FF5
:10340000F00D1124E758FE4F6181561306C060810C
:10341000461303C06281611103C001968770E9CF32
:10342000CD2CDD2009F426C18091AE01816080930E
:10343000AE01C12C1FC1651308C0341306C0D110E2
:1034400004C08091AE01D701C9C04D875E87DF8679
:10345000702F198B088B6D2D89890E947218882313
:10346000E9F1DD20D9F12091AE01822F82958F7094
:1034700090E0029774F08091A9019091AA01988739
:103480008F8319861B870A872C87CE0107960E9497
:10349000261586E0F701A9EAB1E001900D928A9520
:1034A000E1F70E9417190E940919CC24C394E2C0C5
:1034B000702F198B088B60E089890E94A71D292F26
:1034C00022952F7030E0223031050CF0C7C09F707C
:1034D00009F0C1C0805E883008F4CCC0C7010E94EA
:1034E0002615E3CF0817190708F456C0F801E81BA2
:1034F000F90BCF01883C910508F453C0C12C702F03
:10350000198B088B6D2D89890E94C918E9EAF1E0B1
:1035100086E0DF011D928A95E9F70E940919AAC089
:10352000651314C0341312C0D11010C08091AE01C5
:10353000F7018583C7010E94261586E0E9EAF1E0DC
:10354000DF011D928A95E9F7CB2C94C04D875E87E9
:10355000DF86702F198B088B6D2D89890E94721858
:10356000882309F4BBCFDD2009F4B8CF2091AE0148
:10357000822F82958F7090E002970CF48ACF809111
:10358000A9019091AA019A8389831B821D830C83D0
:103590002E83CE0101967BCF80959095800F911F51
:1035A000A9CFCD2CDD2009F499CF65132EC034139B
:1035B0002CC02091AE0120FD1FC0822F82958F70FC
:1035C000D9F0D70115962C9315978F3049F08F5F5E
:1035D000982F9295907F822F8F70892B15968C93C0
:1035E000C7010E94261586E0F701A9EAB1E0019023
:1035F0000D928A95E1F791CF86E0F701A9EAB1E053
:1036000001900D928A95E1F735C04D875E87DF8680
:10361000702F198B088B6D2D89890E94721881116A
:1036200038CF8091AE0181608093AE01C7010E94C6
:10363000261520C0DD2009F451CF4D875E87DF8637
:10364000702F198B088B6D2D89890E947218882321
:1036500009F444CF1ECF81113DCF0CC02430310579
:103660000CF03CCF9F7009F435CFF7019581907F26
:1036700009F030CF8C2D61960FB6F894DEBF0FBEE7
:10368000CDBFDF91CF911F910F91FF90EF90DF9011
:10369000CF90BF9008951F93CF93DF93CDB7DEB740
:1036A0002C970FB6F894DEBF0FBECDBF4F8358875F
:1036B00069877A878B879C87CE0107960E9472194B
:1036C000882369F08F8198852A853B85232BF1F12A
:1036D0009F3F09F063C08F3F09F060C037C086E0AC
:1036E000FE013796DE01119601900D928A95E1F761
:1036F0006F817885EA85FB85309741F17F3F11F432
:103700006F3F21F12091780130E0C9010196877067
:1037100099274091770150E08417950709F447C035
:1037200069837A83FD83EC8396E0929FD001939F17
:10373000B00D1124A758BE4FFE01319601900D9295
:103740009A95E1F7809378010E94E81816E080913D
:103750007701909178018917C1F1189FC001112458
:1037600087589E4F0E947219882379F1E091770162
:103770001E9FF0011124E758FE4F40815181628164
:103780007381848195810E94D8188091770190E09F
:1037900001968770992780937701D9CF4F815885FB
:1037A00069857A858B859C850E94D818CFCF0E9429
:1037B0006E181092780110927701E9EAF1E086E044
:1037C000DF011D928A95E9F7C1CF2C960FB6F894C8
:1037D000DEBF0FBECDBFDF91CF911F910895DF9265
:1037E000EF92FF920F931F93CF93DF93FC01892BEE
:1037F00009F48AC0E12CF12CDD24D394EF01219649
:103800008491853709F461C058F4843708F04EC0BC
:10381000843008F06AC08130D1F0823071F174C018
:10382000883709F45DC050F4863709F455C08737EE
:1038300009F06AC08E2D0E946F1E54C09CE7980F3D
:10384000903708F061C08F770E94AA1450C08F0192
:103850000E5F1F4FFE01849190E2980F983050F454
:103860008770FD2D01C0FF0F8A95EAF78F2F0E9408
:10387000751E14C00E94FB1313C08F010E5F1F4FF3
:10388000FE01C49180E28C0F883060F4C7708D2DEA
:1038900001C0880FCA95EAF70E947B1E0E949C1EF9
:1038A000E80125C08C2F0E94AA14FACF9F012E5F39
:1038B0003F4FFE01C491CC2369F08FE99FE001974F
:1038C000F1F700C00000C150F6CF9F012E5F3F4FBF
:1038D000FE01F490E9010BC00E945F1EE82E07C0B4
:1038E0000E94721E0E949C1E02C00E94FB138F2D1C
:1038F000882341F0EFE9FFE03197F1F700C00000C5
:103900008150F6CFFE017ACFDF91CF911F910F91B9
:10391000FF90EF90DF90089560932F027093300234
:1039200080933102909332020C94EE1E08956093BE
:1039300033027093340280933502909336020C94D4
:10394000ED1E0F931F9300913302109134022091CA
:10395000350230913602602B712B822B932B6093B2
:1039600033027093340280933502909336021F9194
:103970000F910C94ED1E0F931F9300913302109141
:103980003402209135023091360260237123822364
:1039900093236093330270933402809335029093A3
:1039A00036021F910F910C94ED1E0F931F930091FF
:1039B0003302109134022091350230913602602793
:1039C0007127822793276093330270933402809388
:1039D0003502909336021F910F910C94ED1E60E01A
:1039E00070E0CB010C948C1C0F931F9341E050E0CE
:1039F00060E070E08A019B0104C0000F111F221FCC
:103A0000331F8A95D2F7C901B8011F910F910C9409
:103A10008C1C0F931F9341E050E060E070E004C005
:103A2000440F551F661F771F8A95D2F780912F028A
:103A300090913002A0913102B09132028A019B0133
:103A4000082B192B2A2B3B2BC901B8011F910F9171
:103A50000C948C1C0F931F9341E050E060E070E0E9
:103A600004C0440F551F661F771F8A95D2F74095F3
:103A700050956095709580912F0290913002A091A1
:103A80003102B09132028A019B01082319232A23B3
:103A90003B23C901B8011F910F910C948C1C0F930B
:103AA0001F9341E050E060E070E004C0440F551FF8
:103AB000661F771F8A95D2F780912F02909130026E
:103AC000A0913102B09132028A019B010827192787
:103AD0002A273B27C901B8011F910F910C948C1C18
:103AE0000F931F9300912F02109130022091310209
:103AF00030913202602B712B822B932B1F910F91EF
:103B00000C948C1C0F931F9300912F021091300284
:103B1000209131023091320260237123822393235A
:103B20001F910F910C948C1C0F931F9300912F02E7
:103B300010913002209131023091320260277127BA
:103B4000822793271F910F910C948C1C08958F92BC
:103B50009F92AF92BF92DF92EF92FF920F931F93CB
:103B6000CF93DF9300D000D01F92CDB7DEB76B8329
:103B70007C838D838A018C819D81892B21F01F3F5D
:103B800029F44F3F19F480E090E04CC08B818823EA
:103B9000C9F18090330290903402A0903502B09029
:103BA000360280912F0290913002A0913102B091A3
:103BB0003202882A992AAA2ABB2A8FE1E82EF12C00
:103BC000D501C4010E2C04C0B695A795979587958D
:103BD0000A94D2F780FF07C0DE2CB8018E2D0E9418
:103BE000FB1F019729F481E0E81AF10848F7D12C6E
:103BF00088E0189FF0011124E00FF11DE155FE4F00
:103C0000D08209C088E0189FF0011124E00FF11D57
:103C1000E155FE4FD08009831A8369817A818D2D09
:103C20000E94FB1F0F900F900F900F900F90DF914D
:103C3000CF911F910F91FF90EF90DF90BF90AF90C9
:103C40009F908F90089520910D0130910E01F90100
:103C500032969FEF40E05191581789F09F3F19F439
:103C6000511101C0942F4F5F4630A9F79F3F39F0A3
:103C7000F901E90FF11D97FDFA95828308950895E2
:103C800020910D0130910E01F9013296285F3F4FCE
:103C90009081981301C010823196E217F307C1F7A3
:103CA000089581E090E0E0910D01F0910E01E80FA0
:103CB000F91F1082019688309105A9F70895809127
:103CC0004102089590914102892B80934102089509
:103CD00080959091410289238093410208958093B9
:103CE0004102089510924102089590914002892B5B
:103CF000809340020895809590914002892380939B
:103D0000400208951092400208958093370208956A
:103D100010923702089580910D0190910E01FC01DF
:103D200031969C01285F3F4F80E0919191118F5F08
:103D3000E217F307D1F70895E0910D01F0910E011C
:103D4000809141028083E0910D01F0910E019081FC
:103D500080914002892B808380913702882361F013
:103D6000E0910D01F0910E019081892B80830E94DA
:103D70008B1E81111092370280910D0190910E01DE
:103D80000C94E1119093350180933401089582954C
:103D9000982F9C7C392F36953695282F237344E035
:103DA000249FC0011124932F982B292F2A7A26951E
:103DB000892F8575880F822B08950895CF93DF93FF
:103DC00000D000D01F92CDB7DEB70F900F900F90AC
:103DD0000F900F90DF91CF910895089508950C945E
:103DE000661380915702843021F11092430220E43F
:103DF00088E190E00FB6F894A895809360000FBE1C
:103E00002093600083B7817F846083BF83B7816024
:103E100083BF7894889583B78E7F83BF0FB6F8945D
:103E2000A895809160008861809360001092600086
:103E30000FBE0895CF930E94B9130E9429080E94D3
:103E4000BA13C0E08C2F0E941709811104C0CF5F04
:103E5000C031C1F701C081E0CF9108950E9468137D
:103E60000C946E181F920F920FB60F9211248F931D
:103E70009F93AF93BF9380914302811113C08091B0
:103E8000440290914502A0914602B09147024196AA
:103E9000A11DB11D8093440290934502A093460258
:103EA000B0934702BF91AF919F918F910F900FBE3A
:103EB0000F901F90189582E084BD93E095BD9AEF16
:103EC00097BD80936E0008952FB7F89480914402B7
:103ED00090914502A0914602B09147022FBF0895EC
:103EE0002FB7F89460914402709145028091460288
:103EF000909147022FBF0895CF92DF92EF92FF92E9
:103F00000F931F932FB7F8944091440250914502AC
:103F100060914602709147022FBF6A017B01EE2437
:103F2000FF248C0120E030E0C016D106E206F30643
:103F300010F4415051099A01281B390BC9011F91F6
:103F40000F91FF90EF90DF90CF9008951F920F9206
:103F50000FB60F9211248F939F93AF93BF938091CD
:103F6000440290914502A0914602B0914702019609
:103F7000A11DB11D8093440290934502A093460277
:103F8000B0934702BF91AF919F918F910F900FBE59
:103F90000F901F9018950E94EE0EF8942FEF87EA6D
:103FA00091E6215080409040E1F700C0000087E09A
:103FB00090EBDC018093600290936102A093620217
:103FC000B09363029CE088E10FB6F894A8958093C3
:103FD00060000FBE90936000FFCF28E0929FF00139
:103FE0001124E80FF11DE052FF4F9491892F8F703B
:103FF00092959F700895CF93C82FCB010E94ED1F1B
:10400000282F30E080E1989FA0011124422B532BF0
:104010004038510519F480E090E015C09770E92F01
:10402000F0E088E0C89FE00DF11D112484E0EE0F60
:10403000FF1F8A95E1F7E20FF31FEE0FFF1FE0501D
:10404000F84985919491CF91089580E090E008958A
:10405000089580914A0280FF0BC06091120185E0B3
:10406000689FB001112475956795759567952BC06C
:1040700081FF09C06091120185E0689FB0011124A1
:104080007595679520C082FF07C06091120185E099
:10409000689FB001112417C090914B029923D1F071
:1040A00060911101961788F72091120185E0289FF1
:1040B00090011124929FA001939F500D112470E054
:1040C000CA010E94DF276038710540F4611571054F
:1040D00039F002C065E070E0862F08958FE70895FB
:1040E00081E0089580914A0280FF08C0609110012C
:1040F00070E0759567957595679521C081FF06C03D
:104100006091100170E07595679519C082FF04C039
:104110006091100170E010C090914B029923C1F0A2
:1041200060910F019617A0F780911001899FC0013F
:10413000112470E00E94DF276038710528F46115B2
:10414000710521F0862F08958FE7089581E0089585
:1041500061E070E0F4CF803F21F40E942920819536
:1041600004C0813F29F40E94292080934E020895C3
:10417000823F21F40E942920819504C0833F29F4C5
:104180000E94292080934D020895893F19F40E94CE
:10419000722005C08A3F31F40E947220819580937D
:1041A0004F0208958B3F21F40E947220819504C034
:1041B0008C3F29F40E947220809350020895843F1E
:1041C00021F480914C02816017C0853F21F48091D9
:1041D0004C02826011C0863F21F480914C028460C1
:1041E0000BC0873F21F480914C02886005C0883F56
:1041F00031F480914C02806180934C0208958D3F90
:1042000021F480914A0281600BC08E3F21F480919D
:104210004A02826005C08F3F29F480914A0284607F
:1042200080934A020895803F39F480914E0287FFBF
:104230006CC010924E0269C0813F29F480914E02F9
:104240001816BCF362C090914D02823F29F497FF8B
:104250005CC010924D0259C0833F19F41916CCF37B
:1042600054C0893F41F480914F0218160CF04DC0A4
:1042700010924F024AC08A3F29F480914F0287FF73
:1042800044C0F6CF8B3F39F48091500287FF3DC088
:10429000109250023AC08C3F29F4809150021816B7
:1042A000BCF333C0843F21F480914C028E7F17C051
:1042B000853F21F480914C028D7F11C0863F21F40F
:1042C00080914C028B7F0BC0873F21F480914C0280
:1042D000877F05C0883F31F480914C028F7E8093A8
:1042E0004C0213C08D3F21F480914A028E7F0BC097
:1042F0008E3F21F480914A028D7F05C08F3F29F4C3
:1043000080914A028B7F80934A0280914D028111F5
:104310000EC080914E0281110AC080914F0281111E
:1043200006C080915002811102C010924B02089584
:104330008091420283FF7EC089ED94E00E94B70520
:1043400080914C021F928F9384ED94E09F938F9302
:104350000E94500682ED94E00E94B70580914D02C4
:10436000282F082E000C330B3F938F938FEC94E093
:104370009F938F930E9450068DEC94E00E94B705A6
:1043800080914E02282F082E000C330B3F938F9301
:104390008AEC94E09F938F930E94500688EC94E0FF
:1043A0000E94B70580914F02282F082E000C330B76
:1043B0003F938F9385EC94E09F938F930E945006D8
:1043C00083EC94E00E94B70580915002282F082EBC
:1043D000000C330B3F938F9380EC94E09F938F936B
:1043E0000E9450068DEB94E00E94B70580914B022D
:1043F0001F928F938AEB94E09F938F930E945006B5
:1044000088EB94E00E94B70580914A021F928F9337
:1044100085EB94E09F938F930E94500682EB94E08B
:104420000E94B7058DB79EB74C960FB6F8949EBF05
:104430000FBE8DBF8CE492E00E942A120E94641F7E
:10444000909349028093480208951F93CF93DF937E
:1044500080914802909149020E947C1FAC0190918A
:104460004B02992321F02091130130E006C02091E6
:1044700014018AE0289F900111244217530708F481
:1044800085C080914D02C0914E02D0914F02109193
:104490005002811107C0C11175C0D11173C0111133
:1044A00071C074C09F3F19F09F5F90934B02181624
:1044B00024F40E94292080934D0280914D0287FFB1
:1044C00005C00E942920819580934D021C1624F47A
:1044D0000E94292080934E0280914E0287FF05C0E2
:1044E0000E942920819580934E0260914D0266239F
:1044F00031F1C0914E02CC2311F1062E000C770B46
:10450000880B990B0E94DA2623E333E343E35FE34E
:104510000E943E270E94A22660934D026C2FCC0F72
:10452000770B880B990B0E94DA2623E333E343E3EE
:104530005FE30E943E270E94A22660934E021D1652
:1045400024F40E94722080934F0280914F0287FFD3
:1045500005C00E947220819580934F02111624F4A9
:104560000E947220809350028091500287FF05C004
:104570000E947220819580935002DF91CF911F910C
:104580000C9498219F3F09F08FCF97CFDF91CF9167
:104590001F910895ECE4F2E085E0DF011D928A9519
:1045A000E9F710924B0210924A0208958CEF96E0C0
:1045B0000E94B7051F9281E08F931F9285E08F9331
:1045C0008EEA96E09F938F930E9450060F900F9073
:1045D0000F900F900F900F9008958330E9F128F419
:1045E000813061F0823009F10895853009F462C0AC
:1045F00008F449C0863009F474C00895809114010C
:10460000262F30E0280F311D2F3F310524F4680F8D
:104610006093140103C08FEF809314018091140103
:104620001F928F9387EE95E072C080911301262F21
:1046300030E0280F311D2F3F310524F4680F6093BF
:10464000130103C08FEF80931301809113011F9218
:104650008F9385ED95E05BC080911201262F30E0AD
:10466000280F311D2F3F310524F4680F609312018C
:1046700003C08FEF80931201809112011F928F93DC
:1046800082EC95E044C080911101262F30E0280F84
:10469000311D2F3F310524F4680F6093110103C0D1
:1046A0008FEF80931101809111011F928F938DEAFA
:1046B00095E02DC080911001262F30E0280F311D8C
:1046C0002F3F310524F4680F6093100103C08FEF72
:1046D00080931001809110011F928F9384E995E0DF
:1046E00016C080910F01262F30E0280F311D2F3F7B
:1046F000310524F4680F60930F0103C08FEF80939E
:104700000F0180910F011F928F9389E795E09F938E
:104710008F930E9450060F900F900F900F90089566
:10472000833081F128F4813059F08230D1F008953E
:10473000853009F449C0B8F1863009F456C00895AF
:1047400080911401681720F4861B8093140102C025
:1047500010921401809114011F928F938AE695E0C4
:1047600054C080911301681720F4861B80931301B5
:1047700002C010921301809113011F928F9388E55C
:1047800095E043C080911201681720F4861B809346
:10479000120102C010921201809112011F928F9398
:1047A00085E495E032C080911101681720F4861BE2
:1047B0008093110102C010921101809111011F928A
:1047C0008F9380E395E021C080911001681720F459
:1047D000861B8093100102C010921001809110017D
:1047E0001F928F9387E195E010C080910F016817A9
:1047F00020F4861B80930F0102C010920F0180915C
:104800000F011F928F938CEF94E09F938F930E94E0
:1048100050060F900F900F900F900895CF93C82FD0
:104820001F928F9381E098E09F938F930E94500690
:1048300081E090E0A0E0B0E0BC01CD0104C0660FD3
:10484000771F881F991FCA95D2F70E94971C0F9057
:104850000F900F900F90CF910C946E18CF938732DA
:1048600088F58E3108F00BC18E3009F487C0D8F47A
:10487000873009F460C08B3009F44FC0863009F0EE
:1048800002C180914202817F8E7F8093420286E046
:1048900098E00E94B7058FEB9AE00E94B70581E08F
:1048A0008093520246C0863109F4B0C020F48031B2
:1048B00009F47AC0E8C0893109F491C08B3109F458
:1048C00049C0E1C0883349F150F4893209F4D5C0B8
:1048D000853309F4D2C0873209F0D5C0CEC0833405
:1048E00009F4CBC028F48A3308F4CDC08953C8C07A
:1048F000883409F0C8C00E946E188EEA9AE00E94BF
:10490000B7052FEF83ED90E3215080409040E1F711
:1049100000C000000E94CB1F0CC08DE298E041C097
:1049200085E99AE00E94B7058091420281608093F8
:104930004202C1E0ADC080914202C82FC17080FF29
:10494000EFCF81EA9AE00E94B70580914202817F11
:104950008E7F3FC09091420291FBCC27C0F981E04D
:10496000C827892FC0FB81F980934202CC2319F01C
:1049700088E89AE029C08AE79AE013C09091420241
:1049800092FBCC27C0F981E0C827892FC0FB82F9B0
:1049900080934202CC2319F08BE69AE015C08BE598
:1049A0009AE00E94B705C5CF9091420293FBCC27B5
:1049B000C0F981E0C827892FC0FB83F980934202A8
:1049C000CC2351F08FE49AE00E94B7058091420217
:1049D0008160809342025CC082E49AE0E2CF83E38C
:1049E0009AE00E94B70580E19AE00E94B7058BEC3F
:1049F00099E00E94B7058EE999E00E94B70589E524
:104A000099E00E94B7058BE299E0CBCF8DE199E068
:104A10000E94B7050E94D5111F928F9383E099E001
:104A20009F938F930E94500680910C011F928F9349
:104A30008CEE98E09F938F930E94500680915F01C7
:104A40001F928F9389ED98E09F938F930E94500659
:104A50000E94701F9F938F937F936F9382EC98E0D7
:104A60009F938F930E9450068DB79EB742960FB6C4
:104A7000F8949EBF0FBE8DBF5CCF80E001C08D510A
:104A80000E940E2456CF80EC98E00E94B705C0E04B
:104A90008C2FCF91089580E0089580E00895CF9302
:104AA000C82F80915202813069F020F0823009F4E1
:104AB00049C040C167E08FE00E946A13882309F46F
:104AC0003FC106C067E08FE00E946A13882361F04F
:104AD0008C2F0E944B25811104C08C2F0E942E2404
:104AE0002FC081E090E02CC08C2F0E944D258111B9
:104AF00026C0C431E1F070F4CB3081F0C031D1F484
:104B00000E94D62289EF97E00E94B70582E0809349
:104B1000520215C0C93259F0C83361F486E098E0FA
:104B20000E94B7058DEF97E00E94B70508C010926C
:104B3000520204C187EF97E00E94B705FFC081E0F1
:104B40008170FEC0C43228F5CE3108F0C1C0CB3030
:104B5000A1F1D0F4C73009F0D3C08EE180931401E5
:104B600082E3809313018AE08093120184E18093B1
:104B7000110188E08093100188E280930F018DE994
:104B800096E00E94B705BFC0C33149F1C431C1F0FE
:104B9000B7C0CB3409F4A9C028F4C93289F0C833AE
:104BA00061F0AEC0C13509F49EC0C23509F499C0A8
:104BB000CE3409F0A5C06AE09EC00E94D622A3C0F0
:104BC00080915102882319F0109251029CC08AEA08
:104BD00096E00E94B70581E080935202B1C084E85C
:104BE00096E00E94B70582E796E00E94B7058091A3
:104BF00014011F928F938FE696E09F938F930E94EC
:104C000050068DE696E00E94B7058BE596E00E947F
:104C1000B705809113011F928F9388E596E09F93CB
:104C20008F930E94500686E596E00E94B70587E4C0
:104C300096E00E94B705809112011F928F9384E441
:104C400096E09F938F930E94500682E496E00E9424
:104C5000B70581E396E00E94B705809111011F928C
:104C60008F938EE296E09F938F930E9450068CE282
:104C700096E00E94B70587E196E00E94B705809113
:104C800010011F928F9384E196E09F938F930E946F
:104C9000500682E196E00E94B7058BEF95E00E94F6
:104CA000B70580910F011F928F9388EF95E09F9336
:104CB0008F930E94500686EF95E00E94B7058DB74E
:104CC0009EB748960FB6F8949EBF0FBE8DBF1BC00F
:104CD000CE51EC2FF0E0E65DFE4F808180935102D3
:104CE00012C061E003C061E006C06AE08091510239
:104CF0000E94ED2208C0809151020E94902303C0BF
:104D00008BE996E013C080915102882369F01F92CD
:104D10008F9385E996E09F938F930E9450060F90A2
:104D20000F900F900F9004C082E996E00E94B705A3
:104D300081E006C01092520280E002C080E000CF05
:104D4000CF9108950E94A9266894B1110C94382738
:104D500008950E941D2788F09F5798F0B92F992732
:104D6000B751B0F0E1F0660F771F881F991F1AF056
:104D7000BA95C9F714C0B13091F00E943727B1E05D
:104D800008950C943727672F782F8827B85F39F05C
:104D9000B93FCCF3869577956795B395D9F73EF4EF
:104DA00090958095709561957F4F8F4F9F4F089597
:104DB000E89409C097FB3EF49095809570956195B5
:104DC0007F4F8F4F9F4F9923A9F0F92F96E9BB276B
:104DD0009395F695879577956795B795F111F8CFE7
:104DE000FAF4BB0F11F460FF1BC06F5F7F4F8F4F52
:104DF0009F4F16C0882311F096E911C0772321F048
:104E00009EE8872F762F05C0662371F096E8862FDF
:104E100070E060E02AF09A95660F771F881FDAF736
:104E2000880F9695879597F9089557FD9058440FE8
:104E3000551F59F05F3F71F04795880F97FB991FF9
:104E400061F09F3F79F087950895121613061406B6
:104E5000551FF2CF4695F1DF08C016161706180643
:104E6000991FF1CF86957105610508940895E8941E
:104E7000BB2766277727CB0197F908950E94512712
:104E80000C94C2270E94B42738F00E94BB2720F060
:104E9000952311F00C94AB270C94B12711240C949A
:104EA00038270E94152770F3959FC1F3950F50E0A6
:104EB000551F629FF001729FBB27F00DB11D639FCC
:104EC000AA27F00DB11DAA1F649F6627B00DA11D72
:104ED000661F829F2227B00DA11D621F739FB00D18
:104EE000A11D621F839FA00D611D221F749F332788
:104EF000A00D611D231F849F600D211D822F762F21
:104F00006A2F11249F5750409AF0F1F088234AF0FD
:104F1000EE0FFF1FBB1F661F771F881F9150504069
:104F2000A9F79E3F510580F00C94AB270C943827CD
:104F30005F3FE4F3983ED4F3869577956795B795F0
:104F4000F795E7959F5FC1F7FE2B880F911D96950A
:104F5000879597F9089597F99F6780E870E060E07A
:104F600008959FEF80EC089500240A941616170602
:104F700018060906089500240A941216130614064A
:104F800005060895092E0394000C11F4882352F0AD
:104F9000BB0F40F4BF2B11F460FF04C06F5F7F4F65
:104FA0008F4F9F4F0895991B79E004C0991F961762
:104FB00008F0961B881F7A95C9F78095089597FB8E
:104FC000072E16F4009407D077FD09D00E94F92728
:104FD00007FC05D03EF4909581959F4F08957095FC
:104FE00061957F4F0895EE0FFF1F0590F491E02D1E
:104FF0000994AA1BBB1B51E107C0AA1FBB1FA61720
:10500000B70710F0A61BB70B881F991F5A95A9F771
:0E50100080959095BC01CD010895F894FFCFD6
:10501E00FFFF3A0A2B0B080BD40AA00A013802280C
:10502E0008140A321E404D36221A04CD039703751A
:10503E000301031A0333034C0300010203040506A4
:04504E000708090046
:106800000000EA44E944E2440400050006000700F1
:10681000080009000A000B000C000D000E000F001C
:1068200010001100120013001400150016001700CC
:10683000180019001A001B001C001D001E001F007C
:10684000200021002200230024002500260027002C
:10685000280029002A002B002C002D002E002F00DC
:10686000300031A132003300340035A1360037004A
:10687000380082003A003B003C003D003E003F00F3
:1068800040004100420043004400450046004700EC
:10689000480049004A004B004C004D004E004F009C
:1068A000500051005200530067005400550056003C
:1068B000580059005A005B005C005D005E005F00FC
:1068C0006000610062006300640000005700000087
:1068D000CD440000000000000000000000000000A7
:1068E0000000000000006620000000000000000022
:1068F000E000E100E200E300E400E500E600E7007C
:106900000100010001000100EA4401000100E2442D
:106910000100010001000100460001004A004B0097
:10692000010001004700480001000100E9440100A6
:106930000100010001000100010001003A003B00DC
:106940003C003D003E003F0040004100420043004B
:10695000010001004C00010001004400450052000C
:1069600049000100010050004F0001004D004E00A1
:1069700051000100010001000100010001000100BF
:1069800001000100010001000100010001000100FF
:1069900001000100010001000100010001004D00A3
:1069A0004A004E004B0001000100010001000100FF
:1069B00001000100010001000100010001000100CF
:1069C00001000100010001000100010001000100BF
:1069D00001000100010001000100010001000100AF
:1069E000010001000100010001000100010001009F
:1069F000010001000100010001000100010001008F
:00000001FF
