:100000000C948F080C940D0C0C94D3080C94D3080A
:100010000C94D3080C94D3080C94D3080C94D308F4
:100020000C94D3080C94D3080C943E190C94101A19
:100030000C94D3080C94D3080C94D3080C94D308D4
:100040000C94D3080C9408330C94D3080C94D30864
:100050000C94D3080C94CC280C94D3080C94D3089B
:100060000C94D3080C94D3080C94D3080C94D308A4
:100070000C94D3080C94D3080C94D3080C94D30894
:100080000C945E130C94D3080C94D3080C94D308EE
:100090000C94580B0C94D3080C94D3080C94D308EC
:1000A0000C94D3080C94D3080C94D3089009AC0991
:1000B000940998099C09A009A409A809751A971A16
:1000C000821B971A821BD91AFC1A821B511B641BB4
:1000D000D51ED51E031F031F5F1F9B1F9E219E2140
:1000E000B31F9E21AA20AA2078219E219E218C2127
:1000F00014001A000800150017000400160007007D
:1001000009000A001D211B2406A319A42AA213001A
:1001100012000C0018001C0029000F000E000D003A
:100120000B0028321031113405A52CA11E001F0030
:100130002000210022003A003B003C003D003E0030
:1001400001000100010001004C00270026002500ED
:100150002400230043004200410040003F00010012
:1001600001000100010001001E021F022002210205
:1001700022024400450001000100010001000100CD
:1001800001000100010027022602250224022302A9
:100190003500010001000100010001000100010023
:1001A00001000100010001000100010001002B001D
:1001B0000100010001000100010001000100010037
:1001C0000100310030002F002E002D0034003300DC
:1001D0003800370036004F00520051005000010037
:1001E000010001000100010001002B0001000100DD
:1001F00001000100010001000100010001003102C5
:1002000030022F022E022D0234023302380237024E
:1002100036024D004B004E004A0001009245234635
:100220008A459445010000F001F002F003F004F06B
:100230000100010001000100BF00460001000100B3
:100240000100010000D000D107F006F005F0010028
:1002500001000100010001000A0025303136620072
:100260003A200025303258000A722F632030313294
:10027000333435363738394142434445460A005411
:10028000494D4552332064697361626C65642E0A7E
:100290000054494D45523320656E61626C65642E91
:1002A0000A007267626C69676874207365742068FD
:1002B0007376205B454550524F4D5D3A2025752C95
:1002C00025752C25750A007267626C696768742051
:1002D000746F67676C653A207267626C69676874EF
:1002E0005F636F6E6669672E656E61626C65203D47
:1002F0002025750A007267626C69676874206D6FEB
:1003000064653A2025750A007267626C69676874D3
:100310005F696E6974207267626C696768745F6395
:100320006F6E6669672E6D6F6465203D20302E20EC
:1003300057726974652064656661756C74207661B6
:100340006C75657320746F20454550524F4D2E0AD1
:10035000007267626C696768745F696E69742065B2
:1003600065636F6E666967206973206E6F742065C0
:100370006E61626C65642E0A007267626C69676800
:10038000745F696E6974207374617274210A0072FB
:1003900067626C696768745F696E69742063616C19
:1003A0006C65642E0A007267626C696768745F63CB
:1003B0006F6E6669672E76616C203D2025640A00A9
:1003C0007267626C696768745F636F6E6669672ED7
:1003D000736174203D2025640A007267626C69674E
:1003E00068745F636F6E6669672E687565203D206F
:1003F00025640A007267686C696768745F636F6E72
:100400006669672E6D6F6465203D2025640A007261
:1004100067626C696768745F636F6E6669672E6593
:100420006E61626C65203D2025640A007267626C13
:10043000696768745F636F6E666967206570726F65
:100440006D0A006565636F6E6669675F77726974D0
:10045000655F7267626C696768745F646566617521
:100460006C740A00643214643214783C1E1E140A40
:100470000500000000010101020203040505060752
:10048000090A0B0C0E0F1112141517191B1D1F2131
:100490002325282A2C2F313436393B3E4143464907
:1004A0004C4F5255585A5D6164676A6D7073767926
:1004B0007C7F8386898C8F9295989B9EA2A5A7AA04
:1004C000ADB0B3B6B9BCBEC1C4C6C9CBCED0D3D50E
:1004D000D7DADCDEE0E2E4E6E8EAEBEDEEF0F1F3B9
:1004E000F4F5F6F8F9FAFAFBFCFDFDFEFEFEFFFF5F
:1004F000FFFFFFFFFFFEFEFEFDFDFCFBFAFAF9F831
:10050000F6F5F4F3F1F0EEEDEBEAE8E6E4E2E0DE36
:10051000DCDAD7D5D3D0CECBC9C6C4C1BEBCB9B640
:10052000B3B0ADAAA7A5A29E9B9895928F8C898601
:1005300083807C797673706D6A6764615D5A585503
:10054000524F4C494643413E3B393634312F2C2AD9
:10055000282523211F1D1B1917151412110F0E0C0E
:100560000B0A090706050504030202010101000048
:10057000000001010202020202020303030303035B
:100580000303030303030303040404040404040433
:10059000040404040505050505050505050506060D
:1005A00006060606060607070707070707080808DE
:1005B0000808080909090909090A0A0A0A0A0B0BA5
:1005C0000B0B0B0C0C0C0C0C0D0D0D0D0E0E0E0E62
:1005D0000F0F0F101010101111111212121313130C
:1005E0001414141515161616171718181919191AA0
:1005F0001A1B1B1C1C1D1D1E1E1F20202121222317
:10060000232424252626272828292A2B2B2C2D2E67
:100610002F30303132333435363738393A3B3C3D80
:100620003E3F40414244454647494A4B4C4E4F515C
:1006300052535556585A5B5D5E6062636567696BDD
:100640006D6E70727476797B7D7F818486888B8DE8
:10065000909295979A9D9FA2A5A8ABAEB1B4B7BA58
:10066000BEC1C4C8CBCFD3D6DADEE2E6EAEEF2F8FA
:10067000FF4B6579626F6172642073746172742ECE
:100680000A0055534220636F6E6669677572656430
:100690002E0A000D0A696E69740A005B445D005BF6
:1006A000435D002803540068006500200066006F69
:1006B000006F0062006100720020004B006500794D
:1006C0000062006F0061007200640000000C0364AF
:1006D0000069003000690062000000040309040999
:1006E000028D00050100A032090400000103010190
:1006F00000092111010001224000070581030800C3
:100700000A0904010001030102000921110100018D
:10071000224D000705820308000A090402000103B4
:1007200000000009211101000122360007058303A2
:1007300008000A0904030002030000000921110156
:10074000000122220007058403200001070504039D
:100750002000010904040001030000000921110127
:100760000001223900070585032000011201100154
:1007700000000008EDFE0C0A000F01020001050157
:100780000906A101050719E029E7150025019508CB
:100790007501810205081901290595057501910268
:1007A0009501750391010507190029F71500250129
:1007B00095F875018102C00631FF0974A101097520
:1007C000150026FF00952075088102097615002680
:1007D000FF00952075089102C005010980A10185DF
:1007E0000216810026B7001A81002AB700751095FD
:1007F000018100C0050C0901A10185031601002635
:100800009C021A01002A9C02751095018100C00506
:10081000010902A1010901A1000509190129051514
:10082000002501950575018102950175038101057A
:1008300001093009311581257F9502750881060966
:10084000381581257F950175088106050C0A380247
:100850001581257F950175088106C0C0050109062F
:10086000A101050719E029E7150025019508750183
:100870008102950175088101050819012905950571
:10088000750191029501750391010507190029FF72
:10089000150026FF00950675088100C0636F6E7312
:1008A000756D65723A20253034580A007379737477
:1008B000656D3A20253034580A000A002530325838
:1008C00020006B6579626F6172643A20004C454488
:1008D0003A20253032580A0064656C5F6B65795F99
:1008E0006269743A2063616E27742064656C3A20F3
:1008F000253032580A006164645F6B65795F626914
:10090000743A2063616E2774206164643A20253054
:1009100032580A00646F6E652E0A00626F6F746D44
:1009200061676963207363616E3A202E2E2E20006A
:10093000290A002575002F002575005D2800256413
:1009400000200025640020002564002000256400AC
:100950007C0025303258006D6F7573656B657920AA
:100960005B62746E7C782079207620685D287265E1
:10097000702F61636C293A205B006D6B5F7768654F
:10098000656C5F74696D655F746F5F6D6178203D44
:100990002025640A006D6B5F776865656C5F6D612B
:1009A000785F7370656564203D2025640A006D6B77
:1009B0005F74696D655F746F5F6D6178203D2025A0
:1009C000640A006D6B5F6D61785F737065656420AC
:1009D0003D2025640A006D6B5F696E7465727661F7
:1009E0006C203D2025640A006D6B5F64656C617945
:1009F000203D2025640A006D6B5F776865656C5F3C
:100A000074696D655F746F5F6D6178203D2025644A
:100A10000A006D6B5F776865656C5F6D61785F7309
:100A200070656564203D2025640A006D6B5F746904
:100A30006D655F746F5F6D6178203D2025640A00ED
:100A40006D6B5F6D61785F7370656564203D202517
:100A5000640A006D6B5F696E74657276616C203D2F
:100A60002025640A006D6B5F64656C6179203D2010
:100A700025640A000A00257500363A207768656506
:100A80006C5F74696D655F746F5F6D61783A2000AB
:100A90000A00257500353A20776865656C5F6D61E1
:100AA000785F73706565643A20000A00257500342C
:100AB0003A2074696D655F746F5F6D61783A2000EC
:100AC0000A00257500333A206D61785F73706565A3
:100AD000643A20000A00257500323A20696E746578
:100AE0007276616C286D73293A20000A0025750022
:100AF000313A2064656C6179282A31306D73293A66
:100B000020000A092D2056616C756573202D0A009E
:100B10004D3E004D25643E20003F00736574206407
:100B2000656661756C740A00433E200077686572E3
:100B3000652064656C74613A20637572736F723DF1
:100B400025642C20776865656C3D25640A536565CE
:100B500020687474703A2F2F656E2E77696B6970F8
:100B6000656469612E6F72672F77696B692F4D6FAE
:100B70007573655F6B6579730A000A092D204D6FE7
:100B80007573656B6579202D0A4553432F713A09BA
:100B9000717569740A313A0964656C6179282A3182
:100BA000306D73290A323A09696E74657276616C28
:100BB000286D73290A333A096D61785F7370656532
:100BC000640A343A0974696D655F746F5F6D6178AA
:100BD0000A353A09776865656C5F6D61785F737097
:100BE0006565640A363A09776865656C5F74696D96
:100BF000655F746F5F6D61780A0A703A0970726997
:100C00006E742076616C7565730A643A0973657455
:100C10002064656661756C74730A75703A092B31CE
:100C20000A646F776E3A092D310A706775703A0958
:100C30002B31300A7067646F776E3A092D31300AB4
:100C40000A7370656564203D2064656C7461202AB8
:100C5000206D61785F7370656564202A2028726555
:100C600070656174202F2074696D655F746F5F6DAE
:100C70006178290A003F004D3E2000433E20004C91
:100C800025640A000A092D20436F6E736F6C65207E
:100C90002D0A4553432F713A09717569740A6D3AEB
:100CA000096D6F7573656B65790A000A092D204D12
:100CB00061676963202D0A643A0964656275670A91
:100CC000783A096465627567206D61747269780AA3
:100CD0006B3A096465627567206B6579626F617252
:100CE000640A6D3A096465627567206D6F75736596
:100CF0000A763A0976657273696F6E0A733A0973F8
:100D000074617475730A633A09636F6E736F6C650F
:100D1000206D6F64650A302D343A096C6179657213
:100D2000302D34284631302D4634290A50617573F0
:100D30003A09626F6F746C6F616465720A653A0993
:100D4000656570726F6D0A6E3A094E4B524F0A7AA2
:100D50003A09736C656570204C4544207465737462
:100D60000A000A002575002E6E6B726F3A20000A89
:100D7000002575002E737761705F6261636B736C21
:100D80006173685F6261636B73706163653A2000D1
:100D90000A002575002E737761705F677261766552
:100DA0005F6573633A20000A002575002E6E6F5F41
:100DB0006775693A20000A002575002E7377617007
:100DC0005F72616C745F726775693A20000A002572
:100DD00075002E737761705F6C616C745F6C677502
:100DE000693A20000A002575002E636170736C6FEC
:100DF000636B5F746F5F636F6E74726F6C3A200029
:100E00000A002575002E737761705F636F6E7472D0
:100E10006F6C5F636170736C6F636B3A20000A00E4
:100E200025303258006B65796D61705F636F6E6657
:100E300069672E7261773A20000A002575002E6DD1
:100E40006F7573653A20000A002575002E6B657971
:100E5000626F6172643A20000A002575002E6D6190
:100E6000747269783A20000A002575002E656E615B
:100E7000626C653A20000A002530325800646562D1
:100E800075675F636F6E6669672E7261773A2000DF
:100E90000A0025750064656661756C745F6C617924
:100EA00065723A20003F004E4B524F3A206F666603
:100EB0000A004E4B524F3A206F6E0A0074696D65FE
:100EC000725F72656164333228293A202530346CB0
:100ED000580A006B6579626F6172645F6E6B726F46
:100EE0003A2025580A006B6579626F6172645F6908
:100EF000646C653A2025580A006B6579626F6172EF
:100F0000645F70726F746F636F6C3A2025580A00CB
:100F1000686F73745F6B6579626F6172645F6C6533
:100F2000647328293A2025580A000A092D20537491
:100F300061747573202D0A004743433A20342E38DC
:100F40002E32204156522D4C4942433A20312E3800
:100F50002E3073766E204156525F415243483A20FC
:100F6000617672350A004F5054494F4E533A204C27
:100F700055464120424F4F544D41474943204D4F24
:100F80005553454B45592045585452414B455920DE
:100F9000434F4E534F4C4520434F4D4D414E4420FF
:100FA0004E4B524F20343039360A004255494C449A
:100FB0003A20756E6B6E6F776E202830373A32307C
:100FC0003A333820536570202035203230313729AC
:100FD0000A005649443A2030784645454428646919
:100FE00030696229205049443A20307830413043FA
:100FF0002854686520666F6F626172204B65796264
:101000006F61726429205645523A2030783046305C
:10101000300A00444553433A20412073706C697490
:10102000203330206B6579206B6579626F61726463
:101030000A000A092D2056657273696F6E202D0A09
:10104000000A6D6F7573653A206F66660A000A6D57
:101050006F7573653A206F6E0A000A6B6579626F6F
:101060006172643A206F66660A000A6B6579626F86
:101070006172643A206F6E0A000A6D617472697859
:101080003A206F66660A000A6D61747269783A20C8
:101090006F6E0A000A64656275673A206F6E0A0017
:1010A0000A64656275673A206F66660A000A0A621A
:1010B0006F6F746C6F616465722E2E2E2000433E3C
:1010C00020006565636F6E6669673A0A00536C6558
:1010D0006570204C454420746573740A000000005C
:1010E0000000000000000000010204060A0F1720A3
:1010F0002C3A4A5D71879DB3C7DAE9F5FCFFFCF530
:10110000E9DAC7B39D87715D4A3A2C20170F0A06AA
:101110000402010000000000000000000000112493
:101120001FBECFEFDAE0DEBFCDBF04B603FE24C0A2
:1011300080917A0290917B02A0917C02B0917D0215
:101140008730904BA740B04BB9F410927A021092BE
:101150007B0210927C0210927D0214BE84B7877FBE
:1011600084BF88E10FB6F89480936000109260000D
:101170000FBEE0E0F8E3099511E0A0E0B1E0E4EC97
:10118000F9E602C005900D92A634B107D9F712E036
:10119000A6E4B1E001C01D92AA37B107E1F70E94B1
:1011A0006D160C94E0340C940000FF93EF93E091E3
:1011B0004601F0914701309709F00995EF91FF91B1
:1011C0000895FC018591803011F0EFDFFBCF089589
:1011D000FF27E0E230E247FF0CC0419597FF09C0CE
:1011E000EDE26095709580959095611D711D811D52
:1011F000911D27FF02C0219530E350E2AA27660F18
:10120000771F881F991FAA1FA41710F0A41B6395AE
:101210005A95A9F7AA3008F0A95FA05DAF93F3959E
:10122000611571058105910541F7ED3211F4EF93D8
:10123000F395F21718F43F93F395FBCF8F91B5DF39
:10124000FA95E1F70895E991F9918591803021F0BF
:10125000853219F0AADFF9CF089520E0E89455917E
:101260005532C1F3503311F4689455915A3348F410
:10127000505390F3220F022E220F220F200D250F24
:10128000F4CF0EF4219589919991533619F3533780
:1012900029F1533559F1BC0188279927E8945C3628
:1012A00021F48991999168945591543639F446EF17
:1012B0007EF077FF0DC08FEF9FEF0AC055374AE0F1
:1012C00039F0583540E121F0523642E009F00895F6
:1012D000FF93EF937DDFEF91FF91B7CFFF93EF93F4
:1012E000FC0181918030B9F360DFFBCFFF93EF9376
:1012F00068DFF1CFDF93CF93CDB7DEB72596A3DFBD
:10130000CF91DF910895462F50E04830510538F5D0
:10131000FA01EA5AFF4FDC0112968C910C949B342F
:101320008823E9F00C9400118823C9F00C94650F10
:101330008823A9F00C947E0F882389F00C949D0FCC
:10134000882369F00C94B80F882349F00C94D20FCD
:10135000882329F00C94ED0F81110C94F610089558
:10136000ACE1B1E021E030E08D91E82FE295EF7043
:10137000F0E041A18F70B90102C0660F771F8A9516
:10138000E2F7CB01962F9095492341A392A1982B88
:1013900092A371E0AF31B70739F7089585B7806838
:1013A00085BF85B7806885BF80914502836088606E
:1013B000809345020E94B009A7E1B1E021E030E04E
:1013C0008D91E82FE295EF70F0E041A18F70B901A7
:1013D00002C0660F771F8A95E2F7CB01962F909592
:1013E000492341A392A1982B92A371E0AC31B70796
:1013F00039F7559A209A289A5D9A0E949510EEE442
:10140000F1E0A8E4B1E011921D9281E0E435F80723
:10141000D1F708959F92AF92BF92CF92DF92EF9251
:10142000FF920F931F93CF93DF9380910101882345
:1014300019F0C0E0D0E002C0C3E0D0E08CE1A82EFB
:1014400081E0B82E00E010E0EE24E394F12CAE0130
:10145000485B5E4F6A0125E0922ED5018D915D01BA
:10146000E82FE295EF70F0E021A18F70A70102C094
:10147000440F551F8A95E2F7CA01242B21A392A19C
:101480008095982392A350EA5A95F1F7E7E1F1E0AD
:1014900080E090E040E05191A52FA295AF70B0E0C0
:1014A00090962C9130E05F7002C0359527955A9543
:1014B000E2F720FD07C02E2D082E01C0220F0A944E
:1014C000EAF701C020E0422B01968530910519F71B
:1014D000F601E00FF11F8081841719F0408390928C
:1014E00000010E94B0090F5F1F4F0330110509F082
:1014F000B4CF80910001882321F1815080930001B5
:10150000882339F08FE99FE00197F1F700C00000D0
:1015100018C0FE01E25BFE4FD6018C918083CE01A4
:101520000196FC01E25BFE4FDC01A85BBE4F8C9193
:1015300080832296FE01E25BFE4FC85BDE4F88810E
:10154000808381E0DF91CF911F910F91FF90EF9009
:10155000DF90CF90BF90AF909F900895CF93DF938F
:1015600080910101882319F0C3E0D0E002C0C0E0FF
:10157000D0E00E947F0C009769F420919901FE0150
:10158000E25BFE4F208320919A01218320919B01F1
:10159000228302C081E090E0DF91CF910895CF9344
:1015A0000E940A0AC82F0E94AE0A892BB9F05D98E2
:1015B000909154019F5F90935401963090F08091E8
:1015C0000101882319F0E3E0F0E002C0E0E0F0E080
:1015D000E25BFE4F10821182128203C05D9A10926C
:1015E00054018C2FCF9108950E940A0A8091010125
:1015F000882319F0E0E0F0E002C0E3E0F0E0E25B15
:10160000FE4F808180939901818180939A0182812C
:1016100080939B010895E82FF0E0E25BFE4F80810C
:101620000895CF92DF92EF92FF920F931F93CF9383
:10163000DF9388E692E00E94E1083EE4E32E31E089
:10164000F32EC0E0D0E043E6C42E42E0D42E0AE5FB
:1016500012E0DF93CF93DF92CF920E947A0980E667
:1016600092E00E94E108F70181917F0190E00E94E1
:1016700039289F938F931F930F930E947A0988E5CF
:1016800092E00E94E10821968DB79EB708960FB6AA
:10169000F8949EBF0FBE8DBFC630D105D1F6DF9145
:1016A000CF911F910F91FF90EF90DF90CF90089511
:1016B0001F920F920FB60F9211248F939F93EF9367
:1016C000FF938091B900887F803869F038F48823CF
:1016D000C9F18036C9F51092550136C0883A09F132
:1016E000883BF9F031C080915501811111C0809182
:1016F000BB008093560180915601803420F01092F7
:10170000560180E001C081E091E0909355011DC039
:10171000E0915601F0E08091BB00E95AFE4F8083D2
:1017200008C0E0915601F0E0E95AFE4F80818093B5
:10173000BB008091560190E001968F7399278093AA
:10174000560102C01092BC0081E09091BC009568E7
:101750008295880F880F807C892B8093BC00FF9135
:10176000EF919F918F910F900FBE0F901F90189542
:10177000509A08955098589A0895589A08951F932A
:10178000CF93DF93C82F0E94B80B18E0D0E0115020
:1017900088F0CE01012E02C0959587950A94E2F754
:1017A00080FF03C00E94BD0B01C0589880E88A9555
:1017B000F1F7EDCFDF91CF911F9108950E94BA0B01
:1017C000489BFECF80E88A95F1F708950E94BA0BF6
:1017D00098E080E029B12170880F822B20E82A95BB
:1017E000F1F725E02A95F1F70000915099F7089557
:1017F0000E94B80B589880E88A95F1F70C94BD0BBD
:101800000E94B80B0C94BD0B0E94BA0BE89AE9E653
:10181000F0E080818C7F808308951F920F920FB635
:101820000F921124CF92DF92FF920F931F932F9369
:101830003F934F935F936F937F938F939F93AF9358
:10184000BF93EF93FF93CF93DF931F92CDB7DEB794
:101850000E94F80BC12CD12CF12C860107561E4F8B
:10186000F80180810E94BF0B0E94F80BF801808173
:10187000F80EFFEFCF1ADF0A83E0C816D10469F72C
:101880008F2D0E94BF0B0E94F80BE0E8EA95F1F75C
:10189000F0E4FA95F1F70E94E60B809398010E941C
:1018A000F80B109198010E94E60B89830E94F80BB7
:1018B0000E94BA0B8981181721F0809197018160ED
:1018C00003C0809197018E7F809397010F90DF91E5
:1018D000CF91FF91EF91BF91AF919F918F917F91A8
:1018E0006F915F914F913F912F911F910F91FF90B9
:1018F000DF90CF900F900FBE0F901F901895CF9252
:10190000DF92FF920F931F93CF93DF931F92CDB778
:10191000DEB7F8940E94B80B589885E08A95F1F7E5
:1019200000000E94BA0B0E94BD0BE0E8EA95F1F7B7
:10193000489934C00E94DE0BC12CD12CF12C0E949E
:10194000E60B860107561E4FF80180830E94DE0BCE
:10195000F8018081F80EFFEFCF1ADF0A83E0C81686
:10196000D10469F70E94E60B89830E94DE0B89810E
:10197000F81214C0809198010E94BF0B0E94DE0BE8
:10198000809198010E94BF0B0E94DE0B0E94B80B51
:101990000E94BD0B789480E090E003C0789481E0D1
:1019A00090E00F90DF91CF911F910F91FF90DF900A
:1019B000CF900895E8EDF0E08081806180838AE136
:1019C0008A95F1F700C08091D9008170089587E071
:1019D00090E00E94A13491E0811101C090E09093C9
:1019E00001010E94DA0C882319F00E94000C02C049
:1019F0000E94040C789408950E94CE090E94F40A73
:101A0000FDCF0E94E70C0E94DA0C811102C00E94F7
:101A1000FC0C08950895CF92DF92EF92FF920F93FE
:101A20001F93CF93DF937C01E42FF0E0EF58FA4F40
:101A30004491EFEFF0E0E61BF109EF58FA4FE49123
:101A4000E09509F498C0042F10E08FEF90E08E1B12
:101A50009109809FB001819F700D909F700D11249E
:101A6000E72FF72FCCE3D0E0C701BE010E9473340B
:101A7000DC016230710509F447C0D8F461157105C5
:101A8000A1F16130710509F07AC00E1B1109CE0178
:101A90008A1B9B0BDC010A9FC0010B9F900D1A9FB4
:101AA000900D1124BE010E947334CE2EC60ED42E8A
:101AB00067C06430710509F44BC0B8F16530710539
:101AC00009F05DC00E1B1109BE01681B790B069F52
:101AD000C001079F900D169F900D1124BE010E941A
:101AE0007334DE2EFE2FF60F44C00E1B11090E9D1F
:101AF000C0010F9D900D1E9D900D1124BE010E94EE
:101B00007334DE2ED60E35C00E1B11090A9FC0019C
:101B10000B9F900D1A9F900D1124BE010E947334EB
:101B2000D42ECE2EFE2FF60F2BC00E1B1109BE0198
:101B3000681B790B069FC001079F900D169F900DA3
:101B40001124BE010E947334DE2ED60ECE2E0FC09D
:101B50000E1B11090A9FC0010B9F900D1A9F900D3B
:101B60001124BE010E947334CE2EC60EDE2EF42F39
:101B700007C0C42E05C0F42FD42EC42E01C0F0E03F
:101B8000D9011196CC921197DC921296FC93DF91B9
:101B9000CF911F910F91FF90EF90DF90CF9008951C
:101BA00087E090E00C94A934AB01BC0187E090E0A1
:101BB0000C94C3348091450280FF08C083E494E014
:101BC0009F938F930E947A090F900F9083E08093E8
:101BD000580280915902807884668F7780935902E9
:101BE0008CEC80935A0280935B0260915802709152
:101BF000590280915A0290915B020C94D40D80910D
:101C0000450280FF08C08CE294E09F938F930E946E
:101C10007A090F900F908091450280FF0FC080914C
:101C2000580281701F928F938FE094E09F938F935F
:101C30000E947A090F900F900F900F9080914502AB
:101C400080FF10C08091580286958F731F928F93EA
:101C500084EF93E09F938F930E947A090F900F90E7
:101C60000F900F908091450280FF19C0909158020B
:101C7000991F9927991F20915902822F880F892B2C
:101C800027FB222720F92F938F938AED93E09F93D0
:101C90008F930E947A090F900F900F900F90809170
:101CA000450280FF0EC080915A021F928F9380ECF4
:101CB00093E09F938F930E947A090F900F900F905B
:101CC0000F908091450280FF0EC080915B021F92B1
:101CD0008F9386EA93E09F938F930E947A090F90E7
:101CE0000F900F900F9008958091580280FF06C0CA
:101CF00064E070E080E692E00C94E313E2E6F2E048
:101D0000DF0111971C92DF0112971C92108233960B
:101D100082E0EE36F807A1F7EBCFE2E6F2E0DF0172
:101D200011978C93DF0112976C934083339692E066
:101D3000EE36F907A1F70C94740ECF92DF92EF9272
:101D4000FF920F931F93CF93DF9300D01F92CDB7D5
:101D5000DEB7F82EC92ED62EE42E0091580210912F
:101D6000590220915A0230915B0200935C02109359
:101D70005D0220935E0230935F028091580280FFE3
:101D80001EC09E012F5F3F4F8F2D0E940B0D809133
:101D90005C02F0FA87F980935C02F69420915D0270
:101DA00020782F29C0FA27F920935D02D0925E0295
:101DB000E0925F024B8169818A810E948D0E0F90B3
:101DC0000F900F90DF91CF911F910F91FF90EF90A7
:101DD000DF90CF9008950F931F93CF93DF93C82F79
:101DE000192F062FD42F8091580280FF69C0982F99
:101DF0009E77923029F48C2F912F0E949D0E1AC04D
:101E0000282F26952F739EE3920F9F73943018F41A
:101E1000D0915B020FC0265C2F73293058F4881FC5
:101E20008827881F10915902C12FCC0FC82B17FB90
:101E3000112710F980915802C0FB87F9809358024E
:101E4000C6958091590280788C2B10FB87F980937E
:101E5000590200935A02D0935B026091580270912C
:101E6000590280915A0290915B020E94D40D809198
:101E7000450280FF25C080915B021F928F93809165
:101E80005A021F928F9390915802991F9927991F78
:101E900020915902822F880F892B27FB222720F9B6
:101EA0002F938F9382EA92E09F938F930E947A09F7
:101EB0008DB79EB708960FB6F8949EBF0FBE8DBF24
:101EC000DF91CF911F910F91089520915802221F09
:101ED0002227221F30915902432F440F842F822B37
:101EE00037FB992790F90A9668E671E00E948734DB
:101EF00040915B0260915A020C94EB0E20915802C3
:101F0000221F2227221F30915902432F440F842F72
:101F1000822B37FB992790F98A3091051CF4825A5D
:101F20009E4F01C00A9768E671E00E948734409195
:101F30005B0260915A020C94EB0E60915A02862F5C
:101F400090E08F3E910514F46F5E01C06FEF8091B9
:101F50005802881F8827881F90915902292F220F25
:101F600097FB992790F940915B02822B0C94EB0E22
:101F700060915A02862F90E0419714F0615101C0A0
:101F800060E080915802881F8827881F909159022D
:101F9000292F220F97FB992790F940915B02822B02
:101FA0000C94EB0E40915B02842F90E08F3E9105E4
:101FB00014F44F5E01C04FEF80915802881F8827AC
:101FC000881F90915902292F220F97FB992790F98A
:101FD00060915A02822B0C94EB0E40915B02842F8D
:101FE00090E0419714F0415101C040E080915802C7
:101FF000881F8827881F90915902292F220F97FB4D
:10200000992790F960915A02822B0C94EB0E8091E3
:10201000AD0181110FC081E08093AD0189E0809313
:1020200091008FB7F89493E09093990090ED90937E
:1020300098008FBF08958091710082608093710035
:102040008091450280FF08C081E992E09F938F93C1
:102050000E947A090F900F900895809171008D7FF2
:10206000809371008091450280FF08C08FE792E065
:102070009F938F930E947A090F900F9008959091EB
:10208000580290FF51C09178811102C0926003C044
:10209000883120F09E629093580205C08F73880F9C
:1020A000892B809358026091580270915902809157
:1020B0005A0290915B020E94D40D8091450280FFEC
:1020C00010C08091580286958F731F928F9385EF71
:1020D00092E09F938F930E947A090F900F900F9038
:1020E0000F9080915802982F9E77923019F40E9499
:1020F0002D1007C08695825C8F73863110F40E9484
:102100001B1080915802881F8827881F90915902C0
:10211000292F220F97FB992790F940915B0260913C
:102120005A02822B0C94EB0E089580914502816037
:10213000809345028FE893E09F938F930E947A09E2
:1021400081E08093AE01809145020F900F9080FF57
:1021500008C089E793E09F938F930E947A090F90BC
:102160000F900E94E12A811110C08091450280FFEA
:1021700008C081E593E09F938F930E947A090F90A6
:102180000F900E94C72A0E94DA0D0E94D00D609322
:1021900058027093590280935A0290935B026E77B3
:1021A000C1F48091450280FF08C088E093E09F93CE
:1021B0008F930E947A090F900F900E94DA0D0E946F
:1021C000D00D609358027093590280935A029093F5
:1021D0005B020E94FF0D0E9407108091580280FF51
:1021E00004C086958F730C943F1008958091580217
:1021F00086958F738F5F883108F081E00C943F10D3
:1022000080915802982F909590FB80F98093580206
:10221000609158027091590280915A0290915B022C
:102220000E94D40D8091450280FF0FC0809158021A
:1022300081701F928F9387EC92E09F938F930E94FF
:102240007A090F900F900F900F908091580280FFA5
:1022500004C086958F730C943F100E942D102FEFB1
:1022600080E792E0215080409040E1F700C00000FC
:102270000C94740ECF93C82F8091AB019091AC0158
:102280000E94A328EC2FF0E0E359FB4FE491F0E02B
:102290008E179F0710F10E948B289093AC018093BA
:1022A000AB01E091AA01F0E0EF58FB4F449180911F
:1022B0005802881F8827881F90915902292F220FC2
:1022C00097FB992790F960915A02822B0E949D0EEC
:1022D0008091AA018F5F8093AA01CF910895CF9337
:1022E000C82F8091A8019091A9010E94A328EC2FEA
:1022F000F0E0E659FB4FE491F0E08E179F07E8F01D
:102300000E948B289093A9018093A80140915B02C1
:1023100060915A028091A6019091A7010E949D0EA2
:102320008091A6019091A701019668E671E00E9454
:1023300073349093A7018093A601CF910895DF9203
:10234000EF92FF920F931F93CF93DF93D82E80913C
:10235000A4019091A5010E94A328ED2DE695F0E03F
:10236000E659FB4FE491F0E08E179F07F0F10E94D1
:102370008B289093A5018093A40100E612E0C0E0B1
:10238000D0E088E6E82EFF24F3948091A20190919A
:10239000A3018C0F9D1FB7010E94733498014091D7
:1023A0005B0260915A020E940B0DC65ADF4F0D5F0F
:1023B0001F4FC83681E0D80741F70E94740E209164
:1023C000A2013091A301D0FE0AC0C9010196BE014D
:1023D0000E9473349093A3018093A20106C0215000
:1023E00031093093A3012093A201DF91CF911F9176
:1023F0000F91FF90EF90DF9008958F929F92AF9290
:10240000BF92CF92DF92EF92FF920F931F93CF93E1
:10241000DF93C82F80FD03C09924939402C09924B0
:102420009A948091A0019091A1010E94A328C69541
:10243000EC2FF0E0E959FB4FE491F0E08E179F0795
:1024400008F468C00E948B289093A1018093A0019A
:1024500020E6E22E22E0F22E02E612E0C0E0D0E01A
:1024600037E0A32EB12CF80131971082F7011082CA
:10247000F801108297E0C92ED12C812C80919F0108
:10248000880D87FD8C5F992787FD9095C817D90720
:10249000E9F420915B022C9DC0012D9D900D11242B
:1024A000B5010E948734462F80915802881F8827E3
:1024B000881F90915902592F550F97FB992790F932
:1024C000970160915A02852B0E940B0D890CF1E057
:1024D000CF1AD108C114D10489F6219683E0E80E01
:1024E000F11C0D5F1F4FC430D10509F0BCCF0E9415
:1024F000740E80919F0191E0991206C0811102C073
:102500008DE006C0815004C090E001968370992749
:1025100080939F01DF91CF911F910F91FF90EF90DA
:10252000DF90CF90BF90AF909F908F9008959F9233
:10253000AF92BF92CF92DF92EF92FF920F931F93D1
:10254000CF93DF93CDB7DEB72C970FB6F894DEBFED
:102550000FBECDBF182F80919D0190919E010E94CA
:10256000A328E12FF0E0EC59FB4FE491F0E08E1747
:102570009F0708F491C00E948B2890939E0180933E
:102580009D018E010F5F1F4F6E0183E0C80ED11CAD
:10259000E12CF12C5801F60131971082D8011C92E0
:1025A000F6011082912C9091020180919C01999EDC
:1025B000800D112487FD04C084301CF083E001C02D
:1025C00080E0992787FD9095E816F906A1F480919F
:1025D0005802881F8827881F90915902592F550F3C
:1025E00097FB992790F9980140915B0260915A02FC
:1025F000852B0E940B0D9394F7E09F12D4CF8FEFA1
:10260000E81AF80A0D5F1F4FA3E0CA0ED11CB4E010
:10261000EB16F10409F0BFCF62E672E08BE090E0C8
:102620009C0123703327AB0141505109F901EE0F92
:10263000FF1FE20FF31FEA0DFB1D2181DA012C932E
:102640009B01225031094081D9014C932281FB0129
:10265000208301966D5F7F4F8F30910509F70E94AF
:10266000740E9091020180919C01913049F48A3F4F
:102670002CF489EF80939C018FEF08C081500AC031
:102680008B303CF08AE080939C0181E080930201D2
:1026900003C08F5F80939C012C960FB6F894DEBF29
:1026A0000FBECDBFDF91CF911F910F91FF90EF90A3
:1026B000DF90CF90BF90AF909F9008951F920F92A0
:1026C0000FB60F9211242F933F934F935F936F9305
:1026D0007F938F939F93AF93BF93EF93FF938091DB
:1026E000580286958F739EE3980F9F73943020F461
:1026F00082500E943A1123C09AE3980F9F7393303F
:1027000020F486500E946F111AC097E3980F9F73B0
:10271000963020F489500E949F1111C091E3980FC8
:102720009F73963020F48F500E94FD1108C09BE2E9
:10273000980F9F73933018F485510E949712FF9160
:10274000EF91BF91AF919F918F917F916F915F9129
:102750004F913F912F910F900FBE0F901F901895A2
:1027600035B1242F2095232335B1342B4FB7F8945E
:10277000FC01680F791FE617F70789F0819198E04F
:1027800035B9000000C087FF25B9880F000000C0E0
:1027900000C000C025B900C09A9591F7ECCF4FBF9B
:1027A000089524B1242B24B99B01220F331F260F37
:1027B000371FB9010E94B01387EC90E00197F1F741
:1027C00000C00000089540E40C94D1138091D3011F
:1027D00008959FB7F8941092B2019FBF9091700234
:1027E000943009F058C09091E9009F702091EC005E
:1027F00020FF02C020E801C020E0292B94E0909344
:10280000E9009091EB0090FF43C09091EE0097FF9C
:102810003FC09091AF01992321F09091E80095FF7E
:1028200037C01092AF0196E03091E80035FD15C039
:1028300030917002343061F53091EB0035FD28C0E5
:10284000915021F481E08093AF0122C0EFE9FFE0D5
:102850003197F1F700C00000E7CF8093F10080913D
:10286000E80085FD0AC08091E80080FFFCCF8091E0
:10287000E8008E778093E80006C08FB7F89491E067
:102880009093B2018FBF2F702093E90080E00895EC
:102890002F702093E9008FEF0895CF93DF9300D03E
:1028A0001F92CDB7DEB720917002243019F523E0D6
:1028B00029839B838A832093E9008FEF9091E8001E
:1028C000815095FD06C095ED9A95F1F700008111B4
:1028D000F5CF8091E80085FF0DC040E050E063E057
:1028E00070E0CE0101960E9431178091E8008E774A
:1028F0008093E8000F900F900F90DF91CF91089593
:10290000CF93DF9300D01F92CDB7DEB72091700236
:10291000243021F522E029839B838A8383E08093FE
:10292000E9008FEF9091E800815095FD06C095ED8C
:102930009A95F1F700008111F5CF8091E80085FFAD
:102940000DC040E050E063E070E0CE0101960E94CF
:1029500031178091E8008E778093E8000F900F90F8
:102960000F90DF91CF910895209170022430F1F4FF
:1029700022E02093E9002FEF3091E800215035FD4F
:1029800006C035ED3A95F1F700002111F5CF209101
:10299000E80025FF0BC040E050E065E070E00E94D9
:1029A00031178091E8008E778093E8000895CF93E7
:1029B000DF93EC0180917002843009F047C0809170
:1029C0000D018823E1F080910E018823C1F085E09C
:1029D0008093E9008FEF9091E800815095FD06C04B
:1029E00095E19A95F1F700008111F5CF8091E8000B
:1029F00085FF2CC040E050E060E270E017C081E04D
:102A00008093E9008FEF9091E800815095FD06C01A
:102A100095ED9A95F1F700008111F5CF8091E800CE
:102A200085FF14C040E050E068E070E0CE010E94F5
:102A300031178091E8008E778093E80080E2FE01F4
:102A4000A3EBB1E001900D928A95E1F7DF91CF9170
:102A500008958FE996E00E94E10880916F0281114C
:102A600009C00E94C3180E9420198091E20084606E
:102A70008093E20008958BE996E00E94E1081092AD
:102A80006F02089508958091B0018F5F8093B00127
:102A900062E30E946734911135C01092B0018091B9
:102AA000B201882379F180917002843049F58091D8
:102AB000E9008F709091EC0090FF02C090E801C097
:102AC00090E0982B84E08093E9008091EB0080FFF8
:102AD00014C08091EE0087FF10C08091E80085FF50
:102AE00003C01092F100F9CF8091E80080FF05C08B
:102AF0008091E8008E778093E8009F709093E900C2
:102B00001092B201089542E061EC81E00E943D180C
:102B100042E061EC82E00E943D1842E061EC83E01B
:102B20000E943D1842E261EC84E00E943D1842E2BE
:102B300061EC85E00C943D1880917202833009F4B9
:102B400055C030F4813071F0823009F48EC00895A0
:102B50008A3009F47AC08B3009F460C0893009F0FA
:102B60009CC020C080917102813A09F096C080918A
:102B7000E800877F8093E80080917502909176024B
:102B8000892B21F060E080E090E003C060E283EBFD
:102B900091E070E00E947A178091E8008B77809333
:102BA000E800089580917102813209F076C0809129
:102BB000750290917602009719F0049709F06DC0A4
:102BC0008091E800877F8093E8008091E80082FD93
:102BD00005C0809170028111F8CF5FC08091F10033
:102BE0008093D3018091E8008B7753C0809171026C
:102BF000813A09F052C08091750290917602892B3A
:102C000009F04BC08091E800877F8093E8008091B5
:102C1000E80080FFFCCF80910D0136C080917102E9
:102C20008132D9F58091750290917602892BA9F5B0
:102C30008091E800877F8093E8000E94721880915D
:102C4000730280930D010C94BF2180917102813237
:102C500021F58091E800877F8093E8000E94721838
:102C6000809174028093D401089580917102813A19
:102C7000A1F48091E800877F8093E8008091E800CC
:102C800080FFFCCF8091D4018093F1008091E80017
:102C90008E778093E8000C94721808950895089533
:102CA0008091D3018093B1011092D30180E00E9402
:102CB0000A0D0E941E1D0E94BF210C94F6320C9436
:102CC00050160E94682880916E02882329F00E9485
:102CD000692881110C941B17089584B7877F84BFDE
:102CE00088E10FB6F89480936000109260000FBEE8
:102CF00090E080E80FB6F8948093610090936100B3
:102D00000FBE89EE93E10E94222883E996E00E949B
:102D1000E1080E944E160E94571C0E94C3180E9490
:102D200020198091E20084608093E2007894809181
:102D300070028430E1F782E896E00E94E1080E9488
:102D4000591C83E091E00E949A1B0E94E43281E7C3
:102D500096E00E94E1080E944F1680917002853033
:102D600019F40E946116F9CF0E945F1CF6CF0E94F1
:102D70007E280E94FC328091B1018093D301089596
:102D80000C94B716292F332723303105A9F06CF4A2
:102D90002130310509F442C02230310509F043C029
:102DA0008DE890E02FED36E042C021323105C9F0C8
:102DB0002232310519F137C099278130910541F050
:102DC0008230910541F0892B71F5EBEDF6E005C0FD
:102DD000EDECF6E002C0E3EAF6E0849190E09F01BA
:102DE00026C0653000F5E62FF0E0EE0FFF1FEF5C28
:102DF000FE4F2081318189E090E019C0653098F460
:102E0000E62FF0E0DF01AA0FBB1FA95DBE4F2D9199
:102E10003C91EE5DFE4F808190E009C082E190E040
:102E20002CE637E004C080E090E020E030E0FA01DA
:102E300031832083089580E189BD82E189BD09B491
:102E400000FEFDCF8091D8008F7D8093D8008091C7
:102E5000E00082608093E0008091E00081FDFCCF83
:102E60000895CF92DF92EF92FF920F931F93CF932B
:102E7000DF937C018B01EA010E949318811131C01C
:102E8000209731F088819981081B190BE80EF91EF3
:102E9000C12CD12C0115110519F18091E80085FD97
:102EA00014C08091E8008E778093E800209741F06D
:102EB000888199818C0D9D1D9983888385E011C03F
:102EC0000E949318882331F30CC0F70181917F0190
:102ED0008093F10001501109FFEFCF1ADF0ADACF1A
:102EE00080E0DF91CF911F910F91FF90EF90DF90E5
:102EF000CF900895209177023091780226173707F6
:102F000048F06115710539F42091E8002E7720937F
:102F1000E80001C0B901FC0120E061157105B9F1BB
:102F200080917002882309F440C0853009F43FC0C5
:102F30008091E80083FD3DC08091E80082FF06C0DB
:102F40008091E80082FF26C080E008958091E8002B
:102F500080FFE3CF2091F3008091F20090E0922B6C
:102F60006115710551F08830910538F42191209355
:102F7000F100615071090196F3CF21E0089709F043
:102F800020E08091E8008E778093E800C6CF211181
:102F9000C7CFD6CF80917002882339F0853039F0C1
:102FA0008091E80083FFCCCF04C082E0089583E0E5
:102FB000089581E0089520917702309178022617D4
:102FC000370748F06115710539F42091E8002E7734
:102FD0002093E80001C0B901FC0120E061157105F2
:102FE000C1F180917002882309F441C0853009F451
:102FF00040C08091E80083FD3EC08091E80082FFE0
:1030000006C08091E80082FF27C080E0089580918B
:10301000E80080FFE3CF2091F3008091F20090E080
:10302000922B6115710559F08830910540F4249177
:103030002093F1003196615071090196F2CF21E0A1
:10304000089709F020E08091E8008E778093E800EF
:10305000C5CF2111C6CFD5CF80917002882339F01A
:10306000853039F08091E80083FFCBCF04C082E047
:10307000089583E0089581E00895982F973058F5DA
:103080009093E900981739F07091EC002091ED00D1
:103090005091F00003C0242F762F50E021FF19C07B
:1030A0003091EB003E7F3093EB003091ED003D7F9F
:1030B0003093ED003091EB0031603093EB00709372
:1030C000EC002093ED005093F0002091EE0027FFDC
:1030D00007C09F5FD3CF8F708093E90081E0089590
:1030E00080E008958091710287FD05C08091E8001D
:1030F00080FF0EC012C08091E80082FD05C0809163
:1031000070028111F8CF08958091E8008B7708C094
:10311000809170028111EACF08958091E8008E7746
:103120008093E80008958091E4009091E50045E6E1
:103130002091EC0020FF21C02091E80020FD21C05B
:1031400020917002222389F0253089F02091EB0034
:1031500025FD0FC02091E4003091E50028173907C4
:1031600039F3415041F0C901E3CF82E0089583E093
:10317000089581E0089584E008952091E80022FFF9
:10318000DFCF80E008950E9431190E943919E0EEE6
:10319000F0E0808181608083E8EDF0E080818F77CE
:1031A000808319BCA7EDB0E08C918E7F8C938081D9
:1031B0008F7E808310926F0208950F931F93CF9399
:1031C000DF930E9431190E943919C8EDD0E088813F
:1031D0008F77888388818068888388818F7D8883C2
:1031E00019BC1092700210926C0210926E02109232
:1031F0006D0200EE10E0F80180818B7F8083888172
:103200008160888342E060E080E00E943D18E1EE4A
:10321000F0E080818E7F8083E2EEF0E0808181604B
:103220008083808188608083F80180818E7F8083A5
:10323000888180618883DF91CF911F910F910895DC
:10324000E8EDF0E080818F7E8083E7EDF0E0808123
:103250008160808384E082BF81E080936F020C9460
:10326000DD18E8EDF0E080818E7F80831092E2002F
:1032700008951092DA001092E10008951F920F92C3
:103280000FB60F9211242F933F934F935F936F9339
:103290007F938F939F93AF93BF93EF93FF9380910F
:1032A000E10082FF0BC08091E20082FF07C08091A5
:1032B000E1008B7F8093E1000E9443158091DA004A
:1032C00080FF1FC08091D80080FF1BC08091DA0072
:1032D0008E7F8093DA008091D90080FF0DC080E15D
:1032E00089BD82E189BD09B400FEFDCF81E08093F4
:1032F00070020E94291505C019BC109270020E942C
:103300003B158091E10080FF19C08091E20080FFB1
:1033100015C08091E2008E7F8093E2008091E200F0
:1033200080618093E2008091D80080628093D80011
:1033300019BC85E0809370020E945F168091E100C5
:1033400084FF30C08091E20084FF2CC080E189BD01
:1033500082E189BD09B400FEFDCF8091D8008F7D48
:103360008093D8008091E1008F7E8093E10080916E
:10337000E2008F7E8093E2008091E2008160809382
:10338000E20080916C02882311F084E007C08091F4
:10339000E30087FF02C083E001C081E080937002F8
:1033A0000E94C0168091E10083FF29C08091E20055
:1033B00083FF25C08091E100877F8093E10082E058
:1033C0008093700210926C028091E1008E7F809356
:1033D000E1008091E2008E7F8093E2008091E20024
:1033E00080618093E20042E060E080E00E943D184E
:1033F0008091F00088608093F0000E944215FF9158
:10340000EF91BF91AF919F918F917F916F915F915C
:103410004F913F912F910F900FBE0F901F901895D5
:103420001F920F920FB60F9211242F933F934F9339
:103430005F936F937F938F939F93AF93BF93CF933C
:10344000EF93FF93C091E900CF708091EC00109250
:10345000E9008091F000877F8093F00078940E94CB
:103460004C1A1092E9008091F00088608093F0007F
:10347000C093E900FF91EF91CF91BF91AF919F91E0
:103480008F917F916F915F914F913F912F910F900D
:103490000FBE0F901F9018951F93CF93DF93CDB75A
:1034A000DEB7AA970FB6F894DEBF0FBECDBFE1E737
:1034B000F2E08091F100819322E0E937F207C9F749
:1034C0000E949C158091E80083FF1CC1209171022D
:1034D00030917202832F90E08A30910508F012C17A
:1034E000FC01E25AFF4F0C949B34203881F02238C3
:1034F00009F008C1809175028F708093E900809176
:10350000EB0085FB882780F91092E90006C08091C6
:103510006D0290916E02911182609091E800977F08
:103520009093E8008093F1001092F100C5C0822FC3
:103530008D7F09F0E7C0222319F0223061F0E2C04C
:1035400080917302813009F0DDC0333009F080E0F2
:1035500080936E0228C080917302811124C0209153
:1035600075022F7009F4CEC02093E9008091EB0022
:1035700080FF19C08091EB00333011F4806211C0DC
:1035800080618093EB0081E090E0022E01C0880F03
:103590000A94EAF78093EA001092EA008091EB0027
:1035A00088608093EB001092E9008091E800877FAB
:1035B00086C02111A7C0109173021F778091E3008C
:1035C0008078812B8093E3008091E800877F80934F
:1035D000E8000E9472188091E80080FFFCCF809183
:1035E000E30080688093E300112311F083E001C0C1
:1035F00082E08093700286C02058223008F082C09A
:1036000080917302909174028C3D23E0920779F5CA
:1036100083E08A838AE289834FB7F894DE011396A8
:1036200020E03EE051E2E32FF0E050935700E491B8
:1036300020FF03C0E295EF703F5FEF708E2F90E0A8
:10364000EA3010F0C79601C0C0968D939D932F5F0E
:10365000243149F74FBF8091E800877F8093E800CD
:103660006AE270E0CE0101960E947A1714C0AE01A2
:103670004F5F5F4F609175020E94C216009709F478
:1036800041C02091E800277F2093E800BC01898198
:103690009A810E94DB178091E8008B778093E80085
:1036A00031C0203879F58091E800877F8093E80069
:1036B00080916C028093F1008091E8008E77809376
:1036C000E8000E9472181EC021111CC09091730264
:1036D0009230C0F48091E800877F8093E800909357
:1036E0006C020E94721880916C02811104C080915A
:1036F000E30087FF02C084E001C081E08093700294
:103700000E9483158091E80083FF0AC08091E80041
:10371000877F8093E8008091EB0080628093EB00CC
:10372000AA960FB6F894DEBF0FBECDBFDF91CF9142
:103730001F9108959093DA018093D9010895E09143
:10374000D901F091DA01309721F00190F081E02D5C
:10375000099480E00895FF920F931F93CF93DF9316
:103760008C01E091D901F091DA01309799F1028052
:10377000F381E02D09958091450282FF2BC080FFE7
:1037800004C082EC98E00E94E108E80180E2F82E93
:103790000CEB18E08091450280FF0BC088811F92DE
:1037A0008F931F930F930E947A090F900F900F90A1
:1037B0000F90FA942196F110EDCF8091450280FF91
:1037C00009C08AEB98E0DF91CF911F910F91FF9094
:1037D0000C94E108DF91CF911F910F91FF90089514
:1037E000E091D901F091DA01309721F00480F58160
:1037F000E02D09940895CF93DF93EC018091D701D8
:103800009091D801C817D90709F1D093D801C09376
:10381000D701E091D901F091DA013097B9F0068033
:10382000F781E02DCE0109958091450282FF0EC0FF
:1038300080FF0CC0DF93CF938CEA98E09F938F9327
:103840000E947A090F900F900F900F90DF91CF9107
:103850000895CF93DF93EC018091D5019091D6012B
:10386000C817D90709F1D093D601C093D501E091CB
:10387000D901F091DA013097B9F00084F185E02D9B
:10388000CE0109958091450282FF0EC080FF0CC0D9
:10389000DF93CF938CE998E09F938F930E947A09EE
:1038A0000F900F900F900F90DF91CF9108950C948F
:1038B000010D0E9482280E94CE090C947B29CF9290
:1038C000DF92EF92FF920F931F93CF93DF9300D07D
:1038D00000D000D0CDB7DEB70E94CF0A3CEDE32E7A
:1038E00031E0F32E00E010E0C02E802F0E940B0B81
:1038F000F701D1907F01D826B1F40F5F1F4F06303A
:10390000110591F78FEF89838A831B820E948B2890
:103910008160782F9D838C8349815A816B818D8151
:103920000E94211D48C09091450291FF04C08E83E2
:103930000E94110B8E8120E030E04D2D50E0922F3F
:10394000BA01022E02C0759567950A94E2F760FFEE
:103950002CC02983CA82EE24E394F12C02C0EE0C21
:10396000FF1C9A95E2F790E08E219F2121E0892BA0
:1039700009F420E02B830E948B288160782F9D839F
:103980008C8349815A816B818D810E94211D4981DF
:103990005A816B817C818D810E945428F801E45208
:1039A000FE4F80818E25808306C02F5F3F4F2530DC
:1039B000310529F6A2CF0E9453280E94022D1091B2
:1039C000DB010E949F1B181741F10E949F1B8093EF
:1039D000DB019091450292FF0EC090FF0CC01F9238
:1039E0008F938DEC98E09F938F930E947A090F90AC
:1039F0000F900F900F908091DB0126960FB6F894F0
:103A0000DEBF0FBECDBFDF91CF911F910F91FF9011
:103A1000EF90DF90CF900C94652826960FB6F8941F
:103A2000DEBF0FBECDBFDF91CF911F910F91FF90F1
:103A3000EF90DF90CF9008950C940A0D08950895AB
:103A40000895CF93DF93CDB7DEB72B970FB6F894D9
:103A5000DEBF0FBECDBF4F83588769877A878B87BC
:103A60008A859B85892B31F05F3F11F080E003C090
:103A70004F3FE1F781E0811107C04F81588569858B
:103A80007A858B850E945428DE01119686E0FD011F
:103A900011928A95E9F785E0FE01379601900D9223
:103AA0008A95E1F749815A816B817C818D819E8164
:103AB0000E949D242B960FB6F894DEBF0FBECDBF9B
:103AC000DF91CF910895CF93C82F882309F4A8C020
:103AD0008238A1F40E949F1B81FDA2C089E30E944D
:103AE0001A270E94FC272FEF81EE94E0215080409E
:103AF0009040E1F700C0000089E315C08338C1F4AD
:103B00000E949F1B80FD8CC083E50E941A270E94A3
:103B1000FC272FEF81EE94E0215080409040E1F7A8
:103B200000C0000083E50E946B27CF910C94FC2716
:103B30008438A1F40E949F1B82FD72C087E40E941A
:103B40001A270E94FC272FEF81EE94E0215080403D
:103B50009040E1F700C0000087E4E5CF8CEF8C0FC8
:103B6000813A20F080E58C0F8E3248F48C2F0E9431
:103B70009231811155C08C2F0E941A27D6CF80E236
:103B80008C0F883048F4C77081E001C0880FCA9557
:103B9000EAF70E94C027C9CF8BE58C0F833078F4F9
:103BA000C53A29F0C63A31F482E890E005C081E8D0
:103BB00090E002C083E890E0CF910C94FB1B88E575
:103BC0008C0F853168F5C83A89F0C93A91F0CA3A44
:103BD00099F0CB3AA1F0CC3AA9F0CD3AB1F0CE3A77
:103BE000B9F0CF3AC1F487EB90E017C082EE90E0D5
:103BF00014C089EE90E011C08AEE90E00EC085EB13
:103C000090E00BC086EB90E008C083EB90E005C02D
:103C100084EB90E002C080E090E0CF910C94291CEE
:103C2000CF910895882309F46AC08238A1F40E94D4
:103C30009F1B81FF64C089E30E941A270E94FC2712
:103C40002FEF81EE94E0215080409040E1F700C0DA
:103C5000000089E315C08338B9F40E949F1B80FFE0
:103C60004EC083E50E941A270E94FC272FEF81EEA9
:103C700094E0215080409040E1F700C0000083E5CF
:103C80000E946B270C94FC278438A1F40E949F1B90
:103C900082FF35C087E40E941A270E94FC272FEF7D
:103CA00081EE94E0215080409040E1F700C0000098
:103CB00087E4E6CF9CEF980F913A10F390E5980FC8
:103CC0009E32F0F290E2980F983050F4877091E0B5
:103CD00001C0990F8A95EAF7892F0E94C627D2CF93
:103CE0009BE5980F933020F480E090E00C94FB1B50
:103CF000885A853120F480E090E00C94291C0895C6
:103D0000882321F00E94C0270C94FC270895882363
:103D100021F00E94C6270C94FC270895CF92DF92D1
:103D2000EF92FF920F931F93CF93DF93CDB7DEB740
:103D300028970FB6F894DEBF0FBECDBF8C0185E08B
:103D4000F801DE01119601900D928A95E1F7F801D4
:103D500040813181F280258122952F708381948169
:103D6000892B31F03F3F31F481E04F3F19F403C01C
:103D700081E001C080E080FDE1C249833A8389810E
:103D80009A812F830E94D8269E8388870E94D726F7
:103D90000E94FF254E81E42FE295EF70F0E0E85994
:103DA000FF4F2F8168850C949B34842F807F142FC4
:103DB0001F70882311F01295107FFF2059F01123F6
:103DC00009F471C2812F68870E94D3270E94FC27C3
:103DD000688569C2862F0E94121E112309F4AEC2A3
:103DE000812F0E94D92728960FB6F894DEBF0FBE08
:103DF000CDBFDF91CF911F910F91FF90EF90DF909A
:103E0000CF900C94FC27842F807F942F9F70E92EF5
:103E1000803219F0E29480EFE822662319F06130D5
:103E200001F129C0FF20A9F08E2D222349F1213074
:103E300039F528960FB6F894DEBF0FBECDBFDF91DF
:103E4000CF911F910F91FF90EF90DF90CF900C9446
:103E5000E327222319F0213009F470C20E94E627DB
:103E60002CC0FF20E9F0263008F068C20E94BD2770
:103E70008E2129F022C0FF20F1F0211115C08E2DD6
:103E800028960FB6F894DEBF0FBECDBFDF91CF915D
:103E90001F910F91FF90EF90DF90CF900C94801EB8
:103EA000253008F04BC209C0F801858180FFFBC1B5
:103EB0008F708583E4CF21110AC28E2D78C1242F03
:103EC00026952695237030E02115310521F021300B
:103ED0003105C9F033C2FF2021F0862F942F937053
:103EE00002C080E090E028960FB6F894DEBF0FBEC7
:103EF000CDBFDF91CF911F910F91FF90EF90DF9099
:103F0000CF900C94FB1BFF2021F0862F942F9370F1
:103F100002C080E090E028960FB6F894DEBF0FBE96
:103F2000CDBFDF91CF911F910F91FF90EF90DF9068
:103F3000CF900C94291C862FFF2019F00E94882B0B
:103F400002C00E94F02B28960FB6F894DEBF0FBE79
:103F5000CDBFDF91CF911F910F91FF90EF90DF9038
:103F6000CF900C94752C842F837009F076C0F110DB
:103F7000E5C1262F229526952770220F220F862F26
:103F80008F70C82ED12CE12CF12C022E04C0CC0C49
:103F9000DD1CEE1CFF1C0A94D2F764FF10C06FE01A
:103FA00070E080E090E004C0660F771F881F991FC3
:103FB0002A95D2F7609570958095909503C060E042
:103FC00070E0CB01242F269526952370422F50E0D8
:103FD00042305105D1F04330510559F16C297D290A
:103FE0008E299F294130510541F128960FB6F8944A
:103FF000DEBF0FBECDBFDF91CF911F910F91FF901C
:10400000EF90DF90CF900C9414266C297D298E2997
:104010009F2928960FB6F894DEBF0FBECDBFDF9163
:10402000CF911F910F91FF90EF90DF90CF900C9464
:1040300026260E941426C701B60128960FB6F894CA
:10404000DEBF0FBECDBFDF91CF911F910F91FF90CB
:10405000EF90DF90CF900C940226FF2019F0842F70
:10406000817001C08695882309F468C1262F2295A6
:1040700026952770220F220F862F8F70C82ED12CE5
:10408000E12CF12C022E04C0CC0CDD1CEE1CFF1C1C
:104090000A94D2F764FF10C06FE070E080E090E017
:1040A00004C0660F771F881F991F2A95D2F7609565
:1040B00070958095909503C060E070E0CB01242F4F
:1040C000269526952370422F50E042305105D1F0BD
:1040D0004330510559F16C297D298E299F294130A2
:1040E000510541F128960FB6F894DEBF0FBECDBF43
:1040F000DF91CF911F910F91FF90EF90DF90CF90C4
:104100000C94B3266C297D298E299F2928960FB6F9
:10411000F894DEBF0FBECDBFDF91CF911F910F91FD
:10412000FF90EF90DF90CF900C94C5260E94B326AD
:10413000C701B60128960FB6F894DEBF0FBECDBFFB
:10414000DF91CF911F910F91FF90EF90DF90CF9073
:104150000C94A126603FD9F128F480E4860F8032C8
:1041600050F09CC0623F09F461C008F44BC0633F4B
:1041700009F470C093C0162F1071842F8F71688757
:10418000FF2059F00E944C266885862F112319F0D4
:104190008295807F75CE8F7073CE0E94672668856A
:1041A000862F112319F08295807F01C08F70289689
:1041B0000FB6F894DEBF0FBECDBFDF91CF911F9138
:1041C0000F91FF90EF90DF90CF900C94871EFF200F
:1041D000A9F0253008F0B2C0842F8F7128960FB651
:1041E000F894DEBF0FBECDBFDF91CF911F910F912D
:1041F000FF90EF90DF90CF900C948626263008F049
:104200009DC0EACFFF20A1F0842F8F7128960FB6B2
:10421000F894DEBF0FBECDBFDF91CF911F910F91FC
:10422000FF90EF90DF90CF900C944C26FF2061F32D
:10423000842F8F7128960FB6F894DEBF0FBECDBFC6
:10424000DF91CF911F910F91FF90EF90DF90CF9072
:104250000C946726FF2091F0842F8F7128960FB65B
:10426000F894DEBF0FBECDBFDF91CF911F910F91AC
:10427000FF90EF90DF90CF900C943D2628960FB6DC
:10428000F894DEBF0FBECDBFDF91CF911F910F918C
:10429000FF90EF90DF90CF900C943826FF20A1F094
:1042A000222309F4B1CF862F28960FB6F894DEBFEB
:1042B0000FBECDBFDF91CF911F910F91FF90EF9077
:1042C000DF90CF900C94631D222309F4B1CF862F89
:1042D00028960FB6F894DEBF0FBECDBFDF91CF9109
:1042E0001F910F91FF90EF90DF90CF900C94121ED2
:1042F0004F70C8010E94262928960FB6F894DEBF99
:104300000FBECDBFDF91CF911F910F91FF90EF9026
:10431000DF90CF900C944A254F70C80128960FB6B5
:10432000F894DEBF0FBECDBFDF91CF911F910F91EB
:10433000FF90EF90DF90CF900C94830928960FB6F2
:10434000F894DEBF0FBECDBFDF91CF911F910F91CB
:10435000FF90EF90DF90CF9008950E94E0270E9499
:10436000AF270E94FC270E94A32D0E94752C80E09D
:1043700090E00E94FB1B80E090E00C94291C0E94BE
:10438000D0270C94AD210E94D826292F22952F707A
:1043900030E02C3031054CF42A303105C4F4225081
:1043A00031092230310540F021C02C303105D1F0E7
:1043B0002F303105B9F01AC0853A28F48430C0F4A2
:1043C000823028F415C090E2980F983088F0883E2B
:1043D00030F4803E68F48450813A40F409C0803F54
:1043E00029F406C093FB882780F9089580E008959A
:1043F00081E00895CF93DF9300D000D01F92CDB716
:10440000DEB70F900F900F900F900F90DF91CF912C
:104410000895CF93DF9300D000D000D0CDB7DEB7A2
:1044200026960FB6F894DEBF0FBECDBFDF91CF91B9
:1044300008951F93CF93DF93C091E20116E080911E
:10444000E301C81799F0D0E01C9FF0011D9FF00D0B
:104450001124EC51FE4F408151816281738184812E
:1044600095810E9409222196C770E9CFDF91CF91F3
:104470001F91089540911402509115026091160207
:104480007091170280911802909119020C940922E0
:10449000CF938091190282958F7009F05FC080914F
:1044A0001602882309F45AC02091E201A091E30189
:1044B0006091140270911502809117029091180278
:1044C00031E06F3F09F030E0B32FC6E02A1709F45E
:1044D00045C0009721F07F3F21F44B2F03C041E0FE
:1044E00001C040E030E040FD35C0C29FF001C39FF5
:1044F000F00D1124EC51FE4F418174132BC040810B
:10450000641328C04281411125C04381548148175A
:10451000590710F441505109481B590B483C5105AB
:10452000C8F4809119028F7080618093190286E02F
:10453000829FF001839FF00D1124E751FE4F80818F
:104540008F708061808384E192E00E948E1ECF9103
:104550000C9419222F5F3F4F2770B8CFCF91089549
:10456000CF92DF92EF92FF920F931F93CF93DF933F
:10457000CDB7DEB762970FB6F894DEBF0FBECDBFE2
:104580008C0185E0F801DE011D9601900D928A955F
:10459000E1F7D8014C9111965C91119712966C91AC
:1045A00012971396ED90FC90149770911402E0917D
:1045B000150220911702309118022115310531F0B2
:1045C000EF3F31F481E07F3F19F403C081E001C087
:1045D00080E0B82FB170CB2E80FD6CC1D090160258
:1045E000DD2009F4F5C0F0911902E216F30638F067
:1045F000C701821B930B883C910548F09BC0209516
:1046000030952E0D3F1D283C310508F093C08F2FAB
:10461000807F09F052C0E51314C0741312C0D62E67
:1046200061110FC0FF70F061F09319020E943A22ED
:1046300084E192E00E948E1E80911902F801858328
:104640006CC1EF2831F05F3F31F481E04F3F19F446
:1046500003C081E001C080E080FD03C081E08627C7
:1046600001C080E0F82FF170FF2E80FF1CC0809108
:10467000E2012091E30136E0821709F428C190E0BD
:10468000389FF001399FF00D1124EC51FE4F7181DC
:10469000571306C07081471303C07281671303C0AC
:1046A00001968770E9CFD62E662309F436C1809132
:1046B000190281608093190253C0E51308C0741376
:1046C00006C0611104C0D8011596FC93AEC04D8799
:1046D0005E878D859E856A8B0E94C3216A898823A7
:1046E00029F1D62E662311F120911902822F82958D
:1046F0008F7090E002970CF460C08091140290914A
:10470000150298878F831986FB86EA862C87CE014F
:10471000079651C0E51731F14D875E878D859E85DF
:104720006A8B0E94C3216A8981112EC0C8010E9430
:104730008E1EA4C08F2F807F69F77E2DF98AE88AAC
:1047400089890E94FA2184E192E00E948E1EE4E1B0
:10475000F2E086E0DF011D928A95E9F70E943A2295
:10476000D12CDBC07413D8CF6111D6CFD8011596E8
:10477000FC93C8010E948E1EE4E1F2E086E0DF01B6
:104780001D928A95E9F7C9C0D62E662379F2209149
:104790001902822F82958F7090E0029774F08091B9
:1047A0001402909115029A8389831B82FD82EC8208
:1047B0002E83CE0101960E948E1E86E0F801A4E1B0
:1047C000B2E001900D928A95E1F70E9448226FC0F5
:1047D000E216F30628F0C701821B930B9C0104C06C
:1047E000209530952E0D3F1D283C310508F052C014
:1047F000D62E662309F49ACFE5132CC074132AC071
:104800008091190280FD1DC0982F92959F70C9F06C
:10481000D80115968C9315979F3039F09F5F92952C
:10482000907F8F70892B15968C93C8010E948E1EE5
:1048300086E0F801A4E1B2E001900D928A95E1F7DB
:1048400036C086E0F801A4E1B2E001900D928A95AD
:10485000E1F763C04D875E878D859E850E94C321E9
:10486000882379F086E0F801A4E1B2E001900D928E
:104870008A95E1F70E9448220E943A22DD24D394CF
:104880004CC080911902816080931902C8010E9476
:104890008E1E43C07E2DF98AE88A89890E94FA21FA
:1048A000E4E1F2E086E0DF011D928A95E9F70E94DB
:1048B0003A2233C0662309F439CF4D875E878D8550
:1048C0009E850E94C321882309F430CFCBCF4D872A
:1048D0005E878D859E850E94D826292F22952F7070
:1048E00030E0223031052CF49F7041F0811106C078
:1048F0000CC0243031052CF49F7049F4805E883060
:1049000020F0C8010E948E1ECF2CDC2C06C0D801DE
:1049100015969C91907F91F7F8CF8D2D62960FB6EA
:10492000F894DEBF0FBECDBFDF91CF911F910F91E5
:10493000FF90EF90DF90CF9008951F93CF93DF9378
:10494000CDB7DEB72C970FB6F894DEBF0FBECDBF44
:104950004F83588769877A878B879C87CE01079614
:104960000E94B0228823C1F02F8138858A859B85DB
:10497000892B31F03F3F11F080E003C02F3FE1F77A
:1049800081E0811147C04F81588569857A858B8583
:104990009C850E9409223EC086E0FE013796DE011A
:1049A000119601900D928A95E1F7FF81E8854A857D
:1049B0005B854115510531F0EF3F31F481E0FF3F58
:1049C00019F403C081E001C080E080FD23C0209184
:1049D000E30130E0C9010196877099276091E201F7
:1049E00070E086179707F1F1F983EA835D834C83C2
:1049F00096E0929FD001939FB00D1124AC51BE4F11
:104A0000FE01319601900D929A95E1F78093E301B2
:104A10000E94192216E08091E2019091E30189172A
:104A200079F1189FC00111248C519E4F0E94B02231
:104A3000882331F1E091E2011E9FF0011124EC5135
:104A4000FE4F4081518162817381848195810E94F2
:104A500009228091E20190E0019687709927809366
:104A6000E201D9CF0E94BF211092E3011092E2012E
:104A7000E4E1F2E086E0DF011D928A95E9F7CACF12
:104A80002C960FB6F894DEBF0FBECDBFDF91CF914D
:104A90001F910895DF92EF92FF920F931F93CF9390
:104AA000DF93FC01009709F48AC0E12CF12CDD248E
:104AB000D394EF0121968491853709F461C058F4AD
:104AC000843708F04EC0843008F06AC08130D1F0DD
:104AD000823071F174C0883709F45DC050F48637B4
:104AE00009F455C0873709F06AC08E2D0E94CD2782
:104AF00054C09CE7980F903708F061C08F770E94F0
:104B0000121E50C08F010E5F1F4FFE01849190E274
:104B1000980F983050F48770FD2D01C0FF0F8A95D3
:104B2000EAF78F2F0E94D32715C00E94631D14C07F
:104B30008F010E5F1F4FFE01849190E2980F983015
:104B400068F48770FD2D01C0FF0F8A95EAF78F2F5B
:104B50000E94D9270E94FC27E80124C00E94121E4F
:104B6000FBCF9F012E5F3F4FFE01C491CC2369F024
:104B70008FE99FE00197F1F700C00000C150F6CF28
:104B80009F012E5F3F4FFE01F490E9010BC00E9490
:104B9000BD27E82E07C00E94D0270E94FC2702C034
:104BA0000E94631D9F2D992341F0EFE9FFE03197AB
:104BB000F1F700C000009150F6CFFE017ACFDF91EF
:104BC000CF911F910F91FF90EF90DF900895609328
:104BD0001E0270931F0280932002909321020E9474
:104BE00063280C94AD2160931A0270931B0280938A
:104BF0001C0290931D020E9464280C94AD2108951C
:104C00000C94E7250F931F9300911E0210911F0231
:104C10002091200230912102602B712B822B932B4B
:104C20001F910F910C94E7250F931F9300911E0283
:104C300010911F02209120023091210260237123E4
:104C4000822393231F910F910C94E7250F931F93B9
:104C500000911E0210911F0220912002309121022A
:104C600060277127822793271F910F910C94E725C6
:104C700060E070E0CB010C94F32541E050E060E08F
:104C800070E004C0440F551F661F771F8A95D2F746
:104C9000CB01BA010C94F32541E050E060E070E0F4
:104CA00004C0440F551F661F771F8A95D2F7809165
:104CB0001A0290911B02A0911C02B0911D02482B78
:104CC000592B6A2B7B2BCB01BA010C94F32541E0C5
:104CD00050E060E070E004C0440F551F661F771F6E
:104CE0008A95D2F7409550956095709580911A02FB
:104CF00090911B02A0911C02B0911D0248235923E0
:104D00006A237B23CB01BA010C94F32541E050E0E8
:104D100060E070E004C0440F551F661F771F8A953E
:104D2000D2F780911A0290911B02A0911C02B091BF
:104D30001D02482759276A277B27CB01BA010C940B
:104D4000F3250F931F9300911A0210911B022091DB
:104D50001C0230911D02602B712B822B932B1F9113
:104D60000F910C94F3250F931F9300911A02109149
:104D70001B0220911C0230911D02602371238223AB
:104D800093231F910F910C94F3250F931F93009180
:104D90001A0210911B0220911C0230911D02602703
:104DA0007127822793271F910F910C94F325089563
:104DB000CF92DF92EF92FF920F931F93CF93DF93E7
:104DC000EC01C0901E02D0901F02E0902002F090F3
:104DD000210280911A0290911B02A0911C02B091B5
:104DE0001D02C82AD92AEA2AFB2A0FE110E0B701DE
:104DF000A601002E04C076956795579547950A94AD
:104E0000D2F740FF07C0BE01802F0E9414298130D5
:104E1000910539F40150110950F7BE0180E00E945C
:104E20001429DF91CF911F910F91FF90EF90DF90A8
:104E3000CF90089590910D01992361F190910E0109
:104E4000992341F1982F9695969596959F3188F4E0
:104E5000E0910F01F0911001E90FF11D877021E041
:104E600030E001C0220F8A95EAF78181822B81838D
:104E700008959091450290FF2DC01F928F9386EF69
:104E800098E09F938F930E947A090F900F900F9054
:104E90000F90089540910F015091100120E030E0F3
:104EA0009FEFFA01E20FF31F6281681799F09F3FAD
:104EB00019F4611101C0922F2F5F3F4F2E31310540
:104EC00081F79F3F39F0FA01E90FF11D97FDFA953F
:104ED00082830895089590910D01992369F190912D
:104EE0000E01992349F1982F9695969596959F31A5
:104EF00090F4E0910F01F0911001E90FF11D87701E
:104F000021E030E001C0220F8A95EAF720958181E7
:104F10002823218308959091450290FF1FC01F927E
:104F20008F9388ED98E09F938F930E947A090F905A
:104F30000F900F900F90089540910F015091100124
:104F400020E030E0FA01E20FF31F9281981301C0D4
:104F500012822F5F3F4F2E313105A1F7089581E076
:104F600090E0E0910F01F0911001E80FF91F10821D
:104F7000019680329105A9F7089580914402089521
:104F800090914402982B90934402089580959091BB
:104F90004402982390934402089580934402089514
:104FA00010924402089590914302982B90934302EB
:104FB0000895809590914302982390934302089519
:104FC00010924302089580932202089510922202C3
:104FD000089540910F015091100120E030E080E0F1
:104FE000FA01E20FF31F918191118F5F2F5F3F4F05
:104FF0002F313105A9F70895E0910F01F0911001CB
:10500000809144028083E0910F01F0911001808132
:1050100090914302892B808390912202992361F021
:10502000E0910F01F09110018081892B80830E9413
:10503000E92781111092220280910F0190911001B5
:105040000C94AB1B90934701809346010895829581
:10505000982F9C7C96959695837344E0849F90014D
:105060001124922B892F8A7A86959575990F892B11
:1050700008951F93CF93DF931F92CDB7DEB7998327
:105080000E942728182F9981892F0E942728212FD5
:1050900030E0322F2227A901482BCA010F90DF915F
:1050A000CF911F9108950895CF93DF9300D000D042
:1050B0001F92CDB7DEB70F900F900F900F900F900B
:1050C000DF91CF910895089508950C941C1D0895C3
:1050D0000895CF930E941F1D0E94CF0A0E94201D99
:1050E000C0E08C2F0E940B0B811105C0CF5FC63032
:1050F000C1F780E001C081E0CF9108950E941E1D9C
:105100000C94BF2182E084BD93E095BD9AEF97BDDA
:1051100080936E0008952FB7F89480914602909185
:105120004702A0914802B09149022FBF08952FB7BE
:10513000F8946091460270914702809148029091E4
:1051400049022FBF0895CF92DF92EF92FF920F9303
:105150001F932FB7F89440914602509147026091F7
:105160004802709149022FBF6A017B01EE24FF249F
:105170008C0120E030E0C016D106E206F30610F400
:1051800041505109481B590BCA011F910F91FF90C3
:10519000EF90DF90CF9008951F920F920FB60F926D
:1051A00011248F939F93AF93BF9380914602909168
:1051B0004702A0914802B09149020196A11DB11D7C
:1051C0008093460290934702A0934802B09349020D
:1051D000BF91AF919F918F910F900FBE0F901F9035
:1051E00018950E94C318F8942FEF87EA91E6215092
:1051F00080409040E1F700C0000087E090EBDC01C8
:1052000080937A0290937B02A0937C02B0937D02FC
:105210002CE088E190E00FB6F894A89580936000A8
:105220000FBE20936000FFCF95E0799FF00111241D
:105230009EE1899FE00DF11D1124E60FF11DEE0F97
:10524000FF1FE051FF4F85919491089580E090E019
:105250000895DF92EF92FF920F931F93CF93DF9306
:105260008C01D12C8D2D0E940B0BC0E0D0E0E82EDC
:10527000F12C97010C2E02C0359527950A94E2F780
:1052800020FF16C06C2F7D2D80E00E9414299C0108
:105290008017910759F0832F807E932F907C11F017
:1052A000803A31F430E02017310711F481E009C071
:1052B0002196C530D105E9F6D39486E0D812D2CF35
:1052C00080E0DF91CF911F910F91FF90EF90DF90E1
:1052D0000895CF93DF93EC0184E190E00E942929A7
:1052E000882329F0CE01DF91CF910C94292980E009
:1052F000DF91CF910895CF930E94E12A811102C0DE
:105300000E94C72A8BE199E00E94E108C5E6C150DE
:1053100049F00E94CF0A8FE39CE90197F1F700C0A2
:105320000000F5CF84E199E00E94E10889E290E075
:105330000E946929811129C18AE290E00E946929AD
:1053400081110E94C72A85E090E00E94692981119D
:105350000E94F1280E9467280E94EC2A809345024F
:1053600087E090E00E9469298823B1F18BE190E009
:105370000E946929882351F09091450291FB88276A
:1053800080F921E0822780FB91F924C08EE090E033
:105390000E946929882351F09091450292FB882749
:1053A00080F921E0822780FB92F914C080E190E02F
:1053B0000E94692990914502882341F093FB882738
:1053C00080F921E0822780FB93F904C0892F809522
:1053D00080FB90F990934502809145020E94F02A4B
:1053E0000E94FE2A8093790280EE90E00E94692953
:1053F000882341F080917902982F909590FB80F955
:105400008093790289E390E00E946929882359F00A
:105410009091790291FB882780F921E0822780FB17
:1054200091F99093790282EE90E00E946929882395
:1054300059F09091790292FB882780F921E0822728
:1054400080FB92F99093790286EE90E00E946929A0
:10545000882359F09091790293FB882780F921E005
:10546000822780FB93F99093790283EE90E00E946B
:105470006929882359F09091790294FB882780F953
:1054800021E0822780FB94F99093790285E390E0F4
:105490000E946929882359F09091790295FB882709
:1054A00080F921E0822780FB95F99093790281E3CE
:1054B00090E00E946929882359F09091790296FB27
:1054C000882780F921E0822780FB96F99093790262
:1054D00089E190E00E946929882359F0909179022E
:1054E00097FB882780F921E0822780FB97F990932A
:1054F0007902809179020E94022B8091790287FBC8
:10550000882780F980930E018DE190E00E9469293F
:10551000C82F8BE190E00E9469298111C26086E06A
:1055200090E00E9469298111C46080E290E00E94AD
:1055300069298111C86081E290E00E946929811186
:10554000C06182E290E00E9469298111C06283E219
:1055500090E00E9469298111C06484E290E00E9479
:105560006929882311F0C06802C0CC2329F08C2F50
:105570000E94F92A6C2F03C00E94F52A682F70E060
:1055800080E090E0CF910C940026CF9108956DEECD
:105590007EEF80E090E00E94CB3460E082E090E01B
:1055A0000E94B53460E083E090E00E94B53460E092
:1055B00084E090E00E94B53460E085E090E00C94D7
:1055C000B53480E090E00E94AF3421E08D3E9E4FE4
:1055D00009F020E0822F089582E090E00C94A1343D
:1055E000682F82E090E00C94B53483E090E00C9456
:1055F000A134682F83E090E00C94B53484E090E00F
:105600000C94A134682F84E090E00C94B534809120
:105610004C0280FF0BC06091140185E0689FB001CF
:10562000112475956795759567952AC081FF09C006
:105630006091140185E0689FB0011124759567950C
:105640001FC082FF07C06091140185E0689FB00110
:10565000112416C040914D024423C9F060911301FA
:10566000461788F72091140185E0289F90011124A6
:10567000429FC001439F900D112470E00E94873427
:105680006038710540F46115710539F002C065E0BC
:1056900070E0862F08958FE7089581E00895809146
:1056A0004C0280FF08C06091120170E0759567950B
:1056B0007595679521C081FF06C06091120170E069
:1056C0007595679519C082FF04C06091120170E062
:1056D00010C080914D028823C1F06091110186179E
:1056E000A0F790911201989FC001112470E00E94D0
:1056F00087346038710528F46115710521F0862F13
:1057000008958FE7089581E0089561E070E0F4CF97
:10571000803F21F40E94072B819504C0813F29F42A
:105720000E94072B809350020895823F21F40E942B
:10573000072B819504C0833F29F40E94072B809397
:105740004F020895893F19F40E944F2B05C08A3FEC
:1057500031F40E944F2B81958093510208958B3F25
:1057600021F40E944F2B819504C08C3F29F40E94A4
:105770004F2B809352020895843F21F480914E0272
:10578000816017C0853F21F480914E02826011C074
:10579000863F21F480914E0284600BC0873F21F444
:1057A00080914E02886005C0883F31F480914E029E
:1057B000806180934E0208958D3F21F480914C02C8
:1057C00081600BC08E3F21F480914C02826005C045
:1057D0008F3F29F480914C02846080934C0208959D
:1057E000803F39F48091500287FF6CC010925002C4
:1057F00069C0813F29F4809150021816BCF362C041
:1058000090914F02823F29F497FF5CC010924F02A3
:1058100059C0833F19F41916CCF354C0893F41F4A1
:105820008091510218160CF04DC0109251024AC0DE
:105830008A3F29F48091510287FF44C0F6CF8B3F05
:1058400039F48091520287FF3DC0109252023AC053
:105850008C3F29F4809152021816BCF333C0843F68
:1058600021F480914E028E7F17C0853F21F48091F4
:105870004E028D7F11C0863F21F480914E028B7FB6
:105880000BC0873F21F480914E02877F05C0883F7F
:1058900031F480914E028F7E80934E0213C08D3F73
:1058A00021F480914C028E7F0BC08E3F21F48091B9
:1058B0004C028D7F05C08F3F29F480914C028B7F75
:1058C00080934C0280914F0281110EC08091500252
:1058D00081110AC080915102811106C0809152024B
:1058E000811102C010924D0208958091450283FFFC
:1058F0007EC087E599E00E94E10880914E021F92E8
:105900008F9382E599E09F938F930E947A0980E5B7
:1059100099E00E94E10820914F02822F992787FD8C
:1059200090959F932F938DE499E09F938F930E947E
:105930007A098BE499E00E94E10820915002822FBD
:10594000992787FD90959F932F9388E499E09F93E3
:105950008F930E947A0986E499E00E94E1082091E1
:105960005102822F992787FD90959F932F9383E46F
:1059700099E09F938F930E947A0981E499E00E94B5
:10598000E10820915202822F992787FD90959F93DD
:105990002F938EE399E09F938F930E947A098BE374
:1059A00099E00E94E10880914D021F928F9388E355
:1059B00099E09F938F930E947A0986E399E00E9471
:1059C000E10880914C021F928F9383E399E09F93AB
:1059D0008F930E947A0980E399E00E94E1088DB7D5
:1059E0009EB74C960FB6F8949EBF0FBE8DBF8EE447
:1059F00092E00E94F01B0E948B2890934B028093B0
:105A00004A0208951F93CF93DF9380914A029091A9
:105A10004B020E94A32840914D02442321F0209183
:105A2000150130E006C0209116015AE0259F900133
:105A300011248217930708F482C080914F021091BD
:105A40005002D0915102C0915202811107C0111130
:105A500005C0D11103C0CC2309F471C04F3F19F028
:105A60004F5F40934D02181624F40E94072B809339
:105A70004F0280914F0287FF05C00E94072B81953E
:105A800080934F02111624F40E94072B809350023A
:105A90008091500287FF05C00E94072B819580935B
:105AA000500260914F02662339F110915002112388
:105AB00019F1772767FD7095872F972F0E9478330C
:105AC00023E333E343E35FE30E94DC330E94453387
:105AD00060934F02612F772767FD7095872F972F6F
