:100000000C946F060C94B6060C94B6060C94B606C7
:100010000C94B6060C94B6060C94B6060C94B60670
:100020000C94B6060C94B6060C94C4150C94B60643
:100030000C9404240C94B6060C94B6060C94B606E4
:100040000C94B6060C94B6060C94B6060C94B60640
:100050000C94B6060C94A4240C94B6060C94B60624
:100060000C94B6060C943E090C94B6060C94B60695
:100070000C94B6060C94B6060C94B6060C94B60610
:100080000C94B6060C94B6060C94B6060C94B60600
:100090000C94B6060C94B6060C94B6060C94B606F0
:1000A0000C94B6060C94B6060C94B606670E6B0E4E
:1000B0006F0E730E770E7B0E7F0E830E870E8B0EE8
:1000C0008F0E930E970E9B0E9F0EA30EA70EAB0ED8
:1000D000AF0EB30EB70EBB0EBF0EC30EC70ECB0EC8
:1000E000CF0ED30ED70EDB0EDF0EE30EE70EEB0EB8
:1000F000EF0EF30E330F650EF70EF90EFB0EFD0E2D
:10010000010F050F090F0D0F120F170F1B0F1F0FF8
:10011000230F270F2B0F310F310F310F310F310FFD
:10012000310F310F310F310F310F310F310F310FCF
:10013000310F310F310F310F310F310F2F0FBA1631
:10014000DC16CA17DC16CA1721174417CA179917E5
:10015000AC17B31AB31AE01AE01A3B1B771B6F1DDA
:100160006F1D8F1B6F1D8A1C8A1C451D6F1D6F1D07
:100170005B1D8080352B7879398080802108770657
:1001800007808080201A7A1B168080801E8029803C
:10019000808080808080808080808080221580198F
:1001A000098080801F147B1D0480808023172C050C
:1001B0000A808080260C00360E80808025187610FC
:1001C0000D808080241C80110B80808027127E3758
:1001D0000F8080802A804F7D28808080743051522B
:1001E000328080802D137C38338080802E2F507594
:1001F0003480253032583A20253038620A000A729D
:100200002F632030313233343536370A00522C31E7
:100210000D0A0053592C464646340D0A0053482C0B
:10022000303033430D0A00537E2C360D0A005357ED
:100230002C383030300D0A00534D2C340D0A005349
:10024000532C4B6579626F6172642F4D6F757365C6
:100250000D0A00532D2C546D6B42540D0A00534669
:100260002C310D0A002D2D2D0D0A00457869746979
:100270006E6720636F6E666967206D6F6465202E00
:100280002E2E0A002B0D0A00760D0A0024242400CD
:10029000456E746572696E6720636F6E666967206C
:1002A0006D6F6465202E2E2E0A0025630025730DC8
:1002B0000A00522C310D0A0053522C5A0D0A0055D7
:1002C0005342206D6F64650A004175746F206D6F35
:1002D00064650A00253032750A00253032753A000F
:1002E000253032753A004241543A2025756D560941
:1002F00000757074696D653A20253032752025309F
:1003000032753A253032753A253032750A00564238
:1003100055533A2025580A0052656D6F7465576130
:100320006B657570456E61626C65643A2025580A8C
:10033000000A003F004C4F570044495343484700D0
:1003400043484152470046554C4C00626174746505
:1003500072793A20005553422053746174653A20F3
:1003600025730A00636F6E6669675F6D6F64653A37
:100370002025580A00726E34325F6175746F636FA6
:100380006E6E656374696E6728293A2025580A00E5
:10039000726E34323A2025730A00666F7263655FAD
:1003A0007573623A2025580A0070726F746F636F1C
:1003B0006C3A2025730A000A2D2D2D2D2D20524E2A
:1003C0002D343220696E666F202D2D2D2D2D0A00C3
:1003D000753A20202020202020746F67676C6520EC
:1003E000466F72636520555342206D6F64650A0045
:1003F000703A2020202020202070616972696E6789
:100400000A00536C636B3A20202020524E2D343268
:1004100020696E697469616C697A650A0044656C6B
:100420003A2020202020656E7465722F65786974EB
:1004300020524E2D343220636F6E666967206D6FD7
:1004400064650A00623A2020202020202062617426
:100450007465727920766F6C746167650A00693A19
:1004600020202020202020524E2D343220696E661C
:100470006F0A000A0A2D2D2D2D2D20426C756574F2
:100480006F6F746820524E2D34322048656C702096
:100490002D2D2D2D2D0A00253032753A253032753F
:1004A0003A253032750925756D560A004C454420B1
:1004B0007374617475733A20253032580A00202510
:1004C000303258002563005B735D004B6579626FC5
:1004D0006172642073746172740A00524E2D34325A
:1004E00020696E69740A000A55534220696E697466
:1004F0000A005B575D005B535D005B525D005B442F
:100500005D005B435D001203480048004B00420061
:1005100020006D006F00640000000E0374002E00C8
:100520006D002E006B002E00000004030904090278
:100530007400040100A0320904000001030101005D
:100540000921110100012240000705810308000A6A
:100550000904010001030102000921110100012227
:100560004D000705820308000A0904020001030088
:10057000000009211101000122360007058303084C
:10058000000A090403000203000000092111010010
:10059000012222000705840320000107050403202F
:1005A00000011201100100000008EDFE42420401AA
:1005B000010200010631FF0974A101097515002629
:1005C000FF009520750881020976150026FF009529
:1005D0002075089102C005010980A101850216015C
:1005E0000026B7001A01002AB70075109501810096
:1005F000C0050C0901A1018503160100269C021A01
:1006000001002A9C02751095018100C005010902B4
:10061000A1010901A10005091901290515002501FC
:100620009505750181029501750381010501093068
:1006300009311581257F95027508810609381581D4
:10064000257F950175088106050C0A38021581255C
:100650007F950175088106C0C005010906A1010545
:100660000719E029E7150025019508750181029514
:100670000175088101050819012905950575019184
:10068000029501750391010507190029FF15002640
:10069000FF00950675088100C00A002530325820F9
:1006A000006B6579626F6172645F7265706F7274FE
:1006B0003A20004C45443A20253032580A004F6E0B
:1006C0006573686F743A2074696D656F75740A009C
:1006D000290A002575002F002575005D2800256476
:1006E000002000256400200025640020002564000F
:1006F0007C0025303258006D6F7573656B6579200D
:100700005B62746E7C782079207620685D28726543
:10071000702F61636C293A205B006D6B5F776865B1
:10072000656C5F74696D655F746F5F6D6178203DA6
:100730002025640A006D6B5F776865656C5F6D618D
:10074000785F7370656564203D2025640A006D6BD9
:100750005F74696D655F746F5F6D6178203D202502
:10076000640A006D6B5F6D61785F7370656564200E
:100770003D2025640A006D6B5F696E746572766159
:100780006C203D2025640A006D6B5F64656C6179A7
:10079000203D2025640A006D6B5F776865656C5F9E
:1007A00074696D655F746F5F6D6178203D202564AD
:1007B0000A006D6B5F776865656C5F6D61785F736C
:1007C00070656564203D2025640A006D6B5F746967
:1007D0006D655F746F5F6D6178203D2025640A0050
:1007E0006D6B5F6D61785F7370656564203D20257A
:1007F000640A006D6B5F696E74657276616C203D92
:100800002025640A006D6B5F64656C6179203D2072
:1008100025640A000A00257500363A207768656568
:100820006C5F74696D655F746F5F6D61783A20000D
:100830000A00257500353A20776865656C5F6D6143
:10084000785F73706565643A20000A00257500348E
:100850003A2074696D655F746F5F6D61783A20004E
:100860000A00257500333A206D61785F7370656505
:10087000643A20000A00257500323A20696E7465DA
:100880007276616C286D73293A20000A0025750084
:10089000313A2064656C6179282A31306D73293AC8
:1008A00020000A092D2056616C756573202D0A0001
:1008B0004D3E004D25643E20003F0073657420646A
:1008C000656661756C740A00433E20007768657246
:1008D000652064656C74613A20637572736F723D54
:1008E00025642C20776865656C3D25640A53656531
:1008F00020687474703A2F2F656E2E77696B69705B
:10090000656469612E6F72672F77696B692F4D6F10
:100910007573655F6B6579730A000A092D204D6F49
:100920007573656B6579202D0A4553432F713A091C
:10093000717569740A313A0964656C6179282A31E4
:10094000306D73290A323A09696E74657276616C8A
:10095000286D73290A333A096D61785F7370656594
:10096000640A343A0974696D655F746F5F6D61780C
:100970000A353A09776865656C5F6D61785F7370F9
:100980006565640A363A09776865656C5F74696DF8
:10099000655F746F5F6D61780A0A703A09707269F9
:1009A0006E742076616C7565730A643A09736574B8
:1009B0002064656661756C74730A75703A092B3131
:1009C0000A646F776E3A092D310A706775703A09BB
:1009D0002B31300A7067646F776E3A092D31300A17
:1009E0000A7370656564203D2064656C7461202A1B
:1009F000206D61785F7370656564202A20287265B8
:100A000070656174202F2074696D655F746F5F6D10
:100A10006178290A003F004D3E2000433E20004CF3
:100A200025640A000A092D20436F6E736F6C6520E0
:100A30002D0A4553432F713A09717569740A6D3A4D
:100A4000096D6F7573656B65790A000A092D204D74
:100A500061676963202D0A643A0964656275670AF3
:100A6000783A096465627567206D61747269780A05
:100A70006B3A096465627567206B6579626F6172B4
:100A8000640A6D3A096465627567206D6F757365F8
:100A90000A763A0976657273696F6E0A733A09735A
:100AA00074617475730A633A09636F6E736F6C6572
:100AB000206D6F64650A302D343A096C6179657276
:100AC000302D34284631302D4634290A5061757353
:100AD0003A09626F6F746C6F616465720A003F005F
:100AE00074696D65725F72656164333228293A20DA
:100AF0002530346C580A006B6579626F6172645FEF
:100B000069646C653A2025580A006B6579626F61EB
:100B100072645F70726F746F636F6C3A2025580A4D
:100B200000686F73745F6B6579626F6172645F6C8C
:100B300065647328293A2025580A000A092D205394
:100B40007461747573202D0A004743433A20342E94
:100B5000392E32204156522D4C4942433A20312EF3
:100B6000382E3073766E204156525F415243483AD8
:100B700020617672350A004F5054494F4E533A2047
:100B80004C554641204D4F5553454B4559204558EE
:100B90005452414B455920434F4E534F4C452043EF
:100BA0004F4D4D414E44204B45594D41505F5345AB
:100BB0004354494F4E20343039360A004255494C8F
:100BC000443A20353166353966642D64697274792A
:100BD000202831353A35303A30342041756720339A
:100BE000312032303136290A005649443A203078D3
:100BF0004645454428742E6D2E6B2E2920504944BD
:100C00003A203078343234322848484B42206D6FD5
:100C10006429205645523A203078303130340A0069
:100C2000444553433A20742E6D2E6B2E206B65790C
:100C3000626F617264206669726D776172652066A9
:100C40006F722048484B42206D6F640A000A092DDC
:100C50002056657273696F6E202D0A000A6D6F75DC
:100C600073653A206F66660A000A6D6F7573653AA0
:100C7000206F6E0A000A6B6579626F6172643A20B8
:100C80006F66660A000A6B6579626F6172643A206A
:100C90006F6E0A000A6D61747269783A206F666639
:100CA0000A000A6D61747269783A206F6E0A000A50
:100CB00064656275673A206F6E0A000A6465627542
:100CC000673A206F66660A000A0A626F6F746C6F7B
:100CD000616465722E2E2E2000433E2000001124F8
:100CE0001FBECFEFDAE0DEBFCDBF04B603FE27C0E4
:100CF0008091760390917703A0917803B091790366
:100D00008730904BA740B04BD1F4109276031092ED
:100D10007703109278031092790314BE84B7877F0B
:100D200084BF0FB6F894A895809160008861809385
:100D30006000109260000FBEE0E0F8E3099511E05A
:100D4000A0E0B1E0EEE5FAE502C005900D92AA3907
:100D5000B107D9F723E0AAE9B1E001C01D92A63797
:100D6000B207E1F70E946E100C942D2D0C94000038
:100D70000FB680959AE0F8947BE27A95F1F708F047
:100D8000589A08F4589886959A95B1F70FBE089529
:100D90000FB680E8F894499BFECF4999FECF96E1C3
:100DA0009A95F1F79CE29A95F1F7869549998068B2
:100DB000C8F70FBE08950FB680E8F89496E19A95AB
:100DC000F1F79CE29A95F1F7869549998068C8F702
:100DD00096E19A95F1F7499BFECF0FBE0895FF93D8
:100DE000EF93E0919A01F0919B01309709F00995FA
:100DF000EF91FF910895FC018591803011F0EFDFB4
:100E0000FBCF0895FF27E0E230E247FF0CC0419599
:100E100097FF09C0EDE26095709580959095611DF2
:100E2000711D811D911D27FF02C0219530E350E205
:100E3000AA27660F771F881F991FAA1FA41710F0F3
:100E4000A41B63955A95A9F7AA3008F0A95FA05D85
:100E5000AF93F395611571058105910541F7ED3269
:100E600011F4EF93F395F21718F43F93F395FBCF3A
:100E70008F91B5DFFA95E1F70895E991F9918591A0
:100E8000803021F0853219F0AADFF9CF089520E0F3
:100E9000E89455915532C1F3503311F4689455914B
:100EA0005A3348F4505390F3220F022E220F220F90
:100EB000200D250FF4CF0EF4219589919991533689
:100EC00019F3533729F1533559F1BC018827992774
:100ED000E8945C3621F4899199916894559154363F
:100EE00039F446EF7EF077FF0DC08FEF9FEF0AC019
:100EF00055374AE039F0583540E121F0523642E0AA
:100F000009F00895FF93EF937DDFEF91FF91B7CF45
:100F1000FF93EF93FC0181918030B9F360DFFBCF49
:100F2000FF93EF9368DFF1CFDF93CF93CDB7DEB7B9
:100F30002596A3DFCF91DF91089514B88FEF85B97F
:100F4000549A5C9808958FEF84B980E485B9549AD7
:100F50005C9A8FE19EE40197F1F700C000000895CC
:100F60008FEF84B980E485B957985F9A87B1806C18
:100F700087B988B1806C88B92E9A2F980E949D07F6
:100F8000ECEAF1E080E18E0F11928E13FDCFECE9D7
:100F9000F1E080E18E0F11928E13FDCF8CEA91E08B
:100FA0009093BF018093BE018CE991E09093BD01C5
:100FB0008093BC010895EF92FF920F931F93CF93FC
:100FC000DF938091BC019091BD012091BE013091D1
:100FD000BF013093BD012093BC019093BF0180936A
:100FE000BE015C9B0E94A307C0E0D0E001E010E0DE
:100FF00080E090E0FC2FF770EC2FE87025B1207CAA
:101000002F2BAC0133E0440F551F3A95E1F7242B09
:1010100025B928B12F73EE2311F0206401C0206898
:1010200028B92AE12A95F1F700C0A091BC01B0913E
:10103000BD01AC0FBD1F2C9130E0082E02C03595CC
:1010400027950A94E2F720FD2F9AA5E3AA95F1F7D8
:101050000000F6B42E98BAE1BA95F1F700C04091BD
:10106000BE015091BF01BA016C0F7D1F4F9B0BC099
:101070009801082E01C0220F0A94EAF72095DB019F
:101080003C91232309C0DB01EC909801082E01C09C
:10109000220F0A94EAF72E292C9326B56F2D70E0C3
:1010A0002F1518F026B530E004C026B530E02150E9
:1010B0003F4F261B370B2630310558F0A091BC015D
:1010C000B091BD01AC0FBD1F2C91DA01AC0FBD1F5B
:1010D0002C93BAE1BA95F1F700C02F982E9A20EA26
:1010E0002A95F1F701968830910509F087CFA091F4
:1010F000BE01B091BF01AC0FBD1FE091BC01F091EA
:10110000BD01EC0FFD1F9C918081981751F00E944A
:1011100042246093C0017093C1018093C2019093F7
:10112000C3012196C031D10509F062CF5C9B1BC081
:1011300080916D03853021F080916D03811113C082
:101140006091C0017091C1018091C2019091C30171
:101150000E947824613177428105910520F00E9438
:101160009D070E94C52381E0DF91CF911F910F91D0
:10117000FF90EF9008952091BE013091BF01F901D9
:10118000E80FF11D808108950F931F93CF93DF9394
:101190008EEF91E00E94FB06C0E0D0E002EF11E08C
:1011A000E091BE01F091BF01EC0FFD1F80810E9414
:1011B0009B231F928F93DF93CF931F930F930E94D4
:1011C000940721960F900F900F900F900F900F9013
:1011D000C031D10529F7DF91CF911F910F9108956B
:1011E0000C94A3070C949D07569A81FF02C05E9A47
:1011F00008955E98089588E08093CC001092CD0009
:10120000E9ECF0E080818069808380818860808360
:10121000EAECF0E080818083EBECF0E08081808379
:10122000559A5D98789408959091C5012091C401D4
:101230009217D1F030E0F901EA53FE4F80812F5F21
:101240003F4F33272093C401492F50E0921718F4E1
:10125000241B350B03C0241B350B3395233031057C
:101260000CF05D9890E008958FEF9FEF08959091B6
:10127000C80095FFFCCF8093CE0008951F920F9277
:101280000FB60F9211242F933F934F935F938F9339
:101290009F93EF93FF938091C50190E0AC014F5F66
:1012A0005F4F2091C401241741F03091CE00FC0122
:1012B000EA53FE4F30834093C5013091C501822F20
:1012C00090E0432F50E0841B950B321708F0939564
:1012D00003970CF45D9AFF91EF919F918F915F912D
:1012E0004F913F912F910F900FBE0F901F90189527
:1012F0008091DE02089508958091DE020895089598
:10130000089508950895CF93DF938D3C9105B9F129
:10131000B8F4853B9105A9F148F4833B9105D1F1DF
:10132000843B9105D1F5D0E0C0E23BC0873B9105FD
:1013300071F150F18C3C910581F5D0E0C8E031C0ED
:101340008A3E9105C1F040F4823E9105B1F0893E9C
:10135000910519F5D0E124C0813222E0920749F0CD
:10136000833222E09207D9F08A389140B1F4D2E07A
:1013700017C0D4E015C0D0E213C0D0E411C0D0E84B
:101380000FC0D0E0C1E00DC0D0E0C2E00AC0D0E0A4
:10139000C4E007C0D0E0C0E104C0D0E001C0D1E0AB
:1013A000C0E08DEF0E94370983E00E94370983E097
:1013B0000E9437098D2F0E9437098C2FDF91CF9122
:1013C0000C943709CF93DF93EC018DEF0E9437091E
:1013D00085E00E94370982E00E94370988810E94D7
:1013E000370989810E9437098A810E9437098B81D8
:1013F000DF91CF910C943709CF93DF93EC018DEF00
:101400000E94370989E00E94370981E00E9437096C
:1014100088810E94370980E00E9437098A810E94F2
:1014200037098B810E9437098C810E9437098D8191
:101430000E9437098E810E9437098F81DF91CF91F9
:101440000C9437090C941409EF92FF920F931F9399
:10145000CF938C010E9436247C01C0E0C7010E941A
:101460004E248017910798F40E9414099C012F3F85
:101470008FEF380751F02D3041F02A3041F0EC2F3A
:10148000F0E0EA53FD4F2083CF5FC73138F3EC2FF4
:10149000F0E0EA53FD4F108286EC92E0CF911F916D
:1014A0000F91FF90EF9008950C94370981B3881F36
:1014B0008827881F0895879A8F9A089585B780682E
:1014C00085BF85B7806885BF0E945B0A86988E9A23
:1014D00081988998559A5D980C94FB08879A8F9803
:1014E00008958FB18695817008958FB186FB882706
:1014F00080F908958093DE020895CF93DF93CAEABE
:10150000D2E00E94220A8F3F2FEF920759F09F935B
:101510008F93DF93CF930E9494070F900F900F90BB
:101520000F90EFCFDF91CF910895CF93DF93FC0120
:101530008491EF012196882321F00E94540AFE0134
:10154000F7CF2FEF89E698E1215080409040E1F7F6
:1015500000C0000084E690E00E94240A8093DF022D
:101560009093E0029F938F938DEA92E09F938F93E5
:101570000E9494070E947D0A0F900F900F900F9089
:101580008091DF029091E002DF91CF9108950E9457
:10159000021890931501809314010E94901D80E021
:1015A00091E00E94FD170E946E0A0E94750A811147
:1015B000FCCF80E992E00E94FB062FEF85EB95E3DC
:1015C000215080409040E1F700C000008CE892E09C
:1015D0000E94950AEFEFFBE42DE1E150F04020403E
:1015E000E1F700C000000E947D0A88E892E00E94B6
:1015F000950AFC018081863721F084E892E00C9402
:10160000950A08958BE692E00E94FB0685E692E03B
:101610000E94950A0E945B0A0E94901D809114010D
:10162000909115010C94FD170C94AA0F8F929F9224
:10163000AF92BF92CF92DF92EF92FF920F931F93E0
:10164000CF93DF9392E0B92E0EEB14E024ECE22E60
:1016500024E0F22EAA24A39433E0932E4CEAC42E65
:1016600044E0D42E0E94220AEC01019609F441C004
:101670008091E3028130F9F028F0823009F1833063
:1016800021F134C0CE3FD10519F4A092E302EACF94
:10169000C038D10528F4DF93CF93FF92EF9204C0B6
:1016A000DF93CF931F930F930E9494070F900F9097
:1016B0000F900F90D7CF2297C9F4B092E302D2CF08
:1016C0002197A1F49092E302CDCF8091580380FF3F
:1016D0000AC0DF93CF93DF92CF920E9494070F90BE
:1016E0000F900F900F908C2F0E947A0A1092E302B5
:1016F000B9CF8091E502811121C08091E40281116E
:101700001DC00E94710A81110AC00E9402188A50ED
:10171000914029F00E94901D8AE091E00DC00E9446
:10172000710A882359F00E9402188651914031F0C5
:101730000E94901D86E191E00E94FD178091E102D8
:101740009091E2020E944E24893E23E0920708F421
:1017500061C028EE33E0B9010E94DD2C629FC00118
:10176000639F900D729F900D11242091E1023091A2
:10177000E202820F931F9093E2028093E1020E94A3
:101780004810833011F481E001C080E00E94990F7D
:101790000E94422428EE33E040E050E00E94052DF4
:1017A00049015A018CE3C82ED12CE12CF12CCA013D
:1017B000B901A70196010E94052D672B682B692BA3
:1017C00049F50E9411102091580320FF23C09F93D8
:1017D0008F931F921F92C501B40120E13EE040E0CB
:1017E00050E00E94052DC22FA70196010E94052DF1
:1017F0003F932F931F92CF9387E994E09F938F930A
:101800000E9494078DB79EB70A960FB6F8949EBFB4
:101810000FBE8DBF0E94710A811107C00E94750A18
:10182000882319F06E9A769802C06E9A769ADF91A4
:10183000CF911F910F91FF90EF90DF90CF90BF90CD
:10184000AF909F908F9008958F929F92AF92BF928A
:10185000CF92DF92EF92FF921F93CF93DF9300D04E
:1018600000D0CDB7DEB7833109F48CC008F05BC07F
:101870008B3009F466C08C3009F48FC0853009F0D4
:10188000FBC10E94422428EE33E040E050E00E9479
:10189000052D49015A010E9411109F938F9386EEE6
:1018A00092E09F938F930E949407C501B40120E1B9
:1018B0003EE040E050E00E94052D5F934F933F9340
:1018C0002F9320EE32E03F932F9369837A838B83AB
:1018D0009C830E9494078CE3C82ED12CE12CF12C20
:1018E00069817A818B819C81A70196010E94052DD7
:1018F0005F934F933F932F938AED92E09F938F9343
:101900000E949407C501B401A70196010E94052D0C
:101910009F938F937F936F9384ED92E09F938F9328
:101920000E94940740C1883361F020F4883109F4A3
:1019300040C1A2C1873409F46DC18C3409F456C189
:101940009BC183E794E00E94FB068EE594E00E9431
:10195000FB0684E494E00E94FB068DE194E00E9483
:10196000FB0682E094E00E94FB0680EF93E00E9479
:10197000FB061091E50211117DC180ED93E00E94FC
:10198000FB067EC10E94C70A88EB92E00E94950A7E
:1019900082EB92E00E94950A6BC187EB93E00E9474
:1019A000FB060E9402188A50914019F08FE291E0E4
:1019B00002C089E291E09F938F9389EA93E09F931D
:1019C0008F930E9494078091E4021F928F938AE97B
:1019D00093E09F938F930E9494070E94710A0FB621
:1019E000F894DEBF0FBECDBF811107C00E94750AFB
:1019F000811106C088E391E005C084E391E002C054
:101A00008BE391E09F938F9380E993E09F938F9373
:101A10000E9494070E94560A1F928F9385E793E0D5
:101A20009F938F930E9494078091E5021F928F935A
:101A300084E693E09F938F930E94940780916D03B7
:101A40000FB6F894DEBF0FBECDBF8823B9F08091EA
:101A50006D038130B1F080916D038230A9F08091E7
:101A60006D038330A1F080916D03843099F08091F3
:101A70006D03853091F080E791E011C088E491E03A
:101A80000EC080E491E00BC083E591E008C08BE5D7
:101A900091E005C085E691E002C082E791E09F9366
:101AA0008F9385E593E09F938F930E9494078BE437
:101AB00093E09F938F930E9494070E9448100F9089
:101AC0000F900F900F900F900F90813059F038F0D9
:101AD000823059F0833061F485E393E00BC086E4F3
:101AE00093E008C080E493E005C089E393E002C07E
:101AF00083E393E09F938F930E9494070F900F903E
:101B000081E393E09F938F930E94940780916B03EE
:101B10001F928F9388E193E09F938F930E94940785
:101B20008091D90081701F928F938EE093E09F93F4
:101B30008F930E9494070E94422428EE33E040E0F5
:101B400050E00E94052D69017A019CE3892E912CB9
:101B5000A12CB12CCA01B901A50194010E94052D47
:101B60007F936F93C701B60120E13EE040E050E073
:101B70000E94052D122FA50194010E94052D3F936F
:101B80002F931F921F93C701B60120E831E541E072
:101B900050E00E94052D3F932F9381EF92E09F9399
:101BA0008F930E9494070FB6F894DEBF0FBECDBF8F
:101BB00061C08091E502811162C01091E40211239D
:101BC00039F089EC92E00E94FB061092E40258C0C2
:101BD0008FEB92E00E94FB0681E08093E4020E947A
:101BE000901D86E191E00E94FD1744C00E94560AB4
:101BF000182F882341F00E94C70A81E08093680370
:101C00008093E5023DC00E94020B1092680310927F
:101C1000E50230C08091E502811102C00E94C70A2E
:101C20008EE592E00E94950A83E592E00E94950A73
:101C30008FE392E00E94950A88E392E00E94950A61
:101C40008EE292E00E94950A87E292E00E94950A55
:101C50008DE192E00E94950A83E192E00E94950A4C
:101C60008DE092E00E94950A8091E502811102C008
:101C70000E94020B11E004C01091E50201C010E0C7
:101C8000812F0F900F900F900F90DF91CF911F91A8
:101C9000FF90EF90DF90CF90BF90AF909F908F908C
:101CA0000895CF93C82F0E94FA22827291E009F41E
:101CB00090E04C2F50E0FA013497E934F10508F038
:101CC000D0C0EA5AFF4F0C94272D8BE12DC1911102
:101CD000CCC081E629C19111CAC082E625C191110B
:101CE000C8C083E621C19111C6C084E61DC191110F
:101CF000C4C085E619C19111C2C086E615C1911113
:101D0000C0C087E611C19111BEC088E60DC1911116
:101D1000BCC089E609C19111BAC08AE605C191111A
:101D2000B8C08BE601C19111B6C08CE6FDC091111F
:101D3000B4C08DE6F9C09111B2C08EE6F5C0911124
:101D4000B0C08FE6F1C09111AEC080E7EDC0911137
:101D5000ACC081E7E9C09111AAC082E7E5C091114A
:101D6000A8C083E7E1C09111A6C084E7DDC091114E
:101D7000A4C085E7D9C09111A2C086E7D5C0911152
:101D8000A0C087E7D1C091119EC088E7CDC0911156
:101D90009CC089E7C9C091119AC08AE7C5C091115A
:101DA00098C081E3C1C0911196C082E3BDC091117A
:101DB00094C083E3B9C0911192C084E3B5C091117E
:101DC00090C085E3B1C091118EC086E3ADC0911182
:101DD0008CC087E3A9C091118AC088E3A5C0911186
:101DE00088C089E3A1C0911186C080E39DC088E0CE
:101DF0009BC089E099C080E297C091117EC08DE2BE
:101E000093C091117CC08DE38FC091117AC08BE596
:101E10008BC0911178C08DE587C0992309F475C0F6
:101E20008CE782C0992309F472C08CE77DC09111C0
:101E300070C08BE379C091116EC087E275C09111BB
:101E40006CC080E671C091116AC08CE26DC09111C6
:101E500068C08EE269C0911166C08FE265C080E003
:101E600063C080E261C08AE05FC081E45DC082E45B
:101E70005BC083E459C084E457C085E455C086E460
:101E800053C087E451C088E44FC089E44DC08AE460
:101E90004BC08BE449C08CE447C08DE445C08EE460
:101EA00043C08FE441C080E53FC081E53DC082E58D
:101EB0003BC083E539C084E537C085E535C086E59C
:101EC00033C087E531C088E52FC089E52DC08AE59C
:101ED0002BC081E229C080E427C083E225C084E2D0
:101EE00023C085E221C08EE51FC086E21DC08AE2C4
:101EF0001BC088E219C089E217C08FE515C08BE2CC
:101F000013C08BE711C08DE70FC08CE50DC08CE5C9
:101F10000BC08AE309C082E207C08EE705C08CE3EC
:101F200003C08EE301C08FE30E94540A81E0CF9189
:101F30000895833019F4859A7D9A0895813011F4BB
:101F4000859A06C0823019F4859A8D9A08958598ED
:101F50008D98089581E00E94990F2FEF89E698E10E
:101F6000215080409040E1F700C0000082E00E94D4
:101F7000990F2FEF89E698E1215080409040E1F7DA
:101F800000C0000081E00E94990F2FEF89E698E1E0
:101F9000215080409040E1F700C0000082E00E94A4
:101FA000990F2FEF89E698E1215080409040E1F7AA
:101FB00000C0000080E00E94990F80EC80937C00BC
:101FC00087E080937A0081E980937E0081E08093AE
:101FD0007F008BE380937D00849A8C980895809194
:101FE000D90080FF1CC090B331B385988D9AEFE97A
:101FF000FFE03197F1F700C000008FB185FB882723
:1020000080F920B390722F7D292B20BB91B3232F11
:1020100020729F7D922B91BB91E08927089580E0EB
:102020000895CF93DF9300D0CDB7DEB7849A8C9A12
:1020300080917A00806880937A008FE99FE0019711
:10204000F1F700C0000080917A00806480937A00EC
:1020500080917A0086FDFCCF809178009091790084
:102060009A83898380917A008F7780937A00849A0B
:102070008C9829813A8145E0429FC001439F900D91
:102080001124805591090F900F90DF91CF91089501
:102090008091D90080FD0C94EF0F0E9411108C3AB2
:1020A0002DE0920720F481E08093E60205C0853799
:1020B0009E4010F01092E6028091E602811102C06B
:1020C00082E0089583E00895CF93C82F0E94B80658
:1020D0008C2F0E94F51080E0CF910895CF9384B7A4
:1020E000877F84BF0FB6F894A895809160008861BF
:1020F00080936000109260000FBE90E080E80FB601
:10210000F89480936100909361000FBE0E9449157E
:102110000E94A6158091E20084608093E20084E62C
:1021200090E10E949623509A589A5198599A78941F
:10213000CFEF80916D03843051F08FE79EE30197DC
:10214000F1F700C000000E94E217C15091F787EE3E
:1021500094E00E94FB060E945E0A0E94140B8BED25
:1021600094E00E94FB060E9493180E94710A81115C
:1021700003C08AE091E002C086E191E00E94FD1771
:102180008BEC94E00E94FB060E94710A882319F1EF
:1021900080916D038530F9F487EC94E00E94FB0692
:1021A0000E94F2080E94C5230E94C5230E94C523F5
:1021B0000E94C5230E94C5230E94C5230E94C523F7
:1021C00080916B03882301F30E94EE238823E1F2C0
:1021D0000E949C13D9CF0E9497180E94E2170E9478
:1021E000160BD2CF8091F20208959FB7F894109207
:1021F000E9029FBF90916D03943009F057C0909110
:10220000E9009F703091EC00232F217030FD20E811
:10221000922B24E02093E9002091EB0020FF43C0A3
:102220002091EE0027FF3FC02091E702222321F0FA
:102230002091E80025FF37C01092E70226E0309198
:10224000E80035FD15C030916D03343061F53091F3
:10225000EB0035FD28C0215021F481E08093E70296
:1022600022C0EFE9FFE03197F1F700C00000E7CFAF
:102270008093F1008091E80085FD0AC08091E8001C
:1022800080FFFCCF8091E8008E778093E80006C045
:102290008FB7F89421E02093E9028FBF9F7090934D
:1022A000E90080E008959F709093E9008FEF089512
:1022B000CF93DF9300D01F92CDB7DEB79C01809102
:1022C0006D03843019F593E099833B832A839093BF
:1022D000E9008FEF9091E800815095FD06C095EDE3
:1022E0009A95F1F700008111F5CF8091E80085FF04
:1022F0000DC040E050E063E070E0CE0101960E9426
:10230000B2138091E8008E778093E8000F900F90D1
:102310000F90DF91CF910895CF93DF9300D01F925C
:10232000CDB7DEB720916D03243021F522E029835B
:102330009B838A8383E08093E9008FEF9091E8008C
:10234000815095FD06C095ED9A95F1F70000811139
:10235000F5CF8091E80085FF0DC040E050E063E0DC
:1023600070E0CE0101960E94B2138091E8008E7752
:102370008093E8000F900F900F90DF91CF91089518
:1023800020916D032430F1F422E02093E9002FEF37
:102390003091E800215035FD06C035ED3A95F1F752
:1023A00000002111F5CF2091E80025FF0BC040E08F
:1023B00050E065E070E00E94B2138091E8008E77F3
:1023C0008093E8000895CF93DF9320916D0324302C
:1023D00039F521E02093E9002FEF3091E8002150FA
:1023E00035FD06C035ED3A95F1F700002111F5CF26
:1023F0002091E80025FF14C0EC0140E050E068E0C7
:1024000070E00E94B2138091E8008E778093E8001C
:1024100088E0FE01AAEEB2E001900D928A95E1F704
:10242000DF91CF91089582E095E00E94FB068091B4
:102430006C03811109C00E9449150E94A615809164
:10244000E20084608093E20008958EEF94E00E94A1
:10245000FB0610926C0308958AEF94E00C94FB063F
:102460002091E8022F5F822F62E30E94D12C9923F2
:1024700019F02093E80208951092E8028091E90291
:10248000882371F180916D03843041F58091E900DA
:102490008F702091EC00922F917020FD90E8892B95
:1024A00094E09093E9009091EB0090FF14C090911C
:1024B000EE0097FF10C09091E80095FF03C01092C6
:1024C000F100F9CF9091E80090FF05C09091E800ED
:1024D0009E779093E8008F708093E9001092E90254
:1024E000089542E061EC81E00E94C31442E061EC97
:1024F00082E00E94C31442E061EC83E00E94C314B6
:1025000042E261EC84E00C94C31480916F03833049
:1025100009F453C030F4813071F0823009F48CC07A
:1025200008958A3009F478C08B3009F45EC0893090
:1025300009F09AC020C080916E03813A09F094C0DE
:102540008091E800877F8093E800809172039091EA
:102550007303892B21F468E08AEE92E003C060E007
:1025600080E090E070E00E94FF138091E8008B779C
:102570008093E800089580916E03813209F074C061
:102580008091720390917303892B09F06DC0809143
:10259000E800877F8093E8008091E80082FD05C015
:1025A00080916D038111F8CF5FC08091F10080931D
:1025B000F2028091E8008B7753C080916E03813ADC
:1025C00009F052C08091720390917303892B09F036
:1025D0004BC08091E800877F8093E8008091E800FD
:1025E00080FFFCCF8091200136C080916E03813244
:1025F000D9F58091720390917303892BA9F580918D
:10260000E800877F8093E8000E94F81480917003AF
:10261000809320010C94901D80916E03813221F5EE
:102620008091E800877F8093E8000E94F8148091F1
:1026300071038093F302089580916E03813AA1F4AF
:102640008091E800877F8093E8008091E80080FF18
:10265000FCCF8091F3028093F1008091E8008E77A7
:102660008093E8000C94F8140895089586EF94E0A0
:102670000E94FB060C9435130C94022482EF94E024
:102680000E94FB060C943C13292F3327233031057D
:10269000C9F064F42130310581F02230310509F0B0
:1026A00043C084E790E02EE235E042C0213231059C
:1026B000F1F02232310541F137C082E190E022EAA7
:1026C00035E036C099278130910541F0823091057F
:1026D00041F0892B49F5EAE2F5E005C0EAE1F5E0D1
:1026E00002C0E6E0F5E0849190E09F0121C06430F3
:1026F000D8F4E62FF0E0EE0FFF1FE857FE4F2081E1
:10270000318189E090E014C0643070F470E0FB0126
:10271000EE0FFF1FE058FE4F20813181FB01E4588E
:10272000FE4F808190E004C080E090E020E030E047
:10273000FA0131832083089580E189BD82E189BD5A
:1027400009B400FEFDCF8091D8008F7D8093D80022
:102750008091E00082608093E0008091E00081FD44
:10276000FCCF0895CF92DF92EF92FF920F931F93C9
:10277000CF93DF93EC018B017A010E941715811131
:1027800035C0E114F10439F0F70180819181081B13
:10279000190BC80FD91FC12CD12C0115110529F116
:1027A0008091E80085FD18C08091E8008E778093C5
:1027B000E8000E94E217E114F10449F0F70180817A
:1027C0009181C80ED91ED182C08285E00FC00E94BF
:1027D0001715882311F30AC089918093F1000150E5
:1027E0001109FFEFCF1ADF0AD8CF80E0DF91CF9138
:1027F0001F910F91FF90EF90DF90CF90089520915F
:102800007403309175032617370748F06115710579
:1028100039F42091E8002E772093E80001C0B90137
:1028200040E061157105A9F120916D03222309F49F
:1028300043C0253009F442C02091E80023FD40C088
:102840002091E80022FD32C02091E80020FFE9CF6E
:102850004091F3002091F20030E0342BFC01CF01D5
:102860006115710559F02830310540F4819180934C
:10287000F100615071092F5F3F4FF1CF41E02830E7
:10288000310509F040E02091E8002E772093E80020
:10289000C8CF4111C9CF0AC080916D03882361F070
:1028A000853061F08091E80083FD0AC08091E800E6
:1028B00082FFF2CF80E0089582E0089583E00895DA
:1028C00081E008952091740330917503261737072E
:1028D00048F06115710539F42091E8002E772093B6
:1028E000E80001C0B901FC0120E06115710591F11A
:1028F00080916D03882309F440C0853009F43FC0FE
:102900008091E80083FD3DC08091E80082FD2FC0EA
:102910008091E80080FFE9CF2091F3008091F200E0
:1029200090E0922B6115710559F08830910540F4C3
:1029300024912093F1003196615071090196F2CFF4
:1029400021E0089709F020E08091E8008E778093DD
:10295000E800CBCF2111CCCF0AC080916D03882332
:1029600061F0853061F08091E80083FD0AC08091BC
:10297000E80082FFF2CF80E0089582E0089583E0CE
:10298000089581E00895982F973058F59093E900C5
:10299000981739F07091EC002091ED005091F00003
:1029A00003C0242F762F50E021FF19C03091EB0097
:1029B0003E7F3093EB003091ED003D7F3093ED0092
:1029C0003091EB0031603093EB007093EC0020937A
:1029D000ED005093F0002091EE0027FF07C09F5FAD
:1029E000D3CF8F708093E90081E0089580E008954F
:1029F00080916E0387FF11C08091E80082FD05C0C1
:102A000080916D038111F8CF11C08091E8008B7720
:102A10000BC080916D03882349F08091E80080FF0E
:102A2000F8CF8091E8008E778093E8000895209198
:102A3000E4003091E50095E64091EC00842F817030
:102A400040FF22C08091E80080FD1CC080916D0392
:102A5000882391F0853091F08091EB0085FD10C0C6
:102A60004091E4005091E5004217530729F39A0181
:102A7000915011F784E0089582E0089583E008956D
:102A800081E0089580E008954091E80042FFDECFA4
:102A900008950E94B7150E94BF15E0EEF0E0808116
:102AA00081608083E8EDF0E080818F77808319BCBE
:102AB000A7EDB0E08C918E7F8C9380818F7E808398
:102AC00010926C0308950F931F93CF93DF930E948E
:102AD000B7150E94BF15C8EDD0E088818F77888335
:102AE00088818068888388818F7D888319BC109253
:102AF0006D031092690310926B0310926A0300EE4B
:102B000010E0F80180818B7F8083888181608883D9
:102B100042E060E080E00E94C314E1EEF0E08081DA
:102B20008E7F8083E2EEF0E080818160808380810F
:102B300088608083F80180818E7F808388818061B6
:102B40008883DF91CF911F910F910895E8EDF0E018
:102B500080818F7E8083E7EDF0E0808181608083DB
:102B600084E082BF81E080936C030C946315E8EDF0
:102B7000F0E080818E7F80831092E20008951092B1
:102B8000DA001092E10008951F920F920FB60F9293
:102B900011242F933F934F935F936F937F938F9362
:102BA0009F93AF93BF93EF93FF938091E10082FFD8
:102BB0000BC08091E20082FF07C08091E1008B7F13
:102BC0008093E1000E9430128091DA0080FF1FC0E4
:102BD0008091D80080FF1BC08091DA008E7F8093A7
:102BE000DA008091D90080FF0DC080E189BD82E1CB
:102BF00089BD09B400FEFDCF81E080936D030E9482
:102C0000131205C019BC10926D030E942512809109
:102C1000E10080FF19C08091E20080FF15C0809123
:102C2000E2008E7F8093E2008091E20080618093D9
:102C3000E2008091D80080628093D80019BC85E0C2
:102C400080936D030E9436138091E10084FF30C0B1
:102C50008091E20084FF2CC080E189BD82E189BDC2
:102C600009B400FEFDCF8091D8008F7D8093D800FD
:102C70008091E1008F7E8093E1008091E2008F7E61
:102C80008093E2008091E20081608093E200809175
:102C90006903882311F084E007C08091E30087FD79
:102CA00002C081E001C083E080936D030E943E1367
:102CB0008091E10083FF24C08091E20083FF20C067
:102CC0008091E100877F8093E10082E080936D0333
:102CD000109269038091E1008E7F8093E1008091E2
:102CE000E2008E7F8093E2008091E2008061809319
:102CF000E20042E060E080E00E94C3140E942C12D7
:102D0000FF91EF91BF91AF919F918F917F916F91C3
:102D10005F914F913F912F910F900FBE0F901F9099
:102D200018951F93CF93DF93CDB7DEB7AA970FB651
:102D3000F894DEBF0FBECDBFEEE6F3E088E08E0F65
:102D40009091F10091938E13FBCF0E948512809198
:102D5000E80083FF1FC180916E0390916F03492F9C
:102D600050E04A30510508F015C1FA01E156FF4F15
:102D70000C94272D803881F0823809F00BC18091A6
:102D800072038F708093E9008091EB0085FB8827A8
:102D900080F91092E90006C080916A0390916B035C
:102DA000911182609091E800977F9093E800809362
:102DB000F1001092F100C8C0282F2D7F09F0EAC061
:102DC000882319F0823061F0E5C080917003813072
:102DD00009F0E0C0933009F080E080936B032BC0D2
:102DE00080917003811127C0809172038F7009F464
:102DF000D1C08093E9002091EB0020FF1CC09330EC
:102E000021F48091EB00806214C09091EB009061FE
:102E10009093EB0021E030E0A90102C0440F551F60
:102E20008A95E2F74093EA001092EA008091EB0065
:102E300088608093EB001092E9008091E800877F22
:102E400086C08111A7C0109170031F778091E300A5
:102E50008078812B8093E3008091E800877F8093C6
:102E6000E8000E94F8148091E80080FFFCCF809178
:102E7000E30080688093E300111102C082E001C08A
:102E800083E080936D0386C08058823008F082C052
:102E900080917003909171038C3D53E0950779F513
:102EA00083E08A838AE289834FB7F894DE01139620
:102EB00020E03EE051E2E32FF0E050935700E49130
:102EC00020FF03C0E295EF703F5FEF708E2F90E020
:102ED000EA3010F0C79601C0C0968D939D932F5F86
:102EE000243149F74FBF8091E800877F8093E80045
:102EF0006AE270E0CE0101960E94FF1314C0AE0199
:102F00004F5F5F4F609172030E944413BC01892B95
:102F100009F440C09091E800977F9093E800898180
:102F20009A810E9462148091E8008B778093E80078
:102F300031C0803879F58091E800877F8093E80080
:102F4000809169038093F1008091E8008E778093EF
:102F5000E8000E94F8141EC081111CC090917003FB
:102F60009230C0F48091E800877F8093E8009093CE
:102F700069030E94F81480916903811106C0809151
:102F8000E30087FD02C081E001C084E080936D030F
:102F90000E9471128091E80083FF0AC08091E800CE
:102FA000877F8093E8008091EB0080628093EB0044
:102FB000AA960FB6F894DEBF0FBECDBFDF91CF91BA
:102FC0001F910895CF9380916D038823A1F0C09144
:102FD000E900CF709091EC00892F817090FD80E81E
:102FE000C82B1092E9008091E80083FD0E949116A1
:102FF000CF70C093E900CF9108959093F902809328
:10300000F80208958091F8029091F9020895E091F4
:10301000F802F091F902309721F00190F081E02D53
:10302000099480E00895EF92FF920F931F93CF933E
:10303000DF93E091F802F091F9023097B1F18C0141
:103040000280F381E02D09958091580382FF2DC005
:1030500080FF04C081EA96E00E94FB06E80118E0C8
:103060008BE9E82E86E0F82E8091580380FF0BC094
:1030700088811F928F93FF92EF920E9494070F9086
:103080000F900F900F90115021961111EDCF80915C
:10309000580380FF0AC089E996E0DF91CF911F9124
:1030A0000F91FF90EF900C94FB06DF91CF911F9151
:1030B0000F91FF90EF900895E091F802F091F902DE
:1030C000309721F00480F581E02D09940895209136
:1030D000F6023091F7028217930771F09093F7028E
:1030E0008093F602E091F802F091F902309721F016
:1030F0000680F781E02D099408952091F402309123
:10310000F5028217930771F09093F5028093F40211
:10311000E091F802F091F902309721F00084F185F6
:10312000E02D099408950E942D240C94B007CF92AD
:10313000DF92EF92FF920F931F93CF93DF9300D014
:1031400000D000D0CDB7DEB70E94DB078BEFC82ED2
:1031500082E0D82E00E010E0E02E802F0E94BB0815
:10316000F60141916F01F42EF826B1F40F5F1F4F65
:103170000031110589F78FEF89838A831B820E94B2
:1031800036248160782F9D838C8349815A816B819D
:103190008D810E94561947C09091580391FF04C039
:1031A0008E830E94C4088E8120E030E04F2D50E0D5
:1031B000922FBA01022E02C0759567950A94E2F724
:1031C00060FF2BC02983EA8221E030E0690102C060
:1031D000CC0CDD1C9A95E2F790E08C219D21892B87
:1031E00009F420E02B830E9436248160782F9D8390
:1031F0008C8349815A816B818D810E945619498146
:103200005A816B817C818D810E94B223F801E55047
:10321000FD4F8081C826C08206C02F5F3F4F2830F7
:10322000310531F6A3CF0E94B1230E9425271091CA
:10323000FA020E940718181741F10E94071880939C
:10324000FA029091580392FF0EC090FF0CC01F929B
:103250008F9383EB96E09F938F930E9494070F9038
:103260000F900F900F908091FA0226960FB6F89467
:10327000DEBF0FBECDBFDF91CF911F910F91FF90A9
:10328000EF90DF90CF900C94C32326960FB6F8945E
:10329000DEBF0FBECDBFDF91CF911F910F91FF9089
:1032A000EF90DF90CF9008950C94F408CF93DF93C4
:1032B000CDB7DEB72B970FB6F894DEBF0FBECDBFEC
:1032C000942F4F83252F588769877A878B874A8564
:1032D0005B85452B21F02F3F09F59F3FF9F4DE0177
:1032E000119686E0FD0111928A95E9F785E0FE01CD
:1032F000379601900D928A95E1F749815A816B8149
:103300007C818D819E810E9433202B960FB6F8948C
:10331000DEBF0FBECDBFDF91CF9108954F8158859D
:1033200069857A858B850E94B223D9CFCF93882374
:1033300009F4A4C0C82F8CEF8C0F813A48F48C2F6D
:103340000E944B2A81119AC08C2F0E94BE220CC071
:1033500080E28C0F883058F4C77081E001C0880F7C
:10336000CA95EAF70E94FD22CF910C9441238BE588
:103370008C0F833078F4C53A29F0C63A31F083E8EF
:1033800090E005C081E890E002C082E890E0CF9133
:103390000C94671888E58C0F853108F06FC0C83A27
:1033A00061F1C93A69F1CA3A71F1CB3A79F1CC3A93
:1033B00081F1CD3A89F1CE3A91F1CF3A99F1C13B01
:1033C000A1F1C03BA9F1C23BB1F1C33BB9F1C43B90
:1033D000C1F1C53BC9F1C63BD1F1C73BD9F1C83BEF
:1033E000E1F1C93BE9F1CA3BF1F1CB3BF9F1CC3B4F
:1033F00009F43FC080E090E03EC082EE90E03BC028
:1034000089EE90E038C08AEE90E035C085EB90E020
:1034100032C086EB90E02FC083EB90E02CC084EBB1
:1034200090E029C087EB90E026C08CEC90E023C0B0
:103430008DEC90E020C083E891E01DC08AE891E027
:103440001AC082E991E017C084E991E014C081E2DA
:1034500092E011C083E292E00EC084E292E00BC0E1
:1034600085E292E008C086E292E005C087E292E041
:1034700002C08AE292E0CF910C947D18CF9108951A
:10348000882329F19CEF980F913A18F40E94DB22CF
:103490000DC090E2980F983058F4877091E001C009
:1034A000990F8A95EAF7892F0E9403230C944123F0
:1034B0009BE5980F933020F480E090E00C9467181F
:1034C000885A853120F480E090E00C947D180895AE
:1034D000882321F00E94FD220C9441230895882323
:1034E00021F00E9403230C9441230895CF92DF9290
:1034F000EF92FF920F931F93CF93DF9300D000D0F2
:1035000000D0CDB7DEB725E0FC01DE0111960190B9
:103510000D922A95E1F7FC0140813181F2802581ED
:1035200022952F7063817481672B09F4D8C23F3FC5
:1035300019F44F3F09F4D3C26C0149833A8389815E
:103540009A812E830E947D22182F092F0E947C22AF
:103550000E948C21E02FE295EF70F0E0E755FF4FDD
:103560002E810C94272D802F807F902F9F70092F04
:10357000882311F00295007FFF2049F0002309F411
:103580005FC2802F0E9410230E94412359C2812FC5
:103590000E94401A002309F4A2C2802F0E94162321
:1035A00026960FB6F894DEBF0FBECDBFDF91CF9148
:1035B0001F910F91FF90EF90DF90CF900C944123DB
:1035C000802F807F902F9F70092F803211F00295FD
:1035D000007F112319F0113001F129C0FF20A9F05B
:1035E000802F222349F1213039F526960FB6F89421
:1035F000DEBF0FBECDBFDF91CF911F910F91FF9026
:10360000EF90DF90CF900C942023222319F02130EB
:1036100009F465C20E9429232CC0FF20E9F026305E
:1036200008F05DC20E94FA22802329F022C0FF2008
:10363000F1F0211115C0802F26960FB6F894DEBF49
:103640000FBECDBFDF91CF911F910F91FF90EF90F3
:10365000DF90CF900C94681A253008F040C209C062
:10366000F601858180FFECC18F708583E4CF211145
:10367000FBC1802F69C1202F26952695237030E04D
:103680002115310521F021303105C9F028C2FF2074
:1036900021F0812F902F937002C080E090E0269659
:1036A0000FB6F894DEBF0FBECDBFDF91CF911F9153
:1036B0000F91FF90EF90DF90CF900C946718FF2050
:1036C00021F0812F902F937002C080E090E0269629
:1036D0000FB6F894DEBF0FBECDBFDF91CF911F9123
:1036E0000F91FF90EF90DF90CF900C947D18812F79
:1036F000FF2019F00E94AB2502C00E9413262696D7
:103700000FB6F894DEBF0FBECDBFDF91CF911F91F2
:103710000F91FF90EF90DF90CF900C949826802F20
:10372000837009F078C0F110DAC1812F82958695F7
:103730008770880F880F912F9F70C92ED12CE12C94
:10374000F12C082E04C0CC0CDD1CEE1CFF1C0A94CE
:10375000D2F714FF12C04FE050E060E070E004C008
:10376000440F551F661F771F8A95D2F7CB01BA0108
:10377000609570958095909503C060E070E0CB01F6
:10378000202F269526952370422F50E04230510578
:10379000D1F04330510559F16C297D298E299F299B
:1037A0004130510541F126960FB6F894DEBF0FBEA9
:1037B000CDBFDF91CF911F910F91FF90EF90DF90E0
:1037C000CF900C94A1216C297D298E299F292696C2
:1037D0000FB6F894DEBF0FBECDBFDF91CF911F9122
:1037E0000F91FF90EF90DF90CF900C94B3210E9447
:1037F000A121C701B60126960FB6F894DEBF0FBE11
:10380000CDBFDF91CF911F910F91FF90EF90DF908F
:10381000CF900C948F21FF2019F0802F817001C070
:103820008695882309F45BC1812F829586958770E0
:10383000880F880F912F9F70C92ED12CE12CF12C6D
:10384000082E04C0CC0CDD1CEE1CFF1C0A94D2F721
:1038500014FF12C04FE050E060E070E004C0440F7D
:10386000551F661F771F8A95D2F7CB01BA01609565
:1038700070958095909503C060E070E0CB01202F9B
:10388000269526952370422F50E042305105D1F005
:103890004330510559F16C297D298E299F294130EA
:1038A000510541F126960FB6F894DEBF0FBECDBF8D
:1038B000DF91CF911F910F91FF90EF90DF90CF900C
:1038C0000C9458226C297D298E299F2926960FB6A3
:1038D000F894DEBF0FBECDBFDF91CF911F910F9146
:1038E000FF90EF90DF90CF900C946A220E945822B4
:1038F000C701B60126960FB6F894DEBF0FBECDBF46
:10390000DF91CF911F910F91FF90EF90DF90CF90BB
:103910000C944622103F41F118F4103E48F48BC03D
:10392000123F09F450C0D8F1133F09F460C083C0BE
:103930001F70802F8F71FF2021F00E94DF21812FC7
:103940007BCE0E940022812F26960FB6F894DEBF10
:103950000FBECDBFDF91CF911F910F91FF90EF90E0
:10396000DF90CF900C946F1AFF20A9F0253008F05B
:10397000B6C0802F8F7126960FB6F894DEBF0FBEAB
:10398000CDBFDF91CF911F910F91FF90EF90DF900E
:10399000CF900C942522263008F0A1C0EACFFF205A
:1039A000A1F0802F8F7126960FB6F894DEBF0FBE60
:1039B000CDBFDF91CF911F910F91FF90EF90DF90DE
:1039C000CF900C94DF21FF2061F3802F8F7126961A
:1039D0000FB6F894DEBF0FBECDBFDF91CF911F9120
:1039E0000F91FF90EF90DF90CF900C940022FF207A
:1039F00091F0802F8F7126960FB6F894DEBF0FBE20
:103A0000CDBFDF91CF911F910F91FF90EF90DF908D
:103A1000CF900C94CA2126960FB6F894DEBF0FBE45
:103A2000CDBFDF91CF911F910F91FF90EF90DF906D
:103A3000CF900C94C521FF20A1F0222309F4B1CF2F
:103A4000812F26960FB6F894DEBF0FBECDBFDF9153
:103A5000CF911F910F91FF90EF90DF90CF900C943A
:103A60009619222309F4B1CF812F26960FB6F89428
:103A7000DEBF0FBECDBFDF91CF911F910F91FF90A1
:103A8000EF90DF90CF900C94401A402F4F70612F31
:103A9000C6010E94252526960FB6F894DEBF0FBEFC
:103AA000CDBFDF91CF911F910F91FF90EF90DF90ED
:103AB000CF900C94D720402F4F70612FC6012696CF
:103AC0000FB6F894DEBF0FBECDBFDF91CF911F912F
:103AD0000F91FF90EF90DF90CF900C9428252696C1
:103AE0000FB6F894DEBF0FBECDBFDF91CF911F910F
:103AF0000F91FF90EF90DF90CF9008950E941D23CB
:103B00000E94EC220E9441230E94CA270E9498260C
:103B100080E090E00E94671880E090E00C947D18AF
:103B20000E940D230C947E1D0E947D22292F229538
:103B30002F7030E02C3031054CF42A3031056CF414
:103B4000225031092230310588F407C02C3031056C
:103B500049F02F30310531F009C0803E48F0803FF8
:103B600029F406C093FB882780F9089580E0089522
:103B700081E00895CF93DF9300D000D01F92CDB79E
:103B8000DEB70F900F900F900F900F90DF91CF91B5
:103B90000895CF93DF9300D000D000D0CDB7DEB72B
:103BA00026960FB6F894DEBF0FBECDBFDF91CF9142
:103BB00008951F93CF93DF93C0910B0316E080917C
:103BC0000C03C81799F0D0E01C9FF0011D9FF00D69
:103BD0001124E35FFC4F40815181628173818481B4
:103BE00095810E94C91D2196C770E9CFDF91CF91C1
:103BF0001F91089540913D0350913E0360913F0312
:103C00007091400380914103909142030C94C91D2F
:103C10008091420382958F7009F054C080913F03D8
:103C2000882309F44FC080910B03A0910C0360918D
:103C30003D0370913E034091400350914103B6E033
:103C40008A1709F43FC090E041155105C1F17F3F4B
:103C500011F46F3FA1F1B89FF001B99FF00D11244D
:103C6000E35FFC4F218172132AC02081621327C0B9
:103C70002281211124C0238134812417350710F4B7
:103C800021503109241B350B2C323140C0F42091D6
:103C900042032F7020612093420326E0289FF00109
:103CA000299FF00D1124EE5EFC4F80818F708061A2
:103CB00080838DE393E00E94761A0C94D91D0196BF
:103CC0008770BECF0895CF92DF92EF92FF920F934D
:103CD0001F93CF93DF93CDB7DEB762970FB6F894FB
:103CE000DEBF0FBECDBF8C0185E0F801DE011D9661
:103CF00001900D928A95E1F7D8014C9111965C9153
:103D0000119712966C9112971396CD90DC901497A0
:103D100030913D0370913E038091400390914103A7
:103D2000009709F473C17F3F19F43F3F09F46EC156
:103D3000E0903F03EE2009F4C5C020914203C8166D
:103D4000D90650F0F601E81BF90BCF01FF24F394DC
:103D50008C329140C8F009C0809590958C0D9D1DC6
:103D6000FF24F3948C32914078F0F12C207F09F0FD
:103D7000C6C07C2DD98AC88A89890E94BA1D8DE364
:103D800093E00E94761AB1C0822F807F09F045C06F
:103D9000751313C0341311C061110FC02F7020614F
:103DA000209342030E94FA1D8DE393E00E94761A4D
:103DB00080914203F80185832EC0CD2819F15F3F21
:103DC00011F44F3FF9F0F62E61111CC080910B03E6
:103DD00020910C0336E0821709F45BC090E0389F15
:103DE000F001399FF00D1124E35FFC4F71815713EF
:103DF00006C07081471303C07281711103C0019620
:103E00008770E9CFF62E662309F41DC18091420325
:103E1000816080934203F12C16C1751309C03413DD
:103E200007C0611105C080914203F8018583C8C0B5
:103E30004D875E878D859E856A8B0E94941D6A8959
:103E40008823E1F16623D1F120914203822F8295EC
:103E50008F7090E0029774F080913D0390913E0343
:103E600098878F831986DB86CA862C87CE010796B2
:103E70000E94761A86E0F801ADE3B3E001900D925E
:103E80008A95E1F70E94081E0E94FA1DFF24F39410
:103E9000DAC04D875E878D859E850E947D22292F01
:103EA00022952F7030E0223031050CF0BFC09F709A
:103EB00009F0B9C0805E883008F4C5C0C8010E940E
:103EC000761AE4CFC816D90608F453C0F601E81BE9
:103ED000F90BCF018C32914008F453C0F12C7C2DAA
:103EE000D98AC88A89890E94BA1DEDE3F3E086E089
:103EF000DF011D928A95E9F70E94FA1DA4C075138F
:103F000014C0341312C0611110C080914203F80133
:103F10008583C8010E94761A86E0EDE3F3E0DF01B5
:103F20001D928A95E9F7FE2C8EC04D875E878D85A0
:103F30009E856A8B0E94941D6A89882309F4BECFEE
:103F4000662309F4BBCF20914203822F82958F70A4
:103F500090E002970CF48ECF80913D0390913E0348
:103F60009A8389831B82DD82CC822E83CE010196C7
:103F70007FCF809590958C0D9D1D8C32914008F0DF
:103F8000ADCFF62E662309F499CF75132EC03413E6
:103F90002CC02091420320FD1FC0822F82958F707C
:103FA000D9F0D80115962C9315978F3049F08F5F73
:103FB000982F9295907F822F8F70892B15968C93D6
:103FC000C8010E94761A86E0F801ADE3B3E00190E3
:103FD0000D928A95E1F790CF86E0F801ADE3B3E06A
:103FE00001900D928A95E1F72EC04D875E878D85F1
:103FF0009E850E94941D81113DCF80914203816076
:1040000080934203C8010E94761A1DC0662309F4FA
:1040100055CF4D875E878D859E850E94941D882390
:1040200009F44CCF27CF811145CF0DC02430310585
:104030000CF044CF9F7009F43DCFD80115969C91A8
:10404000907F09F037CF8F2D62960FB6F894DEBFC0
:104050000FBECDBFDF91CF911F910F91FF90EF90D9
:10406000DF90CF9008951F93CF93DF93CDB7DEB746
:104070002C970FB6F894DEBF0FBECDBF4F83588785
:1040800069877A878B879C87CE0107960E94631E7B
:10409000882369F08F8198852A853B85232BF1F150
:1040A0009F3F09F063C08F3F09F060C037C086E0D2
:1040B000FE013796DE01119601900D928A95E1F787
:1040C0006F817885EA85FB85309741F17F3F11F458
:1040D0006F3F21F120910C0330E0C90101968770F8
:1040E000992740910B0350E08417950709F447C0C6
:1040F00069837A83FD83EC8396E0929FD001939F3E
:10410000B00D1124A35FBC4FFE01319601900D92BA
:104110009A95E1F780930C030E94D91D16E08091D7
:104120000B0390910C038917C1F1189FC001112452
:10413000835F9C4F0E94631E882379F1E0910B03FB
:104140001E9FF0011124E35FFC4F40815181628189
:104150007381848195810E94C91D80910B0390E039
:1041600001968770992780930B03D9CF4F8158858B
:1041700069857A858B859C850E94C91DCFCF0E9459
:10418000901D10920C0310920B03EDE3F3E086E018
:10419000DF011D928A95E9F7C1CF2C960FB6F894EE
:1041A000DEBF0FBECDBFDF91CF911F910895DF928B
:1041B000EF92FF920F931F93CF93DF93FC01892B14
:1041C00009F48AC0E12CF12CDD24D394EF0121966F
:1041D0008491853709F461C058F4843708F04EC0E3
:1041E000843008F06AC08130D1F0823071F174C03F
:1041F000883709F45DC050F4863709F455C0873715
:1042000009F06AC08E2D0E940A2354C09CE7980FC3
:10421000903708F061C08F770E94401A50C08F011C
:104220000E5F1F4FFE01849190E2980F983050F47A
:104230008770FD2D01C0FF0F8A95EAF78F2F0E942E
:10424000102314C00E94961913C08F010E5F1F4FD8
:10425000FE01C49180E28C0F883060F4C7708D2D10
:1042600001C0880FCA95EAF70E9416230E944123D5
:10427000E80125C08C2F0E94401AFACF9F012E5FC3
:104280003F4FFE01C491CC2369F08FE99FE0019775
:10429000F1F700C00000C150F6CF9F012E5F3F4FE5
:1042A000FE01F490E9010BC00E94FA22E82E07C03B
:1042B0000E940D230E94412302C00E9496198F2D57
:1042C000882341F0EFE9FFE03197F1F700C00000EB
:1042D0008150F6CFFE017ACFDF91CF911F910F91E0
:1042E000FF90EF90DF900895609347037093480329
:1042F0008093490390934A030E94C1230C947E1D2E
:104300006093430370934403809345039093460363
:104310000E94C2230C947E1D08950C9474210F9367
:104320001F93009147031091480320914903309156
:104330004A03602B712B822B932B1F910F910C94AE
:1043400074210F931F93009147031091480320910C
:10435000490330914A0360237123822393231F91E1
:104360000F910C9474210F931F93009147031091A8
:1043700048032091490330914A036027712782271F
:1043800093271F910F910C94742160E070E0CB0192
:104390000C9480210F931F9341E050E060E070E0A7
:1043A0008A019B0104C0000F111F221F331F8A9531
:1043B000D2F7C901B8011F910F910C9480210F937E
:1043C0001F9341E050E060E070E004C0440F551FCF
:1043D000661F771F8A95D2F780914303909144031B
:1043E000A0914503B09146038A019B01082B192B2C
:1043F0002A2B3B2BC901B8011F910F910C948021EE
:104400000F931F9341E050E060E070E004C0440F60
:10441000551F661F771F8A95D2F740955095609576
:1044200070958091430390914403A0914503B0910E
:1044300046038A019B01082319232A233B23C90130
:10444000B8011F910F910C9480210F931F9341E0AD
:1044500050E060E070E004C0440F551F661F771FF6
:104460008A95D2F78091430390914403A09145032C
:10447000B09146038A019B01082719272A273B2769
:10448000C901B8011F910F910C9480210F931F93C4
:10449000009143031091440320914503309146035A
:1044A000602B712B822B932B1F910F910C948021E9
:1044B0000F931F93009143031091440320914503F0
:1044C0003091460360237123822393231F910F9120
:1044D0000C9480210F931F93009143031091440388
:1044E0002091450330914603602771278227932747
:1044F0001F910F910C9480210895CF92DF92EF923B
:10450000FF920F931F93CF93DF938C01C0904703CB
:10451000D0904803E0904903F0904A034091430350
:10452000509144036091450370914603C42AD52AF3
:10453000E62AF72ACFE1D0E0D701C6010C2E04C04D
:10454000B695A795979587950A94D2F780FF07C0EF
:10455000B8018C2F0E94FA248130910531F4219703
:1045600058F7B80180E00E94FA24DF91CF911F91A3
:104570000F91FF90EF90DF90CF900895209121014F
:1045800030912201F90132969FEF40E05191581786
:1045900089F09F3F19F4511101C0942F4F5F4630AD
:1045A000A9F79F3F39F0F901E90FF11D97FDFA9541
:1045B0008283089508952091210130912201F9010B
:1045C0003296285F3F4F9081981301C01082319638
:1045D000E217F307C1F7089581E090E0E09121012F
:1045E000F0912201E80FF91F1082019688309105A1
:1045F000A9F7089580915703089590915703892B47
:104600008093570308958095909157038923809351
:104610005703089580935703089510925703089500
:1046200090915603892B809356030895809590911D
:1046300056038923809356030895109256030895D4
:1046400080934D030E94362490934C0380934B0338
:10465000089510924D0310924C0310924B0308954D
:104660008091210190912201FC0131969C01285FEB
:104670003F4F80E0919191118F5FE217F307D1F7DF
:104680000895E0912101F0912201809157038083E8
:10469000E0912101F0912201908180915603892BB4
:1046A000808380914D038823D9F10E943624209184
:1046B0004B0330914C038217930748F00E94362435
:1046C00020914B0330914C03821B930B0AC00E9434
:1046D000362420914B0330914C0320953095820F66
:1046E000931F8C32914070F08091580380FF08C076
:1046F0008EEB96E09F938F930E9494070F900F90FC
:104700000E942923E0912101F09122019081809162
:104710004D03892B80830E94302381110E9429231D
:1047200080912101909122010C94131890939B0188
:1047300080939A0108958295982F9C7C392F369505
:104740003695282F237344E0249FC0011124932F12
:10475000982B292F2A7A2695892F8575880F822BE9
:1047600008950895CF93DF9300D000D01F92CDB766
:10477000DEB70F900F900F900F900F90DF91CF91B9
:104780000895089508950C94541980916D03843010
:1047900021F11092590320E488E190E00FB6F894DB
:1047A000A895809360000FBE2093600083B7817F3F
:1047B000846083BF83B7816083BF7894889583B713
:1047C0008E7F83BF0FB6F894A895809160008861B2
:1047D00080936000109260000FBE0895CF930E94F6
:1047E000F0080E94DB070E94F208C0E08C2F0E94B4
:1047F000BB08811104C0CF5FC031C1F701C081E0A7
:10480000CF9108950C94901D1F920F920FB60F92A6
:1048100011248F939F93AF93BF938091590381117C
:1048200013C080915A0390915B03A0915C03B091F7
:104830005D034196A11DB11D80935A0390935B03C4
:10484000A0935C03B0935D03BF91AF919F918F9153
:104850000F900FBE0F901F90189582E084BD93E0DB
:1048600095BD9AEF97BD80936E0008952FB7F89489
:1048700080915A0390915B03A0915C03B0915D031A
:104880002FBF08952FB7F89460915A0370915B037E
:1048900080915C0390915D032FBF0895CF92DF92CA
:1048A000EF92FF920F931F932FB7F89440915A0302
:1048B00050915B0360915C0370915D032FBF6A01AF
:1048C0007B01EE24FF248C0120E030E0C016D106ED
:1048D000E206F30610F4415051099A01281B390BE6
:1048E000C9011F910F91FF90EF90DF90CF90089535
:1048F000CF92DF92EF92FF920F931F932FB7F8940E
:10490000C0905A03D0905B03E0905C03F0905D038D
:104910002FBF97018601061B170B280B390BC616F4
:10492000D706E806F90618F0C901B80106C0C901A2
:10493000B80161507109810991091F910F91FF9090
:10494000EF90DF90CF9008951F920F920FB60F92C5
:1049500011248F939F93AF93BF9380915A039091AB
:104960005B03A0915C03B0915D030196A11DB11D95
:1049700080935A0390935B03A0935C03B0935D0311
:10498000BF91AF919F918F910F900FBE0F901F908D
:1049900018950E944915F8942FEF87EA91E6215067
:1049A00080409040E1F700C0000087E090EBDC0120
:1049B0008093760390937703A0937803B093790361
:1049C0009CE088E10FB6F894A895809360000FBE34
:1049D00090936000FFCF28E0929FF0011124E80F30
:1049E000F11DEE58FE4F8491982F90778F7092951D
:1049F0009F700895CF93C82FCB010E94EB24292FDD
:104A000030E0E82FF0E0A90164E0440F551F6A95FB
:104A1000E1F74E2B5F2B4038510519F480E090E010
:104A200012C088E0C89F200D311D112484E0220FA0
:104A3000331F8A95E1F7E20FF31FEE0FFF1FE050DF
:104A4000F84985919491CF91089580E090E0089580
:104A500008958091600380FF0BC06091260185E07E
:104A6000689FB001112475956795759567952BC062
:104A700081FF09C06091260185E0689FB001112483
:104A80007595679520C082FF07C06091260185E07B
:104A9000689FB001112417C0909161039923D1F050
:104AA00060912501961788F72091260185E0289FBF
:104AB00090011124929FA001939F500D112470E04A
:104AC000CA010E94F12C6038710540F4611571052E
:104AD00039F002C065E070E0862F08958FE70895F1
:104AE00081E008958091600380FF08C060912401F7
:104AF00070E0759567957595679521C081FF06C033
:104B00006091240170E07595679519C082FF04C01B
:104B10006091240170E010C0909161039923C1F06D
:104B2000609123019617A0F780912401899FC0010D
:104B3000112470E00E94F12C6038710528F4611591
:104B4000710521F0862F08958FE7089581E008957B
:104B500061E070E0F4CF803F21F40E942925819527
:104B600004C0813F29F40E9429258093640308959D
:104B7000823F21F40E942925819504C0833F29F4B6
:104B80000E942925809363030895893F19F40E94A8
:104B9000722505C08A3F31F40E9472258195809369
:104BA000650308958B3F21F40E947225819504C00E
:104BB0008C3F29F40E947225809366030895843FF8
:104BC00021F480916203816017C0853F21F48091B8
:104BD0006203826011C0863F21F480916203846089
:104BE0000BC0873F21F480916203886005C0883F35
:104BF00031F48091620380618093620308958D3F58
:104C000021F48091600381600BC08E3F21F480917C
:104C10006003826005C08F3F29F480916003846047
:104C2000809360030895803F39F48091640387FF87
:104C30006CC01092640369C0813F29F480916403C1
:104C40001816BCF362C090916303823F29F497FF6A
:104C50005CC01092630359C0833F19F41916CCF35A
:104C600054C0893F41F48091650318160CF04DC083
:104C7000109265034AC08A3F29F48091650387FF3B
:104C800044C0F6CF8B3F39F48091660387FF3DC067
:104C9000109266033AC08C3F29F48091660318167F
:104CA000BCF333C0843F21F4809162038E7F17C030
:104CB000853F21F4809162038D7F11C0863F21F4EE
:104CC000809162038B7F0BC0873F21F48091620348
:104CD000877F05C0883F31F4809162038F7E809387
:104CE000620313C08D3F21F4809160038E7F0BC05F
:104CF0008E3F21F4809160038D7F05C08F3F29F4A2
:104D0000809160038B7F80936003809163038111A6
:104D10000EC08091640381110AC0809165038111E6
:104D200006C080916603811102C01092610308954C
:104D30008091580383FF7EC087EF96E00E94FB06B8
:104D4000809162031F928F9382EF96E09F938F93DF
:104D50000E94940780EF96E00E94FB068091630317
:104D6000282F082E000C330B3F938F938DEE96E087
:104D70009F938F930E9494078BEE96E00E94FB0610
:104D800080916403282F082E000C330B3F938F93E0
:104D900088EE96E09F938F930E94940786EE96E0AC
:104DA0000E94FB0680916503282F082E000C330B10
:104DB0003F938F9383EE96E09F938F930E94940787
:104DC00081EE96E00E94FB0680916603282F082E54
:104DD000000C330B3F938F938EED96E09F938F9350
:104DE0000E9494078BED96E00E94FB068091610380
:104DF0001F928F9388ED96E09F938F930E94940764
:104E000086ED96E00E94FB06809160031F928F93CF
:104E100083ED96E09F938F930E94940780ED96E038
:104E20000E94FB068DB79EB74C960FB6F8949EBFB6
:104E30000FBE8DBF82E693E00E945C180E9436246C
:104E400090935F0380935E0308951F93CF93DF9346
:104E500080915E0390915F030E944E24AC0190917B
:104E60006103992321F02091270130E006C02091B1
:104E700028018AE0289F900111244217530708F463
:104E800085C080916303C0916403D0916503109144
:104E90006603811107C0C11175C0D11173C0111112
:104EA00071C074C09F3F19F09F5F90936103181603
:104EB00024F40E942925809363038091630387FF74
:104EC00005C00E9429258195809363031C1624F454
:104ED0000E942925809364038091640387FF05C0A5
:104EE0000E94292581958093640360916303662362
:104EF00031F1C0916403CC2311F1062E000C770B25
:104F0000880B990B0E94D82B23E333E343E35FE341
:104F10000E943C2C0E94A02B609363036C2FCC0F4B
:104F2000770B880B990B0E94D82B23E333E343E3E1
:104F30005FE30E943C2C0E94A02B609364031D162B
:104F400024F40E947225809365038091650387FF96
:104F500005C00E947225819580936503111624F483
:104F60000E947225809366038091660387FF05C0C7
:104F70000E947225819580936603DF91CF911F91E6
:104F80000C9498269F3F09F08FCF97CFDF91CF9158
:104F90001F910895E2E6F3E085E0DF011D928A9516
:104FA000E9F7109261031092600308958AE199E095
:104FB0000E94FB061F9281E08F931F9285E08F93E2
:104FC0008CEC98E09F938F930E9494070F900F9022
:104FD0000F900F900F900F9008958330E9F128F40F
:104FE000813061F0823009F10895853009F462C0A2
:104FF00008F449C0863009F474C0089580912801EE
:10500000262F30E0280F311D2F3F310524F4680F83
:105010006093280103C08FEF8093280180912801BD
:105020001F928F9385E098E072C080912701262F10
:1050300030E0280F311D2F3F310524F4680F6093B5
:10504000270103C08FEF80932701809127011F92D2
:105050008F9383EF97E05BC080912601262F30E08D
:10506000280F311D2F3F310524F4680F609326016E
:1050700003C08FEF80932601809126011F928F93AA
:1050800080EE97E044C080912501262F30E0280F64
:10509000311D2F3F310524F4680F6093250103C0B3
:1050A0008FEF80932501809125011F928F938BECC8
:1050B00097E02DC080912401262F30E0280F311D6C
:1050C0002F3F310524F4680F6093240103C08FEF54
:1050D00080932401809124011F928F9382EB97E0AB
:1050E00016C080912301262F30E0280F311D2F3F5D
:1050F000310524F4680F6093230103C08FEF809380
:105100002301809123011F928F9387E997E09F935A
:105110008F930E9494070F900F900F900F90089517
:10512000833081F128F4813059F08230D1F0089534
:10513000853009F449C0B8F1863009F456C00895A5
:1051400080912801681720F4861B8093280102C0F3
:1051500010922801809128011F928F9388E897E090
:1051600054C080912701681720F4861B8093270183
:1051700002C010922701809127011F928F9386E72A
:1051800097E043C080912601681720F4861B809326
:10519000260102C010922601809126011F928F9352
:1051A00083E697E032C080912501681720F4861BC2
:1051B0008093250102C010922501809125011F9244
:1051C0008F938EE497E021C080912401681720F42A
:1051D000861B8093240102C0109224018091240137
:1051E0001F928F9385E397E010C080912301681789
:1051F00020F4861B8093230102C01092230180912A
:1052000023011F928F938AE197E09F938F930E94CF
:1052100094070F900F900F900F900895CF93C82F81
:105220001F928F938FE19AE09F938F930E94940730
:1052300081E090E0A0E0B0E0BC01CD0104C0660FC9
:10524000771F881F991FCA95D2F70E948D210F9052
:105250000F900F900F90CF910C94901DCF938732A9
:1052600088F58E3108F00BC18E3009F487C0D8F470
:10527000873009F460C08B3009F44FC0863009F0E4
:1052800002C180915803817F8E7F8093580384E20E
:105290009AE00E94FB0689ED9CE00E94FB0681E0FB
:1052A0008093680346C0863109F4B0C020F4803191
:1052B00009F47AC0E8C0893109F491C08B3109F44E
:1052C00049C0E1C0883349F150F4893209F4D5C0AE
:1052D000853309F4D2C0873209F0D5C0CEC08334FB
:1052E00009F4CBC028F48A3308F4CDC08953C8C070
:1052F000883409F0C8C00E94901D88EC9CE00E9490
:10530000FB062FEF83ED90E3215080409040E1F7C2
:1053100000C000000E94C9240CC08BE49AE041C088
:105320008FEA9CE00E94FB06809158038160809385
:105330005803C1E0ADC080915803C82FC17080FFF1
:10534000EFCF8BEB9CE00E94FB0680915803817F9E
:105350008E7F3FC09091580391FBCC27C0F981E02C
:10536000C827892FC0FB81F980935803CC2319F0FB
:1053700082EA9CE029C084E99CE013C09091580324
:1053800092FBCC27C0F981E0C827892FC0FB82F9A6
:1053900080935803CC2319F085E89CE015C085E77D
:1053A0009CE00E94FB06C5CF9091580393FBCC274D
:1053B000C0F981E0C827892FC0FB83F98093580387
:1053C000CC2351F089E69CE00E94FB0680915803B3
:1053D0008160809358035CC08CE59CE0E2CF8DE453
:1053E0009CE00E94FB0680E29CE00E94FB0689EEA6
:1053F0009BE00E94FB068CEB9BE00E94FB0687E78C
:105400009BE00E94FB0689E49BE0CBCF8BE39BE013
:105410000E94FB060E9407181F928F9381E29BE077
:105420009F938F930E949407809120011F928F93E6
:105430008AE09BE09F938F930E9494078091F302F0
:105440001F928F9387EF9AE09F938F930E94940708
:105450000E9442249F938F937F936F9380EE9AE0F4
:105460009F938F930E9494078DB79EB742960FB675
:10547000F8949EBF0FBE8DBF5CCF80E001C08D5100
:105480000E940E2956CF8EED9AE00E94FB06C0E0E6
:105490008C2FCF910895CF93C82F809168038130CE
:1054A00071F020F0823009F44BC042C1E09121013B
:1054B000F09122018081823209F03CC107C0E09165
:1054C0002101F09122018081823261F48C2F0E94AF
:1054D000240C811104C08C2F0E942E292FC081E042
:1054E00090E02CC08C2F0E94510E811126C0C43137
:1054F000E1F070F4CB3081F0C031D1F40E94D627B6
:1055000087E19AE00E94FB0682E08093680315C061
:10551000C93259F0C83361F484E29AE00E94FB0674
:105520008BE19AE00E94FB0608C01092680304C158
:1055300085E19AE00E94FB06FFC081E08170FEC019
:10554000C43228F5CE3108F0C1C0CB30A1F1D0F47F
:10555000C73009F0D3C08EE18093280182E38093A5
:1055600027018AE08093260184E18093250188E069
:105570008093240188E2809323018BEB98E00E94C2
:10558000FB06BFC0C33149F1C431C1F0B7C0CB3451
:1055900009F4A9C028F4C93289F0C83361F0AEC05B
:1055A000C13509F49EC0C23509F499C0CE3409F062
:1055B000A5C06AE09EC00E94D627A3C08091670361
:1055C000882319F0109267039CC088EC98E00E9431
:1055D000FB0681E080936803B1C082EA98E00E94F4
:1055E000FB0680E998E00E94FB06809128011F924B
:1055F0008F938DE898E09F938F930E9494078BE898
:1056000098E00E94FB0689E798E00E94FB068091E3
:1056100027011F928F9386E798E09F938F930E94B4
:10562000940784E798E00E94FB0685E698E00E94D4
:10563000FB06809126011F928F9382E698E09F934C
:105640008F930E94940780E698E00E94FB068FE407
:1056500098E00E94FB06809125011F928F938CE4B5
:1056600098E09F938F930E9494078AE498E00E94A9
:10567000FB0685E398E00E94FB06809124011F92BF
:105680008F9382E398E09F938F930E94940780E327
:1056900098E00E94FB0689E198E00E94FB06809159
:1056A00023011F928F9386E198E09F938F930E942E
:1056B000940784E198E00E94FB068DB79EB7489658
:1056C0000FB6F8949EBF0FBE8DBF1BC0CE51EC2FFE
:1056D000F0E0E057FE4F80818093670312C061E0E5
:1056E00003C061E006C06AE0809167030E94ED2775
:1056F00008C0809167030E94902803C089EB98E05E
:1057000013C080916703882369F01F928F9383EB06
:1057100098E09F938F930E9494070F900F900F90A3
:105720000F9004C080EB98E00E94FB0681E006C069
:105730001092680380E002C080E000CFCF9108950E
:105740000E94A72B6894B1110C94362C08950E94E6
:105750001B2C88F09F5798F0B92F9927B751B0F0BC
:10576000E1F0660F771F881F991F1AF0BA95C9F7E5
:1057700014C0B13091F00E94352CB1E008950C9422
:10578000352C672F782F8827B85F39F0B93FCCF3D5
:10579000869577956795B395D9F73EF49095809562
:1057A000709561957F4F8F4F9F4F0895E89409C082
:1057B00097FB3EF490958095709561957F4F8F4F44
:1057C0009F4F9923A9F0F92F96E9BB279395F6955A
:1057D000879577956795B795F111F8CFFAF4BB0FD8
:1057E00011F460FF1BC06F5F7F4F8F4F9F4F16C03C
:1057F000882311F096E911C0772321F09EE8872FC6
:10580000762F05C0662371F096E8862F70E060E081
:105810002AF09A95660F771F881FDAF7880F9695FA
:10582000879597F9089557FD9058440F551F59F0E3
:105830005F3F71F04795880F97FB991F61F09F3F7D
:1058400079F087950895121613061406551FF2CFA6
:105850004695F1DF08C0161617061806991FF1CFF6
:1058600086957105610508940895E894BB2766271D
:105870007727CB0197F908950E944F2C0C94C02CE8
:105880000E94B22C38F00E94B92C20F0952311F020
:105890000C94A92C0C94AF2C11240C94362C0E943F
:1058A000132C70F3959FC1F3950F50E0551F629F25
:1058B000F001729FBB27F00DB11D639FAA27F00D69
:1058C000B11DAA1F649F6627B00DA11D661F829F90
:1058D0002227B00DA11D621F739FB00DA11D621F75
:1058E000839FA00D611D221F749F3327A00D611D92
:1058F000231F849F600D211D822F762F6A2F112474
:105900009F5750409AF0F1F088234AF0EE0FFF1FA6
:10591000BB1F661F771F881F91505040A9F79E3FFD
:10592000510580F00C94A92C0C94362C5F3FE4F3C5
:10593000983ED4F3869577956795B795F795E79553
:105940009F5FC1F7FE2B880F911D9695879597F95C
:10595000089597F99F6780E870E060E008959FEFF1
:1059600080EC089500240A941616170618060906F6
:10597000089500240A9412161306140605060895C5
:10598000092E0394000C11F4882352F0BB0F40F44D
:10599000BF2B11F460FF04C06F5F7F4F8F4F9F4F8D
:1059A0000895991B79E004C0991F961708F0961B7B
:1059B000881F7A95C9F780950895AA1BBB1B51E1F2
:1059C00007C0AA1FBB1FA617B70710F0A61BB70B6F
:1059D000881F991F5A95A9F780959095BC01CD0114
:1059E000089597FB072E16F4009407D077FD09D091
:1059F0000E94DD2C07FC05D03EF4909581959F4FC9
:105A00000895709561957F4F0895A1E21A2EAA1B03
:105A1000BB1BFD010DC0AA1FBB1FEE1FFF1FA2175E
:105A2000B307E407F50720F0A21BB30BE40BF50B5B
:105A3000661F771F881F991F1A9469F760957095E4
:105A4000809590959B01AC01BD01CF010895EE0FAB
:0E5A5000FF1F0590F491E02D0994F894FFCF0C
:105A5E007C097F098009810982097809FC09E2091C
:105A6E007B0983090A01F210E311C0118C11581140
:105A7E00014E032808140A321E524E2D3432004CA9
:105A8E00554641004F4646004F4E00434F4E4E0086
:105A9E00506F776572656400556E617474616368EA
:105AAE0065640044656661756C740041646472657A
:105ABE007373656400436F6E666967757265640023
:105ACE003F0053757370656E64656400404D3622F9
