:100000000C94E7050C942E060C942E060C942E06E8
:100010000C942E060C942E060C942E060C942E0690
:100020000C942E060C942E060C94770D0C942E0630
:100030000C94241C0C942E060C942E060C942E0664
:100040000C942E060C942E060C942E060C942E0660
:100050000C942E060C94C41C0C942E060C942E06A4
:100060000C942E060C942E060C942E060C942E0640
:100070000C942E060C942E060C942E060C942E0630
:100080000C942E060C942E060C942E060C942E0620
:100090000C942E060C942E060C942E060C942E0610
:1000A0000C942E060C942E060C942E066D0E8F0EBC
:1000B0007D0F8F0E7D0FD40EF70E7D0F4C0F5F0F4F
:1000C0006612661293129312EE122A13221522154B
:1000D000421322153D143D14F814221522150E1555
:1000E0008080352B787939808080210877060780D9
:1000F0008080201A7A1B168080801E802980808054
:100100008080808080808080808022158019098096
:1001100080801F147B1D0480808023172C050A809B
:100120008080260C00360E808080251876100D8089
:100130008080241C80110B80808027127E370F80E6
:1001400080802A804F7D2880808074305152328098
:1001500080802D137C38338080802E2F5075348022
:10016000253032583A20253038620A000A722F634F
:100170002030313233343536370A005B735D004B43
:100180006579626F6172642073746172742E0A0003
:1001900055534220636F6E666967757265642E0AF7
:1001A000005B575D005B535D005B525D005B445D2F
:1001B000005B435D001203480048004B00420020F2
:1001C000006D006F00640000000E0374002E006DCF
:1001D000002E006B002E0000000403090409028DAC
:1001E00000050100A032090400000103010100091B
:1001F00021110100012240000705810308000A09BE
:100200000401000103010200092111010001224D36
:10021000000705820308000A090402000103000028
:10022000000921110100012236000705830308009F
:100230000A09040300020300000009211101000162
:100240002222000705840320000107050403200083
:10025000010904040001030000000921110100014B
:10026000223900070585031000011201100100006A
:100270000008EDFEFECA04010102000105010906A5
:10028000A101050719E029E7150025019508750169
:10029000810205081901290595057501910295014D
:1002A0007503910105071900297715002501957837
:1002B00075018102C00631FF0974A101097515009D
:1002C00026FF009520750881020976150026FF009B
:1002D000952075089102C005010980A101850216CB
:1002E000010026B7001A01002AB700751095018198
:1002F00000C0050C0901A1018503160100269C021E
:100300001A01002A9C02751095018100C00501099F
:1003100002A1010901A100050919012905150025FE
:10032000019505750181029501750381010501099A
:100330003009311581257F95027508810609381528
:1003400081257F950175088106050C0A3802158103
:10035000257F950175088106C0C005010906A10128
:10036000050719E029E715002501950875018102A7
:100370009501750881010508190129059505750183
:1003800091029501750391010507190029FF1500D8
:1003900026FF00950675088100C00A0025303258F6
:1003A00020006B6579626F6172645F7265706F7255
:1003B000743A20004C45443A20253032580A0064F3
:1003C000656C5F6B65795F6269743A2063616E2763
:1003D000742064656C3A20253032580A00616464E8
:1003E0005F6B65795F6269743A2063616E27742080
:1003F0006164643A20253032580A004F6E65736894
:100400006F743A2074696D656F75740A00646F6E5D
:10041000652E0A00626F6F746D6167696320736394
:10042000616E3A202E2E2E2000290A002575002FFD
:10043000002575005D28002564002000256400204B
:100440000025640020002564007C0025303258001F
:100450006D6F7573656B6579205B62746E7C782057
:1004600079207620685D287265702F61636C293A67
:10047000205B006D6B5F776865656C5F74696D65A7
:100480005F746F5F6D6178203D2025640A006D6B9D
:100490005F776865656C5F6D61785F7370656564D3
:1004A000203D2025640A006D6B5F74696D655F7483
:1004B0006F5F6D6178203D2025640A006D6B5F6D74
:1004C00061785F7370656564203D2025640A006D66
:1004D0006B5F696E74657276616C203D2025640ADD
:1004E000006D6B5F64656C6179203D2025640A00B6
:1004F0006D6B5F776865656C5F74696D655F746F60
:100500005F6D6178203D2025640A006D6B5F776820
:1005100065656C5F6D61785F7370656564203D2013
:1005200025640A006D6B5F74696D655F746F5F6D44
:100530006178203D2025640A006D6B5F6D61785FF6
:100540007370656564203D2025640A006D6B5F69EA
:100550006E74657276616C203D2025640A006D6BB7
:100560005F64656C6179203D2025640A000A0025DE
:100570007500363A20776865656C5F74696D655FF4
:10058000746F5F6D61783A20000A00257500353A76
:1005900020776865656C5F6D61785F737065656411
:1005A0003A20000A00257500343A2074696D655FB1
:1005B000746F5F6D61783A20000A00257500333A48
:1005C000206D61785F73706565643A20000A0025CC
:1005D0007500323A20696E74657276616C286D73AD
:1005E000293A20000A00257500313A2064656C61C3
:1005F00079282A31306D73293A20000A092D2056B6
:10060000616C756573202D0A004D3E004D25643EDA
:1006100020003F007365742064656661756C740A20
:1006200000433E200077686572652064656C7461E4
:100630003A20637572736F723D25642C207768656C
:10064000656C3D25640A53656520687474703A2FA3
:100650002F656E2E77696B6970656469612E6F72A4
:10066000672F77696B692F4D6F7573655F6B657960
:10067000730A000A092D204D6F7573656B6579202B
:100680002D0A4553432F713A09717569740A313A3D
:100690000964656C6179282A31306D73290A323A10
:1006A00009696E74657276616C286D73290A333A34
:1006B000096D61785F73706565640A343A0974691D
:1006C0006D655F746F5F6D61780A353A09776865AB
:1006D000656C5F6D61785F73706565640A363A09B1
:1006E000776865656C5F74696D655F746F5F6D6178
:1006F000780A0A703A097072696E742076616C75B6
:1007000065730A643A097365742064656661756C83
:1007100074730A75703A092B310A646F776E3A095F
:100720002D310A706775703A092B31300A70676491
:100730006F776E3A092D31300A0A7370656564204F
:100740003D2064656C7461202A206D61785F737050
:10075000656564202A2028726570656174202F20E9
:1007600074696D655F746F5F6D6178290A003F0081
:100770004D3E2000433E20004C25640A000A092D0E
:1007800020436F6E736F6C65202D0A4553432F71A4
:100790003A09717569740A6D3A096D6F7573656B05
:1007A00065790A000A092D204D61676963202D0AC9
:1007B000643A0964656275670A783A096465627526
:1007C00067206D61747269780A6B3A0964656275B5
:1007D00067206B6579626F6172640A6D3A096465BE
:1007E000627567206D6F7573650A763A0976657272
:1007F00073696F6E0A733A097374617475730A636F
:100800003A09636F6E736F6C65206D6F64650A30B3
:100810002D343A096C61796572302D3428463130B7
:100820002D4634290A506175733A09626F6F746CF2
:100830006F616465720A653A09656570726F6D0A69
:100840006E3A094E4B524F0A000A002575002E6E73
:100850006B726F3A20000A002575002E7377617065
:100860005F6261636B736C6173685F6261636B731A
:10087000706163653A20000A002575002E73776168
:10088000705F67726176655F6573633A20000A0086
:100890002575002E6E6F5F6775693A20000A002586
:1008A00075002E737761705F72616C745F7267752B
:1008B000693A20000A002575002E737761705F6C1D
:1008C000616C745F6C6775693A20000A00257500D9
:1008D0002E636170736C6F636B5F746F5F636F6EB9
:1008E00074726F6C3A20000A002575002E737761D0
:1008F000705F636F6E74726F6C5F636170736C6F47
:10090000636B3A20000A0025303258006B65796D20
:1009100061705F636F6E6669672E7261773A20005F
:100920000A002575002E6D6F7573653A20000A0068
:100930002575002E6B6579626F6172643A20000A3A
:10094000002575002E6D61747269783A20000A00E6
:100950002575002E656E61626C653A20000A0025DF
:100960003032580064656275675F636F6E666967F1
:100970002E7261773A20000A002575006465666171
:10098000756C745F6C617965723A20003F004E4B64
:10099000524F3A206F66660A004E4B524F3A206F14
:1009A0006E0A0074696D65725F7265616433322826
:1009B000293A202530346C580A006B6579626F61E2
:1009C00072645F6E6B726F3A2025580A006B65790E
:1009D000626F6172645F69646C653A2025580A0031
:1009E0006B6579626F6172645F70726F746F636F51
:1009F0006C3A2025580A00686F73745F6B657962E2
:100A00006F6172645F6C65647328293A2025580A07
:100A1000000A092D20537461747573202D0A004754
:100A200043433A20342E392E32204156522D4C4920
:100A300042433A20312E382E3073766E2041565282
:100A40005F415243483A20617672350A004F505454
:100A5000494F4E533A204C55464120424F4F544D3A
:100A600041474943204D4F5553454B455920455823
:100A70005452414B455920434F4E534F4C45204310
:100A80004F4D4D414E44204E4B524F204B45594DFA
:100A900041505F53454354494F4E20343039360A54
:100AA000004255494C443A20333964346639322D7A
:100AB0006469727479202831313A33343A333820FA
:100AC0004175672033302032303136290A005649CB
:100AD000443A2030784645454428742E6D2E6B2EBE
:100AE00029205049443A2030784341464528484817
:100AF0004B42206D6F6429205645523A20307830A1
:100B00003130340A00444553433A20742E6D2E6B25
:100B10002E206B6579626F617264206669726D77F1
:100B200061726520666F722048484B42206D6F6489
:100B30000A000A092D2056657273696F6E202D0A0E
:100B4000000A6D6F7573653A206F66660A000A6D5C
:100B50006F7573653A206F6E0A000A6B6579626F74
:100B60006172643A206F66660A000A6B6579626F8B
:100B70006172643A206F6E0A000A6D61747269785E
:100B80003A206F66660A000A6D61747269783A20CD
:100B90006F6E0A000A64656275673A206F6E0A001C
:100BA0000A64656275673A206F66660A000A0A621F
:100BB0006F6F746C6F616465722E2E2E2000433E41
:100BC00020006565636F6E6669673A0A000011244C
:100BD0001FBECFEFDAE0DEBFCDBF04B603FE27C0F5
:100BE0008091020290910302A0910402B09105024B
:100BF0008730904BA740B04BD1F410920202109274
:100C00000302109204021092050214BE84B7877F7B
:100C100084BF0FB6F894A895809160008861809396
:100C20006000109260000FBEE0E0F8E3099511E06B
:100C3000A0E0B1E0E0E3F1E502C005900D92A83339
:100C4000B107D9F722E0A8E3B1E001C01D92A230BC
:100C5000B207E1F70E949F0A0C9496280C940000BA
:100C6000FF93EF93E0913801F0913901309709F04B
:100C70000995EF91FF910895FC018591803011F065
:100C8000EFDFFBCF0895FF27E0E230E247FF0CC023
:100C9000419597FF09C0EDE260957095809590951C
:100CA000611D711D811D911D27FF02C0219530E33B
:100CB00050E2AA27660F771F881F991FAA1FA41743
:100CC00010F0A41B63955A95A9F7AA3008F0A95F04
:100CD000A05DAF93F395611571058105910541F70D
:100CE000ED3211F4EF93F395F21718F43F93F39567
:100CF000FBCF8F91B5DFFA95E1F70895E991F9916E
:100D00008591803021F0853219F0AADFF9CF08955E
:100D100020E0E89455915532C1F3503311F46894B2
:100D200055915A3348F4505390F3220F022E220F5C
:100D3000220F200D250FF4CF0EF421958991999162
:100D4000533619F3533729F1533559F1BC0188272C
:100D50009927E8945C3621F489919991689455918A
:100D6000543639F446EF7EF077FF0DC08FEF9FEFDA
:100D70000AC055374AE039F0583540E121F0523683
:100D800042E009F00895FF93EF937DDFEF91FF912B
:100D9000B7CFFF93EF93FC0181918030B9F360DF0F
:100DA000FBCFFF93EF9368DFF1CFDF93CF93CDB706
:100DB000DEB72596A3DFCF91DF9108958FEF84B939
:100DC00080E485B957985F9A87B1806C87B988B1FC
:100DD000806C88B92E9A2F98EAE4F1E080E18E0FBA
:100DE00011928E13FDCFEAE3F1E080E18E0F1192B4
:100DF0008E13FDCF8AE491E090935D0180935C01B6
:100E00008AE391E090935B0180935A010895EF92F9
:100E1000FF920F931F93CF93DF9380915A0190918C
:100E20005B0120915C0130915D0130935B01209367
:100E30005A0190935D0180935C01C0E0D0E001E035
:100E400010E080E090E0FC2FF770EC2FE87025B107
:100E5000207C2F2BAC0133E0440F551F3A95E1F76E
:100E6000242B25B928B12F73EE2311F0206401C083
:100E7000206828B92AE12A95F1F700C0A0915A010B
:100E8000B0915B01AC0FBD1F2C9130E0082E02C069
:100E9000359527950A94E2F720FD2F9AA5E3AA95A8
:100EA000F1F70000F6B42E98BAE1BA95F1F700C058
:100EB00040915C0150915D01BA016C0F7D1F4F9B09
:100EC0000BC09801082E01C0220F0A94EAF7209562
:100ED000DB013C91232309C0DB01EC909801082E33
:100EE00001C0220F0A94EAF72E292C9326B56F2D04
:100EF00070E02F1518F026B530E004C026B530E0BC
:100F000021503F4F261B370B2630310558F0A0915A
:100F10005A01B0915B01AC0FBD1F2C91DA01AC0FEF
:100F2000BD1F2C93BAE1BA95F1F700C02F982E9A05
:100F300020EA2A95F1F701968830910509F087CFCC
:100F4000A0915C01B0915D01AC0FBD1FE0915A0111
:100F5000F0915B01EC0FFD1F9C918081981751F07F
:100F60000E94621C60935E0170935F018093600138
:100F7000909361012196C031D10509F062CF809133
:100F8000F801853021F08091F801811111C0609144
:100F90005E0170915F0180916001909161010E94FA
:100FA000981C613177428105910510F00E94E51B84
:100FB00081E0DF91CF911F910F91FF90EF90089505
:100FC00020915C0130915D01F901E80FF11D8081F4
:100FD00008950F931F93CF93DF938CE691E00E94C7
:100FE0003C06C0E0D0E000E611E0E0915C01F09149
:100FF0005D01EC0FFD1F80810E94BA1B1F928F9331
:10100000DF93CF931F930F930E94D50621960F90E5
:101010000F900F900F900F900F90C031D10529F7CE
:10102000DF91CF911F910F91089508950895569AD9
:1010300081FF02C05E9A08955E98089580917501BF
:1010400008959FB7F894109264019FBF9091F801A2
:10105000943009F057C09091E9009F703091EC00F6
:10106000232F217030FD20E8922B24E02093E9000B
:101070002091EB0020FF43C02091EE0027FF3FC0EE
:1010800020916201222321F02091E80025FF37C042
:101090001092620126E03091E80035FD15C03091D4
:1010A000F801343061F53091EB0035FD28C0215056
:1010B00021F481E08093620122C0EFE9FFE03197E3
:1010C000F1F700C00000E7CF8093F1008091E800C5
:1010D00085FD0AC08091E80080FFFCCF8091E80088
:1010E0008E778093E80006C08FB7F89421E02093B4
:1010F00064018FBF9F709093E90080E008959F7016
:101100009093E9008FEF0895CF93DF9300D01F9263
:10111000CDB7DEB79C018091F801843019F593E0DA
:1011200099833B832A839093E9008FEF9091E800A5
:10113000815095FD06C095ED9A95F1F7000081115B
:10114000F5CF8091E80085FF0DC040E050E063E0FE
:1011500070E0CE0101960E94650B8091E8008E77C9
:101160008093E8000F900F900F90DF91CF9108953A
:10117000CF93DF9300D01F92CDB7DEB72091F80157
:10118000243021F522E029839B838A8383E08093A6
:10119000E9008FEF9091E800815095FD06C095ED34
:1011A0009A95F1F700008111F5CF8091E80085FF55
:1011B0000DC040E050E063E070E0CE0101960E9477
:1011C000650B8091E8008E778093E8000F900F9078
:1011D0000F90DF91CF9108952091F8012430F1F420
:1011E00022E02093E9002FEF3091E800215035FDF7
:1011F00006C035ED3A95F1F700002111F5CF2091A9
:10120000E80025FF0BC040E050E065E070E00E9480
:10121000650B8091E8008E778093E8000895CF9366
:10122000DF932091F801243009F048C0EC0180914F
:101230000A018823E1F080910B018823C1F085E049
:101240008093E9008FEF9091E800815095FD06C0F2
:1012500095E19A95F1F700008111F5CF8091E800B2
:1012600085FF2CC040E050E060E170E017C081E0F5
:101270008093E9008FEF9091E800815095FD06C0C2
:1012800095ED9A95F1F700008111F5CF8091E80076
:1012900085FF14C040E050E068E070E0CE010E949D
:1012A000650B8091E8008E778093E80080E1FE0175
:1012B000A5E6B1E001900D928A95E1F7DF91CF911B
:1012C000089581EB91E00E943C068091F701811125
:1012D00009C00E94FC0C0E94590D8091E2008460BC
:1012E0008093E20008958DEA91E00E943C061092FE
:1012F000F701089589EA91E00C943C06209163017E
:101300002F5F822F62E30E942B28992319F02093EC
:10131000630108951092630180916401882371F143
:101320008091F801843041F58091E9008F7020911F
:10133000EC00922F917020FD90E8892B94E090931F
:10134000E9009091EB0090FF14C09091EE0097FFA0
:1013500010C09091E80095FF03C01092F100F9CF02
:101360009091E80090FF05C09091E8009E779093DF
:10137000E8008F708093E90010926401089542E0C4
:1013800061EC81E00E94760C42E061EC82E00E9418
:10139000760C42E061EC83E00E94760C42E261EC64
:1013A00084E00E94760C42E161EC85E00C94760CBE
:1013B0008091FA01833009F455C030F4813071F026
:1013C000823009F48EC008958A3009F47AC08B30D7
:1013D00009F460C0893009F09CC020C08091F901F7
:1013E000813A09F096C08091E800877F8093E800F9
:1013F0008091FD019091FE01892B21F460E185E649
:1014000091E003C060E080E090E070E00E94B20BE9
:101410008091E8008B778093E80008958091F9012E
:10142000813209F076C08091FD019091FE01009714
:1014300019F0049709F06DC08091E800877F8093D0
:10144000E8008091E80082FD05C08091F8018111DB
:10145000F8CF5FC08091F100809375018091E80022
:101460008B7753C08091F901813A09F052C0809185
:10147000FD019091FE01892B09F04BC08091E8009D
:10148000877F8093E8008091E80080FFFCCF809107
:101490000A0136C08091F9018132D9F58091FD01B0
:1014A0009091FE01892BA9F58091E800877F8093B8
:1014B000E8000E94AB0C8091FB0180930A010C9420
:1014C00043158091F901813221F58091E800877FF1
:1014D0008093E8000E94AB0C8091FC018093760120
:1014E00008958091F901813AA1F48091E800877F05
:1014F0008093E8008091E80080FFFCCF8091760126
:101500008093F1008091E8008E778093E8000C943E
:10151000AB0C089508950895089585EA91E00E941E
:101520003C060C948C0A0E94E51B8091F6018823EE
:1015300029F00E940E1C81110C944F0B089584B762
:10154000877F84BF0FB6F894A8958091600088616A
:1015500080936000109260000FBE90E080E80FB6AC
:10156000F89480936100909361000FBE0E948A0AF4
:101570000E9442100E94FC0C0E94590D8091E200D2
:1015800084608093E20081E298E00E94B51B789429
:101590008091F801843019F00E94950FF9CF80E90D
:1015A00091E00E943C060E94441080E091E00E947D
:1015B000B00F8FE791E00E943C060E948B0A809159
:1015C000F801853039F48BE791E00E943C060E94D7
:1015D000930AF5CF0E944A100E94950FF0CF0C9409
:1015E000221C81EA91E00E943C060C94EF0A292F0C
:1015F000332723303105C9F064F42130310581F0FF
:101600002230310509F043C08DE890E02DED31E046
:1016100042C021323105F1F02232310541F137C0AB
:1016200082E190E02AE632E036C0992781309105C8
:1016300041F08230910541F0892B49F5E9EDF1E067
:1016400005C0E9ECF1E002C0E5EBF1E0849190E047
:101650009F0121C06530D8F4E62FF0E0EE0FFF1FA8
:10166000ED5DFE4F2081318189E090E014C065304E
:1016700070F470E0FB01EE0FFF1FE75EFE4F20816C
:101680003181FB01EC5EFE4F808190E004C080E080
:1016900090E020E030E0FA0131832083089580E17A
:1016A00089BD82E189BD09B400FEFDCF8091D800DB
:1016B0008F7D8093D8008091E00082608093E0006D
:1016C0008091E00081FDFCCF0895CF92DF92EF92F0
:1016D000FF920F931F93CF93DF93EC018B017A015D
:1016E0000E94CA0C811135C0E114F10439F0F701F0
:1016F00080819181081B190BC80FD91FC12CD12CD7
:101700000115110529F18091E80085FD18C080912F
:10171000E8008E778093E8000E94950FE114F104B1
:1017200049F0F70180819181C80ED91ED182C08213
:1017300085E00FC00E94CA0C882311F30AC089916A
:101740008093F10001501109FFEFCF1ADF0AD8CFC3
:1017500080E0DF91CF911F910F91FF90EF90DF908C
:10176000CF9008952091FF0130910002261737078E
:1017700048F06115710539F42091E8002E77209327
:10178000E80001C0B90140E061157105A9F120919F
:10179000F801222309F443C0253009F442C0209106
:1017A000E80023FD40C02091E80022FD32C02091D6
:1017B000E80020FFE9CF4091F3002091F20030E0F3
:1017C000342BFC01CF016115710559F0283031052A
:1017D00040F481918093F100615071092F5F3F4F78
:1017E000F1CF41E02830310509F040E02091E800D8
:1017F0002E772093E800C8CF4111C9CF0AC080914D
:10180000F801882361F0853061F08091E80083FD64
:101810000AC08091E80082FFF2CF80E0089582E064
:10182000089583E0089581E008952091FF013091AB
:1018300000022617370748F06115710539F4209129
:10184000E8002E772093E80001C0B901FC0120E0F8
:101850006115710591F18091F801882309F440C068
:10186000853009F43FC08091E80083FD3DC0809140
:10187000E80082FD2FC08091E80080FFE9CF209131
:10188000F3008091F20090E0922B6115710559F000
:101890008830910540F424912093F10031966150F5
:1018A00071090196F2CF21E0089709F020E08091BC
:1018B000E8008E778093E800CBCF2111CCCF0AC00F
:1018C0008091F801882361F0853061F08091E80013
:1018D00083FD0AC08091E80082FFF2CF80E0089586
:1018E00082E0089583E0089581E00895982F97306D
:1018F00058F59093E900981739F07091EC00209119
:10190000ED005091F00003C0242F762F50E021FF0E
:1019100019C03091EB003E7F3093EB003091ED0029
:101920003D7F3093ED003091EB0031603093EB0060
:101930007093EC002093ED005093F0002091EE00A6
:1019400027FF07C09F5FD3CF8F708093E90081E0AE
:10195000089580E008958091F90187FF11C080917A
:10196000E80082FD05C08091F8018111F8CF11C017
:101970008091E8008B770BC08091F801882349F0B3
:101980008091E80080FFF8CF8091E8008E77809307
:10199000E80008952091E4003091E50095E640913B
:1019A000EC00842F817040FF22C08091E80080FD10
:1019B0001CC08091F801882391F0853091F08091CE
:1019C000EB0085FD10C04091E4005091E500421706
:1019D000530729F39A01915011F784E0089582E0AA
:1019E000089583E0089581E0089580E0089540918E
:1019F000E80042FFDECF08950E946A0D0E94720D3A
:101A0000E0EEF0E0808181608083E8EDF0E08081AD
:101A10008F77808319BCA7EDB0E08C918E7F8C937B
:101A200080818F7E80831092F70108950F931F931A
:101A3000CF93DF930E946A0D0E94720DC8EDD0E033
:101A400088818F77888388818068888388818F7D6B
:101A5000888319BC1092F8011092F4011092F601DB
:101A60001092F50100EE10E0F80180818B7F8083F9
:101A700088818160888342E060E080E00E94760C8B
:101A8000E1EEF0E080818E7F8083E2EEF0E0808105
:101A900081608083808188608083F80180818E7F6F
:101AA0008083888180618883DF91CF911F910F911E
:101AB0000895E8EDF0E080818F7E8083E7EDF0E02F
:101AC00080818160808384E082BF81E08093F70120
:101AD0000C94160DE8EDF0E080818E7F80831092EB
:101AE000E20008951092DA001092E10008951F922A
:101AF0000F920FB60F9211242F933F934F935F9342
:101B00006F937F938F939F93AF93BF93EF93FF93C5
:101B10008091E10082FF0BC08091E20082FF07C04C
:101B20008091E1008B7F8093E1000E947E0980918B
:101B3000DA0080FF1FC08091D80080FF1BC0809119
:101B4000DA008E7F8093DA008091D90080FF0DC08B
:101B500080E189BD82E189BD09B400FEFDCF81E04D
:101B60008093F8010E94610905C019BC1092F80128
:101B70000E9473098091E10080FF19C08091E2000A
:101B800080FF15C08091E2008E7F8093E2008091FB
:101B9000E20080618093E2008091D80080628093AF
:101BA000D80019BC85E08093F8010E948D0A8091CD
:101BB000E10084FF30C08091E20084FF2CC080E10E
:101BC00089BD82E189BD09B400FEFDCF8091D800B6
:101BD0008F7D8093D8008091E1008F7E8093E1001B
:101BE0008091E2008F7E8093E2008091E20081602C
:101BF0008093E2008091F401882311F084E007C013
:101C00008091E30087FD02C081E001C083E0809302
:101C1000F8010E94F10A8091E10083FF24C08091C5
:101C2000E20083FF20C08091E100877F8093E10084
:101C300082E08093F8011092F4018091E1008E7FA0
:101C40008093E1008091E2008E7F8093E20080919A
:101C5000E20080618093E20042E060E080E00E9468
:101C6000760C0E947A09FF91EF91BF91AF919F91FD
:101C70008F917F916F915F914F913F912F910F9035
:101C80000FBE0F901F9018951F93CF93DF93CDB782
:101C9000DEB7AA970FB6F894DEBF0FBECDBFE9EF4F
:101CA000F1E088E08E0F9091F10091938E13FBCFBD
:101CB0000E94D8098091E80083FF1FC18091F9013B
:101CC0009091FA01492F50E04A30510508F015C1B2
:101CD000FA01EA5AFF4F0C944B28803881F0823881
:101CE00009F00BC18091FD018F708093E900809114
:101CF000EB0085FB882780F91092E90006C08091EF
:101D0000F5019091F601911182609091E800977F22
:101D10009093E8008093F1001092F100C8C0282F42
:101D20002D7F09F0EAC0882319F0823061F0E5C008
:101D30008091FB01813009F0E0C0933009F080E030
:101D40008093F6012BC08091FB01811127C0809107
:101D5000FD018F7009F4D1C08093E9002091EB0060
:101D600020FF1CC0933021F48091EB00806214C0EE
:101D70009091EB0090619093EB0021E030E0A9019D
:101D800002C0440F551F8A95E2F74093EA00109273
:101D9000EA008091EB0088608093EB001092E900EC
:101DA0008091E800877F86C08111A7C01091FB0158
:101DB0001F778091E3008078812B8093E3008091EE
:101DC000E800877F8093E8000E94AB0C8091E800D8
:101DD00080FFFCCF8091E30080688093E3001111C5
:101DE00002C082E001C083E08093F80186C0805881
:101DF000823008F082C08091FB019091FC018C3D03
:101E000053E0950779F583E08A838AE289834FB7A7
:101E1000F894DE01139620E03EE051E2E32FF0E07B
:101E200050935700E49120FF03C0E295EF703F5FAD
:101E3000EF708E2F90E0EA3010F0C79601C0C09688
:101E40008D939D932F5F243149F74FBF8091E80018
:101E5000877F8093E8006AE270E0CE0101960E94DD
:101E6000B20B14C0AE014F5F5F4F6091FD010E9445
:101E7000F70ABC01892B09F440C09091E800977FD4
:101E80009093E80089819A810E94150C8091E80066
:101E90008B778093E80031C0803879F58091E80035
:101EA000877F8093E8008091F4018093F100809116
:101EB000E8008E778093E8000E94AB0C1EC0811171
:101EC0001CC09091FB019230C0F48091E800877FA4
:101ED0008093E8009093F4010E94AB0C8091F40190
:101EE000811106C08091E30087FD02C081E001C03E
:101EF00084E08093F8010E94BF098091E80083FF8D
:101F00000AC08091E800877F8093E8008091EB0011
:101F100080628093EB00AA960FB6F894DEBF0FBEE6
:101F2000CDBFDF91CF911F910895CF938091F8019C
:101F30008823A1F0C091E900CF709091EC00892F27
:101F4000817090FD80E8C82B1092E9008091E80034
:101F500083FD0E94440ECF70C093E900CF91089595
:101F600090937C0180937B010895E0917B01F09137
:101F70007C01309721F00190F081E02D099480E000
:101F80000895EF92FF920F931F93CF93DF93E09109
:101F90007B01F0917C013097B1F18C010280F381DB
:101FA000E02D09958091E30182FF2DC080FF04C0E0
:101FB00082EA93E00E943C06E80110E18CE9E82EF9
:101FC00083E0F82E8091E30180FF0BC088811F928F
:101FD0008F93FF92EF920E94D5060F900F900F9073
:101FE0000F90115021961111EDCF8091E30180FFE8
:101FF0000AC08AE993E0DF91CF911F910F91FF9082
:10200000EF900C943C06DF91CF911F910F91FF90C0
:10201000EF900895E0917B01F0917C01309721F0E1
:102020000480F581E02D0994089520917901309183
:102030007A018217930771F090937A018093790166
:10204000E0917B01F0917C01309721F00680F781CF
:10205000E02D09940895209177013091780182173D
:10206000930771F09093780180937701E0917B0161
:10207000F0917C01309721F00084F185E02D0994E6
:10208000089508950C9441100E944D1C0E94DE0694
:102090000C949B1DCF92DF92EF92FF920F931F93B0
:1020A000CF93DF9300D000D000D0CDB7DEB70E9431
:1020B00007078EE7C82E81E0D82E00E010E0E02E62
:1020C000802F0E94E007F60141916F01F42EF8265F
:1020D000B1F40F5F1F4F0031110589F78FEF89832E
:1020E0008A831B820E94561C8160782F9D838C837B
:1020F00049815A816B818D810E94091147C090915D
:10210000E30191FF04C08E830E94E9078E8120E0E5
:1021100030E04F2D50E0922FBA01022E02C075958B
:1021200067950A94E2F760FF2BC02983EA8221E0D9
:1021300030E0690102C0CC0CDD1C9A95E2F790E01A
:102140008C219D21892B09F420E02B830E94561CB1
:102150008160782F9D838C8349815A816B818D8129
:102160000E94091149815A816B817C818D810E9475
:10217000D11BF801E258FE4F8081C826C08206C0FC
:102180002F5F3F4F2830310531F6A3CF0E94D01B7F
:102190000E94252110917D010E94B50F181741F171
:1021A0000E94B50F80937D019091E30192FF0EC0D4
:1021B00090FF0CC01F928F9384EB93E09F938F93BB
:1021C0000E94D5060F900F900F900F9080917D0187
:1021D00026960FB6F894DEBF0FBECDBFDF91CF912C
:1021E0001F910F91FF90EF90DF90CF900C94E21B26
:1021F00026960FB6F894DEBF0FBECDBFDF91CF910C
:102200001F910F91FF90EF90DF90CF9008950C9465
:102210001708CF93DF93CDB7DEB72B970FB6F8949F
:10222000DEBF0FBECDBF942F4F83252F5887698700
:102230007A878B874A855B85452B21F02F3F09F5EF
:102240009F3FF9F4DE01119686E0FD0111928A9517
:10225000E9F785E0FE01379601900D928A95E1F746
:1022600049815A816B817C818D819E810E94E61714
:102270002B960FB6F894DEBF0FBECDBFDF91CF9186
:1022800008954F81588569857A858B850E94D11B79
:10229000D9CFCF93882309F4A4C0C82F8CEF8C0F1B
:1022A000813A48F48C2F0E94A52581119AC08C2F69
:1022B0000E94711A0CC080E28C0F883058F4C770ED
:1022C00081E001C0880FCA95EAF70E941C1BCF91DC
:1022D0000C94601B8BE58C0F833078F4C53A29F0A1
:1022E000C63A31F083E890E005C081E890E002C092
:1022F00082E890E0CF910C94151088E58C0F853121
:1023000008F06FC0C83A61F1C93A69F1CA3A71F18F
:10231000CB3A79F1CC3A81F1CD3A89F1CE3A91F1CB
:10232000CF3A99F1C13BA1F1C03BA9F1C23BB1F158
:10233000C33BB9F1C43BC1F1C53BC9F1C63BD1F1C7
:10234000C73BD9F1C83BE1F1C93BE9F1CA3BF1F127
:10235000CB3BF9F1CC3B09F43FC080E090E03EC0BC
:1023600082EE90E03BC089EE90E038C08AEE90E0CB
:1023700035C085EB90E032C086EB90E02FC083EB58
:1023800090E02CC084EB90E029C087EB90E026C061
:102390008CEC90E023C08DEC90E020C083E891E0CD
:1023A0001DC08AE891E01AC082E991E017C084E973
:1023B00091E014C081E292E011C083E292E00EC08D
:1023C00084E292E00BC085E292E008C086E292E0EF
:1023D00005C087E292E002C08AE292E0CF910C94BD
:1023E0002B10CF910895882329F19CEF980F913AF3
:1023F00018F40E94C41A0DC090E2980F983058F457
:10240000877091E001C0990F8A95EAF7892F0E94A1
:10241000221B0C94601B9BE5980F933020F480E006
:1024200090E00C941510885A853120F480E090E0FB
:102430000C942B100895882321F00E941C1B0C94EF
:10244000601B0895882321F00E94221B0C94601BBE
:102450000895CF92DF92EF92FF920F931F93CF9345
:10246000DF9300D000D000D0CDB7DEB725E0FC016F
:10247000DE01119601900D922A95E1F7FC01408151
:102480003181F280258122952F7063817481672BC1
:1024900009F4D8C23F3F19F44F3F09F4D3C26C018D
:1024A00049833A8389819A812E830E94301A182F9A
:1024B000092F0E942F1A0E943F19E02FE295EF701A
:1024C000F0E0E05AFF4F2E810C944B28802F807F44
:1024D000902F9F70092F882311F00295007FFF2015
:1024E00049F0002309F45FC2802F0E942F1B0E9435
:1024F000601B59C2812F0E94F311002309F4A2C26C
:10250000802F0E94351B26960FB6F894DEBF0FBEB3
:10251000CDBFDF91CF911F910F91FF90EF90DF9092
:10252000CF900C94601B802F807F902F9F70092F7D
:10253000803211F00295007F112319F0113001F162
:1025400029C0FF20A9F0802F222349F1213039F53D
:1025500026960FB6F894DEBF0FBECDBFDF91CF91A8
:102560001F910F91FF90EF90DF90CF900C943F1B45
:10257000222319F0213009F465C20E94481B2CC0A7
:10258000FF20E9F0263008F05DC20E94191B80236D
:1025900029F022C0FF20F1F0211115C0802F2696CE
:1025A0000FB6F894DEBF0FBECDBFDF91CF911F9164
:1025B0000F91FF90EF90DF90CF900C941B1225307D
:1025C00008F040C209C0F601858180FFECC18F7020
:1025D0008583E4CF2111FBC1802F69C1202F26956F
:1025E0002695237030E02115310521F02130310589
:1025F000C9F028C2FF2021F0812F902F937002C0D4
:1026000080E090E026960FB6F894DEBF0FBECDBFF7
:10261000DF91CF911F910F91FF90EF90DF90CF90BE
:102620000C941510FF2021F0812F902F937002C081
:1026300080E090E026960FB6F894DEBF0FBECDBFC7
:10264000DF91CF911F910F91FF90EF90DF90CF908E
:102650000C942B10812FFF2019F00E94AB1F02C099
:102660000E94132026960FB6F894DEBF0FBECDBF92
:10267000DF91CF911F910F91FF90EF90DF90CF905E
:102680000C949820802F837009F078C0F110DAC183
:10269000812F829586958770880F880F912F9F7064
:1026A000C92ED12CE12CF12C082E04C0CC0CDD1C41
:1026B000EE1CFF1C0A94D2F714FF12C04FE050E04A
:1026C00060E070E004C0440F551F661F771F8A95B5
:1026D000D2F7CB01BA01609570958095909503C0B3
:1026E00060E070E0CB01202F269526952370422FC5
:1026F00050E042305105D1F04330510559F16C2979
:102700007D298E299F294130510541F126960FB62A
:10271000F894DEBF0FBECDBFDF91CF911F910F9117
:10272000FF90EF90DF90CF900C9454196C297D2985
:102730008E299F2926960FB6F894DEBF0FBECDBF17
:10274000DF91CF911F910F91FF90EF90DF90CF908D
:102750000C9466190E945419C701B60126960FB64B
:10276000F894DEBF0FBECDBFDF91CF911F910F91C7
:10277000FF90EF90DF90CF900C944219FF2019F05A
:10278000802F817001C08695882309F45BC1812F59
:10279000829586958770880F880F912F9F70C92E1C
:1027A000D12CE12CF12C082E04C0CC0CDD1CEE1C2D
:1027B000FF1C0A94D2F714FF12C04FE050E060E013
:1027C00070E004C0440F551F661F771F8A95D2F72B
:1027D000CB01BA01609570958095909503C060E03B
:1027E00070E0CB01202F269526952370422F50E0D4
:1027F00042305105D1F04330510559F16C297D2902
:102800008E299F294130510541F126960FB6F89443
:10281000DEBF0FBECDBFDF91CF911F910F91FF9013
:10282000EF90DF90CF900C940B1A6C297D298E29A4
:102830009F2926960FB6F894DEBF0FBECDBFDF915D
:10284000CF911F910F91FF90EF90DF90CF900C945C
:102850001D1A0E940B1AC701B60126960FB6F894EE
:10286000DEBF0FBECDBFDF91CF911F910F91FF90C3
:10287000EF90DF90CF900C94F919103F41F118F4CC
:10288000103E48F48BC0123F09F450C0D8F1133FFA
:1028900009F460C083C01F70802F8F71FF2021F06A
:1028A0000E949219812F7BCE0E94B319812F269608
:1028B0000FB6F894DEBF0FBECDBFDF91CF911F9151
:1028C0000F91FF90EF90DF90CF900C942212FF2099
:1028D000A9F0253008F0B6C0802F8F7126960FB66C
:1028E000F894DEBF0FBECDBFDF91CF911F910F9146
:1028F000FF90EF90DF90CF900C94D819263008F01D
:10290000A1C0EACFFF20A1F0802F8F7126960FB6CD
:10291000F894DEBF0FBECDBFDF91CF911F910F9115
:10292000FF90EF90DF90CF900C949219FF2061F30D
:10293000802F8F7126960FB6F894DEBF0FBECDBFE5
:10294000DF91CF911F910F91FF90EF90DF90CF908B
:102950000C94B319FF2091F0802F8F7126960FB63B
:10296000F894DEBF0FBECDBFDF91CF911F910F91C5
:10297000FF90EF90DF90CF900C947D1926960FB6C4
:10298000F894DEBF0FBECDBFDF91CF911F910F91A5
:10299000FF90EF90DF90CF900C947819FF20A1F07A
:1029A000222309F4B1CF812F26960FB6F894DEBF0B
:1029B0000FBECDBFDF91CF911F910F91FF90EF9090
:1029C000DF90CF900C944911222309F4B1CF812FCD
:1029D00026960FB6F894DEBF0FBECDBFDF91CF9124
:1029E0001F910F91FF90EF90DF90CF900C94F31117
:1029F000402F4F70612FC6010E94451D26960FB6CD
:102A0000F894DEBF0FBECDBFDF91CF911F910F9124
:102A1000FF90EF90DF90CF900C948A18402F4F706A
:102A2000612FC60126960FB6F894DEBF0FBECDBF4C
:102A3000DF91CF911F910F91FF90EF90DF90CF909A
:102A40000C94481D26960FB6F894DEBF0FBECDBF7E
:102A5000DF91CF911F910F91FF90EF90DF90CF907A
:102A600008950E943C1B0E940B1B0E94601B0E9449
:102A7000CA210E94982080E090E00E94151080E01A
:102A800090E00C942B100E942C1B0C9431150E948A
:102A9000301A292F22952F7030E02C3031054CF45C
:102AA0002A3031056CF4225031092230310588F486
:102AB00007C02C30310549F02F30310531F009C005
:102AC000803E48F0803F29F406C093FB882780F9B8
:102AD000089580E0089581E00895CF93DF9300D0BA
:102AE00000D01F92CDB7DEB70F900F900F900F90D0
:102AF0000F90DF91CF910895CF93DF9300D000D056
:102B000000D0CDB7DEB726960FB6F894DEBF0FBE65
:102B1000CDBFDF91CF9108951F93CF93DF93C091E5
:102B20008E0116E080918F01C81799F0D0E01C9FAC
:102B3000F0011D9FF00D1124E057FE4F408151819F
:102B400062817381848195810E947C152196C77072
:102B5000E9CFDF91CF911F9108954091C00150912D
:102B6000C1016091C2017091C3018091C401909133
:102B7000C5010C947C158091C50182958F7009F078
:102B800054C08091C201882309F44FC080918E0106
:102B9000A0918F016091C0017091C1014091C3016A
:102BA0005091C401B6E08A1709F43FC090E0411586
:102BB0005105C1F17F3F11F46F3FA1F1B89FF001C2
:102BC000B99FF00D1124E057FE4F218172132AC0E6
:102BD0002081621327C02281211124C023813481E6
:102BE0002417350710F421503109241B350B2C32E2
:102BF0003140C0F42091C5012F7020612093C501A0
:102C000026E0289FF001299FF00D1124EB56FE4F7E
:102C100080818F708061808380EC91E00E94291216
:102C20000C948C1501968770BECF0895CF92DF92D9
:102C3000EF92FF920F931F93CF93DF93CDB7DEB741
:102C400062970FB6F894DEBF0FBECDBF8C0185E052
:102C5000F801DE011D9601900D928A95E1F7D801E9
:102C60004C9111965C91119712966C911297139654
:102C7000CD90DC9014973091C0017091C10180918A
:102C8000C3019091C401009709F473C17F3F19F407
:102C90003F3F09F46EC1E090C201EE2009F4C5C0C7
:102CA0002091C501C816D90650F0F601E81BF90BB2
:102CB000CF01FF24F3948C329140C8F009C0809575
:102CC00090958C0D9D1DFF24F3948C32914078F0EB
:102CD000F12C207F09F0C6C07C2DD98AC88A898949
:102CE0000E946D1580EC91E00E942912B1C0822FE4
:102CF000807F09F045C0751313C0341311C06111F2
:102D00000FC02F7020612093C5010E94AD1580EC8B
:102D100091E00E9429128091C501F80185832EC09F
:102D2000CD2819F15F3F11F44F3FF9F0F62E6111F4
:102D30001CC080918E0120918F0136E0821709F42A
:102D40005BC090E0389FF001399FF00D1124E057EF
:102D5000FE4F7181571306C07081471303C0728103
:102D6000711103C001968770E9CFF62E662309F42E
:102D70001DC18091C50181608093C501F12C16C1F0
:102D8000751309C0341307C0611105C08091C501D6
:102D9000F8018583C8C04D875E878D859E856A8BC7
:102DA0000E9447156A898823E1F16623D1F12091B9
:102DB000C501822F82958F7090E0029774F0809108
:102DC000C0019091C10198878F831986DB86CA86DE
:102DD0002C87CE0107960E94291286E0F801A0EC0C
:102DE000B1E001900D928A95E1F70E94BB150E9417
:102DF000AD15FF24F394DAC04D875E878D859E85DF
:102E00000E94301A292F22952F7030E02230310590
:102E10000CF0BFC09F7009F0B9C0805E883008F424
:102E2000C5C0C8010E942912E4CFC816D90608F40B
:102E300053C0F601E81BF90BCF018C32914008F426
:102E400053C0F12C7C2DD98AC88A89890E946D15BE
:102E5000E0ECF1E086E0DF011D928A95E9F70E943F
:102E6000AD15A4C0751314C0341312C0611110C085
:102E70008091C501F8018583C8010E94291286E06E
:102E8000E0ECF1E0DF011D928A95E9F7FE2C8EC09F
:102E90004D875E878D859E856A8B0E9447156A895E
:102EA000882309F4BECF662309F4BBCF2091C50166
:102EB000822F82958F7090E002970CF48ECF8091D4
:102EC000C0019091C1019A8389831B82DD82CC82EB
:102ED0002E83CE0101967FCF809590958C0D9D1D00
:102EE0008C32914008F0ADCFF62E662309F499CFCD
:102EF00075132EC034132CC02091C50120FD1FC0B6
:102F0000822F82958F70D9F0D80115962C93159742
:102F10008F3049F08F5F982F9295907F822F8F701E
:102F2000892B15968C93C8010E94291286E0F8011E
:102F3000A0ECB1E001900D928A95E1F790CF86E088
:102F4000F801A0ECB1E001900D928A95E1F72EC056
:102F50004D875E878D859E850E94471581113DCFE7
:102F60008091C50181608093C501C8010E9429122A
:102F70001DC0662309F455CF4D875E878D859E85DC
:102F80000E944715882309F44CCF27CF811145CFE4
:102F90000DC0243031050CF044CF9F7009F43DCFB3
:102FA000D80115969C91907F09F037CF8F2D6296AE
:102FB0000FB6F894DEBF0FBECDBFDF91CF911F914A
:102FC0000F91FF90EF90DF90CF9008951F93CF93D4
:102FD000DF93CDB7DEB72C970FB6F894DEBF0FBEE8
:102FE000CDBF4F83588769877A878B879C87CE01AF
:102FF00007960E941616882369F08F8198852A8586
:103000003B85232BF1F19F3F09F063C08F3F09F00F
:1030100060C037C086E0FE013796DE011196019050
:103020000D928A95E1F76F817885EA85FB85309767
:1030300041F17F3F11F46F3F21F120918F0130E08A
:10304000C90101968770992740918E0150E084173D
:10305000950709F447C069837A83FD83EC8396E082
:10306000929FD001939FB00D1124A057BE4FFE0137
:10307000319601900D929A95E1F780938F010E940D
:103080008C1516E080918E0190918F018917C1F106
:10309000189FC001112480579E4F0E941616882346
:1030A00079F1E0918E011E9FF0011124E057FE4F4F
:1030B0004081518162817381848195810E947C1558
:1030C00080918E0190E001968770992780938E0100
:1030D000D9CF4F81588569857A858B859C850E94DB
:1030E0007C15CFCF0E94431510928F0110928E0154
:1030F000E0ECF1E086E0DF011D928A95E9F7C1CFAF
:103100002C960FB6F894DEBF0FBECDBFDF91CF91E6
:103110001F910895DF92EF92FF920F931F93CF9329
:10312000DF93FC01892B09F48AC0E12CF12CDD240A
:10313000D394EF0121968491853709F461C058F446
:10314000843708F04EC0843008F06AC08130D1F076
:10315000823071F174C0883709F45DC050F486374D
:1031600009F455C0873709F06AC08E2D0E94291BCB
:1031700054C09CE7980F903708F061C08F770E9489
:10318000F31150C08F010E5F1F4FFE01849190E23A
:10319000980F983050F48770FD2D01C0FF0F8A956D
:1031A000EAF78F2F0E942F1B14C00E94491113C0F1
:1031B0008F010E5F1F4FFE01C49180E28C0F88309B
:1031C00060F4C7708D2D01C0880FCA95EAF70E9480
:1031D000351B0E94601BE80125C08C2F0E94F31153
:1031E000FACF9F012E5F3F4FFE01C491CC2369F0BF
:1031F0008FE99FE00197F1F700C00000C150F6CFC2
:103200009F012E5F3F4FFE01F490E9010BC00E9429
:10321000191BE82E07C00E942C1B0E94601B02C0D5
:103220000E9449118F2D882341F0EFE9FFE031978B
:10323000F1F700C000008150F6CFFE017ACFDF9198
:10324000CF911F910F91FF90EF90DF9008956093C1
:10325000CA017093CB018093CC019093CD010E9461
:10326000E01B0C9431156093C6017093C7018093E5
:10327000C8019093C9010E94E11B0C943115089577
:103280000C9427190F931F930091CA011091CB0141
:103290002091CC013091CD01602B712B822B932B8F
:1032A0001F910F910C9427190F931F930091CA013E
:1032B0001091CB012091CC013091CD01602371237D
:1032C000822393231F910F910C9427190F931F931F
:1032D0000091CA011091CB012091CC013091CD0118
:1032E00060277127822793271F910F910C9427192C
:1032F00060E070E0CB010C9433190F931F9341E011
:1033000050E060E070E08A019B0104C0000F111FD3
:10331000221F331F8A95D2F7C901B8011F910F915F
:103320000C9433190F931F9341E050E060E070E07C
:1033300004C0440F551F661F771F8A95D2F78091EE
:10334000C6019091C701A091C801B091C9018A013D
:103350009B01082B192B2A2B3B2BC901B8011F916C
:103360000F910C9433190F931F9341E050E060E0EC
:1033700070E004C0440F551F661F771F8A95D2F76F
:1033800040955095609570958091C6019091C701C8
:10339000A091C801B091C9018A019B01082319239A
:1033A0002A233B23C901B8011F910F910C943319B3
:1033B0000F931F9341E050E060E070E004C0440FC1
:1033C000551F661F771F8A95D2F78091C60190918D
:1033D000C701A091C801B091C9018A019B010827CA
:1033E00019272A273B27C901B8011F910F910C9477
:1033F00033190F931F930091C6011091C7012091BB
:10340000C8013091C901602B712B822B932B1F9126
:103410000F910C9433190F931F930091C6011091D3
:10342000C7012091C8013091C90160237123822313
:1034300093231F910F910C9433190F931F930091B5
:10344000C6011091C7012091C8013091C9016027C0
:103450007127822793271F910F910C943319089598
:10346000CF92DF92EF92FF920F931F93CF93DF9350
:103470008C01C090CA01D090CB01E090CC01F090BB
:10348000CD014091C6015091C7016091C801709172
:10349000C901C42AD52AE62AF72ACFE1D0E0D7010C
:1034A000C6010C2E04C0B695A795979587950A94EA
:1034B000D2F780FF07C0B8018C2F0E941A1D8130FF
:1034C000910531F4219758F7B80180E00E941A1D48
:1034D000DF91CF911F910F91FF90EF90DF90CF90F0
:1034E000089590910A01992321F090910B01911177
:1034F00009C020910C0130910D01F90132969FEF26
:1035000040E030C0982F9695969596959F30A0F400
:10351000E0910C01F0910D01E90FF11D877021E0A0
:1035200030E0A90102C0440F551F8A95E2F7CA0195
:103530009181892B818308959091E30190FF23C0AD
:103540001F928F938DED93E09F938F930E94D506EA
:103550000F900F900F900F9008959F3F39F04F5F9D
:103560004E3041F051915813F8CF0DC05111F7CFA3
:10357000942FF5CF9F3F39F0F901E90FF11D97FD29
:10358000FA9582830895089590910A01992321F074
:1035900090910B01911109C020910C0130910D0106
:1035A000F9013296205F3F4F30C0982F969596953F
:1035B00096959F30A8F4E0910C01F0910D01E90F70
:1035C000F11D877021E030E0A90102C0440F551FB2
:1035D0008A95E2F7CA0180959181892381830895B4
:1035E0009091E30190FF16C01F928F938FEB93E0B1
:1035F0009F938F930E94D5060F900F900F900F907E
:1036000008953196E217F30729F090819813F9CFC6
:103610001082F7CF089581E090E0E0910C01F091E5
:103620000D01E80FF91F1082019680319105A9F76D
:1036300008958091E20108959091E201892B809391
:10364000E201089580959091E20189238093E2013F
:1036500008958093E20108951092E20108959091F7
:10366000E101892B8093E101089580959091E1011A
:1036700089238093E10108951092E10108958093D8
:10368000D0010E94561C9093CF018093CE010895E3
:103690001092D0011092CF011092CE010895809126
:1036A0000C0190910D01FC0131969C01205F3F4F70
:1036B00080E0919191118F5FE217F307D1F70895A0
:1036C000E0910C01F0910D018091E2018083E09185
:1036D0000C01F0910D0190818091E101892B808393
:1036E0008091D0018823D9F10E94561C2091CE01EF
:1036F0003091CF018217930748F00E94561C209109
:10370000CE013091CF01821B930B0AC00E94561C40
:103710002091CE013091CF0120953095820F931FDB
:103720008C32914070F08091E30180FF08C08BEFF4
:1037300093E09F938F930E94D5060F900F900E9465
:10374000481BE0910C01F0910D0190818091D00116
:10375000892B80830E944F1B81110E94481B8091FE
:103760000C0190910D010C94C10F9093390180933D
:10377000380108958295982F9C7C392F369536957F
:10378000282F237344E0249FC0011124932F982BEA
:10379000292F2A7A2695892F8575880F822B0895DF
:1037A0000895CF93DF9300D000D01F92CDB7DEB73E
:1037B0000F900F900F900F900F90DF91CF91089581
:1037C000089508950C94071108958091F8018430AC
:1037D00021F11092E40120E488E190E00FB6F89422
:1037E000A895809360000FBE2093600083B7817F0F
:1037F000846083BF83B7816083BF7894889583B7E3
:103800008E7F83BF0FB6F894A89580916000886181
:1038100080936000109260000FBE0895CF930E94C5
:1038200015080E9407070E941608C0E08C2F0E940E
:10383000E007811104C0CF5FC031C1F701C081E052
:10384000CF9108950C9443151F920F920FB60F92CB
:1038500011248F939F93AF93BF938091E4018111C3
:1038600013C08091E5019091E601A091E701B0912C
:10387000E8014196A11DB11D8093E5019093E601F9
:10388000A093E701B093E801BF91AF919F918F9111
:103890000F900FBE0F901F90189582E084BD93E0AB
:1038A00095BD9AEF97BD80936E0008952FB7F89459
:1038B0008091E5019091E601A091E701B091E801C6
:1038C0002FBF08952FB7F8946091E5017091E6013C
:1038D0008091E7019091E8012FBF0895CF92DF9288
:1038E000EF92FF920F931F932FB7F8944091E50149
:1038F0005091E6016091E7017091E8012FBF6A01E4
:103900007B01EE24FF248C0120E030E0C016D106BC
:10391000E206F30610F4415051099A01281B390BB5
:10392000C9011F910F91FF90EF90DF90CF90089504
:10393000CF92DF92EF92FF920F931F932FB7F894DD
:10394000C090E501D090E601E090E701F090E80139
:103950002FBF97018601061B170B280B390BC616C4
:10396000D706E806F90618F0C901B80106C0C90172
:10397000B80161507109810991091F910F91FF9060
:10398000EF90DF90CF9008951F920F920FB60F9295
:1039900011248F939F93AF93BF938091E5019091F2
:1039A000E601A091E701B091E8010196A11DB11DCA
:1039B0008093E5019093E601A093E701B093E801BD
:1039C000BF91AF919F918F910F900FBE0F901F905D
:1039D00018950E94FC0CF8942FEF87EA91E621508D
:1039E00080409040E1F700C0000087E090EBDC01F0
:1039F0008093020290930302A0930402B093050205
:103A00009CE088E10FB6F894A895809360000FBE03
:103A100090936000FFCF28E0929FF0011124E80FFF
:103A2000F11DE052FF4F8491982F90778F709295FF
:103A30009F700895CF93C82FCB010E940B1D292F93
:103A400030E0E82FF0E0A90164E0440F551F6A95CB
:103A5000E1F74E2B5F2B4038510519F480E090E0E0
:103A600012C088E0C89F200D311D112484E0220F70
:103A7000331F8A95E1F7E20FF31FEE0FFF1FE050AF
:103A8000F84985919491CF91089580E090E0089550
:103A90000895CF92DF92EF92FF920F931F93CF93EF
:103AA0006C01C0E08C2F0E94E00700E010E0E82EDF
:103AB000F12CC701002E02C0959587950A94E2F774
:103AC00080FF16C0602F7C2F80E00E941A1D9C0191
:103AD0008C159D0559F0832F807E932F907C11F0DB
:103AE000803A31F430E02C153D0511F481E009C035
:103AF0000F5F1F4F08301105E1F6CF5FC03191F61F
:103B000080E0CF911F910F91FF90EF90DF90CF90C9
:103B10000895CF93DF93EC018CE290E00E94491D61
:103B2000882329F0CE01DF91CF910C94491D80E0CC
:103B3000DF91CF910895CF930E94031F811102C09E
:103B40000E94E91E84E194E00E943C06C5E6C15053
:103B500049F00E9407078FE39CE90197F1F700C045
:103B60000000F5CF8DE094E00E943C0689E290E0F1
:103B70000E94891D81112BC18AE290E00E94891D5B
:103B800081110E94E91E85E090E00E94891D81114B
:103B90000E94E91C0E94E41B0E940E1F8093E30117
:103BA00087E090E00E94891D8823C1F18BE190E0BD
:103BB0000E94891D882351F08091E30181FB222717
:103BC00020F991E0922790FB81F90FC08EE090E000
:103BD0000E94891D882361F08091E30182FB2227E6
:103BE00020F991E0922790FB82F98093E30116C0BF
:103BF00080E190E00E94891D9091E301882341F0CB
:103C000093FB222720F981E0822780FB93F904C0EF
:103C1000892F809580FB90F99093E3018091E301D7
:103C20000E94121F0E94201F8093010280EE90E0EC
:103C30000E94891D882341F080910102982F909560
:103C400090FB80F98093010289E390E00E94891D36
:103C5000882359F08091010281FB222720F991E00D
:103C6000922790FB81F98093010282EE90E00E94FE
:103C7000891D882359F08091010282FB222720F9B7
:103C800091E0922790FB82F98093010286EE90E00A
:103C90000E94891D882359F08091010283FB22270D
:103CA00020F991E0922790FB83F98093010283EE43
:103CB00090E00E94891D882359F08091010284FBC5
:103CC000222720F991E0922790FB84F9809301024A
:103CD00085E390E00E94891D882359F080910102BC
:103CE00085FB222720F991E0922790FB85F98093AC
:103CF000010281E390E00E94891D882359F08091A0
:103D0000010286FB222720F991E0922790FB86F999
:103D10008093010281E190E00E94891D882359F07F
:103D20008091010287FB222720F991E0922790FBE6
:103D300087F980930102809101020E94241F8091E3
:103D4000010287FB882780F980930B0187E290E0CE
:103D50000E94891DC82F8EE190E00E94891D81116B
:103D6000C2608FE190E00E94891D8111C46080E2F1
:103D700090E00E94891D8111C86081E290E00E945C
:103D8000891D8111C06182E290E00E94891D81112C
:103D9000C06283E290E00E94891D8111C06484E2C8
:103DA00090E00E94891D882311F0C06802C0CC23D6
:103DB00029F08C2F0E941B1F6C2F03C00E94171F1D
:103DC000682F70E080E090E0CF910C944019CF9183
:103DD00008956DEE7EEF80E090E00E94812860E023
:103DE00082E090E00E94732860E083E090E00E940F
:103DF000732860E084E090E00E94732860E085E032
:103E000090E00C94732880E090E00E946D2821E0FF
:103E10008D3E9E4F09F020E0822F089582E090E0D1
:103E20000C946528682F82E090E00C94732883E05E
:103E300090E00C946528682F83E090E00C94732840
:103E400084E090E00C946528682F84E090E00C9466
:103E500073288091EB0180FF0BC06091110185E018
:103E6000689FB001112475956795759567952BC06E
:103E700081FF09C06091110185E0689FB0011124A4
:103E80007595679520C082FF07C06091110185E09C
:103E9000689FB001112417C09091EC019923D1F0D3
:103EA00060911001961788F72091110185E0289FF5
:103EB00090011124929FA001939F500D112470E056
:103EC000CA010E9437286038710540F461157105F8
:103ED00039F002C065E070E0862F08958FE70895FD
:103EE00081E008958091EB0180FF08C060910F018F
:103EF00070E0759567957595679521C081FF06C03F
:103F000060910F0170E07595679519C082FF04C03C
:103F100060910F0170E010C09091EC019923C1F005
:103F200060910E019617A0F780910F01899FC00143
:103F3000112470E00E9437286038710528F461155B
:103F4000710521F0862F08958FE7089581E0089587
:103F500061E070E0F4CF803F21F40E94291F819539
:103F600004C0813F29F40E94291F8093EF01089526
:103F7000823F21F40E94291F819504C0833F29F4C8
:103F80000E94291F8093EE010895893F19F40E9431
:103F9000721F05C08A3F31F40E94721F8195809381
:103FA000F00108958B3F21F40E94721F819504C097
:103FB0008C3F29F40E94721F8093F1010895843F81
:103FC00021F48091ED01816017C0853F21F480913B
:103FD000ED01826011C0863F21F48091ED01846083
:103FE0000BC0873F21F48091ED01886005C0883FB8
:103FF00031F48091ED0180618093ED0108958D3F52
:1040000021F48091EB0181600BC08E3F21F48091FF
:10401000EB01826005C08F3F29F48091EB01846041
:104020008093EB010895803F39F48091EF0187FF81
:104030006CC01092EF0169C0813F29F48091EF01BB
:104040001816BCF362C09091EE01823F29F497FFED
:104050005CC01092EE0159C0833F19F41916CCF3DD
:1040600054C0893F41F48091F00118160CF04DC006
:104070001092F0014AC08A3F29F48091F00187FF35
:1040800044C0F6CF8B3F39F48091F10187FF3DC0EA
:104090001092F1013AC08C3F29F48091F101181679
:1040A000BCF333C0843F21F48091ED018E7F17C0B3
:1040B000853F21F48091ED018D7F11C0863F21F471
:1040C0008091ED018B7F0BC0873F21F48091ED0142
:1040D000877F05C0883F31F48091ED018F7E80930A
:1040E000ED0113C08D3F21F48091EB018E7F0BC059
:1040F0008E3F21F48091EB018D7F05C08F3F29F425
:104100008091EB018B7F8093EB018091EE01811117
:104110000EC08091EF0181110AC08091F0018111E0
:1041200006C08091F101811102C01092EC01089546
:104130008091E30183FF7EC080E594E00E943C060D
:104140008091ED011F928F938BE494E09F938F9366
:104150000E94D50689E494E00E943C068091EE011D
:10416000282F082E000C330B3F938F9386E494E0A6
:104170009F938F930E94D50684E494E00E943C06AE
:104180008091EF01282F082E000C330B3F938F9363
:1041900081E494E09F938F930E94D5068FE394E08F
:1041A0000E943C068091F001282F082E000C330B52
:1041B0003F938F938CE394E09F938F930E94D50657
:1041C0008AE394E00E943C068091F101282F082E9A
:1041D000000C330B3F938F9387E394E09F938F936F
:1041E0000E94D50684E394E00E943C068091EC0195
:1041F0001F928F9381E394E09F938F930E94D50643
:104200008FE294E00E943C068091EB011F928F9315
:104210008CE294E09F938F930E94D50689E294E00C
:104220000E943C068DB79EB74C960FB6F8949EBF81
:104230000FBE8DBF8DEE91E00E940A100E94561CA9
:104240009093EA018093E90108951F93CF93DF9340
:104250008091E9019091EA010E946E1CAC0190915D
:10426000EC01992321F02091120130E006C0209149
:1042700013018AE0289F900111244217530708F484
:1042800085C08091EE01C091EF01D091F0011091B5
:10429000F101811107C0C11175C0D11173C0111195
:1042A00071C074C09F3F19F09F5F9093EC01181686
:1042B00024F40E94291F8093EE018091EE0187FF74
:1042C00005C00E94291F81958093EE011C1624F4DD
:1042D0000E94291F8093EF018091EF0187FF05C0A5
:1042E0000E94291F81958093EF016091EE01662362
:1042F00031F1C091EF01CC2311F1062E000C770BA8
:10430000880B990B0E94322723E333E343E35FE3F7
:104310000E9496270E94FA266093EE016C2FCC0F24
:10432000770B880B990B0E94322723E333E343E397
:104330005FE30E9496270E94FA266093EF011D1604
:1043400024F40E94721F8093F0018091F00187FF96
:1043500005C00E94721F81958093F001111624F40C
:104360000E94721F8093F1018091F10187FF05C0C7
:104370000E94721F81958093F101DF91CF911F916F
:104380000C9498209F3F09F08FCF97CFDF91CF916A
:104390001F910895EDEEF1E085E0DF011D928A9511
:1043A000E9F71092EC011092EB01089583E796E093
:1043B0000E943C061F9281E08F931F9285E08F93AD
:1043C00085E296E09F938F930E94D5060F900F9001
:1043D0000F900F900F900F9008958330E9F128F41B
:1043E000813061F0823009F10895853009F462C0AE
:1043F00008F449C0863009F474C00895809113010F
:10440000262F30E0280F311D2F3F310524F4680F8F
:104410006093130103C08FEF809313018091130108
:104420001F928F938EE595E072C080911201262F26
:1044300030E0280F311D2F3F310524F4680F6093C1
:10444000120103C08FEF80931201809112011F921D
:104450008F938CE495E05BC080911101262F30E0B2
:10446000280F311D2F3F310524F4680F609311018F
:1044700003C08FEF80931101809111011F928F93E0
:1044800089E395E044C080911001262F30E0280F89
:10449000311D2F3F310524F4680F6093100103C0D4
:1044A0008FEF80931001809110011F928F9384E20F
:1044B00095E02DC080910F01262F30E0280F311D8F
:1044C0002F3F310524F4680F60930F0103C08FEF75
:1044D00080930F0180910F011F928F938BE095E0E5
:1044E00016C080910E01262F30E0280F311D2F3F7E
:1044F000310524F4680F60930E0103C08FEF8093A1
:104500000E0180910E011F928F9380EF94E09F9394
:104510008F930E94D5060F900F900F900F900895E3
:10452000833081F128F4813059F08230D1F0089540
:10453000853009F449C0B8F1863009F456C00895B1
:1045400080911301681720F4861B8093130102C029
:1045500010921301809113011F928F9381EE94E0CA
:1045600054C080911201681720F4861B80931201B9
:1045700002C010921201809112011F928F938FEC52
:1045800094E043C080911101681720F4861B80934A
:10459000110102C010921101809111011F928F939D
:1045A0008CEB94E032C080911001681720F4861BD8
:1045B0008093100102C010921001809110011F928F
:1045C0008F9387EA94E021C080910F01681720F44F
:1045D000861B80930F0102C010920F0180910F0182
:1045E0001F928F938EE894E010C080910E0168179F
:1045F00020F4861B80930E0102C010920E01809160
:104600000E011F928F9383E794E09F938F930E94F4
:10461000D5060F900F900F900F900895CF93C82F4D
:104620001F928F9388E797E09F938F930E94D50600
:1046300081E090E0A0E0B0E0BC01CD0104C0660FD5
:10464000771F881F991FCA95D2F70E9440190F90B3
:104650000F900F900F90CF910C944315CF938B3107
:1046600009F4CBC108F049C08E3009F4DAC100F575
:10467000873009F4A9C1A8F4863009F05AC28091A4
:10468000E301817F8E7F8093E3018DE797E00E94B5
:104690003C068EEB9BE00E943C0681E08093F30198
:1046A00091C1883009F45BC08B3009F487C141C2E5
:1046B000813109F426C220F4803109F4C6C139C21F
:1046C000863109F4DDC1893109F033C282E39BE010
:1046D0000E943C0685E09BE00E943C068EEC9AE03E
:1046E0000E943C0681EA9AE00E943C068DE49AE032
:1046F0000E943C068FE19AE063C1853309F413C23E
:1047000068F4873209F40FC228F48E3108F411C21C
:104710008D510CC2893209F406C20BC2833438F4BD
:104720008A3308F002C2883309F448C102C28334D4
:1047300009F4F9C1883409F0FCC10E9443158DEADF
:104740009BE00E943C069FEF23ED80E391502040C8
:104750008040E1F700C000000E94E91C33C182ECF8
:104760009BE00E943C068CE799E00E943C060E9478
:10477000171F1F928F9389E799E09F938F930E9451
:10478000D50687E799E00E943C060E940E1FC82FBD
:1047900084E699E00E943C061F92CF938FE599E052
:1047A0009F938F930E94D5068DE599E00E943C0669
:1047B00083E599E00E943C068C2F81701F928F93B5
:1047C00080E599E09F938F930E94D5068EE499E04F
:1047D0000E943C0684E499E00E943C06C1FB8827C5
:1047E00080F91F928F9381E499E09F938F930E94A9
:1047F000D5068FE399E00E943C0683E399E00E948E
:104800003C06C2FB882780F91F928F9380E399E0D2
:104810009F938F930E94D5068EE299E00E943C06FA
:1048200085E299E00E943C06C3FBCC27C0F91F92A9
:10483000CF9382E299E09F938F930E94D50680E206
:1048400099E00E943C060E94201FC82F8CE099E04E
:104850000E943C061F92CF9387E099E09F938F932D
:104860000E94D50685E099E00E943C068CEE98E017
:104870000E943C068C2F81701F928F9389EE98E0E6
:104880009F938F930E94D5068DB79EB780960FB6E3
:10489000F8949EBF0FBE8DBF87EE98E00E943C0645
:1048A00080ED98E00E943C06C1FB882780F91F92AA
:1048B0008F938DEC98E09F938F930E94D5068BEC9D
:1048C00098E00E943C0689EB98E00E943C06C2FBFF
:1048D000882780F91F928F9386EB98E09F938F93A0
:1048E0000E94D50684EB98E00E943C0682EA98E09C
:1048F0000E943C06C3FB882780F91F928F938FE9A3
:1049000098E09F938F930E94D5068DE998E00E94CE
:104910003C0683E998E00E943C06C4FB882780F9A6
:104920001F928F9380E998E09F938F930E94D50602
:104930008EE898E00E943C068CE798E00E943C06D6
:10494000C5FB882780F91F928F9389E798E09F9392
:104950008F930E94D50687E798E00E943C068BE57E
:1049600098E00E943C06C6FB882780F91F928F932F
:1049700088E598E09F938F930E94D50686E598E09E
:104980000E943C068EE498E00E943C06C7FBCC27C0
:10499000C0F91F92CF938BE498E09F938F930E946E
:1049A000D50689E498E00E943C068DB79EB74C96E8
:1049B0000FB6F8949EBF0FBE8DBF04C084EA97E087
:1049C0000E943C06C1E0BAC08091E301C82FC170CB
:1049D00080FF09C080EA9BE00E943C068091E301D1
:1049E000817F8E7F47C084E99BE00E943C068091D6
:1049F000E30181608093E301E5CF9091E30191FBB6
:104A0000CC27C0F981E0C827892FC0FB81F98093AA
:104A1000E301CC2319F087E89BE027C089E79BE0FE
:104A2000CFCF9091E30192FBCC27C0F981E0C8275A
:104A3000892FC0FB82F98093E301CC2319F08AE629
:104A40009BE013C08AE59BE0BBCF9091E30193FB11
:104A5000CC27C0F981E0C827892FC0FB83F9809358
:104A6000E301CC2351F08EE49BE00E943C06809150
:104A7000E30181608093E30161C081E49BE0A0CF0A
:104A800081E19AE00E943C060E94B50F1F928F932D
:104A900087EF99E09F938F930E94D50680910A013A
:104AA0001F928F9380EE99E09F938F930E94D5067B
:104AB000809176011F928F938DEC99E09F938F9355
:104AC0000E94D50680910B011F928F938AEB99E08B
:104AD0009F938F930E94D5060E94621C9F938F9391
:104AE0007F936F9383EA99E09F938F930E94D506FB
:104AF0008DB79EB746960FB6F8949EBF0FBE8DBF7A
:104B000061CF0E944315C0910B0181E0C827C0937B
:104B10000B01CC2329F089E999E00E943C060EC0E4
:104B20008EE899E04DCF80E001C089530E940E23AA
:104B300049CF8CE899E00E943C06C0E08C2FCF91D1
:104B4000089580E0089580E00895CF93C82F809164
:104B5000F301813071F020F0823009F44BC042C182
:104B6000E0910C01F0910D018081823209F03CC18D
:104B700007C0E0910C01F0910D018081823261F457
:104B80008C2F0E94A125811104C08C2F0E942E23FE
:104B90002FC081E090E02CC08C2F0E94A3258111B2
:104BA00026C0C431E1F070F4CB3081F0C031D1F4D3
:104BB0000E94D62180E797E00E943C0682E0809325
:104BC000F30115C0C93259F0C83361F48DE797E09D
:104BD0000E943C0684E797E00E943C0608C01092C1
:104BE000F30104C18EE697E00E943C06FFC081E01D
:104BF0008170FEC0C43228F5CE3108F0C1C0CB3080
:104C0000A1F1D0F4C73009F0D3C08EE18093130135
:104C100082E3809312018AE08093110184E1809302
:104C2000100188E080930F0188E280930E0184E1F7
:104C300096E00E943C06BFC0C33149F1C431C1F0C7
:104C4000B7C0CB3409F4A9C028F4C93289F0C833FD
:104C500061F0AEC0C13509F49EC0C23509F499C0F7
:104C6000CE3409F0A5C06AE09EC00E94D621A3C040
:104C70008091F201882319F01092F2019CC081E228
:104C800096E00E943C0681E08093F301B1C08BEF77
:104C900095E00E943C0689EE95E00E943C068091DA
:104CA00013011F928F9386EE95E09F938F930E943E
:104CB000D50684EE95E00E943C0682ED95E00E94C8
:104CC0003C06809112011F928F938FEC95E09F9389
:104CD0008F930E94D5068DEC95E00E943C068EEBEA
:104CE00095E00E943C06809111011F928F938BEBFF
:104CF00095E09F938F930E94D50689EB95E00E94E3
:104D00003C0688EA95E00E943C06809110011F92C3
:104D10008F9385EA95E09F938F930E94D50683EA4F
:104D200095E00E943C068EE895E00E943C0680914A
:104D30000F011F928F938BE895E09F938F930E94B2
:104D4000D50689E895E00E943C0682E795E00E943E
:104D50003C0680910E011F928F938FE695E09F9302
:104D60008F930E94D5068DE695E00E943C068DB794
:104D70009EB748960FB6F8949EBF0FBE8DBF1BC05E
:104D8000CE51EC2FF0E0E35DFE4F80818093F20185
:104D900012C061E003C061E006C06AE08091F201E8
:104DA0000E94ED2108C08091F2010E94902203C070
:104DB00082E196E013C08091F201882369F01F928E
:104DC0008F938CE096E09F938F930E94D5060F906F
:104DD0000F900F900F9004C089E096E00E943C066F
:104DE00081E006C01092F30180E002C080E000CFB5
:104DF000CF9108950E9401276894B1110C949027D7
:104E000008950E94752788F09F5798F0B92F992729
:104E1000B751B0F0E1F0660F771F881F991F1AF0A5
:104E2000BA95C9F714C0B13091F00E948F27B1E054
:104E300008950C948F27672F782F8827B85F39F053
:104E4000B93FCCF3869577956795B395D9F73EF43E
:104E500090958095709561957F4F8F4F9F4F0895E6
:104E6000E89409C097FB3EF4909580957095619504
:104E70007F4F8F4F9F4F9923A9F0F92F96E9BB27BA
:104E80009395F695879577956795B795F111F8CF36
:104E9000FAF4BB0F11F460FF1BC06F5F7F4F8F4FA1
:104EA0009F4F16C0882311F096E911C0772321F097
:104EB0009EE8872F762F05C0662371F096E8862F2F
:104EC00070E060E02AF09A95660F771F881FDAF786
:104ED000880F9695879597F9089557FD9058440F38
:104EE000551F59F05F3F71F04795880F97FB991F49
:104EF00061F09F3F79F08795089512161306140606
:104F0000551FF2CF4695F1DF08C016161706180692
:104F1000991FF1CF86957105610508940895E8946D
:104F2000BB2766277727CB0197F908950E94A92709
:104F30000C941A280E940C2838F00E94132820F0A4
:104F4000952311F00C9403280C94092811240C9437
:104F500090270E946D2770F3959FC1F3950F50E045
:104F6000551F629FF001729FBB27F00DB11D639F1B
:104F7000AA27F00DB11DAA1F649F6627B00DA11DC1
:104F8000661F829F2227B00DA11D621F739FB00D67
:104F9000A11D621F839FA00D611D221F749F3327D7
:104FA000A00D611D231F849F600D211D822F762F70
:104FB0006A2F11249F5750409AF0F1F088234AF04D
:104FC000EE0FFF1FBB1F661F771F881F91505040B9
:104FD000A9F79E3F510580F00C9403280C9490276C
:104FE0005F3FE4F3983ED4F3869577956795B79540
:104FF000F795E7959F5FC1F7FE2B880F911D96955A
:10500000879597F9089597F99F6780E870E060E0C9
:1050100008959FEF80EC089500240A941616170651
:1050200018060906089500240A9412161306140699
:1050300005060895092E0394000C11F4882352F0FC
:10504000BB0F40F4BF2B11F460FF04C06F5F7F4FB4
:105050008F4F9F4F0895991B79E004C0991F9617B1
:1050600008F0961B881F7A95C9F78095089597FBDD
:10507000072E16F4009407D077FD09D00E9451281E
:1050800007FC05D03EF4909581959F4F089570954B
:1050900061957F4F0895EE0FFF1F0590F491E02D6D
:1050A0000994AA1BBB1B51E107C0AA1FBB1FA6176F
:1050B000B70710F0A61BB70B881F991F5A95A9F7C1
:1050C00080959095BC01CD010895F999FECF92BDD0
:1050D00081BDF89A992780B50895A8E1B0E042E033
:1050E00050E00C948828262FF999FECF1FBA92BD64
:1050F00081BD20BD0FB6F894FA9AF99A0FBE0196B9
:1051000008950E947328272F0C947428DC01CB018A
:10511000FC01F999FECF06C0F2BDE1BDF89A3196C7
:1051200000B40D9241505040B8F70895F894FFCF65
:105130001E080F09EC08B80884080101D1012808ED
:10514000140A321E404D3622395A030D03D702B5D8
:10515000027C02EF01080221023A025A0201020314
:08516000040506070809000020
:1068000088000000000000000400050006000700EA
:10681000080009000A000B000C000D000E000F001C
:1068200010001100120013001400150016001700CC
:10683000180019001A001B001C001D001E001F007C
:10684000200021002200230024002500260027002C
:10685000280035002A002B002C002D002E002F00D0
:106860003000310032003300340029003600370098
:106870003800E00000000000000000000000000000
:106880000000000000000000000000000000000008
:1068900000000000000000000000000000004F00A9
:1068A00050005100520000000000000000000000F5
:1068B00000000000000000000000000000000000D8
:1068C00000000000000000000000000000000000C8
:1068D00000000000000000000000000000000000B8
:1068E0000000000000000000890087008A008B0083
:1068F000F1A1E100E200E300F1A1E500E600000003
:106900000100010001000100EA4401000100E2442D
:106910000100010001005500460054004A004B00F0
:10692000560057004700480001000100E9440100FB
:106930000100010001000100010001003A003B00DC
:106940003C003D003E003F0040004100420043004B
:10695000580001004C00390001004400450052007D
:1069600001000100010050004F0081404D004E0029
:1069700051000100010001000100010001000100BF
:1069800001000100010001000100010001000100FF
:1069900001000100010001000100010001004D00A3
:1069A0004A004E004B0001000100010001000100FF
:1069B00001000100010001000100010001000100CF
:1069C00001000100010001000100010001000100BF
:1069D00001000100010001000100010001000100AF
:1069E0000100010001000100490001000100010057
:1069F000010001000100010001000100010001008F
:00000001FF
