:100000000C941C040C9488040C94F8070C94880439
:100010000C94A4090C9488040C9488040C9488040F
:100020000C9488040C9488040C9488040C94E71DA8
:100030000C9488040C94372C0C9488040C94880439
:100040000C9488040C9488040C9488040C948C2CD4
:100050000C9488040C9488040C9488040C948804F0
:100060000C9488040C9488040C9488040C948804E0
:100070000C948804280D360D420D420D1A0D420DC8
:10008000420D420D420D420D420D420D420D420DF8
:10009000420D420D420D420D1C0D420D1E0D420D32
:1000A000420D420D420D3A0D420D510D380D420DDB
:1000B000420D420D420D420D420D420D420D420DC8
:1000C000420D420D420D420D120D2E0D200D320D2E
:1000D000420D220D420D260D420D300D240D340D22
:1000E0002A0D2C0D420D420D420D420D420D420DC6
:1000F000420D140D160D180D3C0D3E0D420D420D16
:10010000420D400DEC0DEE0DFA0DFA0DFA0DFA0D43
:10011000FA0DFA0DF00DF20DF40DFA0DFA0DEE0DCB
:10012000FD0DFA0DFA0DB60DEC0DFA0DFA0DF20DEE
:10013000FA0DFA0DFA0DFA0DFA0DFA0DF40DEC0D9B
:10014000D80DFA0DDC0DFA0DFA0DFA0DB80DF00D03
:10015000FA0DFA0DE60DFA0DFA0DFA0DBA0DF80DBD
:10016000FA0DDA0DFA0DEE0DFA0DFA0DEA0DDE0DAF
:10017000FA0DE00DF20DFA0DFA0DFA0DE80DE20D93
:10018000FA0DFA0DFA0DFA0DFA0DFA0DFA0DE40D4D
:10019000FA0DBC0DFA0DFA0DF00DFA0DFA0DF80D71
:1001A000FA0DFA0DFA0DFA0DFA0DFA0DFA0DFA0D17
:1001B000FA0DBE0DFA0DFA0DFA0DE60DFA0DFA0D57
:1001C000FA0DFA0DFA0DFA0DFA0DFA0DFA0DFA0DF7
:1001D000C00DFA0DC20DC40DFA0DFA0DFA0DC60DC3
:1001E000C80DCA0DFA0DCC0DCE0DFA0DFA0DFA0D93
:1001F000F60DD00DFA0DD40DD20DD60DFA0DFA0D67
:10020000FA0DFA0DF80D3F0E8D0E680EB30ED90ED5
:10021000E10EE80EED0EF10E880F8A0F8C0F8E0F97
:10022000900F980F980F980F920F940F960F6C10D5
:1002300084109810B310C510D010F4100D113311A4
:1002400055112B12D013C915AE154D1C741C6C1D05
:10025000741C6C1DC01CE31C6C1D3A1D491D14222E
:1002600014224C224C22C722FB22F224F224122315
:10027000F224A322A322AC24F224C124DF24722579
:1002800030325820005220006973723A25303458B9
:10029000200077253032582000214353335F463009
:1002A000210A00214353335F5245414459210A003A
:1002B000214353335F5245534554210A0021435390
:1002C000325F45305F4630210A00214353325F469A
:1002D000302120253032580A00214353325F453007
:1002E000210A00214353325F494E4954210A00211B
:1002F0004353315F45305F25303258210A00452590
:1003000075200050257520004D5B783A25642079D2
:100310003A256420763A256420683A256420623ABA
:10032000253032585D0A000A5B434C525D20004C78
:10033000257520000A4D6F7573653A2025730A00F4
:100340000A4445463A20000A4558503A20000A49D6
:100350004E543A20000A4C4F473A20000A4C4D5365
:100360003A200053257520000A49443A2530345874
:1003700028257325732920000A556E6B6E6F776EE2
:100380002049443A205265706F727420746F205473
:100390004D4B20004E4720004F4B20000A3535378B
:1003A000365F43533832683A00522575200057258E
:1003B0007520005725752000572575200058257594
:1003C0002000412575200049257520005B434847E2
:1003D0005D20000A2575205052543A2530325820AD
:1003E0004953523A2530345820000A257520455289
:1003F000523A25303258204953523A253034582049
:1004000000535B25303258202530325820253032B9
:10041000585D2000007B46010203763A687F6577CD
:10042000482B353B6978796439141E3C6A7A1D166D
:10043000041A1F3D6B061B070821203E6C2C19096E
:100440001715223F6D11050B0A1C23406E7E100DFF
:10045000182425416F360E0C122726427037380FAC
:1004600033132D43717534322F2E44727C7D283026
:100470003174457351504A524D492A5466594F5C64
:100480005F4C4B4E62635A5D5E60295367585B5602
:10049000576147554842403E3C3A3B456843413FDF
:1004A0003D2B357E697A790078141E7C6A7B1D1697
:1004B000041A1F7F6B061B070821204D6C2C19099D
:1004C0001715224A6D11050B0A1C234C6E49100D9D
:1004D000182425516F360E0C1227264F7037380F0F
:1004E00033132D52717534502F2E4E72397D2830B2
:1004F00065314B735464586776012A773259745CBE
:100500005F66020362635A5D5E60295344575B561F
:100510005561474680291E1F202122232425262796
:100520002D2E2A2B141A0815171C180C12132F30F5
:100530002878041607090A0B0D0E0F33343579316C
:100540001D1B06190511103637387D557A2C393A9E
:100550003B3C3D3E3F4041424353475F6061565CF8
:100560005D5E57595A5B62634648644445677B7FCA
:10057000650301025250514F68696A6B6C6D6E6F72
:100580007071725800494C754A4D734B4E767C77AA
:100590007E7466540A4C6F6F702073746172742E8F
:1005A0000A000A55534220636F6E6669677572656B
:1005B000642E0A000A544D4B3A3936653732322FD1
:1005C0004C5546413A6436613764660A0034034943
:1005D0000042004D0020005000430020006B0065E9
:1005E00000790062006F0061007200640020006307
:1005F000006F006E00760065007200740065007286
:10060000000000080354004D004B000000040309E3
:100610000409025400030100A03209040000010390
:1006200001010009211101000122390007058103A0
:100630002000010904010001030102000921110148
:100640000001227F0007058203080001090402005F
:100650000103000000092111010001222200070509
:1006600083032000011201100100000008EDFEEEDE
:100670001B0102010200010631FF0974A101097585
:10068000150026FF009520750881020976150026C1
:10069000FF00952075089102C005010902A101091A
:1006A00001A10085010509190129081500250195F9
:1006B00008750181020501093009311581257F95F1
:1006C000027508810609381581257F950175088115
:1006D00006050C0A38021581257F950175088106EB
:1006E000C0C005010980A10185021601002637005E
:1006F0001A81002AB700751095018100C0050C0908
:1007000001A1018503160100269C021A01002A9C02
:1007100002751095018100C005010906A1010507B8
:1007200019E029E7150025019508750181020508E2
:10073000190129059505750191029501750391012E
:100740000507190029F71500250195F875018102A3
:10075000C0636F6E73756D65723A20253034580A28
:100760000073797374656D3A20253034580A000A95
:10077000002530325820006B6579626F6172643AEF
:1007800020004C45443A20253032580A0025583A7A
:10079000253031366225730A000A20203031323389
:1007A0003435363738394142434445460A0064659A
:1007B0006C5F6B65795F6269743A2063616E277460
:1007C0002064656C3A20253032580A006164645F09
:1007D0006B65795F6269743A2063616E277420618A
:1007E00064643A20253032580A00290A0025750031
:1007F0002F002575005D2800256400200025640079
:10080000200025640020002564007C00253032583B
:10081000006D6F7573656B6579205B62746E7C78B3
:100820002079207620685D287265702F61636C29BD
:100830003A205B00500B3B1611241FBECFEFD4E0D3
:10084000DEBFCDBF04B603FE41C08091210490916C
:100850002204A0912304B09124048730904BA74038
:10086000B04BA1F51092210410922204109223049F
:100870001092240414BE0FB6F894A89580916000DD
:10088000886180936000109260000FBE1092010892
:1008900010920008E3E0F0E089E080935700E491D3
:1008A000E695E370E150E33040F4F0E0EE0FFF1F17
:1008B000E858FE4F8081918102C080E090E1E0E045
:1008C000F0E8E81BF90BF695E795099511E0A0E033
:1008D000B1E0E2E0F2E602C005900D92AE37B1075A
:1008E000D9F724E0AEE7B1E001C01D92A132B20712
:1008F000E1F714E0CCE1D4E004C02197FE010E94AE
:10090000E530CA31D107C9F70E946A190C94FF304B
:100910000C940000FF93EF93E0917E01F0917F0132
:10092000309709F00995EF91FF910895FC018591A9
:10093000803011F0EFDFFBCF0895FF27E0E230E2D7
:1009400047FF0CC0419597FF09C0EDE26095709597
:1009500080959095611D711D811D911D27FF02C01D
:10096000219530E350E2AA27660F771F881F991F51
:10097000AA1FA41710F0A41B63955A95A9F7AA30D3
:1009800008F0A95FA05DAF93F3956115710581052E
:10099000910541F7ED3211F4EF93F395F21718F446
:1009A0003F93F395FBCF8F91B5DFFA95E1F708956B
:1009B000E991F9918591803021F0853219F0AADF13
:1009C000F9CF089520E0E89455915532C1F35033A2
:1009D00011F4689455915A3348F4505390F3220F10
:1009E000022E220F220F200D250FF4CF0EF4219599
:1009F00089919991533619F3533729F1533559F1A8
:100A0000BC0188279927E8945C3621F48991999153
:100A100068945591543639F446EF7EF077FF0DC057
:100A20008FEF9FEF0AC055374AE039F0583540E163
:100A300021F0523642E009F00895FF93EF937DDFF5
:100A4000EF91FF91B7CFFF93EF93FC01819180303D
:100A5000B9F360DFFBCFFF93EF9368DFF1CFDF9354
:100A6000CF93CDB7DEB72596A3DFCF91DF91089561
:100A7000FC012AB1938D909592239AB99BB1838DF5
:100A8000892B8BB90895FC019AB1838D80958923B8
:100A90008AB99BB1838D892B8BB985E08A95F1F753
:100AA000000099B1838D982381E009F480E00895D6
:100AB000FC012BB1948D909592239BB99AB1848DB2
:100AC000892B8AB90895FC012AB1948D90959223BF
:100AD0009AB99BB1848D892B8BB90895FC019AB189
:100AE000848D809589238AB99BB1848D892B8BB99C
:100AF00085E08A95F1F7000099B1848D982381E013
:100B000009F480E008950F931F93CF93DF938C0136
:100B1000EB01C8010E944305882341F0209731F082
:100B200085E08A95F1F700002197F3CFCE01DF91A0
:100B3000CF911F910F9108950F931F93CF93DF9340
:100B40008C01EB01C8010E944305811108C0209768
:100B500031F085E08A95F1F700002197F3CFCE01BF
:100B6000DF91CF911F910F910895CF93DF93EC0107
:100B70000E943805CE01DF91CF910C9463053BB103
:100B8000FC01238D209523232BB93AB1238D232BF0
:100B90002AB90C946305FC018CB3938D982B9CBBF4
:100BA0009DB3838D892B8DBB0895CF93DF93EC018B
:100BB0000E94CB05CE01DF91CF910C94B505FC01CD
:100BC0002DB3938D909592239DBBCF010C94BF05BF
:100BD000FC01118210821282138280E090E89583DA
:100BE0008483178210860895CF93DF93EC012E98AB
:100BF00026982F9827980E94BF05898D843080F40D
:100C000040916900880F22E030E0B90102C0660F10
:100C1000771F8A95E2F7CB01842B8093690010C07F
:100C200040916A008370880F22E030E0B90102C071
:100C3000660F771F8A95E2F7CB01842B80936A00B9
:100C40009DB38B8D809589238DBBCE01DF91CF9194
:100C50000C94E805CF93DF93EC018F8190E001962F
:100C60008F709927288530E08217930749F4CE01C9
:100C70000E94E805CE010E94CB05CE010E94B50579
:100C80002FB7F89498858F81891751F0FE01E90FED
:100C9000F11D81859F5F9F709887C82FD0E002C0AB
:100CA000CFEFDFEF2FBFCF3F8FEFD80781F08091DD
:100CB000060480FF0CC0DF93CF938EE792E09F93F2
:100CC0008F930E942F050F900F900F900F90CE01E1
:100CD000DF91CF9108950F931F93CF938C01CAE1B9
:100CE000C15071F0C8010E942A068F3F2FEF920772
:100CF00049F48FE99FE00197F1F700C00000F0CFC1
:100D00008FEF9FEFCF911F910F9108952F923F92F8
:100D10004F925F926F927F928F929F92AF92BF920B
:100D2000CF92DF92EF92FF920F931F93CF93DF93B7
:100D3000EC01062F1B828091060480FF0CC01F92DD
:100D40006F9382E992E09F938F930E942F050F90FB
:100D50000F900F900F908C819D818115904899F094
:100D60008091060480FF19C18C819D819F938F9390
:100D700088E892E09F938F930E942F050F900F9029
:100D80000F900F900AC19DB38B8D809589238DBBE9
:100D90002BE0A22EBB24B39410E09924939438E066
:100DA000232E47E0342E56E0452E65E0562E74E0A3
:100DB000872EE3E07E2EF2E06F2EA5E8CA2EA2E099
:100DC000DA2ECE010E94BF058FE193E00197F1F783
:100DD00000C00000CE010E9458058FE193E001970A
:100DE000F1F700C00000CE010E94380568E97AE3FF
:100DF000CE010E948305892B11F49B826FC0E12CE8
:100E0000F12C90E59A95F1F7C8010E2C02C095954A
:100E100087950A94E2F780FF05C0B924CE010E94AD
:100E2000630503C0CE010E94580562E370E0CE0165
:100E30000E949C05892B11F46B8250C062E370E024
:100E4000CE010E948305892B11F47B8247C02FEFCE
:100E5000E21AF20A88E0E816F10499F690E59A950C
:100E6000F1F7CE01BB2019F00E94630502C00E9479
:100E7000580562E370E0CE010E949C05892B11F4B5
:100E80008B822CC062E370E0CE010E948305892B27
:100E900011F45B8223C020E52A95F1F7CE010E9470
:100EA00063059CE2E92EFF24F394CE010E946E05B7
:100EB000882329F0E114F104C9F44B820FC0EF2814
:100EC000E1F38CE2E82EFF24F394CE010E946E053C
:100ED000811114C0E114F104D1F53B828B81813082
:100EE00009F049C0AA94A1103AC045C085E08A958E
:100EF000F1F7000091E0E91AF108D7CFEF2869F384
:100F00006CE271E0CE010E949C05892B11F42B82CA
:100F1000E5CFCE010E94E805CE010E94B505CE01C5
:100F20000E94CB05CE01DF91CF911F910F91FF90D1
:100F3000EF90DF90CF90BF90AF909F908F907F9079
:100F40006F905F904F903F902F900C946B0625E030
:100F50002A95F1F7000081E0E81AF108B6CF1B826C
:100F60008091060480FF2DCFDF92CF920E942F0543
:100F70000F900F9026CF8B8180618B83CE010E94D2
:100F8000BF058FE39FE10197F1F700C00000CE019C
:100F90000E94B505CE010E94CB058FEF9FEFDF9138
:100FA000CF911F910F91FF90EF90DF90CF90BF9066
:100FB000AF909F908F907F906F905F904F903F90F9
:100FC0002F9008951F93CF93DF93EC01162F6DEEB2
:100FD0000E9486068A3F910539F4612FCE01DF9188
:100FE000CF911F910C948606DF91CF911F910895A8
:100FF0001F920F920FB60F9211242F933F934F938E
:101000005F938F939F93EF93FF9349B15091B701F3
:10101000909107042091A1013091A201211530483F
:1010200019F49093A3010FC08091A301981B9330F2
:1010300050F08091A1019091A20190939E01809324
:101040009D0180E21AC12091A1013091A201369543
:1010500027953093A2012093A10181E090E001C087
:10106000880F5A95EAF7842349F08091A101909165
:10107000A20190689093A2018093A1018091A101A7
:101080009091A20199278038910509F450C1A8F4E4
:101090008032910509F44BC138F4009709F447C137
:1010A000409709F495C0DEC08034910509F43FC132
:1010B0008035910509F48CC0D5C0803C910531F193
:1010C00048F48039910509F483C0803A910509F408
:1010D0004DC0C8C0803D910509F47AC0803E91059D
:1010E00009F0C0C08091A1019091A20190939E014E
:1010F00080939D018091A1019091A201892F992750
:101100009093A2018093A10183E256C080919F0138
:10111000811123C084E629B19091B801922311F482
:101120008111EDC029B19091B8019223E1F08111B4
:10113000ECC08091A1019091A20190939E018093B7
:101140009D018091A1019091A201892F99279093EF
:10115000A2018093A10182E22FC080919F0182327F
:1011600009F0E5C0E6CF8111E2C0E3CF80919F0195
:10117000811125C084E629B19091B801922311F420
:101180008111C9C029B19091B8019223F1F0811168
:10119000C8C08091A1019091A20190939E0180937B
:1011A0009D018091A1019091A201892F992790938F
:1011B000A2018093A10181E280939F016BC0809185
:1011C0009F01813209F0B3C0E4CF8111B0C0E1CFFB
:1011D0008091A1019091A20190939E0180939D0125
:1011E0008091A1019091A20180399A4A11F482E084
:1011F00044C02091A1013091A2018091A101909160
:10120000A201232F36E026953A95E9F7217056E0A2
:10121000969587955A95E1F78227982F9E7F29F01A
:10122000982F969581708927F8CF811102C081E0AF
:1012300024C08091A1019091A20197FF02C080E19A
:1012400001C081E180939F018091A1019091A20151
:1012500026E0969587952A95E1F79093A2018093D1
:10126000A10118C010929F018091A1019091A2014B
:1012700090939E0180939D0180E88093A0019BB193
:101280008091B801282F209592239BB99AB1892B80
:101290008AB92EC02091A1013091A2018091A401B0
:1012A000E82FF0E0E356FE4F21878F5F8F70809329
:1012B000A40190E001968F7099273091A501432FEA
:1012C00050E08417950769F42DB38091B801482F39
:1012D000409524232DBB9BB194239BB99AB1892BB4
:1012E0008AB98091A401831303C080E48093A00194
:1012F00080E090E89093A2018093A10118C095E04E
:101300009A95F1F70000815006CF25E02A95F1F774
:101310000000815007CF95E09A95F1F700008150C9
:101320002ACF25E02A95F1F7000081502BCFFF91BD
:10133000EF919F918F915F914F913F912F910F90DE
:101340000FBE0F901F9018951F920F920FB60F921D
:1013500011242F933F934F935F938F939F93EF931A
:10136000FF9349B150919A01909107042091840113
:10137000309185012115304819F4909386010FC0F2
:1013800080918601981B933050F080918401909158
:101390008501909381018093800180E21AC12091A0
:1013A00084013091850136952795309385012093EE
:1013B000840181E090E001C0880F5A95EAF7842308
:1013C00049F0809184019091850190689093850106
:1013D00080938401809184019091850199278038C0
:1013E000910509F450C1A8F48032910509F44BC16C
:1013F00038F4009709F447C1409709F495C0DEC05E
:101400008034910509F43FC18035910509F48CC001
:10141000D5C0803C910531F148F48039910509F43B
:1014200083C0803A910509F44DC0C8C0803D910544
:1014300009F47AC0803E910509F0C0C08091840112
:101440009091850190938101809380018091840126
:1014500090918501892F992790938501809384012C
:1014600083E256C080918201811123C084E629B1B4
:1014700090919B01922311F48111EDC029B19091BB
:101480009B019223E1F08111ECC080918401909145
:1014900085019093810180938001809184019091D6
:1014A0008501892F9927909385018093840182E299
:1014B0002FC080918201823209F0E5C0E6CF811110
:1014C000E2C0E3CF80918201811125C084E629B179
:1014D00090919B01922311F48111C9C029B190917F
:1014E0009B019223F1F08111C8C0809184019091F9
:1014F0008501909381018093800180918401909176
:101500008501892F9927909385018093840181E239
:10151000809382016BC080918201813209F0B3C057
:10152000E4CF8111B0C0E1CF809184019091850119
:101530009093810180938001809184019091850135
:1015400080399A4A11F482E044C02091840130919C
:1015500085018091840190918501232F36E02695A5
:101560003A95E9F7217056E0969587955A95E1F7F7
:101570008227982F9E7F29F0982F96958170892732
:10158000F8CF811102C081E024C080918401909144
:10159000850197FF02C080E101C081E18093820153
:1015A000809184019091850126E0969587952A95F2
:1015B000E1F7909385018093840118C01092820115
:1015C00080918401909185019093810180938001A5
:1015D00080E8809383019BB180919B01282F209507
:1015E00092239BB99AB1892B8AB92EC0209184018C
:1015F0003091850180918701E82FF0E0E058FE4F9F
:1016000021878F5F8F708093870190E001968F70A4
:10161000992730918801432F50E08417950769F48A
:101620002DB380919B01482F409524232DBB9BB166
:1016300094239BB99AB1892B8AB98091870183132E
:1016400003C080E48093830180E090E8909385015B
:101650008093840118C095E09A95F1F700008150BD
:1016600006CF25E02A95F1F70000815007CF95E0DD
:101670009A95F1F7000081502ACF25E02A95F1F7DD
:10168000000081502BCFFF91EF919F918F915F913F
:101690004F913F912F910F900FBE0F901F90189573
:1016A000EDE9F1E0118210821282138220E030E82D
:1016B00035832483168291E0918F128E82E0838F8E
:1016C000948FE0E8F1E01182108212821382358358
:1016D0002483168293E0918F828F88E0838F84E049
:1016E000848F0895E62FF0E034E0F595E7953A957C
:1016F000E1F7E7706F70823079F08330C1F08130AC
:1017000011F5F0E024E0EE0FFF1F2A95E1F7E60F58
:10171000F11DEC5EFA4F15C0F0E094E0EE0FFF1FF4
:101720009A95E1F7E60FF11DEC56FB4F0AC0F0E089
:1017300084E0EE0FFF1F8A95E1F7E60FF11DEC5EE6
:10174000FB4F8491089580E808950F931F93CF93E2
:10175000DF938C01EB0169EEFC01808191810E9495
:101760008606F801808191810E946B068883F801CA
:10177000808191810E946B068983F801808191812B
:101780000E946B068A8399279F938F9389811F926A
:101790008F9388811F928F9381E094E09F938F9322
:1017A0000E942F058DB79EB708960FB6F8949EBF7E
:1017B0000FBE8DBFDF91CF911F910F910895E6ED80
:1017C000F1E01192119281E0E63EF807D1F7089519
:1017D000CF93DF93EC011B821A821C821D820E9430
:1017E000DF0B88819981DF91CF910C94F4051F93D1
:1017F000CF93DF93FC0184810E94720B87FD20C090
:10180000182F1F70C82FD0E094E0D595C7959A95F2
:10181000E1F7612F8C2F0E942E20811111C0CC0F77
:10182000DD1FCA52DE4F81E090E002C0880F991F91
:101830001A95E2F728813981822B932B998388832B
:10184000DF91CF911F9108951F93CF93DF93FC01F8
:1018500084810E94720B87FD22C0182F1F70C82F31
:10186000D0E094E0D595C7959A95E1F7612F8C2F3C
:101870000E942E20882399F0CC0FDD1FCA52DE4F24
:1018800081E090E002C0880F991F1A95E2F78095D9
:101890009095288139818223932399838883DF91CE
:1018A000CF911F91089588EC91E00E94E80B8AEB9C
:1018B00091E00C94E80B809106048160809306040B
:1018C0000C94DF0BE82FF0E0EE0FFF1FEA52FE4F03
:1018D0008081918108950C94DF0BE82FF0E083E084
:1018E000EE0FFF1F8A95E1F77770E70FF11D94E087
:1018F000EE0FFF1F9A95E1F76F70E60FF11DEE0FE7
:10190000FF1FE050F849859194910895FC0184816E
:10191000823070F0843061F062FB992790F960FDAD
:10192000926061FD9460692F808191810C94E2073F
:101930000895CF93C82F682F88EC91E00E94860C01
:101940006C2F8AEB91E0CF910C94860CCF92DF92B2
:10195000EF92FF920F931F93CF93DF936C018B0154
:101960000E94652C7C01F601808191810E942A06EB
:10197000EC01019631F4C7010E947D2C801791077C
:1019800090F3CE01DF91CF911F910F91FF90EF90D7
:10199000DF90CF9008950F931F93CF93DF93FC01B7
:1019A00080819181DC0112962C912131F9F08F0117
:1019B00062EF0E9486068F3FBFEF9B07D1F08A3F00
:1019C0009105D1F464EF71E0C8010E94A60C8F3F2D
:1019D0002FEF9207A1F0D82FCC2764EF71E0C80158
:1019E0000E94A60CDE01A82BCD010BC08DEF9FEF4E
:1019F00008C08FEF9FEF05C08EEF9FEF02C080E021
:101A000090E0DF91CF911F910F910895CF93862F92
:101A100090E0FC017C97E834F105A0F5E65CFF4F0F
:101A20000C94E53085E53EC08AE53CC08BE53AC0C4
:101A30008CE538C08DE536C08EE534C08FE532C008
:101A400080E630C081E62EC082E62CC083E62AC044
:101A50008FE628C081E726C082E724C084E722C041
:101A600085E720C087E71EC088E71CC08AE71AC048
:101A70008CE718C08FE716C080E714C089E712C052
:101A80008BE710C0C62F1F926F938FEE92E09F934B
:101A90008F930E942F050F900F900F900F908C2F17
:101AA00001C084E5CF910895CF93DF93EC01998530
:101AB0009230A9F128F4992341F09130C9F045C042
:101AC0009330B1F19430D9F140C0603E21F0613ED5
:101AD00021F482E02BC081E029C067FD04C0CE0163
:101AE0000E94F70B33C06F77CE010E94240C2EC0EA
:101AF000663359F118F46A3229F427C06A3A29F199
:101B0000663B19F167FD05C0CE010E94060D682FE6
:101B100012C06F77CE010E94060D682F13C06D3181
:101B200021F06D3991F484E001C083E089870EC013
:101B3000653459F465E5CE010E94F70B06C0653C9B
:101B400021F465E5CE010E94240C198680E0DF9126
:101B5000CF910895862F90E0FC013397E138F1058D
:101B600008F048C0EE57FF4F0C94E53087E1089528
:101B70008FE108958CE5089580E6089582E6089542
:101B800087E2089583E508958FE2089589E3089533
:101B900087E308958FE3089587E408958FE4089517
:101BA00086E508958EE508958FE7089580E008950D
:101BB00085E608958EE608958FE6089580E30895FA
:101BC00088E3089580E4089588E4089580E5089501
:101BD00087E508958FE5089588E1089588E00895E0
:101BE00080E2089580E1089589E108958DE60895E1
:101BF00088E20895862F8F7708958FE008956B35DA
:101C0000C9F068F46131F1F020F46E30C9F484E574
:101C10000895633169F0643599F48BE508956D3565
:101C200059F050F0623651F06C3751F487E708955F
:101C300081E108958DE508958AE608958EE008957E
:101C4000862F08958FE00895613131F0613411F4E9
:101C50008CE70895862F089583E108951F93CF930D
:101C6000DF93EC01162FEA858E2F90E089309105E5
:101C700008F0BDC0FC01ED5FFE4F0C94E5308A8199
:101C80009B8180599B4A029720F4CE010E94FF0D50
:101C9000182F103E69F030F4133871F0143871F4D5
:101CA0006FE792C0113E31F0103F41F481E093C0E4
:101CB00082E091C084E08FC062E086C01A8617FD82
:101CC00002C0612F21C00E94DF0B83EE92E069C049
:101CD0008A819B8180599B4A029720F4CE010E9401
:101CE000240E182F193509F482C0103F19F0123153
:101CF00019F47DC083E06FC01A8617FD09C0612FFB
:101D0000CE010E94AA0D682FCE010E94F70B70C071
:101D10000E94DF0B89ED92E044C08A819B8180594B
:101D20009B4A029720F4CE010E94FF0D182F133812
:101D300021F0143821F46FE757C062E055C01A86CD
:101D400017FD02C0612F25C00E94DF0B1F921F9359
:101D50008AEC92E09F938F930E942F050F900F9033
:101D60000F900F9024C08A819B8180599B4A0297D3
:101D700020F4CE010E94240E182F1A861231C1F1D0
:101D80001935B1F117FD09C0612FCE010E94AA0DCE
:101D9000682FCE010E94240C2BC00E94DF0B8DEB1C
:101DA00092E09F938F930E942F050F900F908FEFDB
:101DB00020C0643121F0603FD1F486E00CC085E0A2
:101DC0000AC06737A1F460E0CE010E94F70B0FC094
:101DD000643169F487E08A870BC0603F41F488E092
:101DE000FACF673721F460E0CE010E94240C1A86F6
:101DF00080E0DF91CF911F9108956C3551F018F478
:101E0000633169F00AC0663731F06E3731F486E726
:101E1000089581E508958EE70895862F08958DE54C
:101E20000895CF93DF93EC016F3B41F028F486E5F2
:101E3000860F823070F402C06C3F59F41B8680EB31
:101E400092E09F938F930E942F050F900F908FEF3A
:101E5000B1C08B85813009F445C038F0823009F477
:101E600076C0833009F491C0A4C08A819B818239F5
:101E70009B4A21F4CE010E94FD0E682F663809F1BD
:101E800068F46338D1F020F4603819F582E077C047
:101E90006438A9F06538E9F468E61DC06C38A9F02B
:101EA00030F4673881F06B38A1F461E014C06D380C
:101EB00071F0603F71F481E062C062E00CC06FE7D6
:101EC0000AC068E708C060E006C069E004C06AE0D4
:101ED00002C067FD04C0CE010E94F70B6AC083EA0E
:101EE00092E02EC01B868A819B8182399B4A21F415
:101EF000CE010E94FD0E682F862F90E0FC01E35872
:101F0000F109EB30F105A0F4E45FFE4F0C94E530ED
:101F100062E010C06FE70EC068E60CC068E70AC058
:101F200060E008C061E006C069E004C06AE002C089
:101F300067FD04C0CE010E94240C3BC089E992E0F9
:101F40009F938F930E942F050F900F9032C06532A0
:101F500079F030F4663171F06E3199F460E00BC0C5
:101F6000663221F0603F69F483E009C06DE503C08B
:101F700063E501C061E5CE010E94F70B04C08B87C9
:101F800018C00E94DF0B1B8614C06E3169F020F46C
:101F90006631B9F761E509C0653221F0663289F72B
:101FA0006DE503C063E501C060E0CE010E94240C32
:101FB000EACF80E0DF91CF9108958F929F92AF9208
:101FC000BF92CF92DF92EF92FF920F931F93CF9326
:101FD000DF9300D000D01F92CDB7DEB78C01DC01BB
:101FE000ED91FC918381882391F1E080F180D38091
:101FF0000E94652CFF92EF921F92DF929F938F9326
:102000008AEE93E09F938F930E942F05D801ED9164
:10201000FC911197838180750FB6F894DEBF0FBED7
:10202000CDBF79F418968C9118978B3019F48CE009
:1020300018968C938381823021F48DE0D801189614
:102040008C931382D801ED91FC9111821082D801FA
:10205000ED91FC9111978281882381F192811596EF
:102060008C91981759F1E080F180D2800E94652C04
:10207000FF92EF921F92DF929F938F9383ED93E0F5
:102080009F938F930E942F05F80185810FB6F894D6
:10209000DEBF0FBECDBF0190F081E02D85FF03C0F4
:1020A000928194FD8EC584FD89C5D801ED91FC9186
:1020B0001197828115968C9311821082D8011896FF
:1020C000EC918E2F90E08E30910508F0B9C5FC019F
:1020D000E95EFE4F0C94E5300E94652C9F938F9330
:1020E00087EC93E09F938F930E942F050E94652CAD
:1020F000F80197838683808191810E94D50581E0D4
:10210000D80118968C936BC0F801808191810E9450
:102110002A060196C9F7D80116968D919C911797BA
:102120000E947D2C893B9B4008F48AC582E02EC525
:102130000E94652C9F938F9382EC93E09F938F93E3
:102140000E942F056FEFD8018D919C910E94860609
:102150000F900F900F900F908A3F910511F486E039
:1021600015C583E060C3F801808191810E94DF057D
:102170002E98269A2F98279A0E94652CD801179698
:102180009C938E93169784E04FC3F80186819781C4
:102190000E947D2C853F914008F452C585E043C3E1
:1021A0002E9826982F982798F801808191810E9477
:1021B000E805D8018D919C910E94D5050E94652C5F
:1021C0009F938F938DEB93E09F938F930E942F05A6
:1021D0000E94652CF8019783868386E080870F90A4
:1021E0000F900F900F902CC5D8018D919C910E945B
:1021F0002A06019609F424C50E94652C9F938F93AB
:1022000088EB93E09F938F930E942F050E94652C8B
:10221000F8019783868387E0E1CFD80116968D91E8
:102220009C9117970E947D2C853F914018F089E082
:10223000F8018087D8018D919C910E942A06019611
:1022400009F4FEC40E94652C9F938F9383EB93E067
:102250009F938F930E942F050E94652CF80197830E
:10226000868388E0BBCFD80116968D919C911797F5
:102270000E947D2C853F914018F089E0F80180870D
:10228000D8018D919C910E942A06019609F4D8C428
:102290000E94652C9F938F938EEA93E09F938F9378
:1022A0000E942F0589E0F80199CFC8010E94CB0C4C
:1022B000D80113969C938E9312970E94652C9F933E
:1022C0008F9389EA93E09F938F930E942F05F801E3
:1022D000828193810F900F900F900F90009711F4CF
:1022E00082E010C08F3FBFEF9B0711F481E044C034
:1022F0009C012D5F3F4F2230310590F38F3F9105B8
:1023000029F484E0D80114968C9363C09C0125586D
:102310003B4A2230310508F46FC48239BBEA9B077F
:1023200009F46AC49C0120593B4A22303105F8F473
:102330008CE993E09F938F930E942F0560EFF80143
:10234000808191810E9486060F900F908A3F9105AF
:1023500009F049C462E8D8018D919C910E948606DB
:102360008A3F910509F03FC488E993E03EC4803B71
:10237000BFEB9B0721F483E0F80184832AC0882700
:102380008115FBEA9F0709F4ABCF81152FEB92076C
:1023900091F381159F4779F388E793E09F938F939B
:1023A0000E942F0560EFD8018D919C910E948606B6
:1023B0000F900F908A3F910509F01EC462E0F8016A
:1023C000808191810E9486068A3F910509F014C49C
:1023D00087CFF801228133812E3FFFEF3F0751F075
:1023E0002D3F4FEF340749F02115310549F040E208
:1023F00051E008C041E251E005C04BE151E002C0AC
:1024000047E251E0D80114968C91813049F0823036
:1024100051F0833059F0843061F08CE391E00BC0CF
:1024200080E391E008C08DE291E005C083E391E094
:1024300002C081E491E05F934F939F938F933F930A
:102440002F9388E693E09F938F930E942F058AE055
:10245000F80180877DC30E94652C9F938F9383E64C
:1024600093E09F938F930E942F050F900F900F90F2
:102470000F90D80114968C91833031F0843079F02C
:10248000823009F07CC106C068EFF801808191813B
:102490000E9486060E94B21E0E94990C70C165EFD0
:1024A000D8018D919C910E9486066AEEF801808188
:1024B00091810E948606BE016F5F7F4FC8010E9416
:1024C000A50B8CE593E09F938F930E942F0568EEF8
:1024D000D8018D919C910E94860660E0F801808170
:1024E00091810E94860666EED8018D919C910E9492
:1024F000860666EEF801808191810E94860666EE6E
:10250000D8018D919C910E948606BE016F5F7F4F1E
:10251000C8010E94A50B0F900F908981882309F4B0
:102520007AC08A81882309F476C085E593E09F9379
:102530008F930E942F0566EEF801808191810E94A1
:10254000860668EED8018D919C910E94860660E017
:10255000F801808191810E94860668EED8018D91F4
:102560009C910E94860663E0F801808191810E941F
:10257000860668EED8018D919C910E94860662E0E5
:10258000F801808191810E94860668EED8018D91C4
:102590009C910E94860661E0F801808191810E94F1
:1025A000860666EED8018D919C910E94860668EEA3
:1025B000F801808191810E94860663E0D8018D91A7
:1025C0009C910E94860668EEF801808191810E94AC
:1025D000860661E0D8018D919C910E94860668EE86
:1025E000F801808191810E94860662E0D8018D9178
:1025F0009C910E94860668EEF801808191810E947C
:10260000860663E0D8018D919C910E94860689E040
:10261000F801848781C08EE493E09F938F930E949A
:102620002F0563EFD8018D919C910E94860668EC7E
:10263000F801808191810E94860663EFD8018D9117
:102640009C910E94860664E6F801808191810E9437
:10265000860663EFD8018D919C910E94860660E505
:10266000F801808191810E948606C8010E94CB0CEE
:10267000292F30E00F900F902330310511F080E0CA
:1026800001C083E0D8011C968C9387E493E09F936C
:102690008F930E942F0563EFF801808191810E9442
:1026A000860668ECD8018D919C910E94860663EFA6
:1026B000F801808191810E94860668ECD8018D9195
:1026C0009C910E94860663EFF801808191810E94AF
:1026D000860660E5D8018D919C910E948606C8010E
:1026E0000E94CB0C292F30E00F900F902430310541
:1026F00011F080E001C084E0F801848781110EC0F0
:1027000080E493E09F938F930E942F0566EFD8019A
:102710008D919C910E9486060F900F9064EFF801B6
:10272000808191810E948606BE016F5F7F4FC80144
:102730000E94A50BD8011C968C91893049F08330FA
:1027400051F0843059F0882361F083E291E00BC0AE
:102750008FE491E008C087E491E005C088E591E04E
:1027600002C081E691E09F938F9384E393E09F936F
:102770008F930E942F050F900F900F900F908BE07A
:10278000F80180870E94652C9F938F938FE293E0DE
:102790009F938F930E942F050F900F900F900F9093
:1027A000D8018D919C910E942A064C01019609F452
:1027B00047C2F8018481843069F18114910421F0C9
:1027C000FFEF8F16910469F40E94DF0B0E94C42171
:1027D00087E293E09F938F930E942F050F900F90B5
:1027E0002FC2823069F0833081F0813009F028C235
:1027F000682DC8010E94540D8F3F09F021C212C0FC
:10280000682DC8010E942E0EF7CF682DC8010E94C6
:10281000110FF2CFF801808191810E946B066C014B
:10282000019629F48CE0D80118968C9309C2F8011E
:10283000808191810E946B067C01019699F3D801F9
:102840001C968C91FE0131965F01853028F483300F
:1028500030F4882321F0DCC08930A1F0D9C0D80140
:102860001D969C911D97987F282D2770922B1D9661
:102870009C9384FE02C0DD24DA9485FEC4C0FF244C
:10288000FA94C1C0F8013585C40188749927883449
:10289000910509F0A9C0C1FEA7C0F0E38F229924D9
:1028A000959487949594879420E3C222DD2454E084
:1028B000D594C7945A95E1F7C828D92842E0C416A0
:1028C000D104E1F183E0C816D10409F476C0CA94BA
:1028D000CD2809F0A6C1E6FC17C0A701487055270E
:1028E0008E2D8F70E7FE07C0452B11F420E001C04C
:1028F00020EF822B0AC0452B11F420E001C020EF0D
:10290000982F922B80E002C080E090E0E4FE05C0AA
:102910003860D8011D963C9303C0377FF801358796
:10292000D8011D962C911D97E5FE04C020611D96CF
:102930002C9379C12F7EF801258775C1E0FE05C073
:102940003064D8011D963C9303C03F7BF801358766
:10295000D8011D968C911D97E1FE04C080681D96DC
:102960008C9303C08F77F8018587D8011D968C91D1
:102970001D97E2FE04C080621D968C9303C08F7D7C
:10298000F8018587D8011D968C911D97E3FE04C040
:1029900080641D968C9303C08F7BF8018587D801D6
:1029A0001D968C911D97E4FE04C080681D968C9343
:1029B00038C18F77F801858734C1C70124E0959528
:1029C00087952A95E1F7E7FE03C0806F90E003C08A
:1029D000982F9F7080E0387F2E2D2770E32EE22AFB
:1029E000D8011D96EC921FC1387F882D8770382B37
:1029F000F801358784FE02C0DD24DA9485FE4DC0DF
:102A0000FF24FA944AC0833049F08430C9F045C0AD
:102A1000833079F4E12CF12CC12CD12CD8018D918B
:102A20009C910E946B068F3FBFEF9B07B1F1982FDF
:102A300035C0843009F0F5C0E12CF12CC12CD12C2B
:102A4000F801808191810E946B06AC018F3FFFEFFE
:102A50009F0719F183FD02C080E001C080EF942F31
:102A60009F70982BD8011D962C911D9744FF04C090
:102A700028601D962C9303C0277FF8012587D80175
:102A80001D962C911D9745FF04C020611D962C9327
:102A900005C02F7EF801258701C090E085E0D501B3
:102AA0001D928A95E9F7F8018585898380E0F0E831
:102AB000CF16D1044CF4960141E8C4164FEFD4066A
:102AC00024F421E83FEF01C02FE72A83A0E8EA16AB
:102AD000F10454F49701B1E8EB16BFEFFB0614F4D0
:102AE00021E83FEF219501C021E82B83903811F0B8
:102AF000919501C09FE79C83803809F481E88D831C
:102B0000C5010E94071F89811F928F938D81282FF5
:102B1000082E000C330B3F938F938C81282F082EA7
:102B2000000C330B3F938F938B81282F082E000CC2
:102B3000330B3F938F938A81282F082E000C330B81
:102B40003F938F9388E093E09F938F930E942F058C
:102B50000FB6F894DEBF0FBECDBF72C00E94652CC9
:102B60009F938F9383E093E09F938F930E942F0511
:102B70006EEFD8018D919C910E9486060F900F9068
:102B80000F900F908A3A910521F489E0F80180872F
:102B900057C00E94652C9F938F938EEF92E09F9376
:102BA0008F930E942F05C8010E94E80B0E94DF0B43
:102BB0000E94C421D80118961C9211CB828185FFF6
:102BC00074CAD80118968C918B3009F06ECA8CECBF
:102BD00093E09F938F930E942F058CE0F8018087EC
:102BE0000F900F9062CA84E993E09F938F930E94A5
:102BF0002F050F900F9074CB60EFF80180819181C9
:102C00000E9486068A3F910509F06ACB63E0D801ED
:102C10008D919C910E9486068A3F910509F060CBB8
:102C2000AACB80E090E025E0D5011D922A95E9F736
:102C3000F80125852983E12CF12CC12CD12C3BCF27
:102C400081E00F900F900F900F900F90DF91CF9138
:102C50001F910F91FF90EF90DF90CF90BF90AF90BA
:102C60009F908F90089588EC91E00E94DD0F8AEB91
:102C700091E00C94DD0FE8ECF1E08DE991E09183B7
:102C80008083138212821482158210861186128626
:102C90001386148615860E94DF0BEAEBF1E080E8CC
:102CA00091E09183808313821282148215821086B0
:102CB000118612861386148615860C94DF0B80917C
:102CC0000A030895CF93DF9300D01F92CDB7DEB7EC
:102CD00020911804243021F523E029839B838A83E3
:102CE00082E08093E9008FEF9091E800815095FD9C
:102CF00006C095ED9A95F1F700008111F5CF80910E
:102D0000E80085FF0DC040E050E063E070E0CE01D8
:102D100001960E941E1B8091E8008E778093E80048
:102D20000F900F900F90DF91CF910895CF93DF9385
:102D300000D01F92CDB7DEB720911804243061F582
:102D400019821A821B8222E029838138910520F0A2
:102D5000805891099B838A8382E08093E9008FEFFA
:102D60009091E800815095FD06C095ED9A95F1F798
:102D700000008111F5CF8091E80085FF0DC040E093
:102D800050E063E070E0CE0101960E941E1B80912E
:102D9000E8008E778093E8000F900F900F90DF91FE
:102DA000CF91089520911804243051F522E020930A
:102DB000E9002FEF3091E800215035FD06C035EDD8
:102DC0003A95F1F700002111F5CF2091E80025FF99
:102DD00017C020911001222341F021E02093F1003F
:102DE00040E050E065E070E004C040E050E063E0A7
:102DF00070E00E941E1B8091E8008E778093E800AF
:102E00000895CF93DF9320911804243009F04AC02D
:102E1000EC01809111018823E1F080911201882357
:102E2000C1F081E08093E90081E8815049F0909100
:102E3000E80095FD05C09AE29A95F1F700C0F5CF3C
:102E40008091E80085FF2EC040E050E060E270E035
:102E500019C081E08093E90081E8815059F0909198
:102E6000E80095FD07C0EFE3F1E03197F1F700C00E
:102E70000000F3CF8091E80085FF14C040E050E0EF
:102E800068E070E0CE010E941E1B8091E8008E7702
:102E90008093E80080E2FE01AAEEB2E001900D927C
:102EA0008A95E1F7DF91CF910895CF93C091E80122
:102EB000C1110BC00E94712C643C794081059105C1
:102EC00020F081E08093E801C1E08C2FCF9108953C
:102ED000FF920F931F93CF93DF93D82F0FB607FE68
:102EE00083C080911804843081F08091030190E0C8
:102EF00001962091050130E0822393232091040163
:102F000030E08217930709F0C9C00E94551781115C
:102F100010C08091030190E001962091050130E0FE
:102F2000822393232091040130E08217930709F054
:102F3000B5C00E94652C8C01C091E900CF709091C2
:102F4000EC00892F817090FD80E8C82B83E080938E
:102F5000E90085E0F82E8091EB0085FD42C080916C
:102F6000EB0080FF3EC08091EE0087FF3AC0809169
:102F7000040190910301981709F457C09091E8005B
:102F800095FF8AC0E0910101F0910201E80FF11D67
:102F900020818F5F90910501892380930401209304
:102FA000F1008091E80085FDE2CF8091E80080FF8C
:102FB000DECF8091E8008E778093E800F0920001E8
:102FC000D6CF8091030190E001962091050130E079
:102FD000822393232091040130E08217930709F4A0
:102FE00048C0CF70C093E90040910301842F90E066
:102FF00001962091050130E0822393232091040162
:1030000030E08217930709F44CC0E0910101F09180
:103010000201E40FF11DD083809103018F5F909135
:1030200005018923809303013CC08091E80085FF5E
:1030300033C0D093F10081E09091F200992391F098
:103040009091E80090FF0EC09091E80095FF03C0BA
:103050001092F100F9CF9091E8009E779093E800EC
:10306000F0920001882309F4ACCFCF70C093E9003F
:1030700018C080910001882309F4B3CF0E94652C09
:103080009C018017910711F4890165CF909100018F
:10309000915090930001F8CF80E0CECF4091030192
:1030A000B4CF80E0DF91CF911F910F91FF900895F1
:1030B000089542E261EC81E00E94971A42E061ECDF
:1030C00082E00E94971A42E261EC83E00C94971A26
:1030D00080911A04833009F453C030F4813071F0C8
:1030E000823009F4BAC008958A3009F4A6C08B3042
:1030F00009F478C0893009F0C8C020C08091190453
:10310000813A09F0C2C08091E800877F8093E8008F
:1031100080911D0490911E04892B21F460E28AEEB7
:1031200092E003C060E080E090E070E00E946B1BE2
:103130008091E8008B778093E800089580911904CE
:10314000813209F0A2C080911D0490911E04892B48
:1031500009F09BC08091E800877F8093E800809110
:10316000E80082FD05C0809118048111F8CF8DC060
:103170008091F10080930A038091E8008B7781C0F1
:1031800080911904813A09F080C080911D049091CA
:103190001E04892BA1F48091E800877F8093E800CA
:1031A0008091E80080FFFCCF809111018093F100B5
:1031B0008091E8008E778093E8000E94CC1A80917D
:1031C0001D0490911E04019709F05FC08091E800F2
:1031D000877F8093E8008091E80080FFFCCF80919A
:1031E00010014AC080911904813209F04EC08091CB
:1031F0001D0490911E04892B69F48091E800877F5B
:103200008093E8000E94CC1A80911B0480931101E6
:103210000E94C42180911D0490911E040197A9F57C
:103220008091E800877F8093E8000E94CC1A80910B
:103230001B04809310010C94C421809119048132E5
:1032400021F58091E800877F8093E8000E94CC1AE6
:1032500080911C0480930B03089580911904813A96
:10326000A1F48091E800877F8093E8008091E800D6
:1032700080FFFCCF80910B038093F1008091E800E8
:103280008E778093E8000C94CC1A089580910A03FD
:103290008093E90110920A030E946B0C0C94C421E4
:1032A0000C9446190E94112C80911604882329F051
:1032B0000E941E2C81110C94811A08950E94332CB7
:1032C0008091E90180930A0308950C945E19089592
:1032D0000C946719CF9384B7877F84BF0FB6F89497
:1032E000A8958091600088618093600010926000D2
:1032F0000FBE90E080E80FB6F89480936100909341
:1033000061000FBE88E697E10E94D02B86E091E035
:103310000E94AD1E84EB95E00E9496040E94530C1F
:103320000E946C1F0E94841D0E94D71D78940E94E9
:103330006E1F80911804843029F00E94921E0E9412
:103340006719F7CF82EA95E00E9496040E946819F7
:1033500084E995E00E949604C3E0809118048530CA
:1033600019F40E945219F9CF0E94FA2B0E94721F81
:103370002091E4003091E5008091E6019091E70111
:103380002817390709F464C08091E4009091E500A2
:103390009093E7018093E6010E945517882309F472
:1033A00057C080911804843009F052C08091E90020
:1033B0008F702091EC00922F917020FD90E8892B66
:1033C000C093E9009091EB0090FF3FC09091EE0018
:1033D00097FF3BC09091040120910301291709F147
:1033E0002091E80025FF1DC0E0910101F09102014C
:1033F000E90FF11D30819F5F209105019223909389
:1034000004013093F1009091E80095FDE3CF909195
:10341000E80090FFDFCF9091E8009E779093E8005E
:10342000D9CF9091F200992381F09091E80090FF1C
:103430000CC09091E80095FF03C01092F100F9CF05
:103440009091E8009E779093E8008F708093E90058
:103450000E94921E82CF292F332723303105C9F0D5
:1034600060F42130310581F02230310509F041C08E
:1034700084E590E021E136E040C021323105E1F001
:103480002232310531F135C082E190E025E636E0A7
:1034900034C099278130910549F028F0029749F509
:1034A000EDECF5E005C0EDE0F6E002C0E3E0F6E0AB
:1034B000849190E09F0121C063307105D0F4660FC4
:1034C000771FFB01EE58FE4F2081318189E090E0AB
:1034D00014C06330710568F4FB01EE0FFF1FE4595F
:1034E000FE4F20813181FB01E759FE4F808190E042
:1034F00004C080E090E020E030E0FA0131832083D6
:10350000089584E089BD86E089BD09B400FEFDCF41
:103510008091D8008F7D8093D8008091E0008260F8
:103520008093E0008091E00081FDFCCF0895982F0A
:10353000953068F59093E900981739F07091EC0098
:103540002091ED005091F00003C0242F762F50E021
:1035500021FD02C09F5FECCF3091EB003E7F3093A6
:10356000EB003091ED003D7F3093ED003091EB00AA
:1035700031603093EB007093EC002093ED0050939A
:10358000F0002091EE0027FDE5CF80E008958F70D8
:103590008093E90081E008958091190487FF11C0AC
:1035A0008091E80082FD05C0809118048111F8CF58
:1035B00011C08091E8008B770BC08091180488239C
:1035C00049F08091E80080FFF8CF8091E8008E7785
:1035D0008093E80008952091E4003091E50095E69D
:1035E0004091EC00842F817040FF23C08091E8005F
:1035F00080FD1DC080911804882399F0853099F0D2
:103600008091EB0085FD11C04091E4005091E500F0
:103610002417350729F3915011F09A01E1CF84E086
:10362000089582E0089583E0089581E0089580E0A0
:1036300008954091E80042FFDDCF0895CF92DF92D8
:10364000EF92FF920F931F93CF93DF93EC018B01C7
:103650007A010E94EB1A811135C0E114F10439F0AE
:10366000F70180819181081B190BC80FD91FC12C4C
:10367000D12C0115110529F18091E80085FD18C0B4
:103680008091E8008E778093E8000E94921EE114FA
:10369000F10449F0F70180819181C80ED91ED182D1
:1036A000C08285E00FC00E94EB1A882311F30AC084
:1036B00089918093F10001501109FFEFCF1ADF0AC1
:1036C000D8CF80E0DF91CF911F910F91FF90EF90C5
:1036D000DF90CF90089520911F0430912004261789
:1036E000370748F06115710539F42091E8002E770D
:1036F0002093E80001C0B901FC0120E061157105CB
:1037000061F1809118048823D9F18530D9F1809135
:10371000E80083FD39C08091E80082FD2BC08091D4
:10372000E80080FFEBCF8091F20090E06115710519
:1037300051F08830910538F421912093F1006150C7
:1037400071090196F3CF21E0089709F020E08091FC
:10375000E8008E778093E800D1CF2111D2CF0AC044
:1037600080911804882361F0853061F08091E80031
:1037700083FD0AC08091E80082FFF2CF80E00895C7
:1037800082E0089583E0089581E0089520911F0468
:10379000309120042617370748F06115710539F478
:1037A0002091E8002E772093E80001C0B901FC01C8
:1037B00020E06115710579F180911804882309F4DE
:1037C0003DC0853009F43CC08091E80083FD3AC0DB
:1037D0008091E80082FD2CC08091E80080FFE9CF55
:1037E0008091F20090E06115710559F088309105E3
:1037F00040F424912093F1003196615071090196B3
:10380000F2CF21E0089709F020E08091E8008E7760
:103810008093E800CECF2111CFCF0AC08091180449
:10382000882361F0853061F08091E80083FD0AC053
:103830008091E80082FFF2CF80E0089582E0089551
:1038400083E0089581E008951F93CF93DF93CDB770
:10385000DEB7AA970FB6F894DEBF0FBECDBFE9E181
:10386000F4E08091F100819324E0E132F207C9F79E
:103870000E9468188091E80083FF2EC1809119048E
:1038800090911A04492F50E04A30510508F024C1A4
:10389000FA01EB5DFE4F0C94E530803821F0823860
:1038A00009F01AC108C0809115049091160499235B
:1038B00089F082600FC080911D048F70853008F000
:1038C0000BC18093E9008091EB0085FB882780F98C
:1038D0001092E9009091E800977F9093E800809320
:1038E000F1001092F100D1C0282F2D7F09F0F4C013
:1038F000882319F0823061F0EFC080911B04813081
:1039000009F0EAC0933009F080E0809316042EC0DD
:1039100080911B0481112AC080911D048F702FEFAC
:10392000280F243008F0D8C08093E9002091EB00E4
:1039300020FF1CC0933021F48091EB00806214C002
:103940009091EB0090619093EB0021E030E0A901B1
:1039500002C0440F551F8A95E2F74093EA00109287
:10396000EA008091EB0088608093EB001092E90000
:103970008091E800877F8093E8000E94CC1AACC059
:103980008111AAC010911B041F778091E3008078F9
:10399000812B8093E3008091E800877F8093E8008B
:1039A0000E94CC1A8091E80080FFFCCF8091E30058
:1039B00080688093E300111102C082E001C083E0BF
:1039C0008093180489C08058823008F085C08091A7
:1039D0001B0490911C048C3D53E0950779F583E01E
:1039E0008A838AE289834FB7F894DE01139620E038
:1039F0003EE051E2E32FF0E050935700E49120FFC6
:103A000003C0E295EF703F5FEF708E2F90E0EA30D9
:103A100010F0C79601C0C0968D939D932F5F2431FF
:103A200049F74FBF8091E800877F8093E8006AE202
:103A300070E0CE0101960E946B1B16C060911D04C0
:103A400070911E04AE014F5F5F4F0E942B1ABC01A4
:103A5000892B09F441C09091E800977F9093E8008A
:103A600089819A810E94C61B8091E8008B778093A0
:103A7000E80032C0803881F58091E800877F80932C
:103A8000E800809114048093F1008091E8008E7723
:103A900072CF811121C080911B0490911C04992741
:103AA0000297D4F48091E800877F8093E8008091AA
:103AB0001B04809314040E94CC1A80911404811179
:103AC00006C08091E30087FD02C081E001C084E070
:103AD000809318040E9459188091E80083FF0AC05F
:103AE0008091E800877F8093E8008091EB008062FE
:103AF0008093EB00AA960FB6F894DEBF0FBECDBF41
:103B0000DF91CF911F9108950E94E11D0E94E41D55
:103B1000E0EEF0E0808181608083E8EDF0E080817C
:103B20008F77808319BCE3E6F0E080818160808339
:103B30001092170408950E94E11D0E94E41D8091D7
:103B4000D8008F778093D8008091D80080688093C8
:103B5000D8008091D8008F7D8093D80084E089BD03
:103B600086E089BD09B400FEFDCF109218041092C2
:103B70001404109216041092150442E060E080E0F4
:103B80000E94971A8091E1008E7F8093E1008091DE
:103B9000E20081608093E2008091E200886080937F
:103BA000E2008091E0008E7F8093E0000895E3E6DC
:103BB000F0E080818E7F808381E0809317040C94F5
:103BC0009B1D1092E20008951092E10008951F924B
:103BD0000F920FB60F9211242F933F934F935F9341
:103BE0006F937F938F939F93AF93BF93EF93FF93C5
:103BF0008091E10082FF0BC08091E20082FF07C04C
:103C00008091E1008B7F8093E1000E94911E809162
:103C1000E10080FF19C08091E20080FF15C0809113
:103C2000E2008E7F8093E2008091E20080618093C9
:103C3000E2008091D80080628093D80019BC85E0B2
:103C4000809318040E9450198091E10084FF30C0D5
:103C50008091E20084FF2CC084E089BD86E089BDAC
:103C600009B400FEFDCF8091D8008F7D8093D800ED
:103C70008091E1008F7E8093E1008091E2008F7E51
:103C80008093E2008091E20081608093E200809165
:103C90001404882311F084E007C08091E30087FDBD
:103CA00002C081E001C083E0809318040E9465197E
:103CB0008091E10083FF24C08091E20083FF20C057
:103CC0008091E100877F8093E10082E08093180477
:103CD000109214048091E1008E7F8093E100809126
:103CE000E2008E7F8093E2008091E2008061809309
:103CF000E20042E060E080E00E94971A0E945818BB
:103D0000FF91EF91BF91AF919F918F917F916F91B3
:103D10005F914F913F912F910F900FBE0F901F9089
:103D200018950895CF93809118048823A1F0C0912D
:103D3000E900CF709091EC00892F817090FD80E8B0
:103D4000C82B1092E9008091E80083FD0E94241C9A
:103D5000CF70C093E900CF910895909311038093A1
:103D600010030895E0911003F0911103309721F0B2
:103D70000190F081E02D099480E00895EF92FF9288
:103D80000F931F93CF93DF93E0911003F0911103F2
:103D90003097B1F18C010280F381E02D099580917B
:103DA000060482FF2DC080FF04C087E797E00E94D1
:103DB0009604E80110E281E7E82E87E0F82E809172
:103DC000060480FF0BC088811F928F93FF92EF92B1
:103DD0000E942F050F900F900F900F901150219679
:103DE0001111EDCF8091060480FF0AC08FE697E0A5
:103DF000DF91CF911F910F91FF90EF900C9496045B
:103E0000DF91CF911F910F91FF90EF900895E09176
:103E10001003F0911103309721F00480F581E02D1B
:103E200009940895CF93DF9320910E0330910F03EF
:103E30002817390709F190930F0380930E03E0913F
:103E40001003F09111033097B9F0EC010680F7816F
:103E5000E02D09958091060482FF0EC080FF0CC002
:103E6000DF93CF9381E697E09F938F930E942F0576
:103E70000F900F900F900F90DF91CF910895CF93F7
:103E8000DF9320910C0330910D032817390709F1B6
:103E900090930D0380930C03E0911003F0911103B4
:103EA0003097B9F0EC010084F185E02D09958091FF
:103EB000060482FF0EC080FF0CC0DF93CF9381E524
:103EC00097E09F938F930E942F050F900F900F9074
:103ED0000F90DF91CF9108950C942D200E945C2CBF
:103EE0000C945B0C8F929F92AF92BF92CF92DF9215
:103EF000EF92FF920F931F93CF93DF9300D000D0E8
:103F00001F92CDB7DEB70E94331603E113E0F12C08
:103F10008F2D0E94620C4C01F801A080B180A82670
:103F2000B926A114B10439F4F3940E5F1F4FF8E0E1
:103F3000FF12EECF39C08091060481FD0E9441201E
:103F4000E12CCC24C394D12CC5018C219D21892B3B
:103F500021F1E982FA8221E0C4018C219D21892B83
:103F600009F420E02B830E94652C8160782F9D83CB
:103F70008C8349815A816B818D810E947720498190
:103F80005A816B817C818D810E94FC2BF80180819C
:103F900091818C259D2591838083E394CC0CDD1C3D
:103FA000F0E1EF12D1CFC0CF8FEF89838A831B82DC
:103FB0000E94652C8160782F9D838C8349815A8172
:103FC0006B818D810E9477200E94FB2B0E94D52E51
:103FD0000E94B21E90911203891759F10E94B21EDD
:103FE000809312039091060492FF0EC090FF0CC0C4
:103FF0001F928F9382E897E09F938F930E942F05E3
:104000000F900F900F900F90809112030F900F90D0
:104010000F900F900F90DF91CF911F910F91FF9014
:10402000EF90DF90CF90BF90AF909F908F900C94C7
:104030000D2C0F900F900F900F900F90DF91CF915C
:104040001F910F91FF90EF90DF90CF90BF90AF90B6
:104050009F908F9008950C94990C0895CF93C62F3C
:104060000E94620C21E030E002C0220F331FCA958B
:10407000E2F72823392381E0232B09F480E0CF9154
:104080000895EF92FF920F931F93CF93DF9389E9E7
:1040900097E00E949604C0E0D0E080E2E82E81E044
:1040A000F82E0DE817E08C2F0E94620C0E94E72B7F
:1040B000FF92EF929F938F93DF93CF931F930F9372
:1040C0000E942F0521968DB79EB708960FB6F894DB
:1040D0009EBF0FBE8DBFC830D10529F7DF91CF91AC
:1040E0001F910F91FF90EF90089508950895CF9339
:1040F000DF93CDB7DEB72B970FB6F894DEBF0FBEB8
:10410000CDBF942F4F83252F588769877A878B8758
:104110004A855B85452B31F02F3F31F481E09F3F8D
:1041200019F403C081E001C080E080FD07C04F8129
:10413000588569857A858B850E94FC2BDE01119656
:1041400086E0FD0111928A95E9F785E0FE01379638
:1041500001900D928A95E1F749815A816B817C81AA
:104160008D819E810E94E1272B960FB6F894DEBFC9
:104170000FBECDBFDF91CF910895882309F4BBC056
:104180009CEF980F913A18F40E94CB2A0DC090E250
:10419000980F983058F4877091E001C0990F8A9574
:1041A000EAF7892F0E94702B0C94AA2B9BE5980F9D
:1041B000933070F4853A29F0863A31F083E890E044
:1041C00005C081E890E002C082E890E00C94121FE4
:1041D00098E5980F973108F08EC0883A09F445C0E9
:1041E000893A09F445C08A3A09F445C08B3A09F482
:1041F00045C08C3A09F445C08D3A09F445C08E3A61
:1042000009F445C08F3A09F445C0813B09F445C023
:10421000803B09F445C0823B09F445C0833B09F467
:1042200045C0843B09F445C0853B09F445C0863B45
:1042300009F445C0873B09F445C0883B09F445C0F3
:10424000893B09F445C08A3B09F445C08B3B09F41E
:1042500045C08C3B09F445C08D3B09F445C08E3BFD
:1042600009F445C080E090E044C082EE90E041C097
:1042700089EE90E03EC08AEE90E03BC085EB90E096
:1042800038C086EB90E035C083EB90E032C084EB21
:1042900090E02FC087EB90E02CC08CEC90E029C020
:1042A0008DEC90E026C083E891E023C08AE891E09D
:1042B00020C082E991E01DC084E991E01AC081E24A
:1042C00092E017C083E292E014C084E292E011C051
:1042D00085E292E00EC086E292E00BC087E292E0B7
:1042E00008C08AE292E005C08FE690E002C080E755
:1042F00090E00C943F1F0895882329F19CEF980FBC
:10430000913A18F40E941B2B0DC090E2980F983040
:1043100058F4877091E001C0990F8A95EAF7892FC8
:104320000E94762B0C94AA2B9BE5980F933020F4D7
:1043300080E090E00C94121F885A873120F480E0CE
:1043400090E00C943F1F0895882321F00E94702B69
:104350000C94AA2B0895882321F00E94762B0C94AC
:10436000AA2B08950E94902B0E945F2B0E94AA2BDB
:104370000E947B2F0E94482E80E090E00E94121F36
:1043800080E090E00C943F1F0E94802B0C94B2219F
:10439000CF92DF92EF92FF920F931F93CF93DF9311
:1043A00000D000D01F92CDB7DEB76C010E940F2C59
:1043B000811118C385E0F601DE01119601900D927E
:1043C0008A95E1F7F60140815181238134812115DD
:1043D000310531F05F3F31F481E04F3F19F403C004
:1043E00081E001C080E080FDFDC2F601F280E58041
:1043F000E2948FE0E82249835A83FB82722F3D8347
:104400002C836F2D8D810E94402A8C010E943F2AAF
:104410000E943929E12FE295EF708E2F90E0FC0188
:10442000E15DFE4F0C94E530812F807F1F70882363
:1044300011F01295107FFF20B9F0112329F0812F80
:104440000E94832B0E94AA2B802F0F900F900F9019
:104450000F900F90DF91CF911F910F91FF90EF90F0
:10446000DF90CF900C94BD20802F0E947C211123DF
:1044700009F4B8C2812F0E94892B0F900F900F90E2
:104480000F900F90DF91CF911F910F91FF90EF90C0
:10449000DF90CF900C94AA2B812F807F1F708032E9
:1044A00011F01295107F002319F0013009F12BC093
:1044B000FF20A9F0EE2059F1F1E0812FEF1228C082
:1044C0000F900F900F900F900F90DF91CF911F9151
:1044D0000F91FF90EF90DF90CF900C94932BEE20F4
:1044E00021F021E0E21609F47DC20E94962B4DC016
:1044F000FF20E9F085E08E1508F474C20E946D2B50
:10450000812329F042C0FF20F1F1E11015C0812F75
:104510000F900F900F900F900F90DF91CF911F9100
:104520000F91FF90EF90DF90CF900C94A42194E036
:104530009E1508F457C229C0F601858180FF13C07B
:104540008F708583E4CF003F09F489C108F055C11D
:1045500080E4800F803208F459C1FF2009F4EAC1D9
:10456000EE2009F49AC1802F0E94BD20093309F082
:10457000DAC1FFEF21EE84E0F15020408040E1F706
:1045800000C000002FC2E110D7C1812F59C1812F77
:1045900086958695837019F08130B9F023C2FF208B
:1045A00019F0C801937002C080E090E00F900F9066
:1045B0000F900F900F90DF91CF911F910F91FF906F
:1045C000EF90DF90CF900C94121FFF2019F0C801DC
:1045D000937002C080E090E00F900F900F900F90CA
:1045E0000F90DF91CF911F910F91FF90EF90DF908F
:1045F000CF900C943F1F802FFF2019F00E945B2D5D
:1046000002C00E94C32D0F900F900F900F900F903B
:10461000DF91CF911F910F91FF90EF90DF90CF909E
:104620000C94482E812F837009F070C0F110DAC10C
:10463000202F229526952770220F220F602F6F7052
:10464000862F90E0A0E0B0E06C017D01022E04C056
:10465000CC0CDD1CEE1CFF1C0A94D2F704FF12C028
:104660008FE090E0A0E0B0E004C0880F991FAA1F7F
:10467000BB1F2A95D2F7BC01CD016095709580953E
:10468000909503C060E070E0CB011695169513700D
:104690001230B1F040F56C297D298E299F29113007
:1046A00031F10F900F900F900F900F90DF91CF91FD
:1046B0001F910F91FF90EF90DF90CF900C945429B1
:1046C0006C297D298E299F290F900F900F900F90B4
:1046D0000F90DF91CF911F910F91FF90EF90DF909E
:1046E000CF900C946E290E945429C701B6010F90F7
:1046F0000F900F900F900F90DF91CF911F910F911E
:10470000FF90EF90DF90CF900C943A29FF2019F0A2
:10471000812F817001C08695882309F463C1202F01
:10472000229526952770220F220F602F6F70862FFB
:1047300090E0A0E0B0E06C017D01022E04C0CC0C42
:10474000DD1CEE1CFF1C0A94D2F704FF12C08FE0A0
:1047500090E0A0E0B0E004C0880F991FAA1FBB1F23
:104760002A95D2F7BC01CD01609570958095909502
:1047700003C060E070E0CB011695169513701230FF
:10478000B1F040F56C297D298E299F29113031F136
:104790000F900F900F900F900F90DF91CF911F917E
:1047A0000F91FF90EF90DF90CF900C941B2A6C2913
:1047B0007D298E299F290F900F900F900F900F90B9
:1047C000DF91CF911F910F91FF90EF90DF90CF90ED
:1047D0000C942D2A0E941B2AC701B6010F900F903E
:1047E0000F900F900F90DF91CF911F910F91FF903D
:1047F000EF90DF90CF900C94092A023F09F45EC03D
:1048000008F449C0033F09F46CC0A7CE902F907103
:10481000E92E812F8F71FF2051F00E94A229802F55
:10482000EE2019F08295807F73CE8F7071CE0E943A
:10483000C329802FEE2019F08295807F01C08F70F0
:104840000F900F900F900F900F90DF91CF911F91CD
:104850000F91FF90EF90DF90CF900C94AB21FF2051
:10486000A9F0E4E0EE1508F4BDC0812F8F710F9020
:104870000F900F900F900F90DF91CF911F910F919C
:10488000FF90EF90DF90CF900C94E829F5E0FE15B3
:1048900008F4A8C0EACFFF2099F0812F8F710F9004
:1048A0000F900F900F900F90DF91CF911F910F916C
:1048B000FF90EF90DF90CF900C94A229FF2069F336
:1048C000812F8F710F900F900F900F900F90DF91AD
:1048D000CF911F910F91FF90EF90DF90CF900C94AC
:1048E000C329FF2089F0812F8F710F900F900F90B7
:1048F0000F900F90DF91CF911F910F91FF90EF904C
:10490000DF90CF900C948D290F900F900F900F9007
:104910000F90DF91CF911F910F91FF90EF90DF905B
:10492000CF900C948829033509F423CE073409F07D
:1049300059C01FCEEE2021F2802F0F900F900F90C4
:104940000F900F90DF91CF911F910F91FF90EF90FB
:10495000DF90CF900C947C21412F4F70602FC601C7
:104960000E94D12C0F900F900F900F900F90DF911D
:10497000CF911F910F91FF90EF90DF90CF900C940B
:10498000942801112FC0FF2069F10E94C4212FEF4C
:1049900080E792E0215080409040E1F700C00000A5
:1049A0000F900F900F900F900F90DF91CF911F916C
:1049B0000F91FF90EF90DF90CF900C94B22C412F8D
:1049C0004F70602FC6010F900F900F900F900F90B7
:1049D000DF91CF911F910F91FF90EF90DF90CF90DB
:1049E0000C94D42C0F900F900F900F900F90DF919C
:1049F000CF911F910F91FF90EF90DF90CF9008958E
:104A00001F93CF93DF9300D000D01F92CDB7DEB7B6
:104A1000942F4983252F5A836B837C838D834C810C
:104A20005D81452B31F02F3F31F481E09F3F19F438
:104A300003C081E001C080E0182F117080FD24C008
:104A400049815A816B817C818D810E94402A292F66
:104A500022952F702C3030F42A3048F42250223026
:104A600068F013C02C3061F02F3051F00EC0803C44
:104A700028F0803E50F0815F833038F011E005C0AF
:104A800093FB112710F901C010E0812F0F900F90B8
:104A90000F900F900F90DF91CF911F910895CF93BA
:104AA000DF9300D000D01F92CDB7DEB70F900F90EC
:104AB0000F900F900F90DF91CF910895CF93DF93D8
:104AC00000D000D000D0CDB7DEB726960FB6F89450
:104AD000DEBF0FBECDBFDF91CF910895CF93DF939F
:104AE000C091230380912403C817A1F0D0E0CE0128
:104AF00066E070E00E94C030FC01EB5DFC4F40813D
:104B0000518162817381848195810E945E25219605
:104B1000C770E8CFDF91CF91089540915503509130
:104B200056036091570370915803809159039091F7
:104B30005A030C945E251F93CF93DF9380915A0301
:104B400082958F7009F05CC080915703882309F427
:104B500057C02091230310912403C0915503D09195
:104B60005603A0915803B091590381E0CF3F09F05B
:104B700080E0482F211709F443C0109721F0DF3F50
:104B800021F080E003C081E001C0842F30E080FD8F
:104B900033C0C90166E070E00E94C030FC01EB5DEB
:104BA000FC4F81818D1328C080818C1325C08281A8
:104BB000811122C0838194818A1B9B0B883C9105C3
:104BC000D8F480915A038F70806180935A03C90191
:104BD00066E070E00E94C030FC01E65DFC4F908111
:104BE0009F709061908385E593E00E94C821DF91DA
:104BF000CF911F910C946E252F5F3F4F2770BACF36
:104C0000DF91CF911F9108959F92AF92BF92CF9263
:104C1000DF92EF92FF920F931F93CF93DF93CDB765
:104C2000DEB761970FB6F894DEBF0FBECDBF8C0123
:104C300085E0F801DE011D9601900D928A95E1F75D
:104C4000F80140812181F280C380D4809091550386
:104C500030915603609158037091590361157105A5
:104C600031F03F3F31F481E09F3F19F403C081E010
:104C700001C080E0F82FF1709F2E80FD59C185E5BD
:104C8000A82E83E0B82EE0905703F601E61BF70B41
:104C9000EE2009F4EDC080915A03582F507FE83C74
:104CA000F10508F0A7C0511156C0231313C04913D2
:104CB00011C0EF2CF1100EC08F70806180935A03E9
:104CC0000E948D25C5010E94C82180915A03F801D8
:104CD000858364C1C114D10431F02F3F31F481E0E8
:104CE0004F3F19F403C081E001C080E080FD03C0A4
:104CF00081E08F2502C080E090E0F82FF170EF2E68
:104D000080FF1FC0E091230330912403E31709F4CF
:104D100021C1F0E0CF0166E070E00E94C030DC010C
:104D2000AB5DBC4F11968C911197281307C08C91E5
:104D3000481304C012968C91F81203C03196E770A4
:104D4000E5CFEF2CFF2009F429C180915A0381603F
:104D500080935A0364C0231306C0491304C0F110A2
:104D600002C0F801A9C04D872E87FF867C2DD98A05
:104D7000C88A522F6F2D89890E9400258823A1F1AE
:104D8000FF2091F120915A03822F82958F7090E03D
:104D9000029774F0809155039091560398878F8302
:104DA0001986DB86CA862C87CE0107960E94C82109
:104DB00086E0F801A5E5B3E001900D928A95E1F750
:104DC0000E949B250E948D2512C0231751F14D870B
:104DD0002E87FF867C2DD98AC88A522F6F2D89890C
:104DE0000E94002581112CC0C8010E94C821EE2418
:104DF000E394D4C05111E9CF7C2DD98AC88A522FAF
:104E00006F2D89890E944F2585E593E00E94C82176
:104E100086E0F50111928A95E9F70E948D25E12C33
:104E2000BDC04913D4CFF110D2CFF8018583C8019A
:104E30000E94C82186E0F50111928A95E9F7AEC07B
:104E4000FF2091F220915A03822F82958F7090E07B
:104E500002970CF4ADCF80915503909156039A833D
:104E600089831B82DD82CC822E83CE0101969ECF68
:104E7000E83CF10508F04CC0EF2CFF2009F4B4CF5A
:104E8000231330C049132EC020915A0320FD21C0A6
:104E9000822F82958F70482F50E041155105C9F03F
:104EA000F80125834F30510541F08F5F982F92957F
:104EB000907F822F8F70892B8583C8010E94C82123
:104EC00086E0F801A5E5B3E001900D928A95E1F73F
:104ED0002CC086E0F801A5E5B3E001900D928A951B
:104EE000E1F75CC04D872E87FF867C2DD98AC88A62
:104EF000522F6F2D89890E940025811159CF8091F1
:104F00005A03816080935A03C8010E94C82146C099
:104F10007C2DD98AC88A522F6F2D89890E944F25EE
:104F200086E0F50111928A95E9F70E948D2536C039
:104F3000FF2009F459CF4D872E87FF867C2DD98A13
:104F4000C88A522F6F2D89890E940025882309F471
:104F50004BCF2ECF7C2DD98AC88A522F6F2D8989AD
:104F60000E94402A292F22952F70223028F49F700A
:104F700039F0811105C00BC0243028F49F7049F42A
:104F8000805E883020F0C8010E94C8219E2CE92C48
:104F900005C0F8019581907F99F7F9CF8E2D619624
:104FA0000FB6F894DEBF0FBECDBFDF91CF911F913A
:104FB0000F91FF90EF90DF90CF90BF90AF909F90B8
:104FC0000895CF93DF93CDB7DEB72C970FB6F89443
:104FD000DEBF0FBECDBF4F83588769877A878B8727
:104FE0009C87CE0107960E9404268823D1F09F81DA
:104FF00088852A853B85232B31F08F3F31F481E072
:105000009F3F19F403C081E001C080E080FD6FC0C4
:105010004F81588569857A858B859C850E945E25A0
:1050200066C086E0FE013796DE01119601900D9272
:105030008A95E1F7FF81E8856A857B8561157105B1
:1050400031F0EF3F31F481E0FF3F19F403C081E01C
:1050500001C080E080FD4BC08091240390E09C0162
:105060002F5F3F4F277033274091230350E02417D1
:10507000350709F443C0F983EA837D836C8366E0D6
:1050800070E00E94C030DC01AB5DBC4F96E0FE01D9
:10509000319601900D929A95E1F7209324030E9496
:1050A0006E2525C090E066E070E00E94C0308B5D08
:1050B0009C4F0E940426882371F18091230390E085
:1050C00066E070E00E94C030FC01EB5DFC4F408167
:1050D000518162817381848195810E945E258091D6
:1050E000230390E001968770992780932303809192
:1050F0002303909124038913D5CF0DC00E94C421AE
:105100001092240310922303E5E5F3E086E0DF012B
:105110001D928A95E9F72C960FB6F894DEBF0FBE64
:10512000CDBFDF91CF910895DF92EF92FF920F9361
:105130001F93CF93DF93FC01892B09F488C0E12CE6
:10514000F12CDD24D394EF0121968491853709F465
:1051500060C058F4843708F04EC0843008F068C04E
:105160008130D1F0823071F172C0883709F45BC0B0
:1051700050F4863709F453C0873709F068C08E2D84
:105180000E947D2B52C09CE7980F903708F05FC0BB
:105190008F770E947C214EC08F010E5F1F4FFE0152
:1051A000849190E2980F983050F48770FD2D01C0E3
:1051B000FF0F8A95EAF78F2F0E94832B15C00E945C
:1051C000BD2014C08F010E5F1F4FFE01849190E23D
:1051D000980F983068F48770FD2D01C0FF0F8A95F5
:1051E000EAF78F2F0E94892B0E94AA2BE80122C088
:1051F0000E947C21FBCFCF010296FE01C491CC23FB
:1052000061F0EFE9FFE03197F1F700C00000C15015
:10521000F6CFCF010296FE01F490EC010BC00E9484
:105220006D2BE82E07C00E94802B0E94AA2B02C083
:105230000E94BD208F2D882341F0EFE9FFE03197D8
:10524000F1F700C000008150F6CFFE017CCFDF9166
:10525000CF911F910F91FF90EF90DF900895609391
:10526000DB037093DC038093DD039093DE030C94E7
:105270000C2C08950F931F930091DF031091E0030E
:105280002091E1033091E203602B712B822B932B51
:105290006093DF037093E0038093E1039093E20354
:1052A0001F910F910C940B2C0F931F930091DF0310
:1052B0001091E0032091E1033091E2036023712318
:1052C000822393236093DF037093E0038093E103D1
:1052D0009093E2031F910F910C940B2C0F931F934B
:1052E0000091DF031091E0032091E1033091E2038C
:1052F00060277127822793276093DF037093E00371
:105300008093E1039093E2031F910F910C940B2C77
:1053100060E070E0CB010C942F290F931F9341E0C4
:1053200050E060E070E08A019B0104C0000F111F93
:10533000221F331F8A95D2F7C901B8011F910F911F
:105340000C942F290F931F9341E050E060E070E030
:1053500004C0440F551F661F771F8A95D2F78091AE
:10536000DB039091DC03A091DD03B091DE038A01A1
:105370009B01082B192B2A2B3B2BC901B8011F912C
:105380000F910C942F290F931F9341E050E060E0A0
:1053900070E004C0440F551F661F771F8A95D2F72F
:1053A00040955095609570958091DB039091DC035A
:1053B000A091DD03B091DE038A019B01082319232C
:1053C0002A233B23C901B8011F910F910C942F2967
:1053D0000F931F9341E050E060E070E004C0440F81
:1053E000551F661F771F8A95D2F78091DB03909136
:1053F000DC03A091DD03B091DE038A019B01082745
:1054000019272A273B27C901B8011F910F910C9436
:105410002F290F931F930091DB031091DC03209140
:10542000DD033091DE03602B712B822B932B1F91B8
:105430000F910C942F290F931F930091DB03109170
:10544000DC032091DD033091DE036023712382238E
:1054500093231F910F910C942F290F931F93009169
:10546000DB031091DC032091DD033091DE03602724
:105470007127822793271F910F910C942F2908954C
:105480008F929F92AF92BF92DF92EF92FF920F9313
:105490001F93CF93DF9300D000D01F92CDB7DEB71C
:1054A0006B837C838D838A018C819D81892B31F074
:1054B0001F3F31F481E04F3F19F403C081E001C088
:1054C00080E080FF03C080E090E054C08B8188239F
:1054D00009F43DC08090DB039090DC03A090DD03D5
:1054E000B090DE038091DF039091E003A091E1038F
:1054F000B091E203882A992AAA2ABB2A2FE1E22E38
:10550000F12CD501C4010E2C04C0B695A795979532
:1055100087950A94D2F780FD06C081E0E81AF10869
:1055200080F7D12C07C0DE2CB8018E2D0E946D0CA7
:10553000019799F3E12FF0E094E0EE0FFF1F9A95A9
:10554000E1F7E55AFC4FE00FF11DD0820CC0E12FCE
:10555000F0E084E0EE0FFF1F8A95E1F7E55AFC4F7B
:10556000E00FF11DD08009831A8369817A818D2D26
:105570000E946D0C0F900F900F900F900F90DF9185
:10558000CF911F910F91FF90EF90DF90BF90AF9060
:105590009F908F90089590911101992379F19091A6
:1055A0001201992359F1982F9695969596959F31CA
:1055B000A1F0E0911301F0911401E90FF11D877042
:1055C00021E030E0A90102C0440F551F8A95E2F79F
:1055D000CA019181892B818308959091060490FFDF
:1055E00029C01F928F938CEC97E09F938F930E941A
:1055F0002F050F900F900F900F9008952091130199
:1056000030911401F90132969FEF40E051918517D6
:1056100089F09F3F19F4511101C0942F4F5F4E3113
:10562000A9F79F3F39F0F901E90FF11D97FDFA95B0
:1056300082830895089590911101992381F19091A9
:105640001201992361F1982F9695969596959F3121
:10565000A9F0E0911301F0911401E90FF11D877099
:1056600021E030E0A90102C0440F551F8A95E2F7FE
:10567000CA018095918189238183089590910604C0
:1056800090FF1CC01F928F938EEA97E09F938F9399
:105690000E942F050F900F900F900F900895E091AA
:1056A0001301F09114019F01225E3F4F92818913F3
:1056B00001C012823196E217F307C1F7089581E025
:1056C00090E0E0911301F0911401E80FF91F1082AE
:1056D000019680329105A9F70895809105040895F7
:1056E00090910504892B80930504089580959091ED
:1056F0000504892380930504089580930504089583
:1057000010920504089590910404892B8093040459
:10571000089580959091040489238093040408954A
:105720001092040408958093E30308951092E30314
:1057300008958091130190911401FC0131969C0110
:10574000205E3F4F80E0919191118F5FE217F30748
:10575000D1F70895E0911301F091140180910504AF
:105760008083E0911301F0911401908180910404F1
:10577000892B80838091E303882361F0E0911301FA
:10578000F09114019081892B80830E94992B8111C3
:105790001092E30380911301909114010C94BE1EAA
:1057A00090937F0180937E0108958295982F937343
:1057B000292F220F220F982F9C7C96959695922B3D
:1057C000892F8575880F9A7A9695892B0895CF939E
:1057D000DF93D92F0E94D52BC82F8D2F0E94D52B58
:1057E0002C2F30E0322F2227A901482BCA01DF914C
:1057F000CF91089508950895CF93DF9300D000D0FE
:105800001F92CDB7DEB70F900F900F900F900F90B3
:10581000DF91CF910895089508950C942B2080E096
:10582000089583B7817F8C6083BF83B7816083BF16
:105830007894889583B78E7F83BF0895CF930E9415
:1058400075200E9433160E947620C0E08C2F0E94A3
:10585000620C892B29F4CF5FC830C1F780E001C00A
:1058600081E0CF9108950E946B0C0C94C4211F928B
:105870000F920FB60F9211248F939F93AF93BF9304
:105880008091070490910804A0910904B0910A0442
:105890004196A11DB11D8093070490930804A09325
:1058A0000904B0930A04BF91AF919F918F910F901B
:1058B0000FBE0F901F90189582E084BD93E095BDB8
:1058C0009AEF97BD80936E0008952FB7F89480915A
:1058D000070490910804A0910904B0910A042FBF15
:1058E00008952FB7F894609107047091080480918F
:1058F000090490910A042FBF08959C014FB7F894B2
:105900008091070490910804A0910904B0910A04C1
:105910004FBF821B930B089578941F920F920FB67E
:105920000F9211248F939F93AF93BF93809107049D
:1059300090910804A0910904B0910A040196A11D58
:10594000B11D8093070490930804A0930904B093B9
:105950000A04BF91AF919F918F910F900FBE0F904E
:105960001F9018950E94841DF89487E797E79093FD
:1059700001088093000887E090EBDC01809321040C
:1059800090932204A0932304B09324049CE088E124
:105990000FB6F894A895809360000FBE90936000B6
:1059A000FFCF80E090E00895089580910D0480FF7E
:1059B0000CC08091180190E065E070E00E94C0305A
:1059C00095958795959587952EC081FF0AC0809102
:1059D000180190E065E070E00E94C03095958795D1
:1059E00022C082FF08C08091180190E065E070E05D
:1059F0000E94C03018C020910E042223D9F03091AB
:105A00001701231780F78091180190E065E070E09E
:105A10000E94C030622F70E00E94C030632F70E09F
:105A20000E94D130CB018038910538F4009739F4C9
:105A300081E005C085E090E008958FE7089508951E
:105A400080910D0480FF08C06091160170E075958B
:105A500067957595679523C081FF06C06091160113
:105A600070E0759567951BC082FF04C060911601B8
:105A700070E012C060910E046623A9F02091150118
:105A80006217A0F78091160170E090E00E94C0308C
:105A9000622F70E00E94D1306038710540F46115CA
:105AA000710519F406C061E070E0862F08958FE754
:105AB000089581E00895803F21F40E94D52C8195BE
:105AC00004C0813F29F40E94D52C809311040895CD
:105AD000823F21F40E94D52C819504C0833F29F494
