:100000000C9453050C94B4050C9455080C94B40549
:100010000C94B4050C94B4050C94B4050C94B4057C
:100020000C94B4050C94B4050C9433150C94B405DD
:100030000C94FC220C94B4050C94B4050C94B405F7
:100040000C94B4050C94B4050C94B4050C94B4054C
:100050000C94B4050C946C230C94B4050C94B40566
:100060000C94B4050C94B4050C94B4050C94B4052C
:100070000C94B4050C94B4050C94B4050C94B4051C
:100080000C94B4050C94B4050C94B4050C94B4050C
:100090000C94B4050C94B4050C94B4050C94B405FC
:1000A0000C94B4050C94B4050C94B405D409D60989
:1000B000E209E209E209E209E209E209D809DA09FA
:1000C000DC09E209E209D609E409E209E2099E092C
:1000D000D409E209E209DA09E209E209E209E209DE
:1000E000E209E209DC09D409C009E209C409E2090C
:1000F000E209E209A009D809E209E209CE09E20908
:10010000E209E209A209E009E209C209E209D60905
:10011000E209E209D209C609E209C809DA09E209D5
:10012000E209E209D009CA09E209E209E209E209A1
:10013000E209E209E209CC09E209A409E209E209BB
:10014000D809E209E209E009E209E209E209E20963
:10015000E209E209E209E209E209A609E209E20983
:10016000E209CE09E209E209E209E209E209E2094B
:10017000E209E209E209E209A809E209AA09AC09CF
:10018000E209E209E209AE09B009B209E209B409DB
:10019000B609E209E209E209DE09B809E209BC0987
:1001A000BA09BE09E209E209E209E209E009080A1E
:1001B000160A220A220AFA09220A220A220A220A14
:1001C000220A220A220A220A220A220A220A220ACF
:1001D000220AFC09220AFE09220A220A220A220A0B
:1001E0001A0A220A310A180A220A220A220A220AB2
:1001F000220A220A220A220A220A220A220A220A9F
:10020000220AF2090E0A000A120A220A020A220A25
:10021000060A220A100A040A140A0A0A0C0A220A06
:10022000220A220A220A220A220A220AF409F609CA
:10023000F8091C0A1E0A220A220A220A200AAF0A08
:10024000C50AD30AE10A010B180B3B0B580BE00B54
:100250000D0CA40CFF0CE50C140D290D330D3A0DFB
:100260003E0D450D8113A813A014A813A014F41378
:100270001714A0146E147D14F818F81822192219F6
:100280007D19A81BA81BA81BB119A81B9C1A9C1A96
:10029000621BA81B771B951B807B01484746293AA8
:1002A000687F0277762B353B6978796439141E3C78
:1002B0006A7A1D16041A1F3D6B061B070821203E93
:1002C0006C2C19091715223F6D11050B0A1C2340D0
:1002D0006E7E100D182425416F360E0C1227264213
:1002E0007037380F33132D43717534322F2E44720B
:1002F0007C7D283031744573515065524C4D2A49EC
:1003000000594F5C5F4E4A4B62635A5D5E605354C6
:1003100067585B66576155564842403E3C3A3B45FC
:100320006843413F3D2B357E697A790078141E7C05
:100330006A7B1D16041A1F7F6B061B070821204DC0
:100340006C2C19091715224A6D11050B0A1C234C38
:100350006E49100D182425516F360E0C1227264FAA
:100360007037380F33132D52717534502F2E4E7253
:10037000397D283065314B735464586776012A778C
:100380003259745C5F66024662635A5D5E6029534F
:1003900044575B565561470380291E1F20212223A5
:1003A000242526272D2E2A2B141A0815171C180C65
:1003B00012132F302878041607090A0B0D0E0F337D
:1003C000343579311D1B06190511103637387D5526
:1003D0007A2C393A3B3C3D3E3F4041424353475FD4
:1003E0006061565C5D5E57595A5B626346483244B1
:1003F00045677B7F650301025250514F68696A6B04
:100400006C6D6E6F7071725800494C754A4D734B2C
:100410004E767C777E7466547225303258200062A6
:10042000253034582000772530325820002143539E
:10043000335F4630210A00214353335F46305F4526
:100440005252210A00214353335F46305F4F5652C8
:10045000210A00214353335F5245414459210A0088
:10046000214353335F455252210A00214353335FE6
:100470004F5652210A00214353325F45305F4630C8
:10048000210A00214353325F4630210A00214353A1
:10049000325F4530210A00214353325F494E4954AF
:1004A000210A00214353325F455252210A00214361
:1004B00053325F4F5652210A00214353315F45307A
:1004C0005F25303258210A00214353315F45525293
:1004D000210A00214353315F494E56210A004C2521
:1004E000752000532575200049443A25303458289A
:1004F0002564290A004D6F7573653A206E6F74206C
:10050000737570706F727465640A000A4552523ACE
:10051000253032580A0052257520005725752000D5
:10052000572575200057257520005825752000494E
:1005300025752000696E69740A000A4552523A25F1
:100540003032580A000A4B6579626F617264207319
:10055000746172742E0A000A55534220636F6E66EE
:100560006967757265642E0A000A0A544D4B3A6633
:10057000396662393737302F4C5546410A0A003404
:1005800003490042004D0020005000430020006B52
:10059000006500790062006F006100720064002055
:1005A0000063006F006E00760065007200740065E5
:1005B00000720000000E0374002E006D002E006B10
:1005C000002E000000040309040902740004010065
:1005D000A0320904000001030101000921110100FA
:1005E000012240000705810308000A0904010001F7
:1005F00003000000092111010001223600070582D5
:100600000308000A09040200020300000009211186
:1006100001000122220007058303200001070503D2
:100620000320000109040300010300000009211157
:100630000100012239000705840320000112011086
:100640000100000008EDFEEE1B01000102000105A3
:10065000010906A101050719E029E7150025019503
:100660000875018102050819012905950575019193
:10067000029501750391010507190029F715002559
:100680000195F875018102C00631FF0974A10109C5
:1006900075150026FF009520750881020976150062
:1006A00026FF00952075089102C005010980A1016F
:1006B00085021601002637001A81002AB70075103E
:1006C00095018100C0050C0901A1018503160100F7
:1006D000269C021A01002A9C02751095018100C017
:1006E00005010906A101050719E029E71500250103
:1006F00095087501810295017508810105081901A8
:10070000290595057501910295017503910105076C
:10071000190029FF150026FF00950675088100C005
:10072000636F6E73756D65723A20253034580A0018
:1007300073797374656D3A20253034580A000A00C5
:100740002530325820006B6579626F6172643A20FF
:10075000004C45443A20253032580A0025303258A2
:100760003A202530386225730A00722F6320303119
:100770003233343536370A0064656C5F6B65795FF8
:100780006269743A2063616E27742064656C3A2054
:10079000253032580A006164645F6B65795F626975
:1007A000743A2063616E2774206164643A202530B6
:1007B00032580A003F00433E20004C25640A000ADC
:1007C000092D20436F6E736F6C65202D0A455343CE
:1007D0002F713A09717569740A000A092D204D615B
:1007E000676963202D0A643A0964656275670A784F
:1007F0003A096465627567206D61747269780A6B85
:100800003A096465627567206B6579626F6172642D
:100810000A6D3A096465627567206D6F7573650AC4
:10082000763A0976657273696F6E0A733A09737462
:10083000617475730A633A09636F6E736F6C652038
:100840006D6F64650A302D343A096C6179657230D8
:100850002D34284631302D4634290A506175733ABB
:1008600009626F6F746C6F616465720A6E3A094E4B
:100870004B524F0A003F004E4B524F3A206F666674
:100880000A004E4B524F3A206F6E0A0074696D6534
:10089000725F72656164333228293A202530346CE6
:1008A000580A006B6579626F6172645F6E6B726F7C
:1008B0003A2025580A006B6579626F6172645F693E
:1008C000646C653A2025580A006B6579626F617225
:1008D000645F70726F746F636F6C3A2025580A0002
:1008E000686F73745F6B6579626F6172645F6C656A
:1008F000647328293A2025580A000A092D205374C8
:1009000061747573202D0A004743433A20352E3415
:100910002E30204156522D4C4942433A20322E303F
:100920002E30204156525F415243483A2061767240
:10093000350A004F5054494F4E533A204C554641CA
:100940002045585452414B455920434F4E534F4C2C
:100950004520434F4D4D414E44204E4B524F204B6E
:1009600045594D41505F53454354494F4E20424FE6
:100970004F544C4F414445525F53495A450A004237
:1009800055494C443A206639666239373730202859
:1009900031343A33303A3039204D617220203220E0
:1009A00032303230290A005649443A2030784645E0
:1009B000454428742E6D2E6B2E29205049443A2030
:1009C0003078316265652849424D205043206B657F
:1009D00079626F61726420636F6E7665727465729E
:1009E00029205645523A203078303030310A0044C0
:1009F0004553433A20636F6E766572742049424DC9
:100A0000205043206B6579626F61726420746F209F
:100A10005553420A000A092D2056657273696F6E9C
:100A2000202D0A000A6D6F7573653A206F66660A9D
:100A3000000A6D6F7573653A206F6E0A000A6B6568
:100A400079626F6172643A206F66660A000A6B65AC
:100A500079626F6172643A206F6E0A000A6D617488
:100A60007269783A206F66660A000A6D617472696D
:100A7000783A206F6E0A000A64656275673A206FE3
:100A80006E0A000A64656275673A206F66660A003E
:100A90000A0A626F6F746C6F616465722E2E2E206D
:100AA00000433E20000011241FBECFEFDAE0DEBF7E
:100AB000CDBF04B603FE41C08091850390918603AB
:100AC000A0918703B09188038730904BA740B04B2B
:100AD000A1F510928503109286031092870310925D
:100AE000880314BE0FB6F894A895809160008861C1
:100AF00080936000109260000FBE10920108109267
:100B00000008E3E0F0E089E080935700E491E69587
:100B1000E370E150E33040F4F0E0EE0FFF1FE35DDF
:100B2000FE4F8081918102C080E090E1E0E0F0E83A
:100B3000E81BF90BF695E795099511E0A0E0B1E007
:100B4000E0EEFAE402C005900D92A433B107D9F7A4
:100B500023E0A4E3B1E001C01D92A538B207E1F79C
:100B60000E9491100C946E250C940000FF93EF935B
:100B7000E0913401F0913501309709F00995EF913A
:100B8000FF910895FC018591803011F0EFDFFBCFDC
:100B90000895FF27E0E230E247FF0CC0419597FF40
:100BA00009C0EDE26095709580959095611D711D6D
:100BB000811D911D27FF02C0219530E350E2AA2735
:100BC000660F771F881F991FAA1FA41710F0A41B78
:100BD00063955A95A9F7AA3008F0A95FA05DAF9375
:100BE000F395611571058105910541F7ED3211F419
:100BF000EF93F395F21718F43F93F395FBCF8F9192
:100C0000B5DFFA95E1F70895E991F9918591803082
:100C100021F0853219F0AADFF9CF089520E0E89499
:100C200055915532C1F3503311F4689455915A33AC
:100C300048F4505390F3220F022E220F220F200D62
:100C4000250FF4CF0EF4219589919991533619F31C
:100C5000533729F1533559F1BC0188279927E89476
:100C60005C3621F48991999168945591543639F400
:100C700046EF7EF077FF0DC08FEF9FEF0AC055372C
:100C80004AE039F0583540E121F0523642E009F0AF
:100C90000895FF93EF937DDFEF91FF91B7CFFF931F
:100CA000EF93FC0181918030B9F360DFFBCFFF93BC
:100CB000EF9368DFF1CFDF93CF93CDB7DEB7259603
:100CC000A3DFCF91DF910895282F80913F018230DB
:100CD00071F08330B1F0813001F5E62FF0E038E0BB
:100CE000739FE00DF11D1124E856FC4F13C0E62F51
:100CF000F0E088E0789FE00DF11D1124E85EFC4FE4
:100D000009C0E62FF0E038E0739FE00DF11D1124DB
:100D1000E856FD4FE491E03819F480E090E0089542
:100D20009E2F9077892F90E034E0959587953A959E
:100D3000E1F738E0239F800D911D112444E0880FD6
:100D4000991F4A95E1F7EF709C012E0F311DF901B3
:100D5000EE0FFF1FE050F84985919491089559983E
:100D6000519A08955198599A08955898509A08950B
:100D70005098589A08955198599A85E08A95F1F7B4
:100D8000000089B18695817008955098589A85E041
:100D90008A95F1F7000089B181700895CF93DF93B0
:100DA000EC010E94BB06882341F0209731F085E0DA
:100DB0008A95F1F700002197F4CFCE01DF91CF9112
:100DC0000895CF93DF93C2E3D0E00E94BB06811168
:100DD00008C0209731F085E08A95F1F7000021974F
:100DE000F4CFCE01DF91CF9108952E9826982F98B9
:100DF00027980E94AF060E94B806E9E6F0E08081DD
:100E000088608083E9980895E19AE99A0E94B20681
:100E10000C94B806E9980E94AF060C94B806CF93DC
:100E20002FB7F8948091020190910301AC014427FF
:100E300041155F4F21F0C92FAC015F6F07C08F3F95
:100E40004FEF940741F0C82F4FEF5FEF509303012E
:100E50004093020101C0CFEF2FBF9C012F6F2F3FA6
:100E60003F4F81F02091720320FF1FC09F938F930B
:100E70008FE194E09F938F930E945B060F900F90F9
:100E80000F900F90CF3F99F08091720380FF12C0B6
:100E90001F92CF9388E194E09F938F930E945B060B
:100EA0000F900F900F900F9005C0CF3F19F48FEF68
:100EB0009FEF02C08C2F90E0CF910895CF93CAE1AD
:100EC000C15069F00E940F078F3F2FEF920749F43E
:100ED0008FE99FE00197F1F700C00000F1CF8FEF9D
:100EE0009FEFCF91089580E090E890930101809367
:100EF00000018FEF9FEF909303018093020108950B
:100F0000EF92FF920F931F93CF93DF93082F1092CE
:100F100037018091720380FF0CC01F920F9386E20D
:100F200094E09F938F930E945B060F900F900F9019
:100F30000F90E9980E94AF060E94B8068FE891E0F2
:100F40000197F1F700C000000E94B5060E94B206AA
:100F500080E197E20E94CE06892B11F481E079C0EE
:100F6000C0E0D0E0FF24F39410E0EE24E39490E599
:100F70009A95F1F7C8010C2E02C0959587950A94B1
:100F8000E2F780FF04C0FE240E94B80602C00E945F
:100F9000B5060E94E106892B11F482E05AC082E373
:100FA00090E00E94CE06892B11F483E052C0219676
:100FB000C830D105E1F680E58A95F1F7FF2019F0F8
:100FC0000E94B80602C00E94B5060E94E106892B65
:100FD00011F484E03EC082E390E00E94CE06892BAB
:100FE00011F485E036C090E59A95F1F70E94B806B5
:100FF000C2E3D0E00E94C506882341F0209741F06B
:1010000025E02A95F1F700002197F4CFCD2B11F4BC
:1010100086E01FC082E390E00E94CE06892B11F487
:1010200087E017C00E94E106892B19F0C2E3D0E0E7
:1010300009C088E00EC0209759F085E08A95F1F745
:10104000000021970E94C5068823A9F3CD2BB9F48F
:1010500089E0809337018091370180618093370167
:101060000E94B2060E94B806E19AE99A8FEF9FEFBC
:10107000DF91CF911F910F91FF90EF9008958FEF27
:101080009FEF90930301809302010E9473070E94D7
:10109000B2060E94B806E19AE99ADF91CF911F91BA
:1010A0000F91FF90EF900C945E071F920F920FB676
:1010B0000F9211242F933F934F935F938F939F939E
:1010C00029B1217080917303409100015091010179
:1010D0004115504819F48093360112C090913601A1
:1010E000891771F09F5F891759F090E2909337014B
:1010F0008093360180E090E8909301018093000195
:10110000809100019091010196958795909301013E
:1011100080930001222349F0809100019091010108
:10112000906890930101809300018091000190915B
:10113000010199278035910509F455C090F480315B
:10114000910509F450C020F4892B09F4A0C067C0B0
:101150008032910509F49BC08034910509F497C051
:101160005EC0803A910581F040F48038910509F421
:101170008EC080399105B9F152C0803C910531F0A3
:10118000803D910581F14BC084E613C08091000140
:1011900090910101892F992790930101809300017B
:1011A00083E02FC0882379F025E02A95F1F700002D
:1011B0008150499BF7CF07C0882349F095E09A9565
:1011C000F1F7000081504999F7CF811160C08091FB
:1011D000000190910101892F99279093010180933B
:1011E000000182E00EC0809100019091010136E083
:1011F000969587953A95E1F79093010180930001C8
:1012000081E080933801809100019091010199273C
:101210008F3F9105A1F48FEF8093370110C080E8D4
:101220008093370180E090E8909301018093000162
:1012300080E09FEF909303018093020128C080918A
:10124000020190910301882781159F4F19F080E4D6
:10125000809337018091020190910301982F882794
:1012600090930301809302012091000130910101CC
:101270008091020190910301822B9093030180934E
:10128000020180E090E890930101809300019F911A
:101290008F915F914F913F912F910F900FBE0F90C3
:1012A0001F901895CF93C82F8DEE0E9480078C2F2A
:1012B000CF910C948007E82FE695E695E695EF70C0
:1012C000F0E0EE5BFE4F4081282F277081E090E038
:1012D00002C0880F991F2A95E2F7242F30E02823B7
:1012E0003923232B11F4842B80830895E82FE6956E
:1012F000E695E695EF70F0E0EE5BFE4F2081382F2B
:10130000377081E090E002C0880F991F3A95E2F7AC
:10131000422F50E048235923452B19F08095822312
:1013200080830895482F50E0FA013397E138F105A2
:1013300008F048C0EA5AFF4F0C94682587E10895E9
:101340008FE108958CE5089580E6089582E608957A
:1013500087E2089583E508958FE2089589E308956B
:1013600087E308958FE3089587E408958FE408954F
:1013700086E508958EE508958FE6089580E0089546
:1013800085E608958EE608958FE7089580E3089531
:1013900088E3089580E4089588E4089580E5089539
:1013A00087E508958FE5089588E1089588E0089518
:1013B00080E2089580E1089589E108958DE6089519
:1013C00088E208958F7708958FE00895CF93482F8E
:1013D00050E0FA017C97E834F105A0F5E952FF4F9F
:1013E0000C94682585E53EC08AE53CC08BE53AC093
:1013F0008CE538C08DE536C08EE534C08FE532C04F
:1014000080E630C081E62EC082E62CC083E62AC08A
:101410008FE628C081E726C082E724C084E722C087
:1014200085E720C087E71EC088E71CC08AE71AC08E
:101430008CE718C08FE716C080E714C089E712C098
:101440008BE710C0C82F1F928F9389EB94E09F9376
:101450008F930E945B060F900F900F900F908C2F30
:1014600001C084E5CF9108950F931F93CF93DF932D
:101470000E942A238C010E940F07EC01019631F48F
:10148000C8010E944223843F9140A8F3CE01DF911E
:10149000CF911F910F9108950E94F5060C940407B7
:1014A00080917203816080937203E2E4F1E0119213
:1014B00081E0E235F807D9F70895E82FF0E0EE5B18
:1014C000FE4F80810895E2E4F1E0119281E0E2357F
:1014D000F807D9F70895982F80913F01823049F499
:1014E00092FB882780F990FD826091FD84600C94C6
:1014F00052090895CF93DF9380913701882311F12A
:10150000809137011F928F938AE395E09F938F9389
:101510000E945B068091370180750F900F900F90AD
:101520000F9071F480913E01893051F484E395E08D
:101530009F938F930E945B0610923E010F900F9035
:1015400010923701E0913E018E2F90E08A30910594
:1015500008F01FC3FC01E15EFE4F0C9468250E9459
:101560002A239F938F938FE295E09F938F930E94FE
:101570005B0610923F0110924101109240010E94BF
:10158000630A0E94A81881E035C00E940A072E98BD
:10159000269A2F98279A0E942A2390933D018093A0
:1015A0003C0182E00BC080913C0190913D010E9482
:1015B0004223853F914008F4ECC283E080933E01D2
:1015C000E8C22E9826982F9827980E9473070E94A9
:1015D00004070E942A239F938F938AE295E09F93AA
:1015E0008F930E945B060E942A2390933D01809373
:1015F0003C0184E080933E010F900F900F900F907C
:10160000C8C20E940F07019609F4C3C20E942A2390
:101610009F938F9385E295E09F938F930E945B0643
:101620000E942A2390933D0180933C0185E0E2CF04
:1016300080913C0190913D010E944223853F914061
:1016400018F087E080933E010E940F07019609F48D
:10165000A0C20E942A239F938F9380E295E09F93DC
:101660008F930E945B060E942A2390933D018093F2
:101670003C0186E0BFCF80913C0190913D010E94EA
:101680004223853F914018F087E080933E010E94FD
:101690000F07019609F47DC20E942A239F938F931E
:1016A0008BE195E09F938F930E945B0687E0A2CF2A
:1016B0000E942A239F938F9386E195E09F938F93B7
:1016C0000E945B0682EF0E9480070F900F900F90A0
:1016D0000F908F3F2FEF920789F08A3F910589F491
:1016E0000E94340A8F3F3FEF930771F0D82FCC2729
:1016F0000E94340A9E01282BC90108C08FEF9FEF7A
:1017000005C08EEF9FEF02C080E090E09093410112
:101710008093400180913701882381F080913701C7
:101720001F928F938BE095E09F938F930E945B06AF
:10173000109237010F900F900F900F908091400101
:10174000909141019C01222721154BEA340711F4A5
:1017500082E00CC021153F4B11F483E007C00097D5
:10176000B9F38F3F2FEF920721F481E080933F017F
:101770000DC08F3F910561F785EF94E09F938F93A4
:101780000E945B0610923F010F900F9080913F01E5
:101790001F928F93809141018F93809140018F938D
:1017A00088EE94E09F938F930E945B0688E080937D
:1017B0003E010F900F900F900F900F900F90E9C186
:1017C0000E942A239F938F9383EE94E09F938F939D
:1017D0000E945B060F900F900F900F9080913F0139
:1017E000823031F0833041F488EF0E94800704C0DA
:1017F0000E9420160E946B0A89E080933E010E949D
:101800002A239F938F938EED94E09F938F930E9452
:101810005B060F900F900F900F90C0913F01C23068
:1018200009F47EC0C33009F439C1C13009F0B1C137
:101830000E940F078F3F3FEF930709F4AAC19C0155
:101840002F7733272236310548F083ED94E09F93BC
:101850008F930E945B0610923B0197C120913B0140
:10186000223009F444C028F4222351F0213019F128
:1018700054C0233009F447C0243009F449C04DC096
:10188000803E910569F01CF4009739F00EC0813E4E
:10189000910549F08F3F910541F488EC94E071C1C6
:1018A000C0933B0176C182E02BC08038910508F4DB
:1018B0002BC18F7761C18633910579F124F48A3287
:1018C000910539F42AC08A3A910539F1863B910590
:1018D00021F18038910528F40E94E6090E945B09F5
:1018E0001CC08F770E94E6090E94760916C08D31D0
:1018F000910529F08D39910581F484E001C083E0E0
:1019000080933B0146C18534910539F485E5FCC0DF
:101910008534910511F485E52FC110923B0139C141
:101920000E940F078F3F4FEF940709F432C1E091F7
:101930003A014E2F50E04930510508F0ACC0FA0191
:10194000E75DFE4F0C946825803E910569F18CF4AB
:101950008338910569F12CF4009771F58EEA94E0D3
:10196000C1C08438910531F18A3A910509F40FC15B
:1019700023C0803F9105D1F02CF4813E9105E1F424
:1019800084E080C08C3F910509F401C18F3F91052F
:1019900099F40E94630A83EA94E09F938F930E94D4
:1019A0005B0610923A01F1C082E06CC081E06AC02F
:1019B00082E05DC08FE65BC08038910508F4A4C06A
:1019C0000E94630A87E994E0DCC08935910509F437
:1019D00062C0803F910521F08231910519F45BC00E
:1019E00083E050C010923A018038910518F40E94AB
:1019F00092098AC00E94630A8DE894E0C2C08338CD
:101A0000910529F08438910521F48FE642C082E0E7
:101A100040C010923A018038910508F4ADC00E9490
:101A2000630A83E894E0ADC010923A0182319105D7
:101A300009F4AFC08935910509F4ABC08038910530
:101A400018F40E94920998C00E94630A86E794E005
:101A500098C08431910529F0803F9105E1F486E03A
:101A600011C085E00FC087379105A9F480E00E947E
:101A70005B0911C0449779F487E004C0803F910569
:101A800051F488E080933A0184C08737910519F4B6
:101A900080E00E94760910923A017BC00E940F07F5
:101AA0008F3F2FEF920709F474C020913901222350
:101AB00019F0213079F16DC08438910501F13CF4C1
:101AC000009771F083389105E1F482E01DC0803FFA
:101AD000910589F08F3F9105A1F480E694E051C013
:101AE0008BE694E09F938F930E945B060E94630AAB
:101AF0000E94A81831C081E0809339014AC08FE765
:101B000003C08038910518F40E945B0942C083E548
:101B100094E037C08338910511F17CF4009739F5D2
:101B200085E494E09F938F930E945B060E94630A72
:101B30000E94A818109239010FC08438910589F0CD
:101B40008F3F9105A1F487E394E09F938F930E94C8
:101B50005B061092390119C00F900F901AC082E0F5
:101B600001C08FE70E9476091092390112C01092CD
:101B700039018038910518F40E9476090AC08DE277
:101B800094E09F938F930E945B060F900F901092AA
:101B90003E0181E0DF91CF91089580917602089512
:101BA0000895CF93DF9300D01F92CDB7DEB7209179
:101BB0007C03243021F523E029839B838A8382E000
:101BC0008093E9008FEF9091E800815095FD06C069
:101BD00095ED9A95F1F700008111F5CF8091E8001D
:101BE00085FF0DC040E050E063E070E0CE0101965B
:101BF0000E944C128091E8008E778093E8000F904D
:101C00000F900F90DF91CF910895CF93DF9300D085
:101C10001F92CDB7DEB720917C03243029F522E056
:101C20002983805891099B838A832093E9008FEF51
:101C30009091E800815095FD06C095ED9A95F1F7D9
:101C400000008111F5CF8091E80085FF0DC040E0D4
:101C500050E063E070E0CE0101960E944C1280914A
:101C6000E8008E778093E8000F900F900F90DF913F
:101C7000CF910895CF93DF93EC0190917C03943042
:101C800009F048C0809114018823D9F08091150192
:101C90008823B9F09093E90081E8815049F0909150
:101CA000E80095FD05C09AE29A95F1F700C0F5CFDE
:101CB0008091E80085FF2EC040E050E060E270E0D7
:101CC00019C081E08093E90081E8815059F090913A
:101CD000E80095FD07C0EFE3F1E03197F1F700C0B0
:101CE0000000F3CF8091E80085FF14C040E050E091
:101CF00068E070E0CE010E944C128091E8008E777F
:101D00008093E80080E2FE01A6E5B2E001900D922A
:101D10008A95E1F7DF91CF910895CF93C091540157
:101D2000C1110BC00E943623643C794081059105A6
:101D300020F081E080935401C1E08C2FCF91089571
:101D4000FF920F931F93CF93DF93D82F0FB607FE09
:101D500083C080917C03843081F08091070190E002
:101D600001962091090130E08223932320910801FC
:101D700030E08217930709F0CDC00E948D0E8111CB
:101D800010C08091070190E001962091090130E098
:101D9000822393232091080130E08217930709F0F2
:101DA000B9C00E942A238C01C091E900CF709091A4
:101DB000EC00892F817090FD80E8C82B83E0809330
:101DC000E90085E0F82E8091EB0085FD42C080910E
:101DD000EB0080FF3EC08091EE0087FF3AC080910B
:101DE000080190910701981709F457C09091E800F5
:101DF00095FF8EC0E0910501F0910601E80FF11DFD
:101E000020818F5F9091090189238093080120939D
:101E1000F1008091E80085FDE2CF8091E80080FF2D
:101E2000DECF8091E8008E778093E800F092040185
:101E3000D6CF8091070190E001962091090130E012
:101E4000822393232091080130E08217930709F43D
:101E50004CC0CF70C093E90040910701842F90E0FF
:101E600001962091090130E08223932320910801FB
:101E700030E08217930709F450C0E0910501F0911A
:101E80000601E40FF11DD083809107018F5F9091CF
:101E9000090189238093070140C08091E80085FFF4
:101EA00037C0D093F10021E03091F3008091F2002F
:101EB00090E0932B892B91F08091E80080FF0EC079
:101EC0008091E80085FF03C01092F100F9CF809166
:101ED000E8008E778093E800F0920401222309F451
:101EE000A8CFCF70C093E90018C080910401882367
:101EF00009F4AFCF0E942A239C018017910711F4A7
:101F0000890161CF90910401915090930401F8CF21
:101F100020E0CACF40910701B0CF80E0DF91CF91A0
:101F20001F910F91FF90089580917B03811109C04B
:101F30000E94B8140E9415158091E200846080937D
:101F4000E200089510927B0308950895089542E0F9
:101F500061EC81E00E94C51142E061EC82E00E94E8
:101F6000C51142E261EC83E00E94C51142E261ECDE
:101F700084E00C94C51180917E03833009F455C030
:101F800030F4813071F0823009F48EC008958A30C7
:101F900009F47AC08B3009F460C0893009F09CC024
:101FA00020C080917D03813A09F096C08091E800BD
:101FB000877F8093E8008091810390918203892B31
:101FC00021F460E286E592E003C060E080E090E00A
:101FD00070E00E9499128091E8008B778093E8006E
:101FE000089580917D03813209F076C0809181034C
:101FF00090918203009719F0039709F06DC08091CA
:10200000E800877F8093E8008091E80082FD05C0AA
:1020100080917C038111F8CF5FC08091F1008093A3
:1020200076028091E8008B7753C080917D03813ADE
:1020300009F052C08091810390918203892B09F0AD
:102040004BC08091E800877F8093E8008091E80092
:1020500080FFFCCF8091140136C080917D038132D6
:10206000D9F58091810390918203892BA9F5809104
:10207000E800877F8093E8000E94FA1180917F0337
:10208000809314010C94A81880917D03813221F56E
:102090008091E800877F8093E8000E94FA11809188
:1020A000800380937702089580917D03813AA1F4A3
:1020B0008091E800877F8093E8008091E80080FFAE
:1020C000FCCF809177028093F1008091E8008E77B9
:1020D0008093E8000C94FA11089580917602809321
:1020E0005501109276020E94630A0C94A8180C9471
:1020F0006D100E94D72280917A03882329F00E94D4
:10210000E42281110C94AF1108950E94F82280916D
:1021100055018093760208950C94851008950C94CF
:102120008E10CF9384B7877F84BF0FB6F894A8959D
:1021300080916000886180936000109260000FBE03
:1021400090E080E80FB6F89480936100909361006E
:102150000FBE80EA9EE00E94AA228AE091E00E94DF
:102160001B1689E695E00E94C2050E944C0A0E9457
:10217000CF160E94B8140E9415158091E200846069
:102180008093E20078940E94D11680917C03843081
:1021900029F00E9400160E948E10F7CF87E595E087
:1021A0000E94C2050E948F1085E495E00E94C2053E
:1021B000C3E080917C03853019F40E947910F9CF37
:1021C0000E94D5162091E4003091E50080915201E3
:1021D000909153012817390709F468C08091E400F1
:1021E0009091E50090935301809352010E948D0ECF
:1021F000882309F45BC080917C03843009F056C0C9
:102200008091E9008F702091EC00922F917020FD59
:1022100090E8892BC093E9009091EB0090FF43C0B8
:102220009091EE0097FF3FC0909108012091070127
:10223000291709F12091E80025FF1DC0E091050153
:10224000F0910601E90FF11D30819F5F2091090196
:102250009223909308013093F1009091E80095FD4E
:10226000E3CF9091E80090FFDFCF9091E8009E7758
:102270009093E800D9CF9091F3002091F20030E0E4
:10228000392B232B81F09091E80090FF0CC09091A6
:10229000E80095FF03C01092F100F9CF9091E8009B
:1022A0009E779093E8008F708093E9000E9400165B
:1022B00080CF292F332723303105C9F060F4213036
:1022C000310581F02230310509F041C084E790E00A
:1022D00029EC35E040C021323105E1F022323105F0
:1022E00031F135C082E190E02DE336E034C099272A
:1022F0008130910549F028F0029749F5EFE7F5E0C4
:1023000005C0E5ECF5E002C0E5EBF5E0849190E076
:102310009F0121C064307105D0F4660F771FFB0167
:10232000EC5DFE4F2081318189E090E014C0643083
:10233000710568F4FB01EE0FFF1FE45EFE4F208184
:102340003181FB01E85EFE4F808190E004C080E0B7
:1023500090E020E030E0FA0131832083089580E1AD
:1023600089BD82E189BD09B400FEFDCF8091D8000E
:102370008F7D8093D8008091E00082608093E000A0
:102380008091E00081FDFCCF0895982F973068F58B
:102390009093E900981739F07091EC002091ED00CE
:1023A0005091F00003C0242F762F50E021FD02C091
:1023B0009F5FECCF3091EB003E7F3093EB0030918C
:1023C000ED003D7F3093ED003091EB0031603093B4
:1023D000EB007093EC002093ED005093F0002091FF
:1023E000EE0027FDE5CF80E008958F708093E9002F
:1023F00081E0089580917D0387FF11C08091E800FE
:1024000082FD05C080917C038111F8CF11C08091BD
:10241000E8008B770BC080917C03882349F0809182
:10242000E80080FFF8CF8091E8008E778093E80085
:1024300008952091E4003091E50095E64091EC008C
:10244000842F817040FF23C08091E80080FD1DC073
:1024500080917C03882399F0853099F08091EB007E
:1024600085FD11C04091E4005091E5002417350727
:1024700029F3915011F09A01E1CF84E0089582E0B0
:10248000089583E0089581E0089580E008954091E3
:10249000E80042FFDDCF0895CF92DF92EF92FF92E6
:1024A0000F931F93CF93DF93EC018B017A010E946E
:1024B0001912811135C0E114F10439F0F70180815E
:1024C0009181081B190BC80FD91FC12CD12C0115E4
:1024D000110529F18091E80085FD18C08091E80080
:1024E0008E778093E8000E940016E114F10449F011
:1024F000F70180819181C80ED91ED182C08285E00A
:102500000FC00E941912882311F30AC08991809389
:10251000F10001501109FFEFCF1ADF0AD8CF80E098
:10252000DF91CF911F910F91FF90EF90DF90CF90AF
:10253000089520918303309184032617370748F0CC
:102540006115710539F42091E8002E772093E80099
:1025500001C0B901FC0120E06115710579F180919C
:102560007C038823F1F18530F1F18091E80083FD4F
:102570003CC08091E80082FD2EC08091E80080FF81
:10258000EBCF2091F3008091F20090E0922B611547
:10259000710551F08830910538F421912093F100B4
:1025A000615071090196F3CF21E0089709F020E00E
:1025B0008091E8008E778093E800CECF2111CFCFB5
:1025C0000AC080917C03882361F0853061F080919E
:1025D000E80083FD0AC08091E80082FFF2CF80E02E
:1025E000089582E0089583E0089581E008952091A0
:1025F0008303309184032617370748F0611571056E
:1026000039F42091E8002E772093E80001C0B90149
:10261000FC0120E06115710591F180917C03882314
:1026200009F440C0853009F43FC08091E80083FD83
:102630003DC08091E80082FD2FC08091E80080FFBE
:10264000E9CF2091F3008091F20090E0922B611588
:10265000710559F08830910540F424912093F100E0
:102660003196615071090196F2CF21E0089709F087
:1026700020E08091E8008E778093E800CBCF211195
:10268000CCCF0AC080917C03882361F0853061F053
:102690008091E80083FD0AC08091E80082FFF2CFBC
:1026A00080E0089582E0089583E0089581E0089530
:1026B0001F93CF93DF93CDB7DEB7AA970FB6F894E9
:1026C000DEBF0FBECDBFEDE7F3E08091F100819357
:1026D00023E0E538F207C9F70E94BB0F8091E800BC
:1026E00083FF2EC180917D0390917E03492F50E09E
:1026F0004A30510508F024C1FA01EE5CFE4F0C94FB
:102700006825803821F0823809F01AC108C080910C
:10271000790390917A03992389F082600FC08091A8
:1027200081038F70873008F00BC18093E90080919E
:10273000EB0085FB882780F91092E9009091E80072
:10274000977F9093E8008093F1001092F100D1C040
:10275000282F2D7F09F0F4C0882319F0823061F012
:10276000EFC080917F03813009F0EAC0933009F017
:1027700080E080937A032EC080917F0381112AC06C
:10278000809181038F702FEF280F263008F0D8C07A
:102790008093E9002091EB0020FF1CC0933021F4CE
:1027A0008091EB00806214C09091EB009061909357
:1027B000EB0021E030E0A90102C0440F551F8A95CB
:1027C000E2F74093EA001092EA008091EB00886003
:1027D0008093EB001092E9008091E800877F80935E
:1027E000E8000E94FA11ACC08111AAC010917F03C9
:1027F0001F778091E3008078812B8093E3008091A4
:10280000E800877F8093E8000E94FA118091E80039
:1028100080FFFCCF8091E30080688093E30011117A
:1028200002C082E001C083E080937C0389C08058AD
:10283000823008F085C080917F03909180038C3DA9
:1028400053E0950779F583E08A838AE289834FB75D
:10285000F894DE01139620E03EE051E2E32FF0E031
:1028600050935700E49120FF03C0E295EF703F5F63
:10287000EF708E2F90E0EA3010F0C79601C0C0963E
:102880008D939D932F5F243149F74FBF8091E800CE
:10289000877F8093E8006AE270E0CE0101960E9493
:1028A000991216C06091810370918203AE014F5F4F
:1028B0005F4F0E945911BC01892B09F441C09091CE
:1028C000E800977F9093E80089819A810E94F7122F
:1028D0008091E8008B778093E80032C0803881F5E2
:1028E0008091E800877F8093E8008091780380934F
:1028F000F1008091E8008E7772CF811121C0809124
:102900007F039091800399270297D4F48091E80087
:10291000877F8093E80080917F03809378030E94F3
:10292000FA1180917803811106C08091E30087FD40
:1029300002C081E001C084E080937C030E94A70F65
:102940008091E80083FF0AC08091E800877F809330
:10295000E8008091EB0080628093EB00AA960FB6AE
:10296000F894DEBF0FBECDBFDF91CF911F910895C8
:102970000E9426150E942E15E0EEF0E08081816015
:102980008083E8EDF0E080818F77808319BCA7ED2C
:10299000B0E08C918E7F8C9380818F7E80831092AB
:1029A0007B0308950F931F93CF93DF930E94261507
:1029B0000E942E15C8EDD0E088818F7788838881AA
:1029C0008068888388818F7D888319BC10927C03FE
:1029D0001092780310927A031092790300EE10E0BF
:1029E000F80180818B7F808388818160888342E0C9
:1029F00060E080E00E94C511E1EEF0E080818E7F12
:102A00008083E2EEF0E08081816080838081886055
:102A10008083F80180818E7F8083888180618883B4
:102A2000DF91CF911F910F910895E8EDF0E0808143
:102A30008F7E8083E7EDF0E080818160808384E099
:102A400082BF81E080937B030C94D214E8EDF0E028
:102A500080818E7F80831092E20008951092DA00C8
:102A60001092E10008951F920F920FB60F92112459
:102A70002F933F934F935F936F937F938F939F9386
:102A8000AF93BF93EF93FF938091E10082FF0BC060
:102A90008091E20082FF07C08091E1008B7F8093EC
:102AA000E1000E94A60F8091DA0080FF1FC0809194
:102AB000D80080FF1BC08091DA008E7F8093DA00FF
:102AC0008091D90080FF0DC080E189BD82E189BD80
:102AD00009B400FEFDCF81E080937C030E94940F37
:102AE00005C019BC10927C030E94A20F8091E100E6
:102AF00080FF19C08091E20080FF15C08091E20044
:102B00008E7F8093E2008091E20080618093E200FA
:102B10008091D80080628093D80019BC85E08093B2
:102B20007C030E9477108091E10084FF30C0809187
:102B3000E20084FF2CC080E189BD82E189BD09B437
:102B400000FEFDCF8091D8008F7D8093D8008091CA
:102B5000E1008F7E8093E1008091E2008F7E809380
:102B6000E2008091E20081608093E200809178032E
:102B7000882311F084E007C08091E30087FD02C044
:102B800081E001C083E080937C030E948C108091DF
:102B9000E10083FF24C08091E20083FF20C0809188
:102BA000E100877F8093E10082E080937C031092B4
:102BB00078038091E1008E7F8093E1008091E200B4
:102BC0008E7F8093E2008091E20080618093E2003A
:102BD00042E060E080E00E94C5110E94A50FFF91D5
:102BE000EF91BF91AF919F918F917F916F915F9185
:102BF0004F913F912F910F900FBE0F901F901895FE
:102C0000CF9380917C038823A1F0C091E900CF701D
:102C10009091EC00892F817090FD80E8C82B109274
:102C2000E9008091E80083FD0E945813CF70C093A3
:102C3000E900CF91089590937D0280937C020895DE
:102C4000E0917C02F0917D02309721F00190F081BB
:102C5000E02D099480E00895EF92FF920F931F9367
:102C6000CF93DF93E0917C02F0917D023097B1F138
:102C70008C010280F381E02D09958091720382FF1F
:102C80002DC080FF04C086E497E00E94C205E801E1
:102C900010E280E4E82E87E0F82E8091720380FF36
:102CA0000BC088811F928F93FF92EF920E945B0668
:102CB0000F900F900F900F90115021961111EDCFA2
:102CC0008091720380FF0AC08EE397E0DF91CF917D
:102CD0001F910F91FF90EF900C94C205DF91CF915F
:102CE0001F910F91FF90EF900895CF93DF93209164
:102CF0007A0230917B022817390709F190937B0201
:102D000080937A02E0917C02F0917D023097B9F0D5
:102D1000EC010680F781E02D09958091720382FF16
:102D20000EC080FF0CC0DF93CF9380E397E09F93AA
:102D30008F930E945B060F900F900F900F90DF9182
:102D4000CF910895CF93DF9320917802309179024B
:102D50002817390709F19093790280937802E0915E
:102D60007C02F0917D023097B9F0EC010084F1858E
:102D7000E02D09958091720382FF0EC080FF0CC088
:102D8000DF93CF9380E297E09F938F930E945B063F
:102D90000F900F900F900F90DF91CF9108950C94AA
:102DA00078170E9421230C94500ABF92CF92DF9291
:102DB000EF92FF920F931F93CF93DF9300D000D039
:102DC0001F92CDB7DEB70E947A0A0FE712E0F12C0E
:102DD0008F2D0E945D0AB82EF801C080C82639F4F4
:102DE000F3940F5F1F4FF0E1FF12F2CF30C08091DC
:102DF000720381FD0E947917D12CEE24E3948C2D6F
:102E00008E21F9F0D982FA8291E08B2D8E2109F47E
:102E100090E09B830E942A238160782F9D838C837E
:102E200049815A816B818D810E94AF1749815A81F6
:102E30006B817C818D810E94C222F80180818E2568
:102E40008083D394EE0CF8E0DF12D9CFC9CF8FEF97
:102E500089838A831B820E942A238160782F9D8325
:102E60008C8349815A816B818D810E94AF170E94AA
:102E7000C1220E94201690917E02891741F10E9482
:102E8000201680937E029091720392FF0EC090FFF5
:102E90000CC01F928F9381E597E09F938F930E94C0
:102EA0005B060F900F900F900F9080917E020F9015
:102EB0000F900F900F900F90DF91CF911F910F9176
:102EC000FF90EF90DF90CF90BF900C94D3220F90A3
:102ED0000F900F900F900F90DF91CF911F910F9156
:102EE000FF90EF90DF90CF90BF9008950C946B0A05
:102EF0000895EF92FF920F931F93CF93DF938AE68B
:102F000097E00E94C205C0E0D0E08CE2E82E81E0AC
:102F1000F82E0CE517E08C2F0E945D0A0E94AF226C
:102F2000FF92EF921F928F93DF93CF931F930F9394
:102F30000E945B0621968DB79EB708960FB6F8944F
:102F40009EBF0FBE8DBFC031D10529F7DF91CF9154
:102F50001F910F91FF90EF90089508950895CF93DA
:102F6000DF93CDB7DEB72B970FB6F894DEBF0FBE59
:102F7000CDBF942F4F83252F588769877A878B87FA
:102F80004A855B85452B31F02F3F31F481E09F3F2F
:102F900019F403C081E001C080E080FD07C04F81CB
:102FA000588569857A858B850E94C222DE0111963B
:102FB00086E0FD0111928A95E9F785E0FE013796DA
:102FC00001900D928A95E1F749815A816B817C814C
:102FD0008D819E810E94BD1E2B960FB6F894DEBF98
:102FE0000FBECDBFDF91CF910895CF93882309F411
:102FF00065C0C82F8CEF8C0F813A20F080E58C0FD4
:103000008E3248F48C2F0E941525811157C08C2FC9
:103010000E94A5210CC080E28C0F883058F4C77044
:1030200081E001C0880FCA95EAF70E944A22CF9139
:103030000C9484228BE58C0F833078F4C53A29F008
:10304000C63A31F083E890E005C081E890E002C024
:1030500082E890E0CF910C94751688E58C0F85314D
:1030600068F5C83A89F0C93A91F0CA3A99F0CB3A72
:10307000A1F0CC3AA9F0CD3AB1F0CE3AB9F0CF3ABE
:10308000C1F080E090E017C082EE90E014C089EEBD
:1030900090E011C08AEE90E00EC085EB90E00BC08E
:1030A00086EB90E008C083EB90E005C084EB90E0F5
:1030B00002C087EB90E0CF910C94A216CF910895B7
:1030C000882349F19CEF980F913A20F090E5980FF2
:1030D0009E3218F40E94F5210DC090E2980F9830AE
:1030E00058F4877091E001C0990F8A95EAF7892F0B
:1030F0000E9450220C9484229BE5980F933020F478
:1031000080E090E00C947516885A853120F480E0B8
:1031100090E00C94A2160895882321F00E944A2280
:103120000C9484220895882321F00E9450220C944C
:10313000842208950E946A220E9439220E948422D9
:1031400080E090E00E94751680E090E00C94A2165A
:103150000E945A220C949A18CF92DF92EF92FF921B
:103160000F931F93CF93DF9300D000D01F92CDB762
:10317000DEB76C010E94D5228111EAC285E0F6011A
:10318000DE01119601900D928A95E1F7F6014081DA
:103190005181238134812115310531F05F3F31F4B4
:1031A00081E04F3F19F403C081E001C080E080FD61
:1031B000CFC2F601F280E580E2948FE0E8224983F5
:1031C0005A83FB82722F3D832C836F2D8D810E9449
:1031D00021218C010E9420210E941020E12FE295E4
:1031E000EF708E2F90E0FC01E45CFE4F0C9468259C
:1031F000812F807F1F70882311F01295107FFF2090
:1032000049F0112309F43BC2812F0E945D220E94E4
:10321000842235C2802F0E946018112309F498C2BD
:10322000812F0E9463220F900F900F900F900F90AC
:10323000DF91CF911F910F91FF90EF90DF90CF9092
:103240000C948422812F807F1F70803211F01295A0
:10325000107F002319F0013009F12BC0FF20A9F0E5
:10326000EE2059F1F1E0812FEF1228C00F900F905E
:103270000F900F900F90DF91CF911F910F91FF90C2
:10328000EF90DF90CF900C946D22EE2021F021E0A2
:10329000E21609F45DC20E9470222DC0FF20E9F001
:1032A00085E08E1508F454C20E944722812329F03C
:1032B00022C0FF20F1F0E11015C0812F0F900F9078
:1032C0000F900F900F90DF91CF911F910F91FF9072
:1032D000EF90DF90CF900C948C1894E09E1508F43A
:1032E00037C209C0F601858180FFC9C18F7085830F
:1032F000E4CFE110D7C1812F4AC1812F86958695F1
:10330000837019F08130B9F023C2FF2019F0C80191
:10331000937002C080E090E00F900F900F900F909C
:103320000F90DF91CF911F910F91FF90EF90DF9061
:10333000CF900C947516FF2019F0C801937002C04D
:1033400080E090E00F900F900F900F900F90DF9122
:10335000CF911F910F91FF90EF90DF90CF900C9441
:10336000A216812F837009F070C0F110F1C1202FD7
:10337000229526952770220F220F602F6F70862FBF
:1033800090E0A0E0B0E06C017D01022E04C0CC0C06
:10339000DD1CEE1CFF1C0A94D2F704FF12C08FE064
:1033A00090E0A0E0B0E004C0880F991FAA1FBB1FE7
:1033B0002A95D2F7BC01CD016095709580959095C6
:1033C00003C060E070E0CB011695169513701230C3
:1033D000B1F040F56C297D298E299F29113031F1FA
:1033E0000F900F900F900F900F90DF91CF911F9142
:1033F0000F91FF90EF90DF90CF900C9435206C29C7
:103400007D298E299F290F900F900F900F900F907C
:10341000DF91CF911F910F91FF90EF90DF90CF90B0
:103420000C944F200E943520C701B6010F900F90D9
:103430000F900F900F90DF91CF911F910F91FF9000
:10344000EF90DF90CF900C941B20FF2019F0812F7C
:10345000817001C08695882309F47AC1202F2295B6
:1034600026952770220F220F602F6F70862F90E015
:10347000A0E0B0E06C017D01022E04C0CC0CDD1C8C
:10348000EE1CFF1C0A94D2F704FF12C08FE090E0FC
:10349000A0E0B0E004C0880F991FAA1FBB1F2A95A7
:1034A000D2F7BC01CD01609570958095909503C0D1
:1034B00060E070E0CB011695169513701230B1F0F4
:1034C00040F56C297D298E299F29113031F10F900B
:1034D0000F900F900F900F90DF91CF911F910F9150
:1034E000FF90EF90DF90CF900C94FC206C297D2909
:1034F0008E299F290F900F900F900F900F90DF91C2
:10350000CF911F910F91FF90EF90DF90CF900C948F
:103510000E210E94FC20C701B6010F900F900F9062
:103520000F900F90DF91CF911F910F91FF90EF902F
:10353000DF90CF900C94EA20003FC1F128F480E4A2
:10354000800F803250F096C0023F09F45EC008F44C
:1035500049C0033F09F46CC08DC0F02FF071EF2E0D
:10356000812F8F71FF2051F00E948320802FEE2049
:1035700019F08295807FA2CE8F70A0CE0E94A420E9
:10358000802FEE2019F08295807F01C08F700F9000
:103590000F900F900F900F90DF91CF911F910F918F
:1035A000FF90EF90DF90CF900C949318FF20A9F03C
:1035B00024E02E1508F4CCC0812F8F710F900F904E
:1035C0000F900F900F90DF91CF911F910F91FF906F
:1035D000EF90DF90CF900C94C92085E08E1508F411
:1035E000B7C0EACFFF2099F0812F8F710F900F9015
:1035F0000F900F900F90DF91CF911F910F91FF903F
:10360000EF90DF90CF900C948320FF2069F3812FFF
:103610008F710F900F900F900F900F90DF91CF91BF
:103620001F910F91FF90EF90DF90CF900C94A4200A
:10363000FF2089F0812F8F710F900F900F900F90C6
:103640000F90DF91CF911F910F91FF90EF90DF903E
:10365000CF900C946E200F900F900F900F900F90C2
:10366000DF91CF911F910F91FF90EF90DF90CF905E
:103670000C946920FF2099F0EE2009F4B5CF802F3B
:103680000F900F900F900F900F90DF91CF911F919F
:103690000F91FF90EF90DF90CF900C94F517EE20F4
:1036A00009F4B5CF802F0F900F900F900F900F90CF
:1036B000DF91CF911F910F91FF90EF90DF90CF900E
:1036C0000C946018412F4F70602FC6010E94B023E8
:1036D0000F900F900F900F900F90DF91CF911F914F
:1036E0000F91FF90EF90DF90CF900C946B1F011122
:1036F0002FC0FF2069F10E94A8189FEFE0E7F2E0D9
:103700009150E040F040E1F700C000000F900F90B2
:103710000F900F900F90DF91CF911F910F91FF901D
:10372000EF90DF90CF900C949123412F4F70602F3A
:10373000C6010F900F900F900F900F90DF91CF91D7
:103740001F910F91FF90EF90DF90CF900C94B323D7
:103750000F900F900F900F900F90DF91CF911F91CE
:103760000F91FF90EF90DF90CF9008951F93CF932C
:10377000DF9300D000D01F92CDB7DEB7942F4983DE
:10378000252F5A836B837C838D834C815D81452BF0
:1037900031F02F3F31F481E09F3F19F403C081E005
:1037A00001C080E0182F117080FD31C049815A811D
:1037B0006B817C818D810E942121292F22952F7080
:1037C0002C3030F42A30A0F42250223030F022C0C5
:1037D0002C30C9F02F30B9F01DC0853A28F4843060
:1037E000C0F4823028F415C090E2980F983088F029
:1037F000883E30F4803E68F48450813A58F409C021
:10380000803F41F406C093FB112710F903C010E07C
:1038100001C011E0812F0F900F900F900F900F902B
:10382000DF91CF911F910895CF93DF9300D000D007
:103830001F92CDB7DEB70F900F900F900F900F90A3
:10384000DF91CF910895CF93DF9300D000D000D0C7
:10385000CDB7DEB726960FB6F894DEBF0FBECDBF4C
:10386000DF91CF9108951F93CF93DF93C0918F0283
:1038700016E080919002C81799F0D0E01C9FF001EB
:103880001D9FF00D1124EF56FD4F40815181628143
:103890007381848195810E94231C2196C770E9CF92
:1038A000DF91CF911F9108954091C1025091C202C2
:1038B0006091C3027091C4028091C5029091C602CA
:1038C0000C94231CCF938091C60282958F7009F0CF
:1038D0005FC08091C302882309F45AC080918F028F
:1038E000B09190027091C102A091C2024091C402B5
:1038F0005091C50291E07F3F09F090E0692FC6E04A
:103900008B1709F445C04115510521F0AF3F21F057
:1039100020E003C021E001C0262F90E020FD35C04B
:10392000C89FF001C99FF00D1124EF56FD4F218172
:103930002A132BC02081271328C02281211125C0E2
:10394000238134812417350710F421503109241BB9
:10395000350B283C3105C8F42091C6022F70206138
:103960002093C60226E0289FF001299FF00D112424
:10397000EA56FD4F80818F708061808381EC92E0F8
:103980000E94AC18CF910C94331C01968770B8CF6D
:10399000CF910895AF92BF92CF92DF92EF92FF92B4
:1039A0000F931F93CF93DF93CDB7DEB761970FB619
:1039B000F894DEBF0FBECDBF7C0185E0F701DE01CC
:1039C0001D9601900D928A95E1F7D7014C911196C1
:1039D0005C9111971296DC90129713960D911C91A1
:1039E00014973091C1026091C2028091C4029091FB
:1039F000C502009731F06F3F31F421E03F3F19F4E9
:103A000003C021E001C020E0B22FB170BB2E20FD29
:103A10006EC1A090C302AA2009F4CCC02091C602B6
:103A20000817190728F0F801E81BF90BCF0104C0AB
:103A300080959095800F911FCC24C394883C91056C
:103A400080F0C12C207F09F0A1C0702F198B088B4A
:103A50006D2D89890E94141C81EC92E00E94AC18A3
:103A6000BDC0822F807F09F056C0561315C0431386
:103A700013C0CD2CD11010C02F7020612093C6022E
:103A80000E94541C81EC92E00E94AC188091C60206
:103A9000D70115968C935FC10115110531F05F3F79
:103AA00031F481E04F3F19F403C081E001C080E0B0
:103AB00080FD03C081E08D2502C080E090E0B82F3A
:103AC000B170CB2E80FF1CC080918F02209190029C
:103AD00036E0821709F41CC190E0389FF001399F4D
:103AE000F00D1124EF56FD4F6181561306C0608121
:103AF000461303C06281D61203C001968770E9CFD6
:103B0000CD2CDD2009F427C18091C602816080930D
:103B1000C602C12C20C1561308C0431306C0D110E1
:103B200004C08091C602D701B6C04D875E87DF868C
:103B3000702F198B088B6D2D89890E94B61B8823E5
:103B400099F1DD2089F12091C602822F82958F7034
:103B500090E0029774F08091C1029091C202988720
:103B60008F8319861B870A872C87CE0107960E94B0
:103B7000AC1886E0F701A1ECB2E001900D928A95B5
:103B8000E1F70E94621C0E94541C11C0561781F17B
:103B90004D875E87DF86702F198B088B6D2D898985
:103BA0000E94B61B811138C0C7010E94AC18CC24FA
:103BB000C394D1C00817190708F446C0F801E81BE0
:103BC000F90BCF01883C910508F443C0C12C702F3C
:103BD000198B088B6D2D89890E94141CE1ECF2E091
:103BE00086E0DF011D928A95E9F70E94541CB3C05C
:103BF0004313CECFD110CCCF8091C602F70185837D
:103C0000C7010E94AC1886E0E1ECF2E0DF011D92F2
:103C10008A95E9F7CA2C9FC0DD2031F22091C602B7
:103C2000822F82958F7090E002970CF4A2CF809142
:103C3000C1029091C2029A8389831B821D830C83E7
:103C40002E83CE01019693CF80959095800F911F82
:103C5000B9CFCD2CDD2009F4A7CF561333C04313C1
:103C600031C02091C60220FD24C0822F82958F7022
:103C7000482F50E041155105E1F0D70115962C93DE
:103C800015974F30510549F08F5F982F9295907F8F
:103C9000822F8F70892B15968C93C7010E94AC18C8
:103CA00086E0F701A1ECB2E001900D928A95E1F770
:103CB0009CCF86E0F701A1ECB2E001900D928A95CD
:103CC000E1F749C04D875E87DF86702F198B088B1F
:103CD0006D2D89890E94B61B81114BCF8091C60240
:103CE00081608093C602C7010E94AC1834C0DD20F9
:103CF00009F45ACF4D875E87DF86702F198B088BAA
:103D00006D2D89890E94B61B882309F44DCF31CFD0
:103D1000702F198B088B6D2D89890E942121292FE5
:103D200022952F70223028F49F7039F0811105C040
:103D30000BC0243028F49F7049F4805E883020F056
:103D4000C7010E94AC18BC2CCB2C05C0F701958193
:103D5000907F99F7F9CF8C2D61960FB6F894DEBF5E
:103D60000FBECDBFDF91CF911F910F91FF90EF90CC
:103D7000DF90CF90BF90AF9008951F93CF93DF93C4
:103D8000CDB7DEB72C970FB6F894DEBF0FBECDBF10
:103D90004F83588769877A878B879C87CE010796E0
:103DA0000E94CA1C8823D1F09F8188852A853B8583
:103DB000232B31F08F3F31F481E09F3F19F403C092
:103DC00081E001C080E080FD47C04F815885698552
:103DD0007A858B859C850E94231C3EC086E0FE016F
:103DE0003796DE01119601900D928A95E1F7FF81D9
:103DF000E8856A857B856115710531F0EF3F31F407
:103E000081E0FF3F19F403C081E001C080E080FD44
:103E100023C02091900230E0C90101968770992754
:103E200040918F0250E084179507F1F1F983EA83FE
:103E30007D836C8396E0929FD001939FB00D1124F7
:103E4000AF56BD4FFE01319601900D929A95E1F764
:103E5000809390020E94331C16E080918F02909113
:103E60009002891771F1189FC00111248F569D4F40
:103E70000E94CA1C882329F1E0918F021E9FF00145
:103E80001124EF56FD4F40815181628173818481FD
:103E900095810E94231C80918F0290E0019687708B
:103EA000992780938F02D9CF0E94A8181092900270
:103EB00010928F02E1ECF2E086E0DF011D928A951C
:103EC000E9F72C960FB6F894DEBF0FBECDBFDF9199
:103ED000CF911F910895DF92EF92FF920F931F935E
:103EE000CF93DF93FC01892B09F488C0E12CF12CDE
:103EF000DD24D394EF0121968491853709F460C0C5
:103F000058F4843708F04EC0843008F068C081301F
:103F1000D1F0823071F172C0883709F45BC050F47F
:103F2000863709F453C0873709F068C08E2D0E9488
:103F3000572252C09CE7980F903708F05FC08F77E8
:103F40000E9460184EC08F010E5F1F4FFE018491CA
:103F500090E2980F983050F48770FD2D01C0FF0F4C
:103F60008A95EAF78F2F0E945D2215C00E94F517EF
:103F700014C08F010E5F1F4FFE01849190E2980FD5
:103F8000983068F48770FD2D01C0FF0F8A95EAF71D
:103F90008F2F0E9463220E948422E80122C00E9487
:103FA0006018FBCFCF010296FE01C491CC2361F0D3
:103FB000EFE9FFE03197F1F700C00000C150F6CF04
:103FC000CF010296FE01F490EC010BC00E94472243
:103FD000E82E07C00E945A220E94842202C00E943A
:103FE000F5178F2D882341F0EFE9FFE03197F1F7C6
:103FF00000C000008150F6CFFE017CCFDF91CF9151
:104000001F910F91FF90EF90DF9008956093470309
:10401000709348038093490390934A030C94D222EF
:10402000089560934B0370934C0380934D039093DA
:104030004E030C94D1220F931F9300914B031091C8
:104040004C0320914D0330914E03602B712B822B3A
:10405000932B60934B0370934C0380934D03909389
:104060004E031F910F910C94D1220F931F93009137
:104070004B0310914C0320914D0330914E0360236C
:1040800071238223932360934B0370934C0380939B
:104090004D0390934E031F910F910C94D1220F93D7
:1040A0001F9300914B0310914C0320914D033091CD
:1040B0004E03602771278227932760934B037093E9
:1040C0004C0380934D0390934E031F910F910C94DA
:1040D000D12260E070E0CB010C9406200F931F9377
:1040E00041E050E060E070E08A019B0104C0000FF5
:1040F000111F221F331F8A95D2F7C901B8011F91E2
:104100000F910C9406200F931F9341E050E060E064
:1041100070E004C0440F551F661F771F8A95D2F7C1
:104120008091470390914803A0914903B0914A03BD
:104130008A019B01082B192B2A2B3B2BC901B801A3
:104140001F910F910C9406200F931F9341E050E0B4
:1041500060E070E004C0440F551F661F771F8A950A
:10416000D2F7409550956095709580914703909156
:104170004803A0914903B0914A038A019B01082397
:1041800019232A233B23C901B8011F910F910C94D5
:1041900006200F931F9341E050E060E070E004C000
:1041A000440F551F661F771F8A95D2F780914703EA
:1041B00090914803A0914903B0914A038A019B0161
:1041C000082719272A273B27C901B8011F910F91FA
:1041D0000C9406200F931F930091470310914803FE
:1041E0002091490330914A03602B712B822B932B32
:1041F0001F910F910C9406200F931F93009147037A
:10420000109148032091490330914A0360237123A0
:10421000822393231F910F910C9406200F931F93D9
:1042200000914703109148032091490330914A03BC
:1042300060277127822793271F910F910C940620E6
:1042400008958F929F92AF92BF92DF92EF92FF926A
:104250000F931F93CF93DF9300D000D01F92CDB761
:10426000DEB76B837C838D838A018C819D81892B52
:1042700031F01F3F31F481E04F3F19F403C081E07A
:1042800001C080E080FF03C080E090E04DC08B81E2
:104290008823D1F18090470390904803A090490370
:1042A000B0904A0380914B0390914C03A0914D0331
:1042B000B0914E03882A992AAA2ABB2A8FE1E82EB8
:1042C000F12CD501C4010E2C04C0B695A795979585
:1042D00087950A94D2F780FD06C081E0E81AF108BC
:1042E00080F7D12C07C0DE2CB8018E2D0E94640609
:1042F000019799F388E0189FF0011124E953FD4FCD
:10430000E00FF11DD08209C088E0189FF001112450
:10431000E953FD4FE00FF11DD08009831A836981B5
:104320007A818D2D0E9464060F900F900F900F9050
:104330000F90DF91CF911F910F91FF90EF90DF9041
:10434000BF90AF909F908F90089590911401992302
:1043500079F190911501992359F1982F9695969599
:1043600096959F31A1F0E0911601F0911701E90FA8
:10437000F11D877021E030E0A90102C0440F551FF4
:104380008A95E2F7CA019181892B818308959091E2
:10439000720390FF29C01F928F9386E997E09F9345
:1043A0008F930E945B060F900F900F900F900895CF
:1043B0002091160130911701F90132969FEF40E0EC
:1043C0005191851789F09F3F19F4511101C0942F25
:1043D0004F5F4E31A9F79F3F39F0F901E90FF11D09
:1043E00097FDFA9582830895089590911401992379
:1043F00081F190911501992361F1982F96959695E9
:1044000096959F31A9F0E0911601F0911701E90FFF
:10441000F11D877021E030E0A90102C0440F551F53
:104420008A95E2F7CA018095918189238183089555
:104430009091720390FF1CC01F928F9388E797E0C2
:104440009F938F930E945B060F900F900F900F9099
:104450000895E0911601F09117019F01225E3F4FF0
:104460009281891301C012823196E217F307C1F7D6
:10447000089581E090E0E0911601F0911701E80FB6
:10448000F91F1082019680329105A9F70895809155
:104490007103089590917103892B8093710308959E
:1044A000809590917103892380937103089580937F
:1044B0007103089510927103089590917003892BF0
:1044C0008093700308958095909170038923809361
:1044D0007003089510927003089580934F03089518
:1044E00010924F0308958091160190911701FC01DD
:1044F00031969C01205E3F4F80E0919191118F5F3A
:10450000E217F307D1F70895E0911601F091170132
:10451000809171038083E0911601F09117019081E1
:1045200080917003892B808380914F03882361F0F1
:10453000E0911601F09117019081892B80830E94F0
:104540007322811110924F038091160190911701EF
:104550000C942C1690933501809334010895829524
:10456000982F937344E0949F900111248C7C86953E
:104570008695282B822F8575880F2A7A2695822B7F
:1045800008950895CF93DF9300D000D01F92CDB748
:10459000DEB70F900F900F900F900F90DF91CF919B
:1045A0000895089508950C94761780E0089583B7D0
:1045B000817F8C6083BF83B7816083BF7894889547
:1045C00083B78E7F83BF0895CF930E94AD170E945B
:1045D0007A0A0E94AE17C0E08C2F0E945D0A8111FA
:1045E00004C0CF5FC031C1F701C081E0CF91089511
:1045F0000E94630A0C94A8181F920F920FB60F9294
:1046000011248F939F93AF93BF93809173039091E5
:104610007403A0917503B09176034196A11DB11D5D
:104620008093730390937403A0937503B093760300
:10463000BF91AF919F918F910F900FBE0F901F90E0
:10464000189582E084BD93E095BD9AEF97BD809365
:104650006E0008952FB7F8948091730390917403BE
:10466000A0917503B09176032FBF08952FB7F894EA
:104670006091730370917403809175039091760338
:104680002FBF0895CF92DF92EF92FF920F931F9367
:104690002FB7F894409173035091740360917503A0
:1046A000709176032FBF6A017B01EE24FF248C01F9
:1046B00020E030E0C016D106E206F30610F44150C7
:1046C00051099A01281B390BC9011F910F91FF90C5
:1046D000EF90DF90CF9008951F920F920FB60F9238
:1046E00011248F939F93AF93BF9380917303909105
:1046F0007403A0917503B09176030196A11DB11DBD
:104700008093730390937403A0937503B09376031F
:10471000BF91AF919F918F910F900FBE0F901F90FF
:1047200018950E94B814F89487E797E790930108CA
:104730008093000887E090EBDC01809385039093E1
:104740008603A0938703B09388039CE088E10FB6AB
:10475000F894A895809360000FBE90936000FFCFFF
:1047600080E090E008950895CF93C82F1F928F9313
:104770008AEB97E09F938F930E945B0681E090E025
:10478000A0E0B0E0BC01CD0104C0660F771F881F18
:10479000991FCA95D2F70E9411200F900F900F9089
:1047A0000F90CF910C94A818CF938732A8F58E3133
:1047B00008F02BC1803109F49FC0F8F4873009F468
:1047C00064C0A8F4863009F024C180917203817F0F
:1047D0008E7F809372038FEB97E00E94C20581EA7F
:1047E0009AE00E94C20581E0809377034CC08B3031
:1047F000F1F18E3009F46CC00CC1863109F4B0C0FF
:1048000020F4813109F4EDC004C1893109F491C06B
:104810008B3109F449C0FDC0883349F150F4893225
:1048200009F4F1C0853309F4EEC0873209F0F1C014
:10483000EAC0833409F4E7C028F48A3308F4E9C0F5
:104840008953E4C0883409F0E4C00E94A81880E9C4
:104850009AE00E94C2052FEF83ED90E32150804043
:104860009040E1F700C000000E9491230CC08AED47
:1048700097E05CC087E79AE00E94C20580917203CE
:10488000816080937203C1E0C9C080917203C82F18
:10489000C17080FFEFCF83E89AE00E94C20580914B
:1048A0007203817F8E7F3DC09091720391FBCC2774
:1048B000C0F981E0C827892FC0FB81F9809372037A
:1048C000CC2319F08AE69AE027C08CE59AE02EC046
:1048D0009091720392FBCC27C0F981E0C827892F01
:1048E000C0FB82F980937203CC2319F08DE49AE027
:1048F00013C08DE39AE01AC09091720393FBCC270A
:10490000C0F981E0C827892FC0FB83F98093720327
:10491000CC2351F081E39AE00E94C205809172039A
:104920008160809372037AC084E29AE00E94C2059B
:10493000AACF85E19AE00E94C2058FEE99E00E941D
:10494000C20587EA99E00E94C2058FE799E00E94BC
:10495000C20583E399E00E94C20588E099E0E6CFB2
:104960008AEF98E00E94C2050E9420161F928F9342
:1049700080EE98E09F938F930E945B0680911401D4
:104980001F928F9389EC98E09F938F930E945B0610
:10499000809177021F928F9386EB98E09F938F937D
:1049A0000E945B06809115011F928F9383EA98E025
:1049B0009F938F930E945B060E9436239F938F9351
:1049C0007F936F938CE898E09F938F930E945B0690
:1049D0008DB79EB746960FB6F8949EBF0FBE8DBF9B
:1049E00052CF0E94A818C091150181E0C827C0933A
:1049F0001501CC2329F082E898E00E94C2050EC080
:104A000087E798E093CF80E001C08D510E94B423E6
:104A10003ACF85E798E00E94C205C0E08C2FCF9185
:104A2000089580E008950C941125CF93C82F8091AC
:104A30007703882319F0813059F042C0E0911601C4
:104A4000F09117018081823261F08434D9F509C078
:104A5000E0911601F09117018081823211F08434C7
:104A600061F48C2F0E941325811104C08C2F0E94A9
:104A7000D42324C081E090E021C08C2F0E94112516
:104A800081111BC0C43189F018F4CB3029F010C05B
:104A9000C93259F0C83361F48FEB97E00E94C20528
:104AA00086EB97E00E94C20508C0109277030CC005
:104AB00084EB97E00E94C20507C081E0817006C0C8
:104AC0001092770380E002C080E0F8CFCF91089584
:104AD000EE0FFF1F0590F491E02D0994F894FFCF9D
:104AE0000080FFFF0556010000FFCD0D3A0ED00DEE
:104AF000050ED10D0101500340362239E006AA0609
:104B000088064F06DB05F4050D062D06000008009B
:044B1000040002009B
:106800008800EA44E944E244040005000600070069
:10681000080009000A000B000C000D000E000F001C
:1068200010001100120013001400150016001700CC
:10683000180019001A001B001C001D001E001F007C
:10684000200021002200230024002500260027002C
:10685000280029002A002B002C002D002E002F00DC
:10686000300031003200330034003500360037008C
:10687000380039003A003B003C003D003E003F003C
:1068800040004100420043004400450046004700EC
:10689000480049004A004B004C004D004E004F009C
:1068A000500051005200530054005500560057004C
:1068B000580059005A005B005C005D005E005F00FC
:1068C0006000610062006300640065A185006700EC
:1068D000680069006A006B006C006D006E006F005C
:1068E0007000710072007300890087008A008B00BD
:1068F000E000E100E200E300E400E500E600E7007C
:106900000100010001000100EA4401000100E2442D
:106910000100010001000100460001004A004B0097
:10692000010001004700480001000100E9440100A6
:106930000100010001000100010001003A003B00DC
:106940003C003D003E003F0040004100420043004B
:10695000010035004C0039000100440045005200A0
:1069600049000100010050004F0029004D004E0079
:1069700051000100010001000100010001000100BF
:1069800001000100010001000100010001000100FF
:1069900001000100010001000100010001004D00A3
:1069A0004A004E004B0001000100010001000100FF
:1069B00001000100010001000100010001000100CF
:1069C00001000100010001000100010001000100BF
:1069D00001000100010001000100010001000100AF
:1069E0000100010001000100490001000100010057
:1069F000010001000100010001000100010001008F
:00000001FF
