:10000000F9C5000063C600000C94BE2C5FC600005A
:100010000C94982C5BC6000059C6000057C600001F
:1000200055C6000053C6000051C600000C94CB2BEF
:100030004DC600000C94A62B49C6000047C6000020
:1000400045C6000043C6000041C600000C94802B4A
:100050003DC600003BC6000039C6000037C60000A0
:1000600035C6000033C6000031C600002FC60000B0
:100070002DC600000631FF0974A10109751500267F
:10008000FF009520750881020976150026FF00956E
:100090002075089102C005010902A1010901A10012
:1000A0008501050919012908150025019508750123
:1000B00081020501093009311581257F95027508F6
:1000C000810609381581257F950175088106050C83
:1000D0000A38021581257F950175088106C0C00583
:1000E000010980A10185021601002637001A81004E
:1000F0002AB700751095018100C0050C0901A10106
:100100008503160100269C021A01002A9C02751024
:1001100095018100C005010906A101050719E02923
:10012000E7150025019508750181020508190129C7
:100130000595057501910295017503910105071952
:100140000029F71500250195F875018102C052209C
:10015000006973723A2530345820007725303258C0
:100160002000722530325820000A5B434C525D203B
:1001700000214353325F45305F4630210A0021435E
:1001800053325F46302120253032580A0021435334
:10019000325F4530210A00214353325F494E4954B2
:1001A000210A00214353335F4630210A0021435383
:1001B000335F5245414459210A00214353335F5272
:1001C00045534554210A00452575200050257520CA
:1001D000004D5B783A256420793A256420763A25EB
:1001E0006420683A256420623A253032585D0A005E
:1001F0004C257520000A4D6F7573653A2025730AEA
:10020000000A4445463A20000A4558503A20000A60
:10021000494E543A20000A4C4F473A20000A4C4DB0
:10022000533A200053257520000A49443A253034BA
:100230005828257325732920000A556E6B6E6F7739
:100240006E2049443A205265706F727420746F209A
:10025000544D4B20004F4B20004E4720004F4B2069
:10026000004E47200A54656C65766964656F3A20D4
:10027000000A353537365F43533832683A2000522A
:100280002575200057257520005725752000572516
:1002900075200058257520004125752000492575D9
:1002A00020005B4348475D20000A257520505254CA
:1002B0003A25303258204953523A253034582000DC
:1002C0000A2575204552523A25303258204953525A
:1002D0003A253034582000007B46010203763A6804
:1002E0007F6577482B353B6978796439141E3C6A01
:1002F0007A1D16041A1F3D6B061B070821203E6C51
:100300002C19091715223F6D11050B0A1C23406E8D
:100310007E100D182425416F360E0C1227264270D0
:1003200037380F33132D43717534322F2E44727CBE
:100330007D28303174457351504A524D492A5466D4
:10034000594F5C5F4C4B4E62635A5D5E6029536748
:10035000585B56576147554842403E3C3A3B4568DA
:1003600043413F3D2B357E697A790078141E7B6AC4
:100370007C1D16041A1F7F6B061B07082120656C65
:100380002C19091715224A6D11050B0A1C234C6EF6
:1003900049100D182425516F360E0C1227264F7068
:1003A00037380F33132D52717534502F2E4E72394A
:1003B0007D28304D314B735464586776012A77326B
:1003C00059745C5F66020362635A5D5E6029534440
:1003D000575B565561474680291E1F202122232442
:1003E0002526272D2E2A2B141A0815171C180C1237
:1003F000132F302878041607090A0B0D0E0F33341B
:100400003579311D1B06190511103637387D557A9F
:100410002C393A3B3C3D3E3F4041424353475F60AD
:1004200061565C5D5E57595A5B6263464864444559
:10043000677B7F650301025250514F68696A6B6C9C
:100440006D6E6F7071725800494C754A4D734B4E0A
:10045000767C777E746654535B2530325820253085
:10046000325820253032585D200025583A25303149
:10047000366225730A000A20203031323334353693
:100480003738394142434445460A004C45443A20F6
:10049000253032580A000A4C6F6F702073746172F5
:1004A000742E0A000A55534220636F6E66696775A1
:1004B0007265642E0A000A544D4B3A36663438652C
:1004C000642F4C5546413A6436613764660A000928
:1004D000025400030100A0320904000001030101DD
:1004E00000092111010001223900070581032000C4
:1004F00001090401000103010200092111010001A9
:10050000227F00070582030800010904020001039D
:1005100000000009211101000122220007058303C8
:100520002000011201100100000008EDFEEE1B0189
:1005300002010200013403490042004D0020005036
:1005400000430020006B006500790062006F0061CD
:100550000072006400200063006F006E007600658A
:100560000072007400650072000000080354004D22
:10057000004B0000000403090473797374656D3A3D
:1005800020253034580A00636F6E73756D65723ABA
:1005900020253034580A003F004D3E2000433E20C5
:1005A000000A00257500363A20776865656C5F742F
:1005B000696D655F746F5F6D61783A20000A002590
:1005C0007500353A20776865656C5F6D61785F739B
:1005D000706565643A20000A00257500343A20747D
:1005E000696D655F746F5F6D61783A20000A002560
:1005F0007500333A206D61785F73706565643A20E9
:10060000000A00257500323A20696E7465727661C1
:100610006C286D73293A20000A00257500313A20B4
:1006200064656C6179282A31306D73293A20000A9B
:10063000092D2056616C756573202D0A004D3E0012
:100640004D25643E20003F0073657420646566613B
:10065000756C740A00433E20000A00253032582091
:10066000006B6579626F6172643A2000290A002587
:1006700075002F002575005D2800256400200025E9
:100680006400200025640020002564007C002530E3
:100690003258006D6F7573656B6579205B62746E9F
:1006A0007C782079207620685D287265702F6163E0
:1006B0006C293A205B000A092D204D61676963208F
:1006C0002D0A643A0964656275670A783A096465B7
:1006D000627567206D61747269780A6B3A096465A6
:1006E000627567206B6579626F6172640A6D3A09A1
:1006F0006465627567206D6F7573650A763A097671
:10070000657273696F6E0A733A09737461747573F5
:100710000A633A09636F6E736F6C65206D6F646571
:100720000A302D343A096C61796572302D342846CF
:1007300031302D4634290A506175733A09626F6F62
:10074000746C6F616465720A6E3A094E4B524F0ABF
:10075000000A092D20436F6E736F6C65202D0A45CA
:1007600053432F713A09717569740A6D3A096D6FB7
:100770007573656B65790A003F004E4B524F3A2006
:100780006F66660A004E4B524F3A206F6E0A007435
:10079000696D65725F72656164333228293A20257C
:1007A00030346C580A006B6579626F6172645F6EF9
:1007B0006B726F3A2025580A006B6579626F61721F
:1007C000645F69646C653A2025580A006B6579623C
:1007D0006F6172645F70726F746F636F6C3A202523
:1007E000580A00686F73745F6B6579626F61726439
:1007F0005F6C65647328293A2025580A000A092D80
:1008000020537461747573202D0A004743433A20C6
:10081000372E332E30204156522D4C4942433A2038
:10082000322E302E30204156525F415243483A20FA
:1008300061767233350A004F5054494F4E533A2077
:100840004C554641204D4F5553454B455920455831
:100850005452414B455920434F4E534F4C45204332
:100860004F4D4D414E44204E4B524F204B45594D1C
:1008700041505F53454354494F4E20424F4F544CD3
:100880004F414445525F53495A450A004255494C2D
:10089000443A20366634386564202831313A353799
:1008A0003A3339204F6374203237203230323329C3
:1008B0000A005649443A2030784645454428544D6C
:1008C0004B29205049443A20307831424545284947
:1008D000424D205043206B6579626F6172642063E2
:1008E0006F6E76657274657229205645523A2030D3
:1008F00078303230310A00444553433A204445535E
:100900004352495054494F4E0A000A092D2056655A
:100910007273696F6E202D0A000A6D6F7573653AE8
:10092000206F66660A000A6D6F7573653A206F6EF8
:100930000A000A6B6579626F6172643A206F6666BD
:100940000A000A6B6579626F6172643A206F6E0A01
:10095000000A6D61747269783A206F66660A000A4F
:100960006D61747269783A206F6E0A000A6465627C
:1009700075673A206F6E0A000A64656275673A20EF
:100980006F66660A000A0A626F6F746C6F61646555
:10099000722E2E2E2000433E20006D6B5F7768651F
:1009A000656C5F74696D655F746F5F6D6178203D24
:1009B0002025640A006D6B5F776865656C5F6D610B
:1009C000785F7370656564203D2025640A006D6B57
:1009D0005F74696D655F746F5F6D6178203D202580
:1009E000640A006D6B5F6D61785F7370656564208C
:1009F0003D2025640A006D6B5F696E7465727661D7
:100A00006C203D2025640A006D6B5F64656C617924
:100A1000203D2025640A006D6B5F776865656C5F1B
:100A200074696D655F746F5F6D6178203D2025642A
:100A30000A006D6B5F776865656C5F6D61785F73E9
:100A400070656564203D2025640A006D6B5F7469E4
:100A50006D655F746F5F6D6178203D2025640A00CD
:100A60006D6B5F6D61785F7370656564203D2025F7
:100A7000640A006D6B5F696E74657276616C203D0F
:100A80002025640A006D6B5F64656C6179203D20F0
:100A900025640A0077686572652064656C74613A44
:100AA00020637572736F723D25642C2077686565CD
:100AB0006C3D25640A53656520687474703A2F2F65
:100AC000656E2E77696B6970656469612E6F7267F8
:100AD0002F77696B692F4D6F7573655F6B657973E0
:100AE0000A000A092D204D6F7573656B6579202DFD
:100AF0000A4553432F713A09717569740A313A09ED
:100B000064656C6179282A31306D73290A323A099B
:100B1000696E74657276616C286D73290A333A09BF
:100B20006D61785F73706565640A343A0974696D44
:100B3000655F746F5F6D61780A353A09776865653E
:100B40006C5F6D61785F73706565640A363A09772A
:100B50006865656C5F74696D655F746F5F6D617802
:100B60000A0A703A097072696E742076616C756554
:100B7000730A643A097365742064656661756C7400
:100B8000730A75703A092B310A646F776E3A092D32
:100B9000310A706775703A092B31300A7067646FDB
:100BA000776E3A092D31300A0A7370656564203D0D
:100BB0002064656C7461202A206D61785F737065B4
:100BC0006564202A2028726570656174202F207466
:100BD000696D655F746F5F6D6178290A004C2564EB
:100BE0000A00214353315F45305F25303258210AD6
:100BF0000000922D11241FBECFEFD4E0DEBFCDBF89
:100C000004B603FE41C08091400490914104A0913C
:100C10004204B09143048730904BA740B04BA1F5FC
:100C20001092400410924104109242041092430426
:100C300014BE0FB6F894A8958091600088618093E7
:100C40006000109260000FBE109201081092000820
:100C500089E0E3E0F0E080935700E491E695E370EB
:100C6000E15080E090E1E33040F4F0E0EE0FFF1F50
:100C7000EE5CFE4F8081918100C0E0E0F0E8E81B6F
:100C8000F90BF695E795099511E0A0E0B1E0E8EEE3
:100C9000F3E602C005900D92AA39B107D9F724E016
:100CA000AAE9B1E001C01D92A034B207E1F715E056
:100CB000CAEFD5E004C02197FE010E94D831C93F98
:100CC000D107C9F70E94DD2D0C94F23199C9823306
:100CD00009F447C0F0F4843209F44BC070F48C314D
:100CE00009F44DC020F48B3109F44DC008958D31C5
:100CF000F1F1833209F449C008958B3209F447C0F9
:100D000018F48A3261F108958C3209F18D32C9F1FB
:100D100008958234D1F040F4843399F0A0F08A33FE
:100D200011F18C33B1F008958B34B9F028F4833489
:100D300091F0843401F108958D34F9F08136A9F0F1
:100D4000089580E1089588E1089580E2089588E299
:100D5000089580E3089588E3089580E4089588E481
:100D6000089580E5089587E508958AE608958FE55A
:100D7000089587E1089585E608958EE608958FE643
:100D8000089581E508958FE1089587E2089588E048
:100D900008958B35D9F058F4813101F118F48E3073
:100DA00089F00895833161F0843571F008958236B9
:100DB00089F018F48E3560F008958C3769F0089545
:100DC00081E1089584E508958BE508958DE5089502
:100DD0008AE608958EE0089587E708958FE00895E4
:100DE000863809F467C030F5873609F44DC088F4B9
:100DF0008C3509F469C038F4883009F469C0873546
:100E000009F460C00895843609F442C08536D1F1F2
:100E10000895873709F454C028F48D36B9F18E3619
:100E200079F108958438B1F108F042C08C3709F4A3
:100E30004DC008958C38D1F168F4893889F128F4CF
:100E4000873851F1883851F108958A3859F18B3833
:100E500059F108958F3881F028F48D3849F08E3893
:100E600049F00895813941F148F0823939F1089506
:100E700087E7089587E608958FE708958BE708953B
:100E800085E608958DE6089582E6089584E608953E
:100E90008EE608958CE7089582E008958EE7089520
:100EA0008CE0089583E0089584E0089585E0089536
:100EB00088E0089580E1089581E0089589E008952B
:100EC00088E508958CE5089583E5089588E60895FA
:100ED00086E70895803FC1F48091DA0387FD109280
:100EE000DA038091D90381110EC08091DA03811158
:100EF0000AC08091DB03811106C08091DC0381115F
:100F000002C01092D5030895813F29F48091DA033D
:100F100018162CF3E6CF9091D903823F29F497FF5E
:100F2000E0CF1092D903DDCF833F19F41916CCF32B
:100F3000D8CF893F39F48091DB03181694F61092CC
:100F4000DB03CFCF8A3F29F48091DB0387FFC9CF32
:100F5000F6CF8B3F39F48091DC0387FFC2CF10922C
:100F6000DC03BFCF8C3F29F48091DC031816BCF35F
:100F7000B8CF843F31F48091D8038E7F8093D8031B
:100F8000B0CF853F21F48091D8038D7FF7CF863F86
:100F900021F48091D8038B7FF1CF873F21F480919A
:100FA000D803877FEBCF883F21F48091D8038F7ED1
:100FB000E5CF8D3F31F48091D4038E7F8093D403AD
:100FC00090CF8E3F21F48091D4038D7FF7CF8F3F58
:100FD00009F087CF8091D4038B7FF0CF8091D40329
:100FE00080FF0CC06091140170E075956795759550
:100FF00067956115710559F1862F089581FF06C027
:101000006091140170E075956795F3CF60911401BC
:1010100070E082FD0CC06091D5036623A9F0209199
:1010200013018091140190E0621730F0BC01603828
:101030007105F8F28FE7089570E00E94B431622FD5
:1010400070E00E94C531F3CF61E070E0D5CF81E060
:1010500008958091D40380FF11C08091160190E023
:1010600065E070E00E94B4319595879595958795D8
:1010700080389105B0F50097B1F1089581FF0AC05D
:101080008091160190E065E070E00E94B431959582
:101090008795EECF82FF08C08091160190E065E051
:1010A00070E00E94B431E4CF3091D5033323B1F026
:1010B000209115018091160190E065E070E00E949A
:1010C000B431BC013217A0F6832F90E00E94B431F6
:1010D000622F70E00E94C531CB01CACF85E090E05D
:1010E00008958FE7089581E00895803F29F4B1DFE6
:1010F00081958093DA030895813F11F4AADFF9CF37
:10110000823F29F4A6DF81958093D9030895833F18
:1011100011F49FDFF9CF893F21F460DF8093DB0377
:1011200008958A3F19F45ADF8195F8CF8B3F29F44F
:1011300055DF81958093DC0308958C3F11F44EDFD9
:10114000F9CF843F31F48091D80381608093D80334
:101150000895853F21F48091D8038260F7CF863FC0
:1011600021F48091D8038460F1CF873F21F48091EE
:10117000D8038860EBCF883F21F48091D803806149
:10118000E5CF8D3F31F48091D40381608093D40307
:1011900008958E3F21F48091D4038260F7CF8F3F72
:1011A000B9F78091D4038460F1CF9C014FB7F894D4
:1011B0008091DD039091DE03A091DF03B091E00305
:1011C0004FBF821B930B08952FB7F8948091DD03D6
:1011D0009091DE03A091DF03B091E0032FBF08954B
:1011E000829590E09C01220F331F220F331F2C7C2D
:1011F00095958795959587958373282B30E0C90140
:10120000880F991F8A7A359527952575822B089521
:101210008F929F92AF92BF92CF92DF92EF92FF9206
:101220000F931F93CF93DF9300D000D01F92CDB7C1
:10123000DEB76B837C838D838C819D81892B39F014
:101240005F3F19F481E04F3F19F080E001C081E079
:1012500080FF14C080E090E00F900F900F900F90EF
:101260000F90DF91CF911F910F91FF90EF90DF9042
:10127000CF90BF90AF909F908F900895852F90E072
:10128000642F70E02B81222309F46AC0C0904B03C5
:10129000D0904C03E0904D03F0904E030091E40396
:1012A0001091E5032091E6033091E703C02AD12A8B
:1012B000E22AF32A2FE130E0A22F46015701022E45
:1012C00004C0B694A794979487940A94D2F780FEAA
:1012D0001DC0E52FE7708901B3E0000F111FBA951B
:1012E000E1F70E0F111DE4E0000F111FEA95E1F781
:1012F000E42FEF70E00FF12FF11DEE0FFF1FE05014
:10130000F849059114910130110521F4215031095A
:1013100098F6A0E0F4E0880F991FFA95E1F7815B59
:101320009C4F680F791FFB01A0838A2F90E023E078
:10133000880F991F2A95E1F75770850F911D34E0AA
:10134000880F991F3A95E1F7E42FEF70E80FF92F16
:10135000F11DEE0FFF1FE050F849859194917CCF6D
:10136000E4E0880F991FEA95E1F7815B9C4F680FD5
:10137000791FFB01A081D9CF41E050E060E070E02F
:1013800004C0440F551F661F771F8A95D2F74095FA
:1013900050956095709580914B0390914C03A0916E
:1013A0004D03B0914E0384239523A623B723809346
:1013B0004B0390934C03A0934D03B0934E030895B9
:1013C00041E050E060E070E004C0440F551F661F2C
:1013D000771F8A95D2F780914B0390914C03A0918F
:1013E0004D03B0914E03842B952BA62BB72B8093E6
:1013F0004B0390934C03A0934D03B0934E03089579
:1014000080914A0390911903981301C008958F5F4A
:101410008770FACF1F93CF93DF9300D000D01F9235
:10142000CDB7DEB7942F4983252F5A836B837C83F6
:101430008D834C815D8181E0452B31F02F3F19F484
:1014400081E09F3F09F080E0182F117080FD2BC0D4
:1014500049815A816B817C818D81DADE292F229529
:101460002F702C3078F42A30A8F422502230C8F0A3
:10147000812F0F900F900F900F900F90DF91CF91D1
:101480001F9108952C3011F02F3091F793FB112705
:1014900010F9EECF803C28F0803E50F3815F83301E
:1014A00038F311E0E5CF10E0E3CF1F93CF93DF9344
:1014B000E091CF03F091D003309779F0EC011881DF
:1014C00080910D039091D803892B812B8883048010
:1014D000F581E02DCE0109951883DF91CF911F9101
:1014E0000895E091CF03F091D003309721F001905F
:1014F000F081E02D099480E008951092E2001092AE
:10150000E100E0EEF0E0808181608083E8EDF0E0D2
:1015100080818F77808319BCE3E6F0E08081816071
:1015200080831092DE020895E8DFF89487E797E75A
:10153000909301088093000887E090EBDC01809392
:10154000400490934104A0934204B093430488E183
:101550009CE00FB6F894A895809360000FBE90931E
:101560006000FFCFFC0180910A0390910B03861766
:101570009707A0F06115710529F49091E8009E7716
:101580009093E80090E06115710551F4911108C045
:101590008091E80082FF32C080E00895BC01F2CF64
:1015A00080910C038823B1F18530B1F18091E8007E
:1015B00083FD2EC08091E80082FDEACF8091E80093
:1015C00080FFE1CF2091F20030E06115710519F044
:1015D0002830310558F091E02830310509F090E0CD
:1015E0002091E8002E772093E800CDCF8191809361
:1015F000F100615071092F5F3F4FE7CF80910C03DD
:10160000882341F0853041F08091E80083FFC0CF0E
:1016100081E0089582E0089583E008952091E40038
:101620003091E50085E69091EC0090FF06C0909126
:10163000E80090FF06C080E008959091E80092FDD8
:10164000FACF90910C03992391F0953091F09091FD
:10165000EB0095FD10C04091E4005091E500241787
:10166000350709F381509A01F1F684E0089582E08C
:10167000089583E0089581E008958091040387FF31
:1016800013C08091E80082FF06C08091E8008B774C
:101690008093E80004C080910C038111F2CF08957B
:1016A00080910C038823D9F38091E80080FFF8CF64
:1016B0008091E8008E77ECCF982F9093E900242F4B
:1016C000762F50E0891731F07091EC002091ED00F9
:1016D0005091F00021FD07C09F5F953071F7809316
:1016E000E90081E008953091EB003E7F3093EB00FC
:1016F0003091ED003D7F3093ED003091EB00316093
:101700003093EB007093EC002093ED005093F000C9
:101710002091EE0027FDE0CF80E008950F931F9306
:10172000CF93DF93CDB7DEB7AA970FB6F894DEBF9D
:101730000FBECDBF80910C03882309F447C11091DF
:10174000E9001F708091EC0080FF38C080E8182B02
:101750001092E9008091E80083FF35C1E4E0F3E0F6
:101760008091F100819383E0EC30F807C9F7809114
:101770000503833009F46EC018F5813009F446C0C2
:10178000823009F4D4C08091E80083FF0EC18091BB
:101790000403909105039A3008F007C1E92FF0E0A7
:1017A000EC52F44F0C94D831A80CCE0CD50CCE0CC6
:1017B000D50C2F0D500DD50C4A0E570E80E0C7CF1B
:1017C0008A3009F4A4C08B3009F47AC08930D9F684
:1017D000809104038132B9F6809108039091090346
:1017E000892B89F68091E800877F8093E8008091BB
:1017F000E80082FF2AC08091F1008093E00280918E
:10180000E8008B778093E80038DFBDCF8091040338
:10181000813A09F0B8CF8091E800877F8093E80093
:101820008091080390910903892B59F060E090E0C2
:1018300080E070E097DE8091E8008B778093E8008D
:10184000A2CF60E281EE92E0F4CF80910C0381118F
:10185000CECF99CF80910403813A09F094CF809143
:10186000080390910903892B99F48091E800877F00
:101870008093E8008091E80080FFFCCF8091120106
:101880008093F1008091E8008E778093E800F5DE88
:101890008091080390910903019709F074CF80911A
:1018A000E800877F8093E8008091E80080FFFCCF0C
:1018B000809110018093F1008091E8008E77A2CF93
:1018C00080910403813209F05ECF809108039091EA
:1018D0000903892B51F48091E800877F8093E80009
:1018E000CCDE8091060380931201809108039091D1
:1018F0000903019709F047CF8091E800877F809323
:10190000E800BBDE80910603809310013CCF8091FC
:101910000403813209F037CF8091E800877F8093FC
:10192000E800ABDE809107038093E1032CCF809128
:101930000403813A09F027CF8091E800877F8093E4
:10194000E8008091E80080FFFCCF8091E103B2CFF6
:10195000803889F0823849F5809108038F7085308E
:1019600020F58093E9008091EB0085FB882780F9C2
:101970001092E90006C08091010390910203911139
:1019800082609091E800977F9093E8008093F10047
:101990001092F1008091E8008E7731C0282F2D7FC2
:1019A00021F48823F1F0823071F18091E80083FF07
:1019B0000AC08091E800877F8093E8008091EB0067
:1019C00080628093EB001F701093E900AA960FB617
:1019D000F894DEBF0FBECDBFDF91CF911F910F9165
:1019E000089580910603813001F7933009F080E07B
:1019F000809302031092E9008091E800877F809332
:101A0000E8003BDED2CF809106038111F3CF8091B5
:101A100008038F702FEF280F243038F68093E900E9
:101A20002091EB0020FFE6CF933031F48091EB0062
:101A300080628093EB00DECF9091EB0090619093F9
:101A4000EB0021E030E001C0220F8A95EAF72093F5
:101A5000EA001092EA008091EB008860EACF8111E1
:101A6000A4CF009106030F778091E3008078802B4C
:101A70008093E3008091E800877F8093E800FDDD9C
:101A80008091E80080FFFCCF8091E3008068809324
:101A9000E30083E0011101C082E080930C0385CF55
:101AA0008058823008F081CF2091060330910703DF
:101AB0002C3DA3E03A0799F583E08A838AE2898383
:101AC0004FB7F894DE01139620E03EE0E32FF0E0FC
:101AD00081E280935700E49120FF03C0E295EF700C
:101AE0003F5FEF708E2F90E0EA30B8F0C7968D938D
:101AF0009D932F5F243151F74FBF8091E800877F7E
:101B00008093E8006AE270E0CE0101962BDD8091BF
:101B1000E8008B778093E80048CFC096E8CF8091AB
:101B2000080390910903432F55274330510509F4C9
:101B30004FC078F54130510509F445C084E590E087
:101B4000EFECF4E04230510509F02FCF2091E8008E
:101B5000277F2093E80020910A0330910B0382171E
:101B6000930708F49C0140E02115310509F063C09A
:101B7000411161C08091E80082FDC9CF80910C03C2
:101B8000882329F2853019F28091E80083FFF2CF93
:101B9000BECF4132510509F43FC04232510509F030
:101BA00004CF8330910508F000CFFC01EE0FFF1F3A
:101BB000E45EFE4F0190F081E02D875E9E4FDC01D8
:101BC0008C9190E01DC082E190E0E3E2F5E0BECFB1
:101BD000332721303105C1F060F02230310509F0A2
:101BE000E4CEE5E3F5E0E4918E2F90E0E5E3F5E067
:101BF00007C0E5E7F5E0E4918E2F90E0E5E7F5E03A
:101C0000009709F4D2CEA2CFEBE6F5E0E4918E2F57
:101C100090E0EBE6F5E0F4CF8330910508F0C5CE17
:101C2000880F991FFC01EE5DFE4F0190F081E02DC1
:101C300089E090E08BCF80910C03882309F467CF73
:101C4000853009F464CF8091E80083FD60CF8091F6
:101C5000E80082FD8FCF8091E80080FF85CF8091E2
:101C6000F20090E02115310519F08830910550F00F
:101C700041E0089709F040E08091E8008E7780937A
:101C8000E80072CF44914093F10031962150310920
:101C90000196E8CF803809F088CE8091E800877FF0
:101CA0008093E800809103038093F10073CE81114B
:101CB0007CCE00910603023008F077CE8091E800D8
:101CC000877F8093E80000930303D7DC002381F033
:101CD00084E080930C0342E261EC81E0EDDC42E0C1
:101CE00061EC82E0E9DC46E261EC83E0E5DC5DCEBC
:101CF0008091E30087FDECCF81E0EBCFEF92FF9284
:101D00000F931F93CF937C018B0188DCC82F811127
:101D100017C08091E80085FD0BC08091E8008E77A8
:101D20008093E800FBDC7ADC882399F3C82F08C095
:101D3000F70181917F018093F1000150110949F76A
:101D40008C2FCF911F910F91FF90EF90089580916C
:101D5000E00208958091BA02811113C09FB7F894F0
:101D60004091DD035091DE036091DF037091E00349
:101D70009FBF443C59406105710518F081E0809394
:101D8000BA020895FF920F931F93CF93DF93D82F3A
:101D90000FB607FE42C080910C03843079F0809129
:101DA000030190E001962091050130E08223932306
:101DB000209104012817190609F0C5C0CBDF811155
:101DC0000FC08091030190E001962091050130E061
:101DD00082239323209104012817190609F0B3C028
:101DE000F3D98C01C091E900CF708091EC0080FDA7
:101DF00035C080E0C82B83E08093E9008091EB0040
:101E000085FD08C08091EB0080FF04C08091EE004A
:101E100087FD45C0CF70C093E900E09103018E2F8C
:101E200090E001962091050130E0822393232091D8
:101E300004012817190609F47FC0809101019091CF
:101E40000201E80FF92FF11DD083809103018F5F0C
:101E5000909105018923809303016EC080E8CACF69
:101E6000E0910101F0910201E80FF11D90818F5F77
:101E7000209105018223809304019093F1008091C9
:101E8000E80085FD0CC08091E80080FF08C08091CB
:101E9000E8008E778093E80085E0809300018091D0
:101EA000040190910301981739F19091E80095FD94
:101EB000D7CF80E028C01092F1002DC0809103019F
:101EC00090E001962091050130E082239323209138
:101ED00004012817190609F09DCFF0900001FF209A
:101EE00009F498CF71D98017910709F487CFFA9434
:101EF000F09200018C0182CF8091E80085FFD9CF5C
:101F0000D093F10081E09091F200992381F09091BB
:101F1000E80090FF0CC09091E80095FDCCCF909127
:101F2000E8009E779093E80095E090930001882365
:101F300029F2CF70C093E90080E0DF91CF911F912B
:101F40000F91FF900895E091030177CF262F30E0A5
:101F500054E0359527955A95E1F72770E62FEF70F5
:101F6000823091F08330E9F0813041F5822F90E0AA
:101F700044E0880F991F4A95E1F7E80FF92FF11D0A
:101F8000E952FC4F84910895822F90E034E0880F4D
:101F9000991F3A95E1F7E80FF92FF11DE95AFC4F27
:101FA000F1CF822F90E024E0880F991F2A95E1F766
:101FB000E80FF92FF11DE952FD4FE4CF80E80895B5
:101FC000643808F0E0C0E62FF0E0E751F04F0C94E1
:101FD000D831B710C310C310AB10A710C310C31073
:101FE000C310C310C310C310AD10A910C510C31087
:101FF000C310A7107010C310C310C510AB10C310CE
:10200000C310A910C310C310C310BF10C310C31056
:102010006D10AB10B710C310A510AF10C310C310D4
:102020008310AD10C310C310BD10C310C310C31074
:102030008510AF10C310A310C310A710C310C31096
:10204000B310BF10C310B110A910C310C310C31038
:10205000C1106E107A10BB10B910BD10C310C310A0
:10206000C3106E10C3108710C110C310AD10C31081
:10207000C310AF10C310C310C310C310C310C310DC
:10208000C310C310C3108910C310C310C310BD10F8
:10209000C310C310C310C310C310C310C310C310A8
:1020A000C310C3108B10C3108D108F10C310C3103A
:1020B000C310911093109510C31097109910C3106E
:1020C0009B10C310B5109D10C310A1109F109B1042
:1020D000C310C310C310C310AF1067E1862F08955B
:1020E000FC018281938180599B4A6FE00297B0F78F
:1020F00063E1F4CFFC018281938180599B4A02976E
:1021000068F76CE7EBCF6FE1E9CF67E2E7CF60E616
:10211000E5CF62E6E3CF6CE5E1CF63E5DFCF6FE2C9
:10212000DDCF69E3DBCF67E3D9CF6FE3D7CF67E4D8
:10213000D5CF6FE4D3CF60E0D1CF66E5CFCF6EE5EA
:10214000CDCF6FE7CBCF6EE6C9CF6FE6C7CF68E0E4
:10215000C5CF60E1C3CF68E1C1CF60E2BFCF68E225
:10216000BDCF68E3BBCF6FE5B9CF6DE6B7CF65E60E
:10217000B5CF60E4B3CF68E4B1CF60E5AFCF60E343
:10218000ADCF67E5ABCF6F77A9CF69E1A7CFFC01F2
:102190008481DCDE87FD21C0E82FF0E094E0F59536
:1021A000E7959A95E1F7EE0FFF1FE554FD4F40814B
:1021B0005181282F2F7081E090E002C0880F991F75
:1021C0002A95E2F79C0124233523232B31F08095B7
:1021D000909584239523918380830895FC018481C5
:1021E000B5DE87FD1FC0E82FF0E094E0F595E79598
:1021F0009A95E1F7EE0FFF1FE554FD4F40815181A5
:10220000282F2F7081E090E002C0880F991F2A9537
:10221000E2F79C0124233523232B21F4842B952BD7
:10222000918380830895EBEBF2E011821082138298
:1022300012821582148217821682118610861386E6
:10224000128615861486178616860895FC019CB39F
:10225000838D982B9CBB9DB3838D892B8DBB08955B
:10226000FC018AB1948D909598239AB99BB1848D85
:10227000892B8BB90895FC018BB1938D9095982390
:102280009BB98AB1938D892B8AB9CF01E9CFCF93BE
:10229000DF93EC012E9826982F982798ECDF898DF4
:1022A0008430F8F490916900880F22E030E001C09A
:1022B000220F8A95EAF7892F822B809369009DB3BC
:1022C0008B8D809589238DBB198218821A821B827F
:1022D00080E090E89D838C831F821886DF91CF91E8
:1022E000089590916A008370880F22E030E001C069
:1022F000220F8A95EAF7892F822B80936A00DFCF1D
:10230000FC018BB1948D909598239BB99AB1848DE3
:10231000892B8AB90895FC018AB1938D90959823F1
:102320009AB99BB1838D892B8BB90895CF93DF9395
:10233000EC01F1DFCE01DF91CF9192CFCF93C82F87
:10234000E4EEE80FE83408F07FC0F0E0E655FE4E1A
:102350000C94D8310A12181224122412FC112412DF
:1023600024122412241224122412241224122412BD
:102370002412241224122412FE11241200122412F8
:102380002412241224121C12241231121A122412A2
:10239000241224122412241224122412241224128D
:1023A0002412241224122412F211101202121412F6
:1023B00024120412241208122412121206121612E7
:1023C0000C120E122412241224122412241224128B
:1023D0002412F611F811FA111E12201224122412DE
:1023E00024122212C5E58C2FCF910895CAE5FBCFA8
:1023F000CBE5F9CFCCE5F7CFCDE5F5CFCEE5F3CF03
:10240000CFE5F1CFC0E6EFCFC1E6EDCFC2E6EBCF2F
:10241000C3E6E9CFCFE6E7CFC1E7E5CFC2E7E3CF39
:10242000C4E7E1CFC5E7DFCFC7E7DDCFC8E7DBCF44
:10243000CAE7D9CFCCE7D7CFCFE7D5CFC0E7D3CF47
:10244000C9E7D1CFCBE7CFCF1F92CF9382EE9BE0EE
:102450009F938F930E94892D0F900F900F900F9054
:10246000C2CFC4E5C0CF8330C9F128F4813061F018
:10247000823019F10895853009F452C008F43FC044
:10248000863009F45EC0089580911801681790F4B1
:10249000861B80931801809118011F928F9385E805
:1024A0009AE09F938F930E94892D0F900F900F9029
:1024B0000F90089510921801EECF809117016817C0
:1024C00050F4861B80931701809117011F928F9300
:1024D00083E79AE0E6CF10921701F6CF80911601BC
:1024E000681750F4861B80931601809116011F9285
:1024F0008F9380E69AE0D5CF10921601F6CF8091A7
:102500001501681750F4861B809315018091150101
:102510001F928F938BE49AE0C4CF10921501F6CFEF
:1025200080911401681750F4861B809314018091E8
:1025300014011F928F9382E39AE0B3CF109214019B
:10254000F6CF80911301681750F4861B8093130116
:10255000809113011F928F9387E19AE0A2CF10928E
:102560001301F6CF833009F445C028F4813061F0BF
:10257000823049F10895853009F46AC008F451C0E9
:10258000863009F47CC0089580911801482F460FC9
:102590005527551F4F3F510594F4680F609318015C
:1025A000809118011F928F9388E09AE09F938F93F8
:1025B0000E94892D0F900F900F900F9008958FEF2C
:1025C00080931801EDCF80911701482F460F5527B2
:1025D000551F4F3F510554F4680F609317018091C8
:1025E00017011F928F9386EF99E0E0CF8FEF8093D2
:1025F0001701F5CF80911601482F460F5527551F1B
:102600004F3F510554F4680F6093160180911601F5
:102610001F928F9383EE99E0C9CF8FEF80931601BD
:10262000F5CF80911501482F460F5527551F4F3F75
:10263000510554F4680F60931501809115011F92A4
:102640008F938EEC99E0B2CF8FEF80931501F5CF89
:1026500080911401482F460F5527551F4F3F5105B4
:1026600054F4680F60931401809114011F928F93AA
:1026700085EB99E09BCF8FEF80931401F5CF80918C
:102680001301482F460F5527551F4F3F510554F44E
:10269000680F60931301809113011F928F938AE951
:1026A00099E084CF8FEF80931301F5CFCF93DF9321
:1026B00020911003309111032817390701F19093ED
:1026C000110380931003E091CF03F091D003309772
:1026D000B1F0EC010084F185E02D09958091E303D0
:1026E0008570853061F4DF93CF9387E895E09F9301
:1026F0008F930E94892D0F900F900F900F90DF9174
:10270000CF910895CF93DF9320910E0330910F0363
:102710002817390701F190930F0380930E03E0917E
:10272000CF03F091D0033097B1F0EC010680F78130
:10273000E02D09958091E3038570853061F4DF9386
:10274000CF9389E795E09F938F930E94892D0F90F7
:102750000F900F900F90DF91CF910895CF93DF935B
:10276000EC018F8190E001968F70992728852817BA
:10277000190671F4198218821A821B8280E090E88F
:102780009D838C831F821886CE0160DDCE01CEDD55
:102790002FB7F89488859F81981307C02FBFCFEF7C
:1027A000DFEFCE01DF91CF910895FE01E80FF11D1B
:1027B00091858F5F8F708887C92FD0E02FBF809160
:1027C000E30380FFEECF1F929F9382E691E09F93F9
:1027D0008F930E94892D0F900F900F900F90E1CF53
:1027E000EF92FF920F931F93CF93DF937C010E9490
:1027F000E4088C01F70180819181B0DFEC01019642
:1028000031F4C8010E94D508843F914098F3CE016D
:10281000DF91CF911F910F91FF90EF90089582EE7D
:102820009AE00E94F02C1F9281E08F931F9285E026
:102830008F9384E99AE09F938F930E94892D0F9044
:102840000F900F900F900F900F9008958091E303D9
:1028500083FF7EC083E996E00E94F02C8091D8032C
:102860001F928F938EE896E09F938F930E94892DFD
:102870008CE896E00E94F02C8091D903282F082E36
:10288000000C330B3F938F9389E896E09F938F93CF
:102890000E94892D87E896E00E94F02C8091DA034F
:1028A000282F082E000C330B3F938F9384E896E07B
:1028B0009F938F930E94892D82E896E00E94F02CCE
:1028C0008091DB03282F082E000C330B3F938F934E
:1028D0008FE796E09F938F930E94892D8DE796E076
:1028E0000E94F02C8091DC03282F082E000C330B63
:1028F0003F938F938AE796E09F938F930E94892D51
:1029000087E796E00E94F02C8091D5031F928F9369
:1029100084E796E09F938F930E94892D82E796E04B
:102920000E94F02C8091D4031F928F938FE696E043
:102930009F938F930E94892D8CE696E00E94F02C45
:102940008DB79EB74C960FB6F8949EBF0FBE8DBF45
:1029500088ED93E00E94550A0E94E4089093D70303
:102960008093D6030895CF93DF938091D303909102
:10297000D203892B80939A029091D103992389F0F5
:10298000892B80939A02EBE9F2E02AEB32E080E0B7
:10299000919191118F5F2E173F07D1F781111092FE
:1029A000D103E091CF03F091D0033097A1F10280E1
:1029B000F381E02D8AE992E009958091E30382FF9B
:1029C0002AC080FF04C081E696E00E94F02CD0E08F
:1029D000C0E08091E30380FF10C0FE01E656FD4F8A
:1029E00080811F928F938BE596E09F938F930E9437
:1029F000892D0F900F900F900F902196C032D10526
:102A000041F78091E30380FF06C089E596E0DF91FE
:102A1000CF910C94F02CDF91CF9108951092D303B5
:102A20001092D203EBE9F2E0119282E0EA3BF80760
:102A3000D9F799DF85E0E8EDF3E0DF011D928A9593
:102A4000E9F71092D5031092D40300DF90E080E004
:102A500059DE90E080E02ACECF93C82F1F928F934B
:102A60008DED9BE09F938F930E94892D81E090E0F4
:102A7000A0E0B0E004C0880F991FAA1FBB1FCA9531
:102A8000D2F78093E4039093E503A093E603B09319
:102A9000E7030F900F900F900F90CF91BFCFC3DB44
:102AA000BDDF89E691E09F938F930E94892D0F905F
:102AB0000F900895882339F080959091D30389234E
:102AC0008093D30350CF0895882331F09091D3039E
:102AD000892B8093D30347CF0895882309F457C0E7
:102AE0009CEF980F913A58F5909112019923D1F0EB
:102AF000909111019923B1F0E82FE695E695E695BE
:102B0000F0E0E656FD4F877021E030E0A90102C0F9
:102B1000440F551F8A95E2F7CA0180959181892358
:102B2000818321CFEAE9F2E028EB32E09281891338
:102B300001C0128231962E173F07C1F7F2CF90E203
:102B4000980F983088F4877021E030E0A90102C026
:102B5000440F551F8A95E2F7CA0180959091D303DF
:102B600089238093D303DDCF9BE5980F933018F42E
:102B700090E080E0C7CD98E5980F973118F490E089
:102B800080E094CD803F18F00E946A075FCE0895E0
:102B9000CF93873208F04FC08E3108F01DC18031CD
:102BA00009F4A6C0F8F4873009F485C048F48630EB
:102BB00009F46EC088E797E00E94F02CC0E026C0C0
:102BC0008B3009F460C08E30A9F79091E303892F10
:102BD0008B7F92FF84608093E30382FF86C082E450
:102BE00099E07AC0863109F4AAC098F4813111F7CE
:102BF00015DFC091110181E0C827C0931101CC23DA
:102C000009F4E7C085E897E00E94F02C8C2FCF9163
:102C10000895893109F47CC08B3161F69091E3030A
:102C2000892F8D7F91FF82608093E30381FF5AC0DB
:102C30008FE599E051C0883331F150F4893229F0A1
:102C4000853319F0873209F0B5CF80E005DF31C058
:102C50008334D9F328F48A3308F4ACCF8953F6CF00
:102C6000883409F0A7CFDADE85E899E00E94F02CDD
:102C70002FEF83ED90E3215080409040E1F700C0BA
:102C800000000E94940A86EB96E00E94F02C11C08E
:102C90008091E303817F8E7F8093E30381E597E05A
:102CA0000E94F02C86E999E00E94F02C81E080934C
:102CB000E203C1E0ABCF8091E30380FF0BC088E764
:102CC00099E00E94F02C8091E303817F8E7F8093B6
:102CD000E303EFCF8CE699E00E94F02C8091E303B0
:102CE0008160F5CF81E599E0D0CF82E399E0CDCF47
:102CF0009091E303892F877F93FF88608093E3039C
:102D000083FF03C086E299E0E7CF89E199E0BDCF78
:102D10008AE099E00E94F02C87EF98E00E94F02C66
:102D200082EB98E00E94F02C8CE898E00E94F02C56
:102D300087E398E00E94F02C8BE098E0A6CF8DEF1F
:102D400097E00E94F02C0E94710A1F928F9383EEED
:102D500097E09F938F930E94892D809112011F927B
:102D60008F938CEC97E09F938F930E94892D809195
:102D7000E1031F928F9389EB97E09F938F930E94BB
:102D8000892D809111011F928F9386EA97E09F937E
:102D90008F930E94892D2FB7F8948091DD03909135
:102DA000DE03A091DF03B091E0032FBFBF93AF9389
:102DB0009F938F938FE897E09F938F930E94892D25
:102DC0008DB79EB746960FB6F8949EBF0FBE8DBFC7
:102DD00070CF8AE797E059CF8D5138CFCF938823B2
:102DE00009F4ADC0C82F8CEF8C0F813A08F06BC18D
:102DF0008091E203813071F110F1823009F458C002
:102E00001092E20380911201882309F442C180915B
:102E10001101882309F43DC1EC2FE695E695E6956E
:102E2000F0E0E656FD4FC77021E030E001C0220F10
:102E3000CA95EAF78181822B8183CF9194CD8091CD
:102E40009A02823211F08434E9F68C2FA1DE8111CE
:102E500076C0D8CF80919A028232B9F38434A9F334
:102E6000C431C9F048F4CB3059F0C031C1F087E922
:102E700095E00E94F02C11C0C93269F0C833B9F74F
:102E800081E597E00E94F02C8DE995E00E94F02CFE
:102E900081E08170DCCF1092E20380E0FACFBFDCEA
:102EA00089E995E00E94F02C82E08093E203F0CF64
:102EB000C432C8F4CE3108F0BDC0CB30E1F040F4EC
:102EC000C73009F4CCC086E496E0CF910C94F02C86
:102ED000C331B9F1C431B9F780911203882341F1AC
:102EE0001092120309C0CB3409F4B7C0B8F4C93248
:102EF00099F3C83341F793DC80911203882309F4D6
:102F0000C5C01F928F9380E496E09F938F930E9499
:102F1000892D0F900F900F900F9011C0C13509F4BB
:102F200097C0C23509F48FC0CE3469F66AE091C00B
:102F300085E596E00E94F02C81E08093E203CF913A
:102F400008958FE296E00E94F02C8DE196E00E94B9
:102F5000F02C809118011F928F938AE196E09F9345
:102F60008F930E94892D88E196E00E94F02C86E0E4
:102F700096E00E94F02C809117011F928F9383E0BE
:102F800096E09F938F930E94892D81E096E00E94A6
:102F9000F02C82EF95E00E94F02C809116011F9298
:102FA0008F938FEE95E09F938F930E94892D8DEEE6
:102FB00095E00E94F02C8CED95E00E94F02C809121
:102FC00015011F928F9389ED95E09F938F930E9437
:102FD000892D87ED95E00E94F02C82EC95E00E940F
:102FE000F02C809114011F928F938FEB95E09F93AB
:102FF0008F930E94892D8DEB95E00E94F02C86EA3C
:1030000095E00E94F02C809113011F928F9383EA28
:1030100095E09F938F930E94892D81EA95E00E940D
:10302000F02C8DB79EB748960FB6F8949EBF0FBE92
:103030008DBF62CFCE51EC2FF0E0E85DFE4F808176
:103040008093120359CF61E0809112038BDA54CF41
:1030500061E08091120307DA4FCF6AE0F5CF8EE18D
:103060008093180182E3809317018AE08093160110
:1030700084E18093150188E08093140188E28093B5
:10308000130188E496E00E94F02C36CF8DE396E0A1
:103090001CCFACE9B2E0EFEF80E09D91C91709F4D5
:1030A000CCCEEF3F19F4911101C0E82F8F5F8E3124
:1030B000A1F7EF3F09F4C1CE0E2E000CFF0BE65630
:1030C000FD4FC283BACE80E28C0F883068F4C7709F
:1030D00021E030E001C0220FCA95EAF78091D303C6
:1030E000822B8093D303A9CE8BE58C0F833060F4C1
:1030F00081E890E0C53A31F083E890E0C63A11F4F7
:1031000082E890E0CF91FECA88E58C0F873108F005
:1031100067C082EE90E0C83A09F460C089EE90E0A2
:10312000C93A09F45BC08AEE90E0CA3A09F456C085
:1031300085EB90E0CB3A09F451C086EB90E0CC3AB5
:1031400009F44CC083EB90E0CD3A09F447C084EB1E
:1031500090E0CE3A09F442C087EB90E0CF3AF1F12B
:103160008CEC90E0C13BD1F18DEC90E0C03BB1F133
:1031700083E891E0C23B91F18AE891E0C33B71F1B1
:1031800082E991E0C43B51F184E991E0C53B31F122
:1031900081E292E0C63B11F183E292E0C73BF1F09D
:1031A00084E292E0C83BD1F085E292E0C93BB1F005
:1031B00086E292E0CA3B91F087E292E0CB3B71F06D
:1031C0008AE292E0CC3B51F08FE690E0CD3B31F0CB
:1031D00090E080E0CE3B11F480E790E0CF9166CAAA
:1031E000CF3B61F41BDC9FEF20E782E09150204051
:1031F0008040E1F700C000000E94940AC03F08F43C
:103200009ECE8C2F0E947508CF9120CBCF92DF925B
:10321000EF92FF920F931F93CF93DF9300D000D0D4
:103220001F92CDB7DEB76C0185E0F601DE01119685
:1032300001900D928A95E1F7F60140815181238139
:10324000348191E02115310531F05F3F19F491E0AF
:103250004F3F09F090E090FD94C0F6010281F580A7
:10326000F2949FE0F92249835A830B83722F3D83A6
:103270002C83602F8D810E940809182FE92FE29579
:10328000EF70EF3008F07DC0F0E0E75BF64E0C9495
:10329000D8315819581992199219051A351AC119A5
:1032A000C1194A1AC119201B201BC119C119DB1BE6
:1032B000F92FFF70FF2E907F19F0F29480EFF82223
:1032C0000023B9F0FF2031F08091D203F82AF09268
:1032D000D20349DB812F0F900F900F900F900F902A
:1032E000DF91CF911F910F91FF90EF90DF90CF90E2
:1032F00075CD812FF2DBFF2009F443C0F09480915B
:10330000D203F822F092D2030F900F900F900F90FB
:103310000F90DF91CF911F910F91FF90EF90DF9071
:10332000CF9021CB892F8F70907F903211F08295B2
:10333000807F112379F0113009F447C0002309F48C
:1033400053C0FF2059F0F601958190FF87C19F700F
:10335000958304C0002319F1F1100EC00F900F9057
:103360000F900F900F90DF91CF911F910F91FF90D1
:10337000EF90DF90CF90A8CB21E0F212EFCF8093B7
:10338000D1030F900F900F900F900F90DF91CF917E
:103390001F910F91FF90EF90DF90CF900895F11063
:1033A00010C01092D1030F900F900F900F900F90BC
:1033B000DF91CF911F910F91FF90EF90DF90CF9011
:1033C00079CB91E0F912EDCFDCCF002349F0E5E0B5
:1033D000EF15B8F29091D303982309F4BFCFE3CF50
:1033E000F4E0FF1570F2DFCFFF20E9F2812F0F909C
:1033F0000F900F900F900F90DF91CF911F910F9131
:10340000FF90EF90DF90CF9068CB892F86958695BF
:103410008370B9F0813009F0B4CF812F937001111E
:1034200002C090E080E00F900F900F900F900F90EF
:10343000DF91CF911F910F91FF90EF90DF90CF9090
:1034400035C9812F9370011102C090E080E00F9088
:103450000F900F900F900F90DF91CF911F910F91D0
:10346000FF90EF90DF90CF904DC9002381F00E9434
:1034700075080F900F900F900F900F90DF91CF91E4
:103480001F910F91FF90EF90DF90CF90DFC90E94C6
:103490006A07EFCF892F837009F064C0011171CFE3
:1034A000812F829586958770880F880F412F4F70E6
:1034B000C42ED12CF12CE12C082E04C0CC0CDD1C28
:1034C000EE1CFF1C0A94D2F740E050E0BA0114FF52
:1034D00011C00FE010E020E030E004C0000F111F29
:1034E000221F331F8A95D2F7B901A8014095509544
:1034F000609570950091E4031091E5032091E60337
:103500003091E7039695969593709230E9F028F5FF
:10351000913089F04C295D296E297F294023512360
:10352000622373234093E4035093E5036093E6031F
:103530007093E70326CFC02AD12AE22AF32A4C2926
:103540005D296E297F29EECF4C295D296E297F29BF
:103550004027512762277327E5CF40235123622359
:103560007323EDCF8695002311F0892F8170882376
:1035700009F407CF812F829586958770880F880F71
:10358000412F4F70C42ED12CF12CE12C082E04C0F9
:10359000CC0CDD1CEE1CFF1C0A94D2F740E050E07E
:1035A000BA0114FF11C00FE010E020E030E004C0C9
:1035B000000F111F221F331F8A95D2F7B901A801EE
:1035C000409550956095709500914B0310914C0378
:1035D00020914D0330914E039695969593709230BD
:1035E000E9F028F5913089F04C295D296E297F2971
:1035F000402351236223732340934B0350934C0386
:1036000060934D0370934E03BCCE0C291D292E29C7
:103610003F29402B512B622B732BEECF4C295D2978
:103620006E297F294027512762277327E5CF402342
:103630005123622373234C295D296E297F29DCCF16
:10364000803F09F44DC0C8F480E4810F803268F1F6
:10365000002309F4ABC0FF2009F4A5C0812FBEDB15
:10366000193309F099C0FFEF21EE84E0F1502040BA
:103670008040E1F700C0000084CE823F09F470C0B2
:1036800008F45BC0833F21F7002309F47CC0292F95
:103690002F7181E090E0A0E0B0E004C0880F991F96
:1036A000AA1FBB1F2A95D2F73AC0E12FE071FE2E68
:1036B000892F8F71002351F00E94E009812F82959C
:1036C000807FF1104BCE812F8F7048CE0E94BC09B5
:1036D000812F8295807FF11066CE812F8F7063CE0F
:1036E000002331F1F4E0FF1508F44BCE292F2F71A0
:1036F00081E090E0A0E0B0E004C0880F991FAA1F0D
:10370000BB1F2A95D2F740914B0350914C03609117
:103710004D0370914E0384279527A627B7278093E2
:103720004B0390934C03A0934D03B0934E0329CECB
:1037300025E02F1508F425CED9CF892F8F710023CE
:1037400099F00F900F900F900F900F90DF91CF9105
:103750001F910F91FF90EF90DF90CF900C94E009B4
:10376000892F8F71002369F30F900F900F900F90A6
:103770000F90DF91CF911F910F91FF90EF90DF900D
:10378000CF900C94BC0910924B0310924C031092F2
:103790004D0310924E03F5CD133509F464CF173461
:1037A00009F0EFCD60CF892F8F71CBCFF1101ECEF6
:1037B000892F8F71D9CF8111E4CD002309F4E1CD98
:1037C0002DD98FEF90E7E2E081509040E040E1F7A3
:1037D00000C000000E94940A1F93CF93DF93809152
:1037E0001803807FB1F480911503882391F0209114
:1037F0004A031091190340911303A0911403C0913F
:103800001603D0911703B1E04F3F09F0B0E0121357
:1038100004C0DF91CF911F91089581E0209721F09E
:103820008B2FAF3F09F080E030E080FD32C0C9014E
:1038300066E070E00E94B431FC01E65EFC4F8181DD
:103840008A1327C08081841324C08281811121C002
:10385000838194818C1B9D0B883C9105D0F48091D1
:1038600018038F70806180931803C90166E070E0CF
:103870000E94B431FC01E15EFC4F90819F70906129
:10388000908383E193E0C2DCDF91CF911F910C9490
:10389000000A2F5F3F4F2770BACF9F92AF92BF921F
:1038A000CF92DF92EF92FF920F931F93CF93DF930C
:1038B000CDB7DEB761970FB6F894DEBF0FBECDBFB0
:1038C0008C0185E0F801DE011D9601900D928A952C
:1038D000E1F7F80140812181F280C380D48090918A
:1038E000130330911403609116037091170381E064
:1038F0006115710531F03F3F19F481E09F3F09F0F8
:1039000080E0F82FF1709F2E80FD46C183E1A82E44
:1039100083E0B82EE0901503F601E61BF70BEE20CE
:1039200009F4FEC080911803582F507FE83CF10540
:1039300008F0B9C0511181C0EF2C321321C094138B
:103940001FC0F1101DC08F70806180931803C501E6
:103950005DDC80911803F80185838E2D61960FB68A
:10396000F894DEBF0FBECDBFDF91CF911F910F91B5
:10397000FF90EF90DF90CF90BF90AF909F90089511
:1039800081E0C114D10431F02F3F19F481E04F3FA1
:1039900009F080E080FD14C081E08F25F82FF170E0
:1039A000BF2EE0914A033091190380FD22C0FF2011
:1039B000A1F280911803816080931803E12CCDCF90
:1039C00080E0ECCFF0E0CF0166E070E00E94B4311F
:1039D000DC01A65EBC4F11968C911197281307C08D
:1039E0008C91481304C012968C918F11E0CF3196C0
:1039F000E770E313E7CF7C2DD98AC88A522F6F2D49
:103A000089890E940809292F22952F70223050F0B1
:103A1000243078F49F7051F0F8019581907F31F453
:103A2000E92C9BCF9F7011F08823D1F3805E883002
:103A3000B8F3C801EBDB9B2CF3CF321306C0941311
:103A400004C0F801FF2009F486C04D872E87FF8649
:103A50007C2DD98AC88A522F6F2D89890E940A0A23
:103A6000882309F4A8C0FF2009F4A5C08091180399
:103A7000803268F0209113033091140338872F832C
:103A80001986DB86CA868C87CE010796BFDB86E067
:103A9000F801A3E1B3E001900D928A95E1F79CDE75
:103AA000EE24E3945ACF511109C083E193E0AEDBD9
:103AB00086E0F50111928A95E9F780CF32130EC0A6
:103AC00094130CC0F1100AC0F8018583C8019EDB75
:103AD00086E0F50111928A95E9F73FCF4D872E8751
:103AE000FF867C2DD98AC88A522F6F2D89890E9422
:103AF0000A0A882309F45FC0FF2009F45CC08091A2
:103B00001803803220F220911303309114033A837A
:103B100029831B82DD82CC828E83CE010196B6CFB3
:103B2000E83CF105A8F6EF2CFF2009F444C032135D
:103B30001EC094131CC08091180380FD0FC0982FE5
:103B4000907F61F0F8018583903F31F0982F907F4E
:103B5000905F8F70892B8583C80158DB86E0F80160
:103B6000A3E1B3E001900D928A95E1F7F6CE4D877F
:103B70002E87FF867C2DD98AC88A522F6F2D89897E
:103B80000E940A0A811183CF80911803816080937B
:103B90001803C8013BDBE1CEFF2069F04D872E877B
:103BA000FF867C2DD98AC88A522F6F2D89890E9461
:103BB0000A0A81116CCFC80129DB72CFCF93DF9342
:103BC000CDB7DEB767970FB6F894DEBF0FBECDBF97
:103BD0004B8B5C8B6D8B7E8B8F8B1A8A198A85E061
:103BE000FE017396DE011D9601900D928A95E1F714
:103BF00086E0FE013D96DE01179601900D928A95B2
:103C0000E1F7CE01079649DE811138C086E0FE015A
:103C10003796DE01119601900D928A95E1F79F810A
:103C200088852A853B85232B39F08F3F19F481E065
:103C30009F3F19F080E001C081E080FD1FC08091AE
:103C4000190390E09C012F5F3F4F2770332740916D
:103C50004A034217130659F166E070E00E94B4313E
:103C6000DC01A65EBC4F96E0FE01319601900D92FC
:103C70009A95E1F7209319030E94000A80914A0364
:103C800090911903891701F190E066E070E00E94BD
:103C9000B431865E9C4F01DE8823B1F080914A03E7
:103CA00090E001968770992780934A03E7CF0E949E
:103CB0000E151092190310924A0386E0E3E1F3E037
:103CC000DF011D928A95E9F767960FB6F894DEBF7B
:103CD0000FBECDBFDF91CF910895CF93DF9300D07A
:103CE0001F92CDB7DEB720910C03243041F520910F
:103CF0001001222321F123E029839B838A8382E020
:103D00008093E9008FEF9091E800815095FD06C007
:103D100095ED9A95F1F700008111F5CF8091E800BB
:103D200085FF0DC050E040E063E070E0CE010196F9
:103D30000E947E0E8091E8008E778093E8000F90BD
:103D40000F900F90DF91CF910895CF93DF9300D024
:103D50001F92CDB7DEB720910C03243081F520915E
:103D60001001222361F119821A821B8222E0298329
:103D70008138910520F0805891099B838A8382E0E5
:103D80008093E9008FEF9091E800815095FD06C087
:103D900095ED9A95F1F700008111F5CF8091E8003B
:103DA00085FF0DC050E040E063E070E0CE01019679
:103DB0000E947E0E8091E8008E778093E8000F903D
:103DC0000F900F90DF91CF91089520910C03243034
:103DD00049F522E02093E9002FEF3091E8002150CF
:103DE00035FD06C035ED3A95F1F700002111F5CF0C
:103DF0002091E80025FF16C02091100150E040E01E
:103E000063E070E0222339F021E02093F10050E0DC
:103E100040E065E070E00E947E0E8091E8008E77C1
:103E20008093E8000895CF93DF9320910C03243012
:103E3000D9F4EC01809112018823F1F080911101F5
:103E40008823D1F081E08093E90081E8815021F05E
:103E50009091E80095FF0BC08091E80050E040E0B1
:103E600060E270E085FD1AC0DF91CF9108959AE27B
:103E70009A95F1F700C0EACF81E08093E90081E8EC
:103E8000815021F09091E80095FF19C08091E800E1
:103E900085FFEACF50E040E068E070E0CE010E948C
:103EA0007E0E8091E8008E778093E80080E2FE012C
:103EB000A1EEB2E001900D928A95E1F7D5CFEFE344
:103EC000F1E03197F1F700C00000DACFCF93DF9334
:103ED000EC0199B14A8D8091DD032C813D81211542
:103EE000304849F58E832C813D81369527953D8359
:103EF0002C8321E030E001C0220F4A95EAF7892F98
:103F0000822329F08C819D8190689D838C838C8194
:103F10009D81992780359105D1F170F5803191050A
:103F2000B1F108F5892B29F11A828C819D81998341
:103F3000888380E809C02E81821B8530A0F28C81A5
:103F40009D819983888380E28B839BB18B8D809543
:103F500089238BB98AB19B8D892B8AB980E090E83F
:103F60009D838C8306C08032910519F080349105C1
:103F7000D9F6DF91CF910895803A910509F462C096
:103F800090F480389105A9F38039910569F68C8108
:103F90009D81998388838C819D8180399A4A09F01B
:103FA00080C082E0D1CF803C910521F0803D910519
:103FB00071F3BACF8C819D81998388838C819D8197
:103FC000892F99279D838C8382E28A838A8184FF4B
:103FD00012C09BB18B8D809589238BB98AB19B8D43
:103FE000892B8AB987E592E00197F1F700C00000BC
:103FF000CE010E948B112C813D818F81FE01E80F43
:10400000F11D21878F5F8F708F8390E001968F70F5
:10401000992728852817190671F49DB38B8D8095F3
:1040200089238DBB9BB18B8D809589238BB98AB1F8
:104030009B8D892B8AB99F81888598138FCF80E4C7
:104040008B838CCF8A81811124C084E699B12B8D1A
:10405000922369F4882359F095E09A95F1F70000CE
:104060008150F4CF25E02A95F1F70000815099B1F5
:104070002B8D922399F08111F5CF8C819D819983AD
:1040800088838C819D81892F99279D838C8381E2F0
:104090009CCF8A81813209F06CCFEFCF811169CF3B
:1040A000ECCF8C819D812C813D8196FB882780F906
:1040B00056E0369527955A95E1F78227282F30E06C
:1040C000982F9E7F21F0359527958170F6CF81112D
:1040D00002C081E039CF8C819D8197FF0CC080E1C7
:1040E0008A838C819D8126E0969587952A95E1F7B4
:1040F0009D838C836BCF81E1F3CF0F931F93CF937D
:104100008C01CAE1C15069F0C8010E94AE138F3F13
:10411000980749F48FE99FE00197F1F700C000008C
:10412000F1CF8FEF9FEFCF911F910F910895FC0179
:104130008AB1948D909598239AB98BB1948D892BDF
:104140008BB985E08A95F1F7000099B1848D9823A9
:1041500081E009F480E00895FC018AB1938D909587
:1041600098239AB98BB1938D892B8BB985E08A9569
:10417000F1F7000099B1838D982381E009F480E084
:1041800008950F931F93CF93DF938C01EB01C80128
:10419000E3DF811108C0209731F085E08A95F1F7BF
:1041A00000002197F4CFCE01DF91CF911F910F91A5
:1041B00008950F931F93CF93DF938C01EB01C801F8
:1041C000CBDF882341F0209731F085E08A95F1F725
:1041D00000002197F4CFCE01DF91CF911F910F9175
:1041E0000895DF92EF92FF920F931F93CF93DF9387
:1041F000EC01D62E1B828091E30380FF0CC01F923E
:104200006F938BE591E09F938F930E94892D0F9080
:104210000F900F900F908C819D8181159048E1F057
:104220008091E30380FF0EC08C819D819F938F93CB
:1042300081E591E09F938F930E94892D0F900F90BD
:104240000F900F908FEF9FEFDF91CF911F910F9104
:10425000FF90EF90DF9008959DB38B8D809589231B
:104260008DBB8BE0E82EFF24F394CE010E943B111E
:104270008FE193E00197F1F700C00000CE010E94AA
:1042800080118FE193E00197F1F700C00000CE01AB
:104290000E948B1168E97AE3CE018BDF892BC1F490
:1042A00081E08B838B81813009F0BEC0EA94EE20DF
:1042B00009F4BAC01B828091E30380FFD6CF8EE45D
:1042C00091E09F938F930E94892D0F900F90CDCFF7
:1042D00010E000E090E59A95F1F78D2D90E0002E2A
:1042E00002C0959587950A94E2F780FF0DC081E0A2
:1042F000F826CE010E94301162E370E0CE0141DF6A
:10430000892B31F482E0CDCFCE010E948011F4CF11
:1043100062E370E0CE014DDF892B11F483E0C1CF61
:104320000F5F1F4F08301105A9F620E52A95F1F718
:10433000CE01FF2051F00E94301162E370E0CE0107
:1043400020DF892B29F484E0ACCF0E948011F5CFC7
:1043500062E370E0CE012DDF892B11F485E0A1CF5F
:1043600080E58A95F1F7CE010E9430110CE211E050
:10437000CE01DDDE882351F00115110549F095E0ED
:104380009A95F1F7000001501109F2CF012B11F4B9
:1043900086E087CF0CE211E0CE01C9DE81110AC0B0
:1043A0000115110549F025E02A95F1F700000150AB
:1043B0001109F2CF012B11F487E073CF6CE271E0A9
:1043C000CE01DFDE892B11F488E06BCF8A8184FF78
:1043D00012C080E58A95F1F79BB18B8D809589237A
:1043E0008BB98AB19B8D892B8AB987E592E00197B9
:1043F000F1F700C00000198218821A821B8280E047
:1044000090E89D838C831F821886CE010E949611AE
:10441000CE010E942611CE01DF91CF911F910F9105
:10442000FF90EF90DF9069CE8C819D819983888386
:104430008B8180618B83CE010E943B118FE39FE1D2
:104440000197F1F700C00000CE010E949611CE0145
:104450000E942611F7CE0F931F93CF93DF938C0109
:10446000EB0169EEFC0180819181BBDEF801808166
:10447000918143DE8883F801808191813EDE8983CA
:10448000F8018081918139DE8A8399279F938F93E8
:1044900089811F928F9388811F928F9387E594E083
:1044A0009F938F930E94892D8DB79EB708960FB664
:1044B000F8949EBF0FBE8DBFDF91CF911F910F91DA
:1044C00008950F931F93CF93DF93FC01A081B181D7
:1044D00012968C911297813139F112968C91129724
:1044E000813229F112968C911297823219F18F0143
:1044F00062EFCD0176DE8F3F9807F9F08A3F910594
:10450000F9F4C8010E94F0138F3F9807E1F0D82F0B
:10451000CC27C8010E94F0139E01282BC901DF910E
:10452000CF911F910F9108958DEF9FEFF8CF8CEFF2
:104530009FEFF5CF8BEF9FEFF2CF8FEF9FEFEFCF96
:104540008EEF9FEFECCF90E080E0E9CF0F931F93C9
:10455000CF93FC0124812230C0F02430B1F062FB03
:10456000CC27C0F960FDC26061FDC460FC01008120
:1045700011816DEEC80135DE8A3F910531F46C2F53
:10458000C801CF911F910F912CCECF911F910F9108
:104590000895CF93C82F682F86EF93E0D7DF6C2F55
:1045A00088EE93E0CF91D2CFAF92BF92CF92DF92BD
:1045B000EF92FF920F931F93CF93DF9300D000D021
:1045C0001F92CDB7DEB78C01DC01ED91FC918381A8
:1045D000882369F1E080F180D3800E94E408FF9293
:1045E000EF921F92DF929F938F9380EC92E09F93C4
:1045F0008F930E94892DD801ED91FC9111978381B1
:1046000080750FB6F894DEBF0FBECDBF51F48CE0BD
:1046100018968C9318978381823019F48DE0189640
:104620008C931382D801ED91FC9111821082D801F4
:10463000ED91FC9111978281882309F443C0928106
:1046400015968C919817F1F1E080F180D2800E944C
:10465000E408FF92EF921F92DF929F938F9389EA73
:1046600092E09F938F930E94892DF80185810FB668
:10467000F894DEBF0FBECDBF0190F081E02D85FF25
:1046800003C0928194FD05C084FF13C0828185FF21
:1046900010C0D80118968C918B3059F482EA92E0C0
:1046A0009F938F930E94892D8CE0F80180870F9053
:1046B0000F90D801ED91FC911197828115968C9302
:1046C00011821082D8011896EC911897EE3008F0FC
:1046D0004EC0F0E0E259FC4D0C94D8317C23A42369
:1046E000C823E323F923042433244B246F248E248A
:1046F000C625F325602B482B0E94E4089F938F93D7
:104700008DE992E09F938F930E94892D0E94E40887
:10471000F801978386830190F081E02D1182108249
:104720001282138280E090E895838483178210863A
:10473000D801ED90FC90C7010E942611C7010E948C
:10474000961181E0F80189C0D8018D919C910E9459
:10475000AE130196C9F7F801868197810E94D508AA
:10476000893B9B4020F082E0D80118968C9381E031
:104770000F900F900F900F900F90DF91CF911F919E
:104780000F91FF90EF90DF90CF90BF90AF90089582
:104790000E94E4089F938F9388E992E09F938F9300
:1047A0000E94892D6FEFF801808191811ADD0F90B1
:1047B0000F900F900F908A3F910511F486E0D4CFAF
:1047C00083E0F80114C0ED91FC918DB3938D909529
:1047D00098239DBBCF010E943B112E98269A2F98BB
:1047E000279A0E94E408F8019783868384E08087F3
:1047F000BECF16968D919C910E94D508853F914021
:1048000008F4B5CF85E0DDCF2E9826982F9827980D
:10481000ED91FC911197118210821282138280E037
:1048200090E89583848317821086ED90FC90C701F1
:104830000E942611C7010E9496110E94E4089F93CE
:104840008F9383E992E09F938F930E94892D0E941A
:10485000E408F8019783868386E080870F900F90A5
:104860000F900F9084CF8D919C910E94AE13019672
:1048700009F47DCF0E94E4089F938F938EE892E025
:104880009F938F930E94892D0E94E408F8019783DB
:10489000868387E0E2CF16968D919C910E94D50881
:1048A000853F914018F089E0F8018087D8018D910B
:1048B0009C910E94AE13019609F459CF0E94E4081E
:1048C0009F938F9389E892E09F938F930E94892D05
:1048D0000E94E408F8019783868388E0BECF16968D
:1048E0008D919C910E94D508853F914018F089E0F8
:1048F000F8018087D8018D919C910E94AE1301969A
:1049000009F435CF0E94E4089F938F9384E892E0E6
:104910009F938F930E94892D89E014CFC801D1DD28
:10492000D80113969C938E9312970E94E4089F934C
:104930008F938FE792E09F938F930E94892DF801C8
:10494000828193810F900F900F900F90009769F5DF
:1049500082E0D80114968C93F8018281938128E338
:1049600031E08F3F980709F4E1C08E3F2FEF9207A7
:1049700009F4DAC08D3F3FEF930709F4F8C02BE448
:1049800031E08C3FAFEF9A0709F4D0C020E531E069
:104990008B3FBFEF9B0709F4C9C027E531E00097C3
:1049A00009F4C4C02AE431E0C1C08F3F980721F464
:1049B00081E0F8018483D0CF9C012D5F3F4F2230EE
:1049C000310530F22E5F3F4F2230310588F38F3FA3
:1049D000910511F484E0BDCF9C0125583B4A22305B
:1049E000310520F08239BBEA9B07A1F460EFF801A2
:1049F00080819181F6DB8A3F910509F0A9CF63E0C0
:104A0000D8018D919C91EDDB8A3F910509F0A0CFF3
:104A100083E0CFCF9C0120593B4A2230310508F07A
:104A200051C081E792E09F938F930E94892D82E08D
:104A3000D80114968C93149760EF8D919C91D1DBE3
:104A40000F900F908A3F9105D1F081E692E09F93FD
:104A50008F930E94892D0F900F90F801828193818E
:104A600081399B4A09F078CF60EFF801808191810C
:104A7000B8DB8A3F9105A1F089E592E00AC062E8BF
:104A8000D8018D919C91ADDB8A3F9105F1F68DE5C2
:104A900092E09F938F930E94892D0F900F905CCF8F
:104AA00063E0D8018D919C919CDB8A3F910521F7B1
:104AB00085E592E09F938F930E94892D83E0F80112
:104AC0008483EBCF803BFFEB9F0709F4A1CF8827BE
:104AD00081152BEA920709F43BCF81153FEB930731
:104AE00009F496CF81159F4709F492CF89E392E0AC
:104AF0009F938F930E94892D60EFF80180819181AF
:104B000070DB0F900F908A3F910529F060EFD8017C
:104B10008D919C916FCF62E0F8018081918161DB82
:104B20008A3F910599F714CF2EE331E0F8014481D3
:104B3000413001F1423009F1433011F1443019F5AF
:104B40004DE651E03F932F935F934F939F938F9345
:104B500089E292E09F938F93DCD78AE0D801189680
:104B60008C930FB6F894DEBF0FBECDBF00CE25E408
:104B700031E0DCCF4EE551E0E5CF41E651E0E2CF58
:104B800044E651E0DFCF49E351E0DCCF0E94E40886
:104B90009F938F9384E292E09F938F93BAD70F9065
:104BA0000F900F900F90D80114968C91149783302A
:104BB00009F440C0843009F443C0823019F40E94E3
:104BC000710AE7DC8BE0D80118968C930E94E40808
:104BD0009F938F9380EF91E09F938F939AD70F903D
:104BE0000F900F900F90F801808191810E94AE1379
:104BF0006C01019609F4BBCDD80114968C911497E1
:104C0000823009F4DBC108F059C1813009F0AFCD21
:104C10008C2DF8019185923009F4BFC108F075C15F
:104C2000992309F47DC1913009F496C1D8011996F0
:104C30001C929DCD68EFF80180819181D2DABFCFBF
:104C400065EF8D919C91CDDA6AEEF80180819181BA
:104C5000C8DABE016F5F7F4FC801FDDB8DE192E0D6
:104C60009F938F9356D768EED8018D919C91B9DAB6
:104C700060E0F80180819181B4DA66EED8018D910F
:104C80009C91AFDA66EEF80180819181AADA66EE36
:104C9000D8018D919C91A5DABE016F5F7F4FC8014D
:104CA000DADB0F900F908981882309F469C08A812B
:104CB000882309F465C086E192E09F938F9329D7FA
:104CC00066EEF801808191818CDA68EED8018D91D1
:104CD0009C9187DA60E0F8018081918182DA68EE48
:104CE000D8018D919C917DDA63E0F80180819181FA
:104CF00078DA68EED8018D919C9173DA62E0F80160
:104D0000808191816EDA68EED8018D919C9169DA8B
:104D100061E0F8018081918164DA66EED8018D91BD
:104D20009C915FDA68EEF801808191815ADA63E044
:104D3000D8018D919C9155DA68EEF80180819181BE
:104D400050DA61E0D8018D919C914BDA68EEF80160
:104D50008081918146DA62E0D8018D919C9141DA9F
:104D600068EEF801808191813CDA63E0D8018D9191
:104D70009C9137DA89E0F80184870F900F9060C02A
:104D80008FE092E09F938F93C4D663EFD8018D910B
:104D90009C9127DA68ECF8018081918122DA63EF37
:104DA000D8018D919C911DDA64E6F8018081918192
:104DB00018DA63EFD8018D919C9113DA60E5F80160
:104DC000808191810EDAC8017CDB292F30E00F90C1
:104DD0000F9083E02330310509F080E0D8011C9664
:104DE0008C9388E092E09F938F9393D663EFF801C2
:104DF00080819181F6D968ECD8018D919C91F1D98F
:104E000063EFF80180819181ECD968ECD8018D9134
:104E10009C91E7D963EFF80180819181E2D960E547
:104E2000D8018D919C91DDD9C8014BDB292F30E051
:104E30000F900F902430310529F584E0F801848724
:104E400064EFD8018D919C91CCD9BE016F5F7F4FEB
:104E5000C80101DBF8018485893021F1833029F113
:104E6000843031F1811127C08DE891E09F938F93B9
:104E700085EF91E09F938F934CD60F900F900F90FA
:104E80000F90A0CED8011C968C918111D9CF81E0D2
:104E900092E09F938F933DD666EFF80180819181D8
:104EA000A0D96BCF83E791E0E1CF8CE791E0DECF33
:104EB00084E891E0DBCF85E991E0D8CF833009F435
:104EC00074C1843009F053CC8D919C9116D95C014A
:104ED000019609F4BBC0D8018D919C910ED97C013B
:104EE000019609F4B3C0F80184859585853008F0F2
:104EF00062C2833008F098C2882309F495C240E06A
:104F0000F12CE12CB12CA12CB6C3933009F44EC086
:104F1000943009F08BCE65E5853C09F087CE39C029
:104F2000813E51F08F3F09F478C0803E49F481E022
:104F3000D80119968C931BCC82E0F801818717CC9D
:104F40006C2DC7FC04C0C8010E94EE1010CC6F7716
:104F5000C8010E94C7100BCC863309F467CE78F4E1
:104F60008A3209F463CE8C2DC7FC0FC00E949E11BB
:104F7000682FC8010E94EE10F8011186F8CB8A3A1A
:104F800009F454CE863B79F751CE8F770E949E115B
:104F9000682FC8010E94C710EFCF8D3129F08D39DD
:104FA00009F044CE84E0C9CF83E0C2CF853409F054
:104FB0003DCE65E5C8010E94EE1038CEFC2C1A9655
:104FC000EC911A97EB3008F063C0F0E0E651F84D31
:104FD0000C94D831F5275E283F288D28A528AF28C6
:104FE000B428B928BF28C428CF28F801828193812A
:104FF00080599B4A029720F48C2D0E94C906F82EF6
:10500000F4E8FF16B9F1FF1558F020E8F21649F15F
:1050100033E8F31641F1F1100DC00E944F15A7CBF4
:1050200081EEF816D1F090EFF91691F0A0EE82E043
:10503000FA16A1F06F2DF7FE86CF0E94131187E9B3
:1050400091E09F938F9365D50F900F908CE0B9CB33
:1050500081E0D8011A968C938ACB84E0F80182878C
:1050600086CB89E0F6CF62E0C8010E94EE10F8011D
:1050700012867DCB6FE7C8010E94EE1009C0B9E52A
:10508000CB1631F0E0EFCE1639F0F2E1CF1206C0C8
:10509000D8011A961C926BCB83E0E0CFD8011A9608
:1050A0001C92C7FC06C06C2DC8010E94E00F682F3F
:1050B0004ACF0E9413118DE891E0C3CFF80182819D
:1050C000938180599B4A029720F48C2D0E94C90637
:1050D000F82EF3E8FF16B9F024E8F216C9F0D8016B
:1050E0001A961C926F2DF7FE33CF0E9413111F9258
:1050F000FF928EE791E09F938F930BD50F900F90C7
:105100000F900F90A3CF62E0C8010E94C710C0CFDC
:105110006FE7C8010E94C710AACFB2E1CB1609F40D
:10512000B7CFE9E5CE1609F4B3CFD8011A961C9291
:10513000C7FC06C06C2DC8010E94E00F682F08CF85
:105140000E94131181E791E07CCFB4E1CB1629F0E6
:10515000E0EFCE129DCF86E081CF85E07ACFF7E7F2
:10516000CF1296CF60E087CFB4E1CB1291CF87E02A
:1051700075CFF0EF88E0CF1609F46BCF89CFB7E792
:10518000CB1286CF60E0C5CFF0EFCF1202C08AE02D
:1051900060CFF80112868C2D0E94670688CF1A9680
:1051A0001C928C2D0E946706C9CF8C2D8F3B29F055
:1051B00090F496E59C0D923080F4D8011B961C92D9
:1051C0008AEB91E09F938F93A4D48CE0F8018087C1
:1051D0000F900F90CCCA8C3F81F3D8011B969C9105
:1051E0001B97913009F473C098F0923009F4BCC059
:1051F000933009F0BCCA8E3109F4DBC008F0D0C08E
:1052000061E5863109F0B8C0C8010E94C710C1C06D
:10521000F801228133812239FBEA3F0719F58C35E9
:1052200009F451C0B8F4833109F44FC0863809F449
:105230003EC030F58338B9F1E0F4882309F4EDCEAF
:105240008038E9F187FF33CF8DEA91E09F938F9308
:1052500060D4BECF863721F08E3741F786E727CF5F
:105260008EE725CF21393B4A09F78C2D0E94F006A5
:10527000DDCF8438D1F068E6853809F464CEE2CF1A
:105280008C38C9F038F48738A1F061E08B3809F424
:105290005ACED8CF8D3889F0803FA1F681E0D80171
:1052A0001B968C9364CA62E04ECE6FE74CCE68E7E3
:1052B0004ACE60E048CE69E046CE6AE044CE82E065
:1052C000F801838754CA81E5F2CE8DE5F0CE1B96B6
:1052D0001C921B9712962D913C912239BBEA3B07F9
:1052E00019F58C3509F437C0B8F4833109F435C0A9
:1052F000EDE7E80FEB3098F5F0E0EF57F64D0C9442
:10530000D8319B299D299F29A129A329AF29AF29FC
:10531000AF29A529A729A929863721F08E3741F77A
:1053200086E70CCF8EE70ACF21393B4A09F78C2D4F
:105330000E94F006DDCF62E00BCE6FE709CE68E693
:1053400007CE68E705CE60E003CE61E001CE69E0FC
:10535000FFCD6AE0FDCD81E5F1CE8DE5EFCE87FF93
:10536000EDCE83EA91E072CF8532B1F040F4863120
:10537000A9F060E08E3151F00E9413110AC086320C
:1053800021F0803FC9F783E08ACF6DE5C8010E9414
:10539000EE10F8011386EBC963E5F8CF61E5F6CFAF
:1053A000853229F06DE5863209F42ECFE5CF63E52D
:1053B0002BCF60E029CF893009F0A1CD9601287468
:1053C00033272834310509F037C1A1FE35C1D59402
:1053D000C794D594C794BCE0CB22DD24950154E05A
:1053E000359527955A95E1F7237033272C293D29C8
:1053F0002230310509F4C7C02330310509F406C154
:105400002130310509F028C1E6FC5CC09701287005
:1054100033274E2D4F70E7FE39C080EF232B09F460
:1054200080E0482B80E038C0987F2C2D2770922B8D
:10543000D8011D969C93C4FE02C0BB24BA94C5FE3D
:1054400002C0FF24FA94833009F40BC1843009F0C0
:10545000DBC0D8018D919C910E947D209C0101961A
:1054600009F4D2C080EF23FF80E0422F4F70842BDD
:10547000F801958524FF01C198609587F80195850D
:1054800025FFFEC09061958740E028C080EF232B68
:1054900009F480E0842B40E0E4FE16C09860F80137
:1054A0009587F80195855701F0E2AF22BB24E5FE10
:1054B00010C09061D8011D969C93F12CE12CB12C69
:1054C000A12C0CC040E0AECF977FD8011D969C93D5
:1054D000E8CF9F7EF8019587F12CE12CF8019585A6
:1054E00099832FE7F0E8AF16B10444F4950191E8F1
:1054F000A9169FEFB90614F421E83FEF2A83A0E82C
:10550000EA16F1040CF0BFC0B1E8EB16BFEFFB06E2
:1055100024F421E8E22EFF24FA94E194EB8280380F
:1055200009F4B4C081958C83403809F441E84D8377
:10553000CE0101960E94550A898180930D031F9226
:105540008F938D81282F082E000C330B3F938F9360
:105550008C81282F082E000C330B3F938F938B8167
:10556000282F082E000C330B3F938F938A81282F0E
:10557000082E000C330B3F938F9381ED91E09F93A6
:105580008F93C7D2EECAE0FE2AC090649587D801F7
:105590001D968C911D97E1FE25C080681D968C9309
:1055A000D8011D968C911D97E2FE20C080621D9649
:1055B0008C93D8011D968C911D97E3FE1BC08064CF
:1055C0001D968C93D8011D968C915701B0E1AB22AA
:1055D000BB24E4FE13C08068F801858790CC9F7BD4
:1055E0009587D5CF8F77F8018587DACF8F7DF80142
:1055F0008587DFCF8F7BF8018587E4CF8F77D80150
:105600001D968C93F12CE12C40E035C0A70134E0CD
:10561000559547953A95E1F7842F8F7040E0E7FE66
:1056200003C0482F406F80E0987FBE2DB770EB2EEF
:10563000E92AF801E58641CF987F8C2D8770982B59
:10564000D8011D969C93C4FE02C0BB24BA94C5FE2B
:10565000DBCFFF24FA94D8CFF12CE12CB12CA12C74
:10566000D3CFF801808191810E947D2040E08F3F5F
:10567000980709F033CF80E031CF977F9587FECE32
:105680009F7E958701CF91E8E92E48CF8FE74BCFDA
:105690000E94E4089F938F938CEC91E09F938F93EB
:1056A00038D26EEFD8018D919C910E94F1200F901D
:1056B0000F900F900F908A3A910511F489E081C8FC
:1056C0000E94E4089F938F9387EC91E09F938F93C0
:1056D00020D2D80113961C921E92129714961C92F7
:1056E000149715961C920E941311F80180819181E4
:1056F0000E9447110E944F15D80118961C92AEC8FF
:1057000078941F920F920FB60F9211248F939F934C
:10571000AF93BF938091DD039091DE03A091DF03EF
:10572000B091E0030196A11DB11D8093DD0390931C
:10573000DE03A093DF03B093E003BF91AF919F918D
:105740008F910F900FBE0F901F9018951F920F9280
:105750000FB60F9211248F939F93AF93BF938091B5
:10576000DD039091DE03A091DF03B091E003419649
:10577000A11DB11D8093DD039093DE03A093DF0391
:10578000B093E003BF91AF919F918F910F900FBEA7
:105790000F901F9018951F920F920FB60F92112421
:1057A0002F933F934F935F936F937F938F939F9329
:1057B000AF93BF93EF93FF938091E10082FF09C005
:1057C0008091E20082FF05C08091E1008B7F809391
:1057D000E1008091E10080FF21C08091E20080FF24
:1057E0001DC08091E2008E7F8093E2008091E200F4
:1057F00080618093E2008091D80080628093D8001D
:1058000019BC85E080930C038091E0028093DF0255
:105810001092E0020E9413110E940E158091E10087
:1058200084FF2FC08091E20084FF2BC084E089BDFB
:1058300086E089BD09B400FEFDCF8091D8008F7D40
:105840008093D8008091E1008F7E8093E100809169
:10585000E2008F7E8093E2008091E200816080937D
:10586000E20080910303882309F45AC084E0809306
:105870000C030E9413110E940E158091DF02809389
:10588000E0028091E10083FF3AC08091E20083FF53
:1058900036C08091E100877F8093E10082E08093B1
:1058A0000C03109203038091E1008E7F8093E1004E
:1058B0008091E2008E7F8093E2008091E20080611F
:1058C0008093E20042E060E080E00E945C0B81E0B7
:1058D000809312011092E1031092E00280E2E1EE67
:1058E000F2E0DF011D928A95E9F7EBE9F2E011920F
:1058F000B2E0EA3BFB07D9F781E080931001FF910A
:10590000EF91BF91AF919F918F917F916F915F9137
:105910004F913F912F910F900FBE0F901F901895B0
:105920008091E30087FD02C081E0A1CF83E09FCF9B
:105930001F920F920FB60F9211242F933F934F9304
:105940005F936F937F938F939F93AF93BF93EF93E7
:10595000FF9384E094E00E94661FFF91EF91BF9156
:10596000AF919F918F917F916F915F914F913F91F7
:105970002F910F900FBE0F901F9018951F920F92AE
:105980000FB60F9211242F933F934F935F936F9312
:105990007F938F939F93AF93BF93EF93FF9381E296
:1059A00094E00E94661FFF91EF91BF91AF919F918C
:1059B0008F917F916F915F914F913F912F910F90B8
:1059C0000FBE0F901F901895FF93EF93E0913E0448
:1059D000F0913F04309709F00995EF91FF910895F8
:1059E000FC018591803011F0EFDFFBCF0895FF2798
:1059F000E0E230E247FF0CC0419597FF09C0EDE2BD
:105A00006095709580959095611D711D811D911D0A
:105A100027FF02C0219530E350E2AA27660F771FC7
:105A2000881F991FAA1FA41710F0A41B63955A95ED
:105A3000A9F7AA3008F0A95FA05DAF93F3956115AF
:105A400071058105910541F7ED3211F4EF93F3955E
:105A5000F21718F43F93F395FBCF8F91B5DFFA95CA
:105A6000E1F70895E991F9918591803021F085322F
:105A700019F0AADFF9CF089520E0E8945591553246
:105A8000C1F3503311F4689455915A3348F450538C
:105A900090F3220F022E220F220F200D250FF4CF9C
:105AA0000EF4219589919991533619F3533729F1C1
:105AB000533559F1BC0188279927E8945C3621F4C5
:105AC0008991999168945591543639F446EF7EF056
:105AD00077FF0DC08FEF9FEF0AC055374AE039F0CE
