:1000000019C600008DC600000C94C32D89C60000DF
:100010000C94992D85C6000083C6000081C600009F
:100020007FC600007DC600000C949F2C79C600009E
:100030000C947A2C75C6000073C6000071C60000CF
:100040006FC600006DC600006BC6000069C60000E8
:1000500067C600000C94542C63C6000061C6000003
:100060005FC600005DC600005BC6000059C6000008
:1000700057C6000055C6000053C6000051C6000018
:100080004FC600004DC600004BC6000049C6000028
:1000900047C6000045C600000631FF0974A10109EA
:1000A00075150026FF009520750881020976150058
:1000B00026FF00952075089102C005010902A101E3
:1000C0000901A1008501050919012908150025016B
:1000D0009508750181020501093009311581257FD7
:1000E00095027508810609381581257F95017508E7
:1000F0008106050C0A38021581257F950175088156
:1001000006C0C005010980A101850216010026373D
:10011000001A81002AB700751095018100C0050CF6
:100120000901A1018503160100269C021A01002A7B
:100130009C02751095018100C005010906A1010509
:100140000719E029E71500250195087501810205C9
:10015000081901290595057501910295017503910D
:10016000010507190029F71500250195F87501818A
:1001700002C05220006973723A253034582000774B
:10018000253032582000722530325820000A5B4357
:100190004C525D2000214353325F45305F46302191
:1001A0000A00214353325F46302120253032580A5D
:1001B00000214353325F4530210A00214353325F0F
:1001C000494E4954210A00214353335F4630210AE6
:1001D00000214353335F5245414459210A002143D2
:1001E00053335F5245534554210A0045257520007D
:1001F00050257520004D5B783A256420793A2564B6
:1002000020763A256420683A256420623A25303207
:10021000585D0A004C257520000A4D6F7573653ACC
:100220002025730A000A4445463A20000A455850E2
:100230003A20000A494E543A20000A4C4F473A20CF
:10024000000A4C4D533A200053257520000A4944BA
:100250003A2530345828257325732920000A556E15
:100260006B6E6F776E2049443A205265706F7274DE
:1002700020746F20544D4B20004F4B20004E4720E0
:10028000004F4B20004E47200A54656C6576696428
:10029000656F3A20000A353537365F435338326888
:1002A0003A200052257520005725752000572575E6
:1002B0002000572575200058257520004125752000
:1002C0000049257520005B4348475D20000A2575DD
:1002D000205052543A25303258204953523A253052
:1002E000345820000A2575204552523A253032589C
:1002F000204953523A253034582000007B460102F1
:1003000003763A687F6577482B353B69787964399D
:10031000141E3C6A7A1D16041A1F3D6B061B070843
:1003200021203E6C2C19091715223F6D11050B0A6F
:100330001C23406E7E100D182425416F360E0C12C2
:100340002726427037380F33132D43717534322FFF
:100350002E44727C7D28303174457351504A524D81
:10036000492A5466594F5C5F4C4B4E62635A5D5E3E
:1003700060295367585B56576147554842403E3C99
:100380003A3B456843413F3D2B357E697A79007899
:10039000141E7B6A7C1D16041A1F7F6B061B070840
:1003A0002120656C2C19091715224A6D11050B0ABD
:1003B0001C234C6E49100D182425516F360E0C125B
:1003C00027264F7037380F33132D52717534502F45
:1003D0002E4E72397D28304D314B735464586776F8
:1003E000012A773259745C5F66020362635A5D5E6C
:1003F00060295344575B565561474680291E1F208C
:10040000212223242526272D2E2A2B141A081517DE
:100410001C180C12132F302878041607090A0B0D2C
:100420000E0F33343579311D1B061905111036377F
:10043000387D557A2C393A3B3C3D3E3F4041424362
:1004400053475F6061565C5D5E57595A5B62634615
:1004500048644445677B7F650301025250514F68F1
:10046000696A6B6C6D6E6F7071725800494C754A99
:100470004D734B4E767C777E746654535B253032D9
:1004800058202530325820253032585D200025581C
:100490003A253031366225730A000A202030313285
:1004A000333435363738394142434445460A004CE7
:1004B00045443A20253032580A000A4C6F6F7020AC
:1004C00073746172742E0A000A55534220636F6E72
:1004D000666967757265642E0A000A544D4B3A339B
:1004E00063376361352F4C5546413A643661376452
:1004F000660A0009025400030100A032090400004A
:100500000103010100092111010001223900070541
:1005100081032000010904010001030102000921F7
:1005200011010001227F0007058203080001090470
:100530000200010300000009211101000122220034
:10054000070583032000011201100100000008EDDF
:10055000FEEE1B0102010200013403490042004D7E
:100560000020005000430020006B0065007900620D
:10057000006F00610072006400200063006F006E75
:1005800000760065007200740065007200000008CB
:100590000354004D004B000000040309040A6D6F72
:1005A0007573653A205B253032587C2564202564BC
:1005B0002025642025645D200073797374656D3A8D
:1005C00020253034580A00636F6E73756D65723A7A
:1005D00020253034580A003F004D3E2000433E2085
:1005E000000A00257500363A20776865656C5F74EF
:1005F000696D655F746F5F6D61783A20000A002550
:100600007500353A20776865656C5F6D61785F735A
:10061000706565643A20000A00257500343A20743C
:10062000696D655F746F5F6D61783A20000A00251F
:100630007500333A206D61785F73706565643A20A8
:10064000000A00257500323A20696E746572766181
:100650006C286D73293A20000A00257500313A2074
:1006600064656C6179282A31306D73293A20000A5B
:10067000092D2056616C756573202D0A004D3E00D2
:100680004D25643E20003F007365742064656661FB
:10069000756C740A00433E20000A00253032582051
:1006A000006B6579626F6172643A2000290A002547
:1006B00075002F002575005D2800256400200025A9
:1006C0006400200025640020002564007C002530A3
:1006D0003258006D6F7573656B6579205B62746E5F
:1006E0007C782079207620685D287265702F6163A0
:1006F0006C293A205B000A092D204D61676963204F
:100700002D0A643A0964656275670A783A09646576
:10071000627567206D61747269780A6B3A09646565
:10072000627567206B6579626F6172640A6D3A0960
:100730006465627567206D6F7573650A763A097630
:10074000657273696F6E0A733A09737461747573B5
:100750000A633A09636F6E736F6C65206D6F646531
:100760000A302D343A096C61796572302D3428468F
:1007700031302D4634290A506175733A09626F6F22
:10078000746C6F616465720A6E3A094E4B524F0A7F
:10079000000A092D20436F6E736F6C65202D0A458A
:1007A00053432F713A09717569740A6D3A096D6F77
:1007B0007573656B65790A003F004E4B524F3A20C6
:1007C0006F66660A004E4B524F3A206F6E0A0074F5
:1007D000696D65725F72656164333228293A20253C
:1007E00030346C580A006B6579626F6172645F6EB9
:1007F0006B726F3A2025580A006B6579626F6172DF
:10080000645F69646C653A2025580A006B657962FB
:100810006F6172645F70726F746F636F6C3A2025E2
:10082000580A00686F73745F6B6579626F617264F8
:100830005F6C65647328293A2025580A000A092D3F
:1008400020537461747573202D0A004743433A2086
:10085000372E332E30204156522D4C4942433A20F8
:10086000322E302E30204156525F415243483A20BA
:1008700061767235310A004F5054494F4E533A2039
:100880004C554641204D4F5553454B4559204558F1
:100890005452414B455920434F4E534F4C452043F2
:1008A0004F4D4D414E44204E4B524F204B45594DDC
:1008B00041505F53454354494F4E20424F4F544C93
:1008C0004F414445525F53495A450A004255494CED
:1008D000443A20336337636135202830363A353067
:1008E0003A3030204E6F7620323120323032342987
:1008F0000A005649443A2030784645454428544D2C
:100900004B29205049443A20307831424545284906
:10091000424D205043206B6579626F6172642063A1
:100920006F6E76657274657229205645523A203092
:1009300078303230310A00444553433A204445531D
:100940004352495054494F4E0A000A092D2056651A
:100950007273696F6E202D0A000A6D6F7573653AA8
:10096000206F66660A000A6D6F7573653A206F6EB8
:100970000A000A6B6579626F6172643A206F66667D
:100980000A000A6B6579626F6172643A206F6E0AC1
:10099000000A6D61747269783A206F66660A000A0F
:1009A0006D61747269783A206F6E0A000A6465623C
:1009B00075673A206F6E0A000A64656275673A20AF
:1009C0006F66660A000A0A626F6F746C6F61646515
:1009D000722E2E2E2000433E20006D6B5F776865DF
:1009E000656C5F74696D655F746F5F6D6178203DE4
:1009F0002025640A006D6B5F776865656C5F6D61CB
:100A0000785F7370656564203D2025640A006D6B16
:100A10005F74696D655F746F5F6D6178203D20253F
:100A2000640A006D6B5F6D61785F7370656564204B
:100A30003D2025640A006D6B5F696E746572766196
:100A40006C203D2025640A006D6B5F64656C6179E4
:100A5000203D2025640A006D6B5F776865656C5FDB
:100A600074696D655F746F5F6D6178203D202564EA
:100A70000A006D6B5F776865656C5F6D61785F73A9
:100A800070656564203D2025640A006D6B5F7469A4
:100A90006D655F746F5F6D6178203D2025640A008D
:100AA0006D6B5F6D61785F7370656564203D2025B7
:100AB000640A006D6B5F696E74657276616C203DCF
:100AC0002025640A006D6B5F64656C6179203D20B0
:100AD00025640A0077686572652064656C74613A04
:100AE00020637572736F723D25642C20776865658D
:100AF0006C3D25640A53656520687474703A2F2F25
:100B0000656E2E77696B6970656469612E6F7267B7
:100B10002F77696B692F4D6F7573655F6B6579739F
:100B20000A000A092D204D6F7573656B6579202DBC
:100B30000A4553432F713A09717569740A313A09AC
:100B400064656C6179282A31306D73290A323A095B
:100B5000696E74657276616C286D73290A333A097F
:100B60006D61785F73706565640A343A0974696D04
:100B7000655F746F5F6D61780A353A0977686565FE
:100B80006C5F6D61785F73706565640A363A0977EA
:100B90006865656C5F74696D655F746F5F6D6178C2
:100BA0000A0A703A097072696E742076616C756514
:100BB000730A643A097365742064656661756C74C0
:100BC000730A75703A092B310A646F776E3A092DF2
:100BD000310A706775703A092B31300A7067646F9B
:100BE000776E3A092D31300A0A7370656564203DCD
:100BF0002064656C7461202A206D61785F73706574
:100C00006564202A2028726570656174202F207425
:100C1000696D655F746F5F6D6178290A004C2564AA
:100C20000A00214353315F45305F25303258210A95
:100C300000009B2E11241FBECFEFD0E2DEBFCDBF40
:100C400004B603FE49C08091440490914504A091EC
:100C50004604B09147048730904BA740B04B09F051
:100C60003BC0109244041092450410924604109226
:100C7000470414BE0FB6F894A8958091600088616F
:100C800080936000109260000FBE109201081092D5
:100C9000000889E0E3E0F0E080935700E491E695F6
:100CA000E370E15020E030E2E33040F4F0E0EE0F9A
:100CB000FF1FEE5CFE4F2081318100C080E090E09C
:100CC000A2E0B0E0821B930BA109B109B595A795ED
:100CD00097958795FC01099511E0A0E0B1E0E0E56A
:100CE000F5E600E00BBF02C007900D92AA39B107EC
:100CF000D9F724E0AAE9B1E001C01D92A434B207FB
:100D0000E1F716E0CAE1D6E004C02197FE010E9497
:100D10008932C931D107C9F70E94E62E0C94A63258
:100D20006FC9823309F447C0F0F4843209F44BC030
:100D300070F48C3109F44DC020F48B3109F44DC0AE
:100D400008958D31F1F1833209F449C008958B3251
:100D500009F447C018F48A3261F108958C3209F120
:100D60008D32C9F108958234D1F040F4843399F082
:100D7000A0F08A3311F18C33B1F008958B34B9F0BF
:100D800028F4833491F0843401F108958D34F9F01E
:100D90008136A9F0089580E1089588E1089580E200
:100DA000089588E2089580E3089588E3089580E433
:100DB000089588E4089580E5089587E508958AE612
:100DC00008958FE5089587E1089585E608958EE6F4
:100DD00008958FE6089581E508958FE1089587E2EB
:100DE000089588E008958B35D9F058F4813101F1E8
:100DF00018F48E3089F00895833161F0843571F0F4
:100E00000895823689F018F48E3560F008958C3795
:100E100069F0089581E1089584E508958BE50895CA
:100E20008DE508958AE608958EE0089587E7089590
:100E30008FE00895863809F467C030F5873609F4E5
:100E40004DC088F48C3509F469C038F4883009F451
:100E500069C0873509F460C00895843609F442C03A
:100E60008536D1F10895873709F454C028F48D36BA
:100E7000B9F18E3679F108958438B1F108F042C0A5
:100E80008C3709F44DC008958C38D1F168F4893855
:100E900089F128F4873851F1883851F108958A385A
:100EA00059F18B3859F108958F3881F028F48D3835
:100EB00049F08E3849F00895813941F148F082397E
:100EC00039F1089587E7089587E608958FE7089533
:100ED0008BE7089585E608958DE6089582E60895E6
:100EE00084E608958EE608958CE7089582E00895DB
:100EF0008EE708958CE0089583E0089584E00895D6
:100F000085E0089588E0089580E1089581E00895DE
:100F100089E0089588E508958CE5089583E50895AE
:100F200088E6089586E70895803FC1F48091DE0346
:100F300087FD1092DE038091DD0381110EC0809148
:100F4000DE0381110AC08091DF03811106C0809108
:100F5000E003811102C01092D4030895813F29F467
:100F60008091DE0318162CF3E6CF9091DD03823FCB
:100F700029F497FFE0CF1092DD03DDCF833F19F412
:100F80001916CCF3D8CF893F39F48091DF031816B6
:100F900094F61092DF03CFCF8A3F29F48091DF03CC
:100FA00087FFC9CFF6CF8B3F39F48091E00387FFED
:100FB000C2CF1092E003BFCF8C3F29F48091E003B1
:100FC0001816BCF3B8CF843F31F48091DC038E7FD8
:100FD0008093DC03B0CF853F21F48091DC038D7FCB
:100FE000F7CF863F21F48091DC038B7FF1CF873FE1
:100FF00021F48091DC03877FEBCF883F21F480913F
:10100000DC038F7EE5CF8D3F31F48091D3038E7F5B
:101010008093D30390CF8E3F21F48091D3038D7FB3
:10102000F7CF8F3F09F087CF8091D3038B7FF0CF2D
:101030008091D30380FF0CC06091140170E075951E
:101040006795759567956115710549F1862F089526
:1010500081FF06C06091140170E075956795F3CF2C
:101060006091140182FD0BC09091D4039923A1F0EB
:101070006091130180911401961738F0682F70E089
:101080006038710500F38FE70895899FC00111242E
:1010900070E00E947632F4CF61E070E0D7CF81E05B
:1010A00008958091D30380FF12C06091160185E0FE
:1010B000689FB0011124759567957595679560389F
:1010C0007105A8F561157105A1F1862F089581FFBD
:1010D00009C06091160185E0689FB00111247595E3
:1010E0006795EDCF82FF07C06091160185E0689F8C
:1010F000B0011124E4CF2091D4032223A9F09091D0
:1011000015016091160185E0689FB001112429172F
:10111000B0F6269FA001279F500D1124692F70E083
:10112000CA010E947632CBCF65E070E0CECF8FE768
:10113000089581E00895803F29F4B3DF819580937D
:10114000DE030895813F11F4ACDFF9CF823F29F42B
:10115000A8DF81958093DD030895833F11F4A1DF1B
:10116000F9CF893F21F464DF8093DF0308958A3F3C
:1011700019F45EDF8195F8CF8B3F29F459DF819513
:101180008093E00308958C3F11F452DFF9CF843F40
:1011900031F48091DC0381608093DC030895853F06
:1011A00021F48091DC038260F7CF863F21F48091A7
:1011B000DC038460F1CF873F21F48091DC038860F9
:1011C000EBCF883F21F48091DC038061E5CF8D3F38
:1011D00031F48091D30381608093D30308958E3FCF
:1011E00021F48091D3038260F7CF8F3FB9F78091CC
:1011F000D3038460F1CF9C014FB7F8948091E10351
:101200009091E203A091E303B091E4034FBF821BEE
:10121000930B08952FB7F8948091E1039091E20326
:10122000A091E303B091E4032FBF0895829590E06D
:101230009C01220F331F220F331F2C7C959587951D
:10124000959587958373282B30E0C901880F991FE6
:101250008A7A359527952575822B08958F929F92CE
:10126000AF92BF92CF92DF92EF92FF920F931F93B4
:10127000CF93DF9300D000D01F92CDB7DEB76B8342
:101280007C838D838C819D81892B39F05F3F19F49C
:1012900081E04F3F19F080E001C081E080FF14C081
:1012A00080E090E00F900F900F900F900F90DF91E3
:1012B000CF911F910F91FF90EF90DF90CF90BF9053
:1012C000AF909F908F900895852F90E0242F30E06D
:1012D0006B81662309F467C080904A0390904B03AA
:1012E000A0904C03B0904D03C090E803D090E90368
:1012F000E090EA03F090EB03C828D928EA28FB28FD
:101300006FE170E0A62F46015701062E04C0B69487
:10131000A794979487940A94D2F780FE1DC0E52F76
:10132000E7708B01F3E0000F111FFA95E1F70E0F44
:10133000111DB4E0000F111FBA95E1F7E42FEF7013
:10134000E00FF12FF11DEE0FFF1FE050F84905915E
:1013500014910130110521F46150710998F6A0E053
:10136000FC0174E0EE0FFF1F7A95E1F7E25BFC4FA2
:10137000E20FF31FA08328E0A29FC0011124577041
:10138000850F911D24E0880F991F2A95E1F7E42F1E
:10139000EF70E80FF92FF11DEE0FFF1FE050F84935
:1013A000859194917FCFFC0164E0EE0FFF1F6A9559
:1013B000E1F7E25BFC4FE20FF31FA081DCCF41E0DD
:1013C00050E060E070E004C0440F551F661F771FB7
:1013D0008A95D2F7409550956095709580914A0313
:1013E00090914B03A0914C03B0914D03842395231E
:1013F000A623B72380934A0390934B03A0934C03F7
:10140000B0934D03089541E050E060E070E004C007
:10141000440F551F661F771F8A95D2F780914A03A4
:1014200090914B03A0914C03B0914D03842B952BCD
:10143000A62BB72B80934A0390934B03A0934C03A6
:10144000B0934D0308958091490390911803981328
:1014500001C008958F5F8770FACF1F93CF93DF93FA
:1014600000D000D01F92CDB7DEB7942F4983252F2F
:101470005A836B837C838D834C815D8181E0452B16
:1014800031F02F3F19F481E09F3F09F080E0182FE1
:10149000117080FD35C049815A816B817C818D81BD
:1014A000DDDEE92FE295EF70E250EE30F8F4F0E087
:1014B000E45AF54F0C948932710A710A760A760A59
:1014C000710A710A760A760A6A0A6A0A730A760A41
:1014D000760A730A803C28F0803E40F0815F8330BA
:1014E00028F011E003C093FB112710F9812F0F9012
:1014F0000F900F900F900F90DF91CF911F91089553
:1015000010E0F4CFE091CE03F091CF03309721F0BB
:101510000190F081E02D099480E00895E8EDF0E07D
:1015200080818C7F80831092E2001092DA0010920A
:10153000E100A0EEB0E08C9181608C9380818F7788
:10154000808319BCA7EDB0E08C918E7F8C93808155
:101550008F7E80831092DE020895E0DFF89487E7A3
:1015600097E7909301088093000887E090EBDC01F7
:101570008093440490934504A0934604B093470499
:1015800088E19CE00FB6F894A895809360000FBEA8
:1015900090936000FFCFFC0180910A0390910B03B0
:1015A00086179707A0F06115710529F49091E8005E
:1015B0009E779093E80090E06115710551F49111C8
:1015C00008C08091E80082FF33C080E00895BC012C
:1015D000F2CF80910C038823B9F18530B9F1809165
:1015E000E80083FD2FC08091E80082FDEACF809162
:1015F000E80080FFE1CF2091F2003091F300611507
:10160000710519F02830310558F091E02830310586
:1016100009F090E02091E8002E772093E800CCCFED
:1016200081918093F100615071092F5F3F4FE7CFA7
:1016300080910C03882341F0853041F08091E800CF
:1016400083FFBFCF81E0089582E0089583E008958D
:101650002091E4003091E50085E69091EC0090FF48
:1016600006C09091E80090FF06C080E00895909138
:10167000E80092FDFACF90910C03992391F09530F8
:1016800091F09091EB0095FD10C04091E4005091D5
:10169000E5002417350709F381509A01F1F684E03B
:1016A000089582E0089583E0089581E0089580918F
:1016B000040387FF13C08091E80082FF06C0809179
:1016C000E8008B778093E80004C080910C038111BF
:1016D000F2CF089580910C038823D9F38091E8001C
:1016E00080FFF8CF8091E8008E77ECCF982F909311
:1016F000E900242F762F50E0891731F07091EC002B
:101700002091ED005091F00021FD07C09F5F9730C0
:1017100071F78093E90081E008953091EB003E7FFE
:101720003093EB003091ED003D7F3093ED00309130
:10173000EB0031603093EB007093EC002093ED00F0
:101740005093F0002091EE0027FDE0CF80E0089557
:101750000F931F93CF93DF93CDB7DEB7AA970FB642
:10176000F894DEBF0FBECDBF80910C03882309F42F
:1017700047C11091E9001F708091EC0080FF38C0D4
:1017800080E8182B1092E9008091E80083FF35C1B2
:10179000E4E0F3E08091F100819383E0EC30F8071E
:1017A000C9F780910503833009F46EC018F58130C4
:1017B00009F446C0823009F4D4C08091E80083FF68
:1017C0000EC180910403909105039A3008F007C17F
:1017D000E92FF0E0E251F44F0C948932C20CE80C8E
:1017E000EF0CE80CEF0C490D6A0DEF0C650E720E54
:1017F00080E0C7CF8A3009F4A4C08B3009F47AC0E6
:101800008930D9F6809104038132B9F680910803BA
:1018100090910903892B89F68091E800877F809356
:10182000E8008091E80082FF2AC08091F100809357
:10183000E0028091E8008B778093E80038DFBDCF2D
:1018400080910403813A09F0B8CF8091E800877F46
:101850008093E8008091080390910903892B59F047
:1018600060E090E080E070E096DE8091E8008B77A9
:101870008093E800A2CF60E281EE92E0F4CF809105
:101880000C038111CECF99CF80910403813A09F0E6
:1018900094CF8091080390910903892B99F480914A
:1018A000E800877F8093E8008091E80080FFFCCF0C
:1018B000809112018093F1008091E8008E778093EF
:1018C000E800F5DE8091080390910903019709F083
:1018D00074CF8091E800877F8093E8008091E800D2
:1018E00080FFFCCF809110018093F1008091E8008F
:1018F0008E77A2CF80910403813209F05ECF809170
:10190000080390910903892B51F48091E800877FA7
:101910008093E800CCDE80910603809312018091D1
:10192000080390910903019709F047CF8091E800DF
:10193000877F8093E800BBDE8091060380931001CF
:101940003CCF80910403813209F037CF8091E800C9
:10195000877F8093E800ABDE809107038093E503E7
:101960002CCF80910403813A09F027CF8091E800C1
:10197000877F8093E8008091E80080FFFCCF809112
:10198000E503B2CF803889F0823849F580910803A9
:101990008F70873020F58093E9008091EB0085FB04
:1019A000882780F91092E90006C080910103909188
:1019B0000203911182609091E800977F9093E80074
:1019C0008093F1001092F1008091E8008E7731C091
:1019D000282F2D7F21F48823F1F0823071F180913E
:1019E000E80083FF0AC08091E800877F8093E800C9
:1019F0008091EB0080628093EB001F701093E900F0
:101A0000AA960FB6F894DEBF0FBECDBFDF91CF917F
:101A10001F910F91089580910603813001F7933053
:101A200009F080E0809302031092E9008091E800C1
:101A3000877F8093E8003BDED2CF8091060381113F
:101A4000F3CF809108038F702FEF280F263038F6E0
:101A50008093E9002091EB0020FFE6CF933031F432
:101A60008091EB0080628093EB00DECF9091EB00E1
:101A700090619093EB0021E030E001C0220F8A9545
:101A8000EAF72093EA001092EA008091EB00886068
:101A9000EACF8111A4CF009106030F778091E30074
:101AA0008078802B8093E3008091E800877F80938B
:101AB000E800FDDD8091E80080FFFCCF8091E3002D
:101AC00080688093E30083E0011101C082E080938D
:101AD0000C0385CF8058823008F081CF2091060317
:101AE000309107032C3DA3E03A0799F583E08A8300
:101AF0008AE289834FB7F894DE01139620E03EE036
:101B0000E32FF0E081E280935700E49120FF03C0CF
:101B1000E295EF703F5FEF708E2F90E0EA30B8F003
:101B2000C7968D939D932F5F243151F74FBF8091BE
:101B3000E800877F8093E8006AE270E0CE010196BA
:101B40002ADD8091E8008B778093E80048CFC0962B
:101B5000E8CF8091080390910903432F5527433024
:101B6000510509F44FC078F54130510509F445C0DD
:101B700084E590E0E3EFF4E04230510509F02FCF27
:101B80002091E800277F2093E80020910A033091FC
:101B90000B038217930708F49C0140E021153105DF
:101BA00009F063C0411161C08091E80082FDC9CF96
:101BB00080910C03882329F2853019F28091E80086
:101BC00083FFF2CFBECF4132510509F43FC042320C
:101BD000510509F004CF8330910508F000CFFC01D6
:101BE000EE0FFF1FE45EFE4F0190F081E02D875E57
:101BF0009E4FDC018C9190E01DC082E190E0E7E413
:101C0000F5E0BECF332721303105C1F060F022303E
:101C1000310509F0E4CEE9E5F5E0E4918E2F90E09E
:101C2000E9E5F5E007C0E9E9F5E0E4918E2F90E001
:101C3000E9E9F5E0009709F4D2CEA2CFEFE8F5E0AC
:101C4000E4918E2F90E0EFE8F5E0F4CF833091053A
:101C500008F0C5CE880F991FFC01EE5DFE4F019084
:101C6000F081E02D89E090E08BCF80910C038823F8
:101C700009F467CF853009F464CF8091E80083FDD3
:101C800060CF8091E80082FD8FCF8091E80080FFD7
:101C900085CF8091F2009091F3002115310519F064
:101CA0008830910550F041E0089709F040E08091BC
:101CB000E8008E778093E80071CF44914093F10063
:101CC0003196215031090196E8CF803809F087CE4E
:101CD0008091E800877F8093E800809103038093E0
:101CE000F10072CE81117BCE00910603023008F024
:101CF00076CE8091E800877F8093E800009303030D
:101D0000D6DC002381F084E080930C0342E261EC96
:101D100081E0ECDC42E061EC82E0E8DC46E261EC90
:101D200083E0E4DC5CCE8091E30087FDECCF81E0D2
:101D3000EBCFEF92FF920F931F93CF937C018B0118
:101D400087DCC82F811117C08091E80085FD0BC08A
:101D50008091E8008E778093E800FADC79DC8823B4
:101D600099F3C82F08C0F70181917F018093F1009A
:101D70000150110949F78C2FCF911F910F91FF90BE
:101D8000EF900895CF92DF92EF92FF920F931F93FF
:101D9000CF93DF93C8EDD0E088818F7E8883E7ED15
:101DA000F0E080818160808381E08093DE02888121
:101DB0008C7F888302EE10E0D8011C921092DA002A
:101DC00081EEC82ED12CD6011C9288818F77888312
:101DD00088818068888388818F7D888380818068FE
:101DE000808319BC10920C0310920303109202031B
:101DF0001092010390EEE92EF12CF70180818B7F88
:101E0000808388818160888342E060E080E06EDCCE
:101E1000D6018C918E7F8C93F801808181608083C4
:101E2000808188608083D7018C918E7F8C9388819C
:101E300080618883DF91CF911F910F91FF90EF9088
:101E4000DF90CF9008958091E00208958091BA02CA
:101E5000811113C09FB7F8944091E1035091E203C0
:101E60006091E3037091E4039FBF443C59406105D6
:101E7000710518F081E08093BA020895FF920F93E4
:101E80001F93CF93DF93D82F0FB607FE42C08091E8
:101E90000C03843079F08091030190E00196209149
:101EA000050130E0822393232091040128171906AD
:101EB00009F0C7C0CBDF81110FC08091030190E012
:101EC00001962091050130E08223932320910401A3
:101ED0002817190609F0B5C09DD98C01C091E900F9
:101EE000CF708091EC0080FD35C080E0C82B83E08E
:101EF0008093E9008091EB0085FD08C08091EB00A4
:101F000080FF04C08091EE0087FD45C0CF70C09374
:101F1000E900E09103018E2F90E0019620910501E8
:101F200030E082239323209104012817190609F435
:101F300081C08091010190910201E80FF92FF11DFC
:101F4000D083809103018F5F909105018923809355
:101F5000030170C080E8CACFE0910101F091020155
:101F6000E80FF11D90818F5F2091050182238093FE
:101F700004019093F1008091E80085FD0CC08091F0
:101F8000E80080FF08C08091E8008E778093E80029
:101F900085E08093000180910401909103019817DE
:101FA00039F19091E80095FDD7CF80E028C01092DC
:101FB000F1002FC08091030190E00196209105016E
:101FC00030E082239323209104012817190609F099
:101FD0009DCFF0900001FF2009F498CF1BD9801706
:101FE000910709F487CFFA94F09200018C0182CF17
:101FF0008091E80085FFD9CFD093F10081E0209156
:10200000F2003091F300232B81F09091E80090FFD3
:102010000CC09091E80095FDCACF9091E8009E77A2
:102020009093E80095E090930001882319F2CF7017
:10203000C093E90080E0DF91CF911F910F91FF9055
:102040000895E091030175CF262F30E094E0359597
:1020500027959A95E1F72770E62FEF70823079F097
:102060008330B9F08130F9F480E1289F9001112488
:10207000E20FF32FF11DE550FC4F8491089580E1AC
:10208000289F90011124E20FF32FF11DE558FC4F1A
:10209000F4CF80E1289F90011124E20FF32FF11D6E
:1020A000E550FD4FEACF80E80895643808F0E0C0BD
:1020B000E62FF0E0E25AFF4E0C9489322C113811D1
:1020C000381120111C1138113811381138113811FC
:1020D000381122111E113A11381138111C11E51056
:1020E000381138113A112011381138111E113811D8
:1020F00038113811341138113811E21020112C1117
:1021000038111A11241138113811F8102211381110
:1021100038113211381138113811FA1024113811D0
:10212000181138111C1138113811281134113811B7
:1021300026111E113811381138113611E310EF1025
:1021400030112E113211381138113811E3103811B5
:10215000FC103611381122113811381124113811A0
:102160003811381138113811381138113811381127
:10217000FE10381138113811321138113811381158
:10218000381138113811381138113811381100113F
:1021900038110211041138113811381106110811C3
:1021A0000A1138110C110E113811101138112A11A1
:1021B000121138111611141110113811381138116B
:1021C0003811241167E1862F0895FC0182819381E3
:1021D00080599B4A6FE00297B0F763E1F4CFFC01AE
:1021E0008281938180599B4A029768F76CE7EBCF15
:1021F0006FE1E9CF67E2E7CF60E6E5CF62E6E3CFE4
:102200006CE5E1CF63E5DFCF6FE2DDCF69E3DBCFE4
:1022100067E3D9CF6FE3D7CF67E4D5CF6FE4D3CFF0
:1022200060E0D1CF66E5CFCF6EE5CDCF6FE7CBCF06
:102230006EE6C9CF6FE6C7CF68E0C5CF60E1C3CF18
:1022400068E1C1CF60E2BFCF68E2BDCF68E3BBCF3A
:102250006FE5B9CF6DE6B7CF65E6B5CF60E4B3CF34
:1022600068E4B1CF60E5AFCF60E3ADCF67E5ABCF5A
:102270006F77A9CF69E1A7CFFC018481E5DE87FDF7
:1022800021C0E82FF0E094E0F595E7959A95E1F705
:10229000EE0FFF1FE554FD4F40815181282F2F7015
:1022A00081E090E002C0880F991F2A95E2F79C0117
:1022B00024233523232B31F0809590958423952377
:1022C000918380830895FC018481BEDE87FD1FC059
:1022D000E82FF0E094E0F595E7959A95E1F7EE0F99
:1022E000FF1FE554FD4F40815181282F2F7081E061
:1022F00090E002C0880F991F2A95E2F79C012423E1
:102300003523232B21F4842B952B918380830895EF
:10231000EBEBF2E01182108213821282158214829A
:1023200017821682118610861386128615861486E9
:10233000178616860895FC019CB3838D982B9CBB51
:102340009DB3838D892B8DBB0895FC018AB1948D3B
:10235000909598239AB99BB1848D892B8BB9089558
:10236000FC018BB1938D909598239BB98AB1938D85
:10237000892B8AB9CF01E9CFCF93DF93EC012E9857
:1023800026982F982798ECDF898D8430F8F4909167
:102390006900880F22E030E001C0220F8A95EAF739
:1023A000892F822B809369009DB38B8D8095892323
:1023B0008DBB198218821A821B8280E090E89D836F
:1023C0008C831F821886DF91CF91089590916A00C7
:1023D0008370880F22E030E001C0220F8A95EAF76F
:1023E000892F822B80936A00DFCFFC018BB1948D03
:1023F000909598239BB99AB1848D892B8AB90895B9
:10240000FC018AB1938D909598239AB99BB1838DE5
:10241000892B8BB90895CF93DF93EC01F1DFCE01C7
:10242000DF91CF9192CFCF93C82FE4EEE80FE8343D
:1024300008F07FC0F0E0E15EFD4E0C9489327F121F
:102440008D12991299127112991299129912991268
:102450009912991299129912991299129912991224
:10246000991273129912751299129912991299125E
:1024700091129912A6128F12991299129912991209
:1024800099129912991299129912991299129912F4
:10249000991267128512771289129912791299127C
:1024A0007D12991287127B128B128112831299125C
:1024B0009912991299129912991299126B126D121E
:1024C0006F12931295129912991299129712C5E5EB
:1024D0008C2FCF910895CAE5FBCFCBE5F9CFCCE5A2
:1024E000F7CFCDE5F5CFCEE5F3CFCFE5F1CFC0E621
:1024F000EFCFC1E6EDCFC2E6EBCFC3E6E9CFCFE643
:10250000E7CFC1E7E5CFC2E7E3CFC4E7E1CFC5E757
:10251000DFCFC7E7DDCFC8E7DBCFCAE7D9CFCCE74E
:10252000D7CFCFE7D5CFC0E7D3CFC9E7D1CFCBE760
:10253000CFCF1F92CF9382E29CE09F938F930E9414
:10254000922E0F900F900F900F90C2CFC4E5C0CF86
:102550008330C9F128F4813061F0823019F1089597
:10256000853009F452C008F43FC0863009F45EC0DB
:10257000089580911801681790F4861B80931801C4
:10258000809118011F928F9385EC9AE09F938F930F
:102590000E94922E0F900F900F900F90089510921E
:1025A0001801EECF80911701681750F4861B8093B5
:1025B0001701809117011F928F9383EB9AE0E6CF6A
:1025C00010921701F6CF80911601681750F4861B00
:1025D00080931601809116011F928F9380EA9AE0F2
:1025E000D5CF10921601F6CF80911501681750F4DF
:1025F000861B80931501809115011F928F938BE8A4
:102600009AE0C4CF10921501F6CF8091140168179B
:1026100050F4861B80931401809114011F928F93B4
:1026200082E79AE0B3CF10921401F6CF80911301A4
:10263000681750F4861B80931301809113011F9239
:102640008F9387E59AE0A2CF10921301F6CF8330E3
:1026500009F445C028F4813061F0823049F10895D1
:10266000853009F46AC008F451C0863009F47CC092
:10267000089580911801482F460F5527551F4F3F49
:10268000510594F4680F60931801809118011F920E
:102690008F9388E49AE09F938F930E94922E0F90DD
:1026A0000F900F900F9008958FEF80931801EDCF4A
:1026B00080911701482F460F5527551F4F3F510551
:1026C00054F4680F60931701809117011F928F9344
:1026D00086E39AE0E0CF8FEF80931701F5CF8091EA
:1026E0001601482F460F5527551F4F3F510554F4EB
:1026F000680F60931601809116011F928F9383E2F9
:102700009AE0C9CF8FEF80931601F5CF8091150124
:10271000482F460F5527551F4F3F510554F4680F5A
:1027200060931501809115011F928F938EE09AE0BE
:10273000B2CF8FEF80931501F5CF80911401482F10
:10274000460F5527551F4F3F510554F4680F6093AE
:102750001401809114011F928F9385EF99E09BCF14
:102760008FEF80931401F5CF80911301482F460F0E
:102770005527551F4F3F510554F4680F60931301BF
:10278000809113011F928F938AED99E084CF8FEF90
:1027900080931301F5CFCF93DF9320910F033091F6
:1027A00010032817390701F19093100380930F034A
:1027B000E091CE03F091CF033097B1F0EC010084AB
:1027C000F185E02D09958091E7038570853061F4EE
:1027D000DF93CF9387EC95E09F938F930E94922E87
:1027E0000F900F900F900F90DF91CF910895CF939E
:1027F000DF9320910D0330910E032817390701F163
:1028000090930E0380930D03E091CE03F091CF03DC
:102810003097B1F0EC010680F781E02D09958091A9
:10282000E7038570853061F4DF93CF9389EB95E002
:102830009F938F930E94922E0F900F900F900F9066
:10284000DF91CF910895CF93DF93E091CE03F09184
:10285000CF033097B1F1EC010480F581E02D0995AB
:102860008091E70383FF2DC08C81282F082E000C58
:10287000330B3F938F938B81282F082E000C330B43
:102880003F938F938A81282F082E000C330B3F93A0
:102890008F938981282F082E000C330B3F938F9341
:1028A00088811F928F938DE995E09F938F930E946B
:1028B000922E8DB79EB70C960FB6F8949EBF0FBEA2
:1028C0008DBFDF91CF910895CF93DF93EC018F817E
:1028D00090E001968F70992728852817190671F4C2
:1028E000198218821A821B8280E090E89D838C8373
:1028F0001F821886CE011FDDCE018DDD2FB7F89423
:1029000088859F81981307C02FBFCFEFDFEFCE01DF
:10291000DF91CF910895FE01E80FF11D91858F5F42
:102920008F708887C92FD0E02FBF8091E70380FF89
:10293000EECF1F929F9386E891E09F938F930E9422
:10294000922E0F900F900F900F90E1CFEF92FF9289
:102950000F931F93CF93DF937C010E940A098C0190
:10296000F70180819181B0DFEC01019631F4C8015B
:102970000E94FB08843F914098F3CE01DF91CF91F4
:102980001F910F91FF90EF90089582E29BE00E94CB
:10299000F92D1F9281E08F931F9285E08F9384ED34
:1029A0009AE09F938F930E94922E0F900F900F901A
:1029B0000F900F900F900895CF93DF9300D000D029
:1029C0001F92CDB7DEB78091E70383FF7BC083ED15
:1029D00096E00E94F92D8091DC031F928F938EEC7C
:1029E00096E09F938F930E94922E8CEC96E00E942B
:1029F000F92D8091DD03282F082E000C330B3F9317
:102A00008F9389EC96E09F938F930E94922E87EC90
:102A100096E00E94F92D8091DE03282F082E000CED
:102A2000330B3F938F9384EC96E09F938F930E9498
:102A3000922E82EC96E00E94F92D8091DF03282FE0
:102A4000082E000C330B3F938F938FEB96E09F93F0
:102A50008F930E94922E8DEB96E00E94F92D80912B
:102A6000E003282F082E000C330B3F938F938AEB43
:102A700096E09F938F930E94922E87EB96E00E94A0
:102A8000F92D8091D4031F928F9384EB96E09F934E
:102A90008F930E94922E82EB96E00E94F92D8091F6
:102AA000D3031F928F938FEA96E09F938F930E9498
:102AB000922E8CEA96E00E94F92D0FB6F894DEBFB4
:102AC0000FBECDBF85E0ECEDF3E0DE011196019085
:102AD0000D928A95E1F789819091D503892B89839D
:102AE000CE010196B0DE0E940A099093DB03809329
:102AF000DA030F900F900F900F900F90DF91CF910E
:102B00000895CF93DF938091D2039091D103892BC5
:102B100080939A029091D003992389F0892B809316
:102B20009A02EBE9F2E02AEB32E080E09191911118
:102B30008F5F2E173F07D1F781111092D003E091DC
:102B4000CE03F091CF033097A1F10280F381E02D05
:102B50008AE992E009958091E70382FF2AC080FF0D
:102B600004C081EA96E00E94F92DD0E0C0E0809197
:102B7000E70380FF10C0FE01E656FD4F80811F92E3
:102B80008F938BE996E09F938F930E94922E0F90E4
:102B90000F900F900F902196C032D10541F7809190
:102BA000E70380FF06C089E996E0DF91CF910C949E
:102BB000F92DDF91CF9108951092D2031092D10395
:102BC000EBE9F2E0119282E0EA3BF807D9F799DFEE
:102BD00085E0ECEDF3E0DF011D928A95E9F71092B4
:102BE000D4031092D303E8DE90E080E000DE90E0B2
:102BF00080E0D1CDCF93C82F1F928F938DE19CE0C1
:102C00009F938F930E94922E81E090E0A0E0B0E02D
:102C100004C0880F991FAA1FBB1FCA95D2F78093C3
:102C2000E8039093E903A093EA03B093EB030F90BA
:102C30000F900F900F90CF91BFCF6ADBBDDF8DE873
:102C400091E09F938F930E94922E0F900F90089582
:102C5000882339F080959091D20389238093D20301
:102C600050CF0895882331F09091D203892B80931F
:102C7000D20347CF0895882309F457C09CEF980FDB
:102C8000913A58F5909112019923D1F09091110148
:102C90009923B1F0E82FE695E695E695F0E0E65643
:102CA000FD4F877021E030E0A90102C0440F551F9D
:102CB0008A95E2F7CA01809591818923818321CF8A
:102CC000EAE9F2E028EB32E09281891301C0128236
:102CD00031962E173F07C1F7F2CF90E2980F983048
:102CE00088F4877021E030E0A90102C0440F551F2D
:102CF0008A95E2F7CA0180959091D2038923809347
:102D0000D203DDCF9BE5980F933018F490E080E07C
:102D10006ECD98E5980F973118F490E080E03BCDA8
:102D2000803F18F00E94940747CE0895CF938732D2
:102D300008F04FC08E3108F01DC1803109F4A6C0E3
:102D4000F8F4873009F485C048F4863009F46EC081
:102D500088EB97E00E94F92DC0E026C08B3009F483
:102D600060C08E30A9F79091E703892F8B7F92FF87
:102D700084608093E70382FF86C082E899E07AC08E
:102D8000863109F4AAC098F4813111F715DFC0919A
:102D9000110181E0C827C0931101CC2309F4E7C0D9
:102DA00085EC97E00E94F92D8C2FCF910895893101
:102DB00009F47CC08B3161F69091E703892F8D7FF8
:102DC00091FF82608093E70381FF5AC08FE999E009
:102DD00051C0883331F150F4893229F0853319F02C
:102DE000873209F0B5CF80E005DF31C08334D9F3F5
:102DF00028F48A3308F4ACCF8953F6CF883409F02D
:102E0000A7CFDADE85EC99E00E94F92D2FEF83ED54
:102E100090E3215080409040E1F700C000000E9404
:102E2000AD0A86EF96E00E94F92D11C08091E7036C
:102E3000817F8E7F8093E70381E997E00E94F92DDF
:102E400086ED99E00E94F92D81E08093E603C1E0D0
:102E5000ABCF8091E70380FF0BC088EB99E00E9425
:102E6000F92D8091E703817F8E7F8093E703EFCF79
:102E70008CEA99E00E94F92D8091E7038160F5CFFB
:102E800081E999E0D0CF82E799E0CDCF9091E70337
:102E9000892F877F93FF88608093E70383FF03C0B8
:102EA00086E699E0E7CF89E599E0BDCF8AE499E02D
:102EB0000E94F92D87E399E00E94F92D82EF98E0B6
:102EC0000E94F92D8CEC98E00E94F92D87E798E09C
:102ED0000E94F92D8BE498E0A6CF8DE398E00E9444
:102EE000F92D0E94820A1F928F9383E298E09F93AC
:102EF0008F930E94922E809112011F928F938CE0EB
:102F000098E09F938F930E94922E8091E5031F92E9
:102F10008F9389EF97E09F938F930E94922E8091D9
:102F200011011F928F9386EE97E09F938F930E94DB
:102F3000922E2FB7F8948091E1039091E203A09133
:102F4000E303B091E4032FBFBF93AF939F938F939D
:102F50008FEC97E09F938F930E94922E8DB79EB730
:102F600046960FB6F8949EBF0FBE8DBF70CF8AEB0A
:102F700097E059CF8D5138CFCF93882309F4ADC056
:102F8000C82F8CEF8C0F813A08F06BC18091E6035B
:102F9000813071F110F1823009F458C01092E603CB
:102FA00080911201882309F442C180911101882384
:102FB00009F43DC1EC2FE695E695E695F0E0E6567E
:102FC000FD4FC77021E030E001C0220FCA95EAF73B
:102FD0008181822B8183CF9194CD80919A0282321C
:102FE00011F08434E9F68C2FA1DE811176C0D8CFA0
:102FF00080919A028232B9F38434A9F3C431C9F0C2
:1030000048F4CB3059F0C031C1F087ED95E00E9413
:10301000F92D11C0C93269F0C833B9F781E997E0D9
:103020000E94F92D8DED95E00E94F92D81E08170CF
:10303000DCCF1092E60380E0FACFA7DC89ED95E0C3
:103040000E94F92D82E08093E603F0CFC432C8F4E9
:10305000CE3108F0BDC0CB30E1F040F4C73009F408
:10306000CCC086E896E0CF910C94F92DC331B9F12C
:10307000C431B9F780911103882341F110921103F3
:1030800009C0CB3409F4B7C0B8F4C93299F3C833D6
:1030900041F77BDC80911103882309F4C5C01F929E
:1030A0008F9380E896E09F938F930E94922E0F90CB
:1030B0000F900F900F9011C0C13509F497C0C23521
:1030C00009F48FC0CE3469F66AE091C085E996E0D4
:1030D0000E94F92D81E08093E603CF9108958FE659
:1030E00096E00E94F92D8DE596E00E94F92D8091E1
:1030F00018011F928F938AE596E09F938F930E9409
:10310000922E88E596E00E94F92D86E496E00E94D2
:10311000F92D809117011F928F9383E496E09F937E
:103120008F930E94922E81E496E00E94F92D82E313
:1031300096E00E94F92D809116011F928F938FE2E5
:1031400096E09F938F930E94922E8DE296E00E94CC
:10315000F92D8CE196E00E94F92D809115011F92C6
:103160008F9389E196E09F938F930E94922E87E13F
:1031700096E00E94F92D82E096E00E94F92D809160
:1031800014011F928F938FEF95E09F938F930E946E
:10319000922E8DEF95E00E94F92D86EE95E00E942B
:1031A000F92D809113011F928F9383EE95E09F93E9
:1031B0008F930E94922E81EE95E00E94F92D8DB79B
:1031C0009EB748960FB6F8949EBF0FBE8DBF62CFD4
:1031D000CE51EC2FF0E0E85DFE4F8081809311032B
:1031E00059CF61E08091110332DA54CF61E08091D0
:1031F0001103AED94FCF6AE0F5CF8EE1809318016D
:1032000082E3809317018AE08093160184E1809322
:10321000150188E08093140188E28093130188E807
:1032200096E00E94F92D36CF8DE796E01CCFACE9F1
:10323000B2E0EFEF80E09D91C91709F4CCCEEF3FEB
:1032400019F4911101C0E82F8F5F8E31A1F7EF3F84
:1032500009F4C1CE0E2E000CFF0BE656FD4FC283C3
:10326000BACE80E28C0F883068F4C77021E030E07D
:1032700001C0220FCA95EAF78091D203822B809376
:10328000D203A9CE8BE58C0F833060F481E890E007
:10329000C53A31F083E890E0C63A11F482E890E054
:1032A000CF91A5CA88E58C0F873108F067C082EE00
:1032B00090E0C83A09F460C089EE90E0C93A09F498
:1032C0005BC08AEE90E0CA3A09F456C085EB90E004
:1032D000CB3A09F451C086EB90E0CC3A09F44CC0EB
:1032E00083EB90E0CD3A09F447C084EB90E0CE3A0E
:1032F00009F442C087EB90E0CF3AF1F188EB90E01F
:10330000C13BD1F18DEC90E0C03BB1F183E891E09D
:10331000C23B91F18AE891E0C33B71F182E991E00F
:10332000C43B51F184E991E0C53B31F181E292E087
:10333000C63B11F183E292E0C73BF1F084E292E0F8
:10334000C83BD1F085E292E0C93BB1F086E292E061
:10335000CA3B91F087E292E0CB3B71F08AE292E0C7
:10336000CC3B51F08FE690E0CD3B31F090E080E037
:10337000CE3B11F480E790E0CF910DCACF3B61F4D2
:103380001BDC9FEF20E782E0915020408040E1F776
:1033900000C000000E94AD0AC03F08F49ECE8C2FF2
:1033A0000E949B08CF9108CBCF92DF92EF92FF92C1
:1033B0000F931F93CF93DF9300D000D01F92CDB710
:1033C000DEB76C0185E0F601DE01119601900D92E9
:1033D0008A95E1F7F601408151812381348191E0A2
:1033E0002115310531F05F3F19F491E04F3F09F0AD
:1033F00090E090FD94C0F6010281F580F2949FE088
:10340000F92249835A830B83722F3D832C83602FCB
:103410008D810E942E09182FE92FE295EF70EF3071
:1034200008F07DC0F0E0E95EF54E0C948932261A72
:10343000261A601A601AEF1A1F1BC21AC21A341B0E
:103440008F1A0A1C0A1C8F1A8F1AB51CF92FFF70CD
:10345000FF2E907F19F0F29480EFF8220023B9F04C
:10346000FF2031F08091D103F82AF092D10349DB9B
:10347000812F0F900F900F900F900F90DF91CF91B1
:103480001F910F91FF90EF90DF90CF9075CD812F1E
:10349000F2DBFF2009F443C0F0948091D103F822BD
:1034A000F092D1030F900F900F900F900F90DF913B
:1034B000CF911F910F91FF90EF90DF90CF9021CB94
:1034C000892F8F70907F903211F08295807F112329
:1034D00079F0113009F447C0002309F46EC0FF20D1
:1034E00059F0F601958190FF59C09F70958304C0F3
:1034F000002319F1F1100EC00F900F900F900F9054
:103500000F90DF91CF911F910F91FF90EF90DF907F
:10351000CF90A8CB21E0F212EFCF8093D0030F9091
:103520000F900F900F900F90DF91CF911F910F91FF
:10353000FF90EF90DF90CF900895F11010C010929F
:10354000D0030F900F900F900F900F90DF91CF91BD
:103550001F910F91FF90EF90DF90CF9079CB91E08A
:10356000F912EDCFDCCF002349F0E5E0EF15B8F21A
:103570009091D203982309F4BFCFE3CFF4E0FF1575
:1035800070F2DFCF892F8F70907F903611F0829587
:10359000807F002391F0FF2009F4AECF812FECDC77
:1035A000193309F0D6C1FFEF21EE84E0F15020403D
:1035B0008040E1F700C00000B2CFFF2009F4C1CF86
:1035C000812F0F900F900F900F900F90DF91CF9160
:1035D0001F910F91FF90EF90DF90CF904CCB892FF0
:1035E000869586958370B9F0813009F098CF812F48
:1035F0009370011102C090E080E00F900F900F9047
:103600000F900F90DF91CF911F910F91FF90EF904E
:10361000DF90CF90C0C8812F9370011102C090E05D
:1036200080E00F900F900F900F900F90DF91CF914F
:103630001F910F91FF90EF90DF90CF90D8C800239B
:1036400081F00E949B080F900F900F900F900F90A9
:10365000DF91CF911F910F91FF90EF90DF90CF906E
:10366000ABC90E949407EFCF892F837009F064C023
:10367000011155CF812F829586958770880F880F0D
:10368000412F4F70C42ED12CF12CE12C082E04C0F8
:10369000CC0CDD1CEE1CFF1C0A94D2F740E050E07D
:1036A000BA0114FF11C00FE010E020E030E004C0C8
:1036B000000F111F221F331F8A95D2F7B901A801ED
:1036C00040955095609570950091E8031091E9033D
:1036D0002091EA033091EB03969596959370923082
:1036E000E9F028F5913089F04C295D296E297F2970
:1036F00040235123622373234093E8035093E9034B
:103700006093EA037093EB030ACFC02AD12AE22A1E
:10371000F32A4C295D296E297F29EECF4C295D299A
:103720006E297F294027512762277327E5CF402341
:10373000512362237323EDCF8695002311F0892F47
:103740008170882309F4EBCE812F8295869587704E
:10375000880F880F412F4F70C42ED12CF12CE12CF3
:10376000082E04C0CC0CDD1CEE1CFF1C0A94D2F702
:1037700040E050E0BA0114FF11C00FE010E020E07B
:1037800030E004C0000F111F221F331F8A95D2F7AB
:10379000B901A801409550956095709500914A0334
:1037A00010914B0320914C0330914D0396959695C3
:1037B00093709230E9F028F5913089F04C295D2919
:1037C0006E297F29402351236223732340934A03A8
:1037D00050934B0360934C0370934D03A0CE0C2980
:1037E0001D292E293F29402B512B622B732BEECF05
:1037F0004C295D296E297F2940275127622773278D
:10380000E5CF40235123622373234C295D296E2980
:103810007F29DCCF803F09F440C060F480E4810F51
:10382000803200F1002309F49BC0F110B7CE892F3C
:103830008F7164C0823F09F470C008F45BC0833F9D
:1038400089F7002309F47CC0292F2F7181E090E0D3
:10385000A0E0B0E004C0880F991FAA1FBB1F2A95E3
:10386000D2F73AC0E12FE071FE2E892F8F7100232D
:1038700051F00E94030A812F8295807FF1103CCE87
:10388000812F8F7039CE0E94DF09812F8295807F32
:10389000F11057CE812F8F7054CE002331F1F4E018
:1038A000FF1508F43CCE292F2F7181E090E0A0E0B5
:1038B000B0E004C0880F991FAA1FBB1F2A95D2F73A
:1038C00040914A0350914B0360914C0370914D031A
:1038D00084279527A627B72780934A0390934B0305
:1038E000A0934C03B0934D031ACE25E02F1508F496
:1038F00016CED9CF892F8F71002399F00F900F909A
:103900000F900F900F90DF91CF911F910F91FF902B
:10391000EF90DF90CF900C94030A892F8F710023D2
:1039200069F30F900F900F900F900F90DF91CF9150
:103930001F910F91FF90EF90DF90CF900C94DF09D3
:1039400010924A0310924B0310924C0310924D03B5
:10395000E6CD133509F427CE173409F0E0CD23CE98
:10396000F1102ECE892F8F71DCCF8111D8CD00239D
:1039700009F4D5CD21D98FEF90E7E2E08150904056
:10398000E040E1F700C000000E94AD0ACF93DF9352
:1039900080911703807FB1F480911403882391F004
:1039A00080914903D0911803409112035091130361
:1039B0006091150370911603C1E04F3F09F0C0E01C
:1039C000D81303C0DF91CF91089521E061157105EF
:1039D00021F02C2F5F3F09F020E090E020FD31C066
:1039E00026E0289FF001299FF00D1124DF01A75E3A
:1039F000BC4F11962C911197251323C02C912413A1
:103A000020C012962C91129721111BC013962D9154
:103A10003C91261B370B283C310598F48091170305
:103A20008F70806180931703E25EFC4F80818F70FE
:103A30008061808382E193E0B7DCDF91CF910C94C9
:103A4000230A01968770BCCF9F92AF92BF92CF920C
:103A5000DF92EF92FF920F931F93CF93DF93CDB737
:103A6000DEB761970FB6F894DEBF0FBECDBF8C01F5
:103A700085E0F801DE011D9601900D928A95E1F72F
:103A8000F80140815181F280C380D480909112036B
:103A900060911303209115033091160381E02115E5
:103AA000310531F06F3F19F481E09F3F09F080E06C
:103AB000F82FF1709F2E80FD3FC182E1A82E83E098
:103AC000B82EE0901403F601E21BF30BEE2009F48C
:103AD000F8C080911703782F707FE83CF10508F05B
:103AE000B4C071117DC0EF2C651321C094131FC0A9
:103AF000F1101DC08F70806180931703C50154DCE5
:103B000080911703F80185838E2D61960FB6F89486
:103B1000DEBF0FBECDBFDF91CF911F910F91FF9000
:103B2000EF90DF90CF90BF90AF909F90089581E08D
:103B3000C114D10431F05F3F19F481E04F3F09F027
:103B400080E080FD14C081E08F25F82FF170BF2E3A
:103B5000E09149032091180380FD1FC0FF20A1F2CE
:103B600080911703816080931703E12CCDCF80E013
:103B7000ECCF8E2F90E036E0E39FF0011124E75E5A
:103B8000FC4F3181531306C03081431303C032818F
:103B90003F11E4CFFC013196E770E213EACF7C2DB0
:103BA000D98AC88A6F2D89890E942E09292F2295CA
:103BB0002F70223050F0243078F49F7051F0F801CB
:103BC0009581907F31F4E92C9FCF9F7011F088236D
:103BD000D1F3805E8830B8F3C801E6DB9B2CF3CFCD
:103BE000651306C0941304C0F801FF2009F484C0D3
:103BF0004D875E87FF867C2DD98AC88A6F2D89897B
:103C00000E942D0A882309F4A5C0FF2009F4A2C050
:103C100080911703803268F02091120330911303D2
:103C200038872F831986DB86CA868C87CE01079654
:103C3000BBDB86E0F801A2E1B3E001900D928A952A
:103C4000E1F7A4DEEE24E3945FCF711109C082E1B5
:103C500093E0AADB86E0F50111928A95E9F785CF1A
:103C600065130EC094130CC0F1100AC0F8018583CF
:103C7000C8019ADB86E0F50111928A95E9F744CFF5
:103C80004D875E87FF867C2DD98AC88A6F2D8989EA
:103C90000E942D0A882309F45DC0FF2009F45AC050
:103CA00080911703803228F2209112033091130380
:103CB0003A8329831B82DD82CC828E83CE010196DA
:103CC000B7CFE83CF105B0F6EF2CFF2009F442C075
:103CD00065131EC094131CC08091170380FD0FC094
:103CE000982F907F61F0F8018583903F31F0982FF5
:103CF000907F905F8F70892B8583C80155DB86E0AC
:103D0000F801A2E1B3E001900D928A95E1F7FCCEB3
:103D10004D875E87FF867C2DD98AC88A6F2D898959
:103D20000E942D0A811185CF8091170381608093B5
:103D30001703C80139DBE8CEFF2061F04D875E87AD
:103D4000FF867C2DD98AC88A6F2D89890E942D0A09
:103D500081116FCFC80128DB75CFCF93DF93CDB72B
:103D6000DEB767970FB6F894DEBF0FBECDBF4B8BA3
:103D70005C8B6D8B7E8B8F8B1A8A198A85E0FE0196
:103D80007396DE011D9601900D928A95E1F786E00B
:103D9000FE013D96DE01179601900D928A95E1F79E
:103DA000CE01079651DE811137C086E0FE013796BD
:103DB000DE01119601900D928A95E1F79F81888529
:103DC0002A853B85232B39F08F3F19F481E09F3FF3
:103DD00019F080E001C081E080FD1EC02091180331
:103DE00030E0C9010196877099274091490348172F
:103DF000190651F196E0929FD001939FB00D1124C6
:103E0000A75EBC4FFE01319601900D929A95E1F7A5
:103E1000809318030E94230A80914903909118030C
:103E20008917F9F0B6E08B9FC0011124875E9C4F83
:103E30000BDE8823B1F08091490390E001968770F2
:103E4000992780934903E8CF0E94DC15109218034C
:103E50001092490386E0E2E1F3E0DF011D928A95CA
:103E6000E9F767960FB6F894DEBF0FBECDBFDF91BE
:103E7000CF910895CF93DF9300D01F92CDB7DEB7D7
:103E800020910C03243041F520911001222321F1CF
:103E900023E029839B838A8382E08093E9008FEF6C
:103EA0009091E800815095FD06C095ED9A95F1F747
:103EB00000008111F5CF8091E80085FF0DC050E032
:103EC00040E063E070E0CE0101960E94990E80917F
:103ED000E8008E778093E8000F900F900F90DF91AD
:103EE000CF910895CF93DF9300D01F92CDB7DEB767
:103EF00020910C03243081F520911001222361F1DF
:103F000019821A821B8222E029838138910520F0D0
:103F1000805891099B838A8382E08093E9008FEF28
:103F20009091E800815095FD06C095ED9A95F1F7C6
:103F300000008111F5CF8091E80085FF0DC050E0B1
:103F400040E063E070E0CE0101960E94990E8091FE
:103F5000E8008E778093E8000F900F900F90DF912C
:103F6000CF91089520910C03243049F522E020934D
:103F7000E9002FEF3091E800215035FD06C035ED06
:103F80003A95F1F700002111F5CF2091E80025FFC7
:103F900016C02091100150E040E063E070E0222361
:103FA00039F021E02093F10050E040E065E070E05E
:103FB0000E94990E8091E8008E778093E800089522
:103FC000CF93DF9320910C032430D9F4EC0180913E
:103FD00012018823F1F0809111018823D1F081E052
:103FE0008093E90081E8815021F09091E80095FFED
:103FF0000BC08091E80050E040E060E270E085FD99
:104000001AC0DF91CF9108959AE29A95F1F700C016
:10401000EACF81E08093E90081E8815021F090911E
:10402000E80095FF19C08091E80085FFEACF50E0D5
:1040300040E068E070E0CE010E94990E8091E800B7
:104040008E778093E80080E2FE01A1EEB2E001905D
:104050000D928A95E1F7D5CFEFE3F1E03197F1F7D3
:1040600000C00000DACFCF93DF93EC0199B14A8D05
:104070008091E1032C813D812115304849F58E83E3
:104080002C813D81369527953D832C8321E030E0BE
:1040900001C0220F4A95EAF7892F822329F08C81EB
:1040A0009D8190689D838C838C819D81992780352B
:1040B0009105D1F170F580319105B1F108F5892BA9
:1040C00029F11A828C819D819983888380E809C0B7
:1040D0002E81821B8B30A0F28C819D8199838883F5
:1040E00080E28B839BB18B8D809589238BB98AB1BC
:1040F0009B8D892B8AB980E090E89D838C8306C0D4
:104100008032910519F080349105D9F6DF91CF9175
:104110000895803A910509F462C090F480389105C1
:10412000A9F38039910569F68C819D8199838883F3
:104130008C819D8180399A4A09F080C082E0D1CF7C
:10414000803C910521F0803D910571F3BACF8C81BF
:104150009D81998388838C819D81892F99279D8357
:104160008C8382E28A838A8184FF12C09BB18B8D0B
:10417000809589238BB98AB19B8D892B8AB987E574
:1041800092E00197F1F700C00000CE010E940012FA
:104190002C813D818F81FE01E80FF11D21878F5F0A
:1041A0008F708F8390E001968F709927288528174C
:1041B000190671F49DB38B8D809589238DBB9BB1BE
:1041C0008B8D809589238BB98AB19B8D892B8AB978
:1041D0009F81888598138FCF80E48B838CCF8A81D1
:1041E000811124C084E699B12B8D922369F4882330
:1041F00059F095E09A95F1F700008150F4CF25E051
:104200002A95F1F70000815099B12B8D922399F0F6
:104210008111F5CF8C819D81998388838C819D81CB
:10422000892F99279D838C8381E29CCF8A8181325B
:1042300009F06CCFEFCF811169CFECCF8C819D81DC
:104240002C813D8196FB882780F956E0369527958D
:104250005A95E1F78227282F30E0982F9E7F21F092
:10426000359527958170F6CF811102C081E039CF55
:104270008C819D8197FF0CC080E18A838C819D8118
:1042800026E0969587952A95E1F79D838C836BCFE1
:1042900081E1F3CF0F931F93CF938C01CAE1C150FB
:1042A00069F0C8010E9464148F3F980749F48FE9B0
:1042B0009FE00197F1F700C00000F1CF8FEF9FEF73
:1042C000CF911F910F910895FC018AB1948D909523
:1042D00098239AB98BB1948D892B8BB985E08A95F7
:1042E000F1F7000099B1848D982381E009F480E012
:1042F0000895FC018AB1938D909598239AB98BB15A
:10430000938D892B8BB985E08A95F1F7000099B1DF
:10431000838D982381E009F480E008950F931F9323
:10432000CF93DF938C01EB01C801E3DF811108C05B
:10433000209731F085E08A95F1F700002197F4CFBE
:10434000CE01DF91CF911F910F9108950F931F938D
:10435000CF93DF938C01EB01C801CBDF882341F0C1
:10436000209731F085E08A95F1F700002197F4CF8E
:10437000CE01DF91CF911F910F910895DF92EF92BF
:10438000FF920F931F93CF93DF93EC01D62E1B82E6
:104390008091E70380FF0CC01F926F938FE791E03D
:1043A0009F938F930E94922E0F900F900F900F90DB
:1043B0008C819D8181159048E1F08091E70380FF19
:1043C0000EC08C819D819F938F9385E791E09F9391
:1043D0008F930E94922E0F900F900F900F908FEF5F
:1043E0009FEFDF91CF911F910F91FF90EF90DF90A2
:1043F00008959DB38B8D809589238DBB8BE0E82E2E
:10440000FF24F394CE010E94B0118FE193E0019755
:10441000F1F700C00000CE010E94F5118FE193E09A
:104420000197F1F700C00000CE010E94001268E978
:104430007AE3CE018BDF892BC1F481E08B838B8102
:10444000813009F0BEC0EA94EE2009F4BAC01B82A4
:104450008091E70380FFD6CF82E791E09F938F930F
:104460000E94922E0F900F90CDCF10E000E090E5CB
:104470009A95F1F78D2D90E0002E02C095958795C5
:104480000A94E2F780FF0DC081E0F826CE010E9479
:10449000A51162E370E0CE0141DF892B31F482E0A7
:1044A000CDCFCE010E94F511F4CF62E370E0CE01D2
:1044B0004DDF892B11F483E0C1CF0F5F1F4F083010
:1044C0001105A9F620E52A95F1F7CE01FF2051F05C
:1044D0000E94A51162E370E0CE0120DF892B29F450
:1044E00084E0ACCF0E94F511F5CF62E370E0CE011D
:1044F0002DDF892B11F485E0A1CF80E58A95F1F7B6
:10450000CE010E94A5110CE211E0CE01DDDE882370
:1045100051F00115110549F095E09A95F1F7000069
:1045200001501109F2CF012B11F486E087CF0CE284
:1045300011E0CE01C9DE81110AC00115110549F053
:1045400025E02A95F1F7000001501109F2CF012B67
:1045500011F487E073CF6CE271E0CE01DFDE892BCE
:1045600011F488E06BCF8A8184FF12C080E58A95C0
:10457000F1F79BB18B8D809589238BB98AB19B8D87
:10458000892B8AB987E592E00197F1F700C0000016
:10459000198218821A821B8280E090E89D838C83A6
:1045A0001F821886CE010E940B12CE010E949B1121
:1045B000CE01DF91CF911F910F91FF90EF90DF908F
:1045C00069CE8C819D81998388838B8180618B8367
:1045D000CE010E94B0118FE39FE10197F1F700C077
:1045E0000000CE010E940B12CE010E949B11F7CE5B
:1045F0000F931F93CF93DF938C01EB0169EEFC01C6
:1046000080819181BBDEF8018081918143DE8883C6
:10461000F801808191813EDE8983F801808191815A
:1046200039DE8A8399279F938F9389811F928F9375
:1046300088811F928F938BE794E09F938F930E94C2
:10464000922E8DB79EB708960FB6F8949EBF0FBEF8
:104650008DBFDF91CF911F910F9108950F931F93FD
:10466000CF93DF93FC01A081B18112968C911297B8
:10467000813139F112968C911297813229F112967B
:104680008C911297823219F18F0162EFCD0176DEA3
:104690008F3F9807F9F08A3F9105F9F4C8010E940D
:1046A000A6148F3F9807E1F0D82FCC27C8010E94AD
:1046B000A6149E01282BC901DF91CF911F910F9164
:1046C00008958DEF9FEFF8CF8CEF9FEFF5CF8BEF35
:1046D0009FEFF2CF8FEF9FEFEFCF8EEF9FEFECCFFB
:1046E00090E080E0E9CF0F931F93CF93FC012481EA
:1046F0002230C0F02430B1F062FBCC27C0F960FD5D
:10470000C26061FDC460FC01008111816DEEC801D1
:1047100035DE8A3F910531F46C2FC801CF911F918E
:104720000F912CCECF911F910F910895CF93C82F49
:10473000682F8AEF93E0D7DF6C2F8CEE93E0CF9158
:10474000D2CFAF92BF92CF92DF92EF92FF920F93B0
:104750001F93CF93DF9300D01F92CDB7DEB78C01AC
:10476000DC01ED91FC918381882369F1E080F18087
:10477000D3800E940A09FF92EF921F92DF929F93CB
:104780008F9384EE92E09F938F930E94922ED80194
:10479000ED91FC911197838180750FB6F894DEBF7F
:1047A0000FBECDBF51F48CE018968C93189783817F
:1047B000823019F48DE018968C931382D801ED9114
:1047C000FC9111821082D801ED91FC9111978281A8
:1047D000882309F443C0928115968C919817F1F1C2
:1047E000E080F180D2800E940A09FF92EF921F922E
:1047F000DF929F938F938DEC92E09F938F930E9413
:10480000922EF80185810FB6F894DEBF0FBECDBFA2
:104810000190F081E02D85FF03C0928194FD05C0D9
:1048200084FF13C0828185FF10C0D80118968C9137
:104830008B3059F486EC92E09F938F930E94922ED6
:104840008CE0F80180870F900F90D801ED91FC91DA
:104850001197828115968C9311821082D801189637
:10486000EC911897EE3008F04EC0F0E0E65CFB4D9E
:104870000C948932482470249224AD24C324CE247D
:10488000FD241525392558259126BE26342C1C2CAF
:104890000E940A099F938F9381EC92E09F938F93DC
:1048A0000E94922E0E940A09F80197838683019044
:1048B000F081E02D118210821282138280E090E854
:1048C0009583848317821086D801ED90FC90C701F0
:1048D0000E949B11C7010E940B1281E0F80187C062
:1048E000D8018D919C910E9464140196C9F7F8013A
:1048F000868197810E94FB08893B9B4020F082E0E3
:10490000D80118968C9381E00F900F900F90DF9153
:10491000CF911F910F91FF90EF90DF90CF90BF90BC
:10492000AF9008950E940A099F938F938CEB92E0B9
:104930009F938F930E94922E6FEFF8018081918157
:104940001DDD0F900F900F900F908A3F910511F48D
:1049500086E0D6CF83E0F80114C0ED91FC918DB3D1
:10496000938D909598239DBBCF010E94B0112E98F6
:10497000269A2F98279A0E940A09F801978386831E
:1049800084E08087C0CF16968D919C910E94FB0891
:10499000853F914008F4B7CF85E0DDCF2E9826986B
:1049A0002F982798ED91FC91119711821082128215
:1049B000138280E090E89583848317821086ED90BF
:1049C000FC90C7010E949B11C7010E940B120E941C
:1049D0000A099F938F9387EB92E09F938F930E9496
:1049E000922E0E940A09F8019783868386E08087C9
:1049F0000F900F900F900F9086CF8D919C910E94F9
:104A00006414019609F47FCF0E940A099F938F9343
:104A100082EB92E09F938F930E94922E0E940A094C
:104A2000F8019783868387E0E2CF16968D919C915B
:104A30000E94FB08853F914018F089E0F8018087CB
:104A4000D8018D919C910E946414019609F45BCF6A
:104A50000E940A099F938F938DEA92E09F938F9310
:104A60000E94922E0E940A09F8019783868388E0AB
:104A7000BECF16968D919C910E94FB08853F914078
:104A800018F089E0F8018087D8018D919C910E94EF
:104A90006414019609F437CF0E940A099F938F93FB
:104AA00088EA92E09F938F930E94922E89E016CF1E
:104AB000C801D4DDD80113969C938E9312970E945F
:104AC0000A099F938F9383EA92E09F938F930E94AA
:104AD000922EF801828193810F900F900F900F908A
:104AE000009769F582E0D80114968C93F8018281D1
:104AF000938128E331E08F3F980709F4E1C08E3FAE
:104B00002FEF920709F4DAC08D3F3FEF930709F4C6
:104B1000F9C02BE431E08C3FAFEF9A0709F4D0C025
:104B200020E531E08B3FBFEF9B0709F4C9C027E5C3
:104B300031E0009709F4C4C02AE431E0C1C08F3FDE
:104B4000980721F481E0F8018483D0CF9C012D5F88
:104B50003F4F2230310530F22E5F3F4F223031057A
:104B600088F38F3F910511F484E0BDCF9C01255857
:104B70003B4A2230310520F08239BBEA9B07A1F481
:104B800060EFF80180819181F9DB8A3F910509F09E
:104B9000A9CF63E0D8018D919C91F0DB8A3F91050C
:104BA00009F0A0CF83E0CFCF9C0120593B4A2230AF
:104BB000310508F051C085E992E09F938F930E94E0
:104BC000922E82E0D80114968C93149760EF8D9109
:104BD0009C91D4DB0F900F908A3F9105D1F085E82E
:104BE00092E09F938F930E94922E0F900F90F80166
:104BF0008281938181399B4A09F078CF60EFF80177
:104C000080819181BBDB8A3F9105A1F08DE792E025
:104C10000AC062E8D8018D919C91B0DB8A3F910572
:104C2000F1F681E892E09F938F930E94922E0F906D
:104C30000F905CCF63E0D8018D919C919FDB8A3F00
:104C4000910521F789E792E09F938F930E94922E1E
:104C500083E0F8018483EBCF803BFFEB9F0709F4EF
:104C6000A1CF882781152BEA920709F43BCF811544
:104C70003FEB930709F496CF81159F4709F492CF34
:104C80008DE592E09F938F930E94922E60EFF80142
:104C90008081918173DB0F900F908A3F910529F0FD
:104CA00060EFD8018D919C916FCF62E0F801808117
:104CB000918164DB8A3F910599F714CF2EE331E0AF
:104CC000F8014481413009F1423011F1433019F1CA
:104CD000443021F54DE651E03F932F935F934F937E
:104CE0009F938F938DE492E09F938F930E94922ED7
:104CF0008AE0D80118968C930FB6F894DEBF0FBEE9
:104D0000CDBF01CE25E431E0DBCF4EE551E0E4CF6D
:104D100041E651E0E1CF44E651E0DECF49E351E026
:104D2000DBCF0E940A099F938F9388E492E09F93C0
:104D30008F93F8D70F900F900F900F90D801149683
:104D40008C911497833009F440C0843009F443C037
:104D5000823019F40E94820AE9DC8BE0D8011896AF
:104D60008C930E940A099F938F9384E192E09F9312
:104D70008F93D8D70F900F900F900F90F8018081EC
:104D800091810E9464146C01019609F4BCCDD80194
:104D900014968C911497823009F4DCC108F059C143
:104DA000813009F0B0CD8C2DF8019185923009F455
:104DB000C0C108F076C1992309F47EC1913009F48D
:104DC00097C1D80119961C929ECD68EFF801808199
:104DD0009181D4DABFCF65EF8D919C91CFDA6AEEE5
:104DE000F80180819181CADABE016F5F7F4FC801EF
:104DF000FFDB81E492E09F938F9394D768EED80114
:104E00008D919C91BBDA60E0F80180819181B6DAE6
:104E100066EED8018D919C91B1DA66EEF801808141
:104E20009181ACDA66EED8018D919C91A7DABE0132
:104E30006F5F7F4FC801DCDB0F900F908981882363
:104E400009F469C08A81882309F465C08AE392E085
:104E50009F938F9367D766EEF801808191818EDAF8
:104E600068EED8018D919C9189DA60E0F80180812B
:104E7000918184DA68EED8018D919C917FDA63E0AC
:104E8000F801808191817ADA68EED8018D919C9148
:104E900075DA62E0F8018081918170DA68EED801FC
:104EA0008D919C916BDA61E0F8018081918166DAE5
:104EB00066EED8018D919C9161DA68EEF8018081EF
:104EC00091815CDA63E0D8018D919C9157DA68EEAC
:104ED000F8018081918152DA61E0D8018D919C9135
:104EE0004DDA68EEF8018081918148DA62E0D801FC
:104EF0008D919C9143DA68EEF801808191813EDAD0
:104F000063E0D8018D919C9139DA89E0F8018487BA
:104F10000F900F9060C083E392E09F938F9302D72E
:104F200063EFD8018D919C9129DA68ECF8018081BA
:104F3000918124DA63EFD8018D919C911FDA64E6A8
:104F4000F801808191811ADA63EFD8018D919C91EB
:104F500015DA60E5F8018081918110DAC8017EDB05
:104F6000292F30E00F900F9083E02330310509F0B6
:104F700080E0D8011C968C938CE292E09F938F93F3
:104F8000D1D663EFF80180819181F8D968ECD8011E
:104F90008D919C91F3D963EFF80180819181EED9D5
:104FA00068ECD8018D919C91E9D963EFF80180817B
:104FB0009181E4D960E5D8018D919C91DFD9C80138
:104FC0004DDB292F30E00F900F902430310529F56B
:104FD00084E0F801848764EFD8018D919C91CED94B
:104FE000BE016F5F7F4FC80103DBF8018485893004
:104FF00021F1833029F1843031F1811127C08DE80E
:1050000091E09F938F9389E192E09F938F938AD64B
:105010000F900F900F900F90A0CED8011C968C91FE
:105020008111D9CF85E292E09F938F937BD666EF73
:10503000F80180819181A2D96BCF83E791E0E1CF24
:105040008CE791E0DECF84E891E0DBCF85E991E069
:10505000D8CF833009F476C1843009F054CC8D91D7
:105060009C9118D95C01019609F4BCC0D8018D91BE
:105070009C9110D97C01019609F4B4C0F801848593
:105080002585853008F064C2833008F09DC28823EE
:1050900009F49AC2D12CF12CE12CB12CA12C90E076
:1050A000F3C2933009F44EC0943009F08ACE65E51E
:1050B000853C09F086CE39C0813E51F08F3F09F41E
:1050C00078C0803E49F481E0D80119968C931BCCBE
:1050D00082E0F801818717CC6C2DC7FC04C0C801A1
:1050E0000E94631110CC6F77C8010E943C110BCC59
:1050F000863309F466CE78F48A3209F462CE8C2DB8
:10510000C7FC0FC00E941312682FC8010E946311D0
:10511000F8011186F8CB8A3A09F453CE863B79F729
:1051200050CE8F770E941312682FC8010E943C1145
:10513000EFCF8D3129F08D3909F043CE84E0C9CF0E
:1051400083E0C2CF853409F03CCE65E5C8010E94FA
:10515000631137CEFC2C1A96EC911A97EB3008F0BD
:1051600063C0F0E0EA54F74D0C948932C1282A2933
:105170000B29592971297B29802986298C29912974
:105180009C29F8018281938180599B4A029720F4DF
:105190008C2D0E94F306F82EF4E8FF16B9F1FF15E6
:1051A00058F020E8F21649F133E8F31641F1F11016
:1051B0000DC00E941D16A7CB81EEF816D1F090EF1E
:1051C000F91691F0A0EE82E0FA16A1F06F2DF7FE2D
:1051D00086CF0E9488118BEB91E09F938F93A2D58D
:1051E0000F900F908CE0B7CB81E0D8011A968C938A
:1051F0008ACB84E0F801828786CB89E0F6CF62E033
:10520000C8010E946311F80112867DCB6FE7C801C7
:105210000E94631109C0B9E5CB1631F0E0EFCE165C
:1052200039F0F2E1CF1206C0D8011A961C926BCB6E
:1052300083E0E0CFD8011A961C92C7FC06C06C2D03
:10524000C8010E945510682F4ACF0E94881181EB37
:1052500091E0C3CFF8018281938180599B4A0297E4
:1052600020F48C2D0E94F306F82EF3E8FF16B9F017
:1052700024E8F216C9F0D8011A961C926F2DF7FE99
:1052800033CF0E9488111F92FF9282EA91E09F9390
:105290008F9348D50F900F900F900F90A3CF62E09F
:1052A000C8010E943C11C0CF6FE7C8010E943C11A9
:1052B000AACFB2E1CB1609F4B7CFE9E5CE1609F4CF
:1052C000B3CFD8011A961C92C7FC06C06C2DC8013A
:1052D0000E945510682F08CF0E94881185E991E03F
:1052E0007CCFB4E1CB1629F0E0EFCE129DCF86E063
:1052F00081CF85E07ACFF7E7CF1296CF60E087CFF6
:10530000B4E187E0CB1609F475CF8ECFF0EF88E0DB
:10531000CF1609F46ACF88CFB7E7CB1285CF60E00C
:10532000C4CFF0EFCF1202C08AE05FCFF80112863F
:105330008C2D0E94910687CF1A961C928C2D0E946C
:105340009106C8CF8C2D8F3B29F090F496E59C0DEB
:10535000923080F4D8011B961C928EED91E09F93C1
:105360008F93E0D48CE0F80180870F900F90CBCA28
:105370008C3F81F3D8011B969C911B97913009F4C7
:1053800073C098F0923009F4BCC0933009F0BBCAE6
:105390008E3109F4DBC008F0D0C061E5863109F038
:1053A000B8C0C8010E943C11C1C0F80122813381FC
:1053B0002239FBEA3F0719F58C3509F451C0B8F4DE
:1053C000833109F44FC0863809F43EC030F5833884
:1053D000B9F1E0F4882309F4ECCE8038E9F187FFD5
:1053E00032CF81ED91E09F938F939CD4BECF8637CF
:1053F00021F08E3741F786E726CF8EE724CF21397B
:105400003B4A09F78C2D0E941A07DDCF8438D1F072
:1054100068E6853809F463CEE2CF8C38C9F038F4F9
:105420008738A1F061E08B3809F459CED8CF8D3898
:1054300089F0803FA1F681E0D8011B968C9363CA66
:1054400062E04DCE6FE74BCE68E749CE60E047CED5
:1054500069E045CE6AE043CE82E0F801838753CA13
:1054600081E5F1CE8DE5EFCE1B961C921B9712962F
:105470002D913C912239BBEA3B0719F58C3509F493
:1054800037C0B8F4833109F435C0EDE7E80FEB30ED
:1054900098F5F0E0E25BF54D0C948932682A6A2AAF
:1054A0006C2A6E2A702A7C2A7C2A7C2A722A742A08
:1054B000762A863721F08E3741F786E70BCF8EE7C5
:1054C00009CF21393B4A09F78C2D0E941A07DDCFFD
:1054D00062E00ACE6FE708CE68E606CE68E704CE43
:1054E00060E002CE61E000CE69E0FECD6AE0FCCD76
:1054F00081E5F0CE8DE5EECE87FFECCE87EC91E036
:1055000072CF8532B1F040F48631A9F060E08E317F
:1055100051F00E9488110AC0863221F0803FC9F7FD
:1055200083E08ACF6DE5C8010E946311F8011386FC
:10553000EAC963E5F8CF61E5F6CF853229F06DE57C
:10554000863209F42ECFE5CF63E52BCF60E029CF7B
:10555000893009F09FCDC601887499278834910558
:1055600009F03DC1A1FE3BC1D594C794D594C79421
:10557000BCE0CB22DD24E4E0B594A794EA95E1F702
:10558000E3E0AE22BB24AC28BD28F2E0AF16B104A4
:1055900009F4D5C033E0A316B10409F409C1AA94F3
:1055A000AB2809F02BC1E6FC63C0A7014870552762
:1055B0009E2D9F70E7FE3FC080EF452B09F480E0F1
:1055C000D92ED82A90E03DC0287F9C2D9770292B9A
:1055D000D8011D962C93C4FE02C0BB24BA94C5FE0C
:1055E00002C0FF24FA94833009F40DC1843009F01D
:1055F000DDC0F801808191810E944A21AC010196B1
:1056000009F4D4C080EF43FF80E0942F9F70982B63
:10561000D8011D962C911D9744FF00C128601D964E
:105620002C93D8011D962C911D9745FFFBC020613E
:105630001D962C93F1C080EF452B09F480E0982B48
:10564000D12CE4FE17C02860D8011D962C93D801F8
:105650001D968C915701B0E2AB22BB24E5FE0EC033
:105660008061F8018587F12CE12CB12CA12C0CC0B4
:10567000D12CA8CF277FF8012587E9CF8F7ED801CD
:105680001D968C93F12CE12CD8011D960C91B0E85D
:10569000AB16B1040CF0CAC0E1E8AE16EFEFBE06DF
:1056A00024F451E8A52EBB24BA94F0E8EF16F104D7
:1056B0000CF0BFC021E8E2162FEFF20624F431E827
:1056C000E32EFF24FA94E194192F1195903809F4F0
:1056D0001FE730E8D31202C081E8D82EA092D6038B
:1056E000E092D7031093D803D092D9038091DC03C2
:1056F000802B8093D50385ED93E00E9423141F92A5
:105700000F938D2D0D2C000C990B9F93DF92812F01
:10571000012E000C990B9F931F938E2D0E2C000CC5
:10572000990B9F93EF928A2D0A2C000C990B9F9353
:10573000AF9285EF91E09F938F93F4D2DDCAE0FEA4
:1057400022C02064F8012587F8018585E1FE20C08C
:1057500080688587F8018585E2FE1DC080628587A7
:10576000F8018585E3FE1AC080648587F801858588
:105770005701F0E1AF22BB24E4FE13C08068D801DA
:105780001D968C9387CC2F7BD8011D962C93DCCF54
:105790008F778587DFCF8F7D8587E2CF8F7B85876A
:1057A000E5CF8F77F8018587F12CE12CD12C77CCD0
:1057B000C70164E0959587956A95E1F7982F9F70EA
:1057C000D12CE7FE03C0906FD92E90E0287FFE2DEC
:1057D000F770EF2EE22AD8011D96EC9244CF287F75
:1057E0008C2D8770282BF8012587C4FE02C0BB24AE
:1057F000BA94C5FEDBCFFF24FA94D8CFF12CE12C6C
:10580000B12CA12CD3CFD8018D919C910E944A211B
:105810008F3F980759F2982FD12C36CF277FF80168
:105820002587FFCE2F7EF8012587F6CF4FE7A42EE0
:105830003CCF21E8E22E48CF0E940A099F938F9324
:1058400080EF91E09F938F936DD26EEFD8018D9191
:105850009C910E94BE210F900F900F900F908A3A5A
:10586000910511F489E077C80E940A099F938F93EC
:105870008BEE91E09F938F9355D2D80113961C9293
:105880001E92129714961C92149715961C920E94C1
:105890008811F801808191810E94BC110E941D161F
:1058A000D80118961C92A4C878941F920F920FB634
:1058B0000F9211248F939F93AF93BF938091E10335
:1058C0009091E203A091E303B091E4030196A11D3E
:1058D000B11D8093E1039093E203A093E303B0939F
:1058E000E403BF91AF919F918F910F900FBE0F90E6
:1058F0001F9018951F920F920FB60F9211248F933D
:105900009F93AF93BF938091E1039091E203A091A5
:10591000E303B091E4034196A11DB11D8093E1031F
:105920009093E203A093E303B093E403BF91AF919C
:105930009F918F910F900FBE0F901F9018951F92FF
:105940000F920FB60F9211240BB60F922F933F9325
:105950004F935F936F937F938F939F93AF93BF9377
:10596000EF93FF938091E10082FF09C08091E200F4
:1059700082FF05C08091E1008B7F8093E1008091E0
:10598000DA0080FF1FC08091D80080FF1BC080918B
:10599000DA008E7F8093DA008091D90080FFBBC04F
:1059A00084E189BD86E189BD09B400FEFDCF81E0B7
:1059B00080930C038091DE02811104C00E948E0A44
:1059C0000E94C20E8091E10080FF21C08091E20020
:1059D00080FF1DC08091E2008E7F8093E200809165
:1059E000E20080618093E2008091D8008062809321
:1059F000D80019BC85E080930C038091E00280936D
:105A0000DF021092E0020E9488110E94DC15809152
:105A1000E10084FF2FC08091E20084FF2BC084E16D
:105A200089BD86E189BD09B400FEFDCF8091D80013
:105A30008F7D8093D8008091E1008F7E8093E1007C
:105A40008091E2008F7E8093E2008091E20081608D
:105A50008093E20080910303882309F462C084E00C
:105A600080930C030E9488110E94DC158091DF0254
:105A70008093E0028091E10083FF3AC08091E200D0
:105A800083FF36C08091E100877F8093E10082E050
:105A900080930C03109203038091E1008E7F80932A
:105AA000E1008091E2008E7F8093E2008091E2002D
:105AB00080618093E20042E060E080E00E94760B2B
:105AC00081E0809312011092E5031092E00280E2DF
:105AD000E1EEF2E0DF011D928A95E9F7EBE9F2E0F1
