:100000000C9435040C94AB040C945D080C94AB0474
:100010000C94D8090C94AB040C94AB040C94AB0472
:100020000C94AB040C94AB040C94EA1D0C94AB043C
:100030000C94512C0C94AB040C94AB040C94AB04B6
:100040000C94AB040C94AB040C94AB040C94AB0474
:100050000C94AB040C94A62C0C94AB040C94AB0441
:100060000C94AB040C94AB040C94AB040C94AB0454
:100070000C94AB040C94AB040C94AB040C94AB0444
:100080000C94AB040C94AB040C94AB040C94AB0434
:100090000C94AB040C94AB04190D270D330D330DE8
:1000A0000B0D330D330D330D330D330D330D330D78
:1000B000330D330D330D330D330D330D0D0D330D66
:1000C0000F0D330D330D330D330D2B0D330D420D4D
:1000D000290D330D330D330D330D330D330D330D2A
:1000E000330D330D330D330D330D330D030D1F0D54
:1000F000110D230D330D130D330D170D330D210D80
:10010000150D250D1B0D1D0D330D330D330D330D49
:10011000330D330D330D050D070D090D2D0D2F0D6D
:10012000330D330D330D310DDD0DDF0DEB0DEB0D0B
:10013000EB0DEB0DEB0DEB0DE10DE30DE50DEB0D17
:10014000EB0DDF0DEE0DEB0DEB0DA70DDD0DEB0D4A
:10015000EB0DE30DEB0DEB0DEB0DEB0DEB0DEB0DE7
:10016000E50DDD0DC90DEB0DCD0DEB0DEB0DEB0D23
:10017000A90DE10DEB0DEB0DD70DEB0DEB0DEB0D1F
:10018000AB0DE90DEB0DCB0DEB0DDF0DEB0DEB0D1D
:10019000DB0DCF0DEB0DD10DE30DEB0DEB0DEB0DED
:1001A000D90DD30DEB0DEB0DEB0DEB0DEB0DEB0DB9
:1001B000EB0DD50DEB0DAD0DEB0DEB0DE10DEB0DDD
:1001C000EB0DE90DEB0DEB0DEB0DEB0DEB0DEB0D71
:1001D000EB0DEB0DEB0DAF0DEB0DEB0DEB0DD70DAF
:1001E000EB0DEB0DEB0DEB0DEB0DEB0DEB0DEB0D4F
:1001F000EB0DEB0DB10DEB0DB30DB50DEB0DEB0DE7
:10020000EB0DB70DB90DBB0DEB0DBD0DBF0DEB0D1E
:10021000EB0DEB0DE70DC10DEB0DC50DC30DC70DBE
:10022000EB0DEB0DEB0DEB0DE90D300E7E0E590EC7
:10023000A40ECA0ED20ED90EDE0EE20E790F7B0F7F
:100240007D0F7F0F810F890F890F890F830F850F16
:10025000870F611082109610B310C510D010F410E3
:100260000D11331155112B12D013AE15351C5C1C1A
:10027000541D5C1C541DA81CCB1C541D221D311D7B
:100280003E223E2276227622F12225231C251C25A1
:100290003C231C25CD22CD22D6241C25EB24092568
:1002A00072253032582000522000643A2575200013
:1002B000633A257520006973723A2530345820005E
:1002C00077253032582000214353335F4630210ACE
:1002D00000214353335F5245414459210A002143D1
:1002E00053335F5245534554210A00214353325F33
:1002F00045305F4630210A00214353325F463021AA
:1003000020253032580A00214353325F4530210AFC
:1003100000214353325F494E4954210A002143537F
:10032000315F45305F25303258210A004D5B783A05
:10033000256420793A256420763A256420683A2598
:100340006420623A253032585D0A000A5B434C5201
:100350005D20004C257520000A4D6F7573653A20AD
:1003600025730A000A4445463A20000A4558503A87
:1003700020000A494E543A20000A4C4F473A2000C8
:100380000A4C4D533A200053257520000A49443A3F
:100390002530345828257325732920000A556E6BA3
:1003A0006E6F776E2049443A205265706F727420E8
:1003B000746F20544D4B20004E4720004F4B2000BF
:1003C0000A353537365F43533832683A005225755F
:1003D00020005725752000572575200057257520CA
:1003E00000582575200041257520004925752000FD
:1003F0005B4348475D20000A2575205052543A253A
:10040000303258204953523A2530345820005B523C
:1004100053545D20000A2575204552523A2530324A
:1004200058204953523A253034582000535B253028
:100430003258202530325820253032585D200000B7
:100440007B46010203763A687F6577482B353B6926
:1004500078796439141E3C6A7A1D16041A1F3D6BA4
:10046000061B070821203E6C2C19091715223F6D29
:1004700011050B0A1C23406E7E100D182425416FB8
:10048000360E0C122726427037380F33132D437166
:100490007534322F2E44727C7D283031744573516F
:1004A000504A524D492A5466594F5C5F4C4B4E623C
:1004B000635A5D5E60295367585B565761475548DC
:1004C00042403E3C3A3B456843413F3D2B357E69C7
:1004D0007A790078141E7C6A7B1D16041A1F7F6BC4
:1004E000061B070821204D6C2C19091715224A6D8F
:1004F00011050B0A1C234C6E49100D182425516F51
:10050000360E0C1227264F7037380F33132D5271C9
:100510007534502F2E4E72397D283065314B73540F
:1005200064586776012A773259745C5F6602036209
:10053000635A5D5E60295344575B56556147468058
:10054000291E1F20212223242526272D2E2A2B1465
:100550001A0815171C180C12132F302878041607C8
:10056000090A0B0D0E0F33343579311D1B061905A1
:1005700011103637387D557A2C393A3B3C3D3E3F99
:100580004041424353475F6061565C5D5E57595A34
:100590005B62634648644445677B7F6503010252A2
:1005A00050514F68696A6B6C6D6E6F707172580054
:1005B000494C754A4D734B4E767C777E7466540A6F
:1005C0004C6F6F702073746172742E0A000A555359
:1005D0004220636F6E666967757265642E0A000A51
:1005E000544D4B3A3464366537662F4C5546413A84
:1005F0006436613764660A003403490042004D00E6
:1006000020005000430020006B006500790062006C
:100610006F00610072006400200063006F006E00D4
:100620007600650072007400650072000000080327
:1006300054004D004B0000000403090409025B0054
:10064000030100A032090400000103010100092197
:10065000110100012239000705810320000109046E
:1006600001000103010200092111010001227F00A4
:1006700007058203080001090402000203000000CC
:100680000921110100012222000705830320000136
:10069000070503032000011201100100000008ED0E
:1006A000FEEE1B0102010200010631FF0974A101E7
:1006B0000975150026FF0095207508810209761539
:1006C0000026FF00952075089102C005010902A1CE
:1006D000010901A100850105091901290815002555
:1006E000019508750181020501093009311581253F
:1006F0007F95027508810609381581257F9501755A
:10070000088106050C0A38021581257F95017508B8
:100710008106C0C005010980A101850216010026DD
:1007200037001A81002AB700751095018100C005B5
:100730000C0901A1018503160100269C021A010083
:100740002A9C02751095018100C005010906A101CE
:10075000050719E029E715002501950875018102B3
:100760000508190129059505750191029501750383
:1007700091010507190029F71500250195F8750164
:100780008102C0636F6E73756D65723A20253034D7
:10079000580A0073797374656D3A20253034580A0D
:1007A000000A002530325820006B6579626F617253
:1007B000643A20004C45443A20253032580A00253E
:1007C000583A253031366225730A000A202030312C
:1007D00032333435363738394142434445460A00CE
:1007E00064656C5F6B65795F6269743A2063616E02
:1007F00027742064656C3A20253032580A00616401
:10080000645F6B65795F6269743A2063616E277417
:10081000206164643A20253032580A00290A0025F4
:1008200075002F002575005D280025640020002537
:100830006400200025640020002564007C00253031
:100840003258006D6F7573656B6579205B62746EED
:100850007C782079207620685D287265702F61632E
:100860006C293A205B00530B111611241FBECFEFE9
:10087000D0E2DEBFCDBF04B603FE49C080912104A3
:1008800090912204A0912304B09124048730904BCE
:10089000A740B04B09F03BC01092210410922204F3
:1008A000109223041092240414BE0FB6F894A89555
:1008B00080916000886180936000109260000FBE9C
:1008C0001092010810920008E3E0F0E089E08093C4
:1008D0005700E491E695E370E150E33040F4F0E036
:1008E000EE0FFF1FE858FE4F2081318102C020E04B
:1008F00030E280E090E0A2E0B0E0821B930BA1091F
:10090000B109B595A79597958795FC01099511E0D3
:10091000A0E0B1E0E0E0F2E600E00BBF02C007902B
:100920000D92AE37B107D9F724E0AEE7B1E001C0D0
:100930001D92A132B207E1F714E0C5E3D4E004C090
:100940002197FE010E94E130C333D107C9F70E940D
:100950004E190C94FE300C940000FF93EF93E0913D
:100960007E01F0917F01309709F00995EF91FF9199
:100970000895FC018591803011F0EFDFFBCF0895E1
:10098000FF27E0E230E247FF0CC0419597FF09C026
:10099000EDE26095709580959095611D711D811DAA
:1009A000911D27FF02C0219530E350E2AA27660F70
:1009B000771F881F991FAA1FA41710F0A41B639507
:1009C0005A95A9F7AA3008F0A95FA05DAF93F395F7
:1009D000611571058105910541F7ED3211F4EF9331
:1009E000F395F21718F43F93F395FBCF8F91B5DF92
:1009F000FA95E1F70895E991F9918591803021F018
:100A0000853219F0AADFF9CF089520E0E8945591D6
:100A10005532C1F3503311F4689455915A3348F468
:100A2000505390F3220F022E220F220F200D250F7C
:100A3000F4CF0EF4219589919991533619F35337D8
:100A400029F1533559F1BC0188279927E8945C3680
:100A500021F48991999168945591543639F446EF6F
:100A60007EF077FF0DC08FEF9FEF0AC055374AE049
:100A700039F0583540E121F0523642E009F008954E
:100A8000FF93EF937DDFEF91FF91B7CFFF93EF934C
:100A9000FC0181918030B9F360DFFBCFFF93EF93CE
:100AA00068DFF1CFDF93CF93CDB7DEB72596A3DF15
:100AB000CF91DF910895FC012AB1938D90959223F7
:100AC0009AB99BB1838D892B8BB90895FC019AB19A
:100AD000838D809589238AB99BB1838D892B8BB9AE
:100AE00085E08A95F1F7000099B1838D982381E024
:100AF00009F480E00895FC012BB1948D9095922328
:100B00009BB99AB1848D892B8AB90895FC012AB1C9
:100B1000948D909592239AB99BB1848D892B8BB932
:100B20000895FC019AB1848D809589238AB99BB17F
:100B3000848D892B8BB985E08A95F1F7000099B1F6
:100B4000848D982381E009F480E008950F931F932A
:100B5000CF93DF938C01EB01C8010E9466058823C7
:100B600041F0209731F085E08A95F1F70000219758
:100B7000F3CFCE01DF91CF911F910F9108950F9385
:100B80001F93CF93DF938C01EB01C8010E94660590
:100B9000811108C0209731F085E08A95F1F70000B7
:100BA0002197F3CFCE01DF91CF911F910F9108953F
:100BB0000F931F93CF93DF938C01EB01C8010E9429
:100BC0009105811108C0209731F085E08A95F1F7F1
:100BD00000002197F3CFCE01DF91CF911F910F91AC
:100BE0000895CF93DF93EC010E945B05CE01DF9166
:100BF000CF910C9486053BB1FC01238D20952323D6
:100C00002BB93AB1238D232B2AB90C948605FC010C
:100C10008CB3938D982B9CBB9DB3838D892B8DBBFF
:100C20000895CF93DF93EC010E940706CE01DF9178
:100C3000CF910C94F105FC012DB3938D90959223E7
:100C40009DBBCF010C94FB05FC0111821082128226
:100C5000138280E090E8958384831782108608953C
:100C6000CF93DF93EC012E9826982F9827980E9417
:100C7000FB05898D843080F440916900880F22E063
:100C800030E0B90102C0660F771F8A95E2F7CB0109
:100C9000842B8093690010C040916A008370880F94
:100CA00022E030E0B90102C0660F771F8A95E2F7B3
:100CB000CB01842B80936A009DB38B8D8095892313
:100CC0008DBBCE01DF91CF910C942406CF93DF939F
:100CD000EC018F8190E001968F709927288530E094
:100CE0008217930749F4CE010E942406CE010E9488
:100CF0000706CE010E94F1052FB7F89498858F81E1
:100D0000891751F0FE01E90FF11D81859F5F9F70EA
:100D10009887C82FD0E002C0CFEFDFEF2FBFCF3FC3
:100D20008FEFD80781F08091060480FF0CC0DF931D
:100D3000CF9380EA92E09F938F930E9452050F9089
:100D40000F900F900F90CE01DF91CF9108950F93E8
:100D50001F93CF938C01CAE1C15071F0C8010E946A
:100D600066068F3F2FEF920749F48FE99FE00197C6
:100D7000F1F700C00000F0CF8FEF9FEFCF911F91F0
:100D80000F9108952F923F924F925F926F927F92B0
:100D90008F929F92AF92BF92CF92DF92EF92FF928B
:100DA0000F931F93CF93DF93EC01062F1B8280914B
:100DB000060480FF0CC01F926F9380EC92E09F931B
:100DC0008F930E9452050F900F900F900F908C817F
:100DD0009D818115904891F08091060480FF0EC09E
:100DE0008C819D819F938F9386EB92E09F938F934D
:100DF0000E9452050F900F900F900F908C819D8153
:100E000081159048D9F7CE010E946605811115C061
:100E10008091060480FF11C068EE73E0CE010E944D
:100E2000BF059F938F9380EB92E09F938F930E94D7
:100E300052050F900F900F900F90CE010E949105D8
:100E4000811115C08091060480FF11C068EE73E027
:100E5000CE010E94D8059F938F938AEA92E09F93D8
:100E60008F930E9452050F900F900F900F909DB39B
:100E70008B8D809589238DBB9BE0D92ECC24C39488
:100E800010E09924939428E0222E37E0332E46E098
:100E9000842E55E0752E64E0662E73E0572EE2E056
:100EA0004E2EF7EAAF2EF2E0BF2ECE010E94FB05D8
:100EB0008FE193E00197F1F700C00000CE010E949E
:100EC0007B058FE193E00197F1F700C00000CE01B0
:100ED0000E945B0560E177E2CE010E94A605892BA6
:100EE00011F49B826AC0E12CF12C90E59A95F1F700
:100EF000C8010E2C02C0959587950A94E2F780FFF1
:100F000005C0C924CE010E94860503C0CE010E94FF
:100F10007B0562E370E0CE010E94BF05892B11F4CE
:100F20004B824BC062E370E0CE010E94A605892B84
:100F300011F45B8242C02FEFE21AF20A88E0E81651
:100F4000F10499F690E59A95F1F7CE01CC2019F0CD
:100F50000E94860502C00E947B0562E370E0CE011C
:100F60000E94BF05892B11F46B8227C062E370E0F9
:100F7000CE010E94A605892B11F47B821EC020E5BC
:100F80002A95F1F7CE010E9486058CE2E82EFF2417
:100F9000F394CE010E949105882329F0E114F10415
:100FA000D9F58B820AC0EF28E1F36CE271E0CE0143
:100FB0000E94D805892B49F43B828B81813009F04E
:100FC0003FC0DA94D11030C03BC06CE271E0CE017A
:100FD0000E94BF05892B11F42B82EFCFCE010E9416
:100FE0002406CE010E94F105CE010E940706CE0123
:100FF000DF91CF911F910F91FF90EF90DF90CF90F5
:10100000BF90AF909F908F907F906F905F904F9028
:101010003F902F900C94A70685E08A95F1F7000089
:1010200091E0E91AF108B5CF1B828091060480FF98
:101030003CCFBF92AF920E9452050F900F9035CFD8
:101040008B8180618B83CE010E94FB058FE39FE142
:101050000197F1F700C00000CE010E94F105CE011A
:101060000E9407068FEF9FEFDF91CF911F910F91A5
:10107000FF90EF90DF90CF90BF90AF909F908F90B8
:101080007F906F905F904F903F902F9008951F93A7
:10109000CF93DF93EC01162F6DEE0E94C2068A3FBC
:1010A000910539F4612FCE01DF91CF911F910C94FE
:1010B000C206DF91CF911F9108951F920F920FB634
:1010C0000F9211240BB60F922F933F934F935F9380
:1010D0008F939F93EF93FF9349B15091B7019091F4
:1010E00007042091A1013091A2012115304819F483
:1010F0009093A3010FC08091A301981B933050F0EF
:101100008091A1019091A20190939E0180939D01F5
:1011100080E21EC12091A1013091A2013695279550
:101120003093A2012093A10181E090E001C0880FDB
:101130005A95EAF7842349F08091A1019091A20188
:1011400090689093A2018093A1018091A101909158
:10115000A20199278038910509F41BC1A8F48032B7
:10116000910509F416C138F4009709F412C14097AB
:1011700009F495C0B5C08034910509F40AC18035E1
:10118000910509F48CC0ACC0803C910531F148F464
:101190008039910509F483C0803A910509F44DC066
:1011A0009FC0803D910509F47AC0803E910509F009
:1011B00097C08091A1019091A20190939E0180938C
:1011C0009D018091A1019091A201892F992790936F
:1011D000A2018093A10183E256C080919F018111F9
:1011E00023C084E629B19091B801922311F48111B2
:1011F000B8C029B19091B8019223E1F08111B7C034
:101200008091A1019091A20190939E0180939D01F4
:101210008091A1019091A201892F99279093A20119
:101220008093A10182E22FC080919F01823209F058
:10123000B0C0E6CF8111ADC0E3CF80919F01811195
:1012400025C084E629B19091B801922311F481114F
:1012500094C029B19091B8019223F1F0811193C00B
:101260008091A1019091A20190939E0180939D0194
:101270008091A1019091A201892F99279093A201B9
:101280008093A10181E280939F0136C080919F01EC
:10129000813209F07EC0E4CF81117BC0E1CF809123
:1012A000A1019091A20190939E0180939D01809154
:1012B000A1019091A20197FF02C080E101C081E1EC
:1012C00080939F018091A1019091A20126E09695C3
:1012D00087952A95E1F79093A2018093A1010CC014
:1012E00010929F018091A1019091A20190939E0183
:1012F00080939D0180E82CC02091A1013091A20132
:101300008091A401E82FF0E0E356FE4F21878F5F24
:101310008F708093A40190E001968F70992730918F
:10132000A501432F50E08417950769F42DB38091F0
:10133000B801482F409524232DBB9BB194239BB922
:101340009AB1892B8AB98091A401831303C080E4E8
:101350008093A00180E090E89093A2018093A10186
:1013600018C095E09A95F1F7000081503BCF95E0C9
:101370009A95F1F7000081503CCF95E09A95F1F7EE
:10138000000081505FCF95E09A95F1F70000815001
:1013900060CFFF91EF919F918F915F914F913F911E
:1013A0002F910F900BBE0F900FBE0F901F901895AE
:1013B0001F920F920FB60F9211240BB60F922F931C
:1013C0003F934F935F938F939F93EF93FF9349B115
:1013D00050919A01909107042091840130918501E8
:1013E0002115304819F4909386010FC08091860131
:1013F000981B933050F080918401909185019093D7
:1014000081018093800180E21EC12091840130918E
:10141000850136952795309385012093840181E0DD
:1014200090E001C0880F5A95EAF7842349F0809133
:101430008401909185019068909385018093840147
:10144000809184019091850199278038910509F454
:101450001BC1A8F48032910509F416C138F4009735
:1014600009F412C1409709F495C0B5C080349105C4
:1014700009F40AC18035910509F48CC0ACC0803CE8
:10148000910531F148F48039910509F483C0803A1F
:10149000910509F44DC09FC0803D910509F47AC0C3
:1014A000803E910509F097C080918401909185015B
:1014B00090938101809380018091840190918501B6
:1014C000892F9927909385018093840183E256C0E8
:1014D00080918201811123C084E629B190919B0102
:1014E000922311F48111B8C029B190919B019223EC
:1014F000E1F08111B7C080918401909185019093B2
:101500008101809380018091840190918501892FD0
:101510009927909385018093840182E22FC0809166
:101520008201823209F0B0C0E6CF8111ADC0E3CFB5
:1015300080918201811125C084E629B190919B019F
:10154000922311F4811194C029B190919B019223AF
:10155000F1F0811193C08091840190918501909365
:101560008101809380018091840190918501892F70
:101570009927909385018093840181E28093820171
:1015800036C080918201813209F07EC0E4CF8111A2
:101590007BC0E1CF8091840190918501909381017E
:1015A00080938001809184019091850197FF02C012
:1015B00080E101C081E1809382018091840190915A
:1015C000850126E0969587952A95E1F79093850108
:1015D000809384010CC010928201809184019091CB
:1015E0008501909381018093800180E82CC0209137
:1015F00084013091850180918701E82FF0E0E05867
:10160000FE4F21878F5F8F708093870190E0019656
:101610008F70992730918801432F50E084179507E8
:1016200069F42DB380919B01482F409524232DBB55
:101630009BB194239BB99AB1892B8AB98091870178
:10164000831303C080E48093830180E090E890934B
:1016500085018093840118C095E09A95F1F7000008
:1016600081503BCF95E09A95F1F7000081503CCF37
:1016700095E09A95F1F7000081505FCF95E09A953B
:10168000F1F70000815060CFFF91EF919F918F9112
:101690005F914F913F912F910F900BBE0F900FBE16
:1016A0000F901F901895EDE9F1E0118210821282DF
:1016B000138220E030E835832483168291E0918FF5
:1016C000128E82E0838F948FE0E8F1E01182108225
:1016D0001282138235832483168293E0918F828F46
:1016E00088E0838F84E0848F0895262F30E094E093
:1016F000359527959A95E1F72770E62FEF708230A0
:1017000069F08330A1F08130E1F4F0E080E1289FBE
:10171000E00DF11D1124E15CFA4F11C0F0E080E111
:10172000289FE00DF11D1124E154FB4F08C0F0E0AB
:1017300080E1289FE00DF11D1124E15CFB4F8491B5
:10174000089580E808950F931F93CF93DF938C0142
:10175000EB0169EEFC01808191810E94C206F801D3
:10176000808191810E94A7068883F8018081918100
:101770000E94A7068983F801808191810E94A706B3
:101780008A8399279F938F9389811F928F93888152
:101790001F928F938CE294E09F938F930E94520547
:1017A0008DB79EB708960FB6F8949EBF0FBE8DBF3B
:1017B000DF91CF911F910F910895E6EDF1E0119225
:1017C000119281E0E63EF807D1F708951F93CF9379
:1017D000DF93FC0184810E94750B87FD20C0182FC8
:1017E0001F70C82FD0E094E0D595C7959A95E1F782
:1017F000612F8C2F0E945820811111C0CC0FDD1F4A
:10180000CA52DE4F81E090E002C0880F991F1A95FE
:10181000E2F728813981822B932B99838883DF918A
:10182000CF911F9108951F93CF93DF93FC01848183
:101830000E94750B87FD22C0182F1F70C82FD0E0A3
:1018400094E0D595C7959A95E1F7612F8C2F0E946A
:101850005820882399F0CC0FDD1FCA52DE4F81E05B
:1018600090E002C0880F991F1A95E2F78095909535
:10187000288139818223932399838883DF91CF91B3
:101880001F9108958091C8019091C9010E9430066E
:101890008091BA019091BB010C94300680910604AE
:1018A0008160809306040C94DD0BE82FF0E0EE0FCE
:1018B000FF1FEA52FE4F8081918108950C94DD0B49
:1018C0007770E72FF0E098E0899FE00DF11D11247B
:1018D00084E0EE0FFF1F8A95E1F76F70E60FF11DB0
:1018E000EE0FFF1FE050F849859194910895FC0197
:1018F0008481823070F0843061F062FB992790F926
:1019000060FD926061FD9460692F808191810C94EB
:1019100047080895CF93C82F682F88EC91E00E9464
:10192000770C6C2F8AEB91E0CF910C94770CCF92CF
:10193000DF92EF92FF920F931F93CF93DF936C018F
:101940008B010E947F2C7C01F601808191810E9495
:101950006606EC01019631F4C7010E94972C8017AE
:10196000910790F3CE01DF91CF911F910F91FF90DE
:10197000EF90DF90CF9008950F931F93CF93DF9355
:10198000FC0180819181DC0112962C912131F9F0CA
:101990008F0162EF0E94C2068F3FBFEF9B07D1F01D
:1019A0008A3F9105D1F464EF71E0C8010E94970C61
:1019B0008F3F2FEF9207A1F0D82FCC2764EF71E073
:1019C000C8010E94970CDE01A82BCD010BC08DEF42
:1019D0009FEF08C08FEF9FEF05C08EEF9FEF02C013
:1019E00080E090E0DF91CF911F910F910895CF9308
:1019F000862F90E0FC017C97E834F105A0F5E45BCC
:101A0000FF4F0C94E13085E53EC08AE53CC08BE594
:101A10003AC08CE538C08DE536C08EE534C08FE520
:101A200032C080E630C081E62EC082E62CC083E65C
:101A30002AC08FE628C081E726C082E724C084E759
:101A400022C085E720C087E71EC088E71CC08AE760
:101A50001AC08CE718C08FE716C080E714C089E76A
:101A600012C08BE710C0C62F1F926F938DE193E0D9
:101A70009F938F930E9452050F900F900F900F909D
:101A80008C2F01C084E5CF910895CF93DF93EC01B3
:101A900099859230A9F128F4992341F09130C9F049
:101AA00045C09330B1F19430D9F140C0603E21F08F
:101AB000613E21F482E02BC081E029C067FD04C0B3
:101AC000CE010E94E60B33C06F77CE010E94130C4B
:101AD0002EC0663359F118F46A3229F427C06A3AE5
:101AE00029F1663B19F167FD05C0CE010E94F70C94
:101AF000682F12C06F77CE010E94F70C682F13C0B9
:101B00006D3121F06D3991F484E001C083E0898763
:101B10000EC0653459F465E5CE010E94E60B06C09F
:101B2000653C21F465E5CE010E94130C198680E026
:101B3000DF91CF910895862F90E0FC013397E13833
:101B4000F10508F048C0EC56FF4F0C94E13087E1F6
:101B500008958FE108958CE5089580E6089582E662
:101B6000089587E2089583E508958FE2089589E353
:101B7000089587E308958FE3089587E408958FE437
:101B8000089586E508958EE508958FE7089580E02D
:101B9000089585E608958EE608958FE6089580E31A
:101BA000089588E3089580E4089588E4089580E521
:101BB000089587E508958FE5089588E1089588E000
:101BC000089580E2089580E1089589E108958DE601
:101BD000089588E20895862F8F7708958FE00895FD
:101BE0006B35C9F068F46131F1F020F46E30C9F45E
:101BF00084E50895633169F0643599F48BE50895BF
:101C00006D3559F050F0623651F06C3751F487E77A
:101C1000089581E108958DE508958AE608958EE09E
:101C20000895862F08958FE00895613131F0613471
:101C300011F48CE70895862F089583E108951F938A
:101C4000CF93DF93EC01162FEA858E2F90E0893039
:101C5000910508F0BDC0FC01EB5EFE4F0C94E13035
:101C60008A819B8180599B4A029720F4CE010E9471
:101C7000F00D182F103E69F030F4133871F014385D
:101C800071F46FE792C0113E31F0103F41F481E0F2
:101C900093C082E091C084E08FC062E086C01A8663
:101CA00017FD02C0612F21C00E94DD0B81E193E08E
:101CB00069C08A819B8180599B4A029720F4CE019A
:101CC0000E94150E182F193509F482C0103F19F023
:101CD000123119F47DC083E06FC01A8617FD09C068
:101CE000612FCE010E949B0D682FCE010E94E60B52
:101CF00070C00E94DD0B87E093E044C08A819B8125
:101D000080599B4A029720F4CE010E94F00D182FB3
:101D1000133821F0143821F46FE757C062E055C042
:101D20001A8617FD02C0612F25C00E94DD0B1F928D
:101D30001F9388EF92E09F938F930E9452050F901C
:101D40000F900F900F9024C08A819B8180599B4AED
:101D5000029720F4CE010E94150E182F1A86123118
:101D6000C1F11935B1F117FD09C0612FCE010E94F3
:101D70009B0D682FCE010E94130C2BC00E94DD0B1F
:101D80008BEE92E09F938F930E9452050F900F90DD
:101D90008FEF20C0643121F0603FD1F486E00CC0A9
:101DA00085E00AC06737A1F460E0CE010E94E60B2F
:101DB0000FC0643169F487E08A870BC0603F41F44B
:101DC00088E0FACF673721F460E0CE010E94130C5F
:101DD0001A8680E0DF91CF911F9108956C3551F004
:101DE00018F4633169F00AC0663731F06E3731F4A8
:101DF00086E7089581E508958EE70895862F089572
:101E00008DE50895CF93DF93EC016F3B41F028F40B
:101E100086E5860F823070F402C06C3F59F41B8651
:101E20008EED92E09F938F930E9452050F900F903A
:101E30008FEFB1C08B85813009F445C038F0823016
:101E400009F476C0833009F491C0A4C08A819B81D3
:101E500082399B4A21F4CE010E94EE0E682F66382B
:101E600009F168F46338D1F020F4603819F582E0A4
:101E700077C06438A9F06538E9F468E61DC06C38AD
:101E8000A9F030F4673881F06B38A1F461E014C038
:101E90006D3871F0603F71F481E062C062E00CC0A7
:101EA0006FE70AC068E708C060E006C069E004C0E8
:101EB0006AE002C067FD04C0CE010E94E60B6AC062
:101EC00081ED92E02EC01B868A819B8182399B4ADC
:101ED00021F4CE010E94EE0E682F862F90E0FC01C7
:101EE000E358F109EB30F105A0F4E25EFE4F0C94EB
:101EF000E13062E010C06FE70EC068E60CC068E732
:101F00000AC060E008C061E006C069E004C06AE0A1
:101F100002C067FD04C0CE010E94130C3BC087ECD9
:101F200092E09F938F930E9452050F900F9032C0C2
:101F3000653279F030F4663171F06E3199F460E019
:101F40000BC0663221F0603F69F483E009C06DE5A3
:101F500003C063E501C061E5CE010E94E60B04C049
:101F60008B8718C00E94DD0B1B8614C06E3169F090
:101F700020F46631B9F761E509C0653221F06632B7
:101F800089F76DE503C063E501C060E0CE010E9402
:101F9000130CEACF80E0DF91CF9108958F929F924A
:101FA000AF92BF92CF92DF92EF92FF920F931F9367
:101FB000CF93DF9300D000D01F92CDB7DEB78C0156
:101FC000DC01ED91FC9183818823B1F1E080F18007
:101FD000D3800E947F2CFF92EF921F92DF929F93FB
:101FE0008F9385E194E09F938F930E945205D801CF
:101FF000ED91FC911197838180750FB6F894DEBF47
:102000000FBECDBF81F418968C918B3061F48EE0B9
:1020100094E09F938F930E9452058CE0D80118960C
:102020008C930F900F90D801ED91FC911197138232
:10203000ED91FC9111821082D801ED91FC911197E4
:102040008281882381F1928115968C91981759F19C
:10205000E080F180D2800E947F2CFF92EF921F924D
:10206000DF929F938F9387EF93E09F938F930E94CC
:102070005205F80185810FB6F894DEBF0FBECDBFC3
:102080000190F081E02D85FF03C0928194FD6FC522
:1020900084FD6AC5D801ED91FC9111978281159656
:1020A0008C9311821082D8011896EC918E2F90E0BB
:1020B0008D30910508F09AC5FC01E75DFE4F0C9448
:1020C000E1300E947F2C9F938F938BEE93E09F9340
:1020D0008F930E945205F801148213821282158296
:1020E0000E94DD0B0E947F2CD80117969C938E9343
:1020F000169781E018968C9318978D919C910E9469
:1021000011066DC0F801808191810E9466060196DA
:10211000C9F7D80116968D919C9117970E94972C1C
:10212000893B9B4008F462C582E018C00E947F2C66
:102130009F938F9386EE93E09F938F930E94520517
:102140006FEFD8018D919C910E94C2060F900F9065
:102150000F900F908A3F910521F486E0F801808767
:1021600045C583E060C3F801808191810E941B0610
:102170002E98269A2F98279A0E947F2CD80117967E
:102180009C938E93169784E04FC3F80186819781C4
:102190000E94972C853F914008F428C585E043C3F1
:1021A0002E9826982F982798F801808191810E9477
:1021B0002406D8018D919C910E9411060E947F2CCB
:1021C0009F938F9381EE93E09F938F930E9452058C
:1021D0000E947F2CF8019783868386E080870F908A
:1021E0000F900F900F9002C5D8018D919C910E9485
:1021F0006606019609F4FAC40E947F2C9F938F9380
:102200008CED93E09F938F930E9452050E947F2C48
:10221000F8019783868387E0E1CFD80116968D91E8
:102220009C9117970E94972C853F914018F089E068
:10223000F8018087D8018D919C910E9466060196D5
:1022400009F4D4C40E947F2C9F938F9387ED93E071
:102250009F938F930E9452050E947F2CF8019783D1
:10226000868388E0BBCFD80116968D919C911797F5
:102270000E94972C853F914018F089E0F8018087F3
:10228000D8018D919C910E946606019609F4AEC416
:102290000E947F2C9F938F9382ED93E09F938F9367
:1022A0000E94520589E0F80199CFC8010E94BC0C38
:1022B000D80113969C938E9312970E947F2C9F9324
:1022C0008F938DEC93E09F938F930E945205F801BA
:1022D000828193810F900F900F900F90009711F4CF
:1022E00082E010C08F3FBFEF9B0711F481E044C034
:1022F0009C012D5F3F4F2230310590F38F3F9105B8
:1023000029F484E0D80114968C9363C09C0125586D
:102310003B4A2230310508F445C48239BBEA9B07A9
:1023200009F440C49C0120593B4A22303105F8F49D
:1023300080EC93E09F938F930E94520560EFF80129
:10234000808191810E94C2060F900F908A3F910573
:1023500009F01FC462E8D8018D919C910E94C206C9
:102360008A3F910509F015C48CEB93E014C4803BBF
:10237000BFEB9B0721F483E0F80184832AC0882700
:102380008115FBEA9F0709F4ABCF81152FEB92076C
:1023900091F381159F4779F38CE993E09F938F9395
:1023A0000E94520560EFD8018D919C910E94C20657
:1023B0000F900F908A3F910509F0F4C362E0F80195
:1023C000808191810E94C2068A3F910509F0EAC38B
:1023D00087CFF801228133812E3FFFEF3F0751F075
:1023E0002D3F4FEF340749F02115310549F040E208
:1023F00051E008C041E251E005C04BE151E002C0AC
:1024000047E251E0D80114968C91813049F0823036
:1024100051F0833059F0843061F08CE391E00BC0CF
:1024200080E391E008C08DE291E005C083E391E094
:1024300002C081E491E05F934F939F938F933F930A
:102440002F938CE893E09F938F930E9452058AE02C
:10245000F80180877DC30E947F2C9F938F9387E82C
:1024600093E09F938F930E9452050F900F900F90CF
:102470000F90D80114968C91833031F0843079F02C
:10248000823009F07CC106C068EFF801808191813B
:102490000E94C2060E94DC1E0E948A0C70C165EF79
:1024A000D8018D919C910E94C2066AEEF80180814C
:1024B00091810E94C206BE016F5F7F4FC8010E94DA
:1024C000A30B80E893E09F938F930E94520568EEE0
:1024D000D8018D919C910E94C20660E0F801808134
:1024E00091810E94C20666EED8018D919C910E9456
:1024F000C20666EEF801808191810E94C20666EEF6
:10250000D8018D919C910E94C206BE016F5F7F4FE2
:10251000C8010E94A30B0F900F908981882309F4B2
:102520007AC08A81882309F476C089E793E09F9373
:102530008F930E94520566EEF801808191810E947E
:10254000C20668EED8018D919C910E94C20660E09F
:10255000F801808191810E94C20668EED8018D91B8
:102560009C910E94C20663E0F801808191810E94E3
:10257000C20668EED8018D919C910E94C20662E06D
:10258000F801808191810E94C20668EED8018D9188
:102590009C910E94C20661E0F801808191810E94B5
:1025A000C20666EED8018D919C910E94C20668EE2B
:1025B000F801808191810E94C20663E0D8018D916B
:1025C0009C910E94C20668EEF801808191810E9470
:1025D000C20661E0D8018D919C910E94C20668EE0E
:1025E000F801808191810E94C20662E0D8018D913C
:1025F0009C910E94C20668EEF801808191810E9440
:10260000C20663E0D8018D919C910E94C20689E0C8
:10261000F801848781C082E793E09F938F930E94A3
:10262000520563EFD8018D919C910E94C20668EC1F
:10263000F801808191810E94C20663EFD8018D91DB
:102640009C910E94C20664E6F801808191810E94FB
:10265000C20663EFD8018D919C910E94C20660E58D
:10266000F801808191810E94C206C8010E94BC0CC1
:10267000292F30E00F900F902330310511F080E0CA
:1026800001C083E0D8011C968C938BE693E09F9366
:102690008F930E94520563EFF801808191810E941F
:1026A000C20668ECD8018D919C910E94C20663EF2E
:1026B000F801808191810E94C20668ECD8018D9159
:1026C0009C910E94C20663EFF801808191810E9473
:1026D000C20660E5D8018D919C910E94C206C80196
:1026E0000E94BC0C292F30E00F900F902430310550
:1026F00011F080E001C084E0F801848781110EC0F0
:1027000084E693E09F938F930E94520566EFD80171
:102710008D919C910E94C2060F900F9064EFF8017A
:10272000808191810E94C206BE016F5F7F4FC80108
:102730000E94A30BD8011C968C91893049F08330FC
:1027400051F0843059F0882361F083E291E00BC0AE
:102750008FE491E008C087E491E005C088E591E04E
:1027600002C081E691E09F938F9388E593E09F9369
:102770008F930E9452050F900F900F900F908BE057
:10278000F80180870E947F2C9F938F9383E593E0CD
:102790009F938F930E9452050F900F900F900F9070
:1027A000D8018D919C910E9466064C01019609F416
:1027B0001DC2F8018481843069F18114910421F0F3
:1027C000FFEF8F16910469F40E94DD0B0E94EE2149
:1027D0008BE493E09F938F930E9452050F900F908C
:1027E00005C2823069F0833081F0813009F0FEC18A
:1027F000682DC8010E94450D8F3F09F0F7C112C036
:10280000682DC8010E941F0EF7CF682DC8010E94D5
:10281000020FF2CFF801808191810E94A7066C011E
:10282000019629F48CE0D80118968C93DFC1F80149
:10283000808191810E94A7067C01019699F3D801BD
:102840001C968C91FE0131965F01853028F483300F
:1028500030F4882321F0DCC08930A1F0D9C0D80140
:102860001D969C911D97987F282D2770922B1D9661
:102870009C9384FE02C0DD24DA9485FEC4C0FF244C
:10288000FA94C1C0F8013585C40188749927883449
:10289000910509F0A9C0C1FEA7C0F0E38F229924D9
:1028A000959487949594879420E3C222DD2454E084
:1028B000D594C7945A95E1F7C828D92842E0C416A0
:1028C000D104E1F183E0C816D10409F476C0CA94BA
:1028D000CD2809F07CC1E6FC17C0A7014870552738
:1028E0008E2D8F70E7FE07C0452B11F420E001C04C
:1028F00020EF822B0AC0452B11F420E001C020EF0D
:10290000982F922B80E002C080E090E0E4FE05C0AA
:102910003860D8011D963C9303C0377FF801358796
:10292000D8011D962C911D97E5FE04C020611D96CF
:102930002C934FC12F7EF80125874BC1E0FE05C0C7
:102940003064D8011D963C9303C03F7BF801358766
:10295000D8011D968C911D97E1FE04C080681D96DC
:102960008C9303C08F77F8018587D8011D968C91D1
:102970001D97E2FE04C080621D968C9303C08F7D7C
:10298000F8018587D8011D968C911D97E3FE04C040
:1029900080641D968C9303C08F7BF8018587D801D6
:1029A0001D968C911D97E4FE04C080681D968C9343
:1029B0000EC18F77F80185870AC1C70124E095957C
:1029C00087952A95E1F7E7FE03C0806F90E003C08A
:1029D000982F9F7080E0387F2E2D2770E32EE22AFB
:1029E000D8011D96EC92F5C0387F882D8770382B62
:1029F000F801358784FE02C0DD24DA9485FE4DC0DF
:102A0000FF24FA944AC0833049F08430C9F045C0AD
:102A1000833079F4E12CF12CC12CD12CD8018D918B
:102A20009C910E94A7068F3FBFEF9B07B1F1982FA3
:102A300035C0843009F0CBC0E12CF12CC12CD12C55
:102A4000F801808191810E94A706AC018F3FFFEFC2
:102A50009F0719F183FD02C080E001C080EF942F31
:102A60009F70982BD8011D962C911D9744FF04C090
:102A700028601D962C9303C0277FF8012587D80175
:102A80001D962C911D9745FF04C020611D962C9327
:102A900005C02F7EF801258701C090E085E0D501B3
:102AA0001D928A95E9F7F8018585898380E0F0E831
:102AB000CF16D1044CF4960141E8C4164FEFD4066A
:102AC00024F421E83FEF01C02FE72A83A0E8EA16AB
:102AD000F10454F49701B1E8EB16BFEFFB0614F4D0
:102AE00021E83FEF219501C021E82B83903811F0B8
:102AF000919501C09FE79C83803809F481E88D831C
:102B0000C5010E94311F89811F928F938D81282FCB
:102B1000082E000C330B3F938F938C81282F082EA7
:102B2000000C330B3F938F938B81282F082E000CC2
:102B3000330B3F938F938A81282F082E000C330B81
:102B40003F938F938CE293E09F938F930E94520563
:102B50000FB6F894DEBF0FBECDBF48C00E94EE2175
:102B6000D80118961C9242C0828185FF93CAD80171
:102B700018968C918B3009F08DCA80EF93E09F936B
:102B80008F930E9452058CE0F80180870F900F9080
:102B900081CA88EB93E09F938F930E9452050F9018
:102BA0000F909ECB60EFF801808191810E94C20658
:102BB0008A3F910509F094CB63E0D8018D919C91F7
:102BC0000E94C2068A3F910509F08ACBD4CB80E0EF
:102BD00090E025E0D5011D922A95E9F7F8012585B9
:102BE0002983E12CF12CC12CD12C65CF81E00F90F1
:102BF0000F900F900F900F90DF91CF911F910F9139
:102C0000FF90EF90DF90CF90BF90AF909F908F900C
:102C1000089588EC91E00E94CE0F8AEB91E00C942D
:102C2000CE0FE8ECF1E08DE991E09183808313828F
:102C300012821482158210861186128613861486DB
:102C400015860E94DD0BEAEBF1E080E891E09183CC
:102C50008083138212821482158210861186128656
:102C60001386148615860C94DD0B80910A03089553
:102C7000CF93DF9300D01F92CDB7DEB72091180419
:102C8000243021F523E029839B838A8382E080938B
:102C9000E9008FEF9091E800815095FD06C095ED19
:102CA0009A95F1F700008111F5CF8091E80085FF3A
:102CB0000DC040E050E063E070E0CE0101960E945C
:102CC000041B8091E8008E778093E8000F900F90AE
:102CD0000F90DF91CF910895CF93DF9300D01F9293
:102CE000CDB7DEB720911804243061F519821A821D
:102CF0001B8222E029838138910520F080589109B8
:102D00009B838A8382E08093E9008FEF9091E800B3
:102D1000815095FD06C095ED9A95F1F7000081115F
:102D2000F5CF8091E80085FF0DC040E050E063E002
:102D300070E0CE0101960E94041B8091E8008E771E
:102D40008093E8000F900F900F90DF91CF9108953E
:102D500020911804243051F522E02093E9002FEF50
:102D60003091E800215035FD06C035ED3A95F1F778
:102D700000002111F5CF2091E80025FF17C0209118
:102D80001001222341F021E02093F10040E050E0C7
:102D900065E070E004C040E050E063E070E00E9455
:102DA000041B8091E8008E778093E8000895CF930C
:102DB000DF9320911804243009F04AC0EC0180917F
:102DC00011018823E1F0809112018823C1F081E094
:102DD0008093E90081E8815049F09091E80095FDE9
:102DE00005C09AE29A95F1F700C0F5CF8091E8000E
:102DF00085FF2EC040E050E060E270E019C081E045
:102E00008093E90081E8815059F09091E80095FDA8
:102E100007C0EFE3F1E03197F1F700C00000F3CF16
:102E20008091E80085FF14C040E050E068E070E069
:102E3000CE010E94041B8091E8008E778093E80009
:102E400080E2FE01AAEEB2E001900D928A95E1F7D0
:102E5000DF91CF910895CF93C091E801C1110BC0CC
:102E60000E948B2C643C79408105910520F081E023
:102E70008093E801C1E08C2FCF910895FF920F93CA
:102E80001F93CF93DF93D82F0FB607FE83C0809197
:102E90001804843081F08091030190E00196209124
:102EA000050130E0822393232091040130E0821752
:102EB000930709F0CBC00E942B17811110C080919D
:102EC000030190E001962091050130E082239323D5
:102ED0002091040130E08217930709F0B7C00E94E7
:102EE0007F2C8C01C091E900CF709091EC00892F6C
:102EF000817090FD80E8C82B83E08093E90085E035
:102F0000F82E8091EB0085FD42C08091EB0080FFA0
:102F10003EC08091EE0087FF3AC0809104019091FD
:102F20000301981709F457C09091E80095FF8CC0F1
:102F3000E0910101F0910201E80FF11D20818F5F06
:102F4000909105018923809304012093F1008091E1
:102F5000E80085FDE2CF8091E80080FFDECF809120
:102F6000E8008E778093E800F0920001D6CF809140
:102F7000030190E001962091050130E08223932324
:102F80002091040130E08217930709F44AC0CF7002
:102F9000C093E90040910301842F90E001962091B5
:102FA000050130E0822393232091040130E0821751
:102FB000930709F44EC0E0910101F0910201E40F82
:102FC000F11DD083809103018F5F909105018923CA
:102FD000809303013EC08091E80085FF35C0D09307
:102FE000F10081E02091F2003091F300232B91F069
:102FF0009091E80090FF0EC09091E80095FF03C00B
:103000001092F100F9CF9091E8009E779093E8003C
:10301000F0920001882309F4AACFCF70C093E90091
:1030200018C080910001882309F4B1CF0E947F2C41
:103030009C018017910711F4890163CF90910001E1
:10304000915090930001F8CF80E0CCCF40910301E4
:10305000B2CF80E0DF91CF911F910F91FF90089543
:1030600080911704811104C00E946C1D0C94CE1D28
:103070000895109217040895089542E261EC81E0EA
:103080000E947D1A42E061EC82E00E947D1A42E2D9
:1030900061EC83E00C947D1A80911A04833009F46A
:1030A00053C030F4813071F0823009F4BAC0089511
:1030B0008A3009F4A6C08B3009F478C0893009F051
:1030C000C8C020C080911904813A09F0C2C0809123
:1030D000E800877F8093E80080911D0490911E0492
:1030E000892B21F460E28AEE92E003C060E080E088
:1030F00090E070E00E94511B8091E8008B778093F4
:10310000E800089580911904813209F0A2C08091ED
:103110001D0490911E04892B09F09BC08091E8004A
:10312000877F8093E8008091E80082FD05C0809150
:1031300018048111F8CF8DC08091F10080930A03AB
:103140008091E8008B7781C080911904813A09F061
:1031500080C080911D0490911E04892BA1F4809160
:10316000E800877F8093E8008091E80080FFFCCF33
:10317000809111018093F1008091E8008E77809317
:10318000E8000E94B21A80911D0490911E040197DC
:1031900009F05FC08091E800877F8093E80080910C
:1031A000E80080FFFCCF809110014AC08091190493
:1031B000813209F04EC080911D0490911E04892B2C
:1031C00069F48091E800877F8093E8000E94B21A3A
:1031D00080911B04809311010E94EE2180911D04B7
:1031E00090911E040197A9F58091E800877F809354
:1031F000E8000E94B21A80911B04809310010C9485
:10320000EE2180911904813221F58091E800877FB9
:103210008093E8000E94B21A80911C0480930B03F3
:10322000089580911904813AA1F48091E800877F84
:103230008093E8008091E80080FFFCCF80910B0331
:103240008093F1008091E8008E778093E8000C94E1
:10325000B21A089580910A038093E90110920A033B
:103260000E945E0C0C94EE210C942A190E942B2CC7
:1032700080911604882329F00E94382C81110C9427
:10328000671A08950E944D2C8091E90180930A03EA
:1032900008950C94421908950C944B19CF9384B758
:1032A000877F84BF0FB6F894A895809160008861ED
:1032B00080936000109260000FBE90E080E80FB62F
:1032C000F89480936100909361000FBE8EE397E1C4
:1032D0000E94EA2B86E091E00E94D71E8FED95E0D8
:1032E0000E94B9040E94420C0E94961F0E946C1D0D
:1032F0000E94CE1D78940E94981F809118048430FB
:1033000029F00E94BC1E0E944B19F7CF8DEC95E06E
:103310000E94B9040E944C198FEB95E00E94B904F9
:10332000C3E080911804853019F40E943619F9CF52
:103330000E94142C0E949C1F2091E4003091E50013
:103340008091E6019091E7012817390709F466C0DA
:103350008091E4009091E5009093E7018093E6016D
:103360000E942B17882309F459C0809118048430D7
:1033700009F054C08091E9008F702091EC00922FE9
:10338000917020FD90E8892BC093E9009091EB00AB
:1033900090FF41C09091EE0097FF3DC090910401D5
:1033A00020910301291709F12091E80025FF1DC094
:1033B000E0910101F0910201E90FF11D30819F5F61
:1033C000209105019223909304013093F100909194
:1033D000E80095FDE3CF9091E80090FFDFCF90915A
:1033E000E8009E779093E800D9CF2091F2003091C9
:1033F000F300232B81F09091E80090FF0CC0909196
:10340000E80095FF03C01092F100F9CF9091E80019
:103410009E779093E8008F708093E9000E94BC1E15
:1034200080CF292F332723303105C9F060F42130B4
:10343000310581F02230310509F041C08BE590E083
:103440002CE336E040C021323105E1F02232310573
:1034500031F135C082E190E027E936E034C09927A8
:103460008130910549F028F0029749F5E8EFF5E041
:1034700005C0E8E3F6E002C0EEE2F6E0849190E0F9
:103480009F0121C063307105D0F4660F771FFB01E7
:10349000EE58FE4F2081318189E090E014C0633006
:1034A000710568F4FB01EE0FFF1FE459FE4F208108
:1034B0003181FB01E759FE4F808190E004C080E03C
:1034C00090E020E030E0FA0131832083089584E128
:1034D00089BD86E189BD09B400FEFDCF8091D80089
:1034E0008F7D8093D8008091E00082608093E0001F
:1034F0008091E00081FDFCCF0895982F973068F50A
:103500009093E900981739F07091EC002091ED004C
:103510005091F00003C0242F762F50E021FD02C00F
:103520009F5FECCF3091EB003E7F3093EB0030910A
:10353000ED003D7F3093ED003091EB003160309332
:10354000EB007093EC002093ED005093F00020917D
:10355000EE0027FDE5CF80E008958F708093E900AD
:1035600081E008958091190487FF11C08091E800DF
:1035700082FD05C0809118048111F8CF11C080919F
:10358000E8008B770BC080911804882349F0809164
:10359000E80080FFF8CF8091E8008E778093E80004
:1035A00008952091E4003091E50095E64091EC000B
:1035B000842F817040FF23C08091E80080FD1DC0F2
:1035C00080911804882399F0853099F08091EB0060
:1035D00085FD11C04091E4005091E50024173507A6
:1035E00029F3915011F09A01E1CF84E0089582E02F
:1035F000089583E0089581E0089580E00895409162
:10360000E80042FFDDCF0895CF92DF92EF92FF9264
:103610000F931F93CF93DF93EC018B017A010E94EC
:10362000D11A811135C0E114F10439F0F70180811C
:103630009181081B190BC80FD91FC12CD12C011562
:10364000110529F18091E80085FD18C08091E800FE
:103650008E778093E8000E94BC1EE114F10449F0CB
:10366000F70180819181C80ED91ED182C08285E088
:103670000FC00E94D11A882311F30AC08991809348
:10368000F10001501109FFEFCF1ADF0AD8CF80E017
:10369000DF91CF911F910F91FF90EF90DF90CF902E
:1036A000089520911F04309120042617370748F011
:1036B0006115710539F42091E8002E772093E80018
:1036C00001C0B901FC0120E06115710569F180912B
:1036D00018048823E1F18530E1F18091E80083FD51
:1036E0003AC08091E80082FD2CC08091E80080FF04
:1036F000EBCF8091F2009091F3006115710551F0CC
:103700008830910538F421912093F10061507109BE
:103710000196F3CF21E0089709F020E08091E800BE
:103720008E778093E800D0CF2111D1CF0AC080914D
:103730001804882361F0853061F08091E80083FDF2
:103740000AC08091E80082FFF2CF80E0089582E015
:10375000089583E0089581E0089520911F04309139
:1037600020042617370748F06115710539F42091B8
:10377000E8002E772093E80001C0B901FC0120E0A9
:103780006115710581F180911804882309F43EC008
:10379000853009F43DC08091E80083FD3BC08091F5
:1037A000E80082FD2DC08091E80080FFE9CF809184
:1037B000F2009091F3006115710559F08830910580
:1037C00040F424912093F1003196615071090196E3
:1037D000F2CF21E0089709F020E08091E8008E7791
:1037E0008093E800CDCF2111CECF0AC0809118047C
:1037F000882361F0853061F08091E80083FD0AC084
:103800008091E80082FFF2CF80E0089582E0089581
:1038100083E0089581E008951F93CF93DF93CDB7A0
:10382000DEB7AA970FB6F894DEBF0FBECDBFE9E1B1
:10383000F4E08091F100819324E0E132F207C9F7CE
:103840000E944C188091E80083FF2EC180911904DA
:1038500090911A04492F50E04A30510508F024C1D4
:10386000FA01EA5CFE4F0C94E130803821F0823896
:1038700009F01AC108C0809115049091160499238B
:1038800089F082600FC080911D048F70873008F02E
:103890000BC18093E9008091EB0085FB882780F9BC
:1038A0001092E9009091E800977F9093E800809350
:1038B000F1001092F100D1C0282F2D7F09F0F4C043
:1038C000882319F0823061F0EFC080911B048130B1
:1038D00009F0EAC0933009F080E0809316042EC00E
:1038E00080911B0481112AC080911D048F702FEFDD
:1038F000280F263008F0D8C08093E9002091EB0013
:1039000020FF1CC0933021F48091EB00806214C032
:103910009091EB0090619093EB0021E030E0A901E1
:1039200002C0440F551F8A95E2F74093EA001092B7
:10393000EA008091EB0088608093EB001092E90030
:103940008091E800877F8093E8000E94B21AACC0A3
:103950008111AAC010911B041F778091E300807829
:10396000812B8093E3008091E800877F8093E800BB
:103970000E94B21A8091E80080FFFCCF8091E300A2
:1039800080688093E300111102C082E001C083E0EF
:103990008093180489C08058823008F085C08091D7
:1039A0001B0490911C048C3D53E0950779F583E04E
:1039B0008A838AE289834FB7F894DE01139620E068
:1039C0003EE051E2E32FF0E050935700E49120FFF6
:1039D00003C0E295EF703F5FEF708E2F90E0EA300A
:1039E00010F0C79601C0C0968D939D932F5F243130
:1039F00049F74FBF8091E800877F8093E8006AE233
:103A000070E0CE0101960E94511B16C060911D040A
:103A100070911E04AE014F5F5F4F0E94111ABC01EE
:103A2000892B09F441C09091E800977F9093E800BA
:103A300089819A810E94AD1B8091E8008B778093E9
:103A4000E80032C0803881F58091E800877F80935C
:103A5000E800809114048093F1008091E8008E7753
:103A600072CF811121C080911B0490911C04992771
:103A70000297D4F48091E800877F8093E8008091DA
:103A80001B04809314040E94B21A809114048111C3
:103A900006C08091E30087FD02C081E001C084E0A0
:103AA000809318040E943D188091E80083FF0AC0AB
:103AB0008091E800877F8093E8008091EB0080622E
:103AC0008093EB00AA960FB6F894DEBF0FBECDBF71
:103AD000DF91CF911F9108950E94DD1D0E94E51D89
:103AE000E0EEF0E0808181608083E8EDF0E08081AD
:103AF0008F77808319BCA7EDB0E08C918E7F8C937B
:103B000080818F7E80831092170408950F931F93F6
:103B1000CF93DF930E94DD1D0E94E51DC8EDD0E02C
:103B200088818F77888388818068888388818F7D6A
:103B30008883E7EDF0E080818068808319BC109273
:103B4000180410921404109216041092150400EE3A
:103B500010E0F80180818B7F808388818160888379
:103B600042E060E080E00E947D1AE1EEF0E08081BA
:103B70008E7F8083E2EEF0E08081816080838081AF
:103B800088608083F80180818E7F80838881806156
:103B90008883DF91CF911F910F910895E8EDF0E0B8
:103BA00080818F7E8083E7EDF0E08081816080837B
:103BB00081E0809317040C94861DE8EDF0E080818D
:103BC0008C7F80831092E20008951092DA001092A8
:103BD000E10008951F920F920FB60F9211240BB6B9
:103BE0000F922F933F934F935F936F937F938F9396
:103BF0009F93AF93BF93EF93FF938091E10082FF78
:103C00000BC08091E20082FF07C08091E1008B7FB2
:103C10008093E1000E94BB1E8091DA0080FF1FC0EC
:103C20008091D80080FF1BC08091DA008E7F809346
:103C3000DA008091D90080FF0DC084E189BD86E162
:103C400089BD09B400FEFDCF81E0809318040E9475
:103C5000301805C019BC109218040E9439188091C0
:103C6000E10080FF19C08091E20080FF15C08091C3
:103C7000E2008E7F8093E2008091E2008061809379
:103C8000E2008091D80080628093D80019BC85E062
:103C9000809318040E9434198091E10084FF30C0A1
:103CA0008091E20084FF2CC084E189BD86E189BD5A
:103CB00009B400FEFDCF8091D8008F7D8093D8009D
:103CC0008091E1008F7E8093E1008091E2008F7E01
:103CD0008093E2008091E20081608093E200809115
:103CE0001404882311F084E007C08091E30087FD6D
:103CF00002C081E001C083E0809318040E9449194A
:103D00008091E10083FF24C08091E20083FF20C006
:103D10008091E100877F8093E10082E08093180426
:103D2000109214048091E1008E7F8093E1008091D5
:103D3000E2008E7F8093E2008091E20080618093B8
:103D4000E20042E060E080E00E947D1A0E943C18A0
:103D5000FF91EF91BF91AF919F918F917F916F9163
:103D60005F914F913F912F910F900BBE0F900FBE1F
:103D70000F901F9018950895CF9380911804882371
:103D8000A1F0C091E900CF709091EC00892F817073
:103D900090FD80E8C82B1092E9008091E80083FD37
:103DA0000E940C1CCF70C093E900CF9108959093AE
:103DB0001103809310030895E0911003F091110313
:103DC000309721F00190F081E02D099480E0089572
:103DD000EF92FF920F931F93CF93DF93E091100325
:103DE000F09111033097B1F18C010280F381E02D45
:103DF00009958091060482FF2DC080FF04C089EAE6
:103E000097E00E94B904E80110E283EAE82E87E017
:103E1000F82E8091060480FF0BC088811F928F933B
:103E2000FF92EF920E9452050F900F900F900F900B
:103E3000115021961111EDCF8091060480FF0AC028
:103E400081EA97E0DF91CF911F910F91FF90EF9062
:103E50000C94B904DF91CF911F910F91FF90EF90D7
:103E60000895E0911003F0911103309721F0048040
:103E7000F581E02D09940895CF93DF9320910E03EF
:103E800030910F032817390709F190930F0380939E
:103E90000E03E0911003F09111033097B9F0EC019B
:103EA0000680F781E02D09958091060482FF0EC0FF
:103EB00080FF0CC0DF93CF9383E997E09F938F93AC
:103EC0000E9452050F900F900F900F90DF91CF91AD
:103ED0000895CF93DF9320910C0330910D032817A1
:103EE000390709F190930D0380930C03E0911003BF
:103EF000F09111033097B9F0EC010084F185E02DC9
:103F000009958091060482FF0EC080FF0CC0DF93EC
:103F1000CF9383E897E09F938F930E9452050F9071
:103F20000F900F900F90DF91CF9108950C94572030
:103F30000E94762C0C944E0C8F929F92AF92BF925F
:103F4000CF92DF92EF92FF920F931F93CF93DF9365
:103F500000D000D01F92CDB7DEB70E94091603E152
:103F600013E0F12C8F2D0E94550C4C01F801A0801C
:103F7000B180A826B926A114B10439F4F3940E5FD8
:103F80001F4FF8E0FF12EECF39C08091060481FD8B
:103F90000E946B20E12CCC24C394D12CC5018C2130
:103FA0009D21892B21F1E982FA8221E0C4018C2133
:103FB0009D21892B09F420E02B830E947F2C8160B6
:103FC000782F9D838C8349815A816B818D810E94DA
:103FD000A12049815A816B817C818D810E94162CA0
:103FE000F801808191818C259D2591838083E394C4
:103FF000CC0CDD1CF0E1EF12D1CFC0CF8FEF898365
:104000008A831B820E947F2C8160782F9D838C8302
:1040100049815A816B818D810E94A1200E94152CBB
:104020000E94EB2E0E94DC1E90911203891759F119
:104030000E94DC1E809312039091060492FF0EC032
:1040400090FF0CC01F928F9384EB97E09F938F9308
:104050000E9452050F900F900F900F9080911203C5
:104060000F900F900F900F900F90DF91CF911F91B5
:104070000F91FF90EF90DF90CF90BF90AF909F9007
:104080008F900C94272C0F900F900F900F900F9003
:10409000DF91CF911F910F91FF90EF90DF90CF9024
:1040A000BF90AF909F908F9008950C948A0C0895C4
:1040B000CF93C62F0E94550C21E030E002C0220FA2
:1040C000331FCA95E2F72823392381E0232B09F413
:1040D00080E0CF910895EF92FF920F931F93CF93BB
:1040E000DF938BEC97E00E94B904C0E0D0E080E25F
:1040F000E82E81E0F82E0FEB17E08C2F0E94550C74
:104100000E94012CFF92EF929F938F93DF93CF93A6
:104110001F930F930E94520521968DB79EB7089664
:104120000FB6F8949EBF0FBE8DBFC830D10529F7DA
:10413000DF91CF911F910F91FF90EF900895089517
:104140000895CF93DF93CDB7DEB72B970FB6F894D2
:10415000DEBF0FBECDBF942F4F83252F58876987B1
:104160007A878B874A855B85452B31F02F3F31F469
:1041700081E09F3F19F403C081E001C080E080FD31
:1041800007C04F81588569857A858B850E94162CDA
:10419000DE01119686E0FD0111928A95E9F785E02E
:1041A000FE01379601900D928A95E1F749815A8177
:1041B0006B817C818D819E810E9407282B960FB692
:1041C000F894DEBF0FBECDBFDF91CF910895882355
:1041D00009F4BBC09CEF980F913A18F40E94E52AAD
:1041E0000DC090E2980F983058F4877091E001C0AC
:1041F000990F8A95EAF7892F0E948A2B0C94C42B79
:104200009BE5980F933070F4853A29F0863A31F0A7
:1042100083E890E005C081E890E002C082E890E089
:104220000C943C1F98E5980F973108F08EC0883A9F
:1042300009F445C0893A09F445C08A3A09F445C0F1
:104240008B3A09F445C08C3A09F445C08D3A09F41B
:1042500045C08E3A09F445C08F3A09F445C0813B08
:1042600009F445C0803B09F445C0823B09F445C0D0
:10427000833B09F445C0843B09F445C0853B09F400
:1042800045C0863B09F445C0873B09F445C0883BDF
:1042900009F445C0893B09F445C08A3B09F445C08F
:1042A0008B3B09F445C08C3B09F445C08D3B09F4B8
:1042B00045C08E3B09F445C080E090E044C082EEEA
:1042C00090E041C089EE90E03EC08AEE90E03BC0B5
:1042D00085EB90E038C086EB90E035C083EB90E052
:1042E00032C084EB90E02FC087EB90E02CC08CECC8
:1042F00090E029C08DEC90E026C083E891E023C0D7
:104300008AE891E020C082E991E01DC084E991E053
:104310001AC081E292E017C083E292E014C084E206
:1043200092E011C085E292E00EC086E292E00BC0FE
:1043300087E292E008C08AE292E005C08FE690E052
:1043400002C080E790E00C94691F0895882329F14A
:104350009CEF980F913A18F40E94352B0DC090E213
:10436000980F983058F4877091E001C0990F8A95A2
:10437000EAF7892F0E94902B0C94C42B9BE5980F91
:10438000933020F480E090E00C943C1F885A8731F1
:1043900020F480E090E00C94691F0895882321F0B8
:1043A0000E948A2B0C94C42B0895882321F00E942C
:1043B000902B0C94C42B08950E94AA2B0E94792B59
:1043C0000E94C42B0E94902F0E945E2E80E090E0FD
:1043D0000E943C1F80E090E00C94691F0E949A2B81
:1043E0000C94DC21CF92DF92EF92FF920F931F93F8
:1043F000CF93DF9300D000D01F92CDB7DEB76C0112
:104400000E94292C811118C385E0F601DE01119666
:1044100001900D928A95E1F7F60140815181238147
:1044200034812115310531F05F3F31F481E04F3F98
:1044300019F403C081E001C080E080FDFDC2F601F7
:10444000F280E580E2948FE0E82249835A83FB8280
:10445000722F3D832C836F2D8D810E94612A8C01E8
:104460000E94602A0E945A29E12FE295EF708E2F58
:1044700090E0FC01E05CFE4F0C94E130812F807FE6
:104480001F70882311F01295107FFF20B9F01123BF
:1044900029F0812F0E949D2B0E94C42B802F0F900A
:1044A0000F900F900F900F90DF91CF911F910F9170
:1044B000FF90EF90DF90CF900C94E720802F0E9428
:1044C000A621112309F4B8C2812F0E94A32B0F90BB
:1044D0000F900F900F900F90DF91CF911F910F9140
:1044E000FF90EF90DF90CF900C94C42B812F807FB2
:1044F0001F70803211F01295107F002319F00130E7
:1045000009F12BC0FF20A9F0EE2059F1F1E0812F35
:10451000EF1228C00F900F900F900F900F90DF9127
:10452000CF911F910F91FF90EF90DF90CF900C945F
:10453000AD2BEE2021F021E0E21609F47DC20E94AD
:10454000B02B4DC0FF20E9F085E08E1508F474C251
:104550000E94872B812329F042C0FF20F1F1E11056
:1045600015C0812F0F900F900F900F900F90DF913B
:10457000CF911F910F91FF90EF90DF90CF900C940F
:10458000CE2194E09E1508F457C229C0F60185811A
:1045900080FF13C08F708583E4CF003F09F489C189
:1045A00008F055C180E4800F803208F459C1FF2023
:1045B00009F4EAC1EE2009F49AC1802F0E94E72095
:1045C000093309F0DAC1FFEF21EE84E0F150204019
:1045D0008040E1F700C000002FC2E110D7C1812F59
:1045E00059C1812F86958695837019F08130B9F075
:1045F00023C2FF2019F0C801937002C080E090E050
:104600000F900F900F900F900F90DF91CF911F910F
:104610000F91FF90EF90DF90CF900C943C1FFF2004
:1046200019F0C801937002C080E090E00F900F90E5
:104630000F900F900F90DF91CF911F910F91FF90EE
:10464000EF90DF90CF900C94691F802FFF2019F01E
:104650000E94712D02C00E94D92D0F900F900F90D3
:104660000F900F90DF91CF911F910F91FF90EF90DE
:10467000DF90CF900C945E2E812F837009F070C074
:10468000F110DAC1202F229526952770220F220FD4
:10469000602F6F70862F90E0A0E0B0E06C017D018C
:1046A000022E04C0CC0CDD1CEE1CFF1C0A94D2F7B9
:1046B00004FF12C08FE090E0A0E0B0E004C0880FDB
:1046C000991FAA1FBB1F2A95D2F7BC01CD01609587
:1046D00070958095909503C060E070E0CB011695D1
:1046E000169513701230B1F040F56C297D298E2992
:1046F0009F29113031F10F900F900F900F900F9074
:10470000DF91CF911F910F91FF90EF90DF90CF90AD
:104710000C9475296C297D298E299F290F900F9063
:104720000F900F900F90DF91CF911F910F91FF90FD
:10473000EF90DF90CF900C948F290E947529C701CC
:10474000B6010F900F900F900F900F90DF91CF91C7
:104750001F910F91FF90EF90DF90CF900C945B2909
:10476000FF2019F0812F817001C08695882309F4FC
:1047700063C1202F229526952770220F220F602FCC
:104780006F70862F90E0A0E0B0E06C017D01022EFA
:1047900004C0CC0CDD1CEE1CFF1C0A94D2F704FFF5
:1047A00012C08FE090E0A0E0B0E004C0880F991F35
:1047B000AA1FBB1F2A95D2F7BC01CD016095709549
:1047C0008095909503C060E070E0CB01169516953A
:1047D00013701230B1F040F56C297D298E299F2984
:1047E000113031F10F900F900F900F900F90DF91DB
:1047F000CF911F910F91FF90EF90DF90CF900C948D
:104800003C2A6C297D298E299F290F900F900F90AB
:104810000F900F90DF91CF911F910F91FF90EF902C
:10482000DF90CF900C944E2A0E943C2AC701B6011B
:104830000F900F900F900F900F90DF91CF911F91DD
:104840000F91FF90EF90DF90CF900C942A2A023FB7
:1048500009F45EC008F449C0033F09F46CC0A7CE58
:10486000902F9071E92E812F8F71FF2051F00E94BF
:10487000C329802FEE2019F08295807F73CE8F7030
:1048800071CE0E94E429802FEE2019F08295807F5E
:1048900001C08F700F900F900F900F900F90DF91CD
:1048A000CF911F910F91FF90EF90DF90CF900C94DC
:1048B000D521FF20A9F0E4E0EE1508F4BDC0812F5A
:1048C0008F710F900F900F900F900F90DF91CF91FD
:1048D0001F910F91FF90EF90DF90CF900C94092AD9
:1048E000F5E0FE1508F4A8C0EACFFF2099F0812F6B
:1048F0008F710F900F900F900F900F90DF91CF91CD
:104900001F910F91FF90EF90DF90CF900C94C329EF
:10491000FF2069F3812F8F710F900F900F900F90F0
:104920000F90DF91CF911F910F91FF90EF90DF904B
:10493000CF900C94E429FF2089F0812F8F710F9084
:104940000F900F900F900F90DF91CF911F910F91CB
:10495000FF90EF90DF90CF900C94AE290F900F90C6
:104960000F900F900F90DF91CF911F910F91FF90BB
:10497000EF90DF90CF900C94A929033509F423CE52
:10498000073409F059C01FCEEE2021F2802F0F907E
:104990000F900F900F900F90DF91CF911F910F917B
:1049A000FF90EF90DF90CF900C94A621412F4F7095
:1049B000602FC6010E94EB2C0F900F900F900F906C
:1049C0000F90DF91CF911F910F91FF90EF90DF90AB
:1049D000CF900C94B52801112FC0FF2069F10E94DF
:1049E000EE212FEF80E792E0215080409040E1F7E8
:1049F00000C000000F900F900F900F900F90DF916C
:104A0000CF911F910F91FF90EF90DF90CF900C947A
:104A1000CC2C412F4F70602FC6010F900F900F903C
:104A20000F900F90DF91CF911F910F91FF90EF901A
:104A3000DF90CF900C94EE2C0F900F900F900F9072
:104A40000F90DF91CF911F910F91FF90EF90DF902A
:104A5000CF9008951F93CF93DF9300D000D01F9283
:104A6000CDB7DEB7942F4983252F5A836B837C8380
:104A70008D834C815D81452B31F02F3F31F481E0F6
:104A80009F3F19F403C081E001C080E0182F11702E
:104A900080FD24C049815A816B817C818D810E9477
:104AA000612A292F22952F702C3030F42A3048F4B7
:104AB0002250223068F013C02C3061F02F3051F0BA
:104AC0000EC0803C28F0803E50F0815F833038F08B
:104AD00011E005C093FB112710F901C010E0812FF0
:104AE0000F900F900F900F900F90DF91CF911F912B
:104AF0000895CF93DF9300D000D01F92CDB7DEB7DB
:104B00000F900F900F900F900F90DF91CF9108951D
:104B1000CF93DF9300D000D000D0CDB7DEB726967C
:104B20000FB6F894DEBF0FBECDBFDF91CF910895D1
:104B30001F93CF93DF93C091230316E0809124034A
:104B4000C81799F0D0E01C9FF0011D9FF00D1124B3
:104B5000EB5DFC4F4081518162817381848195813D
:104B60000E9488252196C770E9CFDF91CF911F91D0
:104B700008954091550350915603609157037091E9
:104B800058038091590390915A030C9488250F93F0
:104B90001F93CF93DF9380915A0382958F7009F012
:104BA0005DC080915703882309F458C08091230386
:104BB000109124036091550370915603C0915803DE
:104BC000D091590391E06F3F09F090E0292F06E062
:104BD000811709F443C0209721F07F3F21F030E096
:104BE00003C031E001C0322F90E030FD34C0089F97
:104BF000F001099FF00D1124DF01AB5DBC4F119650
:104C00003C911197371327C03C91361324C012965C
:104C10003C91129731111FC013964D915C911497DE
:104C20004C1B5D0B483C5105B0F480915A038F70CA
:104C3000806180935A03E65DFC4F80818F708061B4
:104C4000808385E593E00E94F221DF91CF911F914F
:104C50000F910C94982501968770BACFDF91CF9170
:104C60001F910F9108959F92AF92BF92CF92DF92C2
:104C7000EF92FF920F931F93CF93DF93CDB7DEB7E1
:104C800061970FB6F894DEBF0FBECDBF8C0185E0F3
:104C9000F801DE011D9601900D928A95E1F7F80169
:104CA00040815181F280C380D480909155036091FE
:104CB000560320915803309159032115310531F0E5
:104CC0006F3F31F481E09F3F19F403C081E001C0E0
:104CD00080E0F82FF1709F2E80FD52C185E5A82E4F
:104CE00083E0B82EE0905703F601E21BF30BEE20B1
:104CF00009F4E8C080915A03E83CF10508F0A4C02B
:104D0000282F207F09F053C0561313C0491311C038
:104D1000EF2CF1100EC08F70806180935A030E94B7
:104D2000B925C5010E94F22180915A03F8018583BB
:104D30005BC1C114D10431F05F3F31F481E04F3FDA
:104D400019F403C081E001C080E080FD03C081E070
:104D50008F2502C080E090E0F82FF170EF2E80FFE9
:104D60001CC0809123032091240336E0821709F4AC
:104D700018C190E0389FF001399FF00D1124EB5DD0
:104D8000FC4F6181561306C06081461303C06281E7
:104D9000F61203C001968770E9CFEF2CFF2009F4CB
:104DA00023C180915A03816080935A0362C05613D5
:104DB00006C0491304C0F11002C0F801A7C04D8716
:104DC0005E87FF867C2DD98AC88A6F2D89890E94CB
:104DD0002A25882399F1FF2089F120915A03822FF7
:104DE00082958F7090E0029774F0809155039091B6
:104DF000560398878F831986DB86CA862C87CE0157
:104E000007960E94F22186E0F801A5E5B3E0019043
:104E10000D928A95E1F70E94C7250E94B92511C01D
:104E2000561749F14D875E87FF867C2DD98AC88A3F
:104E30006F2D89890E942A2581112CC0C8010E94EA
:104E4000F221EE24E394D0C0282F207F49F77C2D57
:104E5000D98AC88A6F2D89890E94792585E593E0D2
:104E60000E94F22186E0F50111928A95E9F70E94ED
:104E7000B925E12CB9C04913D5CFF110D3CFF80132
:104E80008583C8010E94F22186E0F50111928A957E
:104E9000E9F7AAC0FF2091F220915A03822F829550
:104EA0008F7090E002970CF4AECF809155039091F3
:104EB00056039A8389831B82DD82CC822E83CE01A6
:104EC00001969FCFE83CF10508F04BC0EF2CFF2086
:104ED00009F4B4CF561330C049132EC020915A03A1
:104EE00020FD21C0822F82958F70482F50E0411500
:104EF0005105C9F0F80125834F30510541F08F5F0E
:104F0000982F9295907F822F8F70892B8583C8016F
:104F10000E94F22186E0F801A5E5B3E001900D9230
:104F20008A95E1F72AC086E0F801A5E5B3E0019093
:104F30000D928A95E1F758C04D875E87FF867C2DDC
:104F4000D98AC88A6F2D89890E942A2581115BCF51
:104F500080915A03816080935A03C8010E94F22114
:104F600043C07C2DD98AC88A6F2D89890E947925F2
:104F700086E0F50111928A95E9F70E94B92534C0BF
:104F8000FF2009F45BCF4D875E87FF867C2DD98A91
:104F9000C88A6F2D89890E942A25882309F44ECF5B
:104FA00032CF7C2DD98AC88A6F2D89890E94612AC7
:104FB000292F22952F70223028F49F7039F081110B
:104FC00005C00BC0243028F49F7049F4805E8830FF
:104FD00020F0C8010E94F2219E2CE92C05C0F801A6
:104FE0009581907F99F7F9CF8E2D61960FB6F89441
:104FF000DEBF0FBECDBFDF91CF911F910F91FF900C
:10500000EF90DF90CF90BF90AF909F9008951F9347
:10501000CF93DF93CDB7DEB72C970FB6F894DEBFF2
:105020000FBECDBF4F83588769877A878B879C8750
:10503000CE0107960E9433268823D1F09F81888570
:105040002A853B85232B31F08F3F31F481E09F3F50
:1050500019F403C081E001C080E080FD47C04F81AA
:10506000588569857A858B859C850E9488253EC0F8
:1050700086E0FE013796DE01119601900D928A9529
:10508000E1F7FF81E8856A857B856115710531F05F
:10509000EF3F31F481E0FF3F19F403C081E001C02C
:1050A00080E080FD23C02091240330E0C9010196F7
:1050B000877099274091230350E084179507F1F1F9
:1050C000F983EA837D836C8396E0929FD001939F5E
:1050D000B00D1124AB5DBC4FFE01319601900D92D5
:1050E0009A95E1F7809324030E94982516E0809119
:1050F000230390912403891771F1189FC001112493
:105100008B5D9C4F0E943326882329F1E091230375
:105110001E9FF0011124EB5DFC4F408151816281A3
:105120007381848195810E9488258091230390E07A
:1051300001968770992780932303D9CF0E94EE218F
:105140001092240310922303E5E5F3E086E0DF01EB
:105150001D928A95E9F72C960FB6F894DEBF0FBE24
:10516000CDBFDF91CF911F910895DF92EF92FF9213
:105170000F931F93CF93DF93FC01892B09F488C011
:10518000E12CF12CDD24D394EF0121968491853715
:1051900009F460C058F4843708F04EC0843008F039
:1051A00068C08130D1F0823071F172C0883709F463
:1051B0005BC050F4863709F453C0873709F068C0E4
:1051C0008E2D0E94972B52C09CE7980F903708F0C5
:1051D0005FC08F770E94A6214EC08F010E5F1F4FC8
:1051E000FE01849190E2980F983050F48770FD2D65
:1051F00001C0FF0F8A95EAF78F2F0E949D2B15C0E3
:105200000E94E72014C08F010E5F1F4FFE018491A2
:1052100090E2980F983068F48770FD2D01C0FF0F61
:105220008A95EAF78F2F0E94A32B0E94C42BE801D6
:1052300022C00E94A621FBCFCF010296FE01C4919D
:10524000CC2361F0EFE9FFE03197F1F700C00000F7
:10525000C150F6CFCF010296FE01F490EC010BC0D5
:105260000E94872BE82E07C00E949A2B0E94C42B15
:1052700002C00E94E7208F2D882341F0EFE9FFE074
:105280003197F1F700C000008150F6CFFE017CCFCE
:10529000DF91CF911F910F91FF90EF90DF900895D4
:1052A0006093DB037093DC038093DD039093DE0354
:1052B0000C94262C08950F931F930091DF031091F7
:1052C000E0032091E1033091E203602B712B822BEC
:1052D000932B6093DF037093E0038093E10390933B
:1052E000E2031F910F910C94252C0F931F930091B3
:1052F000DF031091E0032091E1033091E20360238A
:105300007123822393236093DF037093E0038093E0
:10531000E1039093E2031F910F910C94252C0F93BE
:105320001F930091DF031091E0032091E10330917E
:10533000E20360277127822793276093DF0370932E
:10534000E0038093E1039093E2031F910F910C948B
:10535000252C60E070E0CB010C9450290F931F9333
:1053600041E050E060E070E08A019B0104C0000F62
:10537000111F221F331F8A95D2F7C901B8011F914F
:105380000F910C9450290F931F9341E050E060E07F
:1053900070E004C0440F551F661F771F8A95D2F72F
:1053A0008091DB039091DC03A091DD03B091DE03DB
:1053B0008A019B01082B192B2A2B3B2BC901B80111
:1053C0001F910F910C9450290F931F9341E050E0CF
:1053D00060E070E004C0440F551F661F771F8A9578
:1053E000D2F740955095609570958091DB03909130
:1053F000DC03A091DD03B091DE038A019B01082349
:1054000019232A233B23C901B8011F910F910C9442
:1054100050290F931F9341E050E060E070E004C01A
:10542000440F551F661F771F8A95D2F78091DB03C3
:105430009091DC03A091DD03B091DE038A019B0112
:10544000082719272A273B27C901B8011F910F9167
:105450000C9450290F931F930091DB031091DC03F0
:105460002091DD033091DE03602B712B822B932B77
:105470001F910F910C9450290F931F930091DB0300
:105480001091DC032091DD033091DE036023712352
:10549000822393231F910F910C9450290F931F93F4
:1054A0000091DB031091DC032091DD033091DE03DA
:1054B00060277127822793271F910F910C94502901
:1054C00008958F929F92AF92BF92DF92EF92FF92D8
:1054D0000F931F93CF93DF9300D000D01F92CDB7CF
:1054E000DEB76B837C838D838A018C819D81892BC0
:1054F00031F01F3F31F481E04F3F19F403C081E0E8
:1055000001C080E080FF03C080E090E04DC08B814F
:105510008823D1F18090DB039090DC03A090DD0321
:10552000B090DE038091DF039091E003A091E1034E
:10553000B091E203882A992AAA2ABB2A8FE1E82E91
:10554000F12CD501C4010E2C04C0B695A7959795F2
:1055500087950A94D2F780FD06C081E0E81AF10829
:1055600080F7D12C07C0DE2CB8018E2D0E94600C74
:10557000019799F380E1189FF0011124E55AFC4F3F
:10558000E00FF11DD08209C080E1189FF0011124C5
:10559000E55AFC4FE00FF11DD08009831A83698121
:1055A0007A818D2D0E94600C0F900F900F900F90BC
:1055B0000F90DF91CF911F910F91FF90EF90DF90AF
:1055C000BF90AF909F908F90089590911101992373
:1055D00079F190911201992359F1982F969596950A
:1055E00096959F31A1F0E0911301F0911401E90F1C
:1055F000F11D877021E030E0A90102C0440F551F62
:105600008A95E2F7CA019181892B8183089590914F
:10561000060490FF29C01F928F938EEF97E09F930F
:105620008F930E9452050F900F900F900F90089546
:105630002091130130911401F90132969FEF40E05F
:105640005191851789F09F3F19F4511101C0942F92
:105650004F5F4E31A9F79F3F39F0F901E90FF11D76
:1056600097FDFA95828308950895909111019923E9
:1056700081F190911201992361F1982F9695969559
:1056800096959F31A9F0E0911301F0911401E90F73
:10569000F11D877021E030E0A90102C0440F551FC1
:1056A0008A95E2F7CA0180959181892381830895C3
:1056B0009091060490FF1CC01F928F9380EE97E09C
:1056C0009F938F930E9452050F900F900F900F9011
:1056D0000895E0911301F09114019F01225E3F4F64
:1056E0009281891301C012823196E217F307C1F744
:1056F000089581E090E0E0911301F0911401E80F2A
:10570000F91F1082019680329105A9F708958091C2
:105710000504089590910504892B8093050408954C
:1057200080959091050489238093050408958093C2
:105730000504089510920504089590910404892B9E
:1057400080930404089580959091040489238093A4
:10575000040408951092040408958093E3030895C7
:105760001092E30308958091130190911401FC01BC
:1057700031969C01205E3F4F80E0919191118F5FA7
:10578000E217F307D1F70895E0911301F0911401A6
:10579000809105048083E0911301F09114019081C0
:1057A00080910404892B80838091E303882361F036
:1057B000E0911301F09114019081892B80830E9464
:1057C000B32B81111092E303809113019091140186
:1057D0000C94E81E90937F0180937E01089582953A
:1057E000982F937344E0949F900111248C7C8695AC
:1057F0008695282B822F8575880F2A7A2695822BED
:105800000895CF93DF93D92F0E94EF2BC82F8D2FB0
:105810000E94EF2B2C2F30E0322F2227A901482B9A
:10582000CA01DF91CF91089508950895CF93DF9332
:1058300000D000D01F92CDB7DEB70F900F900F9021
:105840000F900F90DF91CF910895089508950C94D3
:10585000552080E0089583B7817F8C6083BF83B734
:10586000816083BF7894889583B78E7F83BF0895C6
:10587000CF930E949F200E9409160E94A020C0E0A2
:105880008C2F0E94550C892B29F4CF5FC830C1F7AB
:1058900080E001C081E0CF9108950E945E0C0C94DD
:1058A000EE211F920F920FB60F9211248F939F93A8
:1058B000AF93BF938091070490910804A0910904CD
:1058C000B0910A044196A11DB11D809307049093E5
:1058D0000804A0930904B0930A04BF91AF919F916B
:1058E0008F910F900FBE0F901F90189582E084BD8E
:1058F00093E095BD9AEF97BD80936E0008952FB702
:10590000F8948091070490910804A0910904B09143
:105910000A042FBF08952FB7F8946091070470917F
:1059200008048091090490910A042FBF08959C01F6
:105930004FB7F8948091070490910804A09109044E
:10594000B0910A044FBF821B930B089578941F9265
:105950000F920FB60F9211248F939F93AF93BF9323
:105960008091070490910804A0910904B0910A0461
:105970000196A11DB11D8093070490930804A09384
:105980000904B0930A04BF91AF919F918F910F903A
:105990000FBE0F901F9018950E946C1DF89487E71A
:1059A00097E7909301088093000887E090EBDC0173
:1059B0008093210490932204A0932304B0932404A1
:1059C0009CE088E10FB6F894A895809360000FBE24
:1059D00090936000FFCF80E090E00895089580915B
:1059E0000D0480FF0BC06091180185E0689FB00135
:1059F000112475956795759567952BC081FF09C032
:105A00006091180185E0689FB00111247595679534
:105A100020C082FF07C06091180185E0689FB00137
:105A2000112417C090910E049923D1F060911701B1
:105A3000961788F72091180185E0289F900111247E
:105A4000929FA001939F500D112470E0CA010E9403
:105A5000CD306038710540F46115710519F406C048
:105A600065E070E0862F08958FE7089581E008953E
:105A700080910D0480FF08C06091160170E075955B
:105A800067957595679521C081FF06C060911601E5
:105A900070E07595679519C082FF04C0609116018A
:105AA00070E010C090910E04992399F06091150157
:105AB0009617A0F780911601899FC001112470E00C
:105AC0000E94CD306038710540F46115710519F4FC
:105AD00006C061E070E0862F08958FE7089581E0A9
