:100000000C9426050C9491050C9442080C949105CF
:100010000C9491050C9491050C9491050C94910508
:100020000C9491050C9491050C9453120C94910529
:100030000C9476210C9491050C9491050C949105E7
:100040000C9491050C9491050C9491050C949105D8
:100050000C9491050C94E6210C9491050C94910557
:100060000C9491050C9491050C9491050C949105B8
:100070000C9491050C9491050C9491050C949105A8
:100080000C9491050C9491050C9491050C94910598
:100090000C9491050C9491057C097E098A098A09C2
:1000A0008A098A098A098A098009820984098A09D0
:1000B0008A097E098C098A098A0946097C098A0904
:1000C0008A0982098A098A098A098A098A098A09A0
:1000D00084097C0968098A096C098A098A098A09DC
:1000E000480980098A098A0976098A098A098A09D8
:1000F0004A0988098A096A098A097E098A098A09D6
:100100007A096E098A09700982098A098A098A09A5
:10011000780972098A098A098A098A098A098A0971
:100120008A0974098A094C098A098A0980098A0995
:100130008A0988098A098A098A098A098A098A0929
:100140008A098A098A094E098A098A098A09760967
:100150008A098A098A098A098A098A098A098A0907
:100160008A098A0950098A09520954098A098A099F
:100170008A09560958095A098A095C095E098A09D7
:100180008A098A09860960098A0964096209660977
:100190008A098A098A098A098809B009BE09CA092F
:1001A000CA09A209CA09CA09CA09CA09CA09CA09DF
:1001B000CA09CA09CA09CA09CA09CA09CA09A409CD
:1001C000CA09A609CA09CA09CA09CA09C209CA09C3
:1001D000D509C009CA09CA09CA09CA09CA09CA0986
:1001E000CA09CA09CA09CA09CA09CA09CA099A09A7
:1001F000B609A809BA09CA09AA09CA09AE09CA09E9
:10020000B809AC09BC09B209B409CA09CA09CA09C2
:10021000CA09CA09CA09CA099C099E09A009C409D0
:10022000C609CA09CA09CA09C809B00B0B0CF30BE5
:100230001D0C2E0C380C3D0C410C480C4D136F134B
:1002400062146F136214B413D71362142C143F1486
:10025000721772179C179C17F717221A221A221A64
:100260002B18221A16191619DC19221AF1190F1A4D
:10027000807B01484746293A687F0277762B353BD9
:100280006978796439141E3C6A7A1D16041A1F3D78
:100290006B061B070821203E6C2C19091715223FFD
:1002A0006D11050B0A1C23406E7E100D182425418C
:1002B0006F360E0C122726427037380F33132D433A
:1002C000717534322F2E44727C7D28303174457321
:1002D000515065524C4D2A4900594F5C5F4E4A4B74
:1002E00062635A5D5E60535467585B66576155564A
:1002F0004842403E3C3A3B456843413F3D2B357EBA
:10030000697A790078141E7C6A7B1D16041A1F7F97
:100310006B061B070821204D6C2C19091715224A62
:100320006D11050B0A1C234C6E49100D1824255124
:100330006F360E0C1227264F7037380F33132D529D
:10034000717534502F2E4E72397D283065314B73C4
:100350005464586776012A773259745C5F660246A6
:1003600062635A5D5E60295344575B56556147038B
:1003700080291E1F20212223242526272D2E2A2BCB
:10038000141A0815171C180C12132F30287804168D
:1003900007090A0B0D0E0F33343579311D1B061971
:1003A0000511103637387D557A2C393A3B3C3D3EA5
:1003B0003F4041424353475F6061565C5D5E575921
:1003C0005A5B62634648324445677B7F650301029E
:1003D0005250514F68696A6B6C6D6E6F70717258D4
:1003E00000494C754A4D734B4E767C777E7466544B
:1003F000722530325820007225303258200077257F
:100400003032582000214353335F46305F2530326D
:1004100058210A00214353335F46305F253032585C
:10042000210A00214353335F25303258210A00212D
:100430004353335F25303258210A00214353325F42
:1004400045305F4630210A00214353325F46302158
:100450000A00214353325F4530210A0021435332C1
:100460005F494E4954210A00214353325F4F56459C
:100470005252554E210A00214353315F3F210A0059
:100480006B62643A20556E6B6E6F776E0A006B621A
:10049000643A205465726D696E616C0A006B626427
:1004A0003A2041540A006B62643A2058540A004DC5
:1004B0006F7573653A206E6F7420737570706F720C
:1004C0007465640A0049443A20253034580A0065AE
:1004D00072723A20253032580A00696E69740A0037
:1004E0006572723A20253032580A000A4B657962EB
:1004F0006F6172642073746172742E0A000A55531E
:100500004220636F6E666967757265642E0A000A21
:100510000A544D4B3A35613735393835302F4C5503
:1005200046410A0A003403490042004D00200050B1
:1005300000430020006B006500790062006F0061DD
:100540000072006400200063006F006E007600659A
:1005500000720074006500720000000E0374002E2B
:10056000006D002E006B002E00000004030904093A
:10057000027400040100A03209040000010301011B
:100580000009211101000122400007058103080034
:100590000A09040100010300000009211101000102
:1005A0002236000705820308000A0904020002033C
:1005B0000000000921110100012222000705830328
:1005C00020000107050303200001090403000103C3
:1005D00000000009211101000122390007058403F0
:1005E0002000011201100100000008EDFEEE1B01C9
:1005F000000102000105010906A101050719E02912
:10060000E7150025019508750181020508190129E2
:10061000059505750191029501750391010507196D
:100620000029F71500250195F875018102C00631F2
:10063000FF0974A1010975150026FF0095207508B2
:1006400081020976150026FF00952075089102C0E9
:1006500005010980A10185021601002637001A81D3
:10066000002AB700751095018100C0050C0901A191
:10067000018503160100269C021A01002A9C0275BE
:100680001095018100C005010906A101050719E0C7
:1006900029E7150025019508750181029501750866
:1006A000810105081901290595057501910295013A
:1006B000750391010507190029FF150026FF009514
:1006C0000675088100C0636F6E73756D65723A20A0
:1006D000253034580A0073797374656D3A202530DB
:1006E00034580A000A002530325820006B657962C0
:1006F0006F6172643A20004C45443A2025303258EC
:100700000A00253032583A202530386225730A0015
:10071000722F632030313233343536370A00646546
:100720006C5F6B65795F6269743A2063616E2774F0
:100730002064656C3A20253032580A006164645F99
:100740006B65795F6269743A2063616E277420611A
:1007500064643A20253032580A003F00433E2000AE
:100760004C25640A000A092D20436F6E736F6C6577
:10077000202D0A4553432F713A09717569740A0097
:100780000A092D204D61676963202D0A643A0964C6
:10079000656275670A783A096465627567206D61FC
:1007A000747269780A6B3A096465627567206B65D3
:1007B00079626F6172640A6D3A09646562756720D7
:1007C0006D6F7573650A763A0976657273696F6E37
:1007D0000A733A097374617475730A633A09636F33
:1007E0006E736F6C65206D6F64650A302D343A0945
:1007F0006C61796572302D34284631302D463429AC
:100800000A506175733A09626F6F746C6F61646549
:10081000720A6E3A094E4B524F0A003F004E4B523D
:100820004F3A206F66660A004E4B524F3A206F6E69
:100830000A0074696D65725F7265616433322829DC
:100840003A202530346C580A006B6579626F61720A
:10085000645F6E6B726F3A2025580A006B6579628F
:100860006F6172645F69646C653A2025580A006B99
:100870006579626F6172645F70726F746F636F6CC1
:100880003A2025580A00686F73745F6B6579626F50
:100890006172645F6C65647328293A2025580A00E8
:1008A0000A092D20537461747573202D0A00474383
:1008B000433A20352E342E30204156522D4C494299
:1008C000433A20322E302E30204156525F4152435F
:1008D000483A2061767235310A004F5054494F4EE4
:1008E000533A204C5546412045585452414B4559A6
:1008F00020434F4E534F4C4520434F4D4D414E44A6
:10090000204E4B524F204B45594D41505F5345436C
:1009100054494F4E20424F4F544C4F414445525F33
:1009200053495A450A004255494C443A20356137EB
:100930003539383530202830383A35393A32362092
:100940004465632020352032303139290A00564968
:10095000443A2030784645454428742E6D2E6B2E3F
:1009600029205049443A203078316265652849424F
:100970004D205043206B6579626F61726420636F14
:100980006E76657274657229205645523A20307829
:10099000303030310A00444553433A20636F6E765D
:1009A0006572742049424D205043206B6579626F17
:1009B00061726420746F205553420A000A092D2089
:1009C00056657273696F6E202D0A000A6D6F75731C
:1009D000653A206F66660A000A6D6F7573653A2086
:1009E0006F6E0A000A6B6579626F6172643A206FFC
:1009F00066660A000A6B6579626F6172643A206FFD
:100A00006E0A000A6D61747269783A206F66660A30
:100A1000000A6D61747269783A206F6E0A000A6488
:100A2000656275673A206F6E0A000A6465627567D1
:100A30003A206F66660A000A0A626F6F746C6F6113
:100A40006465722E2E2E2000433E200011241FBE0E
:100A5000CFEFD0E2DEBFCDBF04B603FE49C0809128
:100A6000980390919903A0919A03B0919B038730CA
:100A7000904BA740B04B09F03BC0109298031092E6
:100A8000990310929A0310929B0314BE0FB6F89428
:100A9000A89580916000886180936000109260004A
:100AA0000FBE1092010810920008E3E0F0E089E028
:100AB00080935700E491E695E370E150E33040F411
:100AC000F0E0EE0FFF1FE25DFE4F2081318102C09A
:100AD00020E030E280E090E0A2E0B0E0821B930BE7
:100AE000A109B109B595A79597958795FC01099539
:100AF00011E0A0E0B1E0EAEDF7E400E00BBF02C0D6
:100B000007900D92A433B107D9F723E0A4E3B1E035
:100B100001C01D92A839B207E1F70E94140F0C948E
:100B2000EB230C940000FF93EF93E0913401F091DC
:100B30003501309709F00995EF91FF910895FC0177
:100B40008591803011F0EFDFFBCF0895FF27E0E2C1
:100B500030E247FF0CC0419597FF09C0EDE2609578
:100B6000709580959095611D711D811D911D27FFC8
:100B700002C0219530E350E2AA27660F771F881F35
:100B8000991FAA1FA41710F0A41B63955A95A9F7E3
:100B9000AA3008F0A95FA05DAF93F39561157105C8
:100BA0008105910541F7ED3211F4EF93F395F217BA
:100BB00018F43F93F395FBCF8F91B5DFFA95E1F7EA
:100BC0000895E991F9918591803021F0853219F0ED
:100BD000AADFF9CF089520E0E89455915532C1F38A
:100BE000503311F4689455915A3348F4505390F3AC
:100BF000220F022E220F220F200D250FF4CF0EF40C
:100C0000219589919991533619F3533729F1533529
:100C100059F1BC0188279927E8945C3621F4899121
:100C2000999168945591543639F446EF7EF077FFE8
:100C30000DC08FEF9FEF0AC055374AE039F05835A5
:100C400040E121F0523642E009F00895FF93EF931E
:100C50007DDFEF91FF91B7CFFF93EF93FC0181917F
:100C60008030B9F360DFFBCFFF93EF9368DFF1CF04
:100C7000DF93CF93CDB7DEB72596A3DFCF91DF917A
:100C80000895282F80915201823071F08330B1F0A5
:100C9000813001F5E62FF0E038E0739FE00DF11DA3
:100CA0001124E059FC4F13C0E62FF0E088E0789F54
:100CB000E00DF11D1124E051FD4F09C0E62FF0E0D9
:100CC00038E0739FE00DF11D1124E059FD4FE491D0
:100CD000E03819F480E090E008959E2F9077892FF6
:100CE00090E034E0959587953A95E1F738E0239FB9
:100CF000800D911D112444E0880F991F4A95E1F75A
:100D0000EF709C012E0F311DF901EE0FFF1FE05017
:100D1000F8498591949108955998519A0895519858
:100D2000599A08955898509A08955098589A089545
:100D30005198599A85E08A95F1F7000089B1869516
:100D4000817008955098589A85E08A95F1F70000CF
:100D500089B181700895CF93DF93EC010E949806CA
:100D6000882341F0209731F085E08A95F1F7000063
:100D70002197F4CFCE01DF91CF910895CF93DF93E8
:100D8000C2E3D0E00E949806811108C0209731F09C
:100D900085E08A95F1F700002197F4CFCE01DF912D
:100DA000CF9108952091030130E0B9016F5F7F4F2B
:100DB00090910501492F50E046235723609104018B
:100DC00070E04617570791F04091010150910201E0
:100DD000FA01E20FF31F8083809103018F5F9091EE
:100DE000050189238093030181E0089580E008953F
:100DF0000E948C060E9495060E948F060E9495060E
:100E0000E9E6F0E0808188608083E99A0895CF93D5
:100E1000DF939AE19150209103018091040199237D
:100E200049F0281307C0EFE9FFE03197F1F700C060
:100E30000000F0CF281701F1E0910101F0910201CB
:100E4000E80FF11D20818F5F909105018923809328
:100E50000401C22FD0E08091850380FF0FC01F9254
:100E60002F9387EF93E09F938F930E9438060F9004
:100E70000F900F900F9002C0CFEFDFEFCE01DF9108
:100E8000CF910895EF92FF920F931F93CF93DF932B
:100E900010923A0190913B01913009F4BCC0C82FE7
:100EA0008091850380FF0CC01F92CF938EEF93E05B
:100EB0009F938F930E9438060F900F900F900F9082
:100EC000E9980E948C060E9495068FE891E00197B0
:100ED000F1F700C000000E9492060E948F0680E198
:100EE00097E20E94AB06892B11F481E07AC000E002
:100EF00010E0FF24F394D0E0EE24E39490E59A957B
:100F0000F1F7CE01002E02C0959587950A94E2F77D
:100F100080FF04C0FE240E94950602C00E94920633
:100F20000E94BE06892B11F482E05BC082E390E050
:100F30000E94AB06892B11F483E053C00F5F1F4F53
:100F400008301105D9F680E58A95F1F7FF2019F0F0
:100F50000E94950602C00E9492060E94BE06892B3E
:100F600011F484E03EC082E390E00E94AB06892B3E
:100F700011F485E036C090E59A95F1F70E94950648
:100F8000C2E3D0E00E94A206882341F0209741F0FE
:100F900085E08A95F1F700002197F4CFCD2B11F46D
:100FA00086E01FC082E390E00E94AB06892B11F41B
:100FB00087E017C00E94BE06892B19F0C2E3D0E07B
:100FC00009C088E00EC0209759F095E09A95F1F796
:100FD000000021970E94A2068823A9F3CD2B71F46B
:100FE00089E080933A0180913A01806180933A01CF
:100FF0000E948F060E949506E99A0DC00E948F06F6
:101000000E949506E99ADF91CF911F910F91FF9071
:10101000EF900C9407078FEF9FEFDF91CF911F9117
:101020000F91FF90EF900895CF93DF93809104018B
:1010300090910301981701F1E0910101F0910201F3
:10104000E80FF11D20818F5F909105018923809326
:101050000401C22FD0E08091850380FF0FC01F9252
:101060002F9380EF93E09F938F930E9438060F9009
:101070000F900F900F9002C0CFEFDFEFCE01DF9106
:10108000CF9108951F920F920FB60F9211240BB6B5
:101090000F922F933F934F935F936F937F938F9311
:1010A0009F93AF93BF93EF93FF930E949806811194
:1010B0008EC08091380190913901009781F00E9493
:1010C000BC210B9760F080913701806280933A01D8
:1010D000109237011092360181E0809300010E9446
:1010E000A421909339018093380180913701893090
:1010F00018F4813030F012C0893061F18A30B1F1DA
:1011000046C080913B01813029F40E94A2068111E2
:1011100005C05DC00E94A206811139C080913601D0
:101120008695809336010E94A206882351F0809113
:101130003601806880933601809100018F5F809333
:101140000001809137018830E9F580913B018130C1
:10115000C9F510C00E94A20690910001882319F0E1
:1011600090FF15C02FC090FD12C02CC00E94A20697
:10117000882369F0809136010E94D206811104C053
:1011800080E480933A0103C010923A010FC090911D
:101190003A0180913701892B80933A0180913A017D
:1011A00080933A01109203011092040110923901C8
:1011B00010923801109237011092360181E080932D
:1011C000000105C0809137018F5F80933701FF9147
:1011D000EF91BF91AF919F918F917F916F915F91AF
:1011E0004F913F912F910F900BBE0F900FBE0F901C
:1011F0001F901895CF93C82F8DEE0E9442078C2F19
:10120000CF910C944207E82FE695E695E695EF70AE
:10121000F0E0EB5AFE4F4081282F277081E090E0EC
:1012200002C0880F991F2A95E2F7242F30E0282367
:101230003923232B11F4842B80830895E82FE6951E
:10124000E695E695EF70F0E0EB5AFE4F2081382FDF
:10125000377081E090E002C0880F991F3A95E2F75D
:10126000422F50E048235923452B19F080958223C3
:1012700080830895482F50E0FA013397E138F10553
:1012800008F048C0E45BFF4F0C94E22387E1089527
:101290008FE108958CE5089580E6089582E608952B
:1012A00087E2089583E508958FE2089589E308951C
:1012B00087E308958FE3089587E408958FE4089500
:1012C00086E508958EE508958FE6089580E00895F7
:1012D00085E608958EE608958FE7089580E30895E2
:1012E00088E3089580E4089588E4089580E50895EA
:1012F00087E508958FE5089588E1089588E00895C9
:1013000080E2089580E1089589E108958DE60895C9
:1013100088E208958F7708958FE00895CF93482F3E
:1013200050E0FA017C97E834F105A0F5E353FF4F54
:101330000C94E22385E53AC08AE538C08BE536C0D7
:101340008CE534C08DE532C08EE530C08FE52EC00F
:1013500080E62CC081E62AC082E628C083E626C04B
:101360008FE624C081E722C082E720C084E71EC048
:1013700085E71CC087E71AC088E718C08AE716C04F
:101380008CE714C08FE712C080E710C089E70EC059
:101390008BE70CC0C82F87E794E09F938F930E9440
:1013A00038060F900F908C2F01C084E5CF910895DF
:1013B0000F931F93CF93DF930E94A4218C010E946F
:1013C0001408EC01019631F4C8010E94BC21883E4A
:1013D0009340A8F3CE01DF91CF911F910F91089513
:1013E000809185038160809385030E94F8062E9882
:1013F000269A2F98279A2FEF89E698E1215080406E
:101400009040E1F700C0000026982798E5E5F1E05C
:10141000119221E0E536F207D9F70895E82FF0E0C0
:10142000EB5AFE4F80810895E5E5F1E0119281E0ED
:10143000E536F807D9F70895982F80915201823048
:1014400049F492FB882780F990FD826091FD8460C9
:101450000C94FA080895CF93DF9380913A01882382
:1014600011F180913A011F928F9380EE94E09F9347
:101470008F930E94380680913A0180750F900F90EB
:101480000F900F9071F480915101843051F48AEDE6
:1014900094E09F938F930E943806109251010F9011
:1014A0000F9010923A0180915101823089F128F415
:1014B000882351F08130F1F063C2833009F4CBC04E
:1014C000843009F4CFC05CC210923B0110925201EB
:1014D00010925401109253010E94A4219093500144
:1014E00080934F0181E0809351010E94140A0E9471
:1014F000221746C20E94140880914F01909150011A
:101500000E94BC21893E934008F43AC282E0A0C008
:1015100085EF0E94420782EF0E9442078F3F4FEF04
:101520009407A1F08A3F910599F40E94D8098F3F52
:101530002FEF920781F0D82FCC270E94D809C82B13
:1015400084EF0E9442079C2F8D2F07C09FEF01C0A0
:101550009EEF8FEF02C090E080E090935301809364
:10156000540180913A01882381F080913A011F92C1
:101570008F938FEC94E09F938F930E943806109284
:101580003A010F900F900F900F90809154018F931C
:10159000809153018F9385EC94E09F938F930E94E9
:1015A000380680915301909154019C0122270F909D
:1015B0000F900F900F9021154BEA340711F482E041
:1015C0000CC021153F4B11F483E007C00097B9F31D
:1015D0008F3F2FEF920721F481E0809352010DC0DD
:1015E0008F3F910561F78FEA94E09F938F930E945C
:1015F0003806109252010F900F90C0915201C130E5
:1016000049F486EA94E09F938F930E943806C09332
:101610003B011BC0C23019F48DE994E010C0C33007
:1016200061F48EE894E09F938F930E9438061092A5
:101630003B0188EF0E94420708C080E894E09F9336
:101640008F930E94380610923B010F900F9083E019
:101650008093510195C10E949A140E941C0A84E053
:1016600080935101C0915201C23009F465C0C3306A
:1016700009F417C1C13009F083C10E9414088F3FDB
:101680004FEF940709F47CC120914E012230C9F13B
:1016900028F4222349F02130C1F04BC02330E9F176
:1016A000243009F43FC045C0803E910529F0813EB9
:1016B000910529F482E02EC0C0934E0161C18038AB
:1016C000910508F41BC18F7731C08633910589F1EC
:1016D00024F48A32910539F42CC08A3A910549F1F3
:1016E000863B910531F18038910528F40E948E09DE
:1016F0000E9403091EC08F770E948E090E941E0956
:1017000018C08D31910529F08D39910591F484E04F
:1017100001C083E080934E0133C18534910549F4C3
:1017200085E5ECC08534910521F485E50E941E090C
:1017300027C110924E0124C10E9414088F3F2FEF41
:10174000920709F41DC1E0914D014E2F50E0493040
:10175000510508F0A3C0FA01EB5EFE4F0C94E223A2
:101760008A3A910509F40CC1ACF48338910539F13A
:101770008438910531F1009741F50E94140A88E6FA
:1017800094E09F938F930E94380610924D010F9022
:101790000F90F6C0813E910581F02CF4803E9105BA
:1017A000A1F482E072C0803F910529F08C3F910541
:1017B00009F4E6C00AC081E068C084E066C082E047
:1017C00001C08FE60E94030969C080389105D0F3FB
:1017D0000E94140A8CE594E09F938F930E94380630
:1017E0000F900F905BC08935910509F457C0803F79
:1017F000910521F08231910519F450C083E045C074
:101800008038910518F40E943A09DCCF0E94140A2E
:1018100082E594E0E1CF8338910529F08438910581
:1018200021F48FE639C082E037C080389105A0F1FD
:101830000E94140A88E494E0CFCF8231910571F1BF
:101840008935910559F18038910518F40E943A09BB
:1018500023C00E94140A8BE394E0BECF843191052B
:1018600029F0803F9105D1F486E00FC085E00DC0DE
:101870008737910599F480E0A5CF449779F487E004
:1018800004C0803F910551F488E080934D0178C0F9
:101890008737910519F480E00E941E0910924D01CE
:1018A0006FC00E9414088F3F4FEF940709F468C07F
:1018B00020914C01222319F02130B1F161C084380C
:1018C0009105D9F03CF4009759F083389105C9F49B
:1018D00082E014C0803F910561F08F3F910589F44B
:1018E0009F938F938FE294E09F938F930E9438068B
:1018F00032C081E080934C0143C08FE70E9403090E
:101900003FC08038910518F40E9403092EC09F93B0
:101910008F9383E294E09F938F930E9438060F90F9
:101920000F900F900F9021C083389105C9F01CF4DF
:10193000009739F01DC084389105A1F08F3F9105C3
:10194000B9F49F938F9384E194E09F938F930E94C7
:10195000380610924C010F900F900F900F9010C00E
:1019600082E001C08FE70E941E0910924C0108C05E
:1019700080389105C0F39F938F9385E094E0CBCF9F
:1019800081E0DF91CF9108958091890208950895B3
:10199000CF93DF9300D01F92CDB7DEB720918F0396
:1019A000243021F523E029839B838A8382E080937E
:1019B000E9008FEF9091E800815095FD06C095ED0C
:1019C0009A95F1F700008111F5CF8091E80085FF2D
:1019D0000DC040E050E063E070E0CE0101960E944F
:1019E00046108091E8008E778093E8000F900F906A
:1019F0000F90DF91CF910895CF93DF9300D01F9286
:101A0000CDB7DEB720918F03243029F522E029835A
:101A1000805891099B838A832093E9008FEF9091EE
:101A2000E800815095FD06C095ED9A95F1F700000C
:101A30008111F5CF8091E80085FF0DC040E050E0B6
:101A400063E070E0CE0101960E9446108091E800AC
:101A50008E778093E8000F900F900F90DF91CF91D9
:101A60000895CF93DF93EC0190918F03943009F0A8
:101A700048C0809115018823D9F0809116018823F0
:101A8000B9F09093E90081E8815049F09091E80025
:101A900095FD05C09AE29A95F1F700C0F5CF8091C7
:101AA000E80085FF2EC040E050E060E270E019C021
:101AB00081E08093E90081E8815059F09091E8003D
:101AC00095FD07C0EFE3F1E03197F1F700C00000AA
:101AD000F3CF8091E80085FF14C040E050E068E05B
:101AE00070E0CE010E9446108091E8008E778093CE
:101AF000E80080E2FE01A9E6B2E001900D928A952D
:101B0000E1F7DF91CF910895CF93C0916701C111A3
:101B10000BC00E94B021643C79408105910520F002
:101B200081E080936701C1E08C2FCF910895CF931E
:101B3000C82F0E94840D882309F448C00FB607FE01
:101B400045C080918F03843009F040C08091E90046
:101B50008F702091EC00922F917020FD90E8892BDE
:101B600093E09093E9009091EB0090FF2CC090914E
:101B7000EE0097FF28C090910901209108012917D4
:101B800009F447C02091E80025FF1DC0E09106013F
:101B9000F0910701E90FF11D30819F5F20910A014B
:101BA0009223909309013093F1009091E80095FD04
:101BB000E2CF9091E80090FFDECF9091E8009E7711
:101BC0009093E800D8CF8F708093E900809108014E
:101BD00090E0AC014F5F5F4F30910A01232F30E05E
:101BE000242335234091090150E024173507D1F013
:101BF0002091060130910701F901E80FF91FC08318
:101C0000809108018F5F90910A01892380930801D8
:101C100009C09091E80095FFD6CFC093F1008F7076
:101C20008093E90080E0CF91089580918E03811127
:101C300009C00E94D5110E9437128091E200846091
:101C40008093E200089510928E03089508950895F8
:101C500042E061EC81E00E944E1142E061EC82E0E2
:101C60000E944E1142E261EC83E00E944E1142E27A
:101C700061EC84E00C944E1180919103833009F45F
:101C800055C030F4813071F0823009F48EC008956F
:101C90008A3009F47AC08B3009F460C0893009F0C9
:101CA0009CC020C080919003813A09F096C0809139
:101CB000E800877F8093E8008091940390919503DA
:101CC000892B21F460E289E692E003C060E080E0C5
:101CD00090E070E00E9493108091E8008B778093F1
:101CE000E800089580919003813209F076C08091D8
:101CF000940390919503009719F0039709F06DC034
:101D00008091E800877F8093E8008091E80082FD61
:101D100005C080918F038111F8CF5FC08091F100E1
:101D2000809389028091E8008B7753C08091900363
:101D3000813A09F052C08091940390919503892BC8
:101D400009F04BC08091E800877F8093E800809184
:101D5000E80080FFFCCF8091150136C08091900390
:101D60008132D9F58091940390919503892BA9F53F
:101D70008091E800877F8093E8000E948311809122
:101D80009203809315010C94221780919003813265
:101D900021F58091E800877F8093E8000E948311FD
:101DA0008091930380938A02089580919003813AF1
:101DB000A1F48091E800877F8093E8008091E8009B
:101DC00080FFFCCF80918A028093F1008091E8002F
:101DD0008E778093E8000C94831108958091890296
:101DE00080936801109289020E94140A0C942217B1
:101DF0000C94EE0E0E94512180918D03882329F0CE
:101E00000E945E2181110C94301008950E9472216D
:101E1000809168018093890208950C94060F0895BB
:101E20000C940F0F0C940F0FCF9384B7877F84BF50
:101E30000FB6F894A8958091600088618093600047
:101E4000109260000FBE90E080E80FB6F894809387
:101E50006100909361000FBE87E99DE00E942421FC
:101E60008BE091E00E9495148FE095E00E949F0521
:101E70000E94120F0E9449150E94D5110E9437122C
:101E80008091E20084608093E20078940E944B1578
:101E900080918F03843029F00E947A140E940F0FE2
:101EA000F7CF8DEF94E00E949F050E94100F8BEEFC
:101EB00094E00E949F05C3E080918F03853019F460
:101EC0000E94FA0EF9CF0E944F152091E400309144
:101ED000E50080916501909166012817390709F4A2
:101EE00066C08091E4009091E50090936601809334
:101EF00065010E94840D882309F459C080918F03E5
:101F0000843009F054C08091E9008F702091EC007A
:101F1000922F917020FD90E8892BC093E900909159
:101F2000EB0090FF41C09091EE0097FF3DC0909173
:101F3000090120910801291709F12091E80025FFE6
:101F40001DC0E0910601F0910701E90FF11D3081FC
:101F50009F5F20910A019223909309013093F10031
:101F60009091E80095FDE3CF9091E80090FFDFCFDE
:101F70009091E8009E779093E800D9CF2091F200ED
:101F80003091F300232B81F09091E80090FF0CC07A
:101F90009091E80095FF03C01092F100F9CF909165
:101FA000E8009E779093E8008F708093E9000E948C
:101FB0007A1482CF292F332723303105C9F060F4FA
:101FC0002130310581F02230310509F041C084E72C
:101FD00090E02FE635E040C021323105E1F02232B9
:101FE000310531F135C082E190E023EE35E034C0B7
:101FF00099278130910549F028F0029749F5E5E2EB
:10200000F5E005C0EBE6F5E002C0EBE5F5E0849114
:1020100090E09F0121C06430D8F4E62FF0E0EE0F8D
:10202000FF1FEB5DFE4F2081318189E090E014C0FD
:10203000643070F470E0FB01EE0FFF1FE35EFE4FB3
:1020400020813181FB01E75EFE4F808190E004C07A
:1020500080E090E020E030E0FA01318320830895B1
:1020600084E189BD86E189BD09B400FEFDCF809180
:10207000D8008F7D8093D8008091E00082608093AB
:10208000E0008091E00081FDFCCF0895CF92DF92C7
:10209000EF92FF920F931F93CF93DF93EC018B018D
:1020A0007A010E94A211811135C0E114F10439F0C6
:1020B000F70180819181081B190BC80FD91FC12C12
:1020C000D12C0115110529F18091E80085FD18C07A
:1020D0008091E8008E778093E8000E947A14E114E2
:1020E000F10449F0F70180819181C80ED91ED18297
:1020F000C08285E00FC00E94A211882311F30AC09C
:1021000089918093F10001501109FFEFCF1ADF0A86
:10211000D8CF80E0DF91CF911F910F91FF90EF908A
:10212000DF90CF9008952091960330919703261762
:10213000370748F06115710539F42091E8002E77D2
:102140002093E80001C0B901FC0120E06115710590
:1021500069F180918F038823E1F18530E1F180916D
:10216000E80083FD3AC08091E80082FD2CC0809198
:10217000E80080FFEBCF8091F2009091F3006115B1
:10218000710551F08830910538F421912093F100C8
:10219000615071090196F3CF21E0089709F020E022
:1021A0008091E8008E778093E800D0CF2111D1CFC5
:1021B0000AC080918F03882361F0853061F080919F
:1021C000E80083FD0AC08091E80082FFF2CF80E042
:1021D000089582E0089583E0089581E008952091B4
:1021E0009603309197032617370748F0611571055C
:1021F00039F42091E8002E772093E80001C0B9015E
:10220000FC0120E06115710581F180918F03882325
:1022100009F43EC0853009F43DC08091E80083FD9B
:102220003BC08091E80082FD2DC08091E80080FFD6
:10223000E9CF8091F2009091F3006115710559F09A
:102240008830910540F424912093F100319661503B
:1022500071090196F2CF21E0089709F020E0809102
:10226000E8008E778093E800CDCF2111CECF0AC051
:1022700080918F03882361F0853061F08091E800C0
:1022800083FD0AC08091E80082FFF2CF80E00895CC
:1022900082E0089583E0089581E00895982F9730B3
:1022A00068F59093E900981739F07091EC0020914F
:1022B000ED005091F00003C0242F762F50E021FD57
:1022C00002C09F5FECCF3091EB003E7F3093EB007C
:1022D0003091ED003D7F3093ED003091EB003160A7
:1022E0003093EB007093EC002093ED005093F000DE
:1022F0002091EE0027FDE5CF80E008958F70809358
:10230000E90081E008958091900387FF11C08091DA
:10231000E80082FD05C080918F038111F8CF11C0C4
:102320008091E8008B770BC080918F03882349F060
:102330008091E80080FFF8CF8091E8008E7780934D
:10234000E80008952091E4003091E50095E6409181
:10235000EC00842F817040FF23C08091E80080FD55
:102360001DC080918F03882399F0853099F080916A
:10237000EB0085FD11C04091E4005091E500241769
:10238000350729F3915011F09A01E1CF84E00895C7
:1023900082E0089583E0089581E0089580E0089543
:1023A0004091E80042FFDDCF08950E9446120E944E
:1023B0004E12E0EEF0E0808181608083E8EDF0E095
:1023C00080818F77808319BCA7EDB0E08C918E7FE0
:1023D0008C9380818F7E808310928E0308950F935B
:1023E0001F93CF93DF930E9446120E944E12C8EDB6
:1023F000D0E088818F77888388818068888388810E
:102400008F7D8883E7EDF0E080818068808319BC50
:1024100010928F0310928B0310928D0310928C03F5
:1024200000EE10E0F80180818B7F808388818160DD
:10243000888342E060E080E00E944E11E1EEF0E02F
:1024400080818E7F8083E2EEF0E0808181608083F6
:10245000808188608083F80180818E7F808388817D
:1024600080618883DF91CF911F910F910895E8EDEE
:10247000F0E080818F7E8083E7EDF0E080818160F5
:10248000808381E080938E030C94EF11E8EDF0E0FF
:1024900080818C7F80831092E20008951092DA0090
:1024A0001092E10008951F920F920FB60F9211241F
:1024B0000BB60F922F933F934F935F936F937F933E
:1024C0008F939F93AF93BF93EF93FF938091E1001E
:1024D00082FF0BC08091E20082FF07C08091E10083
:1024E0008B7F8093E1000E94270E8091DA0080FFAD
:1024F0001FC08091D80080FF1BC08091DA008E7FC2
:102500008093DA008091D90080FF0DC084E189BDFD
:1025100086E189BD09B400FEFDCF81E080938F0381
:102520000E94150E05C019BC10928F030E94230E45
:102530008091E10080FF19C08091E20080FF15C00A
:102540008091E2008E7F8093E2008091E2008061C2
:102550008093E2008091D80080628093D80019BCFB
:1025600085E080938F030E94F80E8091E10084FF44
:1025700030C08091E20084FF2CC084E189BD86E1F7
:1025800089BD09B400FEFDCF8091D8008F7D809376
:10259000D8008091E1008F7E8093E1008091E2007D
:1025A0008F7E8093E2008091E20081608093E20060
:1025B00080918B03882311F084E007C08091E300B1
:1025C00087FD02C081E001C083E080938F030E94F9
:1025D0000D0F8091E10083FF24C08091E20083FF12
:1025E00020C08091E100877F8093E10082E08093AA
:1025F0008F0310928B038091E1008E7F8093E10026
:102600008091E2008E7F8093E2008091E200806101
:102610008093E20042E060E080E00E944E110E9460
:10262000260EFF91EF91BF91AF919F918F917F9176
:102630006F915F914F913F912F910F900BBE0F9033
:102640000FBE0F901F9018951F93CF93DF93CDB7B8
:10265000DEB7AA970FB6F894DEBF0FBECDBFE0E994
:10266000F3E08091F100819323E0E839F207C9F7A4
:102670000E943C0E8091E80083FF24C1809190036A
:1026800090919103492F50E04A30510508F01AC14A
:10269000FA01E25EFE4F0C94E223803881F082382A
:1026A00009F010C1809194038F708093E9008091AC
:1026B000EB0085FB882780F91092E90006C0809125
:1026C0008C0390918D03911182609091E800977F27
:1026D0009093E8008093F1001092F100C8C0282F79
:1026E0002D7F09F0EFC0882319F0823061F0EAC035
:1026F00080919203813009F0E5C0933009F080E0C9
:1027000080938D032BC080919203811127C080910B
:1027100094038F7009F4D6C08093E9002091EB00F8
:1027200020FF1CC0933021F48091EB00806214C024
:102730009091EB0090619093EB0021E030E0A901D3
:1027400002C0440F551F8A95E2F74093EA001092A9
:10275000EA008091EB0088608093EB001092E90022
:102760008091E800877F86C08111ACC010919203F0
:102770001F778091E3008078812B8093E300809124
:10278000E800877F8093E8000E9483118091E80031
:1027900080FFFCCF8091E30080688093E3001111FB
:1027A00002C082E001C083E080938F038BC0805819
:1027B000823008F087C080919203909193038C3D02
:1027C00053E0950779F583E08A838AE289834FB7DE
:1027D000F894DE01139620E03EE051E2E32FF0E0B2
:1027E00050935700E49120FF03C0E295EF703F5FE4
:1027F000EF708E2F90E0EA3010F0C79601C0C096BF
:102800008D939D932F5F243149F74FBF8091E8004E
:10281000877F8093E8006AE270E0CE0101960E9413
:10282000931014C0AE014F5F5F4F609194030E94FC
:10283000DA0FBC01892B09F445C09091E800977F1D
:102840009093E80089819A810E94EF108091E800BE
:102850008B778093E80036C08038A1F58091E8003E
:10286000877F8093E80080918B038093F1008091B3
:10287000E8008E778093E8000E94831123C08111C5
:1028800021C0809192039091930399270297D4F4E9
:102890008091E800877F8093E80080919203809385
:1028A0008B030E94831180918B03811106C080915C
:1028B000E30087FD02C081E001C084E080938F03C4
:1028C0000E94280E8091E80083FF0AC08091E800F2
:1028D000877F8093E8008091EB0080628093EB001B
:1028E000AA960FB6F894DEBF0FBECDBFDF91CF9191
:1028F0001F910895CF9380918F038823A1F0C091F9
:10290000E900CF709091EC00892F817090FD80E8F4
:10291000C82B1092E9008091E80083FD0E942413E7
:10292000CF70C093E900CF91089590939002809367
:102930008F020895E0918F02F0919002309721F07C
:102940000190F081E02D099480E00895EF92FF92CC
:102950000F931F93CF93DF93E0918F02F09190023A
:102960003097B1F18C010280F381E02D09958091BF
:10297000850382FF2DC080FF04C08CEE96E00E948C
:102980009F05E80110E286EEE82E86E0F82E8091A1
:10299000850380FF0BC088811F928F93FF92EF9277
:1029A0000E9438060F900F900F900F9011502196B3
:1029B0001111EDCF8091850380FF0AC084EE96E06F
:1029C000DF91CF911F910F91FF90EF900C949F0595
:1029D000DF91CF911F910F91FF90EF900895CF93CA
:1029E000DF9320918D0230918E022817390709F16B
:1029F00090938E0280938D02E0918F02F09190026D
:102A00003097B9F0EC010680F781E02D09958091AF
:102A1000850382FF0EC080FF0CC0DF93CF9386ED4D
:102A200096E09F938F930E9438060F900F900F901F
:102A30000F90DF91CF910895CF93DF9320918B0278
:102A400030918C022817390709F190938C028093FA
:102A50008B02E0918F02F09190023097B9F0EC0177
:102A60000084F185E02D09958091850382FF0EC0D9
:102A700080FF0CC0DF93CF9386EC96E09F938F93FB
:102A80000E9438060F900F900F900F90DF91CF911A
:102A900008950C94F2150E949B210C94F009BF92AA
:102AA000CF92DF92EF92FF920F931F93CF93DF931A
:102AB00000D000D01F92CDB7DEB70E942B0A02E9EA
:102AC00012E0F12C8F2D0E940E0AB82EF801C08062
:102AD000C82639F4F3940F5F1F4FF0E1FF12F2CFD5
:102AE00030C08091850381FD0E94F315D12CEE2426
:102AF000E3948C2D8E21F9F0D982FA8291E08B2D0E
:102B00008E2109F490E09B830E94A4218160782F9C
:102B10009D838C8349815A816B818D810E94291606
:102B200049815A816B817C818D810E943C21F80111
:102B300080818E258083D394EE0CF8E0DF12D9CF0C
:102B4000C9CF8FEF89838A831B820E94A421816071
:102B5000782F9D838C8349815A816B818D810E945E
:102B600029160E943B210E949A1490919102891784
:102B700041F10E949A14809391029091850392FFF3
:102B80000EC090FF0CC01F928F9387EF96E09F932B
:102B90008F930E9438060F900F900F900F908091A6
:102BA00091020F900F900F900F900F90DF91CF91A7
:102BB0001F910F91FF90EF90DF90CF90BF900C94FA
:102BC0004D210F900F900F900F900F90DF91CF91AC
:102BD0001F910F91FF90EF90DF90CF90BF900895DD
:102BE0000C941C0A0895EF92FF920F931F93CF93BA
:102BF000DF9380E197E00E949F05C0E0D0E08DE286
:102C0000E82E81E0F82E02E017E08C2F0E940E0AD9
:102C10000E942921FF92EF921F928F93DF93CF930F
:102C20001F930F930E94380621968DB79EB7089682
:102C30000FB6F8949EBF0FBE8DBFC031D10529F7E6
:102C4000DF91CF911F910F91FF90EF90089508951C
:102C50000895CF93DF93CDB7DEB72B970FB6F894D7
:102C6000DEBF0FBECDBF942F4F83252F58876987B6
:102C70007A878B874A855B85452B31F02F3F31F46E
:102C800081E09F3F19F403C081E001C080E080FD36
:102C900007C04F81588569857A858B850E943C21C4
:102CA000DE01119686E0FD0111928A95E9F785E033
:102CB000FE01379601900D928A95E1F749815A817C
:102CC0006B817C818D819E810E94371D2B960FB672
:102CD000F894DEBF0FBECDBFDF91CF910895CF93A3
:102CE000882309F465C0C82F8CEF8C0F813A20F03F
:102CF00080E58C0F8E3248F48C2F0E948F23811137
:102D000057C08C2F0E941F200CC080E28C0F88308F
:102D100058F4C77081E001C0880FCA95EAF70E9495
:102D2000C420CF910C94FE208BE58C0F833078F477
:102D3000C53A29F0C63A31F083E890E005C081E851
:102D400090E002C082E890E0CF910C94EF1488E507
:102D50008C0F853168F5C83A89F0C93A91F0CA3AC2
:102D600099F0CB3AA1F0CC3AA9F0CD3AB1F0CE3AF5
:102D7000B9F0CF3AC1F080E090E017C082EE90E069
:102D800014C089EE90E011C08AEE90E00EC085EB91
:102D900090E00BC086EB90E008C083EB90E005C0AC
:102DA00084EB90E002C087EB90E0CF910C941C156F
:102DB000CF910895882349F19CEF980F913A20F024
:102DC00090E5980F9E3218F40E946F200DC090E29B
:102DD000980F983058F4877091E001C0990F8A9548
:102DE000EAF7892F0E94CA200C94FE209BE5980FD9
:102DF000933020F480E090E00C94EF14885A8531F1
:102E000020F480E090E00C941C150895882321F0B4
:102E10000E94C4200C94FE200895882321F00E9473
:102E2000CA200C94FE2008950E94E4200E94B32042
:102E30000E94FE2080E090E00E94EF1480E090E08D
:102E40000C941C150E94D4200C941417CF92DF927E
:102E5000EF92FF920F931F93CF93DF9300D000D098
:102E60001F92CDB7DEB76C010E944F218111EAC2DB
:102E700085E0F601DE01119601900D928A95E1F749
:102E8000F60140815181238134812115310531F0D2
:102E90005F3F31F481E04F3F19F403C081E001C08E
:102EA00080E080FDCFC2F601F280E580E2948FE001
:102EB000E82249835A83FB82722F3D832C836F2D36
:102EC0008D810E949B1F8C010E949A1F0E948A1E66
:102ED000E12FE295EF708E2F90E0FC01E85DFE4F50
:102EE0000C94E223812F807F1F70882311F01295AC
:102EF000107FFF2049F0112309F43BC2812F0E946B
:102F0000D7200E94FE2035C2802F0E94DA1611239E
:102F100009F498C2812F0E94DD200F900F900F902E
:102F20000F900F90DF91CF911F910F91FF90EF9035
:102F3000DF90CF900C94FE20812F807F1F70803215
:102F400011F01295107F002319F0013009F12BC008
:102F5000FF20A9F0EE2059F1F1E0812FEF1228C0F7
:102F60000F900F900F900F900F90DF91CF911F91C6
:102F70000F91FF90EF90DF90CF900C94E720EE2020
:102F800021F021E0E21609F45DC20E94EA202DC082
:102F9000FF20E9F085E08E1508F454C20E94C1209C
:102FA000812329F022C0FF20F1F0E11015C0812F0C
:102FB0000F900F900F900F900F90DF91CF911F9176
:102FC0000F91FF90EF90DF90CF900C94061794E054
:102FD0009E1508F437C209C0F601858180FFC9C17A
:102FE0008F708583E4CFE110D7C1812F4AC1812F33
:102FF00086958695837019F08130B9F023C2FF2041
:1030000019F0C801937002C080E090E00F900F901B
:103010000F900F900F90DF91CF911F910F91FF9024
:10302000EF90DF90CF900C94EF14FF2019F0C801BF
:10303000937002C080E090E00F900F900F900F907F
:103040000F90DF91CF911F910F91FF90EF90DF9044
:10305000CF900C941C15812F837009F070C0F11073
:10306000F1C1202F229526952770220F220F602F65
:103070006F70862F90E0A0E0B0E06C017D01022E21
:1030800004C0CC0CDD1CEE1CFF1C0A94D2F704FF1C
:1030900012C08FE090E0A0E0B0E004C0880F991F5C
:1030A000AA1FBB1F2A95D2F7BC01CD016095709570
:1030B0008095909503C060E070E0CB011695169561
:1030C00013701230B1F040F56C297D298E299F29AB
:1030D000113031F10F900F900F900F900F90DF9102
:1030E000CF911F910F91FF90EF90DF90CF900C94B4
:1030F000AF1E6C297D298E299F290F900F900F906C
:103100000F900F90DF91CF911F910F91FF90EF9053
:10311000DF90CF900C94C91E0E94AF1EC701B6016C
:103120000F900F900F900F900F90DF91CF911F9104
:103130000F91FF90EF90DF90CF900C94951EFF20A1
:1031400019F0812F817001C08695882309F47AC116
:10315000202F229526952770220F220F602F6F7047
:10316000862F90E0A0E0B0E06C017D01022E04C04B
:10317000CC0CDD1CEE1CFF1C0A94D2F704FF12C01D
:103180008FE090E0A0E0B0E004C0880F991FAA1F74
:10319000BB1F2A95D2F7BC01CD0160957095809533
:1031A000909503C060E070E0CB0116951695137002
:1031B0001230B1F040F56C297D298E299F291130FC
:1031C00031F10F900F900F900F900F90DF91CF91F2
:1031D0001F910F91FF90EF90DF90CF900C94761F8E
:1031E0006C297D298E299F290F900F900F900F90A9
:1031F0000F90DF91CF911F910F91FF90EF90DF9093
:10320000CF900C94881F0E94761FC701B6010F90C3
:103210000F900F900F900F90DF91CF911F910F9112
:10322000FF90EF90DF90CF900C94641F003FC1F1AE
:1032300028F480E4800F803250F096C0023F09F4F9
:103240005EC008F449C0033F09F46CC08DC0F02F84
:10325000F071EF2E812F8F71FF2051F00E94FD1E23
:10326000802FEE2019F08295807FA2CE8F70A0CEA5
:103270000E941E1F802FEE2019F08295807F01C0D2
:103280008F700F900F900F900F900F90DF91CF9154
:103290001F910F91FF90EF90DF90CF900C940D173E
:1032A000FF20A9F024E02E1508F4CCC0812F8F71E7
:1032B0000F900F900F900F900F90DF91CF911F9173
:1032C0000F91FF90EF90DF90CF900C94431F85E01B
:1032D0008E1508F4B7C0EACFFF2099F0812F8F71C7
:1032E0000F900F900F900F900F90DF91CF911F9143
:1032F0000F91FF90EF90DF90CF900C94FD1EFF2078
:1033000069F3812F8F710F900F900F900F900F9096
:10331000DF91CF911F910F91FF90EF90DF90CF90B1
:103320000C941E1FFF2089F0812F8F710F900F903A
:103330000F900F900F90DF91CF911F910F91FF9001
:10334000EF90DF90CF900C94E81E0F900F900F90AD
:103350000F900F90DF91CF911F910F91FF90EF9001
:10336000DF90CF900C94E31EFF2099F0EE2009F43B
:10337000B5CF802F0F900F900F900F900F90DF918F
:10338000CF911F910F91FF90EF90DF90CF900C9411
:103390006F16EE2009F4B5CF802F0F900F900F908D
:1033A0000F900F90DF91CF911F910F91FF90EF90B1
:1033B000DF90CF900C94DA16412F4F70602FC6012A
:1033C0000E942A220F900F900F900F900F90DF9184
:1033D000CF911F910F91FF90EF90DF90CF900C94C1
:1033E000E51D01112FC0FF2069F10E9422179FEFF8
:1033F000E0E7F2E09150E040F040E1F700C000006B
:103400000F900F900F900F900F90DF91CF911F9121
:103410000F91FF90EF90DF90CF900C940B22412FF3
:103420004F70602FC6010F900F900F900F900F906C
:10343000DF91CF911F910F91FF90EF90DF90CF9090
:103440000C942D220F900F900F900F900F90DF9102
:10345000CF911F910F91FF90EF90DF90CF90089543
:103460001F93CF93DF9300D000D01F92CDB7DEB76C
:10347000942F4983252F5A836B837C838D834C81C2
:103480005D81452B31F02F3F31F481E09F3F19F4EE
:1034900003C081E001C080E0182F117080FD31C0B1
:1034A00049815A816B817C818D810E949B1F292FCC
:1034B00022952F702C3030F42A30A0F42250223084
:1034C00030F022C02C30C9F02F30B9F01DC0853A41
:1034D00028F48430C0F4823028F415C090E2980FAC
:1034E000983088F0883E30F4803E68F48450813A09
:1034F00058F409C0803F41F406C093FB112710F92E
:1035000003C010E001C011E0812F0F900F900F90C9
:103510000F900F90DF91CF911F910895CF93DF937C
:1035200000D000D01F92CDB7DEB70F900F900F9054
:103530000F900F90DF91CF910895CF93DF9300D03C
:1035400000D000D0CDB7DEB726960FB6F894DEBF18
:103550000FBECDBFDF91CF9108951F93CF93DF931F
:10356000C091A20216E08091A302C81799F0D0E0A2
:103570001C9FF0011D9FF00D1124EC55FD4F408163
:10358000518162817381848195810E949D1A219667
:10359000C770E9CFDF91CF911F9108954091D40278
:1035A0005091D5026091D6027091D7028091D802D5
:1035B0009091D9020C949D1ACF938091D902829553
:1035C0008F7009F05FC08091D602882309F45AC039
:1035D0008091A202B091A3027091D402A091D50271
:1035E0004091D7025091D80291E07F3F09F090E0DE
:1035F000692FC6E08B1709F445C04115510521F02C
:10360000AF3F21F020E003C021E001C0262F90E071
:1036100020FD35C0C89FF001C99FF00D1124EC5565
:10362000FD4F21812A132BC02081271328C022811E
:10363000211125C0238134812417350710F421502E
:103640003109241B350B283C3105C8F42091D902DF
:103650002F7020612093D90226E0289FF001299F36
:10366000F00D1124E755FD4F80818F7080618083BC
:1036700084ED92E00E942617CF910C94AD1A01962A
:103680008770B8CFCF910895AF92BF92CF92DF925B
:10369000EF92FF920F931F93CF93DF93CDB7DEB7D7
:1036A00061970FB6F894DEBF0FBECDBF7C0185E0F9
:1036B000F701DE011D9601900D928A95E1F7D70181
:1036C0004C9111965C9111971296DC90129713967B
:1036D0000D911C9114973091D4026091D502809184
:1036E000D7029091D802009731F06F3F31F421E07A
:1036F0003F3F19F403C021E001C020E0B22FB170B8
:10370000BB2E20FD6EC1A090D602AA2009F4CCC029
:103710002091D9020817190728F0F801E81BF90BC6
:10372000CF0104C080959095800F911FCC24C39445
:10373000883C910580F0C12C207F09F0A1C0702F3A
:10374000198B088B6D2D89890E948E1A84ED92E069
:103750000E942617BDC0822F807F09F056C05613E5
:1037600015C0431313C0CD2CD11010C02F70206191
:103770002093D9020E94CE1A84ED92E00E9426176F
:103780008091D902D70115968C935FC1011511055F
:1037900031F05F3F31F481E04F3F19F403C081E025
:1037A00001C080E080FD03C081E08D2502C080E083
:1037B00090E0B82FB170CB2E80FF1CC08091A20288
:1037C0002091A30236E0821709F41CC190E0389FD3
:1037D000F001399FF00D1124EC55FD4F6181561316
:1037E00006C06081461303C06281D61203C00196F1
:1037F0008770E9CFCD2CDD2009F427C18091D90253
:1038000081608093D902C12C20C1561308C0431394
:1038100006C0D11004C08091D902D701B6C04D872F
:103820005E87DF86702F198B088B6D2D89890E942A
:10383000301A882399F1DD2089F12091D902822F55
:1038400082958F7090E0029774F08091D4029091ED
:10385000D50298878F8319861B870A872C87CE010C
:1038600007960E94261786E0F701A4EDB2E00190CA
:103870000D928A95E1F70E94DC1A0E94CE1A11C0BF
:10388000561781F14D875E87DF86702F198B088B65
:103890006D2D89890E94301A811138C0C7010E949C
:1038A0002617CC24C394D1C00817190708F446C0C2
:1038B000F801E81BF90BCF01883C910508F443C0DF
:1038C000C12C702F198B088B6D2D89890E948E1A3F
:1038D000E4EDF2E086E0DF011D928A95E9F70E94AF
:1038E000CE1AB3C04313CECFD110CCCF8091D90222
:1038F000F7018583C7010E94261786E0E4EDF2E018
:10390000DF011D928A95E9F7CA2C9FC0DD2031F2B4
:103910002091D902822F82958F7090E002970CF44B
:10392000A2CF8091D4029091D5029A8389831B8281
:103930001D830C832E83CE01019693CF80959095A5
:10394000800F911FB9CFCD2CDD2009F4A7CF5613DE
:1039500033C0431331C02091D90220FD24C0822FEF
:1039600082958F70482F50E041155105E1F0D70145
:1039700015962C9315974F30510549F08F5F982F6E
:103980009295907F822F8F70892B15968C93C7010B
:103990000E94261786E0F701A4EDB2E001900D9297
:1039A0008A95E1F79CCF86E0F701A4EDB2E00190A3
:1039B0000D928A95E1F749C04D875E87DF86702FAB
:1039C000198B088B6D2D89890E94301A81114BCF7C
:1039D0008091D90281608093D902C7010E94261785
:1039E00034C0DD2009F45ACF4D875E87DF86702F03
:1039F000198B088B6D2D89890E94301A882309F450
:103A00004DCF31CF702F198B088B6D2D89890E9476
:103A10009B1F292F22952F70223028F49F7039F098
:103A2000811105C00BC0243028F49F7049F4805EDA
:103A3000883020F0C7010E942617BC2CCB2C05C073
:103A4000F7019581907F99F7F9CF8C2D61960FB68C
:103A5000F894DEBF0FBECDBFDF91CF911F910F91C4
:103A6000FF90EF90DF90CF90BF90AF9008951F939D
:103A7000CF93DF93CDB7DEB72C970FB6F894DEBFA8
:103A80000FBECDBF4F83588769877A878B879C8706
:103A9000CE0107960E94441B8823D1F09F81888520
:103AA0002A853B85232B31F08F3F31F481E09F3F06
:103AB00019F403C081E001C080E080FD47C04F8160
:103AC000588569857A858B859C850E949D1A3EC0A4
:103AD00086E0FE013796DE01119601900D928A95DF
:103AE000E1F7FF81E8856A857B856115710531F015
:103AF000EF3F31F481E0FF3F19F403C081E001C0E2
:103B000080E080FD23C02091A30230E0C90101962E
:103B1000877099274091A20250E084179507F1F130
:103B2000F983EA837D836C8396E0929FD001939F13
:103B3000B00D1124AC55BD4FFE01319601900D9290
:103B40009A95E1F78093A3020E94AD1A16E0809146
:103B5000A2029091A302891771F1189FC00111244C
:103B60008C559D4F0E94441B882329F1E091A202AD
:103B70001E9FF0011124EC55FD4F4081518162815F
:103B80007381848195810E949D1A8091A20290E0A8
:103B90000196877099278093A202D9CF0E9422179D
:103BA0001092A3021092A202E4EDF2E086E0DF019F
:103BB0001D928A95E9F72C960FB6F894DEBF0FBEDA
:103BC000CDBFDF91CF911F910895DF92EF92FF92C9
:103BD0000F931F93CF93DF93FC01892B09F488C0C7
:103BE000E12CF12CDD24D394EF01219684918537CB
:103BF00009F460C058F4843708F04EC0843008F0EF
:103C000068C08130D1F0823071F172C0883709F418
:103C10005BC050F4863709F453C0873709F068C099
:103C20008E2D0E94D12052C09CE7980F903708F04B
:103C30005FC08F770E94DA164EC08F010E5F1F4F54
:103C4000FE01849190E2980F983050F48770FD2D1A
:103C500001C0FF0F8A95EAF78F2F0E94D72015C069
:103C60000E946F1614C08F010E5F1F4FFE018491DA
:103C700090E2980F983068F48770FD2D01C0FF0F17
:103C80008A95EAF78F2F0E94DD200E94FE20E8012E
:103C900022C00E94DA16FBCFCF010296FE01C4912A
:103CA000CC2361F0EFE9FFE03197F1F700C00000AD
:103CB000C150F6CFCF010296FE01F490EC010BC08B
:103CC0000E94C120E82E07C00E94D4200E94FE203E
:103CD00002C00E946F168F2D882341F0EFE9FFE0AC
:103CE0003197F1F700C000008150F6CFFE017CCF84
:103CF000DF91CF911F910F91FF90EF90DF9008958A
:103D000060935A0370935B0380935C0390935D030D
:103D10000C944C21089560935E0370935F0380932D
:103D20006003909361030C944B210F931F930091B8
:103D30005E0310915F032091600330916103602B5B
:103D4000712B822B932B60935E0370935F038093A0
:103D50006003909361031F910F910C944B210F937B
:103D60001F9300915E0310915F03209160033091D7
:103D70006103602371238223932360935E03709316
:103D80005F0380936003909361031F910F910C94E4
:103D90004B210F931F9300915E0310915F032091BD
:103DA0006003309161036027712782279327609316
:103DB0005E0370935F0380936003909361031F9190
:103DC0000F910C944B2160E070E0CB010C94801EAD
:103DD0000F931F9341E050E060E070E08A019B0187
:103DE00004C0000F111F221F331F8A95D2F7C9018B
:103DF000B8011F910F910C94801E0F931F9341E007
:103E000050E060E070E004C0440F551F661F771F4C
:103E10008A95D2F780915A0390915B03A0915C033D
:103E2000B0915D038A019B01082B192B2A2B3B2B98
:103E3000C901B8011F910F910C94801E0F931F931D
:103E400041E050E060E070E004C0440F551F661F81
:103E5000771F8A95D2F7409550956095709580911F
:103E60005A0390915B03A0915C03B0915D038A01BA
:103E70009B01082319232A233B23C901B8011F9161
:103E80000F910C94801E0F931F9341E050E060E06F
:103E900070E004C0440F551F661F771F8A95D2F744
:103EA00080915A0390915B03A0915C03B0915D03F4
:103EB0008A019B01082719272A273B27C901B80136
:103EC0001F910F910C94801E0F931F9300915A0322
:103ED00010915B0320915C0330915D03602B712B8B
:103EE000822B932B1F910F910C94801E0F931F9385
:103EF00000915A0310915B0320915C0330915D03A4
:103F000060237123822393231F910F910C94801EB1
:103F10000F931F9300915A0310915B0320915C0350
:103F200030915D0360277127822793271F910F919E
:103F30000C94801E08958F929F92AF92BF92DF9251
:103F4000EF92FF920F931F93CF93DF9300D000D097
:103F50001F92CDB7DEB76B837C838D838A018C8102
:103F60009D81892B31F01F3F31F481E04F3F19F4DF
:103F700003C081E001C080E080FF03C080E090E0EA
:103F80004DC08B818823D1F180905A0390905B03C0
:103F9000A0905C03B0905D0380915E0390915F03FD
:103FA000A0916003B0916103882A992AAA2ABB2AAA
:103FB0008FE1E82EF12CD501C4010E2C04C0B6957A
:103FC000A795979587950A94D2F780FD06C081E062
:103FD000E81AF10880F7D12C07C0DE2CB8018E2D2D
:103FE0000E944106019799F388E0189FF00111247F
:103FF000E652FD4FE00FF11DD08209C088E0189F06
:10400000F0011124E652FD4FE00FF11DD08009832D
:104010001A8369817A818D2D0E9441060F900F903D
:104020000F900F900F90DF91CF911F910F91FF9004
:10403000EF90DF90BF90AF909F908F9008959091F8
:104040001501992379F190911601992359F1982F2F
:104050009695969596959F31A1F0E0911701F09174
:104060001801E90FF11D877021E030E0A90102C0BD
:10407000440F551F8A95E2F7CA019181892B8183EC
:1040800008959091850390FF29C01F928F938CE330
:1040900097E09F938F930E9438060F900F900F9098
:1040A0000F9008952091170130911801F90132966F
:1040B0009FEF40E05191851789F09F3F19F451110E
:1040C00001C0942F4F5F4E31A9F79F3F39F0F9019E
:1040D000E90FF11D97FDFA95828308950895909157
:1040E0001501992381F190911601992361F1982F7F
:1040F0009695969596959F31A9F0E0911701F091CC
:104100001801E90FF11D877021E030E0A90102C01C
:10411000440F551F8A95E2F7CA0180959181892342
:10412000818308959091850390FF1CC01F928F9307
:104130008EE197E09F938F930E9438060F900F9027
:104140000F900F900895E0911701F09118019F01D1
:10415000225E3F4F9281891301C012823196E2178D
:10416000F307C1F7089581E090E0E0911701F09125
:104170001801E80FF91F1082019680329105A9F706
:10418000089580918403089590918403892B8093EE
:1041900084030895809590918403892380938403F8
:1041A0000895809384030895109284030895909154
:1041B0008303892B809383030895809590918303D3
:1041C0008923809383030895109283030895809335
:1041D00062030895109262030895809117019091EF
:1041E0001801FC0131969C01205E3F4F80E09191C7
:1041F00091118F5FE217F307D1F70895E09117014E
:10420000F0911801809184038083E0911701F0916F
:104210001801908180918303892B808380916203B0
:10422000882361F0E0911701F09118019081892BAA
:1042300080830E94ED20811110926203809117010A
:10424000909118010C94A614909335018093340139
:1042500008958295982F937344E0949F90011124C0
:104260008C7C86958695282B822F8575880F2A7AD7
:104270002695822B08950895CF93DF9300D000D028
:104280001F92CDB7DEB70F900F900F900F900F9049
:10429000DF91CF910895089508950C94F01580E072
:1042A000089583B7817F8C6083BF83B7816083BFAC
:1042B0007894889583B78E7F83BF0895CF930E94AB
:1042C00027160E942B0A0E942816C0E08C2F0E94FD
:1042D0000E0A811104C0CF5FC031C1F701C081E077
:1042E000CF9108950E94140A0C9422171F920F92E6
:1042F0000FB60F9211248F939F93AF93BF9380912A
:10430000860390918703A0918803B0918903419619
:10431000A11DB11D8093860390938703A09388030A
:10432000B0938903BF91AF919F918F910F900FBE72
:104330000F901F90189582E084BD93E095BD9AEF91
:1043400097BD80936E0008952FB7F89480918603EF
:1043500090918703A0918803B09189032FBF08959E
:104360002FB7F8946091860370918703809188033A
:10437000909189032FBF0895CF92DF92EF92FF9221
:104380000F931F932FB7F8944091860350918703A2
:1043900060918803709189032FBF6A017B01EE242D
:1043A000FF248C0120E030E0C016D106E206F306BF
:1043B00010F4415051099A01281B390BC9011F9172
:1043C0000F91FF90EF90DF90CF9008951F920F9282
:1043D0000FB60F9211248F939F93AF93BF93809149
:1043E000860390918703A0918803B0918903019679
:1043F000A11DB11D8093860390938703A09388032A
:10440000B0938903BF91AF919F918F910F900FBE91
:104410000F901F9018950E94D511F89487E797E7A1
:10442000909301088093000887E090EBDC01809373
:10443000980390939903A0939A03B0939B039CE0F5
:1044400088E10FB6F894A895809360000FBE909312
:104450006000FFCF80E090E008950895CF93C82FCB
:104460001F928F9380E697E09F938F930E94380668
:1044700081E090E0A0E0B0E0BC01CD0104C0660F97
:10448000771F881F991FCA95D2F70E948B1E0F9025
:104490000F900F900F90CF910C942217CF938732EB
:1044A000A8F58E3108F02BC1803109F49FC0F8F4D3
:1044B000873009F464C0A8F4863009F024C18091E3
:1044C0008503817F8E7F8093850385E697E00E9438
:1044D0009F0588E49AE00E949F0581E080938A030B
:1044E0004CC08B30F1F18E3009F46CC00CC18631B8
:1044F00009F4B0C020F4813109F4EDC004C1893160
:1045000009F491C08B3109F449C0FDC0883349F1E9
:1045100050F4893209F4F1C0853309F4EEC08732D2
:1045200009F0F1C0EAC0833409F4E7C028F48A3303
:1045300008F4E9C08953E4C0883409F0E4C00E945B
:10454000221787E39AE00E949F052FEF83ED90E307
:10455000215080409040E1F700C000000E940B22F3
:104560000CC080E897E05CC08EE19AE00E949F0555
:1045700080918503816080938503C1E0C9C08091EB
:104580008503C82FC17080FFEFCF8AE29AE00E94B6
:104590009F0580918503817F8E7F3DC0909185032B
:1045A00091FBCC27C0F981E0C827892FC0FB81F996
:1045B00080938503CC2319F081E19AE027C083E042
:1045C0009AE02EC09091850392FBCC27C0F981E040
:1045D000C827892FC0FB82F980938503CC2319F06B
:1045E00084EF99E013C084EE99E01AC0909185039E
:1045F00093FBCC27C0F981E0C827892FC0FB83F942
:1046000080938503CC2351F088ED99E00E949F05AB
:10461000809185038160809385037AC08BEC99E05B
:104620000E949F05AACF8CEB99E00E949F0586E926
:1046300099E00E949F058EE499E00E949F0586E222
:1046400099E00E949F058AED98E00E949F058EEAFE
:1046500098E0E6CF80EA98E00E949F050E949A14B5
:104660001F928F9386E898E09F938F930E9438065D
:10467000809115011F928F938FE698E09F938F93FF
:104680000E94380680918A021F928F938CE598E0F1
:104690009F938F930E943806809116011F928F93EB
:1046A00089E498E09F938F930E9438060E94B0217E
:1046B0009F938F937F936F9382E398E09F938F9361
:1046C0000E9438068DB79EB746960FB6F8949EBFE7
:1046D0000FBE8DBF52CF0E942217C091160181E0FC
:1046E000C827C0931601CC2329F088E298E00E94E5
:1046F0009F050EC08DE198E093CF80E001C08D5101
:104700000E942E223ACF8BE198E00E949F05C0E0E4
:104710008C2FCF91089580E008950C948B23CF9334
:10472000C82F80918A03882319F0813059F042C044
:10473000E0911701F09118018081823261F0843498
:10474000D9F509C0E0911701F091180180818232FA
:1047500011F0843461F48C2F0E948D23811104C0E8
:104760008C2F0E944E2224C081E090E021C08C2F2B
:104770000E948B2381111BC0C43189F018F4CB3007
:1047800029F010C0C93259F0C83361F485E697E0CA
:104790000E949F058CE597E00E949F0508C010923B
:1047A0008A030CC08AE597E00E949F0507C081E05C
:1047B000817006C010928A0380E002C080E0F8CFCA
:1047C000CF910895EE0FFF1F0024001C0BBE079031
:0A47D000F691E02D0994F894FFCF54
:1047DA00013C0100000F69010000FFC40C310DC744
:1047EA000CFC0CC80C0101630340362239860650C2
:1047FA00062E06F50581059A05B305D305000010B6
:04480A00000800049E
:106800008800EA44E944E244040005000600070069
:10681000080009000A000B000C000D000E000F001C
:1068200010001100120013001400150016001700CC
:10683000180019001A001B001C001D001E001F007C
:10684000200021002200230024002500260027002C
:10685000280029002A002B002C002D002E002F00DC
:10686000300031003200330034003500360037008C
:10687000380039003A003B003C003D003E003F003C
:1068800040004100420043004400450046004700EC
:10689000480049004A004B004C004D004E004F009C
:1068A000500051005200530054005500560057004C
:1068B000580059005A005B005C005D005E005F00FC
:1068C00060006100620063006400F1A18500670060
:1068D000680069006A006B006C006D006E006F005C
:1068E0007000710072007300890087008A008B00BD
:1068F000E000E100E200E300E400E500E600E7007C
:106900000100010001000100EA4401000100E2442D
:106910000100010001000100460001004A004B0097
:10692000010001004700480001000100E9440100A6
:106930000100010001000100010001003A003B00DC
:106940003C003D003E003F0040004100420043004B
:10695000010035004C0039000100440045005200A0
:1069600049000100010050004F0029004D004E0079
:1069700051000100010001000100010001000100BF
:1069800001000100010001000100010001000100FF
:1069900001000100010001000100010001004D00A3
:1069A0004A004E004B0001000100010001000100FF
:1069B00001000100010001000100010001000100CF
:1069C00001000100010001000100010001000100BF
:1069D00001000100010001000100010001000100AF
:1069E0000100010001000100490001000100010057
:1069F000010001000100010001000100010001008F
:00000001FF
