:100000000C9451050C9499050C9499050C94990540
:100010000C9499050C9499050C9499050C949905E8
:100020000C9499050C9499050C9499050C94770CF3
:100030000C94260D0C94271C0C9499050C9499058E
:100040000C9499050C9499050C9499050C949B1C9F
:100050000C9499050C9499050C9499050C949905A8
:100060000C9499050C9499050C9499050C94990598
:100070000C9499059C069F06A206A506A806AB0649
:10008000AE06930DB50DA80EB50DA80EFA0D1D0EFA
:10009000A80E720E850E3712371261126112BC1251
:1000A000F012FE14FE140713FE14F213F213B81428
:1000B000FE14CD14EB147E10360E0F12272D7F3751
:1000C000383334132F2E7C7D29283130742A7879E7
:1000D00039042B14351E7B641D161A081F207A1B49
:1000E0000709151721222C06190A1C182324650557
:1000F000110B0D0C2526626F756E63653A20256421
:1001000020256440253032580A000A4B6579626F19
:100110006172642073746172742E0A000A5553422E
:1001200020636F6E666967757265642E0A000A0A3D
:10013000544D4B3A62613466323861342B2F4C5542
:1001400046410A0A000E0341006C0070007300363D
:100150000034000000080354004D004B0000000470
:1001600003090409027400040100A032090400001C
:1001700001030101000921110100012240000705CE
:10018000810308000A09040100010301020009219A
:1001900011010001224D000705820308000A09042D
:1001A00002000103000000092111010001223600B4
:1001B0000705830308000A09040300020300000086
:1001C00009211101000122220007058403200001FA
:1001D000070504032000011201100100000008EDD2
:1001E000FE64640100010200010631FF0974A101EF
:1001F0000975150026FF00952075088102097615FE
:100200000026FF00952075089102C005010980A114
:100210000185021601002637001A81002AB70075F1
:100220001095018100C0050C0901A101850316018B
:1002300000269C021A01002A9C027510950181007B
:10024000C005010902A1010901A10005091901293F
:10025000051500250195057501810295017503813C
:10026000010501093009311581257F950275088145
:100270000609381581257F950175088106050C0A48
:1002800038021581257F950175088106C0C00501DA
:100290000906A101050719E029E7150025019508C0
:1002A000750181029501750881010508190129056B
:1002B00095057501910295017503910105071900D6
:1002C00029FF150026FF00950675088100C0636FA1
:1002D0006E73756D65723A20253034580A00737953
:1002E0007374656D3A20253034580A000A002530B1
:1002F000325820006B6579626F6172643A20004C5D
:1003000045443A20253032580A00253032583A20E8
:100310002530386225730A00722F63203031323362
:10032000343536370A00646F6E652E0A00626F6FCF
:10033000746D61676963207363616E3A202E2E2E9F
:100340002000290A002575002F002575005D280072
:10035000256400200025640020002564002000257D
:1003600064007C0025303258006D6F7573656B65D5
:1003700079205B62746E7C782079207620685D2815
:100380007265702F61636C293A205B006D6B5F773B
:100390006865656C5F74696D655F746F5F6D6178CA
:1003A000203D2025640A006D6B5F776865656C5F92
:1003B0006D61785F7370656564203D2025640A0077
:1003C0006D6B5F74696D655F746F5F6D6178203D03
:1003D0002025640A006D6B5F6D61785F73706565E1
:1003E00064203D2025640A006D6B5F696E74657240
:1003F00076616C203D2025640A006D6B5F64656C3E
:100400006179203D2025640A006D6B5F7768656522
:100410006C5F74696D655F746F5F6D6178203D20FE
:1004200025640A006D6B5F776865656C5F6D617848
:100430005F7370656564203D2025640A006D6B5F05
:1004400074696D655F746F5F6D6178203D20256410
:100450000A006D6B5F6D61785F7370656564203D48
:100460002025640A006D6B5F696E74657276616C3D
:10047000203D2025640A006D6B5F64656C61792006
:100480003D2025640A000A00257500363A20776869
:1004900065656C5F74696D655F746F5F6D61783AF7
:1004A00020000A00257500353A20776865656C5F85
:1004B0006D61785F73706565643A20000A00257588
:1004C00000343A2074696D655F746F5F6D61783ACE
:1004D00020000A00257500333A206D61785F737043
:1004E0006565643A20000A00257500323A20696E7D
:1004F00074657276616C286D73293A20000A0025B4
:100500007500313A2064656C6179282A31306D7349
:10051000293A20000A092D2056616C756573202D3B
:100520000A004D3E004D25643E20003F0073657477
:100530002064656661756C740A00433E200077682C
:100540006572652064656C74613A20637572736FBF
:10055000723D25642C20776865656C3D25640A53DF
:10056000656520687474703A2F2F656E2E77696BFD
:100570006970656469612E6F72672F77696B692F87
:100580004D6F7573655F6B6579730A000A092D20DD
:100590004D6F7573656B6579202D0A4553432F7137
:1005A0003A09717569740A313A0964656C61792890
:1005B0002A31306D73290A323A09696E7465727690
:1005C000616C286D73290A333A096D61785F737025
:1005D0006565640A343A0974696D655F746F5F6DAF
:1005E00061780A353A09776865656C5F6D61785F97
:1005F00073706565640A363A09776865656C5F747F
:10060000696D655F746F5F6D61780A0A703A097091
:1006100072696E742076616C7565730A643A097349
:1006200065742064656661756C74730A75703A0947
:100630002B310A646F776E3A092D310A7067757035
:100640003A092B31300A7067646F776E3A092D31A1
:10065000300A0A7370656564203D2064656C7461BE
:10066000202A206D61785F7370656564202A2028D8
:10067000726570656174202F2074696D655F746F99
:100680005F6D6178290A003F004D3E2000433E2007
:10069000004C25640A000A092D20436F6E736F6CAD
:1006A00065202D0A4553432F713A09717569740A03
:1006B0006D3A096D6F7573656B65790A000A092DCE
:1006C000204D61676963202D0A643A09646562758B
:1006D000670A783A096465627567206D61747269AA
:1006E000780A6B3A096465627567206B6579626F99
:1006F0006172640A6D3A096465627567206D6F7591
:1007000073650A763A0976657273696F6E0A733A91
:10071000097374617475730A633A09636F6E736F5A
:100720006C65206D6F64650A302D343A096C61790F
:100730006572302D34284631302D4634290A5061F7
:1007400075733A09626F6F746C6F616465720A65E4
:100750003A09656570726F6D0A000A002575002EF2
:100760006E6B726F3A20000A002575002E73776158
:10077000705F6261636B736C6173685F6261636B0E
:1007800073706163653A20000A002575002E737747
:1007900061705F67726176655F6573633A20000A16
:1007A000002575002E6E6F5F6775693A20000A009C
:1007B0002575002E737761705F72616C745F72676C
:1007C00075693A20000A002575002E737761705F05
:1007D0006C616C745F6C6775693A20000A0025755E
:1007E000002E636170736C6F636B5F746F5F636F18
:1007F0006E74726F6C3A20000A002575002E7377B4
:1008000061705F636F6E74726F6C5F636170736C45
:100810006F636B3A20000A0025303258006B65790F
:100820006D61705F636F6E6669672E7261773A20E3
:10083000000A002575002E6D6F7573653A20000A59
:10084000002575002E6B6579626F6172643A200035
:100850000A002575002E6D61747269783A20000ACD
:10086000002575002E656E61626C653A20000A00F5
:10087000253032580064656275675F636F6E666924
:10088000672E7261773A20000A002575006465665C
:1008900061756C745F6C617965723A20003F007419
:1008A000696D65725F72656164333228293A20256B
:1008B00030346C580A006B6579626F6172645F69ED
:1008C000646C653A2025580A006B6579626F617225
:1008D000645F70726F746F636F6C3A2025580A0002
:1008E000686F73745F6B6579626F6172645F6C656A
:1008F000647328293A2025580A000A092D205374C8
:1009000061747573202D0A004743433A20352E3415
:100910002E30204156522D4C4942433A20322E303F
:100920002E30204156525F415243483A2061767240
:1009300033350A004F5054494F4E533A204C5546D8
:100940004120424F4F544D41474943204D4F55534D
:10095000454B45592045585452414B455920434F2A
:100960004E534F4C4520434F4D4D414E44204B4537
:10097000594D41505F53454354494F4E203430390F
:10098000360A004255494C443A2062613466323896
:1009900061342B202832323A35353A3037204465DD
:1009A000632032382032303139290A005649443A1E
:1009B0002030784645454428544D4B292050494421
:1009C0003A2030783634363428416C707336342906
:1009D000205645523A203078303030310A004445B4
:1009E00053433A20544D4B206B6579626F617264BA
:1009F000206669726D7761726520666F7220416C46
:100A0000707336340A000A092D2056657273696FB7
:100A10006E202D0A000A6D6F7573653A206F666649
:100A20000A000A6D6F7573653A206F6E0A000A6BD3
:100A30006579626F6172643A206F66660A000A6BBC
:100A40006579626F6172643A206F6E0A000A6D61A7
:100A5000747269783A206F66660A000A6D61747272
:100A600069783A206F6E0A000A64656275673A20F9
:100A70006F6E0A000A64656275673A206F66660ADF
:100A8000000A0A626F6F746C6F616465722E2E2E9D
:100A90002000433E20006565636F6E6669673A0A11
:100AA000000011241FBECFEFD4E0DEBFCDBF04B6DF
:100AB00003FE28C08091140390911503A0911603A2
:100AC000B09117038730904BA740B04BD9F41092E8
:100AD000140310921503109216031092170314BEFC
:100AE0000FB6F894A89580916000886180936000AB
:100AF000109260000FBE1092010810920008E0E012
:100B0000F8E3099511E0A0E0B1E0E6EBF0E502C002
:100B100005900D92A833B107D9F723E0A8E3B1E01F
:100B200001C01D92A431B207E1F70E9460090C9444
:100B300059280C940000FF93EF93E0913801F09155
:100B40003901309709F00995EF91FF910895FC0163
:100B50008591803011F0EFDFFBCF0895FF27E0E2B1
:100B600030E247FF0CC0419597FF09C0EDE2609568
:100B7000709580959095611D711D811D911D27FFB8
:100B800002C0219530E350E2AA27660F771F881F25
:100B9000991FAA1FA41710F0A41B63955A95A9F7D3
:100BA000AA3008F0A95FA05DAF93F39561157105B8
:100BB0008105910541F7ED3211F4EF93F395F217AA
:100BC00018F43F93F395FBCF8F91B5DFFA95E1F7DA
:100BD0000895E991F9918591803021F0853219F0DD
:100BE000AADFF9CF089520E0E89455915532C1F37A
:100BF000503311F4689455915A3348F4505390F39C
:100C0000220F022E220F220F200D250FF4CF0EF4FB
:100C1000219589919991533619F3533729F1533519
:100C200059F1BC0188279927E8945C3621F4899111
:100C3000999168945591543639F446EF7EF077FFD8
:100C40000DC08FEF9FEF0AC055374AE039F0583595
:100C500040E121F0523642E009F00895FF93EF930E
:100C60007DDFEF91FF91B7CFFF93EF93FC0181916F
:100C70008030B9F360DFFBCFFF93EF9368DFF1CFF4
:100C8000DF93CF93CDB7DEB72596A3DFCF91DF916A
:100C900008958AB180788AB98BB180788BB93A98F7
:100CA000429808950E94490684B114B885B18FEF27
:100CB00085B9E2E4F1E0AAE3B1E011921D9221E0EE
:100CC000EA34F207D1F78091F50282608093F50251
:100CD0003D9A459A8FEF99E628E181509040204057
:100CE000E1F700C000003D98459808959F92AF92AB
:100CF000BF92CF92DF92EF92FF920F931F93CF9309
:100D0000DF938AE3E82E81E0F82E8701C0E0D0E08F
:100D10009924939496EFC92E90E0D92E8C2F90E0D1
:100D2000FC013197E730F10520F4E65CFF4F0C94AD
:100D30000E28509A589814C0519A599811C0529A36
:100D40005A980EC0539A5B980BC0549A5C9808C08E
:100D5000559A5D9805C0569A5E9802C03A9A429894
:100D600080EA8A95F1F7B3B0B094D801AC90AB1497
:100D700059F180914C018823E9F08091F50280FFC0
:100D800019C080914A0190914B010E94711CAB24C3
:100D90001F92AF92DF93CF939F938F93DF92CF9267
:100DA0000E9440068DB79EB708960FB6F8949EBF76
:100DB0000FBE8DBFD801BC9290924C010E94591C6D
:100DC00090934B0180934A010E94490621960F5F40
:100DD0001F4FC830D10509F0A1CF80914C01882365
:100DE000A9F080914A0190914B010E94711C0597D6
:100DF00068F0E2E4F1E0D7018D917D018193B2E4E6
:100E0000EB16B1E0FB06B9F710924C0181E0DF91DF
:100E1000CF911F910F91FF90EF90DF90CF90BF90F7
:100E2000AF909F900895E82FF0E0EE5BFE4F808139
:100E3000089581FF03C03D9A459A08953D984598CD
:100E40000895809159020895CF93DF9300D01F92A7
:100E5000CDB7DEB79C0180910A03843019F593E089
:100E600099833B832A839093E9008FEF9091E80068
:100E7000815095FD06C095ED9A95F1F7000081111E
:100E8000F5CF8091E80085FF0DC040E050E063E0C1
:100E900070E0CE0101960E94890A8091E8008E7769
:100EA0008093E8000F900F900F90DF91CF910895FD
:100EB000CF93DF9300D01F92CDB7DEB720910A0306
:100EC000243031F522E02983805891099B838A835D
:100ED00083E08093E9008FEF9091E800815095FDC9
:100EE00006C095ED9A95F1F700008111F5CF80913C
:100EF000E80085FF0DC040E050E063E070E0CE0107
:100F000001960E94890A8091E8008E778093E8001C
:100F10000F900F900F90DF91CF91089520910A03C9
:100F20002430F1F422E02093E9002FEF3091E80023
:100F3000215035FD06C035ED3A95F1F7000021113D
:100F4000F5CF2091E80025FF0BC040E050E065E0C0
:100F500070E00E94890A8091E8008E778093E80013
:100F60000895CF93DF9320910A03243049F521E0BF
:100F70002093E90021E8215059F03091E80035FD37
:100F800007C0EFE3F1E03197F1F700C00000F3CFC5
:100F90002091E80025FF14C0EC0140E050E068E03B
:100FA00070E00E94890A8091E8008E778093E800C3
:100FB00088E0FE01A1E5B2E001900D928A95E1F78B
:100FC000DF91CF910895CF93C0914F01C1110BC014
:100FD0000E94651C643C79408105910520F081E008
:100FE00080934F01C1E08C2FCF910895CF93C82FEC
:100FF0000E94E307882309F448C00FB607FE45C0E6
:1010000080910A03843009F040C08091E9008F701C
:101010002091EC00922F917020FD90E8892B94E0B4
:101020009093E9009091EB0090FF2CC09091EE001E
:1010300097FF28C09091030120910201291709F41C
:1010400047C02091E80025FF1DC0E0910001F0910C
:101050000101E90FF11D30819F5F2091040192236E
:10106000909303013093F1009091E80095FDE2CF59
:101070009091E80090FFDECF9091E8009E779093EA
:10108000E800D8CF8F708093E9008091020190E052
:10109000AC014F5F5F4F30910401232F30E02423D8
:1010A00035234091030150E024173507D1F02091FA
:1010B000000130910101F901E80FF91FC08380910F
:1010C00002018F5F9091040189238093020109C07E
:1010D0009091E80095FFD6CFC093F1008F70809378
:1010E000E90080E0CF9108950895089542E061EC11
:1010F00081E00E948D0B42E061EC82E00E948D0B4A
:1011000042E061EC83E00E948D0B42E261EC84E0FE
:101110000C948D0B80910C03833009F453C030F490
:10112000813071F0823009F48CC008958A3009F45E
:1011300078C08B3009F45EC0893009F09AC020C0B5
:1011400080910B03813A09F094C08091E800877F79
:101150008093E80080910F0390911003892B21F474
:1011600068E081E592E003C060E080E090E070E03C
:101170000E94D40A8091E8008B778093E80008955C
:1011800080910B03813209F074C080910F0390911C
:101190001003892B09F06DC08091E800877F809350
:1011A000E8008091E80082FD05C080910A0381116A
:1011B000F8CF5FC08091F100809359028091E800E0
:1011C0008B7753C080910B03813A09F052C0809114
:1011D0000F0390911003892B09F04BC08091E80018
:1011E000877F8093E8008091E80080FFFCCF8091AA
:1011F0000F0136C080910B038132D9F580910F0326
:1012000090911003892BA9F58091E800877F809346
:10121000E8000E94C20B80910D0380930F010C9493
:10122000E71180910B03813221F58091E800877FDF
:101230008093E8000E94C20B80910E0380935A02B3
:10124000089580910B03813AA1F48091E800877F93
:101250008093E8008091E80080FFFCCF80915A02E3
:101260008093F1008091E8008E778093E8000C94E1
:10127000C20B089580915902809350011092590237
:101280000E942C100C94E7110C943A090E94E61B62
:1012900080910803882329F00E940F1C81110C946F
:1012A000730A08950E94231C809150018093590273
:1012B00008950C94520908950C945B090C945B09F1
:1012C000CF9384B7877F84BF0FB6F894A895809199
:1012D0006000886180936000109260000FBE90E013
:1012E00080E80FB6F89480936100909361000FBE80
:1012F00086EF97E00E94B81B85E091E00E94C00E47
:101300008EE291E00E94A7050E945E090E947F0F75
:101310000E94140C0E94670C8091E200846080930C
:10132000E20078940E94810F80910A03843019F0C2
:101330000E945B09F9CF8CE191E00E94A7050E9411
:101340005C098AE091E00E94A705C4E080910A034D
:10135000853019F40E944609F9CF0E94870F209129
:10136000E4003091E50080914D0190914E012817E5
:10137000390761F38091E4009091E50090934E016C
:1013800080934D010E94E307882301F380910A03B3
:101390008430E1F68091E9008F702091EC00922F6B
:1013A000917020FD90E8892BC093E9009091EB00AB
:1013B00090FF3FC09091EE0097FF3BC090910301DA
:1013C00020910201291709F12091E80025FF1DC095
:1013D000E0910001F0910101E90FF11D30819F5F63
:1013E000209104019223909303013093F100909196
:1013F000E80095FDE3CF9091E80090FFDFCF90915A
:10140000E8009E779093E800D9CF9091F20099235D
:1014100081F09091E80090FF0CC09091E80095FF5A
:1014200003C01092F100F9CF9091E8009E7790935D
:10143000E8008F708093E90089CF292F332723306C
:101440003105C9F060F42130310581F022303105D9
:1014500009F041C084E790E023E631E040C021324A
:101460003105E1F02232310531F135C082E190E001
:1014700027ED31E034C099278130910549F028F0FB
:10148000029749F5E5E4F1E005C0EFE5F1E002C0BF
:10149000E5E5F1E0849190E09F0121C06430D8F44B
:1014A000E62FF0E0EE0FFF1FEC5DFE4F2081318153
:1014B00089E090E014C0643070F470E0FB01EE0F3E
:1014C000FF1FE45EFE4F20813181FB01E85EFE4F8D
:1014D000808190E004C080E090E020E030E0FA01FC
:1014E00031832083089584E089BD86E089BD09B4F5
:1014F00000FEFDCF8091D8008F7D8093D800809131
:10150000E00082608093E0008091E00081FDFCCFEC
:101510000895CF92DF92EF92FF920F931F93CF9394
:10152000DF93EC018B017A010E94E10B811133C042
:10153000E114F10439F0F70180819181081B190B46
:10154000C80FD91FC12CD12C0115110519F180919B
:10155000E80085FD16C08091E8008E778093E80052
:10156000E114F10449F0F70180819181C80ED91E80
:10157000D182C08285E00FC00E94E10B882321F355
:101580000AC089918093F10001501109FFEFCF1A31
:10159000DF0ADACF80E0DF91CF911F910F91FF90AA
:1015A000EF90DF90CF9008952091110330911203B6
:1015B0002617370748F06115710539F42091E800C6
:1015C0002E772093E80001C0B901FC0120E06115ED
:1015D000710561F180910A038823D9F18530D9F131
:1015E0008091E80083FD39C08091E80082FD2BC026
:1015F0008091E80080FFEBCF8091F20090E06115D0
:10160000710551F08830910538F421912093F10053
:10161000615071090196F3CF21E0089709F020E0AD
:101620008091E8008E778093E800D1CF2111D2CF4E
:101630000AC080910A03882361F0853061F08091AF
:10164000E80083FD0AC08091E80082FFF2CF80E0CD
:10165000089582E0089583E0089581E0089520913F
:101660001103309112032617370748F061157105F1
:1016700039F42091E8002E772093E80001C0B901E9
:10168000FC0120E06115710579F180910A0388233E
:1016900009F43DC0853009F43CC08091E80083FD29
:1016A0003AC08091E80082FD2CC08091E80080FF64
:1016B000E9CF8091F20090E06115710559F0883012
:1016C000910540F424912093F10031966150710905
:1016D0000196F2CF21E0089709F020E08091E80020
:1016E0008E778093E800CECF2111CFCF0AC08091B2
:1016F0000A03882361F0853061F08091E80083FD62
:101700000AC08091E80082FFF2CF80E0089582E075
:10171000089583E0089581E00895982F953068F545
:101720009093E900981739F07091EC002091ED004A
:101730005091F00003C0242F762F50E021FD02C00D
:101740009F5FECCF3091EB003E7F3093EB00309108
:10175000ED003D7F3093ED003091EB003160309330
:10176000EB007093EC002093ED005093F00020917B
:10177000EE0027FDE5CF80E008958F708093E900AB
:1017800081E0089580910B0387FF11C08091E800EC
:1017900082FD05C080910A038111F8CF11C08091AC
:1017A000E8008B770BC080910A03882349F0809171
:1017B000E80080FFF8CF8091E8008E778093E80002
:1017C00008952091E4003091E50095E64091EC0009
:1017D000842F817040FF23C08091E80080FD1DC0F0
:1017E00080910A03882399F0853099F08091EB006D
:1017F00085FD11C04091E4005091E50024173507A4
:1018000029F3915011F09A01E1CF84E0089582E02C
:10181000089583E0089581E0089580E0089540915F
:10182000E80042FFDDCF08950E94710C0E94740C05
:10183000E0EEF0E0808181608083E8EDF0E080817F
:101840008F77808319BCE3E6F0E08081816080833C
:101850001092090308950E94710C0E94740C8091EB
:10186000D8008F778093D8008091D80080688093CB
:10187000D8008091D8008F7D8093D80084E089BD06
:1018800086E089BD09B400FEFDCF10920A031092D4
:101890000603109208031092070342E060E080E024
:1018A0000E948D0B8091E1008E7F8093E1008091FA
:1018B000E20081608093E2008091E2008860809382
:1018C000E2008091E0008E7F8093E0000895E3E6DF
:1018D000F0E080818E7F808381E0809309030C9407
:1018E0002B0C1092E20008951092E10008951F92CF
:1018F0000F920FB60F9211242F933F934F935F9344
:101900006F937F938F939F93AF93BF93EF93FF93C7
:101910008091E10082FF0BC08091E20082FF07C04E
:101920008091E1008B7F8093E1000E947508809197
:10193000E10080FF19C08091E20080FF15C0809116
:10194000E2008E7F8093E2008091E20080618093CC
:10195000E2008091D80080628093D80019BC85E0B5
:1019600080930A030E9444098091E10084FF30C003
:101970008091E20084FF2CC084E089BD86E089BDAF
:1019800009B400FEFDCF8091D8008F7D8093D800F0
:101990008091E1008F7E8093E1008091E2008F7E54
:1019A0008093E2008091E20081608093E200809168
:1019B0000603882311F084E007C08091E30087FDCF
:1019C00002C081E001C083E080930A030E945909AC
:1019D0008091E10083FF29C08091E20083FF25C050
:1019E0008091E100877F8093E10082E080930A0389
:1019F000109206038091E1008E7F8093E100809138
:101A0000E2008E7F8093E2008091E200806180930B
:101A1000E20042E060E080E00E948D0B8091F000E7
:101A200088608093F0000E947408FF91EF91BF914D
:101A3000AF919F918F917F916F915F914F913F9166
:101A40002F910F900FBE0F901F9018951F920F921D
:101A50000FB60F9211242F933F934F935F936F9381
:101A60007F938F939F93AF93BF93CF93DF93EF9326
:101A7000FF93C091E900CF708091EC00D82FD17016
:101A800080FDD0E81092E9008091F000877F80937C
:101A9000F00078940E946A0D1092E9008091F000A5
:101AA00088608093F000CD2BCF70C093E900FF9148
:101AB000EF91DF91CF91BF91AF919F918F917F91E6
:101AC0006F915F914F913F912F910F900FBE0F90AB
:101AD0001F9018951F93CF93DF93CDB7DEB7AA97CA
:101AE0000FB6F894DEBF0FBECDBFEBE0F3E0809100
:101AF000F100819323E0E331F207C9F70E948A08DD
:101B00008091E80083FF24C180910B0390910C0326
:101B1000492F50E04A30510508F01AC1FA01EF5B35
:101B2000FF4F0C940E28803881F0823809F010C1E4
:101B300080910F038F708093E9008091EB0085FB0B
:101B4000882780F91092E90006C0809107039091E0
:101B50000803911182609091E800977F9093E800CC
:101B60008093F1001092F100C8C0282F2D7F09F05A
:101B7000EFC0882319F0823061F0EAC080910D0334
:101B8000813009F0E5C0933009F080E080930803CC
:101B90002BC080910D03811127C080910F038F709E
:101BA00009F4D6C08093E9002091EB0020FF1CC00F
:101BB000933021F48091EB00806214C09091EB008F
:101BC00090619093EB0021E030E0A90102C0440F46
:101BD000551F8A95E2F74093EA001092EA0080913F
:101BE000EB0088608093EB001092E9008091E800A0
:101BF000877F86C08111ACC010910D031F77809143
:101C0000E3008078812B8093E3008091E800877F58
:101C10008093E8000E94C20B8091E80080FFFCCF17
:101C20008091E30080688093E300111102C082E09C
:101C300001C083E080930A038BC08058823008F093
:101C400087C080910D0390910E038C3D53E0950762
:101C500079F583E08A838AE289834FB7F894DE01BD
:101C6000139620E03EE051E2E32FF0E0509357005E
:101C7000E49120FF03C0E295EF703F5FEF708E2F7D
:101C800090E0EA3010F0C79601C0C0968D939D9306
:101C90002F5F243149F74FBF8091E800877F809301
:101CA000E8006AE270E0CE0101960E94D40A14C0F6
:101CB000AE014F5F5F4F60910F030E941D0ABC0190
:101CC000892B09F445C09091E800977F9093E80034
:101CD00089819A810E942F0B8091E8008B778093F5
:101CE000E80036C08038A1F58091E800877F8093B6
:101CF000E800809106038093F1008091E8008E77E0
:101D00008093E8000E94C20B23C0811121C0809102
:101D10000D0390910E0399270297D4F48091E80067
:101D2000877F8093E80080910D03809306030E94D3
:101D3000C20B80910603811106C08091E30087FDEC
:101D400002C081E001C084E080930A030E9476080B
:101D50008091E80083FF0AC08091E800877F80932C
:101D6000E8008091EB0080628093EB00AA960FB6AA
:101D7000F894DEBF0FBECDBFDF91CF911F910895C4
:101D80009093600280935F020895E0915F02F0916A
:101D90006002309721F00190F081E02D099480E0FD
:101DA0000895EF92FF920F931F93CF93DF93E091EB
:101DB0005F02F09160023097B1F18C010280F381F3
:101DC000E02D09958091F50282FF2DC080FF04C0AF
:101DD00084EF92E00E94A705E80118E08EEEE82E5D
:101DE00082E0F82E8091F50280FF0BC088811F925F
:101DF0008F93FF92EF920E9440060F900F900F90EA
:101E00000F90115021961111EDCF8091F50280FFB6
:101E10000AC08CEE92E0DF91CF911F910F91FF905D
:101E2000EF900C94A705DF91CF911F910F91FF9038
:101E3000EF900895E0915F02F0916002309721F0F9
:101E40000480F581E02D09940895CF93DF932091CC
:101E50005D0230915E022817390709F190935E0206
:101E600080935D02E0915F02F09160023097B9F0DB
:101E7000EC010680F781E02D09958091F50282FF43
:101E80000EC080FF0CC0DF93CF938EED92E09F9346
:101E90008F930E9440060F900F900F900F90DF914C
:101EA000CF910895CF93DF9320915B0230915C0234
:101EB0002817390709F190935C0280935B02E09147
:101EC0005F02F09160023097B9F0EC010084F18577
:101ED000E02D09958091F50282FF0EC080FF0CC0B5
:101EE000DF93CF938EEC92E09F938F930E944006F6
:101EF0000F900F900F900F90DF91CF9108950C9459
:101F00002D100E94501C0E9452060C94741DBF920A
:101F1000CF92DF92EF92FF920F931F93CF93DF93B5
:101F200000D000D01F92CDB7DEB70E94760602E641
:101F300012E0F12C8F2D0E941307B82EF801C080FB
:101F4000C82639F4F3940F5F1F4FF8E0FF12F2CF69
:101F500030C08091F50281FD0E942E10D12CEE241C
:101F6000E3948C2D8E21F9F0D982FA8291E08B2DA9
:101F70008E2109F490E09B830E94591C8160782F88
:101F80009D838C8349815A816B818D810E9464106D
:101F900049815A816B817C818D810E94D01BF8011F
:101FA00080818E258083D394EE0CF8E0DF12D9CFA8
:101FB000C9CF8FEF89838A831B820E94591C81605D
:101FC000782F9D838C8349815A816B818D810E94FA
:101FD00064100E94CF1B0E94FB200E94C50E9091AE
:101FE0006102891741F10E94C50E809361029091B0
:101FF000F50292FF0EC090FF0CC01F928F938FEFDF
:1020000092E09F938F930E9440060F900F900F9045
:102010000F90809161020F900F900F900F900F9092
:10202000DF91CF911F910F91FF90EF90DF90CF90B4
:10203000BF900C94E11B0F900F900F900F900F909A
:10204000DF91CF911F910F91FF90EF90DF90CF9094
:10205000BF9008950C94190708950895EF92FF9288
:102060000F931F93CF93DF9388E193E00E94A7051E
:10207000C0E0D0E08CE2E82E81E0F82E0AE013E028
:102080008C2F0E9413070E94BD1BFF92EF921F929C
:102090008F93DF93CF931F930F930E944006219657
:1020A0008DB79EB708960FB6F8949EBF0FBE8DBF32
:1020B000C830D10529F7DF91CF911F910F91FF9083
:1020C000EF90089508950895CF93DF93CDB7DEB7CD
:1020D0002B970FB6F894DEBF0FBECDBF942F4F8362
:1020E000252F588769877A878B874A855B85452B9B
:1020F00031F02F3F31F481E09F3F19F403C081E0BC
:1021000001C080E080FD07C04F81588569857A85D0
:102110008B850E94D01BDE01119686E0FD01119295
:102120008A95E9F785E0FE01379601900D928A9530
:10213000E1F749815A816B817C818D819E810E946A
:1021400026182B960FB6F894DEBF0FBECDBFDF91D9
:10215000CF910895CF93882309F4A9C0C82F82385E
:10216000A1F40E94C50E81FDA2C089E30E941A1B42
:102170000E94921B2FEF81EE94E02150804090400E
:10218000E1F700C0000089E315C08338C1F40E9464
:10219000C50E80FD8CC083E50E941A1B0E94921B15
:1021A0002FEF81EE94E0215080409040E1F700C095
:1021B000000083E50E94371BCF910C94921B84385A
:1021C000A1F40E94C50E82FD72C087E40E941A1B12
:1021D0000E94921B2FEF81EE94E0215080409040AE
:1021E000E1F700C0000087E4E5CF8CEF8C0F813A67
:1021F00020F080E58C0F8E3248F48C2F0E945B25F6
:10220000811155C08C2F0E941A1BD6CF80E28C0FF3
:10221000883048F4C77081E001C0880FCA95EAF79A
:102220000E94581BC9CF8BE58C0F833078F4C53AD8
:1022300029F0C63A31F083E890E005C081E890E0EB
:1022400002C082E890E0CF910C94250F88E58C0FB6
:10225000853168F5C83A89F0C93A91F0CA3A99F0DF
:10226000CB3AA1F0CC3AA9F0CD3AB1F0CE3AB9F0E0
:10227000CF3AC1F080E090E017C082EE90E014C049
:1022800089EE90E011C08AEE90E00EC085EB90E000
:102290000BC086EB90E008C083EB90E005C084EBB8
:1022A00090E002C087EB90E0CF910C94520FCF9159
:1022B0000895882309F46AC08238A1F40E94C50EEB
:1022C00081FF64C089E30E941A1B0E94921B2FEFBA
:1022D00081EE94E0215080409040E1F700C0000082
:1022E00089E315C08338B9F40E94C50E80FF4EC043
:1022F00083E50E941A1B0E94921B2FEF81EE94E04F
:10230000215080409040E1F700C0000083E50E942A
:10231000371B0C94921B8438A1F40E94C50E82FFD7
:1023200035C087E40E941A1B0E94921B2FEF81EE9A
:1023300094E0215080409040E1F700C0000087E425
:10234000E6CF9CEF980F913A10F390E5980F9E32EC
:10235000F0F290E2980F983050F4877091E001C04D
:10236000990F8A95EAF7892F0E945E1BD2CF9BE5D1
:10237000980F933020F480E090E00C94250F885A59
:10238000853120F480E090E00C94520F089588236A
:1023900021F00E94581B0C94921B0895882321F071
:1023A0000E945E1B0C94921B08950E94781B0E9451
:1023B000471B0E94921B0E94A1210E946E2080E078
:1023C00090E00E94250F80E090E00C94520F0E9454
:1023D000681B0C94D511CF92DF92EF92FF920F936E
:1023E0001F93CF93DF9300D000D01F92CDB7DEB7FD
:1023F0006C010E94E41B811101C385E0F601DE013E
:10240000119601900D928A95E1F7F6014081518174
:10241000238134812115310531F05F3F31F481E0B2
:102420004F3F19F403C081E001C080E080FDE6C2A7
:10243000F601F280E580E2948FE0E82249835A8336
:10244000FB82722F3D832C836F2D8D810E948F1A0A
:102450008C010E948E1A0E947E19E12FE295EF7086
:102460008E2F90E0FC01E55BFF4F0C940E28812F2E
:10247000807F1F70882311F01295107FFF2049F094
:10248000112309F452C2812F0E946B1B0E94921BE0
:102490004CC2802F0E945911112309F4AFC2812F21
:1024A0000E94711B0F900F900F900F900F90DF9173
:1024B000CF911F910F91FF90EF90DF90CF900C94F0
:1024C000921B812F807F1F70803211F01295107F38
:1024D000002319F0013009F12BC0FF20A9F0EE20F4
:1024E00059F1F1E0812FEF1228C00F900F900F905B
:1024F0000F900F90DF91CF911F910F91FF90EF9070
:10250000DF90CF900C947B1BEE2021F021E0E216AF
:1025100009F474C20E947E1B2DC0FF20E9F085E003
:102520008E1508F46BC20E94551B812329F022C02E
:10253000FF20F1F0E11015C0812F0F900F900F9048
:102540000F900F90DF91CF911F910F91FF90EF901F
:10255000DF90CF900C94C71194E09E1508F44EC202
:1025600009C0F601858180FFE0C18F708583E4CFCB
:10257000E110EEC1812F61C1812F86958695837010
:1025800019F08130B9F03AC2FF2019F0C8019370F8
:1025900002C080E090E00F900F900F900F900F908E
:1025A000DF91CF911F910F91FF90EF90DF90CF902F
:1025B0000C94250FFF2019F0C801937002C080E031
:1025C00090E00F900F900F900F900F90DF91CF91B0
:1025D0001F910F91FF90EF90DF90CF900C94520FCE
:1025E000802FFF2019F00E94811F02C00E94E91F66
:1025F0000F900F900F900F900F90DF91CF911F9140
:102600000F91FF90EF90DF90CF900C946E20812F70
:10261000837009F070C0F110F1C1202F229526952A
:102620002770220F220F602F6F70862F90E0A0E09E
:10263000B0E06C017D01022E04C0CC0CDD1CEE1C50
:10264000FF1C0A94D2F704FF12C08FE090E0A0E0D4
:10265000B0E004C0880F991FAA1FBB1F2A95D2F7AC
:10266000BC01CD01609570958095909503C060E0A8
:1026700070E0CB011695169513701230B1F040F54D
:102680006C297D298E299F29113031F10F900F90EF
:102690000F900F900F90DF91CF911F910F91FF90AE
:1026A000EF90DF90CF900C94A3196C297D298E298F
:1026B0009F290F900F900F900F900F90DF91CF9167
:1026C0001F910F91FF90EF90DF90CF900C94BD1968
:1026D0000E94A319C701B6010F900F900F900F90A1
:1026E0000F90DF91CF911F910F91FF90EF90DF90AE
:1026F000CF900C948919FF2019F0812F817001C0AF
:102700008695882309F47AC1202F22952695277073
:10271000220F220F602F6F70862F90E0A0E0B0E0B4
:102720006C017D01022E04C0CC0CDD1CEE1CFF1CD4
:102730000A94D2F704FF12C08FE090E0A0E0B0E06E
:1027400004C0880F991FAA1FBB1F2A95D2F7BC018E
:10275000CD01609570958095909503C060E070E024
:10276000CB011695169513701230B1F040F56C2917
:102770007D298E299F29113031F10F900F900F90F4
:102780000F900F90DF91CF911F910F91FF90EF90DD
:10279000DF90CF900C946A1A6C297D298E299F298D
:1027A0000F900F900F900F900F90DF91CF911F918E
:1027B0000F91FF90EF90DF90CF900C947C1A0E94C5
:1027C0006A1AC701B6010F900F900F900F900F90EB
:1027D000DF91CF911F910F91FF90EF90DF90CF90FD
:1027E0000C94581A003FC1F128F480E4800F803225
:1027F00050F096C0023F09F45EC008F449C0033FA0
:1028000009F46CC08DC0F02FF071EF2E812F8F7105
:10281000FF2051F00E94F119802FEE2019F08295CF
:10282000807F8BCE8F7089CE0E94121A802FEE206F
:1028300019F08295807F01C08F700F900F900F90DC
:102840000F900F90DF91CF911F910F91FF90EF901C
:10285000DF90CF900C94CE11FF20A9F024E02E152C
:1028600008F4CCC0812F8F710F900F900F900F90B4
:102870000F90DF91CF911F910F91FF90EF90DF901C
:10288000CF900C94371A85E08E1508F4B7C0EACFC4
:10289000FF2099F0812F8F710F900F900F900F9064
:1028A0000F90DF91CF911F910F91FF90EF90DF90EC
:1028B000CF900C94F119FF2069F3812F8F710F9045
:1028C0000F900F900F900F90DF91CF911F910F916C
:1028D000FF90EF90DF90CF900C94121AFF2089F0B8
:1028E000812F8F710F900F900F900F900F90DF91AD
:1028F000CF911F910F91FF90EF90DF90CF900C94AC
:10290000DC190F900F900F900F900F90DF91CF91E7
:102910001F910F91FF90EF90DF90CF900C94D719FB
:10292000FF2099F0EE2009F4B5CF802F0F900F9083
:102930000F900F900F90DF91CF911F910F91FF900B
:10294000EF90DF90CF900C94AA10EE2009F4B5CF51
:10295000802F0F900F900F900F900F90DF91CF91DD
:102960001F910F91FF90EF90DF90CF900C94591131
:10297000412F4F70602FC6010E941F1D0F900F90B6
:102980000F900F900F90DF91CF911F910F91FF90BB
:10299000EF90DF90CF900C94D91801112FC0FF2039
:1029A00069F10E94E7119FEFE0E7F2E09150E0400B
:1029B000F040E1F700C000000F900F900F900F90D3
:1029C0000F90DF91CF911F910F91FF90EF90DF90CB
:1029D000CF900C94C01C412F4F70602FC6010F90F8
:1029E0000F900F900F900F90DF91CF911F910F914B
:1029F000FF90EF90DF90CF900C94221D0F900F90DE
:102A00000F900F900F90DF91CF911F910F91FF903A
:102A1000EF90DF90CF9008951F93CF93DF9300D076
:102A200000D01F92CDB7DEB7942F4983252F5A834C
:102A30006B837C838D834C815D81452B31F02F3FEF
:102A400031F481E09F3F19F403C081E001C080E0D0
:102A5000182F117080FD31C049815A816B817C81B2
:102A60008D810E948F1A292F22952F702C3030F4DF
:102A70002A30A0F42250223030F022C02C30C9F08D
:102A80002F30B9F01DC0853A28F48430C0F482306C
:102A900028F415C090E2980F983088F0883E30F402
:102AA000803E68F48450813A58F409C0803F41F474
:102AB00006C093FB112710F903C010E001C011E01C
:102AC000812F0F900F900F900F900F90DF91CF916B
:102AD0001F910895CF93DF9300D000D01F92CDB700
:102AE000DEB70F900F900F900F900F90DF91CF9166
:102AF0000895CF93DF9300D000D000D0CDB7DEB7DC
:102B000026960FB6F894DEBF0FBECDBFDF91CF91F2
:102B10000895CF93DF93C0916A0280916B02C8172A
:102B2000A1F0D0E0CE0166E070E00E94E927FC0150
:102B3000E459FD4F40815181628173818481958187
:102B40000E9479152196C770E8CFDF91CF91089543
:102B500040919C0250919D0260919E0270919F0253
:102B60008091A0029091A1020C9479151F93CF93AC
:102B7000DF938091A10282958F7009F066C08091E9
:102B80009E02882309F461C020916A0210916B02B1
:102B9000C0919C02D0919D02E0919F02F091A00211
:102BA00081E0CF3F09F080E0482F211709F44DC0A4
:102BB000309721F0DF3F21F080E003C081E001C0C9
:102BC000842F30E080FD3DC0C90166E070E00E94C6
:102BD000E927DC01A459BD4F11968C9111978D13F3
:102BE00030C08C918C132DC012968C91129781114C
:102BF00028C013968D919C9114978E179F0708F407
:102C000001978E1B9F0B883C9105D8F48091A102FF
:102C10008F7080618093A102C90166E070E00E941C
:102C2000E927FC01EF58FD4F90819F7090619083E0
:102C30008CE992E00E94EB11DF91CF911F910C94EF
:102C400089152F5F3F4F2770B0CFDF91CF911F9134
:102C50000895AF92BF92CF92DF92EF92FF920F93BF
:102C60001F93CF93DF93CDB7DEB761970FB6F8947C
:102C7000DEBF0FBECDBF7C0185E0F701DE011D96F2
:102C800001900D928A95E1F7D7014C9111962C9104
:102C900011971296DC90129713960D911C91149730
:102CA00050919C0260919D0280919F029091A002A0
:102CB000009731F06F3F31F431E05F3F19F403C00A
:102CC00031E001C030E0B32FB170BB2E30FD76C1D2
:102CD000A0909E02AA2009F4D2C03091A102081748
:102CE000190728F0F801E81BF90BCF0104C0809503
:102CF0009095800F911FCC24C394883C910588F057
:102D0000C12C307F09F0A6C0702F198B088B522F71
:102D10006D2D89890E946A158CE992E00E94EB1161
:102D2000C3C0832F807F09F059C0261315C04513F7
:102D300013C0CD2CD11010C03F7030613093A10270
:102D40000E94A8158CE992E00E94EB118091A102EB
:102D5000D70115968C9368C10115110531F02F3FED
:102D600031F481E04F3F19F403C081E001C080E0FD
:102D700080FD03C081E08D2502C080E090E0B82F87
:102D8000B170CB2E80FF1FC0E0916A0230916B02C0
:102D9000E31709F425C1F0E0CF0166E070E00E947E
:102DA000E927DC01A459BD4F11968C911197281386
:102DB00007C08C91481304C012968C91D81203C09E
:102DC0003196E770E5CFCD2CDD2009F42DC180913F
:102DD000A10281608093A102C12C26C1261308C0E4
:102DE000451306C0D11004C08091A102D701B9C01B
:102DF0004D872E87DF86702F198B088B522F6D2DF4
:102E000089890E940C158823A1F1DD2091F1209180
:102E1000A102822F82958F7090E0029774F08091CA
:102E20009C0290919D0298878F8319861B870A8741
:102E30002C87CE0107960E94EB1186E0F701ACE9E2
:102E4000B2E001900D928A95E1F70E94B6150E94BA
:102E5000A81512C0261791F14D872E87DF86702F97
:102E6000198B088B522F6D2D89890E940C158111A9
:102E700039C0C7010E94EB11CC24C394D5C00817F8
:102E8000190708F447C0F801E81BF90BCF01883C8B
:102E9000910508F444C0C12C702F198B088B522F58
:102EA0006D2D89890E946A15ECE9F2E086E0DF0168
:102EB0001D928A95E9F70E94A815B6C04513CCCF9C
:102EC000D110CACF8091A102F7018583C7010E946A
:102ED000EB1186E0ECE9F2E0DF011D928A95E9F75B
:102EE000CA2CA2C0DD2029F22091A102822F829556
:102EF0008F7090E002970CF4A0CF80919C0290918B
:102F00009D029A8389831B821D830C832E83CE01AD
:102F1000019691CF80959095800F911FB8CFCD2CC1
:102F2000DD2009F4A6CF261333C0451331C020910C
:102F3000A10220FD24C0822F82958F70482F50E07F
:102F400041155105E1F0D70115962C9315974F3097
:102F5000510549F08F5F982F9295907F822F8F7047
:102F6000892B15968C93C7010E94EB1186E0F7011F
:102F7000ACE9B2E001900D928A95E1F79CCF86E032
:102F8000F701ACE9B2E001900D928A95E1F74CC0EF
:102F90004D872E87DF86702F198B088B522F6D2D52
:102FA00089890E940C15811148CF8091A10281600E
:102FB0008093A102C7010E94EB1136C0DD2009F405
:102FC00058CF4D872E87DF86702F198B088B522F95
:102FD0006D2D89890E940C15882309F44ACF2DCFC5
:102FE000702F198B088B522F6D2D89890E948F1A93
:102FF000292F22952F70223028F49F7039F08111EB
:1030000005C00BC0243028F49F7049F4805E8830DE
:1030100020F0C7010E94EB11BC2CCB2C05C0F7019E
:103020009581907F99F7F9CF8C2D61960FB6F89422
:10303000DEBF0FBECDBFDF91CF911F910F91FF90EB
:10304000EF90DF90CF90BF90AF900895CF93DF9334
:10305000CDB7DEB72C970FB6F894DEBF0FBECDBF4D
:103060004F83588769877A878B879C87CE0107961D
:103070000E9429168823D1F09F8188852A853B8567
:10308000232B31F08F3F31F481E09F3F19F403C0CF
:1030900081E001C080E080FD6FC04F815885698567
:1030A0007A858B859C850E94791566C086E0FE0135
:1030B0003796DE01119601900D928A95E1F7FF8116
:1030C000E8856A857B856115710531F0EF3F31F444
:1030D00081E0FF3F19F403C081E001C080E080FD82
:1030E0004BC080916B0290E09C012F5F3F4F277097
:1030F000332740916A0250E02417350709F443C092
:10310000F983EA837D836C8366E070E00E94E9279F
:10311000DC01A459BD4F96E0FE01319601900D925D
:103120009A95E1F720936B020E94891525C090E0E3
:1031300066E070E00E94E92784599D4F0E9429169D
:10314000882371F180916A0290E066E070E00E944D
:10315000E927FC01E459FD4F40815181628173816F
:10316000848195810E94791580916A0290E0019690
:103170008770992780936A0280916A0290916B020E
:103180008913D5CF0DC00E94E71110926B021092E7
:103190006A02ECE9F2E086E0DF011D928A95E9F728
:1031A0002C960FB6F894DEBF0FBECDBFDF91CF9146
:1031B0000895DF92EF92FF920F931F93CF93DF93C7
:1031C000FC01892B09F488C0E12CF12CDD24D39477
:1031D000EF0121968491853709F460C058F4843753
:1031E00008F04EC0843008F068C08130D1F08230E1
:1031F00071F172C0883709F45BC050F4863709F466
:1032000053C0873709F068C08E2D0E94651B52C0DD
:103210009CE7980F903708F05FC08F770E94591194
:103220004EC08F010E5F1F4FFE01849190E2980FF8
:10323000983050F48770FD2D01C0FF0F8A95EAF792
:103240008F2F0E946B1B15C00E94AA1014C08F0103
:103250000E5F1F4FFE01849190E2980F983068F442
:103260008770FD2D01C0FF0F8A95EAF78F2F0E940E
:10327000711B0E94921BE80122C00E945911FBCFD2
:10328000CF010296FE01C491CC2361F0EFE9FFE08B
:103290003197F1F700C00000C150F6CFCF01029680
:1032A000FE01F490EC010BC00E94551BE82E07C0F4
:1032B0000E94681B0E94921B02C00E94AA108F2DC0
:1032C000882341F0EFE9FFE03197F1F700C00000FB
:1032D0008150F6CFFE017CCFDF91CF911F910F91EE
:1032E000FF90EF90DF9008956093E2027093E30205
:1032F0008093E4029093E5020C94E01B08956093A0
:10330000E6027093E7028093E8029093E9020C943E
:10331000DF1B0F931F930091E6021091E7022091AB
:10332000E8023091E902602B712B822B932B609382
:10333000E6027093E7028093E8029093E9021F91FE
:103340000F910C94DF1B0F931F930091E6021091D5
:10335000E7022091E8023091E90260237123822381
:1033600093236093E6027093E7028093E8029093C0
:10337000E9021F910F910C94DF1B0F931F93009193
:10338000E6021091E7022091E8023091E9026027FD
:103390007127822793276093E6027093E702809358
:1033A000E8029093E9021F910F910C94DF1B60E0FB
:1033B00070E0CB010C9474190F931F9341E050E01F
:1033C00060E070E08A019B0104C0000F111F221F02
:1033D000331F8A95D2F7C901B8011F910F910C9440
:1033E00074190F931F9341E050E060E070E004C057
:1033F000440F551F661F771F8A95D2F78091E2020E
:103400009091E302A091E402B091E5028A019B0150
:10341000082B192B2A2B3B2BC901B8011F910F91A7
:103420000C9474190F931F9341E050E060E070E03A
:1034300004C0440F551F661F771F8A95D2F7409529
:103440005095609570958091E2029091E302A09171
:10345000E402B091E5028A019B01082319232A2383
:103460003B23C901B8011F910F910C9474190F935C
:103470001F9341E050E060E070E004C0440F551F2E
:10348000661F771F8A95D2F78091E2029091E3023E
:10349000A091E402B091E5028A019B010827192757
:1034A0002A273B27C901B8011F910F910C94741969
:1034B0000F931F930091E2021091E3022091E40226
:1034C0003091E502602B712B822B932B1F910F9172
:1034D0000C9474190F931F930091E2021091E30270
:1034E0002091E4023091E50260237123822393232B
:1034F0001F910F910C9474190F931F930091E20286
:103500001091E3022091E4023091E50260277127D7
:10351000822793271F910F910C94741908958F920D
:103520009F92AF92BF92DF92EF92FF920F931F9301
:10353000CF93DF9300D000D01F92CDB7DEB76B835F
:103540007C838D838A018C819D81892B31F01F3F83
:1035500031F481E04F3F19F403C081E001C080E005
:1035600080FF03C080E090E054C08B81882309F481
:103570003DC08090E2029090E302A090E402B090FF
:10358000E5028091E6029091E702A091E802B091F5
:10359000E902882A992AAA2ABB2A2FE1E22EF12CD5
:1035A000D501C4010E2C04C0B695A79597958795B3
:1035B0000A94D2F780FD06C081E0E81AF10880F78E
:1035C000D12C07C0DE2CB8018E2D0E94F01C019773
:1035D00099F3E12FF0E093E0EE0FFF1F9A95E1F7EA
:1035E000EE55FD4FE00FF11DD0820CC0E12FF0E051
:1035F00083E0EE0FFF1F8A95E1F7EE55FD4FE00FD8
:10360000F11DD08009831A8369817A818D2D0E94F2
:10361000F01C0F900F900F900F900F90DF91CF91B3
:103620001F910F91FF90EF90DF90BF90AF909F9010
:103630008F9008952091100130911101F901329677
:103640009FEF40E05191851789F09F3F19F4511188
:1036500001C0942F4F5F4630A9F79F3F39F0F90121
:10366000E90FF11D97FDFA95828308950895E09181
:103670001001F09111019F012A5F3F4F9281891340
:1036800001C012823196E217F307C1F7089581E075
:1036900090E0E0911001F0911101E80FF91F108204
:1036A000019688309105A9F708958091F402089554
:1036B0009091F402892B8093F40208958095909163
:1036C000F40289238093F40208958093F40208950C
:1036D0001092F40208959091F302892B8093F302E3
:1036E000089580959091F30289238093F3020895C1
:1036F0001092F30208958093EA0208951092EA026C
:1037000008958091100190911101FC0131969C0166
:10371000285F3F4F80E0919191118F5FE217F3078F
:10372000D1F70895E0911001F09111018091F40218
:103730008083E0911001F091110190818091F3025A
:10374000892B80838091EA02882361F0E091100147
:10375000F09111019081892B80830E94811B81113E
:103760001092EA0280911001909111010C94D10EF7
:10377000909339018093380108958295982F93731F
:10378000292F220F220F982F9C7C96959695922B8D
:10379000892F8575880F9A7A9695892B08950895B3
:1037A000CF93DF9300D000D01F92CDB7DEB70F903C
:1037B0000F900F900F900F90DF91CF910895089583
:1037C00008950C942A10089580E0089580910A03CA
:1037D000843021F11092F60220E488E190E00FB6E7
:1037E000F894A895809360000FBE2093600083B783
:1037F000817F846083BF83B7816083BF789488951D
:1038000083B78E7F83BF0FB6F894A8958091600030
:10381000886180936000109260000FBE0895CF937E
:103820000E9462100E9476060E946310C0E08C2FF6
:103830000E941307811104C0CF5FC830C1F701C0D7
:1038400081E0CF9108950E942C100C94E7111F92F3
:103850000F920FB60F9211248F939F93AF93BF9344
:103860008091F602811113C08091F7029091F802C5
:10387000A091F902B091FA024196A11DB11D809369
:10388000F7029093F802A093F902B093FA02BF9165
:10389000AF919F918F910F900FBE0F901F90189531
:1038A00082E084BD93E095BD9AEF97BD80936E0052
:1038B00008952FB7F8948091F7029091F802A091A3
:1038C000F902B091FA022FBF08952FB7F8946091D2
:1038D000F7027091F8028091F9029091FA022FBFDD
:1038E0000895CF92DF92EF92FF920F931F932FB71D
:1038F000F8944091F7025091F8026091F9027091AA
:10390000FA022FBF6A017B01EE24FF248C0120E024
:1039100030E0C016D106E206F30610F4415051091A
:103920009A01281B390BC9011F910F91FF90EF904D
:10393000DF90CF9008951F920F920FB60F9211242F
:103940008F939F93AF93BF938091F7029091F8026A
:10395000A091F902B091FA020196A11DB11D8093C8
:10396000F7029093F802A093F902B093FA02BF9184
:10397000AF919F918F910F900FBE0F901F90189550
:103980000E94140CF89487E797E7909301088093BE
:10399000000887E090EBDC018093140390931503FB
:1039A000A0931603B09317039CE088E10FB6F89438
:1039B000A895809360000FBE90936000FFCFE92F21
:1039C000F0E093E0EE0FFF1F9A95E1F7E80FF11D8D
:1039D000EA54FF4F9491892F8F7092959F700895AC
:1039E000CF93C82FCB010E94DF1C492F90E0242FDA
:1039F00030E054E0220F331F5A95E1F7282B392B82
:103A00002038310519F480E090E017C0EC2FF0E089
:103A100023E0EE0FFF1F2A95E1F74770E40FF11D39
:103A200034E0EE0FFF1F3A95E1F7E80FF91FEE0FB4
:103A3000FF1FE050F84985919491CF91089580E05F
:103A400090E008950895CF92DF92EF92FF920F9346
:103A50001F93CF936C01C0E08C2F0E94130700E0EE
:103A600010E0E82EF12CC701002E02C09595879535
:103A70000A94E2F780FF15C0602F7C2F80E00E943F
:103A8000F01C8C159D0559F0292F207E392F307C94
:103A900011F0203A31F490E0C816D90611F481E013
:103AA00009C00F5F1F4F08301105E9F6CF5FC8301E
:103AB00099F680E0CF911F910F91FF90EF90DF90EA
:103AC000CF900895CF93DF93EC018CE290E00E94B9
:103AD000231D882329F0CE01DF91CF910C94231D63
:103AE00080E0DF91CF910895CF930E94D51E811180
:103AF00002C00E94BB1E8DE293E00E94A705C5E6AE
:103B0000C15049F00E9476068FE39CE90197F1F7D6
:103B100000C00000F5CF86E293E00E94A70589E28D
:103B200090E00E94621D811124C18AE290E00E940F
:103B3000621D81110E94BB1E85E090E00E94621D03
:103B400081110E94C01C0E94E31B0E94E01E809312
:103B5000F50287E090E00E94621D8823C1F18BE1AD
:103B600090E00E94621D882351F08091F50281FB54
:103B7000222720F991E0922790FB81F90FC08EE077
:103B800090E00E94621D882361F08091F50282FB23
:103B9000222720F991E0922790FB82F98093F50289
:103BA00016C080E190E00E94621D9091F50288238A
:103BB00041F093FB222720F981E0822780FB93F9D3
:103BC00004C0892F809580FB90F99093F502809135
:103BD000F5020E94E41E0E94F21E8093130380EE01
:103BE00090E00E94621D882341F080911303982F7A
:103BF000909590FB80F98093130389E390E00E94F5
:103C0000621D882359F08091130381FB222720F93C
:103C100091E0922790FB81F98093130382EE90E06C
:103C20000E94621D882359F08091130382FB222792
:103C300020F991E0922790FB82F98093130386EE9E
:103C400090E00E94621D882359F08091130383FB4A
:103C5000222720F991E0922790FB83F980931303A8
:103C600083EE90E00E94621D882359F08091130337
:103C700084FB222720F991E0922790FB84F980931E
:103C8000130385E390E00E94621D882359F0809120
:103C9000130385FB222720F991E0922790FB85F9F9
:103CA0008093130381E390E00E94621D882359F002
:103CB0008091130386FB222720F991E0922790FB45
:103CC00086F98093130381E190E00E94621D8823AE
:103CD00059F08091130387FB222720F991E0922766
:103CE00090FB87F980931303809113030E94F61EC3
:103CF00087E290E00E94621DC82F8EE190E00E9452
:103D0000621D8111C2608FE190E00E94621D8111ED
:103D1000C46080E290E00E94621D8111C86081E26F
:103D200090E00E94621D8111C06182E290E00E94D9
:103D3000621D8111C06283E290E00E94621D8111C8
:103D4000C06484E290E00E94621D882311F0C06884
:103D500002C0CC2329F08C2F0E94ED1E6C2F03C0D3
:103D60000E94E91E682F70E080E090E0CF910C94F3
:103D70007F19CF9108956DEE7EEF80E090E00E9474
:103D8000442860E082E090E00E94362860E083E012
:103D900090E00E94362860E084E090E00E9436289F
:103DA00060E085E090E00C94362880E090E00E948E
:103DB000302821E08D3E9E4F09F020E0822F0895AB
:103DC00082E090E00C942828682F82E090E00C9428
:103DD000362883E090E00C942828682F83E090E058
:103DE0000C94362884E090E00C942828682F84E016
:103DF00090E00C9436288091FD0280FF0CC08091E9
:103E0000150190E065E070E00E94E927959587959F
:103E1000959587952EC081FF0AC08091150190E08D
:103E200065E070E00E94E9279595879522C082FFA2
:103E300008C08091150190E065E070E00E94E927DC
:103E400018C02091FE022223D9F0309114012317CB
:103E500080F78091150190E065E070E00E94E9270D
:103E6000622F70E00E94E927632F70E00E94FA271A
:103E7000CB018038910538F4009739F481E005C012
:103E800085E090E008958FE7089508958091FD0200
:103E900080FF08C06091130170E075956795759576
:103EA000679523C081FF06C06091130170E075958E
:103EB00067951BC082FF04C06091130170E012C0BF
:103EC0006091FE026623A9F0209112016217A0F70B
:103ED0008091130170E090E00E94E927622F70E06A
:103EE0000E94FA276038710540F46115710519F4D4
:103EF00006C061E070E0862F08958FE7089581E0A5
:103F00000895803F21F40E94FB1E819504C0813FEB
:103F100029F40E94FB1E809301030895823F21F43F
:103F20000E94FB1E819504C0833F29F40E94FB1E62
:103F3000809300030895893F19F40E94461F05C02D
:103F40008A3F31F40E94461F8195809302030895B1
:103F50008B3F21F40E94461F819504C08C3F29F4B9
:103F60000E94461F809303030895843F21F48091AB
:103F7000FF02816017C0853F21F48091FF028260BB
:103F800011C0863F21F48091FF0284600BC0873FFF
:103F900021F48091FF02886005C0883F31F4809150
:103FA000FF0280618093FF0208958D3F21F480918C
:103FB000FD0281600BC08E3F21F48091FD02826082
:103FC00005C08F3F29F48091FD0284608093FD023B
:103FD0000895803F39F48091010387FF6CC01092EF
:103FE000010369C0813F29F4809101031816BCF3D5
:103FF00062C090910003823F29F497FF5CC0109249
:10400000000359C0833F19F41916CCF354C0893FFB
:1040100041F48091020318160CF04DC01092020377
:104020004AC08A3F29F48091020387FF44C0F6CF3B
:104030008B3F39F48091030387FF3DC01092030347
:104040003AC08C3F29F4809103031816BCF333C0A7
:10405000843F21F48091FF028E7F17C0853F21F4B9
:104060008091FF028D7F11C0863F21F48091FF0275
:104070008B7F0BC0873F21F48091FF02877F05C0B3
:10408000883F31F48091FF028F7E8093FF0213C03E
:104090008D3F21F48091FD028E7F0BC08E3F21F475
:1040A0008091FD028D7F05C08F3F29F48091FD0234
:1040B0008B7F8093FD028091000381110EC080915F
:1040C000010381110AC080910203811106C0809111
:1040D0000303811102C01092FE0208958091F5023F
:1040E00083FF7EC089E693E00E94A7058091FF02CE
:1040F0001F928F9384E693E09F938F930E944006D4
:1041000082E693E00E94A70580910003282F082EE5
:10411000000C330B3F938F938FE593E09F938F9326
:104120000E9440068DE593E00E94A705809101035F
:10413000282F082E000C330B3F938F938AE593E0D2
:104140009F938F930E94400688E593E00E94A70505
:1041500080910203282F082E000C330B3F938F937E
:1041600085E593E09F938F930E94400683E593E05B
:104170000E94A70580910303282F082E000C330B03
:104180003F938F9380E593E09F938F930E94400627
:104190008DE493E00E94A7058091FE021F928F9309
:1041A0008AE493E09F938F930E94400688E493E013
:1041B0000E94A7058091FD021F928F9385E493E0F2
:1041C0009F938F930E94400682E493E00E94A7058C
:1041D0008DB79EB74C960FB6F8949EBF0FBE8DBF9D
:1041E0008FEF92E00E941A0F0E94591C9093FC02DC
:1041F0008093FB0208951F93CF93DF938091FB027E
:104200009091FC020E94711CFC012091FE0222236D
:1042100021F08091160190E007C08091170190E095
:104220006AE070E00E94E927E817F90708F485C002
:1042300080910003C0910103D09102031091030308
:10424000811107C0C11175C0D11173C0111171C0A6
:1042500074C02F3F19F02F5F2093FE02181624F42C
:104260000E94FB1E809300038091000387FF05C01E
:104270000E94FB1E8195809300031C1624F40E946B
:10428000FB1E809301038091010387FF05C00E94FC
:10429000FB1E81958093010360910003662331F139
:1042A000C0910103CC2311F1062E000C770B880B73
:1042B000990B0E94E82623E333E343E35FE30E9484
:1042C0004C270E94B026609300036C2FCC0F770B15
:1042D000880B990B0E94E82623E333E343E35FE373
:1042E0000E944C270E94B026609301031D1624F4FF
:1042F0000E94461F809302038091020387FF05C03E
:104300000E94461F819580930203111624F40E9497
:10431000461F809303038091030387FF05C00E941B
:10432000461F819580930303DF91CF911F910C94D9
:104330006E202F3F09F08FCFA0CFDF91CF911F913B
:104340000895EFEFF2E085E0DF011D928A95E9F72D
:104350001092FE021092FD0208958CE895E00E94F2
:10436000A7051F9281E08F931F9285E08F938EE3C4
:1043700095E09F938F930E9440060F900F900F90AF
:104380000F900F900F9008958330E9F128F4813059
:1043900061F0823009F10895853009F462C008F4B3
:1043A00049C0863009F474C0089580911701262F02
:1043B00030E0280F311D2F3F310524F4680F609342
:1043C000170103C08FEF80931701809117011F928F
:1043D0008F9387E794E072C080911601262F30E01A
:1043E000280F311D2F3F310524F4680F609316010B
:1043F00003C08FEF80931601809116011F928F9357
:1044000085E694E05BC080911501262F30E0280FEF
:10441000311D2F3F310524F4680F6093150103C04F
:104420008FEF80931501809115011F928F9382E584
:1044300094E044C080911401262F30E0280F311DF4
:104440002F3F310524F4680F6093140103C08FEFF0
:1044500080931401809114011F928F938DE394E057
:104460002DC080911301262F30E0280F311D2F3FE2
:10447000310524F4680F6093130103C08FEF80931C
:104480001301809113011F928F9384E294E016C070
:1044900080911201262F30E0280F311D2F3F31056A
:1044A00024F4680F6093120103C08FEF8093120110
:1044B000809112011F928F9389E094E09F938F93D4
:1044C0000E9440060F900F900F900F900895833038
:1044D00081F128F4813059F08230D1F0089585308F
:1044E00009F449C0B8F1863009F456C008958091A6
:1044F0001701681720F4861B8093170102C01092E1
:104500001701809117011F928F938AEF93E054C097
:1045100080911601681720F4861B8093160102C053
:1045200010921601809116011F928F9388EE93E0EE
:1045300043C080911501681720F4861B80931501F4
:1045400002C010921501809115011F928F9385ED85
:1045500093E032C080911401681720F4861B809389
:10456000140102C010921401809114011F928F93C4
:1045700080EC93E021C080911301681720F4861B22
:104580008093130102C010921301809113011F92B6
:104590008F9387EA93E010C080911201681720F48E
:1045A000861B8093120102C01092120180911201A9
:1045B0001F928F938CE893E09F938F930E94400605
:1045C0000F900F900F900F900895CF93C82F1F92C8
:1045D0008F9381E996E09F938F930E94400681E03C
:1045E00090E0A0E0B0E0BC01CD0104C0660F771FF1
:1045F000881F991FCA95D2F70E947F190F900F90BC
:104600000F900F90CF910C94E711CF938732B0F5B4
:104610008E3108F040C28E3009F4BEC100F58730FB
:1046200009F48DC1A8F4863009F039C28091F502F1
:10463000817F8E7F8093F50286E996E00E94A70530
:1046400082E99AE00E94A70581E08093050375C185
:10465000883009F43FC08B3009F46BC120C2863129
:1046600009F4E0C120F4803109F4AAC118C28931EB
:1046700009F4C1C18B3109F47BC111C2883309F43B
:1046800058C150F4893209F404C2853309F401C2D7
:10469000873209F004C2FDC1833409F4FAC128F459
:1046A0008A3308F4FCC18953F7C1883409F0F7C193
:1046B0000E94E71181E89AE00E94A7059FEF23ED91
:1046C00080E3915020408040E1F700C000000E944C
:1046D000C01C33C186E99AE00E94A7058DE898E0E6
:1046E0000E94A7050E94E91E1F928F938AE898E016
:1046F0009F938F930E94400688E898E00E94A70548
:104700000E94E01EC82F85E798E00E94A7051F922F
:10471000CF9380E798E09F938F930E9440068EE6A8
:1047200098E00E94A70584E698E00E94A7058C2FD8
:1047300081701F928F9381E698E09F938F930E94E0
:1047400040068FE598E00E94A70585E598E00E9465
:10475000A705C1FB882780F91F928F9382E598E017
:104760009F938F930E94400680E598E00E94A705E2
:1047700084E498E00E94A705C2FB882780F91F9275
:104780008F9381E498E09F938F930E9440068FE37C
:1047900098E00E94A70586E398E00E94A705C3FB66
:1047A000CC27C0F91F92CF9383E398E09F938F9318
:1047B0000E94400681E398E00E94A7050E94F21E35
:1047C000C82F8DE198E00E94A7051F92CF9388E142
:1047D00098E09F938F930E94400686E198E00E94A4
:1047E000A7058DEF97E00E94A7058C2F81701F927F
:1047F0008F938AEF97E09F938F930E9440068DB727
:104800009EB780960FB6F8949EBF0FBE8DBF88EFFF
:1048100097E00E94A70581EE97E00E94A705C1FBE3
:10482000882780F91F928F938EED97E09F938F9347
:104830000E9440068CED97E00E94A7058AEC97E065
:104840000E94A705C2FB882780F91F928F9387ECEF
:1048500097E09F938F930E94400685EC97E00E941B
:10486000A70583EB97E00E94A705C3FB882780F983
:104870001F928F9380EB97E09F938F930E94400647
:104880008EEA97E00E94A70584EA97E00E94A705B8
:10489000C4FB882780F91F928F9381EA97E09F934A
:1048A0008F930E9440068FE997E00E94A7058DE84C
:1048B00097E00E94A705C5FB882780F91F928F9378
:1048C0008AE897E09F938F930E94400688E897E0DC
:1048D0000E94A7058CE697E00E94A705C6FB8827E3
:1048E00080F91F928F9389E697E09F938F930E94A0
:1048F000400687E697E00E94A7058FE597E00E94B3
:10490000A705C7FBCC27C0F91F92CF938CE597E092
:104910009F938F930E9440068AE597E00E94A70527
:104920008DB79EB74C960FB6F8949EBF0FBE8DBF45
:1049300004C08DEB96E00E94A705C1E0B5C0809150
:10494000F502C82FC17080FF09C084E79AE00E9479
:10495000A7058091F502817F8E7F47C088E69AE0A7
:104960000E94A7058091F50281608093F502E5CF52
:104970009091F50291FBCC27C0F981E0C827892FDF
:10498000C0FB81F98093F502CC2319F08BE59AE006
:1049900027C08DE49AE0CFCF9091F50292FBCC270F
:1049A000C0F981E0C827892FC0FB82F98093F50206
:1049B000CC2319F08EE39AE013C08EE29AE0BBCFCD
:1049C0009091F50293FBCC27C0F981E0C827892F8D
:1049D000C0FB83F98093F502CC2351F082E29AE088
:1049E0000E94A7058091F50281608093F5025CC06A
:1049F00085E19AE0A0CF86E09AE00E94A7058EEDBF
:104A000099E00E94A7058CEA99E00E94A70583E837
:104A100099E00E94A70584E399E00E94A70588E039
:104A200099E089CF8AEF98E00E94A7050E94C50E01
:104A30001F928F9380EE98E09F938F930E94400681
:104A400080910F011F928F9389EC98E09F938F9331
:104A50000E94400680915A021F928F9386EB98E045
:104A60009F938F930E9440060E94651C9F938F9393
:104A70007F936F938FE998E09F938F930E944006F6
:104A80008DB79EB742960FB6F8949EBF0FBE8DBFEE
:104A900054CF80E001C08D510E94E5224ECF8DE9B8
:104AA00098E00E94A705C0E08C2FCF91089580E088
:104AB00008950C945725CF93C82F8091050381301A
:104AC00071F020F0823009F44BC042C1E091100136
:104AD000F09111018081823209F03CC107C0E09160
:104AE0001001F09111018081823261F48C2F0E94BB
:104AF0005925811104C08C2F0E9405232FC081E00D
:104B000090E02CC08C2F0E945725811126C0C43103
:104B1000E1F070F4CB3081F0C031D1F40E94AD21CE
:104B200089E896E00E94A70582E08093050315C0FE
:104B3000C93259F0C83361F486E996E00E94A705AE
:104B40008DE896E00E94A70508C01092050304C1F5
:104B500087E896E00E94A705FFC081E08170FEC053
:104B6000C43228F5CE3108F0C1C0CB30A1F1D0F469
:104B7000C73009F0D3C08EE18093170182E38093A0
:104B800016018AE08093150184E18093140188E086
:104B90008093130188E2809312018DE295E00E94D8
:104BA000A705BFC0C33149F1C431C1F0B7C0CB3490
:104BB00009F4A9C028F4C93289F0C83361F0AEC045
:104BC000C13509F49EC0C23509F499C0CE3409F04C
:104BD000A5C06AE09EC00E94AD21A3C080910403DD
:104BE000882319F0109204039CC08AE395E00E9488
:104BF000A70581E080930503B1C084E195E00E94A0
:104C0000A70582E095E00E94A705809117011F92F9
:104C10008F938FEF94E09F938F930E9440068DEFC8
:104C200094E00E94A7058BEE94E00E94A705809176
:104C300016011F928F9388EE94E09F938F930E94AA
:104C4000400686EE94E00E94A70587ED94E00E945E
:104C5000A705809115011F928F9384ED94E09F9397
:104C60008F930E94400682ED94E00E94A70581EC9C
:104C700094E00E94A705809114011F928F938EEB00
:104C800094E09F938F930E9440068CEB94E00E94E7
:104C9000A70587EA94E00E94A705809113011F925F
:104CA0008F9384EA94E09F938F930E94400682EA58
:104CB00094E00E94A7058BE894E00E94A7058091EC
:104CC00012011F928F9388E894E09F938F930E9424
:104CD000400686E894E00E94A7058DB79EB74896E7
:104CE0000FB6F8949EBF0FBE8DBF1BC0CE51EC2FE8
:104CF000F0E0E35DFE4F80818093040312C061E029
:104D000003C061E006C06AE0809104030E94C421F0
:104D100008C0809104030E94672203C08BE295E0E3
:104D200013C080910403882369F01F928F9385E25A
:104D300095E09F938F930E9440060F900F900F90E5
:104D40000F9004C082E295E00E94A70581E006C0B2
:104D50001092050380E002C080E000CFCF9108955B
:104D60000E94B7266894B1110C94462708950E94BA
:104D70002B2788F09F5798F0B92F9927B751B0F09B
:104D8000E1F0660F771F881F991F1AF0BA95C9F7CF
:104D900014C0B13091F00E944527B1E008950C9401
:104DA0004527672F782F8827B85F39F0B93FCCF3B4
:104DB000869577956795B395D9F73EF4909580954C
:104DC000709561957F4F8F4F9F4F0895E89409C06C
:104DD00097FB3EF490958095709561957F4F8F4F2E
:104DE0009F4F9923A9F0F92F96E9BB279395F69544
:104DF000879577956795B795F111F8CFFAF4BB0FC2
:104E000011F460FF1BC06F5F7F4F8F4F9F4F16C025
:104E1000882311F096E911C0772321F09EE8872FAF
:104E2000762F05C0662371F096E8862F70E060E06B
:104E30002AF09A95660F771F881FDAF7880F9695E4
:104E4000879597F9089557FD9058440F551F59F0CD
:104E50005F3F71F04795880F97FB991F61F09F3F67
:104E600079F087950895121613061406551FF2CF90
:104E70004695F1DF08C0161617061806991FF1CFE0
:104E800086957105610508940895E894BB27662707
:104E90007727CB0197F908950E945E270C94D827B5
:104EA0000E94CA2738F00E94D12720F0952311F0E4
:104EB0000C94C1270C94C7270C9446270E942327E3
:104EC00078F39923C9F35523B9F3950F50E0551F93
:104ED000AA27EE27FF27BB2700240894679520F414
:104EE000E20FF31FB41F0A1E220F331F441FAA1F15
:104EF0006695A9F7779530F4F30FB41F0A1E121EBA
:104F000008F46395330F441FAA1F221F769599F763
:104F1000879520F4B40F0A1E121E631F440FAA1FA8
:104F2000221F331F8695A9F7862F712D602D11241E
:104F30009F5750409AF0F1F088234AF0EE0FFF1F80
:104F4000BB1F661F771F881F91505040A9F79E3FD7
:104F5000510580F00C94C1270C9446275F3FE4F381
:104F6000983ED4F3869577956795B795F795E7952D
:104F70009F5FC1F7FE2B880F911D9695879597F936
:104F8000089597F99F6780E870E060E008959FEFCB
:104F900080EC089500240A941616170618060906D0
:104FA000089500240A94121613061406050608959F
:104FB000092E0394000C11F4882352F0BB0F40F427
:104FC000BF2B11F460FF04C06F5F7F4F8F4F9F4F67
:104FD00008950024552704C0080E591F880F991FF3
:104FE000009729F076956795B8F37105B9F7802D8C
:104FF000952F089597FB072E16F4009407D077FDA0
:1050000009D00E94142807FC05D03EF490958195A4
:105010009F4F0895709561957F4F0895EE0FFF1F84
:105020000590F491E02D0994AA1BBB1B51E107C028
:10503000AA1FBB1FA617B70710F0A61BB70B881F28
:10504000991F5A95A9F780959095BC01CD010895B7
:10505000F999FECF92BD81BDF89A992780B5089540
:10506000A8E1B0E042E050E00C944B28262FF999DB
:10507000FECF1FBA92BD81BD20BD0FB6F894FA9A3B
:10508000F99A0FBE019608950E943628272F0C9496
:105090003728DC01CB01FC01F999FECF06C0F2BD37
:1050A000E1BDF89A319600B40D9241505040B8F7E6
:0650B0000895F894FFCF03
:1050B60051010000FF2107B1078E07580724070199
:1050C600EB022808140A321E404D36228E02410297
:1050D6000B02E90175018E01A701C001000102035F
:0850E60004050607080900009B
:106800000000000000000000040005000600070072
:10681000080009000A000B000C000D000E000F001C
:1068200010001100120013001400150016001700CC
:10683000180019001A001B001C001D001E001F007C
:10684000200021002200230024002500260027002C
:10685000280029002A002B002C002D002E002F00DC
:1068600030003100000033003400350036003700BE
:1068700038003900000000000000000000000000A7
:106880000000000000000000000000000000000008
:1068900000000000000000000000000000000000F8
:1068A00000000000000000000000000000000000E8
:1068B00000000000000000000000000000000000D8
:1068C00000000000000000006400E700000000007D
:1068D00000000000000000000000000000000000B8
:1068E0000000000000000000320000000000000076
:1068F000E000E100E300E200E400E500E6006500FE
:00000001FF
