:100000000C94C0040C9443230C9421050C942105FA
:100010000C9421050C9421050C9421050C942105C8
:100020000C9421050C9421050C94281D0C94210599
:100030000C94FF1C0C9421050C9421050C942105B3
:100040000C9421050C94EA210C94A6220C94210511
:100050000C9421050C94D91C0C9421050C942105B9
:100060000C9421050C9421050C9421050C94210578
:100070000C9421050C9421050C9421050C94210568
:100080000C9421050C9421050C9421050C94210558
:100090000C9421050C9421050C9421050C94210548
:1000A0000C9421050C9421050C9421050631FF09BF
:1000B00074A1010975150026FF00952075088102BD
:1000C0000976150026FF00952075089102C00501EC
:1000D0000902A1010901A1008501050919012908E9
:1000E00015002501950875018102050109300931C6
:1000F0001581257F95027508810609381581257FB0
:10010000950175088106050C0A38021581257F9531
:100110000175088106C0C005010980A1018502168C
:1001200001002637001A81002AB700751095018159
:1001300000C0050C0901A1018503160100269C02DF
:100140001A01002A9C02751095018100C005010961
:1001500006A101050719E029E71500250195087595
:10016000018102950175088101050819012905958C
:100170000575019102950175039101050719002983
:10018000FF150026FF00950675088100C073253015
:10019000335820003F20003F2000253032582530C2
:1001A0003258200025303358253033583F20004D39
:1001B0003A253032582530325820004D3A25303318
:1001C00058253033583F200025583A2530386225CD
:1001D000730A000A202030313233343536370A00B2
:1001E0004C3A2530325820004C45443A20253032D4
:1001F000580A000A4C6F6F702073746172742E0A73
:10020000000A55534220636F6E66696775726564B4
:100210002E0A000A544D4B3A6534303639352F4C8E
:100220005546413A6436613764660A000902540053
:10023000030100A0320904000001030101000921AB
:10024000110100012240000705810308000A09048A
:1002500001000103010200092111010001227F00B8
:1002600007058203080001090402000103000000E1
:10027000092111010001222200070583032000014A
:100280001201100100000008EDFEBCBC00060102D6
:10029000000130034E0065005800540020006B0040
:1002A0006500790062006F00610072006400200048
:1002B00063006F006E0076006500720074006500D8
:1002C00072000000080354004D004B0000000403BE
:1002D00009040A6D6F7573653A205B253032587CCE
:1002E00025642025642025642025645D2000737921
:1002F0007374656D3A20253034580A00636F6E734D
:10030000756D65723A20253034580A003F004D3E25
:100310002000433E20000A00257500363A20776809
:1003200065656C5F74696D655F746F5F6D61783A68
:1003300020000A00257500353A20776865656C5FF6
:100340006D61785F73706565643A20000A002575F9
:1003500000343A2074696D655F746F5F6D61783A3F
:1003600020000A00257500333A206D61785F7370B4
:100370006565643A20000A00257500323A20696EEE
:1003800074657276616C286D73293A20000A002525
:100390007500313A2064656C6179282A31306D73BB
:1003A000293A20000A092D2056616C756573202DAD
:1003B0000A004D3E004D25643E20003F00736574E9
:1003C0002064656661756C740A00433E20000A0073
:1003D0002530325820006B6579626F6172643A2073
:1003E00000804E4C31302F0C1213508062635880C5
:1003F000514F595C5E5B66525A5D4B492A2E2D2542
:1004000026275F60615756535455802834330F3682
:1004100037381D1B06190510112C041607090A0E82
:100420000D0B2B141A0815181C17351E1F2021241C
:1004300023227C78657B7D79394A8080808080802A
:1004400080290A002575002F002575005D280025EC
:10045000640020002564002000256400200025643D
:10046000007C0025303258006D6F7573656B6579BF
:10047000205B62746E7C782079207620685D28721B
:1004800065702F61636C293A205B000A092D204DAD
:1004900061676963202D0A643A0964656275670AB9
:1004A000783A096465627567206D61747269780ACB
:1004B0006B3A096465627567206B6579626F61727A
:1004C000640A6D3A096465627567206D6F757365BE
:1004D0000A763A0976657273696F6E0A733A097320
:1004E00074617475730A633A09636F6E736F6C6538
:1004F000206D6F64650A302D343A096C617965723C
:10050000302D34284631302D4634290A5061757318
:100510003A09626F6F746C6F616465720A000A0950
:100520002D20436F6E736F6C65202D0A4553432F4A
:10053000713A09717569740A6D3A096D6F75736561
:100540006B65790A003F0074696D65725F72656161
:1005500064333228293A202530346C580A006B6500
:1005600079626F6172645F69646C653A2025580A2C
:10057000006B6579626F6172645F70726F746F6334
:100580006F6C3A2025580A00686F73745F6B657949
:10059000626F6172645F6C65647328293A20255824
:1005A0000A000A092D20537461747573202D0A0006
:1005B0004743433A20372E332E30204156522D4C9C
:1005C0004942433A20322E302E30204156525F416C
:1005D0005243483A20617672350A004F5054494FD1
:1005E0004E533A204C554641204D4F5553454B45AF
:1005F000592045585452414B455920434F4E534F73
:100600004C4520434F4D4D414E44204B45594D41A3
:10061000505F53454354494F4E20424F4F544C4F27
:10062000414445525F53495A450A004255494C449A
:100630003A20653430363935202832313A33303A71
:100640003338204F63742031332032303234290A5A
:10065000005649443A2030784645454428544D4B8D
:1006600029205049443A20307842434243284E657D
:100670005854206B6579626F61726420636F6E7687
:10068000657274657229205645523A2030783036AA
:1006900030300A00444553433A20444553435249BD
:1006A0005054494F4E0A000A092D2056657273694D
:1006B0006F6E202D0A000A6D6F7573653A206F66A4
:1006C000660A000A6D6F7573653A206F6E0A000A3C
:1006D0006B6579626F6172643A206F66660A000A20
:1006E0006B6579626F6172643A206F6E0A000A6D01
:1006F00061747269783A206F66660A000A6D6174E7
:100700007269783A206F6E0A000A64656275673A0A
:10071000206F6E0A000A64656275673A206F66662C
:100720000A000A0A626F6F746C6F616465722E2E24
:100730002E2000433E20006D6B5F776865656C5F1F
:1007400074696D655F746F5F6D6178203D2025640D
:100750000A006D6B5F776865656C5F6D61785F73CC
:1007600070656564203D2025640A006D6B5F7469C7
:100770006D655F746F5F6D6178203D2025640A00B0
:100780006D6B5F6D61785F7370656564203D2025DA
:10079000640A006D6B5F696E74657276616C203DF2
:1007A0002025640A006D6B5F64656C6179203D20D3
:1007B00025640A006D6B5F776865656C5F74696DB1
:1007C000655F746F5F6D6178203D2025640A006D60
:1007D0006B5F776865656C5F6D61785F7370656589
:1007E00064203D2025640A006D6B5F74696D655F50
:1007F000746F5F6D6178203D2025640A006D6B5F2A
:100800006D61785F7370656564203D2025640A0022
:100810006D6B5F696E74657276616C203D20256436
:100820000A006D6B5F64656C6179203D2025640A68
:100830000077686572652064656C74613A20637541
:1008400072736F723D25642C20776865656C3D2559
:10085000640A53656520687474703A2F2F656E2E94
:1008600077696B6970656469612E6F72672F77694C
:100870006B692F4D6F7573655F6B6579730A000A3D
:10088000092D204D6F7573656B6579202D0A4553D1
:10089000432F713A09717569740A313A0964656CBC
:1008A0006179282A31306D73290A323A09696E74E8
:1008B000657276616C286D73290A333A096D617827
:1008C0005F73706565640A343A0974696D655F74B5
:1008D0006F5F6D61780A353A09776865656C5F6DA1
:1008E00061785F73706565640A363A097768656593
:1008F0006C5F74696D655F746F5F6D61780A0A7013
:100900003A097072696E742076616C7565730A6459
:100910003A097365742064656661756C74730A7551
:10092000703A092B310A646F776E3A092D310A70DB
:100930006775703A092B31300A7067646F776E3AC9
:10094000092D31300A0A7370656564203D206465A5
:100950006C7461202A206D61785F73706565642016
:100960002A2028726570656174202F2074696D6576
:100970005F746F5F6D6178290A004C25640A00007E
:1009800011241FBECFEFDAE0DEBFCDBF04B603FEF9
:1009900041C080916B0390916C03A0916D03B09165
:1009A0006E038730904BA740B04BA1F510926B03BC
:1009B00010926C0310926D0310926E0314BE0FB66A
:1009C000F894A895809160008861809360001092EF
:1009D00060000FBE109201081092000889E0E3E069
:1009E000F0E080935700E491E695E370E15080E0F9
:1009F00090E1E33040F4F0E0EE0FFF1FEA5BFE4FC2
:100A00008081918100C0E0E0F0E8E81BF90BF695E9
:100A1000E795099511E0A0E0B1E0E4EBF9E402C04C
:100A200005900D92AC34B107D9F723E0ACE4B1E006
:100A300001C01D92AB36B207E1F70E94241E0C9450
:100A4000D8240C940000FF93EF93E0914C01F091B7
:100A50004D01309709F00995EF91FF910895FC0140
:100A60008591803011F0EFDFFBCF0895FF27E0E2A2
:100A700030E247FF0CC0419597FF09C0EDE2609559
:100A8000709580959095611D711D811D911D27FFA9
:100A900002C0219530E350E2AA27660F771F881F16
:100AA000991FAA1FA41710F0A41B63955A95A9F7C4
:100AB000AA3008F0A95FA05DAF93F39561157105A9
:100AC0008105910541F7ED3211F4EF93F395F2179B
:100AD00018F43F93F395FBCF8F91B5DFFA95E1F7CB
:100AE0000895E991F9918591803021F0853219F0CE
:100AF000AADFF9CF089520E0E89455915532C1F36B
:100B0000503311F4689455915A3348F4505390F38C
:100B1000220F022E220F220F200D250FF4CF0EF4EC
:100B2000219589919991533619F3533729F153350A
:100B300059F1BC0188279927E8945C3621F4899102
:100B4000999168945591543639F446EF7EF077FFC9
:100B50000DC08FEF9FEF0AC055374AE039F0583586
:100B600040E121F0523642E009F00895FF93EF93FF
:100B70007DDFEF91FF91B7CFFF93EF93FC01819160
:100B80008030B9F360DFFBCFFF93EF9368DFF1CFE5
:100B9000DF93CF93CDB7DEB72596A3DFCF91DF915B
:100BA0000895F894E0912801F09129012381828130
:100BB000821789F0822F90E0880F991FA081B18160
:100BC000A80FB91F8C9111969C912F5F348123231C
:100BD0002383789408958FEF9FEFFBCF803FC1F47C
:100BE00080915D0387FD10925D0380915C0381110C
:100BF0000EC080915D0381110AC080915E03811156
:100C000006C080915F03811102C0109253030895C2
:100C1000813F29F480915D0318162CF3E6CF909163
:100C20005C03823F29F497FFE0CF10925C03DDCF95
:100C3000833F19F41916CCF3D8CF893F39F480914A
:100C40005E03181694F610925E03CFCF8A3F29F404
:100C500080915E0387FFC9CFF6CF8B3F39F4809137
:100C60005F0387FFC2CF10925F03BFCF8C3F29F491
:100C700080915F031816BCF3B8CF843F31F48091A4
:100C80005B038E7F80935B03B0CF853F21F480911F
:100C90005B038D7FF7CF863F21F480915B038B7FD1
:100CA000F1CF873F21F480915B03877FEBCF883FB3
:100CB00021F480915B038F7EE5CF8D3F31F48091ED
:100CC00052038E7F8093520390CF8E3F21F4809108
:100CD00052038D7FF7CF8F3F09F087CF809152036A
:100CE0008B7FF0CF8091520380FF0CC060911D017B
:100CF00070E075956795759567956115710549F172
:100D0000862F089581FF06C060911D0170E07595E2
:100D10006795F3CF60911D0182FD0BC09091530345
:100D20009923A1F060911C0180911D01961738F064
:100D3000682F70E06038710500F38FE70895899F90
:100D4000C001112470E00E94AA24F4CF61E070E099
:100D5000D7CF81E008958091520380FF12C0609147
:100D60001F0185E0689FB001112475956795759501
:100D7000679560387105A8F561157105A1F1862F99
:100D8000089581FF09C060911F0185E0689FB0014F
:100D9000112475956795EDCF82FF07C060911F0103
:100DA00085E0689FB0011124E4CF209153032223F2
:100DB000A9F090911E0160911F0185E0689FB0012C
:100DC00011242917B0F6269FA001279F500D11244A
:100DD000692F70E0CA010E94AA24CBCF65E070E0C1
:100DE000CECF8FE7089581E00895803F31F40E94CF
:100DF000AB06819580935D030895813F19F40E94AD
:100E0000AB06F8CF823F31F40E94AB068195809308
:100E10005C030895833F19F40E94AB06F8CF893F25
:100E200029F40E94720680935E0308958A3F21F49C
:100E30000E9472068195F7CF8B3F31F40E947206B3
:100E4000819580935F0308958C3F19F40E94720688
:100E5000F8CF843F31F480915B03816080935B0322
:100E60000895853F21F480915B038260F7CF863F30
:100E700021F480915B038460F1CF873F21F480915E
:100E80005B038860EBCF883F21F480915B03806136
:100E9000E5CF8D3F31F480915203816080935203FE
:100EA00008958E3F21F4809152038260F7CF8F3FE7
:100EB000B9F7809152038460F1CF28E0729FF0016E
:100EC0001124E60FF11DEF51FC4F6491E62FE295DE
:100ED000E77028E0829FC00111248E0F911D24E04D
:100EE000880F991F2A95E1F7E62FEF70E80FF92F89
:100EF000F11DEE0FFF1FE050F84985919491089580
:100F00009C014FB7F8948091600390916103A09188
:100F10006203B09163034FBF821B930B08952FB7F9
:100F2000F8948091600390916103A0916203B09165
:100F300063032FBF08954F925F926F927F929F92AB
:100F4000AF92BF92CF92DF92EF92FF920F931F93D7
:100F5000CF93DF9300D000D01F92CDB7DEB76B8365
:100F60007C838D837A018C819D81892B49F08FEF61
:100F7000F81204C081E09FEF491719F080E001C02A
:100F800081E080FD67C00F2D10E0CE2CD12C8B812D
:100F9000882309F453C04090E8025090E902609021
:100FA000EA027090EB028091670390916803A09130
:100FB0006903B0916A03482A592A6A2A7B2A2FE1D9
:100FC000A22EB12C9A2CD301C2010A2C04C0B695D2
:100FD000A795979587950A94D2F780FD28C081E060
:100FE000A81AB10878F7912CF80193E0EE0FFF1FD3
:100FF0009A95E1F7E451FD4FEC0DFD1D9082B7018C
:10100000892D0F900F900F900F900F90DF91CF913F
:101010001F910F91FF90EF90DF90CF90BF90AF9016
:101020009F907F906F905F904F900C945D07B701F9
:101030008A2D0E945D07019791F2D6CFF80183E0D7
:10104000EE0FFF1F8A95E1F7E451FD4FEC0DFD1DFA
:101050009080D5CF90E080E00F900F900F900F9090
:101060000F90DF91CF911F910F91FF90EF90DF9044
:10107000CF90BF90AF909F907F906F905F904F9078
:10108000089541E050E060E070E004C0440F551F57
:10109000661F771F8A95D2F7409550956095709599
:1010A0008091E8029091E902A091EA02B091EB02EE
:1010B00084239523A623B7238093E8029093E90223
:1010C000A093EA02B093EB02089541E050E060E0A3
:1010D00070E004C0440F551F661F771F8A95D2F732
:1010E0008091E8029091E902A091EA02B091EB02AE
:1010F000842B952BA62BB72B8093E8029093E902C3
:10110000A093EA02B093EB0208958091E7029091D8
:10111000B602981301C008958F5F8770FACF1F93AE
:10112000CF93DF9300D000D01F92CDB7DEB7942FBE
:101130004983252F5A836B837C838D834C815D810A
:1011400081E0452B31F02F3F19F481E09F3F09F0FA
:1011500080E0182F117080FD2CC049815A816B816D
:101160007C818D810E949B07292F22952F702C3026
:1011700078F42A30A8F422502230C8F0812F0F9042
:101180000F900F900F900F90DF91CF911F910895C6
:101190002C3011F02F3091F793FB112710F9EECF7F
:1011A000803C28F0803E50F3815F833038F311E0BB
:1011B000E5CF10E0E3CFE0914C03F0914D03309781
:1011C00021F00190F081E02D099480E00895E8ED90
:1011D000F0E080818E7F80831092E2001092DA002E
:1011E0001092E100A0EEB0E08C9181608C93808140
:1011F0008F77808319BCA7EDB0E08C918E7F8C93A4
:1012000080818F7E80831092940208950E94E70867
:10121000F89487E797E7909301088093000887E0A8
:1012200090EBDC0180936B0390936C03A0936D03B0
:10123000B0936E0388E19CE00FB6F894A895809374
:1012400060000FBE90936000FFCFFC018091A80268
:101250009091A90286179707A0F06115710529F4EE
:101260009091E8009E779093E80090E061157105F9
:1012700051F4911108C08091E80082FF35C080E0F0
:101280000895BC01F2CF8091AA028823C9F185306C
:10129000C9F18091E80083FD31C08091E80082FDB2
:1012A000EACF8091E80080FFE1CF2091F3008091A8
:1012B000F200322F282F6115710519F02830310501
:1012C00058F091E02830310509F090E02091E800D5
:1012D0002E772093E800CACF81918093F10061506E
:1012E00071092F5F3F4FE7CF8091AA02882341F019
:1012F000853041F08091E80083FFBDCF81E0089503
:1013000082E0089583E008952091E4003091E500A3
:1013100085E69091EC0090FF06C09091E80090FF68
:1013200006C080E008959091E80092FDFACF909178
:10133000AA02992391F0953091F09091EB0095FDE0
:1013400010C04091E4005091E5002417350709F3DF
:1013500081509A01F1F684E0089582E0089583E0D7
:10136000089581E008958091A20287FF13C08091C3
:10137000E80082FF06C08091E8008B778093E80048
:1013800004C08091AA028111F2CF08958091AA022F
:101390008823D9F38091E80080FFF8CF8091E8009E
:1013A0008E77ECCF982F9093E900242F762F50E082
:1013B000891731F07091EC002091ED005091F00010
:1013C00021FD07C09F5F973071F78093E90081E0AE
:1013D00008953091EB003E7F3093EB003091ED00AB
:1013E0003D7F3093ED003091EB0031603093EB00A6
:1013F0007093EC002093ED005093F0002091EE00EC
:1014000027FDE0CF80E008950F931F93CF93DF93E4
:10141000CDB7DEB7AA970FB6F894DEBF0FBECDBF2B
:101420008091AA02882309F44EC11091E9001F702F
:101430008091EC0080FF39C080E8182B1092E90001
:101440008091E80083FF3CC1E2EAF2E08AEA92E0A0
:101450002091F10021938E179F07D1F78091A3026D
:10146000833009F470C018F5813009F447C0823028
:1014700009F4DAC08091E80083FF14C18091A202D0
:101480009091A3029A3008F00DC1E92FF0E0E55BDE
:10149000F54F0C94BE24250B4B0B520B4B0B520BF0
:1014A000AD0BCF0B520BCE0CDB0C80E0C6CF8A30DD
:1014B00009F4A9C08B3009F47DC08930D9F6809138
:1014C000A2028132B9F68091A6029091A702892BDF
:1014D00089F68091E800877F8093E8008091E8009A
:1014E00082FF2CC08091F100809396028091E800E9
:1014F0008B778093E8000E94B309BCCF8091A20251
:10150000813A09F0B7CF8091E800877F8093E800A7
:101510008091A6029091A702892B61F060E090E093
:1015200080E070E00E9425098091E8008B7780932D
:10153000E800A0CF68E087E992E0F3CF8091AA02AB
:101540008111CCCF97CF8091A202813A09F092CF3E
:101550008091A6029091A702892BA1F48091E800C6
:10156000877F8093E8008091E80080FFFCCF809126
:101570001B018093F1008091E8008E778093E80052
:101580000E94B3098091A6029091A702019709F0E9
:1015900071CF8091E800877F8093E8008091E80018
:1015A00080FFFCCF80911A018093F1008091E800C8
:1015B0008E779FCF8091A202813209F05BCF80911C
:1015C000A6029091A702892B59F48091E800877FA9
:1015D0008093E8000E94B3098091A40280931B01CC
:1015E0008091A6029091A702019709F043CF8091C4
:1015F000E800877F8093E8000E94B3098091A402ED
:1016000080931A0137CF8091A202813209F032CF44
:101610008091E800877F8093E8000E94B309809161
:10162000A5028093640326CF8091A202813A09F03B
:1016300021CF8091E800877F8093E8008091E800C7
:1016400080FFFCCF80916403AFCF803889F082386F
:1016500049F58091A6028F70873020F58093E900CC
:101660008091EB0085FB882780F91092E90006C085
:1016700080919F029091A002911182609091E80068
:10168000977F9093E8008093F1001092F100809191
:10169000E8008E7731C0282F2D7F21F48823F1F0C8
:1016A000823079F18091E80083FF0AC08091E800E0
:1016B000877F8093E8008091EB0080628093EB004D
:1016C0001F701093E900AA960FB6F894DEBF0FBE04
:1016D000CDBFDF91CF911F910F9108958091A4020A
:1016E000813001F7933009F080E08093A0021092DE
:1016F000E9008091E800877F8093E8000E94B309A9
:10170000D1CF8091A4028111F2CF8091A6028F7077
:101710002FEF280F263030F68093E9002091EB0060
:1017200020FFE5CF933031F48091EB00806280930D
:10173000EB00DDCF9091EB0090619093EB0021E006
:1017400030E001C0220F8A95EAF72093EA00109258
:10175000EA008091EB008860EACF8111A3CF00916D
:10176000A4020F778091E3008078802B8093E300C0
:101770008091E800877F8093E8000E94B309809100
:10178000E80080FFFCCF8091E30080688093E30055
:1017900083E0011101C082E08093AA0283CF8058C8
:1017A000823008F07FCF2091A4023091A5022C3D19
:1017B00083E03807A1F583E08A838AE289834FB703
:1017C000F894DE01139620E03EE051E2E32FF0E0D2
:1017D00050935700E49120FF03C0E295EF703F5F04
:1017E000EF708E2F90E0EA30C0F0C7968D939D93F6
:1017F0002F5F243159F74FBF8091E800877F809396
:10180000E8006AE270E0CE0101960E94250980910D
:10181000E8008B778093E80045CFC096E7CF8091B2
:10182000A6029091A702432F55274330510509F492
:101830004FC078F54130510509F445C084E590E08A
:10184000ECE2F2E04230510509F02CCF2091E800A3
:10185000277F2093E8002091A8023091A9028217E7
:10186000930708F49C0140E02115310509F063C09D
:10187000411161C08091E80082FDC9CF8091AA0228
:10188000882329F2853019F28091E80083FFF2CF96
:10189000BECF4132510509F43FC04232510509F033
:1018A00001CF8330910508F0FDCEFC01EE0FFF1F44
:1018B000E05DFE4F0190F081E02D835D9E4FDC01E5
:1018C0008C9190E01DC082E190E0E0E8F2E0BECFB4
:1018D000332721303105C1F060F02230310509F0A5
:1018E000E1CEE2E9F2E0E4918E2F90E0E2E9F2E06D
:1018F00007C0EEECF2E0E4918E2F90E0EEECF2E027
:10190000009709F4CFCEA2CFE4ECF2E0E4918E2F61
:1019100090E0E4ECF2E0F4CF8330910508F0C2CE21
:10192000880F991FFC01EA5CFE4F0190F081E02DC9
:1019300089E090E08BCF8091AA02882309F467CFD9
:10194000853009F464CF8091E80083FD60CF8091F9
:10195000E80082FD8FCF8091E80080FF85CF8091E5
:10196000F3009091F20089279827892721153105E6
:1019700019F08830910550F041E0089709F040E0F7
:101980008091E8008E778093E8006ECF4491409379
:10199000F1003196215031090196E8CF803809F0E5
:1019A00081CE8091E800877F8093E8008091A1023A
:1019B0008093F1006CCE811175CE0091A4020230AB
:1019C00008F070CE8091E800877F8093E800009354
:1019D000A1020E94B309002399F084E08093AA0237
:1019E00042E061EC81E00E94D20942E061EC82E0D9
:1019F0000E94D20946E261EC83E00E94D20952CEF5
:101A00008091E30087FDE9CF81E0E8CFEF92FF927C
:101A10000F931F93CF937C018B010E948409C82FE1
:101A2000811119C08091E80085FD0DC08091E8000A
:101A30008E778093E8000E94040A0E94840988231C
:101A400089F3C82F08C0F70181917F018093F100CD
:101A50000150110939F78C2FCF911F910F91FF90F1
:101A6000EF900895CF92DF92EF92FF920F931F9322
:101A7000CF93DF93C8EDD0E088818F7E8883E7ED38
:101A8000F0E080818160808384E082BF81E0809388
:101A9000940288818E7F888302EE10E0F801108224
:101AA0001092DA0081EEC82ED12CF60110828881C6
:101AB0008F77888388818068888388818F7D8883F9
:101AC00019BC1092AA021092A1021092A0021092C8
:101AD0009F0290EEE92EF12CF70180818B7F8083AD
:101AE00088818160888342E060E080E00E94D209C2
:101AF000F60180818E7F8083F80180818160808300
:101B0000808188608083F70180818E7F80838881D7
:101B100080618883DF91CF911F910F91FF90EF90AB
:101B2000DF90CF9008958091960208958091710280
:101B3000811113C09FB7F8944091600350916103E5
:101B400060916203709163039FBF443C59406105FB
:101B5000710518F081E0809371020895FC012281E3
:101B600030E02F5F3F4F848190E028233923938119
:101B700081E09217130609F080E00895EF92FF923A
:101B80000F931F93CF93DF93F82E0FB607FE34C049
:101B90008091AA02843031F08BE091E00E94AE0D7A
:101BA000882381F10E94960D811106C08BE091E09F
:101BB0000E94AE0D882331F10E948F078C01C091E5
:101BC000E900CF708091EC0080FD2FC080E0C82B31
:101BD00083E08093E90085E0E82E8091EB0085FDAD
:101BE00008C08091EB0080FF04C08091EE0087FD6B
:101BF0003CC0CF70C093E9008BE091E00E94AE0D35
:101C000081117CC0E0910D0180910B0190910C013C
:101C1000E80FF92FF11DF08280910D018F5F9091F7
:101C20000F01892380930D0169C080E8D0CFE09136
:101C30000B01F0910C01E80FF11D90818F5F209155
:101C40000F01822380930E019093F1008091E800B0
:101C500085FD0BC08091E80080FF07C08091E800FF
:101C60008E778093E800E0920A0180910E019091B6
:101C70000D01981701F19091E80095FDD8CF80E013
:101C800021C01092F1002AC08BE091E00E94AE0DBD
:101C9000882309F4AECFD0910A01DD2309F4A9CF3E
:101CA0000E948F078017910709F497CFD150D093E6
:101CB0000A018C0192CF8091E80085FFE0CFF0927D
:101CC000F10081E02091F3009091F200322F292F52
:101CD000232B79F09091E80090FF0BC09091E800E1
:101CE00095FDCFCF9091E8009E779093E800E09229
:101CF0000A01882349F2CF70C093E90080E0DF91A8
:101D0000CF911F910F91FF90EF900895E8E7F2E0D7
:101D1000119282E0E438F807D9F708959091820291
:101D200080FF2EC09068909382029091820281FF82
:101D300029C09064909382029091820282FF24C015
:101D40009062909382029091820283FF1FC0906103
:101D5000909382029091820284FF1AC098609093BF
:101D600082029091820285FF15C094609093820256
:101D70009091820286FF10C0926090938202089533
:101D80009F77D1CF9F7BD6CF9F7DDBCF9F7EE0CF4C
:101D9000977FE5CF9B7FEACF9D7FEFCF8330C9F15F
:101DA00028F4813061F0823019F10895853009F40A
:101DB00052C008F43FC0863009F45EC00895809197
:101DC0002101681790F4861B8093210180912101E5
:101DD0001F928F9382E298E09F938F930E94C80591
:101DE0000F900F900F900F90089510922101EECF59
:101DF00080912001681750F4861B80932001809108
:101E000020011F928F9380E198E0E6CF109220018D
:101E1000F6CF80911F01681750F4861B80931F0135
:101E200080911F011F928F938DEF97E0D5CF109275
:101E30001F01F6CF80911E01681750F4861B809316
:101E40001E0180911E011F928F9388EE97E0C4CFF0
:101E500010921E01F6CF80911D01681750F4861B69
:101E600080931D0180911D011F928F938FEC97E04D
:101E7000B3CF10921D01F6CF80911C01681750F46A
:101E8000861B80931C0180911C011F928F9384EB11
:101E900097E0A2CF10921C01F6CF833009F445C021
:101EA00028F4813061F0823049F10895853009F4D9
:101EB0006AC008F451C0863009F47CC0089580914E
:101EC0002101482F460F5527551F4F3F510594F4C8
:101ED000680F60932101809121011F928F9385EA01
:101EE00097E09F938F930E94C8050F900F900F90DB
:101EF0000F9008958FEF80932101EDCF8091200105
:101F0000482F460F5527551F4F3F510554F4680F72
:101F100060932001809120011F928F9383E997E0C5
:101F2000E0CF8FEF80932001F5CF80911F01482FE4
:101F3000460F5527551F4F3F510554F4680F6093C6
:101F40001F0180911F011F928F9380E897E0C9CFF6
:101F50008FEF80931F01F5CF80911E01482F460F10
:101F60005527551F4F3F510554F4680F60931E01CC
:101F700080911E011F928F938BE697E0B2CF8FEF77
:101F800080931E01F5CF80911D01482F460F5527E4
:101F9000551F4F3F510554F4680F60931D01809108
:101FA0001D011F928F9382E597E09BCF8FEF809367
:101FB0001D01F5CF80911C01482F460F5527551F55
:101FC0004F3F510554F4680F60931C0180911C0130
:101FD0001F928F9387E397E084CF8FEF80931C014C
:101FE000F5CFCF93DF932091AD023091AE02281749
:101FF000390701F19093AE028093AD02E0914C035A
:10200000F0914D033097B1F0EC010084F185E02DA3
:102010000995809166038570853061F4DF93CF93D5
:102020008CEF92E09F938F930E94C8050F900F90C2
:102030000F900F90DF91CF910895CF93DF93209170
:10204000AB023091AC022817390701F19093AC0232
:102050008093AB02E0914C03F0914D033097B1F0C7
:10206000EC010680F781E02D09958091660385706B
:10207000853061F4DF93CF938EEE92E09F938F9340
:102080000E94C8050F900F900F900F90DF91CF9195
:102090000895CF93DF93E0914C03F0914D03309777
:1020A000B1F1EC010480F581E02D09958091660382
:1020B00083FF2DC08C81282F082E000C330B3F93FB
:1020C0008F938B81282F082E000C330B3F938F9317
:1020D0008A81282F082E000C330B3F938F93898120
:1020E000282F082E000C330B3F938F9388811F926B
:1020F0008F9382ED92E09F938F930E94C8058DB7D6
:102100009EB70C960FB6F8949EBF0FBE8DBFDF91A1
:10211000CF9108950F931F93CF93DF938C01F89481
:10212000C0912A01D0912B01CE010E94AE0D8111E8
:1021300010C08A8190E0880F991F28813981820F11
:10214000931FFC01118300838A818F5F9C81892307
:102150008A837894C80180519140029760F01F9360
:102160000F938DE891E09F938F930E94C8050F9085
:102170000F900F900F90DF91CF911F910F910895C5
:102180008FEE91E00E948A1090E080E00C948A101B
:102190008FE798E00E942F051F9281E08F931F9296
:1021A00085E08F9381E398E09F938F930E94C80509
:1021B0000F900F900F900F900F900F900895CF9366
:1021C000DF9300D000D01F92CDB7DEB780916603B9
:1021D00083FF7BC088E694E00E942F0580915B031B
:1021E0001F928F9383E694E09F938F930E94C8057C
:1021F00081E694E00E942F0580915C03282F082E31
:10220000000C330B3F938F938EE594E09F938F9355
:102210000E94C8058CE594E00E942F0580915D0323
:10222000282F082E000C330B3F938F9389E594E001
:102230009F938F930E94C80587E594E00E942F0525
:1022400080915E03282F082E000C330B3F938F9351
:1022500084E594E09F938F930E94C80582E594E003
:102260000E942F0580915F03282F082E000C330B4E
:102270003F938F938FE494E09F938F930E94C805C0
:102280008CE494E00E942F05809153031F928F935A
:1022900089E494E09F938F930E94C80587E494E0BB
:1022A0000E942F05809152031F928F9384E494E043
:1022B0009F938F930E94C80581E494E00E942F05AC
:1022C0000FB6F894DEBF0FBECDBF85E0EBE5F3E0BF
:1022D000DE01119601900D928A95E1F78981909126
:1022E0005403892B8983CE0101960E9449100E94D4
:1022F0008F0790935A03809359030F900F900F907C
:102300000F900F90DF91CF9108950F931F93CF936C
:10231000DF938091500390914F03892B80934E025D
:1023200090914E03992389F0892B80934E02EFE41C
:10233000F2E026E532E080E0919191118F5F2E1757
:102340003F07D1F7811110924E03E0914C03F091B9
:102350004D033097B1F10280F381E02D8EE492E0DD
:1023600009958091660382FF2CC080FF04C086ED32
:1023700093E00E942F05D0E0C0E000ED13E08091D3
:10238000660380FF0EC0FE01E25BFD4F80811F925D
:102390008F931F930F930E94C8050F900F900F907B
:1023A0000F902196C830D10551F78091660380FFC8
:1023B00008C08EEC93E0DF91CF911F910F910C94A8
:1023C0002F05DF91CF911F910F9108951092500327
:1023D00010924F03EEE4F2E0118212821382148213
:1023E0001582168217820E94851185E0EBE5F3E0E5
:1023F000DF011D928A95E9F7109253031092520360
:102400000E94DF1090E080E00E941D1090E080E0CC
:102410000C94F10FCF93C82F1F928F938AE799E006
:102420009F938F930E94C80581E090E0A0E0B0E008
:1024300004C0880F991FAA1FBB1FCA95D2F78093AB
:10244000670390936803A0936903B0936A030F90A6
:102450000F900F900F90CF910C94E611882341F0CC
:102460008095909150038923809350030C9485119B
:102470000895882339F090915003892B809350035D
:102480000C94851108958823E1F19CEF980F913AFF
:1024900068F4EEE4F2E09281891301C01282319671
:1024A00042E0E435F407B9F70C94851190E2980FF7
:1024B000983088F4877021E030E0A90102C0440F11
:1024C000551F8A95E2F7CA018095909150038923A0
:1024D00080935003E9CF9BE5980F933020F490E070
:1024E00080E00C941D1098E5980F973120F490E04F
:1024F00080E00C94F10F803F20F00E94EE050C94D8
:10250000DF1008958732D8F58E3108F0FCC08E3088
:1025100009F48FC078F4873009F470C08B3009F467
:1025200056C0863009F458C085E495E00E942F0516
:1025300080E00895863109F4A6C078F48031A1F7CF
:1025400090916603892F877F93FF8860809366034D
:1025500083FF7FC083EC96E063C0893109F47CC0BF
:102560008B3111F790916603892F8D7F91FF8260E7
:102570008093660381FF5AC08CEF96E051C0883388
:1025800031F150F4893221F0853311F0873261F650
:1025900080E00E940A1240C08334D1F320F48A33D1
:1025A00018F28953F6CF883409F0BECF0E94E611A5
:1025B00082E297E00E942F052FEF83ED90E32150F8
:1025C00080409040E1F700C000000E9406098BE8BF
:1025D00094E00E942F0520C080916603817F8E7F4A
:1025E000809366038EE195E00E942F0583E397E0D8
:1025F0000E942F0581E08093650308958091660312
:1026000080FF0CC085E197E00E942F058091660352
:10261000817F8E7F8093660381E0089589E097E053
:102620000E942F05809166038160F4CF8EEE96E0C4
:10263000D0CF90916603892F8B7F92FF8460809327
:10264000660382FF03C08FED96E0EACF8FEC96E041
:10265000C0CF86EB96E0BDCF87EA96E00E942F05BB
:1026600084E996E00E942F0581E596E00E942F05FF
:102670008BE296E00E942F058BED95E00E942F05DE
:1026800080EB95E0A6CF82EA95E00E942F050E949C
:10269000DB081F928F9388E895E09F938F930E94A9
:1026A000C80580911B011F928F9381E795E09F934E
:1026B0008F930E94C805809164031F928F938EE5CB
:1026C00095E09F938F930E94C8052FB7F89480914F
:1026D000600390916103A0916203B09163032FBFE7
:1026E000BF93AF939F938F9387E495E09F938F93CE
:1026F0000E94C8058DB79EB742960FB6F8949EBF4C
:102700000FBE8DBF89CF8D5144CFCF93882309F45D
:10271000B1C0C82F8CEF8C0F813A08F057C180915F
:102720006503813071F1F8F0823009F45BC01092DA
:102730006503A0E5B2E0EFEF80E09D91C91781F05D
:10274000EF3F19F4911101C0E82F8F5F8630A9F790
:10275000EF3F31F00E2E000CFF0BE25BFD4FC2830A
:10276000CF910C94851180914E02843421F08838E9
:1027700011F08232F1F68C2F0E94821281117AC000
:10278000D8CF80914E028434B1F38838A1F38232DD
:1027900091F3C431C9F048F4CB3059F0C031C1F0E5
:1027A0008CE093E00E942F0511C0C93269F0C83354
:1027B000B9F78EE195E00E942F0582E193E00E9437
:1027C0002F0581E08170DACF1092650380E0FACFA7
:1027D0000E94C8108EE093E00E942F0582E0809353
:1027E0006503EFCFC432C8F4CE3108F0BEC0CB30A1
:1027F000E1F040F4C73009F4CFC08BEB93E0CF9108
:102800000C942F05C331C1F1C431B9F78091AF02E7
:10281000882349F11092AF020AC0CB3409F4BAC040
:10282000C0F4C93299F3C83341F70E94C8108091AF
:10283000AF02882309F4C7C01F928F9385EB93E002
:102840009F938F930E94C8050F900F900F900F9049
:1028500011C0C13509F498C0C23509F48FC0CE3417
:1028600061F66AE092C08AEC93E00E942F0581E055
:1028700080936503CF91089584EA93E00E942F0529
:1028800082E993E00E942F05809121011F928F938E
:102890008FE893E09F938F930E94C8058DE893E0A3
:1028A0000E942F058BE793E00E942F058091200165
:1028B0001F928F9388E793E09F938F930E94C805A0
:1028C00086E793E00E942F0587E693E00E942F059C
:1028D00080911F011F928F9384E693E09F938F93C3
:1028E0000E94C80582E693E00E942F0581E593E0EF
:1028F0000E942F0580911E011F928F938EE493E01A
:102900009F938F930E94C8058CE493E00E942F054B
:1029100087E393E00E942F0580911D011F928F9302
:1029200084E393E09F938F930E94C80582E393E032
:102930000E942F058BE193E00E942F0580911C01DE
:102940001F928F9388E193E09F938F930E94C80515
:1029500086E193E00E942F058DB79EB748960FB68B
:10296000F8949EBF0FBE8DBF62CFCE51EC2FF0E02A
:10297000E45CFE4F80818093AF0259CF61E080918B
:10298000AF020E944D0F53CF61E08091AF020E94D1
:10299000CE0E4DCF6AE0F3CF8EE18093210182E32A
:1029A000809320018AE080931F0184E180931E01BF
:1029B00088E080931D0188E280931C018DEB93E0F9
:1029C0000E942F0534CF82EB93E019CF80E28C0F69
:1029D000883068F4C77021E030E001C0220FCA954A
:1029E000EAF780915003822B80935003B9CE8BE598
:1029F0008C0F833068F481E890E0C53A31F083E8C9
:102A000090E0C63A11F482E890E0CF910C941D104A
:102A100088E58C0F873108F068C082EE90E0C83AF4
:102A200009F460C089EE90E0C93A09F45BC08AEE0F
:102A300090E0CA3A09F456C085EB90E0CB3A09F42D
:102A400051C086EB90E0CC3A09F44CC083EB90E0A7
:102A5000CD3A09F447C084EB90E0CE3A09F442C085
:102A600087EB90E0CF3AF1F188EB90E0C13BD1F1F8
:102A70008DEC90E0C03BB1F183E891E0C23B91F175
:102A80008AE891E0C33B71F182E991E0C43B51F1E6
:102A900084E991E0C53B31F181E292E0C63B11F15E
:102AA00083E292E0C73BF1F084E292E0C83BD1F0D0
:102AB00085E292E0C93BB1F086E292E0CA3B91F038
:102AC00087E292E0CB3B71F08AE292E0CC3B51F09E
:102AD0008FE690E0CD3B31F090E080E0CE3B11F40A
:102AE00080E790E0CF910C94F10FCF3B69F40E9406
:102AF000E6119FEF20E782E0915020408040E1F70F
:102B000000C000000E940609C03F08F4B3CE8C2F1D
:102B10000E94F506CF910C94DF10CF92DF92EF92D6
:102B2000FF920F931F93CF93DF9300D000D01F929B
:102B3000CDB7DEB76C0185E0F601DE01119601909C
:102B40000D928A95E1F7F60140815181238134810C
:102B500091E02115310531F05F3F19F491E04F3FCD
:102B600009F090E090FD99C0F6010281F580F294A1
:102B70009FE0F92249835A830B83722F3D832C8374
:102B8000602F8D810E949B07182FE92FE295EF702F
:102B9000EF3008F082C0F0E0E053FA4E0C94BE240F
:102BA000DF15DF151D161D169316C5164D164D168D
:102BB000DB164D16B117B1174D164D166D18F92FBE
:102BC000FF70FF2E907F19F0F29480EFF82200231F
:102BD000C9F0FF2039F080914F03F82AF0924F039B
:102BE0000E948511812F0F900F900F900F900F90E2
:102BF000DF91CF911F910F91FF90EF90DF90CF90D9
:102C00000C948513812F0E944312FF2009F445C0C4
:102C1000F09480914F03F822F0924F030F900F90A1
:102C20000F900F900F90DF91CF911F910F91FF9018
:102C3000EF90DF90CF900C948511892F8F70907F4B
:102C4000903211F08295807F112379F0113009F4D0
:102C500049C0002309F455C0FF2059F0F6019581C1
:102C600090FF8DC19F70958304C0002321F1F11066
:102C70000FC00F900F900F900F900F90DF91CF919A
:102C80001F910F91FF90EF90DF90CF900C9439122D
:102C900021E0F212EECF80934E030F900F900F9031
:102CA0000F900F90DF91CF911F910F91FF90EF90B8
:102CB000DF90CF900895F11011C010924E030F9045
:102CC0000F900F900F900F90DF91CF911F910F9168
:102CD000FF90EF90DF90CF900C942E1291E0F912BC
:102CE000ECCFDBCF002349F0E5E0EF15B0F2909197
:102CF0005003982309F4BDCFE2CFF4E0FF1568F24A
:102D0000DECFFF20E1F2812F0F900F900F900F90F8
:102D10000F90DF91CF911F910F91FF90EF90DF9077
:102D2000CF900C944312892F869586958370C1F0BD
:102D3000813009F0B2CF812F9370011102C090E071
:102D400080E00F900F900F900F900F90DF91CF9138
:102D50001F910F91FF90EF90DF90CF900C94F10FA7
:102D6000812F9370011102C090E080E00F900F90CE
:102D70000F900F900F90DF91CF911F910F91FF90C7
:102D8000EF90DF90CF900C941D10002389F00E94EB
:102D9000F5060F900F900F900F900F90DF91CF914D
:102DA0001F910F91FF90EF90DF90CF900C94DF1068
:102DB0000E94EE05EECF892F837009F064C00111E7
:102DC0006CCF812F829586958770880F880F412F51
:102DD0004F70C42ED12CF12CE12C082E04C0CC0C49
:102DE000DD1CEE1CFF1C0A94D2F740E050E0BA0153
:102DF00014FF11C00FE010E020E030E004C0000F2D
:102E0000111F221F331F8A95D2F7B901A8014095DF
:102E1000509560957095009167031091680320911B
:102E2000690330916A039695969593709230E9F014
:102E300028F5913089F04C295D296E297F2940239E
:102E40005123622373234093670350936803609375
:102E5000690370936A0321CFC02AD12AE22AF32A98
:102E60004C295D296E297F29EECF4C295D296E29D9
:102E70007F294027512762277327E5CF402351231D
:102E800062237323EDCF8695002311F0892F817083
:102E9000882309F402CF812F829586958770880F49
:102EA000880F412F4F70C42ED12CF12CE12C082E0D
:102EB00004C0CC0CDD1CEE1CFF1C0A94D2F740E0D1
:102EC00050E0BA0114FF11C00FE010E020E030E044
:102ED00004C0000F111F221F331F8A95D2F7B901BA
:102EE000A80140955095609570950091E802109169
:102EF000E9022091EA023091EB0296959695937043
:102F00009230E9F028F5913089F04C295D296E293D
:102F10007F2940235123622373234093E802509377
:102F2000E9026093EA027093EB02B7CE0C291D29E7
:102F30002E293F29402B512B622B732BEECF4C298E
:102F40005D296E297F294027512762277327E5CF06
:102F500040235123622373234C295D296E297F2945
:102F6000DCCF803F09F44EC0D0F480E4810F803282
:102F700070F1002309F4ACC0FF2009F4A6C0812F32
:102F80000E948513193309F099C0FFEF21EE84E008
:102F9000F15020408040E1F700C000007ECE823F2B
:102FA00009F470C008F45BC0833F19F7002309F4EB
:102FB0007CC0292F2F7181E090E0A0E0B0E004C038
:102FC000880F991FAA1FBB1F2A95D2F73AC0E12F7D
:102FD000E071FE2E892F8F71002351F00E94650849
:102FE000812F8295807FF11044CE812F8F7041CE4A
:102FF0000E944108812F8295807FF11060CE812F41
:103000008F705DCE002331F1F4E0FF1508F445CE5A
:10301000292F2F7181E090E0A0E0B0E004C0880F7C
:10302000991FAA1FBB1F2A95D2F74091E802509121
:10303000E9026091EA027091EB0284279527A627A6
:10304000B7278093E8029093E902A093EA02B09335
:10305000EB0223CE25E02F1508F41FCED9CF892F00
:103060008F71002399F00F900F900F900F900F9099
:10307000DF91CF911F910F91FF90EF90DF90CF9054
:103080000C946508892F8F71002369F30F900F90BE
:103090000F900F900F90DF91CF911F910F91FF90A4
:1030A000EF90DF90CF900C9441081092E8021092BC
:1030B000E9021092EA021092EB02EFCD133509F407
:1030C00064CF173409F0E9CD60CF892F8F71CBCF52
:1030D000F11019CE892F8F71D9CF8111DECD002348
:1030E00009F4DBCD0E94E6118FEF90E7E2E081501A
:1030F0009040E040E1F700C000000E9406090F93F5
:103100001F93CF93DF938091B502807FB9F48091B4
:10311000B202882399F08091E7021091B602609183
:10312000B0027091B102C091B302D091B40221E01B
:103130006F3F09F020E006E0181305C0DF91CF9142
:103140001F910F91089531E0209721F0322F7F3F9A
:1031500009F030E090E030FD33C0089FF001099F96
:10316000F00D1124DF01A954BD4F11963C91119728
:10317000371326C03C91361323C012963C91129708
:1031800031111EC013964D915C914C1B5D0B483C58
:103190005105B0F48091B5028F7080618093B502C3
:1031A000E454FD4F80818F708061808380EB92E0DA
:1031B0000E948D15DF91CF911F910F910C9485087E
:1031C00001968770B9CF9F92AF92BF92CF92DF9254
:1031D000EF92FF920F931F93CF93DF93CDB7DEB79C
:1031E00061970FB6F894DEBF0FBECDBF8C0185E0AE
:1031F000F801DE011D9601900D928A95E1F7F80124
:1032000040815181F280C380D4809091B00260915E
:10321000B1022091B3023091B40281E02115310551
:1032200031F06F3F19F481E09F3F09F080E0F82F03
:10323000F1709F2E80FD49C180EBA82E82E0B82E50
:10324000E090B202F601E21BF30BEE2009F400C19C
:103250008091B502782F707FE83CF10508F0BAC084
:10326000711181C0EF2C651322C0941320C0F1109E
:103270001EC08F7080618093B502C5010E948D15BC
:103280008091B502F80185838E2D61960FB6F89472
:10329000DEBF0FBECDBFDF91CF911F910F91FF9089
:1032A000EF90DF90CF90BF90AF909F90089581E016
:1032B000C114D10431F05F3F19F481E04F3F09F0B0
:1032C00080E080FD24C081E08F25F82FF170BF2EB3
:1032D00080FF3FC08091E7022091B60236E0821362
:1032E00018C07C2DD98AC88A6F2D89890E949B07B6
:1032F000292F22952F70223000F1243028F59F705D
:1033000001F1F8019581907FE1F4E92CBDCF80E0D7
:10331000DCCF90E0389FF001399FF00D1124E95483
:10332000FD4F6181561306C06081461303C0628160
:103330006F110FC001968770D2CF9F7011F0882354
:1033400021F3805E883008F3C8010E948D159B2C04
:10335000DCCFFF2009F498CF8091B5028160809383
:10336000B502E12C91CF651306C0941304C0F80197
:10337000FF2009F488C04D875E87FF867C2DD98A9F
:10338000C88A6F2D89890E948F08882309F4ABC0F1
:10339000FF2009F4A8C08091B502803270F020911E
:1033A000B0023091B10238872F831986DB86CA8636
:1033B0008C87CE0107960E948D1586E0F801A0EB60
:1033C000B2E001900D928A95E1F70E947F18EE24F9
:1033D000E3945ACF71110AC080EB92E00E948D15E0
:1033E00086E0F50111928A95E9F7BBCF65130FC00E
:1033F00094130DC0F1100BC0F8018583C8010E9421
:103400008D1586E0F50111928A95E9F73DCF4D873C
:103410005E87FF867C2DD98AC88A6F2D89890E9494
:103420008F08882309F45FC0FF2009F45CC08091F5
:10343000B502803210F22091B0023091B1023A838D
:1034400029831B82DD82CC828E83CE010196B3CF8D
:10345000E83CF105B0F6EF2CFF2009F444C06513F9
:103460001FC094131DC08091B50280FD10C0982F1D
:10347000907F69F0F8018583903F31F0982F907F1D
:10348000905F8F70892B8583C8010E948D1586E01F
:10349000F801A0EBB2E001900D928A95E1F7F4CE2D
:1034A0004D875E87FF867C2DD98AC88A6F2D8989D2
:1034B0000E948F08811181CF8091B5028160809335
:1034C000B502C8010E948D15DFCEFF2061F04D8747
:1034D0005E87FF867C2DD98AC88A6F2D89890E94D4
:1034E0008F0881116ACFC8010E948D1570CF1F937C
:1034F000CF93DF93CDB7DEB767970FB6F894DEBFF3
:103500000FBECDBF4B8B5C8B6D8B7E8B8F8B1A8AE6
:10351000198A85E0FE017396DE011D9601900D92D9
:103520008A95E1F786E0FE013D96DE01179601904F
:103530000D928A95E1F7CE0107960E94E31881115A
:1035400037C086E0FE013796DE01119601900D929C
:103550008A95E1F79F8188852A853B85232B39F061
:103560008F3F19F481E09F3F19F080E001C081E0B6
:1035700080FD1EC02091B60230E0C901019687701F
:1035800099274091E7024817190659F196E0929F52
:10359000D001939FB00D1124A954BD4FFE01319667
:1035A00001900D929A95E1F78093B6020E948508EA
:1035B00016E08091E7029091B6028917F9F0819F99
:1035C000C001112489549D4F0E94E3188823B1F053
:1035D0008091E70290E00196877099278093E70237
:1035E000E8CF0E94E6111092B6021092E70286E040
:1035F000E0EBF2E0DF011D928A95E9F767960FB6DE
:10360000F894DEBF0FBECDBFDF91CF911F9108951B
:10361000CF93DF9300D01F92CDB7DEB72091AA02DF
:10362000243041F520911A01222321F123E029833E
:103630009B838A8382E08093E9008FEF9091E8007A
:10364000815095FD06C095ED9A95F1F70000811126
:10365000F5CF8091E80085FF0DC050E040E063E0C9
:1036600070E0CE0101960E94060D8091E8008E77F1
:103670008093E8000F900F900F90DF91CF91089505
:10368000CF93DF9300D01F92CDB7DEB72091AA026F
:10369000243081F520911A01222361F119821A82C6
:1036A0001B8222E029838138910520F080589109FE
:1036B0009B838A8382E08093E9008FEF9091E800FA
:1036C000815095FD06C095ED9A95F1F700008111A6
:1036D000F5CF8091E80085FF0DC050E040E063E049
:1036E00070E0CE0101960E94060D8091E8008E7771
:1036F0008093E8000F900F900F90DF91CF91089585
:103700002091AA02243049F522E02093E9002FEF0E
:103710003091E800215035FD06C035ED3A95F1F7BE
:1037200000002111F5CF2091E80025FF16C020915F
:103730001A0150E040E063E070E0222339F021E01C
:103740002093F10050E040E065E070E00E94060D3B
:103750008091E8008E778093E8000895CF93DF93FF
:103760002091AA02243011F521E02093E90021E8FC
:10377000215021F03091E80035FF1BC02091E80076
:1037800025FF14C0EC0150E040E068E070E00E94CA
:10379000060D8091E8008E778093E80088E0FE01B6
:1037A000A7E9B2E001900D928A95E1F7DF91CF9100
:1037B0000895EFE3F1E03197F1F700C00000D8CFB2
:1037C000EF92FF920F931F93CF93DF9380916F023D
:1037D000909170020E948007892BF1F04C9905C0EE
:1037E00080916E02816080936E0280916E02909152
:1037F000830291608F3729F0803829F490918302F9
:103800009E7F90938302880F80936E020E948F07A1
:103810009093700280936F0280916C0290916D0280
:103820000E948007089710F480E078C080E191E062
:103830000E948A100E948F077C0190936D028093F2
:103840006C020E94D105EC010196B1F4C7010E94FF
:1038500080070497B0F30E94C0100E94860E81E09A
:10386000809384028FEF91EE24E0815090402040BD
:10387000E1F700C00000D8CF0E94D1058C0101966D
:1038800009F05BC0C7010E9480070497A8F30E945B
:10389000C0100E94860E81E0809384023FEF81EE8B
:1038A00094E0315080409040E1F7E3CF1F930F93B5
:1038B000DF93CF938AE991E09F938F930E94C8058D
:1038C0000F900F900F900F900F900F90209709F18D
:1038D000C038D10551F1FE0183E0F595E7958A9551
:1038E000E1F7EF70FF27E858FD4F2081AE014770E8
:1038F000552781E090E001C0880F4A95EAF7C7FF9D
:103900001AC0809582238083802F8F770E948E0E2D
:1039100004C087E991E00E942F0581E0DF91CF91FB
:103920001F910F91FF90EF900895802F07FFEECF2A
:1039300084E991E0F0CF822BE6CF80918402882346
:10394000C9F080E091E00E948A100E94DB0890E0BC
:1039500080FD92E082FD91E081FD93E0892F90E06F
:103960000E948A108FE39FE10197F1F700C00000E9
:1039700010928402C11591E0D90729F4011521E0C4
:10398000120709F451CFCE01802B912B90FF8ECFDF
:103990001F930F93DF93CF9384EA91E09F938F93CC
:1039A0000E94C8050F900F900F900F900F900F90EE
:1039B0003BCF78941F920F920FB60F9211248F93E2
:1039C0009F93AF93BF938091600390916103A09107
:1039D0006203B09163030196A11DB11D8093600342
:1039E00090936103A0936203B0936303BF91AF917F
:1039F0009F918F910F900FBE0F901F9018951F925F
:103A00000F920FB60F9211248F939F93AF93BF9392
:103A100080915103811113C08091600390916103E3
:103A2000A0916203B09163034196A11DB11D8093E3
:103A3000600390936103A0936203B0936303BF910B
:103A4000AF919F918F910F900FBE0F901F9018957F
:103A50001F920F920FB60F9211242F933F934F9303
:103A60005F936F937F938F939F93AF93BF93EF93E6
:103A7000FF938091E10082FF09C08091E20082FF04
:103A800005C08091E1008B7F8093E1008091DA0096
:103A900080FF1FC08091D80080FF1BC08091DA009A
:103AA0008E7F8093DA008091D90080FFBFC080E1D3
:103AB00089BD82E189BD09B400FEFDCF81E080931C
:103AC000AA0280919402811104C00E94E7080E941A
:103AD000320D8091E10080FF21C08091E20080FFE3
:103AE0001DC08091E2008E7F8093E2008091E20011
:103AF00080618093E2008091D80080628093D8003A
:103B000019BC85E08093AA02809196028093950269
:103B1000109296020E94860E0E94E6118091E100AA
:103B200084FF2FC08091E20084FF2BC080E189BD1B
:103B300082E189BD09B400FEFDCF8091D8008F7D60
:103B40008093D8008091E1008F7E8093E100809186
:103B5000E2008F7E8093E2008091E200816080939A
:103B6000E2008091A102882309F466C084E080937A
:103B7000AA020E94860E0E94E6118091950280930F
:103B800096028091E10083FF40C08091E20083FFB4
:103B90003CC08091E100877F8093E10082E08093C8
:103BA000AA021092A1028091E1008E7F8093E10031
:103BB0008091E2008E7F8093E2008091E20080613C
:103BC0008093E20042E060E080E00E94D20981E060
:103BD00080931B01109264031092960298E0E7E92B
:103BE000F2E0DF011D929A95E9F710924F021092D0
:103BF00050021092510210925202109253021092EF
:103C000054021092550280931A01FF91EF91BF91D7
:103C1000AF919F918F917F916F915F914F913F9164
:103C20002F910F900FBE0F901F90189519BC1092F6
:103C3000AA02109294024DCF8091E30087FD02C04A
:103C400081E095CF83E093CFCF93DF93CDB7DEB7FD
:103C50002C970FB6F894DEBF0FBECDBF84B7877F19
:103C600084BF0FB6F894A895809160008861809316
:103C70006000109260000FBE80E890E00FB6F894EC
:103C800080936100909361000FBE8EEB9DE0909356
:103C90004D0180934C0180E191E090934D0380931E
:103CA0004C0383E192E00E942F0554985C9A109295
:103CB00080008AE08093810088E690E090938900FC
:103CC0008093880082E080936F00E0912201F09160
:103CD00023013097E1F042918091240121E030E00E
:103CE000B90102C0660F771F8A95E2F7CB01809574
:103CF00084238083E0912201F091230180819091BF
:103D0000240101C0220F9A95EAF7282B2083E09125
:103D10002501F09126013097C9F0229130912701B9
:103D200081E090E0AC0101C0440F3A95EAF7242B02
:103D30002083E0912501F091260120813091270117
:103D400001C0880F3A95EAF7822B80838091690041
:103D5000826080936900E89A78940E94E7080E9444
:103D6000320D789482E084BD93E095BD9AEF97BDC3
:103D700080936E000E94860E81E080938402809181
:103D8000AA02843009F058C10E94960D882309F4D4
:103D900053C181E092E00E942F050E94C0107FEF86
:103DA00081EE94E0715080409040E1F700C0000047
:103DB00083EF91E00E942F05F8EC4F2EF1E05F2E8B
:103DC000A0EE6A2EA1E07A2EB8EECB2EB1E0DB2E6B
:103DD0008091AA02853009F432C1809176029091D7
:103DE00077020E9480070897B0F081E191E00E947D
:103DF0008A100E948F075C0190937702809376026D
:103E00000E94D1058C01019609F053C1C5010E94A1
:103E100080070497A8F30E94E01B06E812E0E8E799
:103E2000AE2EE2E0BE2E312CF50121905F01F801AB
:103E30009080921409F466C08091660381FF3EC0B1
:103E400083ED91E00E942F0528E732E03C872B8725
:103E5000F12CE12CEB85FC852191FC87EB872295E9
:103E600030E0C901880F991F880F991F8C7C359508
:103E70002795359527952373822B90E02CE231E02E
:103E80003F932F939C01220F331F2A7A9595879594
:103E90008575822B1F928F93FF92EF925F924F92C4
:103EA0000E94C8056FEFE61AF60A0FB6F894DEBF57
:103EB0000FBECDBF9CE0E916F10461F6E12CFF24B2
:103EC000F3949224892D8F21C1F0E9823A8291E006
:103ED0008F2D822109F490E09B830E948F078160DF
:103EE000782F9D838C8349815A816B818D810E94BB
:103EF000771AF80180818F258083E394FF0CF8E026
:103F0000EF12E0CF33940F5F1F4F2CE032128CCFB3
:103F10008FEF8E838F8318860E948F078160782FA2
:103F20009A8789874E815F8168858A850E94771A82
:103F30008091590390915A030E948007AC0190919F
:103F400053032091200130E0911106C020912101FE
:103F50006AE0269F900111244217530780F0809158
:103F60005C03F0905D0300915E0310915F0381118B
:103F700048C1F1102BC2011129C2111127C20E94A0
:103F8000DB0890918502891711F10E94DB0880936C
:103F90008502909166039570953051F41F928F932E
:103FA000DF92CF920E94C8050F900F900F900F9054
:103FB0008091850271E0709384021F928F937F92AB
:103FC0006F920E94C8050F900F900F900F90209154
:103FD000E4003091E50080919202909193022817BD
:103FE000390739F18091E4009091E50090939302B4
:103FF000809392020E94960D8823D9F08091AA02A4
:104000008430B9F48091E9008F709091EC0090FFBA
:1040100066C190E8892B93E09093E9009091EB00C2
:1040200090FF04C09091EE0097FD77C18F70809350
:10403000E9000E94040ACCCE0E94040AA0CE80911E
:10404000AA02843021F11092510388E190E020E42B
:104050000FB6F894A895809360000FBE209360007F
:1040600083B7817F846083BF83B7816083BF789487
:10407000889583B78E7F83BF0FB6F894A8958091FB
:104080006000886180936000109260000FBE809194
:10409000A002882309F49CCE0E94E01BE8E7F2E02E
:1040A00084E892E0219121115CC18E179F07D1F71E
:1040B0008FCE0E94D1057C01019609F068C1C5012F
:1040C0000E9480070497A8F3A6CE8091660380FF24
:1040D00010C0FF92EF921F930F938FEA91E09F938E
:1040E0008F930E94C8050F900F900F900F900F9024
:1040F0000F901B821C821D82C80180959095817053
:104100009927282FE0FE22602983059501950A83CF
:10411000E594E194EB8285E0FE013196A4E5B3E0FD
:1041200001900D928A95E1F7809154039091750268
:1041300081FF36C08D7F80935403911109C00E9486
:104140008F07909374028093730231E0309375026D
:104150008091560390917202890F082E000C990BE2
:104160006AE070E00E94AA246195609357038093EF
:104170007202109258031092550310925603662350
:1041800019F082E0809375028091540390915B0353
:10419000892B8093540384E593E00E9449103BCE21
:1041A000913041F580917302909174020E948007D2
:1041B000883C9105F8F48091540382608093540305
:1041C0001092550310925603109257031092580301
:1041D00084E593E00E9449104FEF61EE74E0415096
:1041E00060407040E1F700C00000809154038D7F73
:1041F000809354031092750210927402109273020D
:10420000C3CF9F3F19F09F5F90935303181624F478
:104210000E94AB0680935C0380915C0387FF05C01E
:104220000E94AB06819580935C031F1424F40E94C6
:10423000AB0680935D0380915D0387FF05C00E94FC
:10424000AB06819580935D0360915C03662331F139
:10425000F0905D03FF2011F1062E000C770B880B08
:10426000990B0E94B12323E333E343E35FE30E940E
:1042700015240E94792360935C036F2DFF0C770B4C
:10428000880B990B0E94B12323E333E343E35FE3FD
:104290000E9415240E94792360935D03101624F474
:1042A0000E94720680935E0380915E0387FF05C0C3
:1042B0000E947206819580935E03111624F40E9479
:1042C000720680935F0380915F0387FF05C00E94A1
:1042D0007206819580935F030E94DF1050CE90E0BC
:1042E00099CEE0910B01F0910C01E90FF11D2081B5
:1042F0009F5F30910F01932390930E012093F10063
:104300009091E80095FD09C09091E80090FF05C0EC
:104310009091E8009E779093E80090910E01209193
:104320000D01291721F02091E80025FDDACF209119
:10433000F3009091F200322F292F232B09F476CE2F
:104340009091E80090FF72CE9091E80095FD06C034
:104350009091E8009E779093E80068CE1092F1006B
:10436000F3CF80E189BD82E189BD09B400FEFDCFB4
:104370008091D8008F7D8093D8008091E00082608A
:104380008093E0008091E00081FDFCCF21CD0115FC
:1043900081E0180729F4E11421E0F20609F43BCD8D
:1043A000C701802B912B90FF90CEFF92EF921F932D
:1043B0000F938BEB91E09F938F930E94C8050F9012
:1043C0000F900F900F900F900F9025CD9F3F09F009
:1043D0001ACF2BCF1F920F920FB60F9211242F934B
:1043E0003F934F935F936F937F938F939F93AF937D
:1043F000BF93EF93FF9380916B02893008F5813072
:10440000C0F1E0912501F09126019091270121E072
:1044100030E001C0220F9A95EAF74091690250916D
:104420006A02A82FA150BB0B02C055954795AA95CB
:10443000E2F7908140FF55C0292B20838F5F4EC04B
:104440008A3009F46BC008F44FC08B3009F477C090
:10445000FF91EF91BF91AF919F918F917F916F915C
:104460005F914F913F912F910F900FBE0F901F9032
:104470001895E0912A01F0912B0183819281981384
:1044800007C08FEF9FEF90936A0280936902E0CF9D
:10449000282F30E0220F331FA081B181A20FB31F5C
:1044A0002D913C918F5F94818923838330936A029D
:1044B000209369022F3F3F4F59F2E0912501F0917F
:1044C000260120813091270181E090E001C0880F12
:1044D0003A95EAF780958223808381E080936B028E
:1044E000B7CF20952923A9CFE0912501F09126018E
:1044F0002091270181E090E001C0880F2A95EAF71A
:104500002091690230916A02908130FF04C0892BAA
:1045100080838AE0E3CF80958923FACFE09125015B
:10452000F091260180819091270121E030E001C0C7
:10453000220F9A95EAF7822B80838BE0CFCF1092DF
:104540006B0210926A021092690282CF1F920F9240
:104550000FB60F9211242F933F934F935F936F9356
:104560007F938F939F93AF93BF93CF93DF93EF93FB
:10457000FF93809122019091230140912401209189
:1045800068022930C8F4213070F130916702369505
:10459000309367020297FC01808190E002C09595FC
:1045A00087954A95E2F780FF03C030683093670231
:1045B0002F5F2093680204C02930C9F02A3029F106
:1045C000FF91EF91DF91CF91BF91AF919F918F912B
:1045D0007F916F915F914F913F912F910F900FBEFF
:1045E0000F901F90189581E080936802E9CF0297A1
:1045F000FC01808190E002C0959587954A95E2F78D
:104600008170809366028AE0EFCF0297FC0180817F
:1046100090E002C0959587954A95E2F780FF20C00B
:10462000C0912801D0912901CE010E94AE0D8111C7
:1046300017C08A8190E0880F991F28813981820FE5
:10464000931F209166023091670223273227232788
:10465000FC01318320838A818F5F9C8189238A8337
:10466000B19A80916F00826080936F0080916F009B
:104670008B7F80936F00B29AE09AE89A109268025A
:10468000109267029DCF1F920F920FB60F921124C6
:104690008F939F938091840090918500C39690930F
:1046A0008B0080938A0080918A0090918B008936DC
:1046B000910550F080918A0090918B008856910965
:1046C00090938B0080938A0080916F008D7F809300
:1046D0006F00B19AB29A80916F00846080936F00EE
:1046E000E898E09A9F918F910F900FBE0F901F90C6
:1046F00018950E9480236894B1110C940F2408959A
:104700000E94F42388F09F5798F0B92F9927B7514A
:10471000B0F0E1F0660F771F881F991F1AF0BA9565
:10472000C9F714C0B13091F00E940E24B1E0089591
:104730000C940E24672F782F8827B85F39F0B93F83
:10474000CCF3869577956795B395D9F73EF4909518
:104750008095709561957F4F8F4F9F4F0895E89496
:1047600009C097FB3EF490958095709561957F4FB9
:104770008F4F9F4F9923A9F0F92F96E9BB27939567
:10478000F695879577956795B795F111F8CFFAF477
:10479000BB0F11F460FF1BC06F5F7F4F8F4F9F4FA8
:1047A00016C0882311F096E911C0772321F09EE806
:1047B000872F762F05C0662371F096E8862F70E06C
:1047C00060E02AF09A95660F771F881FDAF7880F46
:1047D0009695879597F9089557FD9058440F551F62
:1047E00059F05F3F71F04795880F97FB991F61F073
:1047F0009F3F79F087950895121613061406551FEA
:10480000F2CF4695F1DF08C0161617061806991F55
:10481000F1CF86957105610508940895E894BB274A
:1048200066277727CB0197F908950E9428240C94D6
:1048300099240E948B2438F00E94922420F0952322
:1048400011F00C9482240C94882411240C940F24CD
:104850000E94EC2370F3959FC1F3950F50E0551F14
:10486000629FF001729FBB27F00DB11D639FAA27C5
:10487000F00DB11DAA1F649F6627B00DA11D661F14
:10488000829F2227B00DA11D621F739FB00DA11D35
:10489000621F839FA00D611D221F749F3327A00DEF
:1048A000611D231F849F600D211D822F762F6A2F8B
:1048B00011249F5750409AF0F1F088234AF0EE0FF0
:1048C000FF1FBB1F661F771F881F91505040A9F71D
:1048D0009E3F510580F00C9482240C940F245F3F7E
:1048E000E4F3983ED4F3869577956795B795F79559
:1048F000E7959F5FC1F7FE2B880F911D96958795D1
:1049000097F9089597F99F6780E870E060E008954F
:104910009FEF80EC089500240A94161617061806D7
:104920000906089500240A941216130614060506B3
:104930000895092E0394000C11F4882352F0BB0F44
:1049400040F4BF2B11F460FF04C06F5F7F4F8F4FA7
:104950009F4F089597FB072E16F4009407D077FD1C
:1049600009D00E94C42407FC05D03EF4909581959F
:104970009F4F0895709561957F4F0895EE0FFF1F2B
:104980000590F491E02D0994AA1BBB1B51E107C0CF
:10499000AA1FBB1FA617B70710F0A61BB70B881FCF
:1049A000991F5A95A9F780959095BC01CD0108955E
:0449B000F894FFCFA9
:1049B40056020000035E02000003054E010000FFE2
:1049C400930DAE1B801B401B081B01012808140A11
:1049D400321E2B00002B00010501000100407F2244
:1049E4004D01CE00AC003E025702700201020304E6
:0C49F40005060708090000080004000286
:106800000000000000000000040005000600070072
:10681000080009000A000B000C000D000E000F001C
:1068200010001100120013001400150016001700CC
:10683000180019001A001B001C001D001E001F007C
:10684000200021002200230024002500260027002C
:10685000280000002A002B002C002D002E002F0005
:1068600030003100000033003400290036003700CA
:106870003800E00000000000000000000000000000
:106880000000000000000000000000000000000008
:106890000000E944E2444B00EA4400004E004F008F
:1068A0005000510052003500310054005500560090
:1068B000580059005A005B005C005D005E005F00FC
:1068C00060006100620063000000F1A15700000059
:1068D00000000000000000000000000000000000B8
:1068E00000000000000000000000000000000000A8
:1068F000E200E1000000E300E600E5000000000027
:106900000100010001000100EA4401000601E24427
:106910000100010001005500460054004A004B00F0
:10692000560057004700480031000100E9440100CB
:106930000100190101001B0101001D013A003B008B
:106940003C003D003E003F0040004100420043004B
:10695000010001004C0039000100440045005200D4
:1069600049000100010050004F0035004D004E006D
:1069700051000100010001000100010001000100BF
:1069800001000100010001000100010001000100FF
:1069900001000100010001000100010001004D00A3
:1069A0004A004E004B0053000100010001000100AD
:1069B00001000100010001000100010001000100CF
:1069C00001000100010001000100010001000100BF
:1069D00001000100010001000100010001000100AF
:1069E000010001000100010001000100010001009F
:1069F000010001000100010001000100010001008F
:00000001FF
