:100000000C94A4040C94D5220C9405050C940505BD
:100010000C9405050C9405050C9405050C94050538
:100020000C9405050C9405050C9405050C94A51C71
:100030000C9405050C947C1C0C9405050C947C21F7
:100040000C9438220C9405050C9405050C94561C50
:100050000C9405050C9405050C9405050C940505F8
:100060000C9405050C9405050C9405050C940505E8
:100070000C9405050631FF0974A1010975150026C8
:10008000FF009520750881020976150026FF00956E
:100090002075089102C005010902A1010901A10012
:1000A0008501050919012908150025019508750123
:1000B00081020501093009311581257F95027508F6
:1000C000810609381581257F950175088106050C83
:1000D0000A38021581257F950175088106C0C00583
:1000E000010980A10185021601002637001A81004E
:1000F0002AB700751095018100C0050C0901A10106
:100100008503160100269C021A01002A9C02751024
:1001100095018100C005010906A101050719E02923
:10012000E715002501950875018102950175088183
:1001300001050819012905950575019102950175BB
:100140000391010507190029FF150026FF009506F8
:1001500075088100C0732530335820003F20003FD0
:1001600020002530325825303258200025303358B1
:10017000253033583F20004D3A2530325825303253
:100180005820004D3A25303358253033583F200051
:1001900025583A2530386225730A000A202030316C
:1001A0003233343536370A004C3A25303258200085
:1001B0004C45443A20253032580A000A4C6F6F7083
:1001C0002073746172742E0A000A55534220636FC3
:1001D0006E666967757265642E0A000A544D4B3A63
:1001E0006534303639352F4C5546413A64366137DF
:1001F00064660A0009025400030100A032090400E9
:100200000001030101000921110100012240000742
:1002100005810308000A0904010001030102000925
:100220002111010001227F00070582030800010956
:100230000402000103000000092111010001222233
:1002400000070583032000011201100100000008CF
:10025000EDFEBCBC00060102000130034E0065004B
:100260005800540020006B006500790062006F00A8
:10027000610072006400200063006F006E00760071
:1002800065007200740065007200000008035400ED
:100290004D004B000000040309040A6D6F7573657F
:1002A0003A205B253032587C256420256420256463
:1002B0002025645D200073797374656D3A202530C4
:1002C00034580A00636F6E73756D65723A2025307D
:1002D00034580A003F004D3E2000433E20000A00F3
:1002E000257500363A20776865656C5F74696D65C1
:1002F0005F746F5F6D61783A20000A0025750035E4
:100300003A20776865656C5F6D61785F73706565CD
:10031000643A20000A00257500343A2074696D653E
:100320005F746F5F6D61783A20000A0025750033B5
:100330003A206D61785F73706565643A20000A0049
:10034000257500323A20696E74657276616C286D8D
:1003500073293A20000A00257500313A2064656C43
:100360006179282A31306D73293A20000A092D203D
:1003700056616C756573202D0A004D3E004D256455
:100380003E20003F007365742064656661756C747F
:100390000A00433E20000A002530325820006B65D9
:1003A00079626F6172643A2000804E4C31302F0CBC
:1003B0001213508062635880514F595C5E5B6652E5
:1003C0005A5D4B492A2E2D2526275F6061575653CB
:1003D0005455802834330F3637381D1B0619051045
:1003E000112C041607090A0E0D0B2B141A081518E8
:1003F0001C17351E1F20212423227C78657B7D79E4
:10040000394A80808080808080290A002575002FED
:10041000002575005D28002564002000256400206B
:100420000025640020002564007C0025303258003F
:100430006D6F7573656B6579205B62746E7C782077
:1004400079207620685D287265702F61636C293A87
:10045000205B000A092D204D61676963202D0A6425
:100460003A0964656275670A783A09646562756776
:10047000206D61747269780A6B3A09646562756708
:10048000206B6579626F6172640A6D3A0964656216
:100490007567206D6F7573650A763A0976657273B4
:1004A000696F6E0A733A097374617475730A633AFB
:1004B00009636F6E736F6C65206D6F64650A302D14
:1004C000343A096C61796572302D34284631302D0B
:1004D0004634290A506175733A09626F6F746C6F04
:1004E000616465720A000A092D20436F6E736F6C98
:1004F00065202D0A4553432F713A09717569740AB5
:100500006D3A096D6F7573656B65790A003F00740C
:10051000696D65725F72656164333228293A2025FE
:1005200030346C580A006B6579626F6172645F6980
:10053000646C653A2025580A006B6579626F6172B8
:10054000645F70726F746F636F6C3A2025580A0095
:10055000686F73745F6B6579626F6172645F6C65FD
:10056000647328293A2025580A000A092D2053745B
:1005700061747573202D0A004743433A20372E33A8
:100580002E30204156522D4C4942433A20322E30D3
:100590002E30204156525F415243483A20617672D4
:1005A00033350A004F5054494F4E533A204C55466C
:1005B00041204D4F5553454B4559204558545241C4
:1005C0004B455920434F4E534F4C4520434F4D4DC3
:1005D000414E44204B45594D41505F53454354498A
:1005E0004F4E20424F4F544C4F414445525F534968
:1005F0005A450A004255494C443A20653430363950
:1006000035202832313A33303A3233204F63742068
:1006100031332032303234290A005649443A2030EE
:10062000784645454428544D4B29205049443A20AA
:10063000307842434243284E655854206B657962B6
:100640006F61726420636F6E7665727465722920C3
:100650005645523A203078303630300A00444553FF
:10066000433A204445534352495054494F4E0A009F
:100670000A092D2056657273696F6E202D0A000AD3
:100680006D6F7573653A206F66660A000A6D6F7547
:1006900073653A206F6E0A000A6B6579626F61724A
:1006A000643A206F66660A000A6B6579626F617250
:1006B000643A206F6E0A000A6D61747269783A209C
:1006C0006F66660A000A6D61747269783A206F6E0F
:1006D0000A000A64656275673A206F6E0A000A6450
:1006E000656275673A206F66660A000A0A626F6F74
:1006F000746C6F616465722E2E2E2000433E2000C4
:100700006D6B5F776865656C5F74696D655F746F4D
:100710005F6D6178203D2025640A006D6B5F77680E
:1007200065656C5F6D61785F7370656564203D2001
:1007300025640A006D6B5F74696D655F746F5F6D32
:100740006178203D2025640A006D6B5F6D61785FE4
:100750007370656564203D2025640A006D6B5F69D8
:100760006E74657276616C203D2025640A006D6BA5
:100770005F64656C6179203D2025640A006D6B5FC4
:10078000776865656C5F74696D655F746F5F6D61D7
:1007900078203D2025640A006D6B5F776865656C85
:1007A0005F6D61785F7370656564203D2025640A24
:1007B000006D6B5F74696D655F746F5F6D6178204C
:1007C0003D2025640A006D6B5F6D61785F73706515
:1007D0006564203D2025640A006D6B5F696E746559
:1007E0007276616C203D2025640A006D6B5F646544
:1007F0006C6179203D2025640A0077686572652068
:1008000064656C74613A20637572736F723D256420
:100810002C20776865656C3D25640A536565206802
:100820007474703A2F2F656E2E77696B69706564EA
:1008300069612E6F72672F77696B692F4D6F7573C2
:10084000655F6B6579730A000A092D204D6F75731A
:10085000656B6579202D0A4553432F713A097175EF
:1008600069740A313A0964656C6179282A31306DFE
:1008700073290A323A09696E74657276616C286D63
:1008800073290A333A096D61785F73706565640A8C
:10089000343A0974696D655F746F5F6D61780A350C
:1008A0003A09776865656C5F6D61785F737065653F
:1008B000640A363A09776865656C5F74696D655FCF
:1008C000746F5F6D61780A0A703A097072696E74AC
:1008D0002076616C7565730A643A097365742064E7
:1008E000656661756C74730A75703A092B310A6418
:1008F0006F776E3A092D310A706775703A092B319E
:10090000300A7067646F776E3A092D31300A0A73C6
:1009100070656564203D2064656C7461202A206DDB
:1009200061785F7370656564202A20287265706540
:100930006174202F2074696D655F746F5F6D6178DD
:10094000290A004C25640A0011241FBECFEFD4E011
:10095000DEBFCDBF04B603FE41C08091EB02909193
:10096000EC02A091ED02B091EE028730904BA740CF
:10097000B04BA1F51092EB021092EC021092ED0236
:100980001092EE0214BE0FB6F894A8958091600004
:10099000886180936000109260000FBE1092010881
:1009A0001092000889E0E3E0F0E080935700E491C2
:1009B000E695E370E15080E090E1E33040F4F0E050
:1009C000EE0FFF1FEA5BFE4F8081918100C0E0E0E7
:1009D000F0E8E81BF90BF695E795099511E0A0E022
:1009E000B1E0EAE0F9E402C005900D92AC34B10741
:1009F000D9F722E0ACE4B1E001C01D92AB3EB207F2
:100A0000E1F70E94781D0C9483240C940000FF935E
:100A1000EF93E0914C01F0914D01309709F0099569
:100A2000EF91FF910895FC018591803011F0EFDF87
:100A3000FBCF0895FF27E0E230E247FF0CC041956D
:100A400097FF09C0EDE26095709580959095611DC6
:100A5000711D811D911D27FF02C0219530E350E2D9
:100A6000AA27660F771F881F991FAA1FA41710F0C7
:100A7000A41B63955A95A9F7AA3008F0A95FA05D59
:100A8000AF93F395611571058105910541F7ED323D
:100A900011F4EF93F395F21718F43F93F395FBCF0E
:100AA0008F91B5DFFA95E1F70895E991F991859174
:100AB000803021F0853219F0AADFF9CF089520E0C7
:100AC000E89455915532C1F3503311F4689455911F
:100AD0005A3348F4505390F3220F022E220F220F64
:100AE000200D250FF4CF0EF421958991999153365D
:100AF00019F3533729F1533559F1BC018827992748
:100B0000E8945C3621F48991999168945591543612
:100B100039F446EF7EF077FF0DC08FEF9FEF0AC0EC
:100B200055374AE039F0583540E121F0523642E07D
:100B300009F00895FF93EF937DDFEF91FF91B7CF19
:100B4000FF93EF93FC0181918030B9F360DFFBCF1D
:100B5000FF93EF9368DFF1CFDF93CF93CDB7DEB78D
:100B60002596A3DFCF91DF910895F894E0912801B5
:100B7000F091290123818281821789F0822F90E0F0
:100B8000880F991FA081B181A80FB91F8C91119670
:100B90009C912F5F348123232383789408958FEFD2
:100BA0009FEFFBCF803FC1F48091DD0287FD109263
:100BB000DD028091DC0281110EC08091DD02811185
:100BC0000AC08091DE02811106C08091DF0281118E
:100BD00002C01092D3020895813F29F48091DD0272
:100BE00018162CF3E6CF9091DC02823F29F497FF90
:100BF000E0CF1092DC02DDCF833F19F41916CCF35D
:100C0000D8CF893F39F48091DE02181694F61092FD
:100C1000DE02CFCF8A3F29F48091DE0287FFC9CF61
:100C2000F6CF8B3F39F48091DF0287FFC2CF10925D
:100C3000DF02BFCF8C3F29F48091DF021816BCF38E
:100C4000B8CF843F31F48091DB028E7F8093DB024A
:100C5000B0CF853F21F48091DB028D7FF7CF863FB7
:100C600021F48091DB028B7FF1CF873F21F48091CB
:100C7000DB02877FEBCF883F21F48091DB028F7E00
:100C8000E5CF8D3F31F48091D2028E7F8093D202E6
:100C900090CF8E3F21F48091D2028D7FF7CF8F3F8E
:100CA00009F087CF8091D2028B7FF0CF8091D20262
:100CB00080FF0CC060911D0170E07595679575957A
:100CC00067956115710559F1862F089581FF06C05A
:100CD00060911D0170E075956795F3CF60911D01DE
:100CE00070E082FD0CC06091D3026623A9F02091D0
:100CF0001C0180911D0190E0621730F0BC0160384A
:100D00007105F8F28FE7089570E00E944424622F85
:100D100070E00E945524F3CF61E070E0D5CF81E010
:100D200008958091D20280FF11C080911F0190E050
:100D300065E070E00E944424959587959595879588
:100D400080389105B0F50097B1F1089581FF0AC090
:100D500080911F0190E065E070E00E944424959529
:100D60008795EECF82FF08C080911F0190E065E07B
:100D700070E00E944424E4CF3091D3023323B1F0D9
:100D800020911E0180911F0190E065E070E00E94BB
:100D90004424BC013217A0F6832F90E00E94442423
:100DA000622F70E00E945524CB01CACF85E090E00D
:100DB00008958FE7089581E00895803F31F40E94FF
:100DC000910681958093DD020895813F19F40E9478
:100DD0009106F8CF823F31F40E949106819580936D
:100DE000DC020895833F19F40E949106F8CF893FF1
:100DF00029F40E9456068093DE0208958A3F21F46A
:100E00000E9456068195F7CF8B3F31F40E9456061B
:100E100081958093DF0208958C3F19F40E94560655
:100E2000F8CF843F31F48091DB0281608093DB0254
:100E30000895853F21F48091DB028260F7CF863FE1
:100E400021F48091DB028460F1CF873F21F480910F
:100E5000DB028860EBCF883F21F48091DB02806168
:100E6000E5CF8D3F31F48091D20281608093D20230
:100E700008958E3F21F48091D2028260F7CF8F3F98
:100E8000B9F78091D2028460F1CFE72FF0E093E0D0
:100E9000EE0FFF1F9A95E1F7E60FF11DE755FC4FA6
:100EA0006491E62FE295E77090E023E0880F991FA8
:100EB0002A95E1F78E0F911D34E0880F991F3A951E
:100EC000E1F7E62FEF70E80FF92FF11DEE0FFF1F8E
:100ED000E050F8498591949108959C014FB7F8949A
:100EE0008091E0029091E102A091E202B091E302D0
:100EF0004FBF821B930B08952FB7F8948091E002A7
:100F00009091E102A091E202B091E3022FBF089517
:100F10004F925F926F927F929F92AF92BF92CF92C9
:100F2000DF92EF92FF920F931F93CF93DF9300D046
:100F300000D01F92CDB7DEB76B837C838D837A019F
:100F40008C819D81892B49F08FEFF81204C081E0DC
:100F50009FEF491719F080E001C081E080FD67C074
:100F60000F2D10E0CE2CD12C8B81882309F453C097
:100F7000409068025090690260906A0270906B0223
:100F80008091E7029091E802A091E902B091EA0213
:100F9000482A592A6A2A7B2A2FE1A22EB12C9A2CA0
:100FA000D301C2010A2C04C0B695A79597958795E1
:100FB0000A94D2F780FD28C081E0A81AB10878F71A
:100FC000912CF80193E0EE0FFF1F9A95E1F7E45999
:100FD000FD4FEC0DFD1D9082B701892D0F900F90F4
:100FE0000F900F900F90DF91CF911F910F91FF9075
:100FF000EF90DF90CF90BF90AF909F907F906F90D9
:101000005F904F900C944507B7018A2D0E944507C9
:10101000019791F2D6CFF80183E0EE0FFF1F8A957A
:10102000E1F7E459FD4FEC0DFD1D9080D5CF90E028
:1010300080E00F900F900F900F900F90DF91CF9165
:101040001F910F91FF90EF90DF90CF90BF90AF90E6
:101050009F907F906F905F904F90089541E050E097
:1010600060E070E004C0440F551F661F771F8A952B
:10107000D2F7409550956095709580916802909157
:101080006902A0916A02B0916B0284239523A62382
:10109000B7238093680290936902A0936A02B09389
:1010A0006B02089541E050E060E070E004C0440F3E
:1010B000551F661F771F8A95D2F78091680290911D
:1010C0006902A0916A02B0916B02842B952BA62B2A
:1010D000B72B8093680290936902A0936A02B09341
:1010E0006B0208958091670290913602981301C0B7
:1010F00008958F5F8770FACF1F93CF93DF9300D04F
:1011000000D01F92CDB7DEB7942F4983252F5A8385
:101110006B837C838D834C815D8181E0452B31F035
:101120002F3F19F481E09F3F09F080E0182F1170E4
:1011300080FD2CC049815A816B817C818D810E9408
:101140008807292F22952F702C3078F42A30A8F4A4
:1011500022502230C8F0812F0F900F900F900F90E7
:101160000F90DF91CF911F9108952C3011F02F3007
:1011700091F793FB112710F9EECF803C28F0803EC9
:1011800050F3815F833038F311E0E5CF10E0E3CF17
:10119000E091CC02F091CD02309721F00190F081E6
:1011A000E02D099480E008951092E2001092E10091
:1011B000E0EEF0E0808181608083E8EDF0E0808106
:1011C0008F77808319BCE3E6F0E0808181608083C3
:1011D0001092140208950E94D408F89487E797E7C4
:1011E000909301088093000887E090EBDC018093E6
:1011F000EB029093EC02A093ED02B093EE0288E133
:101200009CE00FB6F894A895809360000FBE909371
:101210006000FFCFFC01809128029091290286177F
:101220009707A0F06115710529F49091E8009E7769
:101230009093E80090E06115710551F4911108C098
:101240008091E80082FF32C080E00895BC01F2CFB7
:1012500080912A028823B1F18530B1F18091E800B4
:1012600083FD2EC08091E80082FDEACF8091E800E6
:1012700080FFE1CF2091F20030E06115710519F097
:101280002830310558F091E02830310509F090E020
:101290002091E8002E772093E800CDCF81918093B4
:1012A000F100615071092F5F3F4FE7CF80912A0213
:1012B000882341F0853041F08091E80083FFC0CF62
:1012C00081E0089582E0089583E008952091E4008C
:1012D0003091E50085E69091EC0090FF06C090917A
:1012E000E80090FF06C080E008959091E80092FD2C
:1012F000FACF90912A02992391F0953091F0909134
:10130000EB0095FD10C04091E4005091E5002417DA
:10131000350709F381509A01F1F684E0089582E0DF
:10132000089583E0089581E008958091220287FF67
:1013300013C08091E80082FF06C08091E8008B779F
:101340008093E80004C080912A028111F2CF0895B1
:1013500080912A028823D9F38091E80080FFF8CF9A
:101360008091E8008E77ECCF982F9093E900242F9E
:10137000762F50E0891731F07091EC002091ED004C
:101380005091F00021FD07C09F5F953071F7809369
:10139000E90081E008953091EB003E7F3093EB004F
:1013A0003091ED003D7F3093ED003091EB003160E6
:1013B0003093EB007093EC002093ED005093F0001D
:1013C0002091EE0027FDE0CF80E008950F931F935A
:1013D000CF93DF93CDB7DEB7AA970FB6F894DEBFF1
:1013E0000FBECDBF80912A02882309F44EC110910F
:1013F000E9001F708091EC0080FF39C080E8182B55
:101400001092E9008091E80083FF3CC1E2E2F2E043
:101410008AE292E02091F10021938E179F07D1F785
:1014200080912302833009F470C018F5813009F4EB
:1014300047C0823009F4DAC08091E80083FF14C10C
:1014400080912202909123029A3008F00DC1E92F79
:10145000F0E0E35DF54F0C946924070B2D0B340B82
:101460002D0B340B8F0BB10B340BAC0CB90C80E093
:10147000C6CF8A3009F4A9C08B3009F47DC0893009
:10148000D9F6809122028132B9F68091260290919C
:101490002702892B89F68091E800877F8093E800F6
:1014A0008091E80082FF2CC08091F10080931602A9
:1014B0008091E8008B778093E8000E949509BCCF6B
:1014C00080912202813A09F0B7CF8091E800877FAE
:1014D0008093E8008091260290912702892B61F089
:1014E00060E090E080E070E00E940A098091E800EE
:1014F0008B778093E800A0CF68E087E192E0F3CF9C
:1015000080912A028111CCCF97CF80912202813A1B
:1015100009F092CF8091260290912702892BA1F4A5
:101520008091E800877F8093E8008091E80080FF49
:10153000FCCF80911B018093F1008091E8008E77B1
:101540008093E8000E9495098091260290912702DD
:10155000019709F071CF8091E800877F8093E800C0
:101560008091E80080FFFCCF80911A018093F10008
:101570008091E8008E779FCF80912202813209F01E
:101580005BCF8091260290912702892B59F480919C
:10159000E800877F8093E8000E94950980912402EB
:1015A00080931B018091260290912702019709F0F8
:1015B00043CF8091E800877F8093E8000E949509DF
:1015C0008091240280931A0137CF809122028132C8
:1015D00009F032CF8091E800877F8093E8000E9475
:1015E0009509809125028093E40226CF8091220202
:1015F000813A09F021CF8091E800877F8093E8004D
:101600008091E80080FFFCCF8091E402AFCF80386A
:1016100089F0823849F5809126028F70853020F557
:101620008093E9008091EB0085FB882780F9109278
:10163000E90006C080911F02909120029111826002
:101640009091E800977F9093E8008093F1001092CA
:10165000F1008091E8008E7731C0282F2D7F21F492
:101660008823F1F0823079F18091E80083FF0AC08D
:101670008091E800877F8093E8008091EB00806292
:101680008093EB001F701093E900AA960FB6F894B0
:10169000DEBF0FBECDBFDF91CF911F910F91089597
:1016A00080912402813001F7933009F080E080932B
:1016B00020021092E9008091E800877F8093E80083
:1016C0000E949509D1CF809124028111F2CF80919F
:1016D00026028F702FEF280F243030F68093E90018
:1016E0002091EB0020FFE5CF933031F48091EB00A7
:1016F00080628093EB00DDCF9091EB00906190933E
:10170000EB0021E030E001C0220F8A95EAF7209338
:10171000EA001092EA008091EB008860EACF811124
:10172000A3CF009124020F778091E3008078802B73
:101730008093E3008091E800877F8093E8000E9417
:1017400095098091E80080FFFCCF8091E3008068DC
:101750008093E30083E0011101C082E080932A02BC
:1017600083CF8058823008F07FCF209124023091BF
:1017700025022C3D83E03807A1F583E08A838AE2C5
:1017800089834FB7F894DE01139620E03EE051E2E2
:10179000E32FF0E050935700E49120FF03C0E2955F
:1017A000EF703F5FEF708E2F90E0EA30C0F0C79689
:1017B0008D939D932F5F243159F74FBF8091E8009F
:1017C000877F8093E8006AE270E0CE0101960E9474
:1017D0000A098091E8008B778093E80045CFC09696
:1017E000E7CF8091260290912702432F552743305F
:1017F000510509F44FC078F54130510509F445C051
:1018000084E590E0E4EFF1E04230510509F02CCF9F
:101810002091E800277F2093E80020912802309152
:1018200029028217930708F49C0140E02115310535
:1018300009F063C0411161C08091E80082FDC9CF09
:1018400080912A02882329F2853019F28091E800DC
:1018500083FFF2CFBECF4132510509F43FC042327F
:10186000510509F001CF8330910508F0FDCEFC0150
:10187000EE0FFF1FE05DFE4F0190F081E02D835DD4
:101880009E4FDC018C9190E01DC082E190E0E8E485
:10189000F2E0BECF332721303105C1F060F02230B5
:1018A000310509F0E1CEEAE5F2E0E4918E2F90E017
:1018B000EAE5F2E007C0E6E9F2E0E4918E2F90E07D
:1018C000E6E9F2E0009709F4CFCEA2CFECE8F2E02F
:1018D000E4918E2F90E0ECE8F2E0F4CF83309105B4
:1018E00008F0C2CE880F991FFC01EA5CFE4F019000
:1018F000F081E02D89E090E08BCF80912A0288234F
:1019000009F467CF853009F464CF8091E80083FD46
:1019100060CF8091E80082FD8FCF8091E80080FF4A
:1019200085CF8091F20090E02115310519F08830C3
:10193000910550F041E0089709F040E08091E800FF
:101940008E778093E80072CF44914093F1003196F6
:10195000215031090196E8CF803809F085CE809179
:10196000E800877F8093E800809121028093F10056
:1019700070CE811179CE00912402023008F074CE2D
:101980008091E800877F8093E800009321020E9405
:101990009509002399F084E080932A0242E061ECEB
:1019A00081E00E94B40942E061EC82E00E94B40947
:1019B00046E261EC83E00E94B40956CE8091E300D8
:1019C00087FDE9CF81E0E8CFEF92FF920F931F935D
:1019D000CF937C018B010E946609C82F811119C029
:1019E0008091E80085FD0DC08091E8008E7780939E
:1019F000E8000E94E6090E946609882389F3C82F3F
:101A000008C0F70181917F018093F1000150110915
:101A100039F78C2FCF911F910F91FF90EF90089580
:101A20008091160208958091F101811113C09FB732
:101A3000F8944091E0025091E1026091E2027091CD
:101A4000E3029FBF443C59406105710518F081E0F5
:101A50008093F1010895FC01228130E02F5F3F4F18
:101A6000848190E028233923938181E09217130623
:101A700009F080E00895EF92FF920F931F93CF93A8
:101A8000DF93F82E0FB607FE34C080912A0284300F
:101A900031F08BE091E00E942B0D882381F10E94B0
:101AA000130D811106C08BE091E00E942B0D88235D
:101AB00031F10E947C078C01C091E900CF708091C8
:101AC000EC0080FD2FC080E0C82B83E08093E9000C
:101AD00085E0E82E8091EB0085FD08C08091EB0049
:101AE00080FF04C08091EE0087FD3CC0CF70C093A2
:101AF000E9008BE091E00E942B0D811178C0E0910C
:101B00000D0180910B0190910C01E80FF92FF11D4F
:101B1000F08280910D018F5F90910F018923809356
:101B20000D0165C080E8D0CFE0910B01F0910C0170
:101B3000E80FF11D90818F5F20910F018223809328
:101B40000E019093F1008091E80085FD0BC080911B
:101B5000E80080FF07C08091E8008E778093E8005E
:101B6000E0920A0180910E0190910D01981701F108
:101B70009091E80095FDD8CF80E021C01092F1004F
:101B800026C08BE091E00E942B0D882309F4AECF94
:101B9000D0910A01DD2309F4A9CF0E947C078017A8
:101BA000910709F497CFD150D0930A018C0192CFBD
:101BB0008091E80085FFE0CFF092F10081E0909104
:101BC000F200992379F09091E80090FF0BC090917A
:101BD000E80095FDD3CF9091E8009E779093E800C0
:101BE000E0920A01882369F2CF70C093E90080E097
:101BF000DF91CF911F910F91FF90EF900895E8EF43
:101C0000F1E0119282E0E430F807D9F7089590915D
:101C1000020280FF2EC0906890930202909102020F
:101C200081FF29C09064909302029091020282FF8A
:101C300024C09062909302029091020283FF1FC021
:101C40009061909302029091020284FF1AC0986002
:101C5000909302029091020285FF15C094609093C8
:101C600002029091020286FF10C0926090930202DD
:101C700008959F77D1CF9F7BD6CF9F7DDBCF9F7E6F
:101C8000E0CF977FE5CF9B7FEACF9D7FEFCF83307B
:101C9000C9F128F4813061F0823019F1089585305E
:101CA00009F452C008F43FC0863009F45EC00895BC
:101CB00080912101681790F4861B80932101809107
:101CC00021011F928F938BEE97E09F938F930E9439
:101CD000AC050F900F900F900F9008951092210176
:101CE000EECF80912001681750F4861B809320016D
:101CF000809120011F928F9389ED97E0E6CF10929B
:101D00002001F6CF80911F01681750F4861B809345
:101D10001F0180911F011F928F9386EC97E0D5CF12
:101D200010921F01F6CF80911E01681750F4861B98
:101D300080931E0180911E011F928F9381EB97E08B
:101D4000C4CF10921E01F6CF80911D01681750F488
:101D5000861B80931D0180911D011F928F9388E93E
:101D600097E0B3CF10921D01F6CF80911C01681748
:101D700050F4861B80931C0180911C011F928F934D
:101D80008DE797E0A2CF10921C01F6CF833009F4C3
:101D900045C028F4813061F0823049F108958530E2
:101DA00009F46AC008F451C0863009F47CC0089573
:101DB00080912101482F460F5527551F4F3F510550
:101DC00094F4680F60932101809121011F928F93F9
:101DD0008EE697E09F938F930E94AC050F900F9033
:101DE0000F900F9008958FEF80932101EDCF809198
:101DF0002001482F460F5527551F4F3F510554F4DA
:101E0000680F60932001809120011F928F938CE5D1
:101E100097E0E0CF8FEF80932001F5CF80911F01F5
:101E2000482F460F5527551F4F3F510554F4680F53
:101E300060931F0180911F011F928F9389E497E0A7
:101E4000C9CF8FEF80931F01F5CF80911E01482FDE
:101E5000460F5527551F4F3F510554F4680F6093A7
:101E60001E0180911E011F928F9384E397E0B2CFF1
:101E70008FEF80931E01F5CF80911D01482F460FF3
:101E80005527551F4F3F510554F4680F60931D01AE
:101E900080911D011F928F938BE197E09BCF8FEF75
:101EA00080931D01F5CF80911C01482F460F5527C7
:101EB000551F4F3F510554F4680F60931C018091EA
:101EC0001C011F928F9380E097E084CF8FEF809367
:101ED0001C01F5CFCF93DF9320912D0230912E027C
:101EE0002817390701F190932E0280932D02E0917B
:101EF000CC02F091CD023097B1F0EC010084F18575
:101F0000E02D09958091E6028570853061F4DF93BC
:101F1000CF9384EC92E09F938F930E94AC050F9037
:101F20000F900F900F90DF91CF910895CF93DF9393
:101F300020912B0230912C022817390701F1909340
:101F40002C0280932B02E091CC02F091CD023097CD
:101F5000B1F0EC010680F781E02D09958091E60251
:101F60008570853061F4DF93CF9386EB92E09F9389
:101F70008F930E94AC050F900F900F900F90DF9100
:101F8000CF910895CF93DF93E091CC02F091CD02F1
:101F90003097B1F1EC010480F581E02D0995809135
:101FA000E60283FF2DC08C81282F082E000C330BF6
:101FB0003F938F938B81282F082E000C330B3F9378
:101FC0008F938A81282F082E000C330B3F938F9319
:101FD0008981282F082E000C330B3F938F93888123
:101FE0001F928F938AE992E09F938F930E94AC0592
:101FF0008DB79EB70C960FB6F8949EBF0FBE8DBFDF
:10200000DF91CF9108950F931F93CF93DF938C01AE
:10201000F894C0912A01D0912B01CE010E942B0D82
:10202000811110C08A8190E0880F991F2881398121
:10203000820F931FFC01118300838A818F5F9C8133
:1020400089238A837894C80180519140029760F077
:102050001F930F9385E591E09F938F930E94AC05AA
:102060000F900F900F900F90DF91CF911F910F91D4
:1020700008958FEE91E00E94031090E080E00C94B0
:10208000031088E498E00E9413051F9281E08F936B
:102090001F9285E08F938AEF97E09F938F930E9422
:1020A000AC050F900F900F900F900F900F90089528
:1020B000CF93DF9300D000D01F92CDB7DEB78091D1
:1020C000E60283FF7BC080E394E00E9413058091C9
:1020D000DB021F928F938BE294E09F938F930E9479
:1020E000AC0589E294E00E9413058091DC02282F60
:1020F000082E000C330B3F938F9386E294E09F935E
:102100008F930E94AC0584E294E00E9413058091B5
:10211000DD02282F082E000C330B3F938F9381E2B2
:1021200094E09F938F930E94AC058FE194E00E940E
:1021300013058091DE02282F082E000C330B3F93ED
:102140008F938CE194E09F938F930E94AC058AE17A
:1021500094E00E9413058091DF02282F082E000CC6
:10216000330B3F938F9387E194E09F938F930E946B
:10217000AC0584E194E00E9413058091D3021F9284
:102180008F9381E194E09F938F930E94AC058FE041
:1021900094E00E9413058091D2021F928F938CE0ED
:1021A00094E09F938F930E94AC0589E094E00E9495
:1021B00013050FB6F894DEBF0FBECDBF85E0EBED83
:1021C000F2E0DE01119601900D928A95E1F7898186
:1021D0009091D402892B8983CE0101960E94C20F6F
:1021E0000E947C079093DA028093D9020F900F909F
:1021F0000F900F900F90DF91CF9108950F931F9341
:10220000CF93DF938091D0029091CF02892B80935E
:10221000CE019091CE02992389F0892B8093CE0133
:10222000EFECF1E026ED31E080E0919191118F5FCC
:102230002E173F07D1F781111092CE02E091CC0208
:10224000F091CD023097B1F10280F381E02D8EEC58
:1022500091E009958091E60282FF2CC080FF04C0C6
:102260008EE993E00E941305D0E0C0E008E913E096
:102270008091E60280FF0EC0FE01E253FE4F808196
:102280001F928F931F930F930E94AC050F900F9096
:102290000F900F902196C830D10551F78091E6023A
:1022A00080FF08C086E993E0DF91CF911F910F91E5
:1022B0000C941305DF91CF911F910F910895109207
:1022C000D0021092CF02EEECF1E011821282138262
:1022D00014821582168217820E94FE1085E0EBEDB3
:1022E000F2E0DF011D928A95E9F71092D302109275
:1022F000D2020E94581090E080E00E94960F90E079
:1023000080E00C946A0FCF93C82F1F928F9383E4C1
:1023100099E09F938F930E94AC0581E090E0A0E04C
:10232000B0E004C0880F991FAA1FBB1FCA95D2F73F
:102330008093E7029093E802A093E902B093EA0247
:102340000F900F900F900F90CF910C945F118823F6
:1023500041F080959091D00289238093D0020C9413
:10236000FE100895882339F09091D002892B809334
:10237000D0020C94FE1008958823E1F19CEF980F91
:10238000913A68F4EEECF1E09281891301C0128277
:10239000319641E0E43DF407B9F70C94FE1090E269
:1023A000980F983088F4877021E030E0A90102C0CE
:1023B000440F551F8A95E2F7CA0180959091D0028B
:1023C00089238093D002E9CF9BE5980F933020F4C6
:1023D00090E080E00C94960F98E5980F973120F4E8
:1023E00090E080E00C946A0F803F20F00E94D205BC
:1023F0000C94581008958732D8F58E3108F0FCC03F
:102400008E3009F48FC078F4873009F470C08B30B7
:1024100009F456C0863009F458C08DE095E00E945A
:10242000130580E00895863109F4A6C078F4803160
:10243000A1F79091E602892F877F93FF88608093B0
:10244000E60283FF7FC08CE896E063C0893109F41F
:102450007CC08B3111F79091E602892F8D7F91FF1F
:1024600082608093E60281FF5AC085EC96E051C0FD
:10247000883331F150F4893221F0853311F08732FD
:1024800061F680E00E94831140C08334D1F320F4D0
:102490008A3318F28953F6CF883409F0BECF0E94F0
:1024A0005F118BEE96E00E9413052FEF83ED90E312
:1024B000215080409040E1F700C000000E94EB08EE
:1024C00083E594E00E94130520C08091E602817F9D
:1024D0008E7F8093E60286EE94E00E9413058CEFD7
:1024E00096E00E94130581E08093E50208958091B3
:1024F000E60280FF0CC08EED96E00E9413058091ED
:10250000E602817F8E7F8093E60281E0089582ED6E
:1025100096E00E9413058091E6028160F4CF87EB7C
:1025200096E0D0CF9091E602892F8B7F92FF846056
:102530008093E60282FF03C088EA96E0EACF88E94A
:1025400096E0C0CF8FE796E0BDCF80E796E00E948F
:1025500013058DE596E00E9413058AE196E00E943E
:10256000130584EF95E00E94130584EA95E00E942C
:10257000130588E795E0A6CF8AE695E00E9413054B
:102580000E94C8081F928F9380E595E09F938F93D8
:102590000E94AC0580911B011F928F9389E395E007
:1025A0009F938F930E94AC058091E4021F928F93BA
:1025B00086E295E09F938F930E94AC052FB7F89425
:1025C0008091E0029091E102A091E202B091E302D9
:1025D0002FBFBF93AF939F938F938FE095E09F930F
:1025E0008F930E94AC058DB79EB742960FB6F894B4
:1025F0009EBF0FBE8DBF89CF8D5144CFCF9388230F
:1026000009F4B1C0C82F8CEF8C0F813A08F057C184
:102610008091E502813071F1F8F0823009F45BC0FD
:102620001092E502A0EDB1E0EFEF80E09D91C917B7
:1026300081F0EF3F19F4911101C0E82F8F5F8630D0
:10264000A9F7EF3F31F00E2E000CFF0BE253FE4FC7
:10265000C283CF910C94FE108091CE01843421F07E
:10266000883811F08232F1F68C2F0E94FB11811113
:102670007AC0D8CF8091CE018434B1F38838A1F3E9
:10268000823291F3C431C9F048F4CB3059F0C031F3
:10269000C1F084ED92E00E94130511C0C93269F0C7
:1026A000C833B9F786EE94E00E9413058AED92E0F4
:1026B0000E94130581E08170DACF1092E50280E07C
:1026C000FACF0E94411086ED92E00E94130582E04D
:1026D0008093E502EFCFC432C8F4CE3108F0BEC01B
:1026E000CB30E1F040F4C73009F4CFC083E893E089
:1026F000CF910C941305C331C1F1C431B9F7809166
:102700002F02882349F110922F020AC0CB3409F41A
:10271000BAC0C0F4C93299F3C83341F70E944110DE
:1027200080912F02882309F4C7C01F928F938DE7F1
:1027300093E09F938F930E94AC050F900F900F90A2
:102740000F9011C0C13509F498C0C23509F48FC08B
:10275000CE3461F66AE092C082E993E00E941305EC
:1027600081E08093E502CF9108958CE693E00E948A
:1027700013058AE593E00E941305809121011F92C1
:102780008F9387E593E09F938F930E94AC0585E537
:1027900093E00E94130583E493E00E941305809167
:1027A00020011F928F9380E493E09F938F930E9468
:1027B000AC058EE393E00E9413058FE293E00E9444
:1027C000130580911F011F928F938CE293E09F93DA
:1027D0008F930E94AC058AE293E00E94130589E181
:1027E00093E00E94130580911E011F928F9386E152
:1027F00093E09F938F930E94AC0584E193E00E9445
:1028000013058FEF92E00E94130580911D011F9226
:102810008F938CEF92E09F938F930E94AC058AEF89
:1028200092E00E94130583EE92E00E9413058091CE
:102830001C011F928F9380EE92E09F938F930E94D2
:10284000AC058EED92E00E9413058DB79EB74896B9
:102850000FB6F8949EBF0FBE8DBF62CFCE51EC2F46
:10286000F0E0E45CFE4F808180932F0259CF61E05D
:1028700080912F020E94C60E53CF61E080912F02FB
:102880000E94470E4DCF6AE0F3CF8EE18093210185
:1028900082E3809320018AE080931F0184E180938A
:1028A0001E0188E080931D0188E280931C0185E869
:1028B00093E00E94130534CF8AE793E019CF80E2BA
:1028C0008C0F883068F4C77021E030E001C0220F1F
:1028D000CA95EAF78091D002822B8093D002B9CEBC
:1028E0008BE58C0F833068F481E890E0C53A31F0D5
:1028F00083E890E0C63A11F482E890E0CF910C941E
:10290000960F88E58C0F873108F068C082EE90E062
:10291000C83A09F460C089EE90E0C93A09F45BC096
:102920008AEE90E0CA3A09F456C085EB90E0CB3AC3
:1029300009F451C086EB90E0CC3A09F44CC083EB2B
:1029400090E0CD3A09F447C084EB90E0CE3A09F428
:1029500042C087EB90E0CF3AF1F188EB90E0C13BC9
:10296000D1F18DEC90E0C03BB1F183E891E0C23B46
:1029700091F18AE891E0C33B71F182E991E0C43BB7
:1029800051F184E991E0C53B31F181E292E0C63B2F
:1029900011F183E292E0C73BF1F084E292E0C83BA0
:1029A000D1F085E292E0C93BB1F086E292E0CA3B09
:1029B00091F087E292E0CB3B71F08AE292E0CC3B6F
:1029C00051F08FE690E0CD3B31F090E080E0CE3BDF
:1029D00011F480E790E0CF910C946A0FCF3B69F43B
:1029E0000E945F119FEF20E782E0915020408040DD
:1029F000E1F700C000000E94EB08C03F08F4B3CE2E
:102A00008C2F0E94DD06CF910C945810CF92DF924C
:102A1000EF92FF920F931F93CF93DF9300D000D0DC
:102A20001F92CDB7DEB76C0185E0F601DE0111968D
:102A300001900D928A95E1F7F60140815181238141
:102A4000348191E02115310531F05F3F19F491E0B7
:102A50004F3F09F090E090FD99C0F6010281F580AA
:102A6000F2949FE0F92249835A830B83722F3D83AE
:102A70002C83602F8D810E948807182FE92FE29503
:102A8000EF70EF3008F082C0F0E0E75BFA4E0C9494
:102A9000692458155815961596150C163E16C61528
:102AA000C6155416C6152A172A17C615C615E617D1
:102AB000F92FFF70FF2E907F19F0F29480EFF8222B
:102AC0000023C9F0FF2039F08091CF02F82AF0925C
:102AD000CF020E94FE10812F0F900F900F900F9049
:102AE0000F90DF91CF911F910F91FF90EF90DF90AA
:102AF000CF900C94FE12812F0E94BC11FF2009F48C
:102B000045C0F0948091CF02F822F092CF020F904E
:102B10000F900F900F900F90DF91CF911F910F9119
:102B2000FF90EF90DF90CF900C94FE10892F8F7064
:102B3000907F903211F08295807F112379F01130CF
:102B400009F449C0002309F455C0FF2059F0F601EB
:102B5000958190FF8DC19F70958304C0002321F162
:102B6000F1100FC00F900F900F900F900F90DF910A
:102B7000CF911F910F91FF90EF90DF90CF900C9429
:102B8000B21121E0F212EECF8093CE020F900F909F
:102B90000F900F900F90DF91CF911F910F91FF90A9
:102BA000EF90DF90CF900895F11011C01092CE02F7
:102BB0000F900F900F900F900F90DF91CF911F917A
:102BC0000F91FF90EF90DF90CF900C94A71191E0C0
:102BD000F912ECCFDBCF002349F0E5E0EF15B0F2BE
:102BE0009091D002982309F4BDCFE2CFF4E0FF1515
:102BF00068F2DECFFF20E1F2812F0F900F900F904F
:102C00000F900F90DF91CF911F910F91FF90EF9058
:102C1000DF90CF900C94BC11892F86958695837098
:102C2000C1F0813009F0B2CF812F9370011102C041
:102C300090E080E00F900F900F900F900F90DF9139
:102C4000CF911F910F91FF90EF90DF90CF900C9458
:102C50006A0F812F9370011102C090E080E00F9005
:102C60000F900F900F900F90DF91CF911F910F91C8
:102C7000FF90EF90DF90CF900C94960F002389F097
:102C80000E94DD060F900F900F900F900F90DF9134
:102C9000CF911F910F91FF90EF90DF90CF900C9408
:102CA00058100E94D205EECF892F837009F064C0BE
:102CB00001116CCF812F829586958770880F880FC0
:102CC000412F4F70C42ED12CF12CE12C082E04C0C2
:102CD000CC0CDD1CEE1CFF1C0A94D2F740E050E047
:102CE000BA0114FF11C00FE010E020E030E004C092
:102CF000000F111F221F331F8A95D2F7B901A801B7
:102D000040955095609570950091E7021091E8020A
:102D10002091E9023091EA0296959695937092304F
:102D2000E9F028F5913089F04C295D296E297F2939
:102D300040235123622373234093E7025093E80218
:102D40006093E9027093EA0221CFC02AD12AE22AD5
:102D5000F32A4C295D296E297F29EECF4C295D2964
:102D60006E297F294027512762277327E5CF40230B
:102D7000512362237323EDCF8695002311F0892F11
:102D80008170882309F402CF812F82958695877000
:102D9000880F880F412F4F70C42ED12CF12CE12CBD
:102DA000082E04C0CC0CDD1CEE1CFF1C0A94D2F7CC
:102DB00040E050E0BA0114FF11C00FE010E020E045
:102DC00030E004C0000F111F221F331F8A95D2F775
:102DD000B901A801409550956095709500916802E1
:102DE0001091690220916A0230916B029695969536
:102DF00093709230E9F028F5913089F04C295D29E3
:102E00006E297F2940235123622373234093680254
:102E10005093690260936A0270936B02B7CE0C29DB
:102E20001D292E293F29402B512B622B732BEECFCE
:102E30004C295D296E297F29402751276227732756
:102E4000E5CF40235123622373234C295D296E294A
:102E50007F29DCCF803F09F44EC0D0F480E4810F9D
:102E6000803270F1002309F4ACC0FF2009F4A6C041
:102E7000812F0E94FE12193309F099C0FFEF21EE55
:102E800084E0F15020408040E1F700C000007ECE99
:102E9000823F09F470C008F45BC0833F19F7002338
:102EA00009F47CC0292F2F7181E090E0A0E0B0E010
:102EB00004C0880F991FAA1FBB1F2A95D2F73AC0DA
:102EC000E12FE071FE2E892F8F71002351F00E94B7
:102ED0005208812F8295807FF11044CE812F8F7010
:102EE00041CE0E942E08812F8295807FF11060CE06
:102EF000812F8F705DCE002331F1F4E0FF1508F4CF
:102F000045CE292F2F7181E090E0A0E0B0E004C011
:102F1000880F991FAA1FBB1F2A95D2F740916802FC
:102F20005091690260916A0270916B028427952723
:102F3000A627B7278093680290936902A0936A023C
:102F4000B0936B0223CE25E02F1508F41FCED9CF06
:102F5000892F8F71002399F00F900F900F900F9091
:102F60000F90DF91CF911F910F91FF90EF90DF9025
:102F7000CF900C945208892F8F71002369F30F9022
:102F80000F900F900F900F90DF91CF911F910F91A5
:102F9000FF90EF90DF90CF900C942E081092680273
:102FA0001092690210926A0210926B02EFCD1335F3
:102FB00009F464CF173409F0E9CD60CF892F8F7100
:102FC000CBCFF11019CE892F8F71D9CF8111DECDE2
:102FD000002309F4DBCD0E945F118FEF90E7E2E060
:102FE00081509040E040E1F700C000000E94EB08F3
:102FF0001F93CF93DF9380913502807FB1F480914E
:103000003202882391F02091670210913602C0911C
:103010003002D0913102A0913302B091340241E0EC
:10302000CF3F09F040E0121304C0DF91CF911F9110
:10303000089581E0109721F0842FDF3F09F080E0B0
:1030400030E080FD33C0C90166E070E00E94442496
:10305000FC01E95CFD4F81818D1328C080818C13B8
:1030600025C08281811122C0838194818A1B9B0BA0
:10307000883C9105D8F4809135028F7080618093EF
:103080003502C90166E070E00E944424FC01E45C62
:10309000FD4F90819F709061908380E392E00E9449
:1030A0000615DF91CF911F910C9472082F5F3F4F4F
:1030B0002770B9CF9F92AF92BF92CF92DF92EF92DB
:1030C000FF920F931F93CF93DF93CDB7DEB7619736
:1030D0000FB6F894DEBF0FBECDBF8C0185E0F801BE
:1030E000DE011D9601900D928A95E1F7F80140816D
:1030F0002181F280C380D4809091300230913102DE
:10310000609133027091340281E06115710531F0F4
:103110003F3F19F481E09F3F09F080E0F82FF17004
:103120009F2E80FD4EC180E3A82E82E0B82EE09055
:103130003202F601E61BF70BEE2009F404C1809180
:103140003502582F507FE83CF10508F0BDC0511101
:1031500083C0EF2C321322C0941320C0F1101EC084
:103160008F70806180933502C5010E9406158091A1
:103170003502F80185838E2D61960FB6F894DEBF77
:103180000FBECDBFDF91CF911F910F91FF90EF90B8
:10319000DF90CF90BF90AF909F90089581E0C114D1
:1031A000D10431F02F3F19F481E04F3F09F080E066
:1031B00080FD14C081E08F25F82FF170BF2EE091C3
:1031C00067023091360280FD22C0FF20A1F280917B
:1031D0003502816080933502E12CCDCF80E0ECCFC9
:1031E000F0E0CF0166E070E00E944424DC01A95CBD
:1031F000BD4F11968C911197281307C08C914813DD
:1032000004C012968C918F11E0CF3196E770E313D2
:10321000E7CF7C2DD98AC88A522F6F2D89890E94C9
:103220008807292F22952F70223050F0243078F40F
:103230009F7051F0F8019581907F31F4E92C9BCF7C
:103240009F7011F08823D1F3805E8830B8F3C801F5
:103250000E9406159B2CF2CF321306C0941304C0B3
:10326000F801FF2009F48AC04D872E87FF867C2D48
:10327000D98AC88A522F6F2D89890E947C08882399
:1032800009F4AEC0FF2009F4ABC080913502803252
:1032900070F0209130023091310238872F831986E7
:1032A000DB86CA868C87CE0107960E94061586E0CB
:1032B000F801A0E3B2E001900D928A95E1F70E9437
:1032C000F817EE24E39457CF51110AC080E392E03F
:1032D0000E94061586E0F50111928A95E9F77CCFE8
:1032E00032130FC094130DC0F1100BC0F801858389
:1032F000C8010E94061586E0F50111928A95E9F74A
:103300003ACF4D872E87FF867C2DD98AC88A522FC7
:103310006F2D89890E947C08882309F461C0FF20F1
:1033200009F45EC080913502803208F220913002AB
:10333000309131023A8329831B82DD82CC828E83D5
:10334000CE010196B2CFE83CF105A8F6EF2CFF20A4
:1033500009F446C032131FC094131DC0809135027A
:1033600080FD10C0982F907F69F0F8018583903F11
:1033700031F0982F907F905F8F70892B8583C801E3
:103380000E94061586E0F801A0E3B2E001900D92DC
:103390008A95E1F7F0CE4D872E87FF867C2DD98A5E
:1033A000C88A522F6F2D89890E947C0881117FCF96
:1033B00080913502816080933502C8010E94061514
:1033C000DACEFF2069F04D872E87FF867C2DD98AC3
:1033D000C88A522F6F2D89890E947C08811167CF7E
:1033E000C8010E9406156DCFCF93DF93CDB7DEB72E
:1033F00067970FB6F894DEBF0FBECDBF4B8B5C8BCB
:103400006D8B7E8B8F8B1A8A198A85E0FE017396ED
:10341000DE011D9601900D928A95E1F786E0FE018E
:103420003D96DE01179601900D928A95E1F7CE0147
:1034300007960E945A18811138C086E0FE0137961F
:10344000DE01119601900D928A95E1F79F818885A2
:103450002A853B85232B39F08F3F19F481E09F3F6C
:1034600019F080E001C081E080FD1FC0809136022C
:1034700090E09C012F5F3F4F2770332740916702F8
:103480004217130661F166E070E00E944424DC01FB
:10349000A95CBD4F96E0FE01319601900D929A9580
:1034A000E1F7209336020E947208809167029091A2
:1034B0003602891709F190E066E070E00E9444242A
:1034C000895C9D4F0E945A188823B1F08091670251
:1034D00090E001968770992780936702E6CF0E945B
:1034E0005F11109236021092670286E0E0E3F2E08C
:1034F000DF011D928A95E9F767960FB6F894DEBF53
:103500000FBECDBFDF91CF910895CF93DF9300D051
:103510001F92CDB7DEB720912A02243041F52091C9
:103520001A01222321F123E029839B838A8382E0ED
:103530008093E9008FEF9091E800815095FD06C0DF
:1035400095ED9A95F1F700008111F5CF8091E80093
:1035500085FF0DC050E040E063E070E0CE010196D1
:103560000E94E40C8091E8008E778093E8000F9031
:103570000F900F90DF91CF910895CF93DF9300D0FC
:103580001F92CDB7DEB720912A02243081F5209119
:103590001A01222361F119821A821B8222E02983F7
:1035A0008138910520F0805891099B838A8382E0BD
:1035B0008093E9008FEF9091E800815095FD06C05F
:1035C00095ED9A95F1F700008111F5CF8091E80013
:1035D00085FF0DC050E040E063E070E0CE01019651
:1035E0000E94E40C8091E8008E778093E8000F90B1
:1035F0000F900F90DF91CF91089520912A022430EF
:1036000049F522E02093E9002FEF3091E8002150A6
:1036100035FD06C035ED3A95F1F700002111F5CFE3
:103620002091E80025FF16C020911A0150E040E0EB
:1036300063E070E0222339F021E02093F10050E0B4
:1036400040E065E070E00E94E40C8091E8008E7735
:103650008093E8000895CF93DF9320912A022430CD
:1036600011F521E02093E90021E8215021F030916B
:10367000E80035FF1BC02091E80025FF14C0EC01D5
:1036800050E040E068E070E00E94E40C8091E800C7
:103690008E778093E80088E0FE01A7E1B2E0019018
:1036A0000D928A95E1F7DF91CF910895EFE3F1E074
:1036B0003197F1F700C00000D8CFEF92FF920F933F
:1036C0001F93CF93DF938091EF019091F0010E94BF
:1036D0006D07892BF1F04C9905C08091EE01816056
:1036E0008093EE018091EE019091030291608F37FB
:1036F00029F0803829F4909103029E7F9093030271
:10370000880F8093EE010E947C079093F0018093D4
:10371000EF018091EC019091ED010E946D070897F7
:1037200010F480E078C080E191E00E9403100E94D4
:103730007C077C019093ED018093EC010E94B5051C
:10374000EC010196B1F4C7010E946D070497B0F334
:103750000E9439100E94FF0D81E0809304028FEFD8
:1037600091EE24E0815090402040E1F700C000003D
:10377000D8CF0E94B5058C01019609F05BC0C70146
:103780000E946D070497A8F30E9439100E94FF0D54
:1037900081E0809304023FEF81EE94E0315080405D
:1037A0009040E1F7E3CF1F930F93DF93CF9382E62F
:1037B00091E09F938F930E94AC050F900F900F9014
:1037C0000F900F900F90209709F1C038D10551F15B
:1037D000FE0183E0F595E7958A95E1F7EF70FF2705
:1037E000E850FE4F2081AE014770552781E090E000
:1037F00001C0880F4A95EAF7C7FF1AC08095822357
:103800008083802F8F770E94070E04C08FE591E0A0
:103810000E94130581E0DF91CF911F910F91FF90DE
:10382000EF900895802F07FFEECF8CE591E0F0CF69
:10383000822BE6CF809104028823C9F080E091E0DA
:103840000E9403100E94C80890E080FD92E082FD73
:1038500091E081FD93E0892F90E00E9403108FE3B7
:103860009FE10197F1F700C0000010920402C1151A
:1038700091E0D90729F4011521E0120709F451CF8D
:10388000CE01802B912B90FF8ECF1F930F93DF9350
:10389000CF938CE691E09F938F930E94AC050F909D
:1038A0000F900F900F900F900F903BCF78941F9236
:1038B0000F920FB60F9211248F939F93AF93BF93E4
:1038C0008091E0029091E102A091E202B091E302C6
:1038D0000196A11DB11D8093E0029093E102A09397
:1038E000E202B093E302BF91AF919F918F910F904D
:1038F0000FBE0F901F9018951F920F920FB60F9248
:1039000011248F939F93AF93BF938091D102811124
:1039100013C08091E0029091E102A091E202B09187
:10392000E3024196A11DB11D8093E0029093E10254
:10393000A093E202B093E302BF91AF919F918F9168
:103940000F900FBE0F901F9018951F920F920FB6F9
:103950000F9211242F933F934F935F936F937F9315
:103960008F939F93AF93BF93EF93FF938091E10069
:1039700082FF09C08091E20082FF05C08091E100D2
:103980008B7F8093E1008091E10080FF21C08091D6
:10399000E20080FF1DC08091E2008E7F8093E200F4
:1039A0008091E20080618093E2008091D800806283
:1039B0008093D80019BC85E080932A02809116027A
:1039C00080931502109216020E94FF0D0E945F1153
:1039D0008091E10084FF2FC08091E20084FF2BC022
:1039E00084E089BD86E089BD09B400FEFDCF8091E9
:1039F000D8008F7D8093D8008091E1008F7E8093E6
:103A0000E1008091E2008F7E8093E2008091E200ED
:103A100081608093E20080912102882309F460C0D4
:103A200084E080932A020E94FF0D0E945F11809122
:103A30001502809316028091E10083FF40C08091BF
:103A4000E20083FF3CC08091E100877F8093E1002A
:103A500082E080932A02109221028091E1008E7F01
:103A60008093E1008091E2008E7F8093E20080915C
:103A7000E20080618093E20042E060E080E00E942A
:103A8000B40981E080931B011092E40210921602A7
:103A900098E0E7E1F2E0DF011D929A95E9F71092D4
:103AA000CF011092D0011092D1011092D201109248
:103AB000D3011092D4011092D50180931A01FF9185
:103AC000EF91BF91AF919F918F917F916F915F9196
:103AD0004F913F912F910F900FBE0F901F9018950F
:103AE0008091E30087FD02C081E09BCF83E099CF06
:103AF000CF93DF93CDB7DEB72C970FB6F894DEBF28
:103B00000FBECDBF84B7877F84BF0FB6F894A8954A
:103B100080916000886180936000109260000FBE09
:103B200080E890E00FB6F894809361009093610074
:103B30000FBE8BE39DE090934D0180934C0180E19B
:103B400091E09093CD028093CC028BED91E00E94A6
:103B5000130554985C9A109280008AE0809381004B
:103B600088E690E0909389008093880082E08093BB
:103B70006F00E0912201F09123013097E1F0429132
:103B80008091240121E030E0B90102C0660F771F67
:103B90008A95E2F7CB01809584238083E09122010E
:103BA000F091230180819091240101C0220F9A9508
:103BB000EAF7282B2083E0912501F0912601309728
:103BC000C9F022913091270181E090E0AC0101C061
:103BD000440F3A95EAF7242B2083E0912501F091D8
:103BE000260120813091270101C0880F3A95EAF71C
:103BF000822B808380916900826080936900E89ABB
:103C000078940E94D408809163008E7F8093630033
:103C100081E0809314021092E2001092E100809102
:103C2000D8008F778093D8008091D80080688093E7
:103C3000D8008091D8008F7D8093D80084E089BD22
:103C400086E089BD09B400FEFDCF10922A021092D1
:103C500021021092200210921F0242E060E080E0F8
:103C60000E94B4098091E1008E7F8093E1008091F1
:103C7000E20081608093E2008091E200886080939E
:103C8000E2008091E0008E7F8093E000789482E0F3
:103C900084BD93E095BD9AEF97BD80936E000E941E
:103CA000FF0D81E08093040280912A02843009F0A4
:103CB00059C10E94130D882309F454C189EC91E085
:103CC0000E9413050E9439107FEF81EE94E071503D
:103CD00080409040E1F700C000008BEB91E00E9433
:103CE0001305F0E94F2EF1E05F2EA8EA6A2EA1E05D
:103CF0007A2EB0EBCB2EB1E0DB2E80912A028530FC
:103D000009F433C18091F6019091F7010E946D078B
:103D10000897B0F081E191E00E9403100E947C07B7
:103D20005C019093F7018093F6010E94B5058C0128
:103D3000019609F054C1C5010E946D070497A8F3CC
:103D40000E945D1B06E012E0E8EFAE2EE1E0BE2E21
:103D5000312CF50121905F01F8019080921409F453
:103D600066C08091E60281FF3EC08BE991E00E942F
:103D7000130528EF31E03C872B87F12CE12CEB85F4
:103D8000FC852191FC87EB87229530E0C901880FE3
:103D9000991F880F991F8C7C359527953595279508
:103DA0002373822B90E02CE231E03F932F939C0110
:103DB000220F331F2A7A959587958575822B1F923E
:103DC0008F93FF92EF925F924F920E94AC056FEF3C
:103DD000E61AF60A0FB6F894DEBF0FBECDBF9CE020
:103DE000E916F10461F6E12CFF24F3949224892D65
:103DF0008F21C1F0E9823A8291E08F2D822109F46E
:103E000090E09B830E947C078160782F9D838C8348
:103E100049815A816B818D810E94F419F80180815A
:103E20008F258083E394FF0CF8E0EF12E0CF33940A
:103E30000F5F1F4F2CE032128CCF8FEF8E838F835A
:103E400018860E947C078160782F9A8789874E8127
:103E50005F8168858A850E94F4198091D9029091CA
:103E6000DA020E946D07FC012091D30280912001AB
:103E700090E0211107C08091210190E06AE070E09C
:103E80000E944424E817F90780F08091DC02F0904A
:103E9000DD020091DE021091DF02811148C1F110B4
:103EA00027C2011125C2111123C20E94C808909196
:103EB0000502891711F10E94C808809305029091AC
:103EC000E6029570953051F41F928F93DF92CF9256
:103ED0000E94AC050F900F900F900F9080910502FB
:103EE00031E0309304021F928F937F926F920E9471
:103EF000AC050F900F900F900F902091E40030913F
:103F0000E50080911202909113022817390739F1C8
:103F10008091E4009091E500909313028093120247
:103F20000E94130D8823D9F080912A028430B9F4BD
:103F30008091E9008F709091EC0090FF66C190E84D
:103F4000892B93E09093E9009091EB0090FF04C0DF
:103F50009091EE0097FD77C18F708093E9000E94E9
:103F6000E609CBCE0E94E6099FCE80912A028430DA
:103F700021F11092D10288E190E020E40FB6F8948C
:103F8000A895809360000FBE2093600083B7817F67
:103F9000846083BF83B7816083BF7894889583B73B
:103FA0008E7F83BF0FB6F894A895809160008861DA
:103FB00080936000109260000FBE809120028823E1
:103FC00009F49BCE0E945D1BE8EFF1E084E092E0F3
:103FD0002191211158C18E179F07D1F78ECE0E94D3
:103FE000B5057C01019609F064C1C5010E946D0709
:103FF0000497A8F3A5CE8091E60280FF10C0FF923F
:10400000EF921F930F9387E791E09F938F930E9406
:10401000AC050F900F900F900F900F900F901B8298
:104020001C821D82C8018095909581709927282F48
:10403000E0FE22602983059501950A83E594E194C9
:10404000EB8285E0FE013196A4EDB2E001900D9285
:104050008A95E1F78091D4029091F50181FF36C0F5
:104060008D7F8093D402911109C00E947C079093A8
:10407000F4018093F30131E03093F5018091D60291
:104080009091F201890F082E000C990B6AE070E004
:104090000E94552461956093D7028093F20110929B
:1040A000D8021092D5021092D602662319F082E04F
:1040B0008093F5018091D4029091DB02892B80934B
:1040C000D40284ED92E00E94C20F3ACE913041F5C5
:1040D0008091F3019091F4010E946D07883C910555
:1040E000F8F48091D40282608093D4021092D502B9
:1040F0001092D6021092D7021092D80284ED92E06C
:104100000E94C20F4FEF61EE74E04150604070407A
:10411000E1F700C000008091D4028D7F8093D4022B
:104120001092F5011092F4011092F301C3CF2F3FCA
:1041300019F02F5F2093D302181624F40E949106E1
:104140008093DC028091DC0287FF05C00E9491060B
:1041500081958093DC021F1424F40E9491068093C1
:10416000DD028091DD0287FF05C00E9491068195E6
:104170008093DD026091DC02662331F1F090DD0274
:10418000FF2011F1062E000C770B880B990B0E9473
:10419000432323E333E343E35FE30E94A7230E9427
:1041A0000B236093DC026F2DFF0C770B880B990BB0
:1041B0000E94432323E333E343E35FE30E94A72307
:1041C0000E940B236093DD02101624F40E94560611
:1041D0008093DE028091DE0287FF05C00E945606B2
:1041E00081958093DE02111624F40E945606809376
:1041F000DF028091DF0287FF05C00E94560681958D
:104200008093DF020E94581050CE90E099CEE0914A
:104210000B01F0910C01E90FF11D20819F5F30919E
:104220000F01932390930E012093F1009091E800E9
:1042300095FD09C09091E80090FF05C09091E800BD
:104240009E779093E80090910E0120910D0129171F
:1042500021F02091E80025FDDACF9091F20099231A
:1042600009F47ACE9091E80090FF76CE9091E80024
:1042700095FD06C09091E8009E779093E8006CCE83
:104280001092F100F3CF84E089BD86E089BD09B4C6
:1042900000FEFDCF8091D8008F7D8093D800809163
:1042A000E00082608093E0008091E00081FDFCCF1F
:1042B00024CD011541E0140729F4E11421E0F206B0
:1042C00009F43ECDC8018E299F2990FF94CEFF921C
:1042D000EF921F930F9383E891E09F938F930E9437
:1042E000AC050F900F900F900F900F900F9028CD6E
:1042F0002F3F09F01ECF2FCF1F920F920FB60F92B4
:1043000011242F933F934F935F936F937F938F93DA
:104310009F93AF93BF93EF93FF938091EB0189300D
:1043200008F58130C0F1E0912501F09126019091CE
:10433000270121E030E001C0220F9A95EAF7409171
:10434000E9015091EA01A82FA150BB0B02C055957D
:104350004795AA95E2F7908140FF55C0292B20830D
:104360008F5F4EC08A3009F46BC008F44FC08B30A9
:1043700009F477C0FF91EF91BF91AF919F918F9119
:104380007F916F915F914F913F912F910F900FBE51
:104390000F901F901895E0912A01F0912B018381D5
:1043A0009281981307C08FEF9FEF9093EA0180935B
:1043B000E901E0CF282F30E0220F331FA081B18127
:1043C000A20FB31F2D913C918F5F9481892383832A
:1043D0003093EA012093E9012F3F3F4F59F2E091DA
:1043E0002501F091260120813091270181E090E0A4
:1043F00001C0880F3A95EAF780958223808381E097
:104400008093EB01B7CF20952923A9CFE091250117
:10441000F09126012091270181E090E001C0880FF2
:104420002A95EAF72091E9013091EA01908130FF65
:1044300004C0892B80838AE0E3CF80958923FACF5B
:10444000E0912501F091260180819091270121E0E2
:1044500030E001C0220F9A95EAF7822B80838BE02F
:10446000CFCF1092EB011092EA011092E90182CFB6
:104470001F920F920FB60F9211242F933F934F93D9
:104480005F936F937F938F939F93AF93BF93CF93DC
:10449000DF93EF93FF93809122019091230140914C
:1044A00024012091E8012930C8F4213070F13091C5
:1044B000E70136953093E7010297FC01808190E097
:1044C00002C0959587954A95E2F780FF03C0306852
:1044D0003093E7012F5F2093E80104C02930C9F031
:1044E0002A3029F1FF91EF91DF91CF91BF91AF91E8
:1044F0009F918F917F916F915F914F913F912F91FC
:104500000F900FBE0F901F90189581E08093E801E7
:10451000E9CF0297FC01808190E002C095958795D4
:104520004A95E2F781708093E6018AE0EFCF029727
:10453000FC01808190E002C0959587954A95E2F74D
:1045400080FF20C0C0912801D0912901CE010E9496
:104550002B0D811117C08A8190E0880F991F288147
:104560003981820F931F2091E6013091E7012327C3
:1045700032272327FC01318320838A818F5F9C812E
:1045800089238A83B19A80916F00826080936F0043
:1045900080916F008B7F80936F00B29AE09AE89AC7
:1045A0001092E8011092E7019DCF1F920F920FB673
:1045B0000F9211248F939F93809184009091850096
:1045C000C39690938B0080938A0080918A0090918B
:1045D0008B008936910550F080918A0090918B0074
:1045E0008856910990938B0080938A0080916F0088
:1045F0008D7F80936F00B19AB29A80916F00846032
:1046000080936F00E898E09A9F918F910F900FBE72
:104610000F901F9018950E9412236894B1110C946A
:10462000A12308950E94862388F09F5798F0B92F00
:104630009927B751B0F0E1F0660F771F881F991FD7
:104640001AF0BA95C9F714C0B13091F00E94A023B6
:10465000B1E008950C94A023672F782F8827B85FC6
:1046600039F0B93FCCF3869577956795B395D9F72F
:104670003EF490958095709561957F4F8F4F9F4F39
:104680000895E89409C097FB3EF490958095709545
:1046900061957F4F8F4F9F4F9923A9F0F92F96E98E
:1046A000BB279395F695879577956795B795F11103
:1046B000F8CFFAF4BB0F11F460FF1BC06F5F7F4FA0
:1046C0008F4F9F4F16C0882311F096E911C07723B2
:1046D00021F09EE8872F762F05C0662371F096E8BB
:1046E000862F70E060E02AF09A95660F771F881F8A
:1046F000DAF7880F9695879597F9089557FD9058A2
:10470000440F551F59F05F3F71F04795880F97FB95
:10471000991F61F09F3F79F087950895121613064F
:104720001406551FF2CF4695F1DF08C0161617067E
:104730001806991FF1CF86957105610508940895B3
:10474000E894BB2766277727CB0197F908950E9445
:10475000B9230C9433240E94252438F00E942C2481
:1047600020F0952311F00C941C240C9422240C941A
:10477000A1230E947E2378F39923C9F35523B9F32B
:10478000950F50E0551FAA27EE27FF27BB270024CF
:104790000894679520F4E20FF31FB41F0A1E220F3E
:1047A000331F441FAA1F6695A9F7779530F4F30FBE
:1047B000B41F0A1E121E08F46395330F441FAA1F6C
:1047C000221F769599F7879520F4B40F0A1E121EC2
:1047D000631F440FAA1F221F331F8695A9F7862F38
:1047E000712D602D11249F5750409AF0F1F08823CD
:1047F0004AF0EE0FFF1FBB1F661F771F881F9150E7
:104800005040A9F79E3F510580F00C941C240C9455
:10481000A1235F3FE4F3983ED4F38695779567959F
:10482000B795F795E7959F5FC1F7FE2B880F911D10
:104830009695879597F9089597F99F6780E870E0B6
:1048400060E008959FEF80EC089500240A94161606
:10485000170618060906089500240A94121613066E
:10486000140605060895092E0394000C11F48823FC
:1048700052F0BB0F40F4BF2B11F460FF04C06F5F18
:104880007F4F8F4F9F4F08950024552704C0080E77
:10489000591F880F991F009729F076956795B8F3EF
:1048A0007105B9F7802D952F089597FB072E16F403
:1048B000009407D077FD09D00E946F2407FC05D033
:1048C0003EF4909581959F4F0895709561957F4F27
:1048D0000895EE0FFF1F0590F491E02D0994AA1B97
:1048E000BB1B51E107C0AA1FBB1FA617B70710F0DB
:1048F000A61BB70B881F991F5A95A9F7809590950D
:0A490000BC01CD010895F894FFCF2B
:10490A00D601000003DE01000003054E0100007F0E
:10491A00100D2B1BFD1ABD1A851A01012808140A4D
:10492A00321E2B00002B00010501000100407F22EE
:10493A0015019600740006021F02380201020304E0
:0C494A0005060708090000080004000230
:106800000000000000000000040005000600070072
:10681000080009000A000B000C000D000E000F001C
:1068200010001100120013001400150016001700CC
:10683000180019001A001B001C001D001E001F007C
:10684000200021002200230024002500260027002C
:10685000280000002A002B002C002D002E002F0005
:1068600030003100000033003400290036003700CA
:106870003800E00000000000000000000000000000
:106880000000000000000000000000000000000008
:106890000000E944E2444B00EA4400004E004F008F
:1068A0005000510052003500310054005500560090
:1068B000580059005A005B005C005D005E005F00FC
:1068C00060006100620063000000F1A15700000059
:1068D00000000000000000000000000000000000B8
:1068E00000000000000000000000000000000000A8
:1068F000E200E1000000E300E600E5000000000027
:106900000100010001000100EA4401000601E24427
:106910000100010001005500460054004A004B00F0
:10692000560057004700480031000100E9440100CB
:106930000100190101001B0101001D013A003B008B
:106940003C003D003E003F0040004100420043004B
:10695000010001004C0039000100440045005200D4
:1069600049000100010050004F0035004D004E006D
:1069700051000100010001000100010001000100BF
:1069800001000100010001000100010001000100FF
:1069900001000100010001000100010001004D00A3
:1069A0004A004E004B0053000100010001000100AD
:1069B00001000100010001000100010001000100CF
:1069C00001000100010001000100010001000100BF
:1069D00001000100010001000100010001000100AF
:1069E000010001000100010001000100010001009F
:1069F000010001000100010001000100010001008F
:00000001FF
