:100000000C94A3000C94EB000C94EB000C94EB000C
:100010000C94EB000C94EB000C94EB000C94EB00B4
:100020000C94EB000C94EB000C94EB000C94BA05D0
:100030000C9448030C941F030C94EB000C94EB00FD
:100040000C94EB000C94EB000C94EB000C94F90274
:100050000C94EB000C94EB000C94EB000C94EB0074
:100060000C94EB000C94EB000C94EB000C94EB0064
:100070000C94EB000A002530325820000A25303459
:10008000583A2000656570726F6D3A002E000A4C78
:100090006F6F702073746172742E0A000A55534298
:1000A00020636F6E666967757265642E0A000A5474
:1000B0004D4B3A3630343735642F4C5546413A640F
:1000C00036613764660A000631FF0974A1010975BB
:1000D000150026FF00952075088102097615002677
:1000E000FF00952075089102C0090222000101005D
:1000F000A0320904000001030000000921110100E1
:1001000001222200070583032000011201100100D3
:10011000000008EDFEEEEE010001020001180345AB
:10012000004500500052004F004D00200054006F69
:10013000006F006C000000080354004D004B0000ED
:1001400000040309040011241FBECFEFD4E0DEBF7A
:10015000CDBF04B603FE28C080919F019091A001FD
:10016000A091A101B091A2018730904BA740B04B64
:10017000D9F410929F011092A0011092A101109247
:10018000A20114BE0FB6F894A89580916000886112
:1001900080936000109260000FBE109201081092D0
:1001A0000008E0E0F8E3099511E0A0E0B1E0E6E244
:1001B000F0E102C005900D92A630B107D9F721E019
:1001C000A6E0B1E001C01D92AF39B207E1F70E948D
:1001D00062060C9411080C940000FF93EF93E091D9
:1001E0000601F0910701309709F00995EF91FF9111
:1001F0000895FC018591803011F0EFDFFBCF089569
:10020000FF27E0E230E247FF0CC0419597FF09C0AD
:10021000EDE26095709580959095611D711D811D31
:10022000911D27FF02C0219530E350E2AA27660FF7
:10023000771F881F991FAA1FA41710F0A41B63958E
:100240005A95A9F7AA3008F0A95FA05DAF93F3957E
:10025000611571058105910541F7ED3211F4EF93B8
:10026000F395F21718F43F93F395FBCF8F91B5DF19
:10027000FA95E1F70895E991F9918591803021F09F
:10028000853219F0AADFF9CF089520E0E89455915E
:100290005532C1F3503311F4689455915A3348F4F0
:1002A000505390F3220F022E220F220F200D250F04
:1002B000F4CF0EF4219589919991533619F3533760
:1002C00029F1533559F1BC0188279927E8945C3608
:1002D00021F48991999168945591543639F446EFF7
:1002E0007EF077FF0DC08FEF9FEF0AC055374AE0D1
:1002F00039F0583540E121F0523642E009F00895D6
:10030000FF93EF937DDFEF91FF91B7CFFF93EF93D3
:10031000FC0181918030B9F360DFFBCFFF93EF9355
:1003200068DFF1CFDF93CF93CDB7DEB72596A3DF9C
:10033000CF91DF9108952FB7F89480919B01909110
:100340009C01A0919D01B0919E012FBF08958091C5
:10035000920187FF13C08091E80082FF06C0809160
:10036000E8008B778093E80004C0809190018111B0
:10037000F2CF0895809190018823D9F38091E8000D
:1003800080FFF8CF8091E8008E77ECCF982F909384
:10039000E900242F762F50E0891731F07091EC009E
:1003A0002091ED005091F00021FD07C09F5F953036
:1003B00071F78093E90081E008953091EB003E7F72
:1003C0003093EB003091ED003D7F3093ED003091A4
:1003D000EB0031603093EB007093EC002093ED0064
:1003E0005093F0002091EE0027FDE0CF80E00895CB
:1003F00080918801811113C09FB7F89440919B01AF
:1004000050919C0160919D0170919E019FBF443C61
:1004100059406105710518F081E0809388010895C5
:10042000EF92FF920F931F93CF93DF93D82F0FB6C6
:1004300007FE46C080919001843079F080910301DD
:1004400090E001962091050130E0822393232091D2
:1004500004012817190609F0C9C00E94F80181118A
:100460000FC08091030190E001962091050130E0DA
:1004700082239323209104012817190609F0B6C09E
:100480000E949B018C01C091E900CF708091EC002B
:1004900080FD37C080E0C82B83E08093E90085E0D1
:1004A000E82E8091EB0085FD08C08091EB0080FF75
:1004B00004C08091EE0087FD44C0CF70C093E90076
:1004C000E09103018E2F90E001962091050130E02C
:1004D00082239323209104012817190609F47EC072
:1004E0008091010190910201E80FF92FF11DD08355
:1004F000809103018F5F909105018923809303010F
:100500006DC080E8C8CFE0910101F0910201E80FD1
:10051000F11D90818F5F209105018223809304015A
:100520009093F1008091E80085FD0BC08091E80078
:1005300080FF07C08091E8008E778093E800E0920A
:1005400000018091040190910301981741F190916D
:10055000E80095FDD8CF80E029C01092F1002EC0B0
:100560008091030190E001962091050130E0822303
:100570009323209104012817190609F09ECFF090CB
:100580000001FF2009F499CF0E949B018017910779
:1005900009F487CFFA94F09200018C0182CF809108
:1005A000E80085FFD8CFD093F10081E09091F20070
:1005B000992379F09091E80090FF0BC09091E800AA
:1005C00095FDCBCF9091E8009E779093E800E09264
:1005D0000001882329F2CF70C093E90080E0DF9109
:1005E000CF911F910F91FF90EF900895E09103013B
:1005F00077CF78941F920F920FB60F9211248F939A
:100600009F93AF93BF9380919B0190919C01A09188
:100610009D01B0919E010196A11DB11D80939B018A
:1006200090939C01A0939D01B0939E01BF91AF91C7
:100630009F918F910F900FBE0F901F9018951F9252
:100640000F920FB60F9211248F939F93AF93BF9386
:1006500080919A01811113C080919B0190919C011E
:10066000A0919D01B0919E014196A11DB11D809365
:100670009B0190939C01A0939D01B0939E01BF911B
:10068000AF919F918F910F900FBE0F901F90189573
:100690001F920F920FB60F9211240F931F932F9357
:1006A0003F934F935F936F937F938F939F93AF93FA
:1006B000BF93EF93FF93CF93DF93CDB7DEB7AA97A6
:1006C000DEBFCDBF1091E9001F708091EC0080FF6C
:1006D0002FC080E8182B1092E9008091F000877FEE
:1006E0008093F0007894E2E9F1E08AE991E02091CA
:1006F000F10021938E179F07D1F78091E80083FFC7
:1007000047C080919201909193019A3008F040C0C7
:10071000E92FF0E0E257FC4F0C940B089A03C0035A
:10072000C803C003C8033B045D04C8038C059905D6
:1007300080E0D0CF803889F0823851F580919601E1
:100740008F70853028F58093E9008091EB0085FB60
:10075000882780F91092E90006C080918E0190915F
:100760008F01911182609091E800977F9093E8004B
:100770008093F1001092F1008091E8008E7749C0DB
:10078000282F2D7F29F48823B1F1823009F446C047
:100790008091E80083FF0AC08091E800877F809302
:1007A000E8008091EB0080628093EB001092E900FA
:1007B0008091F00088608093F0001F701093E90032
:1007C000AA960FB6F894DEBF0FBECDBFDF91CF91D2
:1007D000FF91EF91BF91AF919F918F917F916F9119
:1007E0005F914F913F912F911F910F910F900FBEED
:1007F0000F901F90189580919401813049F69330A5
:1008000009F080E080938F011092E9008091E80068
:10081000877F8093E8000E94A701BACF809194015E
:100820008111F2CF809196018F702FEF280F243025
:1008300008F0AECF8093E9002091EB0020FFE4CFD9
:10084000933031F48091EB0080628093EB00DCCF39
:100850009091EB0090619093EB0021E030E001C0BB
:10086000220F8A95EAF72093EA001092EA0080911D
:10087000EB008860EACF81118BCF009194010F7754
:100880008091E3008078802B8093E3008091E800E2
:10089000877F8093E8000E94A7018091E80080FF95
:1008A000FCCF8091E30080688093E30083E0011136
:1008B00001C082E0809390016BCF8058823008F0B5
:1008C00067CF20919401309195012C3D83E038074A
:1008D00009F07AC083E08A838AE289834FB7F8946B
:1008E000DE01139620E03EE051E2E32FF0E050936A
:1008F0005700E49120FF03C0E295EF703F5FEF7077
:100900008E2F90E0EA30C0F0C7968D939D932F5FB5
:10091000243159F74FBF8091E800877F8093E8002A
:1009200080919801909199018A32910508F049C00F
:1009300040E0FE01319626C0C096E7CF209190019D
:10094000222391F1253081F12091E80023FD2CC074
:100950002091E80022FD1AC02091E80020FF12C07B
:100960002091F20030E0009719F02830310510F1A5
:1009700041E02830310509F040E02091E8002E7771
:100980002093E8000097D1F64111D8CF8091E8007C
:1009900082FD0AC080919001882331F0853021F0DA
:1009A0008091E80083FFF2CF8091E8008B778093FD
:1009B000E800EECE41914093F10001972F5F3F4F49
:1009C000D2CF8AE290E0B4CF409196015091970146
:1009D000832F99278330910509F43EC080F581303B
:1009E000910509F465C0029709F0D2CE82E290E049
:1009F000E9EEF0E02091E800277F2093E8002091C5
:100A00009801309199018217930708F49C0140E006
:100A10002115310509F051C041114FC08091E80006
:100A200082FDC2CF80919001882309F4BDCF85302B
:100A300009F4BACF8091E80083FFF0CFB5CF8132BF
:100A4000910571F18232910509F0A2CE452B09F092
:100A50009FCEE7ECF0E0CECF332721303105C1F057
:100A600060F02230310509F093CEEDE1F1E0E49140
:100A70008E2F90E0EDE1F1E007C0E1E4F1E0E491D8
:100A80008E2F90E0E1E4F1E0009709F481CEB2CF3F
:100A9000E7E3F1E0E4918E2F90E0E7E3F1E0F4CFBB
:100AA000452B09F075CE89E090E0EBEFF0E0A2CFA6
:100AB00082E190E0EBE0F1E09DCF8091900188230E
:100AC00009F472CF853009F46FCF8091E80083FD7F
:100AD0006BCF8091E80082FDA1CF8091E80080FF7C
:100AE00097CF8091F20090E02115310519F0883000
:100AF000910550F041E0089709F040E08091E8004E
:100B00008E778093E80084CF44914093F100319632
:100B1000215031090196E8CF803809F039CE809113
:100B2000E800877F8093E800809191018093F10035
:100B300023CE81112DCE00919401023008F028CEF1
:100B40008091E800877F8093E800009391010E94E4
:100B5000A701002349F084E08093900146E261EC14
:100B600083E00E94C60114CE8091E30087FDF3CF9D
:100B700081E0F2CF1F920F920FB60F9211242F93A4
:100B80003F934F935F936F937F938F939F93AF9315
:100B9000BF93EF93FF938091E10082FF09C08091A2
:100BA000E20082FF05C08091E1008B7F8093E1002D
:100BB0008091E10080FF17C08091E20080FF13C0A8
:100BC0008091E2008E7F8093E2008091E20080615C
:100BD0008093E2008091D80080628093D80019BC95
:100BE00085E0809390018091E10084FF27C080918F
:100BF000E20084FF23C084E089BD86E089BD09B49A
:100C000000FEFDCF8091D8008F7D8093D800809129
:100C1000E1008F7E8093E1008091E2008F7E8093DF
:100C2000E2008091E20081608093E2008091910176
:100C3000882309F43FC084E0809390018091E10013
:100C400083FF27C08091E20083FF23C08091E100F1
:100C5000877F8093E10082E0809390011092910160
:100C60008091E1008E7F8093E1008091E2008E7F91
:100C70008093E2008091E20080618093E20042E094
:100C800060E080E00E94C6018091F000886080935F
:100C9000F000FF91EF91BF91AF919F918F917F9164
:100CA0006F915F914F913F912F910F900FBE0F90D9
:100CB0001F9018958091E30087FD02C081E0BCCFB2
:100CC00083E0BACF84B7877F84BF0FB6F894A89526
:100CD00080916000886180936000109260000FBE78
:100CE00080E890E00FB6F8948093610090936100E3
:100CF0000FBE80E192E090930701809306018EEA97
:100D000090E00E94F9001092E2001092E1008091C0
:100D1000E00081608093E0008091D8008F7780931D
:100D2000D80019BC809163008160809363001092A9
:100D30008901809163008E7F8093630081E08093BE
:100D400089011092E2001092E1008091D8008F7723
:100D50008093D8008091D80080688093D8008091DB
:100D6000D8008F7D8093D80084E089BD86E089BD5E
:100D700009B400FEFDCF10929001109291011092E3
:100D80008F0110928E0142E060E080E00E94C60177
:100D90008091E1008E7F8093E1008091E20081608C
:100DA0008093E2008091E20088608093E20080916D
:100DB000E0008E7F8093E000789482E084BD93E031
:100DC00095BD9AEF97BD80936E008091900184301D
:100DD000E1F70E94F8018823C1F38CE990E00E94BA
:100DE000F90084E890E09F938F930E9492010F9006
:100DF0000F90D0E0C0E03CE7E32E30E0F32E06E7B2
:100E000010E0CE018F709927892B51F4DF93CF9397
:100E1000FF92EF920E9492010F900F900F900F900F
:100E2000CE010E94EF071F928F931F930F930E9492
:100E3000920121960F900F900F900F90C11584E0B2
:100E4000D807F9F684E790E09F938F930E94920170
:100E50008EE890E00E94F9000F900F9083E0D82E6A
:100E600008EE13E0CCE8D0E098E1E92EF12C20E484
:100E7000C22E80919001853009F44CC00E949B01E4
:100E80005C0180918A0190918B01A816B90661F0EE
:100E9000C501B8010E94F707892B31F4DF93CF9386
:100EA0000E9492010F900F90B0928B01A0928A0144
:100EB0002091E4003091E50080918C0190918D01AA
:100EC00028173907B1F28091E4009091E5009093E2
:100ED0008D0180938C010E94F801882351F280914A
:100EE0009001843031F68091E9008F709091EC0090
:100EF00090FD37C090E0892BD092E9009091EB00F3
:100F000090FF04C09091EE0097FD49C08F708093D0
:100F1000E900AFCF80919001843009F4AACF1092FC
:100F20009A010FB6F894A895E09260000FBEC092A7
:100F3000600083B7817F846083BF83B7816083BF94
:100F40007894889583B78E7F83BF0FB6F894A89561
:100F500080916000886180936000109260000FBEF5
:100F600088CF90E8C8CFE0910101F0910201E90F2C
:100F7000F11D20819F5F309105019323909304011F
:100F80002093F1009091E80095FD09C09091E80050
:100F900090FF05C09091E8009E779093E8009091B3
:100FA000040120910301291721F02091E80025FD7B
:100FB000DACF9091F200992309F4A8CF9091E8003C
:100FC00090FFA4CF9091E80095FD06C09091E800B5
:100FD0009E779093E8009ACF1092F100F3CFF999A1
:100FE000FECF92BD81BDF89A992780B50895AA1BBE
:100FF000BB1B51E107C0AA1FBB1FA617B70710F004
:10100000A61BB70B881F991F5A95A9F78095909535
:10101000BC01CD010895EE0FFF1F0590F491E02D66
:061020000994F894FFCFD3
:0610260005080100007F37
:00000001FF
